:020000040000FA
:100000004343323678325231C68DA10E0301FEFFD2
:10001000FFFF0700FFFFFFFF3442020090000000D7
:1000200030303031334202002C00FFFF03FEFFFF6F
:1000300055000000019D185A65B0177D511DEC1048
:100040008B7735E375F6036C8F402F8BB7CA71221F
:100050002C35F43576486AF35AA2451A7B69FC7E42
:10006000F59A140DF070173F2B2D7D1D44D622ED0F
:1000700014A40BCF88B8D0E7C65BED3ACC08FE0BD2
:100080007601FEFFFFB34102000000000000000007
:10009000E05500201D3202005133020051330200AE
:1000A0005133020051330200513302005133020038
:1000B0005133020051330200513302005133020028
:1000C000513302005133020011330200FFFFFFFFE2
:1000D0002A201B1424201B1424201B1400000000C1
:1000E000E4FEFFFFFFFFFFFF48FFFFFFFFFFFFFFF3
:1000F0001802000000000000A266FEFFFFFFFFFFE5
:100100007DFBFFFFFFFFFFFF62AC0000000000006F
:100110008E21FBFFFFFFFFFF15F2FFFFFFFFFFFF39
:10012000AEF2FFFFFFFFFFFF5FFE030000000000D5
:100130003E82FFFFFFFFFFFF6D38FEFFFFFFFFFF67
:100140001C2300200F09000055F60000F9F80000FC
:10015000212B0000212B0000212B000039FE000084
:1001600057FE0000212B000071FE0000A1FE0000E0
:10017000A7FE000049000100212B000051010100F1
:100180004DFA0000ADFE0000CDFE000059FF00005A
:10019000D5010100212B0000FD020100212B0000F0
:1001A000212B0000C5FA000015FE0000212B0000E5
:1001B000FBBF01001DBF010051C00100F1BE0100E5
:1001C00003BF0100A7C10100ABC10100D7C20100FC
:1001D0001DC2010047C30100EDC10100FFC10100C4
:1001E000A1C30100A5C30100215201002552010055
:1001F000D5550000DB5500000205000308100A0079
:10020000D83E0020DC3E00203A0100000000000043
:1002100000000000241F0020D81B00200000000068
:100220000000000002000000010000004801000082
:1002300040070000B001000060070000F00100006E
:1002400000000000E03E0020000000007C230020B1
:10025000DC230020F42300201024002040010000B3
:100260000000000000000000160000000000000078
:100270005265676973746572656420736572766927
:1002800063652C20256420617474726962757465DD
:10029000730000005265676973746572656420635A
:1002A000616C6C6261636B7320746F206170706C41
:1002B00069636174696F6E2E205374727563742064
:1002C000257000004E756C6C20706F696E746572DD
:1002D00020676976656E20666F722061707020639A
:1002E000616C6C6261636B732E0000005365745027
:1002F0006172616D657465723A20506172616D65FD
:1003000074657220232564206E6F742076616C6999
:10031000642E0000547279696E6720746F207365D3
:100320006E64206E6F74692F696E643A20636F6E1D
:100330006E48616E646C652025782C202573000062
:100340004C656E677468206F7574736964652062AC
:100350006F756E64733A204C656E3A202564204DAB
:10036000696E4C656E3A202564204D61784C656E4F
:100370003A2025642E000000526561644174747255
:100380004342203A20257320636F6E6E48616E648D
:100390006C653A202564206F66667365743A202583
:1003A00064206D6574686F643A2030782530327847
:1003B00000000000416E20696E76616C6964206FF8
:1003C00066667365742077617320726571756573F5
:1003D0007465642E0000000057726974654174747E
:1003E000724342202843434344293A20706172619A
:1003F0006D3A20256420636F6E6E48616E646C6593
:100400003A2025642025730000000000000000B0A1
:1004100000405104201100F010000000080400000A
:100420000097B92EE5725CCB5DCAE473B82F0196D4
:10043000BA2D03945FC8E671E7705EC90295BB2CC4
:10044000E3745ACD0691BF28BE2907905BCCE275B4
:1004500059CEE077BC2B05920493BD2AE17658CFA4
:1004600051C6E87FB4230D9A0C9BB522E97E50C794
:10047000EB7C52C50E99B720B6210F9853C4EA7D84
:10048000B2250B9C57C0EE79EF7856C10A9DB32474
:10049000089FB126ED7A54C355C2EC7BB027099E64
:1004A000A2351B8C47D0FE69FF6846D11A8DA33454
:1004B000188FA136FD6A44D345D2FC6BA037198E44
:1004C00041D6F86FA4331D8A1C8BA532F96E40D734
:1004D000FB6C42D51E89A730A6311F8843D4FA6D24
:1004E000F3644ADD1681AF38AE3917804BDCF26514
:1004F00049DEF067AC3B15821483AD3AF16648DF04
:100500001087A93EF5624CDB4DDAF463A83F1186F3
:10051000AA3D13844FD8F661F7604ED91285AB3CE3
:100520005265676973746572656420736572766974
:1005300063652C202564206174747269627574652A
:1005400073000000526567697374657265642063A7
:10055000616C6C6261636B7320746F206170706C8E
:1005600069636174696F6E2E2053747275637420B1
:10057000257000004E756C6C20706F696E7465722A
:1005800020676976656E20666F72206170702063E7
:10059000616C6C6261636B732E0000005365745074
:1005A0006172616D657465723A20506172616D654A
:1005B00074657220232564206E6F742076616C69E7
:1005C000642E0000547279696E6720746F20736521
:1005D0006E64206E6F74692F696E643A20636F6E6B
:1005E0006E48616E646C652025782C2025730000B0
:1005F0004C656E677468206F7574736964652062FA
:100600006F756E64733A204C656E3A202564204DF8
:10061000696E4C656E3A202564204D61784C656E9C
:100620003A2025642E0000005265616441747472A2
:100630004342203A20257320636F6E6E48616E64DA
:100640006C653A202564206F66667365743A2025D0
:1006500064206D6574686F643A2030782530327894
:1006600000000000416E20696E76616C6964206F45
:100670006666736574207761732072657175657342
:100680007465642E000000005772697465417474CB
:10069000724342202843434344293A2070617261E7
:1006A0006D3A20256420636F6E6E48616E646C65E0
:1006B0003A2025642025730057726974654174746B
:1006C000724342203A20257320636F6E6E48616E3C
:1006D000646C6528256429206C656E2825642920B2
:1006E0006F666673657428256429206D6574686F6C
:1006F000642830782530327829000000496E766110
:100700006C69642076616C7565206C656E677468D1
:10071000207761732072656365697665642E0000D9
:1007200000000000000000B000405104301100F053
:10073000100000002007000002000000362B00001F
:10074000EDE10100FDE1010099DE010057E2010049
:10075000DFA30100EBA30100ADE20100A9E301006A
:10076000F54F010085E50100C9500100B3500100BB
:10077000E53200007B32000079330000BD33000019
:10078000DD330000153200008F33000021330000FC
:100790005F3400006D320000893400007D340000B9
:1007A0006B340000DD320000DF320000A7360000AD
:1007B000E3320000E13200005265676973746572CC
:1007C000656420736572766963652C2025642061F9
:1007D0007474726962757465732C207374617475B6
:1007E0007320307825303278000000005265676948
:1007F0007374657265642063616C6C6261636B73B2
:1008000020746F206170706C69636174696F6E2E03
:100810002053747275637420257000004E756C6CE3
:1008200020706F696E74657220676976656E2066E8
:100830006F72206170702063616C6C6261636B73B6
:100840002E000000536574506172616D65746572AD
:100850003A20506172616D657465722023256420B1
:100860006E6F742076616C69642E00004C656E6753
:100870007468206F75747369646520626F756E6447
:10088000733A204C656E3A202564204D696E4C65A4
:100890006E3A202564204D61784C656E3A202564BF
:1008A0002E00000052656164417474724342203A24
:1008B00020257320636F6E6E48616E646C653A200C
:1008C0002564206F66667365743A202564206D6523
:1008D00074686F643A203078253032780000000068
:1008E000416E20696E76616C6964206F666673651F
:1008F0007420776173207265717565737465642EF9
:10090000000000005772697465417474724342209C
:100910003A20257320636F6E6E48616E646C6528A3
:10092000256429206C656E28256429206F6666730E
:10093000657428256429206D6574686F6428307893
:100940002530327829000000496E76616C69642098
:1009500076616C7565206C656E677468207761736D
:100960002072656365697665642E000000000000F2
:10097000000000B000405104101100F01000000011
:100980006C0900003E3E3E535441434B20415353BB
:100990004552542043617573652030782530327894
:1009A0002073756243617573652030782530327825
:1009B0000000000000000000000000B000405104F2
:1009C000C0FF00F000000000000000B00040510433
:1009D000C1FF00F000000000000000B00040510422
:1009E000C2FF00F000000000000000B00040510411
:1009F000C5FF00F010000000B4090000496D672039
:100A00004964656E7469667900000000496D67206D
:100A1000426C6F636B0000004F4144204578746561
:100A20006E64656420436F6E74726F6C000000002A
:100A30004F4144204E564D310000000000000000A0
:100A400000000000000000000000000000000000A6
:100A50000000000000000000000000000000000096
:100A60000000000000000000000000000000000086
:100A70000000000000000000000000000000000076
:100A80000000000000000000000000000000000066
:100A90000000000000000000000000000000000056
:100AA0000000000000000000000000000000000046
:100AB0000000000000000000000000000000000036
:100AC000BDC701004DF10100ADF10100B9A1011058
:100AD0000DCF0110817E01102D23021085D501005C
:100AE00039EE01008DC501005468697320697320D7
:100AF0006120707265747479206C6F6E67207374F6
:100B000072696E672C2069736E27742069742100E6
:100B10004F414420444C20436F6D706C6574652CCC
:100B2000207761697420666F7220656E61626C6502
:100B30000000000047415020697320737461727493
:100B400065642E204F757220616464726573733A18
:100B5000201B5B33326D25731B5B306D0000000082
:100B60004E616D6520696E20616476446174613107
:100B70002061727261793A201B5B33336D25731BE0
:100B80005B306D004C696E6B2065737461626C69DB
:100B90007368206576656E742C2073746174757348
:100BA000203078253032782E204E756D20436F6EC0
:100BB0006E733A2025640000436F6E6E6563746542
:100BC000642E205065657220616464726573733AA7
:100BD000201B5B33326D25731B5B306D0000000002
:100BE000504859204368616E6765206661696C757D
:100BF00072652C207065657220646F6573206E6F5E
:100C00007420737570706F7274207468697300005B
:100C100041647620536574202564206469736162A1
:100C20006C656420616674657220636F6E6E20254A
:100C300064000000426F6E644D67722052657175EA
:100C400065737465642070617373636F64652E20CF
:100C50005765206172652025732070617373636F1F
:100C60006465202530366400436F6E6E6563746979
:100C70006F6E206576656E7420646F6E6520666F9A
:100C80007220636F6E6E48616E646C653A202564F5
:100C900000000000557064617465642070617261C9
:100CA0006D7320666F722025732C20696E746572D7
:100CB00076616C3A2025642E2564206D732C206C9F
:100CC0006174656E63793A2025642C2074696D65C2
:100CD0006F75743A202564206D73000056616C7541
:100CE00065204368616E6765206D73673A204461D3
:100CF000746120536572766963652053747265610F
:100D00006D3A20253032783A253032783A25303223
:100D1000782E2E2E0000000043524320537461743D
:100D2000757320696E76616C6964617465642E20E8
:100D30005265626F6F74696E6720696E746F2042CE
:100D4000494D2E0043524320496E76616C696461BF
:100D50007465207772697465206661696C65642EBC
:100D6000205374617475732030782578000000007A
:100D70004C65667420627574746F6E206E6F74209B
:100D800068656C6420756E64657220626F6F742C88
:100D9000206E6F7420726576657274696E67207458
:100DA0006F20666163746F72792E00005269676804
:100DB000742B4C65667420627574746F6E206E6F50
:100DC000742068656C6420756E64657220626F6F54
:100DD000742C206E6F742065726173696E67206574
:100DE000787465726E616C20666C6173682E0000A9
:100DF00052696768742B4C65667420627574746FF1
:100E00006E2068656C64206166746572207265731B
:100E100065742E00486F6C6420666F7220352073F5
:100E200065636F6E647320746F20657261736520F3
:100E300065787465726E616C20666C6173682E00F3
:100E40004E6F7465207468617420746869732077CC
:100E5000696C6C20616C736F2072656D6F766520B4
:100E60007468652022666163746F727920696D61B0
:100E70006765222E00000000546865726520697362
:100E8000206E6F77206E6F20666163746F727920B9
:100E9000696D61676520696E2065787465726E6141
:100EA0006C20666C61736820746F20726576657261
:100EB0007420746F000000005265736574207468BC
:100EC000652064657669636520746F206D616B656C
:100ED00020746869732074686520666163746F723A
:100EE0007920696D6167650052696768742B4C658C
:100EF0006674206E6F742068656C6420666F722063
:100F000035207365636F6E64732C20636F6E746934
:100F10006E75696E6720626F6F742E00486F6C6427
:100F200020666F722035207365636F6E6473207462
:100F30006F20696E76616C696461746520696D61AA
:100F4000676520616E64207265626F6F74000000D7
:100F50004C656674206E6F742068656C6420666FE3
:100F6000722035207365636F6E64732C20636F6E1F
:100F700074696E75696E6720626F6F742E00000071
:100F800028434229204C454420537663204368611E
:100F900072616374657269737469632076616C75DC
:100FA00065206368616E67653A20706172616D49A2
:100FB00044282564292E2053656E64696E67206D70
:100FC000736720746F206170702E000028434229DF
:100FD00020446174612053766320436861726163C9
:100FE00074657269737469632076616C75652063DA
:100FF00068616E67653A20706172616D49442825A9
:1010000064292E2053656E64696E67206D736720B6
:10101000746F206170702E0028434229204275743D
:10102000746F6E20537663204368617220636F6E25
:10103000666967206368616E676520706172616DC3
:101040004944282564292E2053656E64696E672003
:101050006D736720746F206170702E0028434229E1
:101060002044617461205376632043686172206379
:101070006F6E666967206368616E67652070617274
:10108000616D4944282564292E2053656E64696E7C
:1010900067206D736720746F206170702E000000F0
:1010A0004F70656E696E672065787465726E616CED
:1010B00020666C61736820666F72206D61737320A7
:1010C0006572617365000000457874466C617368F1
:1010D00020726567696F6E426173653A20307825CA
:1010E000782C20726567696F6E53697A653A203093
:1010F0007825782C20736563746F7253697A653A2A
:1011000020307825780000004F4144206661696CEA
:10111000656420746F206F70656E000052656769AA
:10112000737465726564204F41442053657276691B
:10113000636500004F414420496D61676520762555
:10114000730000004F4144204572726F723A2025AF
:101150006400000044657669636520446973636FC9
:101160006E6E656374656421000000004E756D202D
:10117000436F6E6E733A2025640000005570646101
:101180007465204661696C6564203078253032785A
:101190003A20257300000000436F6E74696E756914
:1011A0006E6720626F6F74004C65667420627574A0
:1011B000746F6E2068656C6420616674657220725D
:1011C000657365742E000000CC500020CF500020C5
:1011D000CE500020D0500020CD500020C823000069
:1011E000544E0020F82A0020BF500020C05000209C
:1011F0007C2B00207D2B00201E9E0000CEAA00002C
:10120000CA7501000EAB00000AAB00006B3C020087
:101210006BA70100773C020041D60100812A010042
:10122000912A0100B9B80100A91C01008D28010014
:101230006B2A0100472E0100792E0100E5570100BD
:10124000B1C50100A12A0100F10C02003F3C0200DF
:10125000EBA10100DB7A01004D2A010075B8010005
:10126000B1BE0100710D020005C70100ED2D0100A6
:10127000092E0100C93302000336020099BB0100A8
:1012800081AB01004DAA010045B80100DD2F01002E
:101290006D2B0100D56A02102D920110A1F10110F1
:1012A0004D0A0210495E021089F1010049AA01109D
:1012B000D52A021075D4011095F10100794B011067
:1012C000154B02100515021003A50100217A01102B
:1012D000514D0210F5E2011091F80100010A0210CF
:1012E000A1F10100A523021081CF011045FB0110DF
:1012F000994B021095510210C53702109137021018
:10130000C5F80100A10E02102D380210796E0210EE
:10131000816E0210756E02105D4502107D6E021026
:101320002553021061590210AD520210FD520210F5
:10133000D5520210895E021019550110A5D6011070
:10134000094D0100756D02102D690210493F021010
:1013500099C50110D94D0100E14D01009DC4001057
:10136000094D0100094D0100DD4D010039D4010096
:10137000D9CA0110ED26021021A1011035D20100B9
:1013800005550210E13E0210D96D011061500110A7
:10139000F1170210094D0100ED7F01107566021072
:1013A0007DD101007D4D0210094D0100094D010064
:1013B000FDF8010059E30110659A011065A70110BD
:1013C000D9AA011039BF011011F30110515C0110AD
:1013D000155A0210094D0100094D01000556011072
:1013E000156B021029B50100DD540210056B0210C7
:1013F000AD460210FD4702103D2D0210F1590210BA
:1014000065270210CD470210310F0210B1340200DF
:10141000E9DA0110A138020029D0010069B60110F3
:10142000E9C90110B5F20110790F0210295F02100D
:10143000418A011085EC01102D540110292702105A
:10144000A5CC0100C5B90100094D0100094D0100FD
:10145000094D010095040210D131011045ED011034
:1014600085CF0100094D0100094D0100094D010022
:10147000D53C0110B5540210BDD0010061CA011065
:1014800091FD01103DFD0110D1B7010029DE0100E1
:10149000D1DD0100ED66021055690210A15B02105A
:1014A000A9B70100AD4A01003D2F0210696002108A
:1014B0002D4E0210956E0210996E02105D5A0210A8
:1014C000C9D40100E52D0210094D0100094D0100AC
:1014D000094D0100A96E0210ED8A0110AD6E0210D7
:1014E000A56E0210094D0100094D0100094D0100D2
:1014F0005D480210395A0210B16E0210014E0210FE
:10150000E9FC011045F10110A55A0210AD170210B7
:10151000A16E02108DA80110256B02108D660210BD
:101520009D6E021081D40100815A0210E56B0210F9
:1015300081A3011055550210A12702105951011025
:10154000B9110210F55502100112021039D2011022
:10155000DD4E0210BD620210DD490210459C0110F3
:10156000EDF70110554D0100616C0210513402106D
:10157000656E0210696E0210DD4302106D6B011082
:101580002D480210C10F0210F9A70110FDD2010071
:1015900089DE0110696202107D430210511B0210A6
:1015A000BD180210910A0200F1F70100059B01101D
:1015B000E110021015C601105D3402001D62011019
:1015C0001134020029440110B1E50110350C02006C
:1015D000990B0200A11A0110C13B0110418E0110AC
:1015E00019690210E5EC0110752D021065D3010098
:1015F000F5D30100559F0110E50A0210752F021066
:10160000B9CC0110B14E0210310B021055DB0110A4
:10161000CDB401106DF301100D680210DD670210EA
:10162000056702102911021019400210D11F021083
:10163000AD2F0210854E02107D8B0100CD99010067
:1016400061D801108D5A0110A9FE010019940110F2
:101650008D2E0210AD49021089AC0110C55B02103D
:10166000DDD00110919101002DB40100AD98010071
:101670007D90010085620210C95F02104190010057
:1016800029E001102D060200192802107918021015
:101690003518021039C00110ED48021041690210DE
:1016A0007D550210ED6D0210CD550210695F0210DC
:1016B0007D1D0110094D0100BDFB0100094D010018
:1016C00009B30100258C0100ED4D0100B9C00110E6
:1016D000B5BC0100E53F0210A5900100319E01005C
:1016E00089420210E54D0100718B0100E95F021093
:1016F000F5050200094D0100856B0210A5ED0110F2
:101700004DE5011081010210A95F0210DD270210D2
:1017100021420210BD480210E5040210656B021060
:1017200025600100F50802001D4902105542021013
:10173000D56602102DE20110F54D0100A5660210DC
:10174000511F0210CD19021025930010F9AB0110A2
:101750000D9A001005BC010029B30110A555021017
:1017600099CE010005CC01003DFD0100614D010055
:10177000B1900100419E010051CB011095F701107D
:1017800005EE011081B6010021E40110094D0100B0
:10179000AD430210094D0100117D0110C97D0110FA
:1017A000DD0A02002D77011055810110F14D010075
:1017B0008D9A0100ED68011021A5010099D9001052
:1017C0002DF9001039FE0100B9BF0110094D0100CB
:1017D0001D340210094D010069930100E9E4011074
:1017E000C9CB0110557C011091E00110F9E0011006
:1017F000E90702003505021051D10110094D010021
:10180000C1EE01105110021085E4011041CC01100D
:10181000C1DF01109DB201107D850110F1B60110EC
:10182000B13F021055900100416E02101DC501101C
:1018300041B4011001190210B5B3011021A9011022
:10184000FD36020029D901003907011069D00110C5
:101850005D6602103D540210911E02104566021092
:10186000CD5902108D540210952C021065540210AF
:101870003D370200516D0210D54D02101554021073
:10188000D1200210A5310210C56B0210C95E0210F2
:1018900069AB0110E95E0210A93D0210396D02101A
:1018A00085590210211302107D5B02104529021098
:1018B000DD46021085B1011025170210DD68021007
:1018C0004504021035D60110C5EB0110D56B02108E
:1018D000A94D021005690210D5630110B99E0110CF
:1018E000113E0210B12602105D2C02106D4702104D
:1018F000F56A021035F60110A1C40110A5EA011025
:101900005916021025C4011095670210F1680210E3
:101910007D05020079070110F9220110D192011012
:1019200015BA011051A20110DDF50110EDFB0110F7
:101930001D840110A95902104D620210ED530210CE
:101940003D4702109D160210E1160210DD3D021007
:1019500065EB0110111E021075930110FD65021058
:10196000511E0210A12101106913021059F2011039
:10197000595B0210990A021031470110355B0210C1
:101980001566021031480110793E0210F5CF0110A2
:1019900011DA01103D670110453E0210E9A2011065
:1019A000DD31021005EB01102D6602106567021093
:1019B000A56B0210196E0210B9630210E1690210E2
:1019C00019610210596E0210556A0210456A021020
:1019D0005D6E0210556E0210F5D70110E93302104A
:1019E000E95C0210111A021045510210C95C021084
:1019F000E16002104D210210511A0210695C0210C0
:101A0000610C02104D4302104D33021019330210C5
:101A1000496002107D640210CD690210ED5A021077
:101A200025060210AD570210C1DB01101D43021044
:101A3000115B0210F5130210295D0210AD64021053
:101A4000ED50021015320210E5320210A95C0210AE
:101A50007D320210ED420210D11A0210BD42021076
:101A6000911A021089210210B1320210895C021011
:101A700049320210316C0210256C0210F529021057
:101A800065EE0110C5600210D5380200111B02106E
:101A90005D3702106DB00110295E0210C90D0210F1
:101AA00005D40110BD820110819D0110F9C80110FB
:101AB0003D590210C1610210556502102DD7010079
:101AC000B9D801005137020085980110A503021012
:101AD000D1580210990C01103D4402109D4402108F
:101AE000DD6102109DFA0110F5360210D9A5011032
:101AF000E1B501106D6E0210716E021059360210C0
:101B0000252D0110F50302108D360210E537020075
:101B1000B9BD0110657901106D65021073380200BE
:101B200007380200216D0210156D0210F9610210D4
:101B3000E94A02102599011029370210F5580210C0
:101B4000F50F011015620210E95D021085650210A3
:101B500019590210095E0210A5610210113401101A
:101B600045A501100DB9011039D90110353B02000E
:101B700051DD0110B1C201109D7201109589011053
:101B80008DF0011055AF011085F50110C114021040
:101B900069090210CDD8011089A001108508021032
:101BA000D10802101D090210253602103DA60110B1
:101BB00079DC010025DC0100D1A60110E5650210E9
:101BC000CD4402109D6502100D6D0110DDD601009F
:101BD00071C90110111C011065660110E92B01008B
:101BE000998D011071D7010085D901004924011098
:101BF000F18C0110FDDA010069DB0100F53402000F
:101C0000C5990110911B0210F5F20100C5210210C7
:101C1000316E021021BD0110D11B02106D61021046
:101C2000C56A0210B9C1011005E8011025E90110CB
:101C300039140210ED340210D95701100F3602008A
:101C4000B901020009030200111D0210993A0200B5
:101C5000013A0200B56C02109D6C0210A96C0210D2
:101C6000396E0210496E02102135021025F4011060
:101C7000A1BB01102D390200895D0210D571011040
:101C8000654A0210390D02107D38011095D30110FC
:101C90008991011035C201103D220210C16C021061
:101CA000CD6C0210050302105507021021BC011073
:101CB000BD060210194E0100394A021021430110DD
:101CC00099CE011065E80110AD580210A5E701108A
:101CD000756A0210956A0210856A0210A56A0210E0
:101CE000F564021089350210D9390200350102006D
:101CF000A1BC011089390200014E0100B16401103C
:101D0000054E01000D410110DD860110014001105A
:101D100005C801104D40021085D70110F5F80110DB
:101D2000E52B01109DF80110097101101D670210CB
:101D3000F562021081290210D9620210696902104D
:101D4000B540021081400210150C021079480110B4
:101D5000A5140110754C011035090110592E011000
:101D6000714D011089FF0110256802107D69021074
:101D7000150E0200354F02108500021089C70110B0
:101D80008D870110B50D02001D300210458C011029
:101D9000154E010055300210619501104556021094
:101DA00011200210C90B02101DBB0110116302109B
:101DB000E94002102D630210FD3002104963021049
:101DC000F1320110F15E011061E10110A56D021008
:101DD00009F700108D300210C5300210094F0210B3
:101DE000CD280210D5050210DDE601102960021091
:101DF00091280210512002103100021049360110C2
:101E0000911202106D4E0110A9CD0110D9000210DF
:101E100041E70110D912021021CE0110C10E0200BB
:101E200095100200094E0100690F0200810E0200A8
:101E300045F80110B94F021011500210E54F021081
:101E400085410210614F0210955002103567021053
:101E5000092902108D4F02108163021009820110BE
:101E60009D6302103557021069500210BD560210D2
:101E70003D500210E5560210A5690210B94102104A
:101E80006D560210C95A0210B3B701003531021065
:101E90001D56021095560210C15801105D570210D0
:101EA0000D570210C9F301100D1102007511020047
:101EB000ADD201102D110200094D0100E5FD011008
:101EC00021D301104912021079E6011039FE0110E8
:101ED00039C101100DC7011045FB0010114E010062
:101EE000B1F20010616001100D4E0100996D0210F9
:101EF0007D0B0210115E011085E9011079030200CB
:101F0000810D02103D8801102D2A0210D10302001C
:101F10008D65011069DC00109D040200914A0210D9
:101F200031F00110A95D021065290110553502102C
:101F300001220210694F0110B9340210650202102B
:101F4000695D0210584000205BD6010070400020FF
:101F5000DEDB010014410020DFDB01000000024055
:101F60000929FF003C4100205C1F00005C4100206B
:101F7000991C0200A02200207C410020F841002092
:101F8000FFFFFFFF00800400004000000000000091
:101F9000000010000010000074420020400000000B
:101FA000000000000000000000093D0014000000D7
:101FB000640000006C250000BA500020841F00005F
:101FC00094250000B44200208C1F00000000000097
:101FD0000F3A00008D6B00000101000000000000BE
:101FE000FF000000000000000000000000000040B2
:101FF00017FF0000000000000400FFFF08000000C1
:10200000100000004018002030180020401A002066
:10201000301A00200A000000090000000C00000037
:102020000B00000009080AFF0A000000BC250000A0
:10203000C0420020EC1F0000FF0000000000000074
:1020400080A90300C0430020382000000010004099
:1020500015000000FF000000B44500202000000033
:10206000D445002020000000000000000200000015
:1020700003000000FF000000FF0000002018002007
:1020800010180020040000000200000005000000FD
:10209000100000000F0000001100000012000000FE
:1020A00000020000444400204C20000044000100D5
:1020B00022000100B024002020000000696E746E30
:1020C000756D3A202564206973206F7574206F66E2
:1020D0002072616E676520284877692E633A33372E
:1020E0003729000048776920616C72656164792046
:1020F000646566696E65643A20696E747223202592
:102100006420284877692E633A3338352900000067
:10211000686172647761726520657863657074695F
:102120006F6E206964203D2025642C207063203D63
:102130002030782530387820284877692E633A3166
:1021400030393229000000006E6F204953522C2094
:102150006964203D2025642C207063203D20307868
:102160002530387820284877692E633A3130393560
:10217000290000000A00000000000000000000002C
:10218000000000000100000000000000000200004C
:102190000000000000000000010000007461736B8B
:1021A000203078257820737461636B206F766572B8
:1021B000666C6F7720285461736B2E633A34373620
:1021C000290000007461736B2030782578207374C7
:1021D00061636B206F766572666C6F77202854613F
:1021E000736B2E633A343831290000007461736BCD
:1021F000203078257820737461636B206572726F6C
:10220000722C205350203D203078257820285461AE
:10221000736B2E633A343838290000007461736B95
:10222000203078257820737461636B206572726F3B
:10223000722C205350203D2030782578202854617E
:10224000736B2E633A343934290000006F757420A3
:102250006F66206D656D6F72793A20686561703DBB
:10226000307825782C2073697A653D257520284DB6
:10227000656D6F72792E633A37382900286E756C58
:102280006C2900001B5B33313B316D4552524F527C
:102290003A201B5B33303B316D2825733A25642986
:1022A000201B5B306D0000001B5B33333B316D57EF
:1022B00041524E494E473A201B5B33303B316D282B
:1022C00025733A256429201B5B306D001B5B33327C
:1022D0003B316D494E464F3A201B5B33303B316DED
:1022E0002825733A256429201B5B306D000000000F
:1022F00096C298D84539A1F4A033EB2D817D0377A0
:10230000F240A463E5E6BCF847422CE1F2D1176B3A
:10231000F551BF376840B6CBCE5E316B5733CE2B0D
:10232000169E0F7C4AEBE78E9B7F1AFEE242E34F3C
:10233000FFFFFFFFFFFFFFFFFFFFFFFF00000000A9
:10234000000000000000000001000000FFFFFFFF90
:10235000FCFFFFFFFFFFFFFFFFFFFFFF000000008C
:10236000000000000000000001000000FFFFFFFF70
:102370004B60D2273E3CCE3BF6B053CCB0061D6539
:10238000BC86987655BDEBB3E7933AAAD835C65AC2
:10239000512563FCC2CAB9F3849E17A7ADFAE6BC07
:1023A000FFFFFFFFFFFFFFFF00000000FFFFFFFF39
:1023B00000616200B0230000010000000000D002B4
:1023C000EC0000215F0000000000000000000000A1
:1023D000C0230000BC23000000000000DE770000E6
:1023E0000278000096790000E68100003686000041
:1023F0001A3202001B320200C4230000A68600002D
:1024000046900000EC260020020000002694000008
:102410000000000023350200000000008E000000D4
:102420008E0001008E0002008E0003008F0000016C
:102430008F0000028F0000038E0001048E00000553
:102440008E0008048E000004890000065000000081
:102450007F0001003F0004003F0002003F00010038
:102460007F0002008E0002048E0001028E00010136
:102470000200000000000000FFFFFFFF000000005E
:10248000000000000000000000000000000000004C
:10249000000000000100000000C201000300000075
:1024A00000000000020000001E9100001336020030
:1024B000CDF50100000000000C0802170D0101021B
:1024C000090901010602091818030101090903039A
:1024D000050302010000000000000000FFFFFFFFF5
:1024E00000000000000000000000000000000000EC
:1024F000000000000000000000000000FFFFFFFFE0
:1025000000000000000000000000000000000000CB
:10251000000000000000000000000000FFFFFFFFBF
:1025200000000000000000000000000000000000AB
:10253000000000000000000000000000FFFFFFFF9F
:10254000000000000000000000000000000000008B
:102550000000000045080200FF000000000000002D
:10256000F5090200FF00000000000000D111020088
:10257000D9110200DF1102000B1202002312020027
:102580006512020077120200E11202001F1302001E
:102590002713020039150200C71502003D1602007C
:1025A000691602007B160200B1160200C516020071
:1025B000E31702002718020031180200951D0200DF
:1025C0000B1E0200C5200200CF200200A122020043
:1025D00091250200F543002179400021954000211A
:1025E00069440021A5440021C5400021D1400021BB
:1025F000DD400021F94000214F45002141410021EB
:10260000DB0705D000F003F80249087070BD70B513
:10261000014D2847E00400211D240200074C657984
:1026200000F009F861796940490703D50121044A9E
:102630008903116070BD70B502490847800300210D
:10264000081104402D59000070B5004700F016FA3B
:1026500000480047577F000000F016FA0048004786
:102660001B8800000599880A802805D113498878BD
:102670008007800F00F020FA00480047D96E000064
:102680000FB40F48C188002902D0104600F014FA98
:10269000079B9B0A084D832B08D1084C23899B0676
:1026A00004D500F005F8002800D042350FBC2847BB
:1026B00070B50448004700001F0B020060010021B4
:1026C00080030021EB0902000848094A03689A4286
:1026D0000AD108480289084BD21A01D0012A03D135
:1026E000406E064988470399054B1847A802002108
:1026F000BD0302006001002121180000F135000037
:10270000BD06000070B51F4D2878C4B21E48804732
:102710002878032834D1032C32D01C488068400D1F
:10272000C2071A48014660318030002A03D01F24B6
:102730000C57458802E01E240C570588002C1FD03A
:102740001348154A416900794143481011494969C4
:10275000401810494039497F90474005401569426B
:1027600088420DDBA8420BDC0C4B996988B202460B
:10277000090C624309045212801880B20843986120
:1027800070BD0000E4020021794100002800002112
:102790008003002100030021CB8100004040044061
:1027A00010B5864C21464031087D012834D184483B
:1027B000C07D4008C0072FD02046603042795208C3
:1027C000D20729D04089800B012825D1087E4109F4
:1027D000C9070CD0A16F00070988C00F4002090487
:1027E00008436066A06F801C00F080F913E0744815
:1027F00020308069406800280ED0724A002301789A
:10280000D356591A08D4C90008184178C90703D00B
:10281000016861664068A0666B48804710BDF8B5E6
:10282000664C6A4926462036707B25464035009026
:102830002F79B800401880688047002828D1604967
:10284000C97D0909C90723D022466432152F20D03B
:10285000297E00234F09FF0703D06D7D002D00D096
:102860000123009FA56FBB4312D0737B002B0FD0B9
:10287000237D5B060CD5D288920B012A08D1C908AA
:10288000C90705D0A988890B012901D100217173DD
:10289000F8BDAB7EE97D012BE3D00023E1E770B505
:1028A000464C2546606A803500281DD15420005DC5
:1028B0000022002817D06420005D8008C00712D0D5
:1028C000A9688888800B01280DD13D48C07D40084B
:1028D000C00708D03A48203080690068002802D03C
:1028E0002962A86000E02A6239488047616A0029AD
:1028F00003D1296A002900D0A96070BDF8B52F4C1A
:10290000344920464030027D002A2FD0807E254663
:102910008035032802D0042803D027E00120E87581
:1029200024E06420005D8008C0071FD0A86880886C
:10293000800B01281AD12248EA7DC07D002A13D0DD
:10294000C008C00712D026462036777B884701464C
:10295000394308D1217D090605D56988890B0129EC
:1029600001D100217173F8BD8008EAE78847F8BDFE
:10297000124880300021C175174800470F49403187
:102980000871262814D006DC152813D01B280BD07C
:102990001F2804D10AE03D280ED047280AD00B4951
:1029A00080004018806870470C4870470C4870479A
:1029B0000C4870470C4870470C4870476001002174
:1029C000C8000021E004002159490200005502001E
:1029D0008F3D020075300200152A0200E9430021F4
:1029E000754300211743002197420021194200211D
:1029F00010B50C4988470C4A0621515E002907D0C2
:102A0000022905D0092903D0102901D0112907D1A5
:102A10007721C943884201DD002801DD7F20C043C2
:102A200010BD0000A96500008003002110B510480A
:102A3000C1881048052918D00F4C21684A08520057
:102A40002260A26B52085200A2632160FFF7FCFDD6
:102A5000A06B000708D40120206060600020401CAB
:102A60000C28FCDB1420206210BDFFF7EDFD10BD2B
:102A7000800300213F5B000000600440806B0C4934
:102A80000007000F48717047094A0A491823507916
:102A9000CB56497EC018814201DD084602E00F286E
:102AA00000DD0F20D189090909010143D181704757
:102AB000E0020021880000210849C979CA08D2072C
:102AC00008D0C1400648C90701D0064900E00649C0
:102AD000491CC1607047002070470000E8000021D9
:102AE00028000021880100005001000082088107B1
:102AF0009200C90E0CCAC078CA40494220318B40AE
:102B00001A431102090A0006084370470102000334
:102B1000020001030149086070470000FC1B00200F
:102B200081B001208DF800009DF800000028FBD145
:102B300001B0704770470A18DFF800F0E56A02102C
:102B40002DE9FC41040000F0C5802668F0788DF87E
:102B50000000684631798DF80110FFF7EDFFB0688D
:102B600008B15E490160F06808B15D4901605D4FE0
:102B70003078387007F13C0871785B4879700288CA
:102B80005A490A80707988F8000006F13000B1795E
:102B900088F8011007F1600102780A7040784870E7
:102BA0005349544891E82C1080E82C10A16808780B
:102BB000F870A16891F8200088F81C00A0684168AE
:102BC00079608268BA60C168F96002693A61C16976
:102BD000C8F818108269C8F81420416AC8F8201093
:102BE0004069007900EB400000F078FB05460620C4
:102BF00000F074FB002D18BF002823D000223E49AE
:102C00000FE002EB820C02EB420311F80CE005F836
:102C100003E02B4401EB0C0E521CDEF801C0A3F8BC
:102C200001C0A368D3F814C09CF804309A42E8DBD2
:102C30000560A1684A6911790171A26851694A79F0
:102C40004271786160680168B9613269FA627169DC
:102C50003963B2697A63F169B963326AC8F80420EA
:102C6000806810B9C046C04600E038626068C0683D
:102C700010B9C046C04600E078626068006910B9CB
:102C8000C046C04600E0B8626068406810B9C046FF
:102C9000C04600E0F8613069F862716AC8F808104F
:102CA000B06AC8F80C00F16AC8F810100121E06899
:102CB0008268106800F04EFDE068C06810B9C04638
:102CC000C04601E00D490860E0684168006800F016
:102CD0004FFD01E0C046C046BDE8F38181330200EC
:102CE000B7330200EC2600204C2B00204E2B002096
:102CF0006C230020804C00201C2300204C3400203A
:102D0000EFF31180DFF80C1A0A6882F3118870471C
:102D100080B502F05FFCADF80000FFF7F1FFADF801
:102D20000200009802BD81B001B4BDF8020080F33A
:102D30001188BDF8000002B002F04FBC38B5DFF8D2
:102D4000D849207801282DD0DFF8D009DFF8D02924
:102D500080088000121AA26101212170024602E05F
:102D6000002342F8043BA3691D18AA42F8D39B082C
:102D700000EB8302002142F8041CE8230360A169F0
:102D800089088900EC39C0F8E810606100F1E801B9
:102D9000A160002000F007F8E060A1696069A06010
:102DA000091F216131BDF8B500260027051D15F06A
:102DB00003001CBF291D0D1AFFF7AAFF0146DFF80B
:102DC0005829112D34BF9468D4682068002803D591
:102DD00080F0004000271AE03B0014D03368D4F89C
:102DE00000C06344AB42336011D334461846ECB1A3
:102DF000401B042811D3605145F000402060136946
:102E00005D1B156111E0A842F1D20127264604445A
:102E100020680028DAD1002408E0136920681B1A12
:102E20001361256845F000452560241D516000F0C0
:102E3000C1FB2046F2BD10B50446FFF769FF54F808
:102E4000042CDFF8D41822F0004244F8042C0B695B
:102E5000D2180A61221F8B689A4238BF8A60486084
:102E6000BDE810405FE72DE9F041FFF751FFDFF8C3
:102E7000A828D368002400250026002709E00E4674
:102E800001251C4604E011D581F00041002547468C
:102E90000B441968B046BE4238BFB8460029F2D18B
:102EA0005060FFF740FF4046BDE8F081002DE6D0BE
:102EB000D4F800C08C44C4F800C08E19E8E710B5FF
:102EC0000446DFF854088169216000696060FFF7FB
:102ED000CAFF09282CBF08380020A06010BDDFF809
:102EE00038180A69121A40F22D139A4228BFFFF7C8
:102EF0005ABF0020704780B5FFF720FF4BF6BE2079
:102F000002BD08464FE7084695E702B56846FFF759
:102F1000D6FF01BD0120704738B50446FFF7F8FE23
:102F200000220C23DFF8FC175343CD18A96C51B1D4
:102F30008C4203D0521C032AF3D304E0FFF7F3FEC4
:102F400005F1480032BDFFF7EEFE002032BD70B53E
:102F50000546FFF7DDFE044600210C22DFF8C4071A
:102F60004A438618B06C28B185420CD0491C03290D
:102F7000F3D30EE03065B564002101F0B9FFF064D1
:102F800008B903F0BBF82046FFF7CDFE06F1480074
:102F900070BD2046FFF7C7FE002070BD38B504465F
:102FA000FFF7B6FE0025DFF87C270C216943515A54
:102FB00031B18C4203D06D1C062DF6D300E01CE32A
:102FC000FFF7B1FEFF2032BD10B504462088FFF7A1
:102FD000E5FFFF2802D14FF0FF3010BD0C21DFF8D4
:102FE000442748431044816811B96FF0010010BDB7
:102FF0002046BDE81040084702460FF24C701047CB
:1030000038B500200C21DFF81C270024002501FB27
:1030100000F31344401C03289C641D65F7D3002073
:10302000002301FB00F4401C13530628F9D3BDE82C
:10303000314083E62DE9F84789B00646894602F01B
:1030400036FC80460027DFF8E05603E05046FFF7E5
:103050006AFE7F1C4F451DD2684602F0ADFE06EBAE
:1030600007114A6803928A68059200220B6801934F
:10307000C86802906946284602F0BCFE040007D0EA
:10308000FFF746FE82462046FFF761FF0028DDD1AC
:1030900003F034F8404602F00CFC0AB0BDE8F087BB
:1030A000F8B56846052141604FF480528260DFF830
:1030B0007C16DFF87C260091C2600121FFF7BAFF81
:1030C00005B000BD38B504460D46FFF721FE0021CE
:1030D00045F80C1C226812B9256006E00A4652F831
:1030E0000C1C0029FAD142F80C5CBDE832401AE60B
:1030F00080B502F00DFCFFF70FFF10B96FF0040070
:1031000002BD816809B9022002BD4068AFE006280F
:103110000ADA0C22DFF80C365043185A00281CBF7C
:103120004FF6F872904202D14FF0FF30704708809E
:103130000020704730B5DFF8FC552A680C464FF484
:103140007A71A1FB0001002302F0FEFF002902D8E2
:10315000B0F1004F02D36FF0020030BD20600020BC
:1031600030BD0146886849680847F8B505460E46EF
:1031700002F0CEFBFFF7EBFE040019D0FFF7C8FD0D
:10318000014600220C27DFF89C3557433B44188842
:1031900018B1521C062AF5D30AE04FF6F870002742
:1031A00018805C609F602A7000F002FA0020F2BD77
:1031B00002F0A4FF00BF0C383DE670B5044615468A
:1031C0001E460846FFF7EAFE0146FF2902D14FF0EE
:1031D000FF3070BD33462A462046BDE8704081E08E
:1031E0007CB50546164600F09BF8040010D12888EF
:1031F0006946C0B2FFF78BFF28B13068FFF7DBFFED
:103200006FF0050076BDBDF800002880FFF770FF65
:10321000204676BD38B5054602F07AFBFFF77CFE06
:10322000044600F00BFE002818BF012800D014B996
:103230006FF0040032BD65B900200090009B60680B
:103240004FF00042002101F0AAFD401E8041C00F56
:1032500032BD15F1010F08BF4FF0FF30EDD06946C8
:103260002846FFF767FF0028E8D032BD80B54FF051
:10327000004101F0FAFD002002BD2DE9F8430546AA
:10328000894617461E4602F043FBFFF760FE040026
:103290006FF0020802D14046BDE8F283FFF738FD27
:1032A000014600220C23DFF87C04534303441888B2
:1032B00028B185420CD0521C062AF3D30BE01D80A6
:1032C0005C60C3F808903A7000F072F90020E3E700
:1032D00000F070F9DFE702F011FF00BF63E5AAE537
:1032E000FDE5ECE52DE9F84300F005FABCBF044626
:1032F000062806DAFFF70CFD00F005FA19B9FFF70A
:1033000012FD40460AE0FFF70EFD00F0EAF978688A
:1033100040684FF0004101F0A8FD0020BDE8F283B5
:103320002DE9F04106460F46904602F0F1FAFFF70C
:10333000F3FD050008BF6FF004001BD0FFF7E8FCA9
:10334000A968002441B10C46A4F10C0100230A68CD
:10335000AA60FF250B608D72FFF7E5FC0CB9022017
:1033600008E0A4F10C000179317040793870C8F898
:1033700000400020BDE8F08182B001208DF80000FF
:103380009DF800000028FBD102F0B8FE00BF01F05C
:1033900091BB00B5DFF89C2313686FF00040A0FBE1
:1033A00003014FF47A72002302F0CEFE002902D806
:1033B000B0F1004F01D36FF0004000BD7CB50C466A
:1033C00015461E466946FFF7B5FE30B900983346EC
:1033D0002A46214600F002F8002076BD2DE9FE4382
:1033E0001D4680462C680E46174614BB0C20FFF77E
:1033F000DAFC04006FF0030915D0684601F082FC86
:1034000000208DF800000190029400236A46414696
:10341000DFF8240301F088FC206030B9FFF7ACFF2F
:103420002046FFF708FD484617E06660A7602C605D
:103430000BE0DFF80863306880470546206801F03C
:1034400044FCA7602846716888472068414681602F
:10345000C046206801F031FC0020BDE8FE83002852
:103460001CBF006801F031BC7047E0B58DF8040066
:10347000684602F0ADFF9DF805000EBDE0B5019075
:10348000684602F0DBFF0EBDE0B50190684602F031
:10349000DFFF0EBD2DE9F84384B004460E46174603
:1034A000984602F035FAFFF737FD054600200290F6
:1034B00000F0C4FC002818BF012800D015B96FF037
:1034C000040072E044B90020019001F0F3FA814653
:1034D00001980124814425E014F1010F08BF4FF049
:1034E000FF30F1D001A92046FFF724FE0028ECD0E0
:1034F0005BE0039902A8FFF7E5FD68684FF0005113
:1035000001F0B3FC0198012410F1010F18BF00284D
:1035100008D001F0CFFAB9EB000031D00199814217
:103520002ED30190019B68684FF00052002101F0FA
:1035300036FC28B303AA69460DF10100FFF7F0FE3F
:103540000400DFD19DF801000DF10201FFF7DFFD5E
:103550000028CED1039A9DF80010BDF80200B047B4
:103560000028C6D017B1BDF802003880B8F1000FAE
:103570001CBF9DF8001088F800100C98039901609A
:10358000FFF7B6FD029EFFF7C3FB014656B1324678
:1035900000E0024652F80C0C0028FAD1A86842F864
:1035A0000C0CAE6000F006F8204605B0BDE8F083D4
:1035B000606830600846FFF7B6BB38B502F0A8F97E
:1035C000044600F03BFC002818BF012813D0FFF789
:1035D0009FFB0025534A0C236B43D15A49B1D118A4
:1035E00049680B68A34203D06D1C062DF3D300E09D
:1035F00003E0FFF798FBFF2032BDFFF794FBE8B232
:1036000032BDE0B5ADF800008DF8061000204C4941
:103610000A68ADF802006846904710B99DF80700A7
:103620000EBDFF200EBD1078422801D10120704749
:10363000002070470CB478B504460E4687B000F001
:10364000FDFB0CAD002814BF0128FFF795FE1420E8
:103650000021FF22ADF8100002918DF8122006968D
:103660000595FFF7AAFF05AB03222146FFF7A5FD4D
:10367000002001A90190009100230022314941F26C
:103680008830FFF707FF012805D020B9019820B145
:10369000FFF791FD01E0FFF76FFE0598006808B0A5
:1036A00070BC5DF80CFB2DE9F84300F024F8BCBFBA
:1036B0000446062806DAFFF72BFB00F024F819B9B8
:1036C000FFF731FB40460AE0FFF72DFB00F009F859
:1036D000786840684FF0005101F0C7FB0020BDE85A
:1036E000F283A9F108000470457086704946786835
:1036F0000830FFF7E7BC0D462F46164699466FF097
:103700000208062F70470C22064B12FB07F7DF1941
:1037100079687047B8200000BC3E0020E3550020C7
:10372000FF330120503E0020F92F00009DDD0100F5
:103730009C1F00207421000063310000181F00202E
:10374000201F002027360000C92F0000112D000087
:10375000272D0000020008BF0248034A11700349E8
:103760000860704777790100782B0020E826002058
:10377000024A106002480160704700BF784C002088
:103780007C4C0020EFF31180202102E0EFF3118048
:10379000002181F31188704780F31188704710B5BC
:1037A00000F0CCFD00F0AFFF00F016F8DFF8844524
:1037B00004F10800A06602F081FB01F04DF901F070
:1037C000F7FE02F030F801F0B7FB00F0EDFC01F07D
:1037D00027F90120207010BD10B5DFF85C4594F882
:1037E000080160B9012184F8081101F019F90021DC
:1037F00004F59A7001F016F9DFF86015086010BD45
:10380000FEB5044613B901F07FFA10E06D460020C2
:103810000026002785E8C100986802901D788DF881
:103820000050586801906B46204601F06DFA204622
:10383000FEBD01F089BA00F011BB0A20704701F00B
:103840004ABA007D70470021816084E08160704742
:1038500001F033BA01F0F7B9401D0A21B0FBF1F0D5
:1038600002F0D9B800F0E7BDF8B51C0086B00546F7
:103870000E46174603D1002300F0ACFC0BE000F02D
:1038800012F8206801906B46606804903A4600F098
:1038900004F800F09FFC07B0F0BD207A8DF8080016
:1038A0003146284670476846DFF8DC14182202F0DB
:1038B000EFBD00F0C0BC65E700F07CBD00F097BD37
:1038C000DFF8740490F8F41001F080BE10B5FFF733
:1038D00059FF0446FFF760FF601E8041C00F10BD16
:1038E00000F0FABD70B501F0F1F96560266019E1EC
:1038F00000F0E2BD002101604FF0FF320123426081
:103900000372704748E7FEB5044668460023002569
:10391000002680E8680001278DF800706A4620467E
:1039200001F09AFD2046FEBD3EB569460022002307
:10393000002481E81C0001258DF80050DFF84424A4
:1039400001F09AFD3EBD80B50090684601F0ADFDE6
:1039500001BD01F09EBD01704160704780B501F06E
:10396000DCFC08B900F061BA002002BD01F036BDF0
:10397000002101604160C1604FF0FF3181607047FC
:1039800078B5140085B005460E4603D1002201F03B
:1039900070FE13E0A068062804D310F1010F18BFD1
:1039A00000200BD101F07FF8206801906A46606822
:1039B0000290314600F004F801F05BFE06B070BDE5
:1039C000E0680490A06803902846704701F0F6BEB6
:1039D00000F044BE01F048BEDFF85C0390F8F4103C
:1039E000012901D1012070470020704701F0A3BEDA
:1039F00001F076BE01F0F1BD062902D311F1010FED
:103A000001D101F0A7BE704730BF7047FCE738B561
:103A100002F082FD02F005FE02F024FE044604F0EE
:103A20000C000C2802D1AFF300803AE060071DD4EF
:103A300001F049F805460121012002F01DFE0A218E
:103A40006943884212D2DFF88443183D656104F16E
:103A50000C0001F032F9AFF30080012002F0A4FF66
:103A6000AFF30080002084F820001EE0AFF3008058
:103A7000200716D4DFF85813DFF858030A68936854
:103A800098470428F6D0E10600D408B9012000E0E8
:103A9000002002F0ACFDDFF8400301210160006866
:103AA00001E0FFF7B3FFAFF30080BDE8314002F063
:103AB00037BDDFF8840290F8AC10012280F8AC200A
:103AC0000123DFF83C23116090F8141180F81431C1
:103AD0005160704710B5DFF82843606801F07DFD44
:103AE000206801F093BD0000DFF81813C20744BF3F
:103AF00001230B60820744BF4FF480730B604007C3
:103B000044BF4FF480320A60704710B5DFF8F822E6
:103B1000C30748BF1160840748BF5160400748BFD2
:103B2000916010BDBDE87040FFF736BE0CB42DE9C2
:103B3000F84FDFF804A205469AF8F400002684B096
:103B40000F4602280CBF4FF00108B0469AF8AC00AF
:103B5000DFF8C44201218AF8AC100090206838B91F
:103B60000AF5A87B0021584600F058FEC4F800B0C2
:103B7000009801F09EFEB9050EA803D546680EB95F
:103B80000AF5BC76280000950AD003F06DF983464B
:103B9000B8050AD571680129A4BFB068012804DA04
:103BA00003F07EF91621016078E00020B8F1000FE3
:103BB000019003D0206800F04BFE8146009800F091
:103BC000CFF8050008D007F42060B0F5206F09D1C8
:103BD00003F066F9112159E0B80503D403F060F948
:103BE000022153E001AB0022082100F0D5F85FEA82
:103BF000000A48D045BB01AB0022242100F0CCF8DC
:103C000005003CD00120E8610BF1010BB16869614E
:103C100001AB706828610022594600F0BDF82862A7
:103C200058B3009903F046F97168B06801AB0022FF
:103C300001F0E6FAA860D8B100216960606800B1BF
:103C400045602860656002E0E869401CE861B8F101
:103C5000000F03D02068494600F012FEBF1307F0A2
:103C60000107CAF80050BF03CAF80470504617E0B5
:103C7000296A11B15A4602F01CF900F0C7F808226F
:103C8000514600F0C5F803F00BF90C21B8F1000F14
:103C9000016003D02068494600F0F2FD4FF0FF308C
:103CA00005B0BDE8F00F5DF80CFB70B500F017F83B
:103CB00004D203F0F5F87A2101600EE04068420476
:103CC00048BF0023A0681A4601F0F0F908B1656901
:103CD00003E003F0E5F80B210160284670BD04689D
:103CE00066694FF0FF33B2421D46704738B500F0A9
:103CF0001BF806D200F014F80FD103F0D1F87A21A6
:103D00000AE000F01BF801F0F9F938B900F008F802
:103D100003D103F0C5F80B2101601CE0002032BD87
:103D200094F8F400022870470368034C5D699542DB
:103D300070470000E0330020302400204068420437
:103D400003D494F8F400022801D0002201E04FF0DF
:103D5000FF32986870474FF0FF3032BD4447002073
:103D600038B50546DFF8B000446800E024683CB18F
:103D7000206A294603F0AAF80028F7D1204632BD70
:103D8000002032BDD42500202C4700006846DFF813
:103D9000A010242202F07CBB002002F071B810B504
:103DA000DFF8801091F8AC00012281F8AC20DFF838
:103DB000A8100C680CB122680A6001F07AFD1CB1F1
:103DC0002046BDE8104009E010BD0000B4270020E7
:103DD000D8010010004003402C20094010B50446D3
:103DE00004F1100001F055FBE06818B104F10C007B
:103DF00002F02BF82146BDE81040502201F04FBAE6
:103E0000F4450020042009401820094024222946B6
:103E1000002002F04EB80000FC450020204601F0D2
:103E200048BD00003024002001604FF0FF3002BD8B
:103E300078210000DFF8E0070178FDE7DFF8E00710
:103E400090F8F4007047DFF8D827014692F8F400A4
:103E500082F8F4107047000004460020DFF8BC1719
:103E6000D1E90023C0E900237047DFF8B407D0F898
:103E7000FC100847DFF8A817D1F800211047DFF839
:103E8000A00790F81411012280F8142190F8AC10CA
:103E900080F8AC200320D6E710B504460320FFF7D6
:103EA000D2FF204602F023B880B5DFF86C07017816
:103EB000012901D0FFF7BEFFDFF8680702F004F820
:103EC000FFF764FC002001F088FBBDE8014001F031
:103ED000C1BC10B588B001A80FF2B0211C2202F0BD
:103EE000D7FA022200218DF804200A248DF8101040
:103EF0000091039401ABDFF83027DFF8300700F0C2
:103F0000D1F808B010BD0146DFF82007AEE020B5BB
:103F100002460020D2E9102347F6906102F014F91E
:103F20000125A94228BF4FF0FF3020BD38B50C460F
:103F300002F0F2FA050018BF0125DFF8F806006864
:103F4000811D201AB0F1004F05D8081BB0F1004FB9
:103F500038BF8C4200D20C4621460120FFF7D5FD28
:103F6000EDB20DB9FFF7A1BD31BD2DE9F84C054605
:103F70000C46D5E910ABD5E91267AAFB04010BFB8F
:103F8000041136184F41340C002244EA07412846F8
:103F9000FFF7CCFFC5E91467BDE8F18C38B50546DD
:103FA000FFF7F0FB6D690446B5F5802F34BF04259B
:103FB0002D0CDFF88006006845190120FFF794FDFD
:103FC00029460120FFF7A1FDDFF8702613681D6860
:103FD00023210020A847DFF868160120086020464A
:103FE00000F09EBFDFF8480601680A6B104700002A
:103FF00010B504460120FFF777FDA069E169BDE82F
:10400000104008472DE9F04707460120FFF76CFDF7
:10401000D7E91601D7E91025002610EB02084D411B
:104020004FEA184040EA054AD7E914494FF0FF30FB
:104030004FF6FF7108EA000205EA0103204009EA91
:1040400001018B4202D82CBF8242012632465146E2
:104050003846FFF76BFFD7E91601C7E91401C7E936
:104060001685B869F969BDE8F0470847F8B5044610
:104070000D46FFF7B7FFD4E9106732463B4602F022
:1040800063F83DB1A6FB002306FB013307FB0033B9
:10409000C4E91223F2BD80B5FFF774FBFFF77CFB88
:1040A000002002BD2DE9F84187B005460F46904635
:1040B0001C46FFF767FBDFF88065B16811B1FFF7B9
:1040C0006BFB30E0B560FFF767FB0CB90FF2BC0487
:1040D000EF60C5F81C804FF480316068A8616962A8
:1040E0000020286200220023C5E91223217BA0685A
:1040F00001290CD168610021A068C5E9100122786E
:1041000068690021022A0CBF024600220DE0014628
:104110000020DFF8A02302F017F801229142686125
:10412000EBD3C5E9100100202CE0C5E91421C5E955
:104130001601182201A8DFF8141502F0A9F902955A
:1041400001AB2078DFF8FC14009100280CBFDFF8E9
:10415000F824DFF8FC24142105F1280000F059F8B8
:1041600004462846FFF797FF287C10B92846FFF73A
:1041700015FF2CB12946304601F07BF8284601E0B6
:104180000020B06008B0BDE8F08100000000000031
:1041900000000000E8030000000000000000000034
:1041A000000000000000000038B5DFF8744404F19E
:1041B0008405287F68B901212977FFF7E3FAE16FC9
:1041C0002868C90800EBC1010839A1674FF0FF3129
:1041D000A16631BDF8B5DFF84864DFF878740446AD
:1041E000D6F89C000D4650F82510B9420DD106F5C1
:1041F000D27000902946204600F00BF840B1D6F866
:104200009C0050F82510B94201D10020F2BD204693
:10421000F2BD1CB504460BB9DFF8303404980090A9
:10422000204600F00AF8010003D0204600F06DF8A7
:104230000024204616BD002167E0F8B51746069C0D
:10424000DFF81424362905461E4602DB00230093BE
:104250000DE0DFF8CC03E981D0F89C3053F8210061
:10426000DFF8F033984209D00023009328320B4640
:104270000021204601F0F4FD0120F2BD084600F0C7
:1042800099F86F6070682860306910F1010F08BFFD
:10429000FF2028730021307A00B10121307D08B160
:1042A00041F00201A9602846214600F003F800B160
:1042B000801CF2BD38B50446217AB4F90E008A0795
:1042C000054602D5217B202907D2616800F0C2F89B
:1042D000B4F90E004042E0810AE0DFF84413D1F85F
:1042E0008C00DFF8F41340F82540284600F0B2F8BF
:1042F000217B284600F0E0F8207AC10744BF284619
:1043000000F075F80020A06032BD012900D170478F
:1043100010B5B0F90E40002C48BF6442204600F0B2
:1043200049F8DFF83013204600F094F8DFF8F01277
:10433000D1F88C20002042F8240010BD70B5FFF7A2
:1043400021FADFF89833DFF89803DFF89813DFF8E5
:104350009823DFF898430A601B1A8B60DFF89033CC
:10436000C868186002461D68A5420FD0002554F8A1
:10437000256040F825606D1C0F2DF8DB0F20DFF85D
:10438000D44242F82040401C3628FADB5C68DFF853
:10439000640324F47F4404195C600A622021997646
:1043A0004FF40070D860DFF8F003016821F040415D
:1043B000016070BD0F2810D9A0F110014909A0F1CA
:1043C0001002DFF8D803012302F01F0250F8210089
:1043D00003FA02F2DFF8C83325E006D1DFF8C41390
:1043E00008680A6822F0020221E0002070470F28C6
:1043F0000ED9A0F11002012302F01F0203FA02F20B
:10440000A0F11001DFF89433490953F821000AE0C4
:1044100006D1DFF8901308680A6842F0020206E04D
:1044200000207047000043F821201040704700F042
:1044300002000A60704710280BD300F1F00201213E
:1044400002F01F02DFF8343410389140400943F87D
:1044500020107047DFF8C821D2F8883003EB8000C5
:1044600002688A4218BF0160704710B5DFF8B0419A
:10447000A06F02F045FD0021A16610BD70B5024697
:10448000DFF86002836853600468946025462878EA
:10449000BE2803D001200023136070BD0020002936
:1044A000F9D015F8016FBE2EFBD064422919491EC0
:1044B0005B1AF1E740420F00102805D3DFF8F8231C
:1044C000104400F8101C7047042804D3DFF8EC23D4
:1044D000104400F8041C7047102803D3DFF854146C
:1044E00010380860704710B54D4B0FF215040122CB
:1044F00083F86C2014B1BDE8104001E010BD00004D
:1045000018B50446DFF83014486801229FB00A70DD
:1045100008B901AA4A60204600F014F80320FFF70A
:1045200092FCDFF87804DFF878240368A06B009031
:1045300003F0FF030F2B28BF383201F02CFA20B014
:1045400010BD0000F0B5364C226F04F1F4050146B1
:104550002E78167000230E6A166100204F6A57618C
:104560008E6A9661CF6AD7610E6816624F6857628D
:104570008E689662CF68D7620E6916634F6957637B
:104580008E699663CF69D76301F140070E6B16649D
:1045900057644E6B966404F184068F6BD764C96BC5
:1045A00011651778032F14D8DFE807F00907021008
:1045B000B06B5060C36A806A0BE0E86A06E0B068DE
:1045C00001F0FF0150F82110516000E05060E36FEE
:1045D0003068D0609360616F39B1002804E013F84F
:1045E000014B01F8014B401EF9D1DFF8B00301681F
:1045F000DFF860045165037893654178D16543889D
:1046000013664168516683689366C168D166036921
:10461000136740695067F0BDE0330020102500208B
:10462000302400207F3E0000014C0000E8330020D1
:104630008C01001030200940E0250020840100108A
:1046400080022443D4250020054000002C470000B0
:10465000F13F000051330200BC200000DFF8A4133A
:1046600091F81401012281F814217047DFF89413A6
:1046700091F8AC00012281F8AC20704700002DE9D0
:10468000F04100F047FEDFF87C7397F8AC50012052
:1046900087F8AC0097F8146187F814010020FFF741
:1046A000D2FB8046D7F88C00DFF8F0120A6802F0DF
:1046B000FF0250F82270BC60FFF768F8386879682C
:1046C0008847FFF75FF84046FFF7BDFB06EB052084
:1046D000BDE8F081000000002D320200E05500200E
:1046E000E0510020AC240020E051002090000000A8
:1046F00008ED00E00000FA0500F0FF0000F089BFBF
:10470000000A01F0F1B8F8B5002101A8FFF7B6FEE4
:104710000398009004E0BE2101700099491C0091AB
:1047200000986845F7D305B000BD00000000000008
:10473000000000000100000000000000E000000098
:104740000100000070B5049C059D069E8908491E65
:1047500040F82140491E40F82130491E40F82120F0
:10476000491E40F82160491E40F82150491EDFF8DB
:10477000382940F82120491E4FF0FF3240F821200F
:1047800000F012F800F010F8491E40F8212000EB6C
:10479000810070BD0000000034EF00E000E100E0A7
:1047A00080E100E010E000E0491E40F82120491EB1
:1047B00040F82120491E40F82120491E40F82120C0
:1047C000491E40F82120491E40F82120491E40F88A
:1047D0002120491E40F82120491E40F82120491E71
:1047E00040F82120491E40F8212070477FB504463B
:1047F0000D46A16A164619B1E06ABE2202F0ACFB72
:10480000E16B02913346A06B01900095A16A626B47
:10481000E06A091FFFF796FF04B070BD10B50446AB
:1048200009B90FF2680100F002F8204610BD10B57A
:1048300004460022012104F10C0000F00DFE0021CD
:10484000A1602146BDE81040DFF8640900F011BD09
:1048500038B504466B4DA068D5F8BC2090420AD00C
:104860004FF0FF3104F10C0000F057FDD5F8BC000B
:10487000A060002032BD012032BD000080E200E0D7
:1048800019B981600C3000F0A9BD7047000000002C
:1048900010B504460120A060002121610022E260E1
:1048A00004F1140000F0FAFC2146BDE81040DFF8E6
:1048B000040900F0DEBC000000E400E018ED00E0B8
:1048C000F8B50646DFF8F008046984B09CB1656964
:1048D000077801210170B068012807D10021B1607B
:1048E0003461F56000F031FC002020E03069A04226
:1048F00003D100F02AFC012019E0204601F0FAF96A
:10490000002102940391C4F824D02A46694606F196
:10491000140000F047F830694069A84203DA3069B2
:10492000294601F093F900F010FC0020606205B008
:10493000F0BD000000EF00E09C24002070B5DFF81F
:1049400078280546106938B314780123137009BB21
:10495000E96842699142BCBFE96801F077F968698A
:1049600005F11401884202D10122AA6012E06869AF
:104970000168696105F114024A6086682E617069F8
:10498000E860FEF7FFFE05462946304601F0E2F9F1
:1049900000F00BFE00F047BD70BD000004ED00E02C
:1049A0001021000010B50346186800E00068984226
:1049B00007D0846864699442F8DABDE8104000F0DA
:1049C00051BCBDE81040184600F03EBC10B504468E
:1049D00009B90FF22C01FFF75BFF204610BD10B59F
:1049E00000F092FA00F0E6FE18B12146BDE8104052
:1049F000ECE710BD0FF208010A6802607047000082
:104A000000000000302400208069FEF77ABA806937
:104A1000FEF779BA8069FEF778BA8069FEF77ABA4C
:104A2000FEF769BA10B504460020A061DFF8A018AF
:104A3000DFF8A028DFF8A00821606260A06004F120
:104A40001001DFF89828DFF88409E26000F011FC1B
:104A5000204610BD28ED00E018B5DFF8E44994F8D1
:104A6000650085B0E8B9012284F865200021204660
:104A700000F014FC00F09CFD00F015F805200390F8
:104A800004F5D2736A460FF2E10104F1100000F060
:104A900077FEE064FFF71DFADFF8A809FFF737FAA1
:104AA000A06506B010BD6846DFF89C19142201F01D
:104AB000EFBC000038B5FEF765FE04460020FFF7A6
:104AC00022FA05460FE038B5FEF75CFE04460020EA
:104AD000FFF719FA0546DFF86809416D806D4D1B37
:104AE000A84238BF00252046FEF756FE284632BDB4
:104AF00038B504460D462146DFF84809FFF735FA78
:104B0000DFF83C090465456531BD2DE9F8430446ED
:104B1000DFF82C090768D7F804800D464FF0FF39FD
:104B20001BE03E463F68307D012816D1012C04BFB2
:104B3000F168A94209D1306900281DBF4118F16010
:104B400030623075F069B1698847307D012804D141
:104B5000F068401B484598BF81464745E1D148462B
:104B6000BDE8F283000000002DE9F843FEF70AFEDD
:104B700080460120FFF7C7F9DFF8C45805F15C064D
:104B800001213170002272706F6DAA68A968C41B80
:104B9000401ABA1A904202D2002030702BE000F086
:104BA00061F94FF0000907E04F4439460120FFF753
:104BB000ACFFA4EB090481464C45F5D2FEF7E2FDBB
:104BC00080467078012804D139460020FFF79DFF08
:104BD0008146A86D19F1010F05D0A86DA9EB040459
:104BE000A04288BF2046C119FFF782FF01200021A3
:104BF000B0703170AF604046BDE8F243FEF7CCBD07
:104C0000DFF83C08C06C00F06BBD38B504461D46AB
:104C1000A260002268682061A1612146A868E06165
:104C20002275DFF81C0800F024FB287818B1204614
:104C3000BDE8324041E031BD38B569E18260816153
:104C400000220261C3610021017570470146DFF84F
:104C5000F007F9E200F01BBB70B50446DFF8E0672F
:104C6000A068206206F15C05A978012904BF2878B4
:104C7000002816D10120FFF746F9B168736D02468E
:104C8000B0681B1A511A8B420BD3A0688118E160DF
:104C900001232375746DA21A90420DD2BDE87040B5
:104CA00026E7FFF707FFA1680818E06001202075DC
:104CB0002978012908BF687070BD38B500F02AFB5B
:104CC00005462046FFF7C8FF29E1BCE704460D462C
:104CD0001646FEF757BD70B500F01CFB0646207D5A
:104CE0000025012808D1FFF7E5FE0546E068216AA6
:104CF000451BA94238BF002500F099FB284670BD2E
:104D0000007D704700F0A2BB10B504460BB90FF24E
:104D10000C03FFF77AFF204610BD000000000000E2
:104D2000000000000000000070B504460D46164665
:104D30000022242100F03FFD28B133462A462146B7
:104D4000BDE87040E0E770BD76E710B5044600228C
:104D5000A260002104F10C0000F0A0FA2146BDE899
:104D60001040DFF8C80984E238B500F0D3FA0546F0
:104D7000207C022804D1204600F089FA00F0C4FA11
:104D8000CDE010B5836884681A400C408C4208BF9F
:104D90000A4312B1816891438160104610BD2DE92C
:104DA000F0431C4691B081460D46174614F1010FA1
:104DB00018BF002C0CD06B462246DFF8941908A8C7
:104DC000FFF73CFF08A9022203918DF8102004E0B0
:104DD0000020032103908DF810100021DFF8D86324
:104DE00006950797059130690290FEF7CBFC804647
:104DF0003A4629464846FFF7C4FF050003D000F0B5
:104E000031F828462BE01CB900F02CF8002026E0F1
:104E100034780120307069460298416209F10C0033
:104E200000F012FA029800F06EFF039820B1FFF72D
:104E30000DFF0398FFF710FF00F014F8FEF7EEFFE8
:104E4000FEF7A0FC0446039818B1FFF703FF00200B
:104E5000039000F0BDFA9DF8100000B1059811B064
:104E6000BDE8F0834046FEF797BCF8B505460E4610
:104E7000FEF788FC0446A8680643AE6005F10C0006
:104E8000E968814202D1204600F08BBBDFF8B00513
:104E900090F8AC6000F01CF82846EF68FA69B96930
:104EA000FFF76FFF786160B1384600F0F0F901203C
:104EB0003874F86808B1002101752146B86800F01F
:104EC00049FF00F035FC3046BDE8F24000F0F1BC8F
:104ED000012180F8AC10704710B5044609B90FF2F3
:104EE0000C01FFF732FF204610BD0000000000005B
:104EF00010B500F009F8142100F05DFC18B121464E
:104F0000BDE81040E8E710BD04460B46002270479C
:104F10000446FEF737FC0546204600F0B8F928465F
:104F2000BDE83240FEF738BC21681422002000F0B2
:104F3000C0FF0020206010BD78B5DFF80849207858
:104F400089B0E0B901252570FEF720FF4FF44072CB
:104F5000059204F160010FF23402049100920026E0
:104F600003968DF8205000236A460FF21901201D88
:104F700000F027FFDFF8C814201DC1F8D8000AB0E0
:104F800070BD000080B500F011F8FCE774692E7365
:104F9000797362696F732E6B6E6C2E5461736B2E16
:104FA00049646C655461736B0000000038B50024DF
:104FB000DFF8305955F824008047641C032CF9DBD6
:104FC00031BDFEB51E460546706968610F463468FE
:104FD000EF6011460022AC602961A961EA610837DF
:104FE00058B9FF1DFF08089BFF007943204600F0D9
:104FF00047FFE86108B90120FEBD002105F1280046
:1050000000F04CF9002105F1200000F047F9394685
:10501000284600F0B8F8684600F01AF87468019461
:105020006A46B068029005F1300000F015FAF068A9
:1050300001906A463069029005F14C00296900F040
:105040000BFA2946DFF8D40800F013F90020FEBD62
:1050500000210022002380E80E00704710B50129CE
:1050600004461FD0E16941B1E26820690F32D208DD
:10507000D2004243A06800F01CFF04F12801E16265
:1050800004F12800A06204F12001616204F1200013
:10509000206204F14C0000F0FCF904F13000BDE89E
:1050A0001040F6E110BD0000856F000070B500F003
:1050B0001FF8E0B104F1200000F0C7F80646E268EE
:1050C00006F10801284601F0D3F9FEF75BFB05461F
:1050D000314604F1280000F0B7F8A069401CA06137
:1050E00000F063FA04F14C0000F078F9012070BD83
:1050F00004460D46114604F130000EE1F8B500F00B
:105100003CF808B3FEF73EFB00F022F803D1FEF7AF
:1051100043FB0020F2BD00F025F800F028F8DFF88E
:10512000200390F8AC7000F085F90646294604F19A
:10513000200000F089F804F1300000F04FF900F091
:1051400076F900F002F80120F2BD384600F0B1BB5C
:10515000A56A2968A16204F128024A6004F12801C5
:105160008D427047A169491EA161FEF715BBE26837
:10517000314605F1080001F07BB904460E461146A0
:1051800004F14C00C9E0F8B505460E466C6904B957
:10519000EC69002706E0214605F1280000F069F8D7
:1051A00034447F1C28698742F5D30020F2BD0000FB
:1051B000EC250020F4250020DC2400201CB504464A
:1051C0000BB90FF22003049800902046FFF7F9FE78
:1051D000010003D02046FFF741FF0024204616BD02
:1051E00000000000000000000000000000000000BF
:1051F00000000000000000000000000000000000AF
:105200002DE9FC4100F013F8682100F0D4FA040005
:105210000AD00097434632462946FFF7CFFF18B918
:10522000682200F0C3FA00242046BDE8F681054656
:105230000E4690461F46002270470168814201D108
:1052400001207047002070470DE038B500F062F88B
:105250002568296821602A685460FFF745BC4060D2
:105260000060704700BF426808604A60116041609A
:10527000704738B500F007F82C60616869606268B3
:10528000156065604CE604460D46FEF77BBA016882
:10529000426811604168006841607047DFE70020A4
:1052A00000F007BE10B5044610782074618204F146
:1052B00014000021FFF7F2FF0021A1600120214628
:1052C000E060BDE81040DFF87C09D2E70000000094
:1052D000094A00000F4A00001B4A0000154A00005E
:1052E00000BF00F11401816100F1140242617047B6
:1052F00038B500F00FF80546207C022803D100F0F5
:10530000D2F800F001F80AE6002020742946A068CF
:1053100000F020BD0446FEF735BA70B50C468EB0DD
:10532000054614F1010F18BF002C0AD06B46224627
:10533000DFF8141905A8FFF781FC05A903910222E3
:1053400002E00021039103228DF81020FEF71AFAE3
:105350000646688A002831D11CB900F068F80020A0
:1053600032E0DFF88C0904780121017000690290B5
:10537000C0F824D000F0C7FC694605F11400FFF71F
:1053800063FF9DF81000022805D10398FFF75EFC2B
:105390000398FFF761FC00F04AF8FEF73FFDFEF7C7
:1053A000F1F90446039818B1FFF754FC002003906C
:1053B00000F00EF89DF8100030B104E0688A411E3C
:1053C000698200F034F801200EB070BDFC25002089
:1053D0000020029948622046FEF7DEB970B5054606
:1053E000174890F8AC4000F025F80646686905F1CA
:1053F0001401884207D1287CC1074EBF0120688A6A
:10540000401C68820DE06A69106868614160012093
:105410001074D06808B1002101753146906800F021
:1054200099FC00F004F82046BDE8704041E23046A7
:10543000FEF7B2B9012180F8AC10FEF7A3B9000065
:1054400030240020E833002098570000002100227B
:10545000002380E80E00704710B504460AB90FF229
:105460000C02FFF71FFF204610BD000000000000E7
:10547000000000000000000038B504460D46134649
:1054800000F097F920B12A462146BDE83840E3E70D
:1054900032BD38B50446FFF723FFFEF773F9054622
:1054A00000F001F83BE52046F1E610B5044620681F
:1054B000FFF7EFFF21681C2238E50000B0FA80F00A
:1054C000C0F11F0070472DE9F843044604F128009D
:1054D000DFF8E058C168D5F81080EF68AE68296140
:1054E000EC6000238168A96000214268826001703D
:1054F0002B700120FEF7A7FC8146FEF747F9E16912
:10550000A06962699047FEF73DF94846FEF79BFCAB
:1055100001202870C5F81080EF60AE60BDE8F1830F
:1055200038B5DFF8C048E5682068FFF7C7FF216994
:1055300001EBC00100F091F803D12168426A914368
:105540002160FFF7C0FF206830B1FFF7B7FF216986
:1055500001EBC0018D42EDD331BDF8B5DFF88868AD
:1055600006F58A742769FEF70DF905466068FFF7AE
:10557000A5FF616901EBC00087420FD296F8AC70BD
:10558000012086F8AC00DFF8640801F0A9FC0020D7
:10559000207000F00AF83846FFF796BC0020207013
:1055A0002846BDE8F240FEF7F7B82846FEF7F4B803
:1055B00038B5DFF83C48207A38B90121217200253E
:1055C00000F042F96D1C062DFAD331BD481E804112
:1055D000C00F7047FFF742B80000002800D07047A6
:1055E00010B5FEF7CFF8DFF8004804F58A7251686D
:1055F00021B1FEF7D1F8FFF7B0FF02E01170FEF71E
:10560000CBF894F8AC00012184F8AC10BDE8104050
:105610004FE1002800D0704738B5DFF89847606840
:10562000C0B1FEF7B3F8FEF7ADF825696068FFF783
:1056300045FF616901EBC0018D420BD200F00DF80E
:1056400003D16168426A91436160FFF73CFF606883
:105650000028ECD10020207031BD086802680A6083
:1056600051600A688A427047DFF8F007D0F81C01E1
:10567000704710B50446DFF8043800F081F860691F
:1056800000B90024204610BD38B5406000601368A2
:1056900041610361516881619368C361D16811F10F
:1056A000010F08BF05210162012303FA01F14162E4
:1056B000002400F128010C7013698B6012694A60A4
:1056C000DFF89827046AD2F8283103EBC405CD60CF
:1056D00000F1080102F58670FFF7CBFD002032BD16
:1056E0002DE9F0418046FEF74DF808F12405044607
:1056F000287920B12046BDE8F041FEF74DB80120E1
:10570000DFF8B076287141463E7838702869FFF797
:105710009BFD796828680143796000F009F816B9A3
:10572000BDE8F04119E7BDE8F08100000426002043
:105730002046FEF731B838B5FFF7A5FD216B0D43C4
:105740002563FEF729F82046BDE83240C8E700008F
:10575000694D000038B50D46044615F1010F08BF2C
:105760000525FEF70FF80121A94061622562DFF8E7
:10577000EC26D2F8281101EBC5036363FFF7D0BB19
:1057800010B504460AB90FF21002FFF77DFF00B111
:105790000024204610BD00000000000000000000B2
:1057A000000000000500000000000000214600F09D
:1057B00080BB00221C21002000F062BB38B5FFF73F
:1057C000A9FD00F03DFBFFF7AABB70B5DFF850471D
:1057D0000020207101E000F0D6FA20680028FAD0FD
:1057E0002068FFF76BFE6169226901EBC00082420D
:1057F0000DD2E56820610668E6603146284600F073
:105800008FF806F11C0105F11C0001F0AFFB2079B7
:105810000028DDD170BD10B5DFF8D444207A08B17E
:10582000FFF7D3FF57E038B5DFF86848207E38B976
:1058300001212176002500F007F86D1C062DFAD312
:1058400031BD0000503400202268002102EBC50069
:10585000FFF724BD38B596B0FDF794FFDFF8C046DA
:1058600001E000F090FA20680028FAD02068FFF7E5
:1058700025FE616901EBC0000146206100200D6832
:10588000E56020710220FEF7DEFA2946002000F0D4
:1058900047F8FDF77BFFFDF775FFFEF7E6FDE068D3
:1058A00000F11C0107A801F061FB17B030BDFEF745
:1058B000DDBE002800D0704710B5FDF763FFDFF8AC
:1058C000280500F1AC04217A012902BF90F81401E7
:1058D0000028FFF77AFF00202070BDE81040FDF798
:1058E00055BF000024240020002800D0704710B5C8
:1058F000DFF8680500F1AC04217A012902BF90F8B5
:1059000014010028FFF761FF0020207010BD000087
:1059100000BFDFF84805D0F8BC0070470C26002017
:10592000BCB504000F4635D0E06ADFF86C5701784B
:10593000BE2905D00022009223462A4600F02BF80B
:10594000F86A0178BE2907D0002000903B4605F197
:105950002802002100F084FAE06A01A9814222BFF6
:10596000A26A8018884207D20091234605F15002AE
:105970000021002000F074FAF869FA6A904222BF10
:10598000BB6AD218824205D200903B4605F18002E4
:1059900000F001F8B3BD0021002061E290F848005A
:1059A000012800D0704710B5FDF7ECFEDFF8AC140D
:1059B0000446D1F8B800401EC1F8B80004D1FFF782
:1059C000B7FE0020FEF756FA2046BDE81040FDF76E
:1059D000E3BE70B5DFF8C4060469057801210170E3
:1059E000FDF7D0FE0646204600F08DF9032084F82E
:1059F00020002046FFF7D2FFFFF719FD6460246006
:105A000042E038B5FFF786FC0546A068294600F05D
:105A1000A1F9FFF784BA020000D1704730B58DB00C
:105A20006B46DFF87C1604A8FFF708F904A9039178
:105A3000FDF7A8FE0446DFF8640605780121017031
:105A40000069029000F05FF90398FFF7FFF80398F0
:105A5000FFF702F9694601916A4600920298416295
:105A6000FFF766FE2846FFF724FFFDF78BFE04468E
:105A70000398FFF7EFF800200390FFF759FE029913
:105A8000002048620DB030BD2846BDE8704010E7E8
:105A9000F8B517460446386820610E46F96861611A
:105AA0001D46B869002803BFDFF8F80501682163C7
:105AB0002063796909B94FF40071386948B3C21D90
:105AC000D208D200891A4118C908C9004FF0FF3026
:105AD000E262A162206366637868DFF88063A06396
