:020000040000FA
:100000004343323678325231D3A04D8C0301FEFF88
:10001000FFFF0700FFFFFFFF704C02009000000091
:10002000303030316F4C02002C00FFFF03FEFFFF29
:100030005500000001287B8667B0177D511DEC102C
:100040008B565F49CA48EE3D097D0210AAB6775D1E
:10005000172F6716C6733B065FE68DC9099234FEFB
:1000600006A3EFED63C33A20B9684ED6BE20DDA1EA
:10007000A766E41D94DD25FD0FC5937B9A8587F85F
:100080001E01FEFFFFEF4B02000000000000000019
:10009000F8550020413D0200753E0200753E020009
:1000A000753E0200753E0200753E0200753E02007C
:1000B000753E0200753E0200753E0200753E02006C
:1000C000753E0200753E0200353E0200FFFFFFFF55
:1000D0002A201B1424201B1424201B1400000000C1
:1000E000E4FEFFFFFFFFFFFF48FFFFFFFFFFFFFFF3
:1000F0001802000000000000A266FEFFFFFFFFFFE5
:100100007DFBFFFFFFFFFFFF62AC0000000000006F
:100110008E21FBFFFFFFFFFF15F2FFFFFFFFFFFF39
:10012000AEF2FFFFFFFFFFFF5FFE030000000000D5
:100130003E82FFFFFFFFFFFF6D38FEFFFFFFFFFF67
:1001400044000100220001001C2300200F090000D0
:100150004DFE0000F5000100212B0000212B0000C6
:10016000212B00003D0601005B060100212B000051
:1001700075060100A5060100AB0601004D0801004F
:10018000212B0000550901004D020100B1060100BC
:10019000D10601005D070100D9090100212B0000F3
:1001A000010B0100212B0000212B0000B5020100F2
:1001B00019060100212B000037C5010059C40100B8
:1001C0008DC501002DC401003FC40100E3C601003C
:1001D000E7C6010013C8010059C7010083C8010028
:1001E00029C701003BC70100DDC80100E1C80100CB
:1001F000C1510100C5510100C1590000C75900009B
:100200000205000308100A001C3F0020203F0020C8
:100210003A0100000000000000000000241F002040
:10022000D81B0020000000000000000002000000B9
:10023000010000005001000048070000B801000064
:1002400068070000F801000000000000243F0020C3
:10025000000000007C230020DC230020F423002089
:1002600010240020480100000000000000000000F1
:100270001600000000000000526567697374657223
:10028000656420736572766963652C20256420613E
:1002900074747269627574657300000052656769F1
:1002A0007374657265642063616C6C6261636B7307
:1002B00020746F206170706C69636174696F6E2E59
:1002C0002053747275637420257000004E756C6C39
:1002D00020706F696E74657220676976656E20663E
:1002E0006F72206170702063616C6C6261636B730C
:1002F0002E000000536574506172616D6574657203
:100300003A20506172616D65746572202325642006
:100310006E6F742076616C69642E00005472796986
:100320006E6720746F2073656E64206E6F74692F22
:10033000696E643A20636F6E6E48616E646C65200E
:1003400025782C20257300004C656E677468206F3B
:1003500075747369646520626F756E64733A204CBE
:10036000656E3A202564204D696E4C656E3A2025F5
:1003700064204D61784C656E3A2025642E000000A3
:1003800052656164417474724342203A202573209F
:10039000636F6E6E48616E646C653A202564206FF1
:1003A00066667365743A202564206D6574686F64B1
:1003B0003A2030782530327800000000416E206904
:1003C0006E76616C6964206F666673657420776110
:1003D00073207265717565737465642E000000008A
:1003E00057726974654174747243422028434343D1
:1003F00044293A20706172616D3A20256420636F50
:100400006E6E48616E646C653A2025642025730029
:1004100000000000000000B000405104201100F076
:1004200010000000100400000097B92EE5725CCBAC
:100430005DCAE473B82F0196BA2D03945FC8E671C4
:10044000E7705EC90295BB2CE3745ACD0691BF28B4
:10045000BE2907905BCCE27559CEE077BC2B0592A4
:100460000493BD2AE17658CF51C6E87FB4230D9A94
:100470000C9BB522E97E50C7EB7C52C50E99B72084
:10048000B6210F9853C4EA7DB2250B9C57C0EE7974
:10049000EF7856C10A9DB324089FB126ED7A54C364
:1004A00055C2EC7BB027099EA2351B8C47D0FE6954
:1004B000FF6846D11A8DA334188FA136FD6A44D344
:1004C00045D2FC6BA037198E41D6F86FA4331D8A34
:1004D0001C8BA532F96E40D7FB6C42D51E89A73024
:1004E000A6311F8843D4FA6DF3644ADD1681AF3814
:1004F000AE3917804BDCF26549DEF067AC3B158204
:100500001483AD3AF16648DF1087A93EF5624CDBF3
:100510004DDAF463A83F1186AA3D13844FD8F661E3
:10052000F7604ED91285AB3C52656769737465728A
:10053000656420736572766963652C20256420618B
:10054000747472696275746573000000526567693E
:100550007374657265642063616C6C6261636B7354
:1005600020746F206170706C69636174696F6E2EA6
:100570002053747275637420257000004E756C6C86
:1005800020706F696E74657220676976656E20668B
:100590006F72206170702063616C6C6261636B7359
:1005A0002E000000536574506172616D6574657250
:1005B0003A20506172616D65746572202325642054
:1005C0006E6F742076616C69642E000054727969D4
:1005D0006E6720746F2073656E64206E6F74692F70
:1005E000696E643A20636F6E6E48616E646C65205C
:1005F00025782C20257300004C656E677468206F89
:1006000075747369646520626F756E64733A204C0B
:10061000656E3A202564204D696E4C656E3A202542
:1006200064204D61784C656E3A2025642E000000F0
:1006300052656164417474724342203A20257320EC
:10064000636F6E6E48616E646C653A202564206F3E
:1006500066667365743A202564206D6574686F64FE
:100660003A2030782530327800000000416E206951
:100670006E76616C6964206F66667365742077615D
:1006800073207265717565737465642E00000000D7
:10069000577269746541747472434220284343431E
:1006A00044293A20706172616D3A20256420636F9D
:1006B0006E6E48616E646C653A2025642025730077
:1006C0005772697465417474724342203A202573ED
:1006D00020636F6E6E48616E646C65282564292006
:1006E0006C656E28256429206F66667365742825FD
:1006F0006429206D6574686F6428307825303278FD
:1007000029000000496E76616C69642076616C7521
:1007100065206C656E67746820776173207265630D
:1007200065697665642E000000000000000000B0DE
:1007300000405104301100F01000000028070000B4
:1007400002000000362B00003BDA01004BDA01000A
:10075000EDD60100A5DA010067A7010073A701002B
:10076000FBDA0100F7DB0100954F0100D5DD010048
:10077000695001005350010071330000A1320000A4
:10078000FF330000433400006334000005320000F2
:1007900015340000A7330000E53400009332000058
:1007A0000F35000003350000F1340000693300000C
:1007B0006B330000993700006F3300006D33000089
:1007C00052656769737465726564207365727669D2
:1007D00063652C2025642061747472696275746588
:1007E000732C2073746174757320307825303278DF
:1007F0000000000052656769737465726564206368
:10080000616C6C6261636B7320746F206170706CDB
:1008100069636174696F6E2E2053747275637420FE
:10082000257000004E756C6C20706F696E74657277
:1008300020676976656E20666F7220617070206334
:10084000616C6C6261636B732E00000053657450C1
:100850006172616D657465723A20506172616D6597
:1008600074657220232564206E6F742076616C6934
:10087000642E00004C656E677468206F7574736930
:10088000646520626F756E64733A204C656E3A2021
:100890002564204D696E4C656E3A202564204D61BB
:1008A000784C656E3A2025642E0000005265616424
:1008B000417474724342203A20257320636F6E6E38
:1008C00048616E646C653A202564206F66667365C6
:1008D000743A202564206D6574686F643A2030781E
:1008E0002530327800000000416E20696E76616C20
:1008F0006964206F66667365742077617320726522
:10090000717565737465642E000000005772697418
:1009100065417474724342203A20257320636F6EE0
:100920006E48616E646C6528256429206C656E28AC
:10093000256429206F666673657428256429206DF7
:100940006574686F6428307825303278290000009B
:10095000496E76616C69642076616C7565206C65A2
:100960006E67746820776173207265636569766568
:10097000642E000000000000000000B000405104A0
:10098000101100F010000000740900003E3E3E53BC
:100990005441434B20415353455254204361757396
:1009A0006520307825303278207375624361757325
:1009B000652030782530327800000000000000000B
:1009C000000000B000405104C0FF00F00000000033
:1009D000000000B000405104C1FF00F00000000022
:1009E000000000B000405104C2FF00F00000000011
:1009F000000000B000405104C5FF00F010000000EE
:100A0000BC090000496D67204964656E74696679A8
:100A100000000000496D6720426C6F636B000000AE
:100A20004F414420457874656E64656420436F6E61
:100A300074726F6C000000004F4144204E564D31DF
:100A400000000000000000000000000000000000A6
:100A50000000000000000000000000000000000096
:100A60000000000000000000000000000000000086
:100A70000000000000000000000000000000000076
:100A80000000000000000000000000000000000066
:100A90000000000000000000000000000000000056
:100AA0000000000000000000000000000000000046
:100AB0000000000000000000000000000000000036
:100AC00000000000000000007DED0100FDEC0100D1
:100AD00061FC0100B9A101100DCF0110817E011050
:100AE0002D2302108DCC0100E9E90100C9CA0100E3
:100AF0005468697320697320612070726574747919
:100B0000206C6F6E6720737472696E672C20697336
:100B10006E277420697421004F414420444C2043C7
:100B20006F6D706C6574652C207761697420666FD9
:100B30007220656E61626C650000000047415020C4
:100B4000697320737461727465642E204F7572200E
:100B5000616464726573733A201B5B33326D257375
:100B60001B5B306D000000004E616D6520696E20DA
:100B700061647644617461312061727261793A20F6
:100B80001B5B33336D25731B5B306D004C696E6BE3
:100B90002065737461626C697368206576656E7434
:100BA0002C20737461747573203078253032782E60
:100BB000204E756D20436F6E6E733A2025640000E1
:100BC000436F6E6E65637465642E20506565722098
:100BD000616464726573733A201B5B33326D2573F5
:100BE0001B5B306D00000000504859204368616E67
:100BF0006765206661696C7572652C207065657229
:100C000020646F6573206E6F7420737570706F72DF
:100C10007420746869730000416476205365742001
:100C200025642064697361626C6564206166746523
:100C30007220636F6E6E202564000000426F6E6448
:100C40004D677220526571756573746564207061BB
:100C50007373636F64652E2057652061726520256C
:100C6000732070617373636F646520253036640090
:100C7000436F6E6E656374696F6E206576656E7422
:100C800020646F6E6520666F7220636F6E6E4861C0
:100C90006E646C653A202564000000005570646144
:100CA00074656420706172616D7320666F722025B7
:100CB000732C20696E74657276616C3A2025642EFF
:100CC0002564206D732C206C6174656E63793A2005
:100CD00025642C2074696D656F75743A2025642035
:100CE0006D73000056616C7565204368616E6765C1
:100CF000206D73673A204461746120536572766990
:100D000063652053747265616D3A20253032783AFC
:100D1000253032783A253032782E2E2E0000000011
:100D20004352432053746174757320696E76616C0D
:100D30006964617465642E205265626F6F74696EB8
:100D40006720696E746F2042494D2E004352432044
:100D5000496E76616C696461746520777269746547
:100D6000206661696C65642E20537461747573200C
:100D700030782578000000004C6566742062757438
:100D8000746F6E206E6F742068656C6420756E647D
:100D9000657220626F6F742C206E6F74207265769E
:100DA000657274696E6720746F20666163746F7218
:100DB000792E000052696768742B4C656674206256
:100DC0007574746F6E206E6F742068656C64207526
:100DD0006E64657220626F6F742C206E6F74206574
:100DE000726173696E672065787465726E616C20DC
:100DF000666C6173682E000052696768742B4C65DD
:100E0000667420627574746F6E2068656C6420610E
:100E1000667465722072657365742E00486F6C6429
:100E200020666F722035207365636F6E6473207463
:100E30006F2065726173652065787465726E616C90
:100E400020666C6173682E004E6F74652074686153
:100E50007420746869732077696C6C20616C736F9F
:100E60002072656D6F766520746865202266616307
:100E7000746F727920696D616765222E0000000031
:100E80005468657265206973206E6F77206E6F20DD
:100E9000666163746F727920696D61676520696E40
:100EA0002065787465726E616C20666C6173682071
:100EB000746F2072657665727420746F0000000094
:100EC000526573657420746865206465766963652E
:100ED00020746F206D616B6520746869732074687D
:100EE0006520666163746F727920696D6167650062
:100EF00052696768742B4C656674206E6F74206845
:100F0000656C6420666F722035207365636F6E6454
:100F1000732C20636F6E74696E75696E6720626FE3
:100F20006F742E00486F6C6420666F7220352073DA
:100F300065636F6E647320746F20696E76616C698F
:100F40006461746520696D61676520616E642072FB
:100F500065626F6F740000004C656674206E6F747C
:100F60002068656C6420666F722035207365636F3E
:100F70006E64732C20636F6E74696E75696E672082
:100F8000626F6F742E00000028434229204C4544B4
:100F9000205376632043686172616374657269737C
:100FA0007469632076616C7565206368616E67653E
:100FB0003A20706172616D4944282564292E2053BE
:100FC000656E64696E67206D736720746F20617051
:100FD000702E00002843422920446174612053761A
:100FE00063204368617261637465726973746963D5
:100FF0002076616C7565206368616E67653A207064
:101000006172616D4944282564292E2053656E6400
:10101000696E67206D736720746F206170702E0099
:101020002843422920427574746F6E2053766320E2
:101030004368617220636F6E666967206368616EE2
:10104000676520706172616D4944282564292E20EE
:1010500053656E64696E67206D736720746F2061DD
:1010600070702E0028434229204461746120537619
:1010700063204368617220636F6E666967206368EE
:10108000616E676520706172616D4944282564292D
:101090002E2053656E64696E67206D736720746FD0
:1010A000206170702E0000004F70656E696E6720C1
:1010B00065787465726E616C20666C617368206619
:1010C0006F72206D6173732065726173650000003B
:1010D000457874466C61736820726567696F6E420B
:1010E0006173653A20307825782C20726567696FC6
:1010F0006E53697A653A20307825782C20736563C1
:10110000746F7253697A653A203078257800000050
:101110004F4144206661696C656420746F206F7074
:10112000656E000052656769737465726564204F6F
:101130004144205365727669636500004F41442045
:10114000496D616765207625730000004F4144209A
:101150004572726F723A202564000000446576691A
:10116000636520446973636F6E6E656374656421A3
:10117000000000004E756D20436F6E6E733A20259F
:1011800064000000557064617465204661696C6597
:1011900064203078253032783A2025730000000032
:1011A000436F6E74696E75696E6720626F6F74004D
:1011B0004C65667420627574746F6E2068656C642B
:1011C0002061667465722072657365742E0000007C
:1011D000E0500020E3500020E2500020E4500020C6
:1011E000E1500020D0230000684E0020302B00206A
:1011F000D7500020D8500020B42B0020B52B002061
:101200004EB100008AB10000765B0100960B010030
:101210008EB10000AB4602000FBE0100B7460200CF
:1012200061CD010025310100953C0100BDBE0100EA
:1012300015370100B5E0010035310100274C0100F0
:10124000594C0100595B0100EDCA01009D3A0100B3
:101250005514020029140200C37E0100CF7A010058
:10126000DD57010079BE0100B5B00100F11A02009E
:10127000E1CB01007D5A01006D800100ED3E0200CE
:101280002941020091C10100EDB00100D1AF010080
:1012900049BE0100E94A0100E9360100D56A0210A1
:1012A0002D920110A1F101104D0A0210495E0210A9
:1012B00039ED010049AA0110D52A021075D4011098
:1012C00045ED0100794B0110154B02100515021078
:1012D0001BB30100217A0110514D0210F5E20110FB
:1012E000CD030200010A021051ED0100A5230210F6
:1012F00081CF011045FB0110994B0210955102104E
:10130000C53702109137021001040200A10E02102D
:101310002D380210796E0210816E0210756E021067
:101320005D4502107D6E02102553021061590210B6
:10133000AD520210FD520210D5520210895E021009
:1013400019550110A5D601100D4B0100756D021045
:101350002D690210493F021099C50110DD4B0100B3
:10136000E54B0100410402000D4B01000D4B010053
:10137000E14B0100ADFA0100D9CA0110ED260210BF
:1013800021A1011025F8010005550210E13E0210CF
:10139000D96D011061500110F11702100D4B0100C1
:1013A000ED7F0110756602106DF701007D4D021092
:1013B0000D4B01000D4B0100A104020059E3011087
:1013C000659A011065A70110D9AA011039BF011053
:1013D00011F30110515C0110155A02100D4B010060
:1013E0000D4B010005560110156B02108DBB01005D
:1013F000DD540210056B0210AD460210FD470210CD
:101400003D2D0210F159021065270210CD47021040
:10141000310F0210E5400200E9DA0110D543020065
:10142000F9F5010069B60110E9C90110B5F2011022
:10143000790F0210295F0210418A011085EC01101A
:101440002D5401102927021075F20100C9BF0100B7
:101450000D4B01000D4B01000D4B010095040210D6
:10146000D131011045ED011055F501000D4B010082
:101470000D4B01000D4B0100D53C0110B55402107D
:101480008DF6010061CA0110B5D501007DD50100BE
:101490003DD60100B9D60100E5D50100ED66021088
:1014A00055690210A15B021005BE0100813C0100DC
:1014B0003D2F0210696002102D4E0210956E021031
:1014C000996E02105D5A02103DFB0100E52D0210DD
:1014D0000D4B01000D4B01000D4B0100A96E0210D8
:1014E000ED8A0110AD6E0210A56E02100D4B0100C9
:1014F0000D4B01000D4B01005D480210395A0210DE
:10150000B16E0210014E0210E9FC011045F101100C
:10151000A55A0210AD170210A16E02108DA801107D
:10152000256B02108D6602109D6E0210F5FA010007
:10153000815A0210E56B021081A30110555502106B
:10154000A127021059510110B9110210F5550210CE
:101550000112021039D20110DD4E0210BD620210DC
:10156000DD490210459C0110EDF70110594B0100B7
:10157000616C0210F9C10100656E0210696E021003
:10158000DD4302106D6B01102D480210C10F0210D7
:10159000F9A70110EDF8010089DE0110696202105F
:1015A0007D430210511B0210BD180210C10C020035
:1015B000AD020200059B0110E110021015C60110DA
:1015C000914002001D6201104540020029440110B3
:1015D000B1E50110311A0200911902005DF9010014
:1015E000C13B0110418E011019690210E5EC011098
:1015F000752D0210D9F9010069FA0100559F0110FB
:10160000E50A0210752F0210B9CC0110B14E02107C
:10161000310B021055DB0110CDB401106DF3011038
:101620000D680210DD670210056702102911021013
:1016300019400210D11F0210AD2F0210854E02106A
:1016400075910100499F010061D801108D5A011068
:101650006D0A0200199401108D2E0210AD4902107E
:1016600089AC0110C55B0210DDD001105597010057
:10167000C1B90100719E01005D96010085620210F2
:10168000C95F02104196010029E001101515020002
:101690001928021079180210351802100DB3010034
:1016A000ED480210416902107D550210ED6D0210E7
:1016B000CD550210695F02107D1D01100D4B010018
:1016C000650702000D4B0100A5B801001D92010045
:1016D000F14B0100B9C00110D5C20100E53F021075
:1016E000A5960100B1A3010089420210E94B010057
:1016F00069910100E95F0210DD1402000D4B010049
:10170000856B0210A5ED01104DE50110810102105D
:10171000A95F0210DD27021021420210BD4802100D
:10172000E5040210656B0210AD640100F1170200C0
:101730001D49021055420210D56602102DE201101B
:10174000F94B0100A5660210511F0210CD190210BD
:1017500025930010F9AB01100D9A001025C201006D
:1017600029B30110A555021069F40100D5F101005B
:10177000F1080200654B0100ADBA0100C1A30100F0
:1017800051CB011095F7011005EE0110F1BC0100DD
:1017900021E401100D4B0100AD4302100D4B01007F
:1017A000117D0110C97D01100D0D02002D77011072
:1017B00055810110F54B010009A00100ED680110F1
:1017C00065AA010099D900102DF90010ED09020059
:1017D000B9BF01100D4B01001D3402100D4B01006B
:1017E000199A0100E9E40110C9CB0110557C0110E0
:1017F00091E00110F9E00110D11602003505021048
:1018000051D101100D4B0100C1EE01105110021019
:1018100085E4011041CC0110C1DF01109DB201101F
:101820007D850110F1B60110B13F021085960100CF
:10183000416E02101DC5011041B4011001190210C2
:10184000B5B3011021A9011029420200C9D001003D
:101850003907011069D001105D6602103D54021075
:10186000911E021045660210CD5902108D540210CF
:10187000952C0210655402106D420200516D021049
:10188000D54D021015540210D1200210A5310210BE
:10189000C56B0210C95E021069AB0110E95E02104F
:1018A000A93D0210396D0210855902102113021052
:1018B0007D5B021045290210DD46021085B1011042
:1018C00025170210DD6802104504021035D60110FC
:1018D000C5EB0110D56B0210A94D0210056902106D
:1018E000D5630110B99E0110113E0210B1260210FD
:1018F0005D2C02106D470210F56A021035F60110DA
:10190000A1C40110A5EA01105916021025C4011046
:1019100095670210F1680210691202007907011040
:10192000F9220110D192011015BA011051A2011033
:10193000DDF50110EDFB01101D840110A959021005
:101940004D620210ED5302103D4702109D16021029
:10195000E1160210DD3D021065EB0110111E0210B0
:1019600075930110FD650210511E0210F91202005C
:101970006913021059F20110595B0210990A021002
:1019800031470110355B0210156602103148011015
:10199000793E0210F5CF011011DA01103D670110F8
:1019A000453E0210E9A20110DD31021005EB0110E5
:1019B0002D66021065670210A56B0210196E0210E9
:1019C000B9630210E169021019610210596E021028
:1019D000556A0210456A02105D6E0210556E0210C3
:1019E000F5D70110E9330210E95C0210111A021058
:1019F00045510210C95C0210E16002104D21021035
:101A0000511A0210695C0210610C02104D43021061
:101A10004D33021019330210496002107D64021028
:101A2000CD690210ED5A021025060210AD570210C2
:101A3000C1DB01101D430210115B0210F5130210EF
:101A4000295D0210AD640210ED5002101532021033
:101A5000E5320210A95C02107D320210ED42021044
:101A6000D11A0210BD420210911A021089210210EF
:101A7000B1320210895C021049320210316C02103E
:101A8000256C0210F529021065EE0110C5600210E8
:101A900009440200111B02105D3702106DB00110E5
:101AA000295E0210C90D021005D40110BD8201107B
:101AB000819D0110F9C801103D590210C161021049
:101AC00055650210C5CE010055D0010081420200CB
:101AD00085980110A5030210D1580210990C01102D
:101AE0003D4402109D440210DD6102109DFA011078
:101AF000F5360210D9A50110E1B501106D6E021086
:101B0000716E021059360210252D0110F5030210D6
:101B10008D36021019430200B9BD0110657901101C
:101B20006D650210A74302003B430200216D0210C5
:101B3000156D0210F9610210E94A02102599011091
:101B400029370210F5580210F50F01101562021026
:101B5000E95D02108565021019590210095E021034
:101B6000A56102101134011045A501100DB9011035
:101B700039D90110A545020051DD0110B1C2011093
:101B80009D720110958901108DF0011055AF011063
:101B900085F50110C114021069090210CDD8011099
:101BA00089A0011085080210D10802101D09021039
:101BB000253602103DA601101DD40100CDD3010031
:101BC000D1A60110E5650210CD4402109D650210FA
:101BD0000D6D011075CE010071C90110111C0110AD
:101BE0006566011065580100998D011009CF01004B
:101BF00025D1010049240110F18C01109DD2010072
:101C00000DD301002D3F0200C5990110911B021058
:101C1000ADFD0100F11B0100316E021021BD01106C
:101C2000D11B02106D610210C56A0210B9C101100A
:101C300005E8011025E9011039140210ED340210F5
:101C4000D957011035410200610E0200F10F020068
:101C5000111D0210094502007144020095E90100BE
:101C60009D6C0210A96C0210396E0210496E0210B0
:101C70002135021025F40110A1BB0110B50202109C
:101C8000895D0210D5710110654A0210390D0210EC
:101C90007D38011095D3011089910110DD020200F9
:101CA0003D220210C16C0210CD6C0210050302101F
:101CB0005507021021BC0110BD0602101D4C010089
:101CC000394A02102143011099CE011065E8011034
:101CD000AD580210A5E70110756A0210956A02104E
:101CE000856A0210A56A0210F56402108935021097
:101CF00051440200DD0D0200A1BC0110A107021039
:101D0000054C0100B1640110094C01000D410110A6
:101D1000DD8601100140011005C801104D40021080
:101D200085D70110A51B0200E52B01109DF80110BD
:101D3000097101101D670210F5620210812902105D
:101D4000D962021069690210B54002108140021088
:101D5000150C021079480110A5140110754C0110E2
:101D600035090110592E0110714D011089FF011024
:101D7000256802107D69021045190210354F0210C6
:101D80008500021089C701108D870110351B0200E4
:101D90001D300210458C0110194C01005530021005
:101DA000619501104556021011200210C90B021056
:101DB0001DBB011011630210E94002102D630210D7
:101DC000FD30021049630210F1320110F15E011082
:101DD00061E10110A56D021009F700108D300210AD
:101DE000C5300210094F0210CD280210D50502108F
:101DF000DDE6011029600210912802105120021026
:101E00003100021049360110911202106D4E01107E
:101E1000A9CD0110D900021041E70110D91202101A
:101E200021CE011019A4011001B801100D4C0100C0
:101E3000A52A0110ED1B020045F80110B94F021050
:101E400011500210E54F021085410210614F02103F
:101E50009550021035670210092902108D4F0210AB
:101E600081630210098201109D6302103557021030
:101E700069500210BD5602103D500210E556021086
:101E8000A5690210B94102106D560210C95A02101C
:101E9000C3CB0100353102101D56021095560210B9
:101EA000C15801105D5702100D570210C9F30110FF
:101EB000151C02003D1C0200ADD20110E52F0210DE
:101EC0000D4B0100E5FD011021D301104912021054
:101ED00079E6011039FE011039C101100DC701105A
:101EE00045FB0010154C0100B1F2001061600110BB
:101EF000114C0100996D02107D0B0210115E011052
:101F000085E9011061100200810D02103D88011069
:101F10002D2A0210B91002008D65011069DC001035
:101F200089110200914A021031F00110A95D0210DE
:101F3000652901105535021001220210694F011068
:101F4000B934021065020210695D0210644000207D
:101F500087D301007C400020DEE901002041002001
:101F6000DFE90100000002400929FF00484100208C
:101F7000641F0000684100206A0A0200A0220020BD
:101F80008841002004420020FFFFFFFF0080040082
:101F900000400000000000000000100000100000E1
:101FA000804200204000000000000000000000000F
:101FB00000093D00140000006400000074250000CA
:101FC000D25000208C1F00009C250000C042002041
:101FD000941F000000000000633B0000BF6F000082
:101FE0000101000000000000FF00000000000000F0
:101FF000000000000000004017FF0000000000008B
:102000000400FFFF0800000010000000401800203E
:1020100030180020401A0020301A00200A0000006A
:10202000090000000C0000000B00000009080AFF76
:102030000A000000C4250000CC420020F41F00006C
:10204000FF0000000000000080A90300CC43002036
:10205000402000000010004015000000FF000000BC
:10206000C045002020000000E045002020000000C6
:10207000000000000200000003000000FF0000005C
:10208000FF000000201800201018002004000000AD
:102090000200000005000000100000000F0000001A
:1020A0001100000012000000000200005044002057
:1020B000542000004400010022000100B024002050
:1020C00020000000696E746E756D3A2025642069E9
:1020D00073206F7574206F662072616E67652028AB
:1020E0004877692E633A33383929000048776920E8
:1020F000616C726561647920646566696E65643AD5
:1021000020696E74722320256420284877692E6325
:102110003A3339372900000068617264776172656B
:1021200020657863657074696F6E206964203D2056
:1021300025642C207063203D2030782530387820AD
:10214000284877692E633A31313034290000000085
:102150006E6F204953522C206964203D2025642C49
:10216000207063203D20307825303878202848774B
:10217000692E633A31313037290000000A0000002F
:10218000000000000000000000000000010000004E
:10219000000000000002000000000000000000003D
:1021A000010000007461736B20307825782073740F
:1021B00061636B206F766572666C6F77202854615F
:1021C000736B2E633A343736290000007461736BE9
:1021D000203078257820737461636B206F76657288
:1021E000666C6F7720285461736B2E633A343831F4
:1021F000290000007461736B203078257820737497
:1022000061636B206572726F722C205350203D20E9
:102210003078257820285461736B2E633A3438382F
:10222000290000007461736B203078257820737466
:1022300061636B206572726F722C205350203D20B9
:102240003078257820285461736B2E633A34393402
:10225000290000006F7574206F66206D656D6F72C8
:10226000793A20686561703D307825782C20736953
:102270007A653D257520284D656D6F72792E633A1C
:1022800037382900286E756C6C2900001B5B3331D0
:102290003B316D4552524F523A201B5B33303B313C
:1022A0006D2825733A256429201B5B306D000000E2
:1022B0001B5B33333B316D5741524E494E473A20F9
:1022C0001B5B33303B316D2825733A256429201B75
:1022D0005B306D001B5B33323B316D494E464F3AEC
:1022E000201B5B33303B316D2825733A2564292050
:1022F0001B5B306D0000000096C298D84539A1F4F0
:10230000A033EB2D817D0377F240A463E5E6BCF8B2
:1023100047422CE1F2D1176BF551BF376840B6CB7D
:10232000CE5E316B5733CE2B169E0F7C4AEBE78E79
:102330009B7F1AFEE242E34FFFFFFFFFFFFFFFFF1D
:10234000FFFFFFFF00000000000000000000000091
:1023500001000000FFFFFFFFFCFFFFFFFFFFFFFF8B
:10236000FFFFFFFF00000000000000000000000071
:1023700001000000FFFFFFFF4B60D2273E3CCE3B39
:10238000F6B053CCB0061D65BC86987655BDEBB350
:10239000E7933AAAD835C65A512563FCC2CAB9F3A5
:1023A000849E17A7ADFAE6BCFFFFFFFFFFFFFFFF0C
:1023B00000000000FFFFFFFF00616200B823000083
:1023C000010000000000D002EC0000215F000000CE
:1023D0000000000000000000C8230000C42300002B
:1023E000000000004A7C00006E7C0000067E0000B9
:1023F000B68700008E8C00009E3502009F350200DB
:10240000CC230000829600005A9700001C27002071
:10241000020000003AA40000000000005B3F020040
:10242000000000008E0000008E0001008E000200FF
:102430008E0003008F0000018F0000028F00000358
:102440008E0001048E0000058E0008048E0000043A
:1024500089000006500000007F0001003F000400DA
:102460003F0002003F0001007F0002008E000204D6
:102470008E0001028E000101020000000000000039
:10248000FFFFFFFF00000000000000000000000050
:10249000000000000000000000000000010000003B
:1024A00000C2010003000000000000000200000064
:1024B0003A9A000039410200810002000000000049
:1024C0000C0802170D010102090901010602091891
:1024D00018030101090903030503020100000000BC
:1024E00000000000FFFFFFFF0000000000000000F0
:1024F00000000000000000000000000000000000DC
:1025000000000000FFFFFFFF0000000000000000CF
:1025100000000000000000000000000000000000BB
:1025200000000000FFFFFFFF0000000000000000AF
:10253000000000000000000000000000000000009B
:1025400000000000FFFFFFFF00000000000000008F
:102550000000000000000000000000003D17020025
:10256000FF00000000000000F1180200FF00000062
:1025700000000000991C0200A11C0200A71C020020
:10258000D31C0200EB1C02002D1D02003F1D0200A7
:10259000A91D0200E71D0200EF1D0200012002003C
:1025A0008F20020005210200312102004321020098
:1025B000792102008D210200AB220200EF220200ED
:1025C000F922020061280200D7280200A32B020092
:1025D000AD2B0200972D020085300200F54300214B
:1025E000794000219540002169440021A544002143
:1025F000C5400021D1400021DD400021F9400021EB
:102600004F45002141410021DB0705D000F003F8D0
:102610000249087070BD70B5014D2847E0040021E3
:102620001D240200074C657900F009F861796940C2
:10263000490703D50121044A8903116070BD70B5B3
:102640000249084780030021081104402D59000069
:1026500070B5004700F016FA00480047577F0000A9
:1026600000F016FA004800471B8800000599880A08
:10267000802805D1134988788007800F00F020FA60
:1026800000480047D96E00000FB40F48C1880029E8
:1026900002D0104600F014FA079B9B0A084D832BCA
:1026A00008D1084C23899B0604D500F005F80028C2
:1026B00000D042350FBC284770B5044800470000E1
:1026C0001F0B02006001002180030021EB090200C2
:1026D0000848094A03689A420AD108480289084B07
:1026E000D21A01D0012A03D1406E064988470399C6
:1026F000054B1847A8020021BD030200600100211C
:1027000021180000F1350000BD06000070B51F4D16
:102710002878C4B21E4880472878032834D1032C77
:1027200032D01C488068400DC2071A48014660310B
:102730008030002A03D01F240C57458802E01E2455
:102740000C570588002C1FD01348154A41690079A1
:102750004143481011494969401810494039497F9F
:10276000904740054015694288420DDBA8420BDCCA
:102770000C4B996988B20246090C62430904521253
:10278000801880B20843986170BD0000E402002107
:10279000794100002800002180030021000300216E
:1027A000CB8100004040044010B5864C21464031AA
:1027B000087D012834D18448C07D4008C0072FD04F
:1027C0002046603042795208D20729D04089800BD8
:1027D000012825D1087E4109C9070CD0A16F000747
:1027E0000988C00F4002090408436066A06F801C7E
:1027F00000F080F913E074482030806940680028B8
:102800000ED0724A00230178D356591A08D4C90051
:1028100008184178C90703D0016861664068A0665E
:102820006B48804710BDF8B5664C6A49264620368D
:10283000707B2546403500902F79B800401880689D
:102840008047002828D16049C97D0909C90723D0DC
:1028500022466432152F20D0297E00234F09FF071E
:1028600003D06D7D002D00D00123009FA56FBB43D9
:1028700012D0737B002B0FD0237D5B060CD5D28842
:10288000920B012A08D1C908C90705D0A988890B6C
:10289000012901D100217173F8BDAB7EE97D012BC7
:1028A000E3D00023E1E770B5464C2546606A8035E9
:1028B00000281DD15420005D0022002817D064207C
:1028C000005D8008C00712D0A9688888800B0128A5
:1028D0000DD13D48C07D4008C00708D03A4820309F
:1028E00080690068002802D02962A86000E02A629E
:1028F00039488047616A002903D1296A002900D03C
:10290000A96070BDF8B52F4C344920464030027D97
:10291000002A2FD0807E25468035032802D0042847
:1029200003D027E00120E87524E06420005D8008E2
:10293000C0071FD0A8688088800B01281AD12248C0
:10294000EA7DC07D002A13D0C008C00712D02646F9
:102950002036777B88470146394308D1217D090617
:1029600005D56988890B012901D100217173F8BD52
:102970008008EAE78847F8BD124880300021C17519
:10298000174800470F4940310871262814D006DC4B
:10299000152813D01B280BD01F2804D10AE03D288E
:1029A0000ED047280AD00B49800040188068704735
:1029B0000C4870470C4870470C4870470C487047EB
:1029C0000C48704760010021C8000021E00400218C
:1029D00059490200005502008F3D02007530020087
:1029E000152A0200E9430021754300211743002105
:1029F000974200211942002110B50C4988470C4A22
:102A00000621515E002907D0022905D0092903D0EB
:102A1000102901D0112907D17721C943884201DD4E
:102A2000002801DD7F20C04310BD0000A965000023
:102A30008003002110B51048C1881048052918D01E
:102A40000F4C21684A0852002260A26B52085200C3
:102A5000A2632160FFF7FCFDA06B000708D40120F2
:102A6000206060600020401C0C28FCDB14202062E9
:102A700010BDFFF7EDFD10BD800300213F5B00009E
:102A800000600440806B0C490007000F48717047DC
:102A9000094A0A4918235079CB56497EC018814209
:102AA00001DD084602E00F2800DD0F20D189090969
:102AB00009010143D1817047E00200218800002113
:102AC0000849C979CA08D20708D0C1400648C907D1
:102AD00001D0064900E00649491CC160704700204A
:102AE00070470000E8000021280000218801000054
:102AF00050010000820881079200C90E0CCAC078FC
:102B0000CA40494220318B401A431102090A00068B
:102B1000084370470149086070470000FC1B002013
:102B200081B001208DF800009DF800000028FBD145
:102B300001B0704770470A18DFF800F0E56A02102C
:102B40002DE9FC41040000F0BB802668F0788DF888
:102B50000000684631798DF80110FFF7EDFFB0688D
:102B600008B159490160F06808B158490160584FEF
:102B70003078584A387007F13C05717879701088C0
:102B8000554908807079287006F13000B179697074
:102B900007F15C0102780A724078504A48726A6113
:102BA000A0680278FA70A06890F820200A70A068E7
:102BB00042687A608368BB60C268FA6003693B61FF
:102BC000C269EA618369AB610023426A4A60CB60F3
:102BD0004069007900EB400000F0C6FB804606200B
:102BE00000F0C2FBB8F1000F18BF002824D000216C
:102BF0003B4A0FE001EB810C01EB410312F80CE0C2
:102C000008F803E0434402EB0C0E491CDEF801C057
:102C1000A3F801C0A368D3F814C09CF8043099420B
:102C2000E8DBC0F80080A1684A6911790171A268E7
:102C300051694A794271786160680168B9613269A5
:102C4000FA6271693963B2697A63F169B963326AA8
:102C50006A60806810B9C046C04600E038626068AB
:102C6000C06810B9C046C04600E07862606800697C
:102C700010B9C046C04600E0B8626068406810B94C
:102C8000C046C04600E0F8613069F862716AA96028
:102C9000B06AE860F16A29610121E0688268106821
:102CA00000F0FCFDE068C06810B9C046C04601E015
:102CB0000C490860E0684168006800F0FDFD01E033
:102CC000C046C046BDE8F381A53E0200DB3E0200DF
:102CD0001C270020842B0020862B00206C23002042
:102CE0001C23002084340020EFF31180DFF8181A31
:102CF0000A6882F31188704780B5FFF7F5FFADF8D9
:102D0000020002F05DFEADF80000009802BD01B5C2
:102D1000BDF8000002F057FEBDF8020080F31188F4
:102D200001BD38B5DFF8684A207801282DD0DFF8DA
:102D3000DC09DFF8602A80088000121AA2610121F4
:102D40002170024602E0002342F8043BA3691D18EB
:102D5000AA42F8D39B0800EB8302002142F8041C2E
:102D6000E8230360A16989088900EC39C0F8E810FC
:102D7000606100F1E801A160002000F007F8E06068
:102D8000A1696069A060091F216131BDF8B5002605
:102D90000027051D854201D20020F2BD15F0030079
:102DA0001CBF2D1D2D1AFFF7A7FF0146DFF8E029F4
:102DB000112D34BF9468D4682068002803D580F0B2
:102DC000004000271AE03B0014D0D6F800C023686A
:102DD0006344AB42336011D334461846ECB1401B18
:102DE000042811D3605145F00040206013695D1B39
:102DF000156111E0A842F1D201272646044420685B
:102E00000028DAD1002408E0136920681B1A136136
:102E1000256845F000452560241D516000F03AFC0E
:102E20002046F2BD10B50446FFF766FF54F8042CA7
:102E3000DFF85C1922F0004244F8042C0B69D21828
:102E40000A61221F8B689A4238BF8A604860BDE8D9
:102E500010405CE72DE9F041FFF74EFFDFF8302925
:102E6000D368002400250026002709E00E4601252E
:102E70001C4604E011D581F00041002547460B4473
:102E80001968B046BE4238BFB8460029F2D150603A
:102E9000FFF73DFF4046BDE8F081002DE6D0D4F8B5
:102EA00000C08C44C4F800C08E19E8E710B5044691
:102EB000DFF8DC088169216000696060FFF7CAFF04
:102EC00009282CBF08380020A06010BDDFF8C038EA
:102ED0001969091A40F22D12914228BFFFF756BF17
:102EE0000020704780B5FFF71CFF4BF6BE2002BDE7
:102EF00008464BE7084695E702B56846FFF7D6FF58
:102F000001BD0120704770B50446FFF7F5FE0022B1
:102F1000DFF830591601A95949B18C4203D0521C2F
:102F2000032AF7D303E0FFF7F2FEA81970BD21E0F2
:102F300070B50646FFF7E0FE04460021DFF80409FD
:102F400000EB0115286828B186420DD0491C0329E1
:102F5000F4D30EE00021A86029732E6002F0BEF9C0
:102F6000686008B903F0CCFA2046FFF7D0FE284687
:102F700070BD2046FFF7CBFE002070BD38B504467B
:102F8000FFF7BAFE0025DFF8C0280C216943515A2B
:102F900039B18C4203D06D1C062DF6D301E000F050
:102FA0009CBBFFF7B4FEFF2032BD10B5044620885D
:102FB000FFF7E4FFFF2802D14FF0FF3010BD0C21D6
:102FC000DFF8842848431044816811B96FF001008C
:102FD00010BD2046BDE81040084702460FF6B0007D
:102FE000104710B50020DFF85C1800230024020110
:102FF000401C8B500A4403289460F8D30020DFF86B
:10300000481800220C234343401CCA520628F9D317
:10301000BDE8104085E62DE9F04F89B005468846A9
:1030200002F040FE82460026DFF820980FF658078F
:1030300003E05846FFF76BFE761C46451ED26846F5
:1030400003F0B6F805EB0611486803908868059010
:1030500048460A6801920022C968029100976946B1
:1030600003F0C4F8040007D0FFF746FE834620466D
:10307000FFF75EFF0028DCD103F042FA504602F071
:1030800013FE09B0BDE8F08FF8B568460521416030
:103090004FF480528260DFF8B817DFF8B82700914C
:1030A000C2600121FFF7B7FF05B000BD38B5054686
:1030B0000C46FFF721FE002144F80C1C2A6812B9C7
:1030C0002C6006E00A4652F80C1C0029FAD142F89E
:1030D0000C4CBDE832401AE680B502F011FEFFF755
:1030E00012FF10B96FF0040002BD816809B9022017
:1030F00002BD00F0BDFB002002BD06280ADA0C224A
:10310000DFF844375043185A00281CBF4FF6F872B6
:10311000904202D14FF0FF30704708800020704786
:1031200030B5DFF834572A680C464FF47A71A1FBAA
:103130000001002303F00AFA002902D8B0F1004F81
:1031400002D36FF0020030BD2060002030BD014688
:10315000886849680847F8B505460E4602F0D0FD74
:10316000FFF7E6FE04001BD0FFF7C6FD0146002274
:103170000C27DFF8D43657433B44188818B1521C4B
:10318000062AF5D30CE04FF6F870002718805C6033
:103190009F602A706068306000F07CFA0020F2BD09
:1031A00003F0AEF900BF0C383CE670B50446154696
:1031B0001E460846FFF7E2FE0146FF2902D14FF006
:1031C000FF3070BD33462A462046BDE87040CFE050
:1031D0007CB50546164600F0E6F8040010D12888B4
:1031E0006946C0B2FFF789FF28B13068FFF7DBFFFF
:1031F0006FF0050076BDBDF800002880FFF76CFF7A
:10320000204676BD38B586B0044602F079FDFFF75A
:103210007AFE054600F0B4FF002818BF012800D050
:1032200015B96FF0040027E054B900200090287B06
:1032300020B314F1010F10D1686800F08CFF26E074
:1032400014F1010F08BF4FF0FF30EFD06946204660
:10325000FFF766FF0028EAD00EE01022002102A846
:1032600003F08CFA0146204600F0D2FA686802A901
:1032700000F057FF58B1012007B030BD009B6868CF
:103280004FF00042002101F08AFF0028F3D0002017
:10329000F2E780B54FF0004101F0E5FF002002BDEC
:1032A0002DE9F84F382880468A4617461D466FF0AC
:1032B00002092CD102F024FD0646FFF71DFD8346CE
:1032C0000021DFF8800500EB0114206828B1864258
:1032D00019D0491C0329F4D311E02660A060012114
:1032E00021731C20FFF752FD606018B903F008F944
:1032F000BDE8F28F0022002100F002FF03E05846F3
:10330000FFF705FD09E05846FFF701FD04E002F074
:10331000F7FCFFF70DFE04460CB94846E8E7FFF757
:10332000EBFC01460022DFF820350C2000FB02FCFC
:1033300003EB0C0EBEF8000028B1804512D0521CE1
:10334000062AF2D3D2E7AEF80080181D40F80C40F0
:10335000CEF808A03A70084662682A60FFF7D7FCEA
:103360000020C5E70846CBE710E55BE5AEE59DE547
:103370002DE9F84300F03DFABCBF0446062806DA02
:10338000FFF7BAFC00F03DFA19B9FFF7C0FC404660
:1033900007E0FFF7BCFC00F022FA786800F068FA5A
:1033A0000020BDE8F2832DE9F04106460F46904625
:1033B00002F0A6FCFFF7A7FD040008BF6FF00400B1
:1033C0001BD0FFF799FCA168002541B10D46A5F17E
:1033D0000C0100230A68A260FF240B608C72FFF7C7
:1033E00096FC0DB9022008E0A5F10C0001793170BE
:1033F00040793870C8F800500020BDE8F08182B0F4
:1034000001208DF800009DF800000028FBD103F09A
:1034100077F800BF01F042BD30B5DFF83C542C68AE
:103420006FF00040A0FB04014FF47A72002303F018
:103430008DF8002902D8B0F1004F01D36FF00040A1
:1034400030BD7CB50C4615461E466946FFF768FE42
:1034500030B9009833462A46214600F002F8002091
:1034600076BD2DE9FE431D4680462C680E46174664
:1034700014BB0C20FFF78AFC04006FF0030915D081
:10348000684601F040FE00208DF800000190029493
:1034900000236A464146DFF8C40301F045FE206080
:1034A00030B9FFF7ACFF2046FFF7BCFC484617E0F9
:1034B0006660A7602C600BE0DFF8A463306880478B
:1034C0000546206801F003FEA7602846716888471A
:1034D000206841468160C046206801F0F0FD002070
:1034E000BDE8FE8300281CBF006801F0F0BD7047F6
:1034F000E0B58DF80400684603F076F99DF8050004
:103500000EBDE0B50190684603F0A4F90EBDE0B52C
:103510000190684603F0A8F90EBD2DE9F04788B088
:103520000746894615461E4602F0EAFBFFF7EBFC0C
:10353000002102910191044600F022FE002818BFEC
:10354000012800D014B96FF0040090E0BFB900204A
:10355000019001F0A3FC01460198DDF8408000EBEA
:10356000010A217B002932D01022002104A803F097
:1035700005F90146384600F04BF9274613E017F1EC
:10358000010F08BF4FF0FF30E2D001A93846FFF726
:10359000C7FD0028DDD06AE0039902A8FFF786FD89
:1035A000786800F0B9FD786804A900F0BAFD01243C
:1035B000002847D100F069F80400F4D100F060F869
:1035C0000028E9D100F056F80028E5D02FE0274682
:1035D000012418E0039902A8FFF768FD78684FF00E
:1035E000005101F040FE0198012410F1010F18BFB5
:1035F000002808D001F052FCBAEB000022D001995B
:1036000081421FD30190019B78684FF00052002146
:1036100001F0C5FDB0B100F038F80400E3D100F0CE
:103620002FF80028D6D100F025F80028D2D015B107
:10363000BDF80200288016B19DF800003070039993
:10364000C8F80010FFF748FD029DFFF755FB014643
:1036500055B12A4600E0024652F80C0C0028FAD177
:10366000B86842F80C0CBD6000F014F8204608B0B1
:10367000BDE8F087039A9DF80010BDF802004847A6
:103680009DF801000DF1020137E503AA69460DF12D
:10369000010088E60846FFF73ABB38B502F030FB78
:1036A000044600F06DFD002818BF012813D0FFF775
:1036B00023FB0025644A0C236B43D15A49B1D1182E
:1036C00049680B68A34203D06D1C062DF3D300E0BC
:1036D00003E0FFF71CFBFF2032BDFFF718FBE8B249
:1036E00032BDE0B5ADF800008DF8061000205D4A4F
:1036F0001168ADF802006846884710B99DF80700C8
:103700000EBDFF200EBD0000C0200000FB550020B4
:103710001078422801D101207047002070470CB476
:1037200078B504460E4687B000F02AFD0CAD00289F
:1037300014BF0128FFF763FE14200021FF22ADF81B
:10374000100002918DF8122006960595FFF7A5FF4F
:1037500005AB03222146FFF728FD002001A90190B7
:10376000009100230022404941F28830FFF7D5FE46
:10377000012805D020B9019820B1FFF714FD01E020
:10378000FFF73DFE0598006808B070BC5DF80CFBC3
:10379000003F0020FF3301202DE9F84300F029F815
:1037A000BCBF0446062806DAFFF7A6FA00F029F89F
:1037B00019B9FFF7ACFA40460FE0FFF7A8FA00F09E
:1037C0000EF879684868097B11B100F0A5FC03E0A8
:1037D0004FF0005101F047FD0020BDE8F283A9F150
:1037E0000800047045708670494678680830FFF715
:1037F0005DBC0D462F46164699466FF00208062F0F
:1038000070470C22104B12FB07F7DF1979687047DD
:10381000F8B504460D46012000F02EFAD5E9006700
:103820004FF47A72B4FBF2F0002136184F41C5E92B
:103830000067AB6802FB10440C4800FB0434AC602A
:10384000F1BD0000883E0020B83E0020DB2F0000C4
:1038500041D501009C1F00207C2100004F31000059
:10386000181F0020201F00201137000040420F00C9
:103870004268007B00281CBF104600F04DBC4FF092
:103880000041104601F0EFBC6963616C6C00000000
:10389000AB2F0000F92C00000F2D0000020008BF24
:1038A0000248034A11700349086070473F770100DE
:1038B000B02B002018270020024A10600248016047
:1038C000704700BF984C00209C4C0020EFF3118003
:1038D000202102E0EFF31180002181F3118870476D
:1038E00080F31188704710B500F010FF01F0FFF869
:1038F00000F016F8DFF8D44504F10800A06602F0E5
:10390000D7FC01F09DFA02F049F802F083F901F0CA
:1039100009FD00F031FEFFF7E5FA0120207010BD2F
:1039200010B5DFF8AC4594F8080160B9012184F8BE
:10393000081101F069FA002104F59A7001F066FAA5
:10394000DFF81C16086010BDFEB5044613B901F07F
:10395000DCFB10E06D4600200026002785E8C10052
:103960009868029020461D788DF800505B6801939E
:103970006B4601F0CAFB2046FEBD01F0E5BB00F03E
:103980000FBC0A20704701F0A8BB007D70470021E2
:10399000816084E08160704701F091BB01F055BB0C
:1039A000401D0A21B0FBF1F002F02DBA00F030BF4B
:1039B000F8B51C0086B005460E46174603D1002315
:1039C00000F0F0FD0BE000F012F8206801906B466B
:1039D000606804903A4600F004F800F0E3FD07B098
:1039E000F0BD207A8DF808003146284670476846B9
:1039F000DFF8BC15182202F057BF00F003BE65E7E0
:103A000000F0C0BE00F0E0BEDFF8C40490F8F4108F
:103A100001F0D2BF10B5FFF759FF0446FFF760FF72
:103A2000601E8041C00F10BD00F044BF70B501F0B2
:103A30004FFB656026606EE100F02CBF0021016045
:103A40004FF0FF32012342600372704748E7FEB532
:103A50000446684600230025002680E86800012708
:103A60008DF800706A46204601F0ECFE2046FEBD4F
:103A70003EB5694600220023002481E81C00012590
:103A80008DF80050DFF8DC2401F0ECFE3EBD80B57F
:103A90000090684601F0FFFE01BD01F0F0BE01702C
:103AA0004160704780B501F02EFE00B953E0002060
:103AB00002BD01F08DBE002101604160C1604FF088
:103AC000FF318160704778B5140085B005460E4619
:103AD00003D1002201F0C3FF13E0A068062804D33D
:103AE00010F1010F18BF00200BD101F0D0F92068B0
:103AF00001906A4660680290314600F004F801F0D7
:103B0000AEFF06B070BDE0680490A0680390284640
:103B1000704702F049B800F095BF01F09BBFDFF895
:103B2000B00390F8F410012901D101207047002062
:103B3000704701F0F6BF01F0C9BF01F044BF06298C
:103B400002D311F1010F01D101F0F7BF704702F06C
:103B5000EFFE162101604FF0FF3002BD30BF70470D
:103B6000FCE738B502F0EEFE02F075FF02F094FFBC
:103B7000044604F00C000C2802D1AFF300803AE0B8
:103B800060071DD401F093F905460121012002F0E0
:103B90008DFF0A216943884212D2DFF86844183D3C
:103BA000656104F10C0001F08AFAAFF30080012096
:103BB00003F014F9AFF30080002084F820001EE029
:103BC000AFF30080200716D4DFF83C24DFF83C0474
:103BD0001368996888470428F6D0E10600D408B92C
:103BE000012000E0002002F018FFDFF8240401218A
:103BF0000160006801E0FFF7B3FFAFF30080BDE8AC
:103C0000314002F0A3BEDFF8C80290F8AC200121D9
:103C100080F8AC100123DFF820140A6090F814211A
:103C200080F814314A60704710B5DFF80C446068C2
:103C300001F0C9FE206801F0DFBE0000DFF8FC13D0
:103C4000C20744BF01230B60820744BF4FF4807357
:103C50000B60400744BF4FF480320A60704710B5D4
:103C6000DFF8DC23C30748BF1160840748BF5160F9
:103C7000400748BF916010BDFEB502280D460DD02B
:103C8000012804D002F054FE00F06EFAFEBD684632
:103C900000F0E1FA0198029A002137E0FFF716FEE2
:103CA000DFF8A0430646207878B100234FF0FF32BA
:103CB0000FF26D01201D01F0B8F94FF0FF30606187
:103CC000201D01F0CBF90020207000F031F80746EC
:103CD000E46A01F060FEDFF87C33DFF87C23B7FB99
:103CE000F3F603FB167702FB0477BC46BCFBF3F24A
:103CF00000270021B01879414AF2C57674430019B3
:103D000003FB12C3794142F210725A43C5E9000124
:103D1000AA600020FEBDBDE87040FFF7E1BD0000D5
:103D200010B5FFF7D3FD044600F002F802F044B8E6
:103D300080B501F0B3F8DFF80C138A6A904202D222
:103D4000CB6A5B1CCB62886202BD0CB42DE9F84FD4
:103D5000DFF87CA105469AF8F400002684B00C46F2
:103D600002280CBF4FF00108B0469AF8AC00DFF80B
:103D7000EC7201218AF8AC100090386838B90AF565
:103D8000A87B0021584600F03DFFC7F800B000981E
:103D900001F08AFFA1050EA803D546680EB90AF501
:103DA000BC76280000950AD003F070FA8346A0057F
:103DB0000AD571680129A4BFB068012804DA02F0AD
:103DC000B7FD1621016078E00020B8F1000F0190E6
:103DD00003D0386800F030FF8146009800F0D4F836
:103DE000050008D004F42060B0F5206F09D102F07E
:103DF0009FFD112159E0A00503D402F099FD022195
:103E000053E001AB0022082100F0E3F85FEA000A6A
:103E100048D045BB01AB0022242100F0DAF80500B0
:103E20003CD00120E8610BF1010BB168696101AB85
:103E3000706828610022594600F0CBF8286258B318
:103E4000009903F03FFA7168B06801AB002201F0FD
:103E5000D1FBA860D8B100216960786800B14560E5
:103E600028607D6002E0E869401CE861B8F1000F5D
:103E700003D03868494600F0F7FEA41304F00104AB
:103E8000CAF80050A403CAF80440504617E0296A53
:103E900011B15A4602F007FA00F0D6F8082251464E
:103EA00000F0D4F802F044FD0C21B8F1000F0160DD
:103EB00003D03868494600F0D7FE4FF0FF3005B018
:103EC000BDE8F00F5DF80CFB000000001834002086
:103ED0003024002070B500F017F804D202F028FD5D
:103EE0007A2101600EE04068420448BF0023A068C8
:103EF0001A4601F0D1FA08B1656903E002F018FD35
:103F00000B210160284670BD046866694FF0FF33DD
:103F1000B2421D46704738B500F01BF806D200F0DB
:103F200014F80FD102F004FD7A210AE000F01CF829
:103F300001F0DAFA38B900F008F803D102F0F8FC21
:103F40000B2101601DE0002032BD94F8F40002282E
:103F500070470368DFF820415D69954270470000B3
:103F600064470020D42500204068420403D494F81C
:103F7000F400022801D0002201E04FF0FF329868DF
:103F800070474FF0FF3032BD38B50546DFF8CC0042
:103F9000446800E024683CB1206A294603F09EF999
:103FA0000028F7D1204632BD002032BD00000000BD
:103FB000144B00000446DFF8440190F8AC50012196
:103FC00080F8AC1070476846DFF8A811242202F090
:103FD0006BBC002002F04EB910B5DFF89C1091F8D0
:103FE000AC00012281F8AC20DFF8B0110C680CB1F4
:103FF00022680A6001F058FE1CB12046BDE810405E
:1040000008E010BDEC270020D8010010004003405C
:104010002C20094010B5044604F1100001F02FFCDB
:10402000E06818B104F10C0002F00BF92146BDE87C
:104030001040502201F02DBB004600200420094012
:1040400018200940E025002024222946002002F003
:104050002AB90000A0860100E00601000846002001
:10406000204601F021BE0099204601F04CBB0446D9
:10407000002101F048BB0000302400202DE97F43DF
:104080000D461446AA68DFF88067B24203D269463B
:10409000FFF7F2FD10B14FF0FF302CE0D5E900231F
:1040A000DDE90001DDE90089101A63EB01014B45F0
:1040B0000ADB01DC424507D3AA68029B002908BF3E
:1040C000002803D1934201DB002212E0D21A44BF40
:1040D000B218401E02F2E7324FF47A7392FBF3F209
:1040E00009320A25DFF82417B2FBF5F201FB0022A2
:1040F000521C2260002004B0BDE8708330240020F0
:1041000080B51146B1F5803F01D3FFF720BD0022F5
:1041100001F098FB002002BD80B501F059FB0020A2
:1041200002BD38B50D46FFF7A2FF90B96A46294691
:104130000120FFF7A3FF18B102F0FAFB162105E0FA
:10414000FFF791FF28B902F0F3FB91210160FFF71F
:1041500018BF002032BD80B500F002F8002002BD7B
:104160004FF0FF3101F0CFBA162101604FF0FF3060
:104170007047000080210000DFF87C080178FDE72F
:10418000DFF87C0890F8F4007047DFF874280146E7
:1041900092F8F40082F8F4107047000010460020F6
:1041A000DFF85818D1E90023C0E900237047000068
:1041B00000BFDFF84C18D1F8FC000047DFF84028BA
:1041C000D2F800110847DFF8380890F814110122DE
:1041D00080F8142190F8AC1080F8AC200320D4E7CC
:1041E00010B504460320FFF7D0FF204602F079B84F
:1041F00080B5DFF804080178012901D0FFF7BCFF82
:10420000DFF8000802F05AF8FFF764FB002001F025
:10421000DAFBBDE8014001F015BD10B588B001A87A
:104220000FF238311C2202F03FFB022200218DF8F0
:1042300004200A248DF810100091039401ABDFF8DC
:10424000C827DFF8C80700F015F908B010BD01460F
:10425000DFF8B807F2E07FB501F052FA054668468C
:1042600000F025F8DFF8A817DFF89C6548682060A3
:10427000019B88680A681B1AD21862600298CB6892
:104280001B18B34203D3DFF88C07521CC318A3607A
:10429000626008698218626009688A4202D22068F6
:1042A000401C206001F05AF9002004B070BD1CB51C
:1042B0000446DFF8640701680A6B9047019100909B
:1042C00000220199616022600098DFF83C15000C23
:1042D0000090009AA1FB0201000C40EA0140A0609E
:1042E00013BD20B502460020D2E9102347F69061A5
:1042F00002F02CF90125A94228BF4FF0FF3020BD64
:1043000038B50C4602F01EFB050018BF0125DFF88A
:104310000C070068811D201AB0F1004F05D8081B5A
:10432000B0F1004F38BF8C4200D20C46214601202C
:10433000FFF795FCEDB20DB9FFF761BC31BD2DE97A
:10434000F84C05460C46D5E910ABD5E91267AAFB37
:1043500004010BFB041136184F41340C002244EACF
:1043600007412846FFF7CCFFC5E91467BDE8F18C8B
:1043700038B501F0C5F964690546B4F5802F34BF3E
:104380000424240CDFF89406006804190120FFF7C8
:1043900055FC21460120FFF762FCDFF888361C68D7
:1043A0002268232100209047DFF87C160120086056
:1043B00000F0ABBF0000DFF860160A68106B004722
:1043C00010B504460120FFF739FCA069E169BDE89A
:1043D000104008472DE9F04705460120FFF72EFC65
:1043E000D5E91601D5E91027002410EB02084F414A
:1043F0004FEA184040EA074AD5E914694FF0FF3008
:104400004FF6FF7108EA000207EA0103304009EAAB
:1044100001018B4202D82CBF824201242246514620
:104420002846FFF76DFFD5E91601C5E91401C5E976
:104430001687A869E969BDE8F0470847F8B504465A
:104440000D46FFF7B8FFD4E9106732463B4602F04D
:104450007DF83DB1A6FB002306FB013307FB0033CB
:10446000C4E91223F2BD80B5FFF730FAFFF738FA3E
:10447000002002BD2DE9F04387B005460F46904667
:104480001C46FFF723FADFF89865B16811B1FFF712
:1044900027FA2FE0B560FFF723FA0CB90FF2BC043E
:1044A000EF60C5F81C804FF480316068A86100227D
:1044B00069622A62C5E91222217BA06801290CD118
:1044C00068610021A06827786A690023022F07BF6E
:1044D00090469946984699460EE001460020DFF83E
:1044E000B023002302F032F8012291426861EAD33E
:1044F000C5E9100100202EE0C5E91489C5E91001C5
:10450000C5E9162301A8DFF82815182202F0CCF916
:10451000029501AB2078DFF81415009100280CBF3C
:10452000DFF81025DFF81025142105F1280000F030
:1045300057F804462846FFF796FF287C10B928460E
:10454000FFF716FF2CB12946304601F08CF82846BB
:1045500001E00020B06007B0BDE8F083000000007B
:1045600000000000E8030000000000000000000060
:10457000000000000000000038B5DFF8844404F1BA
:104580008405287F68B901212977FFF79FF9E16F3A
:104590002868C90800EBC1010839A1674FF0FF3155
:1045A000A16631BDF8B5DFF85874DFF89064D7F82C
:1045B0009CC004460D465CF82500B0420CD107F5BE
:1045C000D2700090204600F00BF840B1D7F89C0064
:1045D00050F82510B14201D10020F2BD2046F2BDB5
:1045E0001CB504460BB9DFF8483404980090204607
:1045F00000F00AF8010003D0204600F06EF8002415
:10460000204616BD002168E0F8B51746069DDFF884
:104610003024362904461E4603DB002300930B4654
:104620000EE0DFF8DC03E181D0F89C3053F8210084
:10463000DFF80834984209D000240B460094283251
:104640000021284601F006FE0120F2BD084600F0D8
:1046500099F8676070682060306910F1010F08BF39
:10466000FF2020730021307A00B10121307D08B194
:1046700041F00201A1602046294600F003F800B194
:10468000801CF2BD38B50446217AB4F90E008A07C1
:10469000054602D5217B202907D2616800F0C7F8C2
:1046A000B4F90E004042E0810AE0DFF85413D1F87B
:1046B0008C00DFF80C1440F82540284600F0B7F8CD
:1046C000217B284600F0E6F8207AC10744BF28463F
:1046D00000F07AF80020A06032BD012900D17047B7
:1046E00010B5B0F90E40002C48BF6442204600F0DF
:1046F00049F8DFF84813204600F099F8DFF8001376
:10470000D1F88C20002042F8240010BD70B5FFF7CE
:10471000DDF8DFF8B013DFF8B033DFF8B023DFF8EF
:10472000B003DFF8B0430B60121ADFF8AC33C8688F
:104730008A60186002461D68A5420FD0002554F813
:10474000256040F825606D1C0F2DF8DB0F20DFF889
:10475000EC4242F82040401C3628FADB5C68DFF867
:104760007C0324F47F4404195C600A62202199765A
:104770004FF40070D860DFF80804016821F0404170
:10478000016070BD10B50F2811D9A0F110011038CB
:10479000012200F01F00DFF8EC43DFF8EC33490999
:1047A000824054F8210043F82120104010BD09D167
:1047B000DFF8D81308680A6822F0020200F002004D
:1047C0000A6010BD002010BD0F280FD9A0F1100104
:1047D0001038012200F01F00DFF8A8334909824099
:1047E00053F8210043F821201040704709D1DFF829
:1047F0009C1308680A6842F0020200F002000A6096
:10480000704700207047000000CA9A3BA086010054
:1048100010280BD300F1F002012102F01F02DFF893
:10482000443410389140400943F820107047DFF8B5
:10483000D021D2F8883003EB800002688A4218BF8A
:104840000160704710B5DFF8B841A06F02F060FD5D
:104850000021A16610BD70B50246DFF868028368CA
:1048600053600468946025462878BE2803D0012050
:104870000023136070BD00200029F9D015F8016FE6
:10488000BE2EFBD064422919491E5B1AF1E70000D5
:1048900040420F00102805D3DFF80424104400F82C
:1048A000101C7047042804D3DFF8F823104400F8E4
:1048B000041C7047102803D3DFF860141038086018
:1048C000704710B54E4B0FF21504012283F86C208F
:1048D00014B1BDE8104001E010BD000018B500F0B3
:1048E0001BF89FB00A7008B901AA4A60204600F080
:1048F00019F80320FFF749FCDFF88404DFF884246B
:104900000368A06B009003F0FF030F2B28BF383221
:1049100001F039FA20B010BD0446DFF8CC14486825
:1049200001227047F0B5364C236F04F1F4050146BF
:104930002E781E7000220E6A1E6100204F6A5F6191
:104940008E6A9E61CF6ADF610E681E624F685F6289
:104950008E689E62CF68DF620E691E634F695F6377
:104960008E699E63CF69DF6301F140070E6B1E64A1
:104970005F644E6B9E6404F184068F6BDF64C96BC9
:1049800019651F78032F14D8DFE807F00907021014
:10499000B06B5860C26A806A0BE0E86A06E0B068F3
:1049A00001F0FF0150F82110596000E05860E26FFB
:1049B0003068D8609A60616F39B1002804E012F85D
:1049C000014B01F8014B401EF9D1DFF8B403026836
:1049D000DFF868045A65017899654278DA6541889C
:1049E000196642685A6681689966C268DA66016922
:1049F000196740695867F0BD183400201025002061
:104A000030240020C7410000EF4F00002034002078
:104A100014460020003665C48C0100103020094087
:104A2000102600208401001080022443D425002099
:104A3000144B0000D5430000C1430000753E020046
:104A4000C4200000DFF8A41391F81401012281F8BA
:104A500014217047DFF8941391F8AC00012281F81B
:104A6000AC20704700002DE9F04100F049FEDFF86E
:104A70007C5395F8AC60012085F8AC0095F8147172
:104A800085F814010020FFF780FB8046D5F88C00E4
:104A9000DFF8EC120A6802F0FF0250F82250AC6016
:104AA000FEF718FF286869688847FEF70FFF404641
:104AB000FFF76BFB07EB0620BDE8F081000000006C
:104AC000513D0200AC240020F8510020F855002090
:104AD000F85100209000000008ED00E00000FA0509
:104AE00000F0FF0000F08BBF000A01F0F5B8F8B548
:104AF000002101A8FFF7AFFE0398009004E0BE215B
:104B000001700099491C009100986845F7D305B0E1
:104B100000BD0000000000000000000001000000D7
:104B200000000000E00000000100000070B5049CDF
:104B3000059D069E8908491E40F82140491E40F8FF
:104B40002130491E40F82120491E40F82160491EAD
:104B500040F82150491EDFF83C2940F82120491E29
:104B60004FF0FF3240F8212000F012F800F010F86A
:104B7000491E40F8212000EB810070BD00000000BC
:104B800034EF00E000E100E080E100E010E000E050
:104B9000491E40F82120491E40F82120491E40F8B6
:104BA0002120491E40F82120491E40F82120491E9D
:104BB00040F82120491E40F82120491E40F82120BC
:104BC000491E40F82120491E40F82120491E40F886
:104BD000212070477FB504460D46A16A164619B1DB
:104BE000E06ABE2202F0C0FBE16B02913346A06B8B
:104BF00001900095A16A626BE06A091FFFF796FFBA
:104C000004B070BD10B5044609B90FF2680100F098
:104C100002F8204610BD10B504460022012104F11F
:104C20000C0000F00FFE0021A1602146BDE81040FD
:104C3000DFF8700900F017BD38B504466B4DA06869
:104C4000D5F8BC2090420AD04FF0FF3104F10C009F
:104C500000F059FDD5F8BC00A060002032BD012055
:104C600032BD000080E200E019B981600C3000F034
:104C7000AFBD70470000000010B504460120A060E1
:104C8000002121610022E26004F1140000F000FD27
:104C90002146BDE81040DFF8100900F0E4BC000038
:104CA00000E400E018ED00E0F8B50546DFF8FC0888
:104CB000046984B09CB16669077801210170A86815
:104CC000012807D10021A9602C61EE6000F034FCBE
:104CD000002020E02869A04203D100F02DFC012033
:104CE00019E0204601F000FA002102940391C4F873
:104CF00024D03246694605F1140000F045F82869D1
:104D00004069B04203DA2869314601F099F900F0B0
:104D100013FC0020606205B0F0BD000000EF00E071
:104D200070B5DFF888280446106940B31578012370
:104D3000137009BBE16842699142BCBFE16801F0B0
:104D40007FF9606904F11401884202D10122A26056
:104D500012E060690168616104F114024A608668CA
:104D600026617069E060FEF7B1FD044621463046D9
:104D700001F0EAF900F0D2FE284600F04FBD70BD08
:104D800004ED00E01821000010B50346186800E0AB
:104D90000068984207D0846864699442F8DABDE8F4
:104DA000104000F059BCBDE81040184600F046BC69
:104DB00010B5044609B90FF22C01FFF75DFF20463C
:104DC00010BD10B500F096FA00F0EAFE18B12146C9
:104DD000BDE81040ECE710BD0FF208010A68026060
:104DE00070470000000000009C24002030240020B8
:104DF0008069FEF77DB88069FEF77CB88069FEF7B0
:104E00007BB88069FEF77DB8FEF76CB810B5044634
:104E10000020A061DFF8AC18DFF8AC28DFF89809B3
:104E200021606260A06004F11001DFF89029DFF8D2
:104E30009009E26000F017FC204610BD28ED00E06C
:104E400018B5DFF8E84994F8650085B0E8B90122A3
:104E500084F865200021204600F01AFC00F09EFD39
:104E600000F015F80520039004F5D2736A460FF29E
:104E7000DD0104F1100000F079FEE064FFF7CDF9E8
:104E8000DFF8AC09FFF72DFAA06506B010BD684643
:104E9000DFF8A019142201F007BD000038B5FEF7B5
:104EA00015FD04460020FFF7D2F905460EE038B59F
:104EB000FEF70CFD04460020FFF7C9F9DFF86C1976
:104EC0004D6D2D1A886DA84238BF00252046FEF78B
:104ED00007FD284632BD38B504460D462146DFF8A9
:104EE0005009FFF72CFADFF844090465456531BD28
:104EF0002DE9F8430446DFF834090768D7F8048041
:104F00000D464FF0FF391BE03E463F68307D0128DB
:104F100016D1012C04BFF168A94209D130690028DB
:104F20001DBF4118F16030623075F069B169884782
:104F3000307D012804D1F068401B484598BF814668
:104F40004745E1D14846BDE8F28300002DE9F8432A
:104F5000FEF7BCFC06460120FFF779F9DFF8CC1814
:104F600001F15C0201231370002454704C6D8B68B6
:104F70008968051B401AE31A984203D2002010707A
:104F8000304630E000F007FD4FF0000907E04C44E8
:104F900021460120FFF7ACFFA5EB090581464D45F1
:104FA000F5D2FEF793FCDFF8847807F15C068046C3
:104FB0007078012804D121460020FFF799FF81462F
:104FC000B86D19F1010F05D0B86DA9EB0505A84220
:104FD00088BF28460119FFF77EFF0120B07000212D
:104FE0003170BC604046BDE8F243FEF779BCDFF8A3
:104FF0003C18C86C00F06ABD38B504461D46A26076
:10500000002268682061A1612146A868E0612275DC
:10501000DFF8180800F027FB287818B12046BDE813
:1050200032404CE031BD38B568E1826081610022D8
:105030000261C36102750146DFF8F00700F013BB9F
:105040008260816100220261C361002101757047A5
:105050000146DFF8D807F1E200F013BB70B5044653
:10506000DFF8C867A068206206F15C05A97801290D
:1050700004BF2878002816D10120FFF7E8F8B268AD
:10508000736DB1685B1A821A93420CD3A26811182F
:10509000E16001232375746D201A82420ED2BDE8AF
:1050A0007040104617E7FFF7F9FEA1680818E060A6
:1050B000012020752978012908BF687070BD38B5B6
:1050C00000F01EFB05462046FFF7C8FF1DE1BCE7C8
:1050D00004460D461646FEF7F9BB70B500F010FB0E
:1050E0000646207D0025012807D1FFF7D7FEE56899
:1050F0002D1A206AA84238BF002500F04CFC284633
:1051000070BD007D704700F097BB10B504460BB929
:105110000FF20803FFF770FF204610BD00000000EB
:10512000000000000000000070B504460D46164661
:105130000022242100F035FD28B133462A462146BD
:10514000BDE87040E1E770BD6DE710B50446002290
:10515000A260002104F10C0000F09AFA2146BDE89B
:105160001040DFF8B4097EE238B500F0C9FA054610
:10517000207C022804D1204600F083FA00F0BAFA1D
:10518000C3E010B5836884681A400C408C4208BFA5
:105190000A4312B1816891438160104610BD2DE928
:1051A000F0431C4691B080460D46174614F1010F9E
:1051B00018BF002C0AD06B462246DFF8AC1908A8AD
:1051C000FFF73EFF08A90391022202E000210391AC
:1051D00003220021DFF8D4638DF81020069507978D
:1051E000059130690290FEF771FB81463A462946E7
:1051F0004046FFF7C6FF050004D04846FEF770FBA7
:1052000028462DE024B94846FEF76AFB002027E037
:1052100034780120307069460298416208F10C0030
:1052200000F00CFA029800F068FF039820B1FFF735
:105230000FFF0398FFF712FF4846FEF751FBFEF7FA
:105240000FFFFEF743FB0446039818B1FFF704FF76
:105250000020039000F0B6FA9DF8100000B1059808
:1052600011B0BDE8F083F8B507460D46FEF72EFBFA
:105270000446B8680543BD6007F10C00F968814237
:1052800002D1204600F083BBFEF795FE3846FE684B
:10529000F269B169FFF775FF706160B1304600F0E7
:1052A000F0F901203074F06808B100210175214641
:1052B000B06800F049FF00F031FC2846BDE8F2403C
:1052C00000F0F2BC10B5044609B90FF20C01FFF76B
:1052D0003CFF204610BD00000000000010B500F0AB
:1052E00009F8142100F05DFC18B12146BDE810401A
:1052F000E8E710BD04460B46002270470446FEF75F
:10530000E5FA0546204600F0BCF92846BDE83240E3
:10531000FEF7E6BA21681422002000F0C4FF002046
:10532000206010BD78B5DFF80C49207889B0E0B96D
:1053300001262670FEF747FE4FF44072059204F1F5
:1053400060010FF2340204910092002503958DF85C
:10535000206000236A460FF21901201D00F030FF83
:10536000DFF8C814201DC1F8D8000AB070BD0000D5
:1053700080B500F011F8FCE774692E7379736269E7
:105380006F732E6B6E6C2E5461736B2E49646C655B
:105390005461736B0000000038B50024DFF8005939
:1053A00055F824008047641C032CF9DB31BDFEB5A1
:1053B0001E460546706968610F463468EF60114605
:1053C0000022AC602961A961EA61083758B9FF1D64
:1053D000FF08089BFF007943204600F04BFFE8617F
:1053E00008B90120FEBD002105F1280000F050F9A8
:1053F000002105F1200000F04BF93946284600F065
:10540000BCF8684600F01AF8746801946A46B068FF
:10541000029005F1300000F015FAF06801906A463C
:105420003069029005F14C00296900F00BFA294619
:10543000DFF8D80800F017F90020FEBD0021002297
:10544000002380E80E00704710B5012904461FD0E4
:10545000E16941B1E26820690F32D208D2004243CB
:10546000A06800F020FF04F12801E16204F12800A7
:10547000A06204F12001616204F12000206204F1C5
:105480004C0000F0FCF904F13000BDE81040F6E1FA
:1054900010BD0000E973000070B500F01FF8E0B126
:1054A00004F1200000F0CBF80646E26806F108019E
:1054B000284601F0E9F9FEF709FA0546314604F1FC
:1054C000280000F0BBF8A069401CA06100F046F87D
:1054D00004F14C0000F07CF9012070BD04460D463B
:1054E000114604F130000EE1F8B500F040F8F8B1D3
:1054F000FEF7ECF900F023F803D1FEF7F1F90020F4
:10550000F2BD00F026F800F02CF8DFF8200390F848
:10551000AC7000F086F90546314604F1200000F039
:105520008DF800F006F800F019F800F005F80120F9
:10553000F2BD04F130004BE1384600F0B5BBA66A7D
:105540003168A16204F128024A6004F128018E4208
:105550007047A169491EA161FEF7C2B92846FEF74E
:10556000BFB9E268294606F1080001F08DB904468A
:105570000D46114604F14C00C5E0F8B505460E464F
:105580006C6904B9EC69002706E0214605F12800A2
:1055900000F069F834447F1C28698742F5D3002065
:1055A000F2BD00001C26002024260020DC24002060
:1055B0001CB504460BB90FF2200304980090204656
:1055C000FFF7F5FE010003D02046FFF73DFF002462
:1055D000204616BD00000000000000000000000092
:1055E00000000000000000000000000000000000BB
:1055F000000000002DE9FC4100F013F8682100F0E4
:10560000D0FA04000AD00097434632462946FFF7F5
:10561000CFFF18B9682200F0BFFA00242046BDE889
:10562000F68105460E4690461F46002270470168E7
:10563000814201D101207047002070470DE038B54C
:1056400000F05EF82568296821602A685460FFF739
:105650003EBC40600060704700BF426808604A601E
:1056600011604160704738B500F007F82C60616840
:10567000696062681560656048E604460D46FEF79D
:1056800025B901684268116041680068416070474F
:10569000DFE7002000F007BE10B504461078207444
:1056A000618204F114000021FFF7F2FF0021A160E4
:1056B00001202146E060BDE81040DFF87C09D2E718
:1056C00000000000F14D0000F74D000000BF00F1A8
:1056D0001401816100F114024261704738B500F095
:1056E0000FF80546207C022803D100F0D2F800F024
:1056F00001F80AE6002020742946A06800F024BDC5
:105700000446FEF7E3B870B50C468EB0054614F1BA
:10571000010F18BF002C0AD06B462246DFF81C1977
:1057200005A8FFF78DFC05A90391022202E00021E4
:10573000039103228DF81020FEF7C8F80646688A08
:10574000002831D11CB900F026F9002032E0DFF842
:10575000940904780121017000690290C0F824D0F6
:1057600000F0CBFC694605F11400FFF767FF9DF8D8
:105770001000022805D10398FFF76AFC0398FFF791
:105780006DFC00F008F9FEF76BFCFEF79FF804468D
:10579000039818B1FFF760FC0020039000F012F8A6
:1057A0009DF8100030B104E0688A411E698200F063
:1057B000F2F801200EB070BD034E0000FD4D000058
:1057C0002C2600200020029948622046FEF788B867
:1057D00070B50646154890F8AC4000F022F8054632
:1057E000706906F11401884207D1307CC1074EBFB1
:1057F0000120708A401C70820DE07269106870612F
:10580000416001201074D06808B10021017529465B
:10581000906800F099FCFFF7A1FE2046BDE87040BB
:1058200042E2012180F8AC10FEF750B8302400208D
:1058300020340020845B000000210022002380E847
:105840000E00704710B504460AB90FF20C02FFF7BC
:1058500023FF204610BD00000000000000000000F3
:105860000000000038B504460D46134600F097F9D5
:1058700020B12A462146BDE83840E3E732BD38B5BD
:105880000446FFF723FFFEF721F8054600F001F874
:105890003BE52046F5E610B504462068FFF7EFFF2C
:1058A00021681C2238E50000B0FA80F0C0F11F002A
:1058B00070472DE9F843044604F12800DFF8EC585E
:1058C000C168D5F81080EF68AE682961EC600023EC
:1058D0008168A96000214268826001702B700120FC
:1058E000FEF753FC8146FDF7F5FFE169A0696269A7
:1058F0009047FDF7EBFF4846FEF747FC0120287074
:10590000C5F81080EF60AE60BDE8F18338B5DFF810
:10591000AC48E5682068FFF7C7FF216901EBC001CB
:1059200000F091F803D12368416A8B432360FFF7AD
:10593000C0FF206830B1FFF7B7FF216901EBC0015C
:105940008D42EDD331BDF8B5DFF8944804F58A7582
:105950002F69FDF7BBFF06466868FFF7A5FF696979
:1059600001EBC00087420FD294F8AC70012084F89C
:10597000AC00DFF8700801F0BBFC0020287000F0DC
:105980000AF83846FFF79ABC002028703046BDE878
:10599000F240FDF7A5BF3046FDF7A2BF38B5DFF8EE
:1059A0004848207A38B901212172002500F044F9D5
:1059B0006D1C062DFAD331BD481E8041C00F7047C3
:1059C000FFF740B80000002800D0704710B5FDF781
:1059D0007DFFDFF80C4804F58A72516821B1FDF7AC
:1059E0007FFFFFF7B0FF02E01170FDF779FF94F839
:1059F000AC00012184F8AC10BDE8104054E100284F
:105A000000D0704738B5DFF8A4476068C0B1FDF733
:105A100061FFFDF75BFF25696068FFF745FF61697E
:105A200001EBC0018D420BD200F00DF803D1636889
:105A3000416A8B436360FFF73CFF60680028ECD14C
:105A40000020207031BD086802680A6051600A6851
:105A50008A427047DFF88807D0F81C01704710B5FC
:105A60000446DFF80C3800F081F8606900B90024C2
:105A7000204610BD38B54060006013684161036185
:105A8000516881619368C361D16811F1010F08BF4A
:105A900005210162012303FA01F14162002400F1B2
:105AA00028010C7013698B6012694A60DFF8302797
:105AB000046AD2F8283103EBC405CD6000F1080177
:105AC00002F58670FFF7CFFD002032BD2DE9F041D1
:105AD0008046FDF7FBFE08F124060446307920B12C
