:10000000004001202502020015C8010015C80100AA
:1000100015C8010015C8010015C8010015C8010068
:1000200015C8010015C8010015C8010015C8010058
:1000300015C8010015C80100D5C7010070B50446F8
:100040000D4603F0E4FB2968002649B111B10A69A5
:10005000A24203D009680029F8D101E00E46F9E771
:1000600003F0FAFB304670BDDFF8081891F8330052
:100070000022030603D4582042438818704791F8A1
:100080008B0001220306F6D591F8E3000222030655
:10009000F1D591F83B0103220306ECD591F89301C9
:1000A00004220306E7D591F8EB0105220306E2D509
:1000B00091F8430206220306DDD591F89B02072240
:1000C0000306D8D5002070472DE970430646144634
:1000D0001D4603F09CFB6EB1D6E90A2322432B4355
:1000E000C6E90A23D6E9088948EA040449EA05056D
:1000F000C6E90845BDE8704303F0AEBB30B581B03A
:1001000004460D4602F050FEA04231BF241A641E80
:10011000241A641CA40805F57A70A04238BFB4F113
:10012000405F06D2641B012C98BF0124204601B019
:1001300030BD002001B030BDF0B5DFF838370446DF
:100140000025D3F85003012981B024D100E00068D4
:10015000002852D0C668377B07F00F07022F1AD04D
:100160000068002849D0C668377B07F00F07022FC8
:1001700011D00068002840D0C668377B07F00F0711
:10018000022F08D00068002837D0C668377B07F0F8
:100190000F07022FDBD180B3012502B11060C268C6
:1001A000167B06F00F06022E27D1012904D1016922
:1001B000CA68898D511813E0118840F603029142F4
:1001C0001CBF40F60406B14207BF01694A690169D4
:1001D0000A69498B93F822335118192212FB031133
:1001E000406BFFF78BFF20600A20C0462168B1FBFF
:1001F000F0F0206001B02846F0BD0020206001B082
:100200002846F0BDF0B581B0044603F000FB05467A
:10021000002C1CBFA07A002833D0DFF85C3694F99C
:1002200009001E680122F70702FA00F10ED5DFF877
:100230004C361E68370609D5DFF844365E68113043
:1002400002FA00F0C04306405E6018600020A07211
:10025000207220606060C4E90400DFF81836A061F5
:1002600094F9090093F820638240324393F8220303
:1002700083F8202310B1401E83F82203C8B200F097
:1002800064F9284601B0BDE8F04003F0E5BA00008B
:100290002DE9F04700261124DFF8E455DFF8D49566
:1002A0004FF00108F0B2032806DA09EB401000F520
:1002B0003077B97A012905D0761C032EF2D3BDE838
:1002C000F08700BF97F90900113008FA00F0C14328
:1002D00029606A681043686097F9090008FA00FA13
:1002E00003F095FA99F894134AEA010A89F894A35D
:1002F00003F0B2FA99F8840302280DD107F1100037
:1003000005F0FCFC00F0FF00012805D1B869C8B178
:1003100099F8841302290FD099F8210397F909104D
:1003200004FA01F1084389F82103002109F58260EC
:1003300003F005FBC0E700BF05F0E0FC00F0FF00A4
:100340000128E9D10220B872B6E730B5042881B09F
:1003500020D1DFF8204504F58D60007DC046C8B18E
:100360000A20C046054604F58D6003F01CFA45439B
:10037000B5F5967F0ED204F58D6003F01FFA0520C7
:1003800005F0B7FE012084F89103042104F56E7096
:1003900003F0D5FA002001B030BD70B5044603F07B
:1003A00036FADFF8D064054696F84C0320EA0404D8
:1003B00086F84C430024D6F8280320B1B830007DDD
:1003C000C04600B10124D6F82C0320B1B830007D1E
:1003D000C046044319D196F84C03002808BF002CEE
:1003E00013D1D6F8480380B190F828108A070CD5AD
:1003F000446A284603F030FAD6F848030022022166
:10040000A0470020C6F8480370BD2846BDE87040EC
:1004100003F022BAF0B400290CBF01230023002A04
:100420000CBF01250025002839D02C0004BF90F80E
:100430004440002C33D000291CBF91F84440002CCC
:1004400012D0446B0E6C07690969A408A4EB9604EA
:100450000026B94218BFFE68A41B04F18054B4F111
:10046000805F88BF012301D8190018D0BAB1D168C4
:100470000C7B04F00F04022C11D1516B046C126937
:1004800000698908A1EB94010024904218BFD46848
:10049000091B01F18051B1F1805F88BF01252B401C
:1004A000F0BCD8B27047F0B581B01E466FF00207BD
:1004B0008DF80070054634682246FFF7ABFF10B197
:1004C00001208DF800009DF90000B84201BFE968E5
:1004D000087B00F00F0002280CD100E024684CB12A
:1004E000226821462846FFF795FF0028F6D0022013
:1004F0008DF800009DF90010B94204D1E86B10B1ED
:1005000004218DF800109DF90070012F06D12946B5
:10051000304606F0EDF8384601B0F0BD022F09D1A3
:100520002268002A2946304608D006F0BEF8384630
:1005300001B0F0BD042F03D12946304606F0C8F8BB
:10054000384601B0F0BD0020704730B581B0044698
:1005500003F05DF90546C74890F8941321EA0404B6
:1005600080F8944390F89423110704D4082100F5EF
:100570006E7003F0E4F9284601B0BDE8304003F0A6
:100580006BB92DE9F04F064681B0002030600024A1
:10059000DFF8E092D9F8500318B3C1680A7B012450
:1005A00002F00F02022A1CD10A88192140F6030327
:1005B0009A421CBF40F60405AA4219BF026913699A
:1005C00002695369528B406B9A1899F8223311FBD8
:1005D0000321FFF793FD05460A20C046B5FBF0F85E
:1005E00001E04FF0000800254FF0FF3A0027F8B275
:1005F000032805DA09EB401101F53072907A18B939
:100600007F1C032FF3D325E0107A012502281FD089
:10061000D9F898030169408B99F8223309181920F9
:1006200010FB03115069FFF769FD83460A20C0469D
:10063000BBFBF0F05045E3D88246E1E7D0450ED948
:10064000D046404630602C43E0B201B0BDE8F08FA8
:100650004FF0000AE3B230682B42EFD134B140468C
:1006600030602C43E0B201B0BDE8F08F05B15046D8
:1006700030602C43E0B201B0BDE8F08F2DE9F04FBF
:10068000DFF8E49B81B099F88413022905D101B009
:10069000BDE8F04F192003F0CDB899F88403012884
:1006A0001CBF99F88403042800F0888003F0AFF899
:1006B00000900024D9F85003002518B3C1680A7BC4
:1006C000012502F00F02022A1CD10A88192140F6E6
:1006D00003039A421CBF40F60406B24219BF0269E6
:1006E000136902695369528B406B9A1899F8223347
:1006F00011FB0321FFF702FD06460A20C046B6FBA8
:10070000F0F800E0A04600264FF0FF3A0027F8B2CC
:10071000032805DA09EB401101F53072907A18B917
:100720007F1C022FF3D91EE0107A0126022819D06F
:10073000D9F898030169408B99F8223309181920D8
:1007400010FB03115069FFF7D9FC83460A20C0460D
:10075000BBFBF0F05045E3D88246E1E74446544500
:1007600008D906E0A2463542F8D10DB1444601E071
:1007700006B15446354317D064B12146012998BFCC
:10078000012109F58D6003F015F809F58D6003F07E
:1007900013F80DE009F58D6003F010F8042109F558
:1007A0006E7003F0CCF803E009F58D6003F006F8F5
:1007B000009801B0BDE8F04F03F04EB801B0BDE8BD
:1007C000F08F70B586B00146002203920192049228
:1007D000029240F602058C68487E628023885B1B8B
:1007E00009D041F21E055B1B05D041F6E6755B1B87
:1007F000012B0FD91CE0268A4FF6FF3232402282AD
:10080000002819BF4FF60F4002402D2060F3091257
:1008100022820DE0238B4FF6FF321A4022830028FC
:1008200019BF4FF60F4002402D2060F309122283BA
:100830000020487602AD009504AB01AA03A920462A
:1008400001F06AFF50B1039801884FF6FF729142A0
:1008500004D10299019801F0D1FE03E002990198B8
:1008600001F012FF0348D0F8AC1309B10198884792
:1008700006B070BDB82D00204021084000000440A3
:10088000081004402DE9F04F85B00027DFF8D85953
:100890000397D5F850630297002E6ED0D5F8640305
:1008A000002804BFD5F86003002845D1012787F050
:1008B000010903AA5FFA89F102A8FFF73DFC0100D4
:1008C0005DD10446DFF8A409D0F80480B8F1000F28
:1008D00018BF002C00F0F4820298002840F0F0824B
:1008E000D5F8641303980190CDF8009005F5567380
:1008F000D5F8600305F55472C047012800F0E28185
:10090000022840F0DD82D5F86003D5F86013B0F915
:100910003040D1F8108002F07AFF4FF0FF318C4266
:1009200082464BD1D5F8600300283BD00069404592
:1009300038D1D5F860638CE0D5F860030028B6D0D4
:10094000D5F86003016930698142B0D196F833105F
:10095000CA06ACD5D5F864030028A8D15FF001071A
:10096000D5F86003C16848880028F9D0D5F860033D
:10097000C16848880128F3D099E702212FE3002FAE
:100980009FD1029900299CD0022938BF012105F589
:100990008D6002F00FFF05F58D6002F00DFF05B0D0
:1009A000BDE8F08FD5F8640328B10069404508BF61
:1009B000D5F864634DD0D5F850634AE0B5F93000FE
:1009C0000021A04204BF2B69434503D15820414375
:1009D0006E183EE0B5F988000121A04204BFAB6E5D
:1009E0004345F3D0B5F9E0000221A04204BFD5F899
:1009F000C0304345EAD0B5F938010321A04204BF15
:100A0000D5F818314345E1D0B5F990010421A04251
:100A100004BFD5F870314345D8D0B5F9E8010521B8
:100A2000A04204BFD5F8C8314345CFD0B5F9400244
:100A30000621A04204BFD5F820324345C6D0B5F9FF
:100A400098020721A04204BFD5F878224245BDD0C4
:100A50000026002E00F0348196F83300010640F1A4
:100A60002F81D5F86003864270D1D5F8600300224B
:100A70004FF00053FFF728FBD5F8640300224FF036
:100A80000053FFF721FBDFF81C0C05F037F9D5F810
:100A9000600300224FF08073FFF716FBD5F8640364
:100AA00000224FF08073FFF70FFB95F84C1330696D
:100AB000D5F85073C5F8480341F0010185F84C138F
:100AC0003C4600E02468002C00F0FA80BC4211D0C3
:100AD0002468002C00F0F480BC420BD02468002C69
:100AE00000F0EE80BC4205D02468002C00F0E880C5
:100AF000BC42E7D1002C00F0E380266814B12069E5
:100B0000404503D03400F8D1504605E200224FF0B2
:100B100080532046FFF7D8FA00224FF0807320461A
:100B2000FFF7D2FA95F84C133869C5F8480341F03D
:100B3000010185F84C1305F55470214605F0EBFDD5
:100B4000214605F5567005F0C3FDDBE7D5F86403D3
:100B5000864261D1D5F8640300224FF00053FFF7BD
:100B6000B3FADFF8240C05F0C9F8D5F864030022C5
:100B70004FF08073FFF7A8FA95F84C133069D5F859
:100B80005073C5F8480341F0010185F84C133C4609
:100B900000E02468002C00F09380BC4211D024684F
:100BA000002C00F08D80BC420BD02468002C00F09B
:100BB0008780BC4205D02468002C00F08180BC42B4
:100BC000E7D1002C7CD0266814B12069404503D0C1
:100BD0003400F8D150469FE100224FF08053204668
:100BE000FFF772FA00224FF080732046FFF76CFA8D
:100BF00095F84C133869C5F8480341F0010185F8B0
:100C00004C1305F55470214605F085FD214605F588
:100C1000567005F05DFDDBE7D5F850430FE0246822
:100C2000002C4DD0B4420ED02468002C48D0B442E1
:100C300009D02468002C43D0B44204D02468002C8E
:100C40003ED0B442EBD12768CDF80080B3460026F1
:100C500000E0276820690099884220D100224FF0E7
:100C600080532046FFF730FA00224FF08073204671
:100C7000FFF72AFA95F84C13DBF81000C5F8480383
:100C800041F0010185F84C1305F55470214605F03B
:100C900042FD214605F5567005F01AFD761C3C0014
:100CA000D7D1002E1FBF95F88403012895F884033F
:100CB000042805D0DFF8FC1A05F56E7002F03FFE3F
:100CC000504629E1039800B10646B6F93040D6F8FF
:100CD00010A002F09CFD4FF0FF318C42064614D16B
:100CE000D5F8600328B10069504508BFD5F86043C6
:100CF00056D0D5F8640328B10069504508BFD5F82F
:100D000064434DD0D5F850434AE0B5F93000002196
:100D1000A04204BF2B69534503D1582041436C18AE
:100D20003EE0B5F988000121A04204BFAB6E5345F7
:100D3000F3D0B5F9E0000221A04204BFD5F8C030DD
:100D40005345EAD0B5F938010321A04204BFD5F8D4
:100D500018315345E1D0B5F990010421A04204BFF8
:100D6000D5F870315345D8D0B5F9E8010521A04236
:100D700004BFD5F8C8315345CFD0B5F9400206219C
:100D8000A04204BFD5F820325345C6D0B5F9980229
:100D90000721A04204BFD5F878225245BDD00024D7
:100DA000002C00F08B8094F83300010640F186801F
:100DB000D5F86003844219D1D5F8600300224FF0C2
:100DC0000053FFF781F9D5F8640300224FF0005378
:100DD000FFF77AF9DFF8CC0804F090FFD5F860034C
:100DE00000224FF08073FFF76FF90EE0D5F864032F
:100DF00084421CD1D5F8640300224FF00053FFF762
:100E000063F9DFF8840904F079FFD5F86403002260
:100E10004FF08073FFF758F9206995F84C13C5F827
:100E2000480341F0010185F84C13304674E0D5F8D1
:100E300050032746044600E02468002C3ED0BC4204
:100E40000CD02468002C39D0BC4207D02468ACB345
:100E5000BC4203D024688CB3BC42EDD1216951451A
:100E60002CD100224FF080532046FFF72DF90022AD
:100E70004FF080732046FFF727F995F84C13386937
:100E8000C5F8480341F0010185F84C1305F554708D
:100E9000214605F040FC214605F5567005F018FC8A
:100EA00095F8840301281CBF95F88403042805D015
:100EB000DFF8001905F56E7002F041FD30462BE0B9
:100EC000002F00F090803069D5F89813884218BF41
:100ED0004FF4806140F08380002C1CBF02980028F2
:100EE0001FD0D5F86003002804BFD5F8640300289C
:100EF00017D102F08CFC044695F8940300F0F7003B
:100F000085F8940395F89403010704D4082105F5A6
:100F10006E7002F014FD204602F09EFC05B0BDE8A4
:100F2000F08F02F074FC95F8941341F0080185F8F5
:100F3000941302F091FC96F83300C10605F5547045
:100F400004D505F0A0FBC5F8640303E005F09BFBA6
:100F5000C5F86003D6E90601DFF83C4BDFF8B07C4A
:100F6000C043A060E268D6E906010243E260D6E928
:100F70000623DB432360D4F804C0D6E9060141EA26
:100F80000C0CC4F804C0D7F804A0F4685346180049
:100F900007D0387A010704D5D5F8980332460821DE
:100FA0009847204604F0AAFE208840F60201401A25
:100FB00008D041F21E01401A04D041F6E671401AF1
:100FC00001280AD8BAF1000F07D0387AC10704D532
:100FD000D5F8980322460121D0474FF0804105F50E
:100FE0006E7002F0ACFC05B0BDE8F08FF0B59E4E1F
:100FF000DFF8200C81B0D6F8605304F02CFF0446D3
:10100000DFF8700C0268076802F0200207F460271E
:10101000224018BF002D0CD01346C6F8685300229A
:101020002846FFF751F84FF4804106F56E7002F044
:1010300086FC3C400DD096F8210340EA544486F8E3
:10104000214306F5826001B0BDE8F040002102F0C6
:1010500076BC01B0F0BD2DE9F043DFF80C9281B011
:1010600099F82103002400284CD099F82103002688
:10107000C1073DD599F821031021B140084218BF9E
:10108000012402F0C4FB99F821131122B2409143CC
:1010900089F8211302F0E0FB032E33DA09EB461145
:1010A00001F53072907A68B392F90980DFF8C81BB5
:1010B00001EB8801002C0D681668576804BF107A90
:1010C000022803D1D2E90401C30009D41046FFF776
:1010D00099F82CB10020009000224FF0007303E03B
:1010E000009500224FF0006341463046B84709E0C2
:1010F00099F8210301268107BCD499F8210302261F
:101100004107B7D499F8210338B109F5826001B0DD
:10111000BDE8F043002102F012BC01B0BDE8F0834D
:101120002DE9F0430FF2481285B0D2E90034CDE941
:1011300000344FF4804004F0DBFD4FF00008F0B1C4
:10114000DFF8380BD0F813100078C1F315018008D0
:1011500041EAC0714448D0F89833986802AA01F077
:1011600091FB4148DFF8A81AD0F898034B688268D1
:101170001C0004D00C7AE10744BF012198476E4659
:101180004FF002093768386820B9361DB9F10109F6
:10119000F8D15AE03868D0E9060104F0A9FD3D68AD
:1011A0000021CDE90201044602F031FB84467DB9FD
:1011B000604602F051FB14F00A0F1AD1002CE4D063
:1011C00038682949C1F8680348F48048DDE700BF62
:1011D000D5E90A23DDE9020110431943C5E90A01F3
:1011E000D5E90823DDE9020110431943C5E90801E7
:1011F000DEE73868DFF87C1ADFF8843A8A68DFF8BF
:10120000744AD0E9060118408243A2602246386839
:101210001368D0E906018B4313603A68DFF8F009E0
:101220004368190007D0017AC80604D50E4CD4F8DB
:101230009803102198473968DFF8480A05F048FA02
:101240000020386048F002089FE75FEA08011CBFF1
:10125000DFF8340A02F073FBFFF71AF8FFF712FB0E
:1012600005B0BDE8F0830000B82D0020C4200020A8
:10127000183100201C3100202DE9F04F81B00546C7
:10128000984605F0E8FDDFF8047AD7F8A8138842FD
:1012900000F02581DFF8F829C7F8A8031168CB68AA
:1012A0009847064697F8840302281CBF97F88403E2
:1012B000042840F01481D7F86003002804BFD7F851
:1012C0006403002800F0FF80D7F86003D7F86013AC
:1012D000B0F93040D1F810A002F099FA4FF0FF3188
:1012E0008C42834614D1D7F8600328B10069504579
:1012F00008BFD7F8604356D0D7F8640328B1006917
:10130000504508BFD7F864434DD0D7F850434AE062
:10131000B7F930000021A04204BF3B69534503D117
:10132000582041437C183EE0B7F988000121A042D3
:1013300004BFBB6E5345F3D0B7F9E0000221A042D1
:1013400004BFD7F8C0305345EAD0B7F938010321BC
:10135000A04204BFD7F818315345E1D0B7F9900146
:101360000421A04204BFD7F870315345D8D0B7F953
:10137000E8010521A04204BFD7F8C8315345CFD0BA
:10138000B7F940020621A04204BFD7F820325345E6
:10139000C6D0B7F998020721A04204BFD7F8782237
:1013A0005245BDD00024002C00F08A8094F8330010
:1013B000010640F18580D7F86003844219D1D7F83F
:1013C000600300224FF08043FEF77EFED7F86403EF
:1013D00000224FF08043FEF777FEDFF8B80804F0F4
:1013E0008DFCD7F8600300224FF08073FEF76CFE8F
:1013F0000EE0D7F8640384421BD1D7F864030022BF
:101400004FF08043FEF760FEDFF88C0804F076FCB6
:10141000D7F8640300224FF08073FEF755FE97F86B
:101420004C132069C7F8480341F0010187F84C13B9
:1014300046E0D7F85003A146044600E02468002C9B
:101440003ED04C450CD02468002C39D04C4507D0F8
:101450002468ACB34C4503D024688CB34C45EDD123
:10146000216951452CD100224FF080532046FEF7D0
:101470002BFE00224FF080732046FEF725FE97F8E2
:101480004C13D9F81000C7F8480341F0010187F860
:101490004C1307F55470214605F03DF9214607F538
:1014A000567005F015F997F8840301281CBF97F8CA
:1014B0008403042804D0BF4907F56E7002F03FFA98
:1014C000584602F0C9F94FF6FC70064046F0C16676
:1014D000D7F89803002246F0010101F066F80021D8
:1014E0000091EA1EED1C4046DFF8B03712B229B277
:1014F00005F0F9FD78B1DFF8A807436819000AD0B4
:10150000007A410607D5D7F8980301B0BDE8F04F3F
:1015100000224021184701B0BDE8F08F30B5DFF858
:101520006C4781B0B4F96C03B4F96E13884217D1DB
:1015300002F06DF9054694F8940300F0F70084F882
:10154000940394F89403010704D4082104F56E7001
:1015500002F0F5F9284601B0BDE8304002F07CB950
:1015600001B030BD0720FEF718BF2DE9F041074656
:101570008846D7F8A86014461D4606B1B047D7E99B
:10158000280104EA000215EA010308BF002A00F05E
:101590008680DFF8F816B1F930000024404504BF1A
:1015A0000E69BE4203D191F8330005065CD4B1F94F
:1015B00088000124404504BF8E6EBE4203D191F8DD
:1015C0008B00050650D4B1F9E0000224404504BF69
:1015D000D1F8C060BE4203D191F8E300050643D4C0
:1015E000B1F938010324404504BFD1F81861BE4267
:1015F00003D191F83B01050636D4B1F990010424DA
:10160000404504BFD1F87061BE4203D191F8930107
:10161000050629D4B1F9E8010524404504BFD1F8F5
:10162000C861BE4203D191F8EB0105061CD4B1F9A3
:1016300040020624404504BFD1F82062BE4203D1D7
:1016400091F8430205060FD4B1F9980207244045EA
:1016500004BFD1F87852BD4203D191F89B02050630
:1016600002D4C7E92C2311E05820C7E92C234443B6
:101670000819D7E92C45D0E9082322EA040423EA13
:101680000505C0E90845D7F8A81081600020C7F813
:10169000A80007F15000BDE8F04102F010B9BDE824
:1016A000F081000001000104704700B581B002F034
:1016B0003AF9DFF8D8250146D2F89803D2F8882302
:1016C00001B05DF804EB1047DFF8C0050FF2D5520A
:1016D000D0F88813914208BFFEF7D0BF042100F56F
:1016E0006E7002F02CB930B581B04FF0FF3004F0CD
:1016F000FFFADFF898550FF2AD510446D5F888038C
:10170000884232D10022DFF89C1B05F57D7002F083
:1017100093F8022085F88403D5F898138A6801F1BC
:10172000380300E00246506890B198421EBF02465E
:10173000506800280CD098421EBF0246506800280E
:1017400006D098421FBF0246506800289842E9D14F
:10175000507B10F00F0F02BF488F40F609018842FE
:1017600003D0FEF795FDFFF78DF81248044208D02C
:1017700005F56E7001B0BDE830404FF0005102F049
:10178000DEB801B030BD00000100012400B581B019
:101790004FF0FF3004F0ACFA800708D501B05DF8D7
:1017A00004EB4FF40061DFF8E00402F0C8B801B0C8
:1017B00000BD0000020000402DE9F041DFF8CC74CC
:1017C000D7F85863002E00F0AD80F068082140F68D
:1017D000040240F6030301E04068491E68B1CCB240
:1017E0005CB104889C4218BF9442F5D1316901F183
:1017F00038021AC81AC21AC81AC2D6E90A45002203
:10180000C6E90A22B068D0B115F0E24310D024F046
:101810000F0235F0E24308BF002A05D0B6F93010B8
:101820003069D6F808C0E04704F0000405F0E2454E
:10183000B6F9301030692246B4682B46A04701F053
:10184000E6FF0446B7F86E03401CC0F30B00A7F890
:101850006E036FF00201002086F83300318607F531
:10186000567004F010FF204601F0F6FFB7F96E0342
:10187000B7F96C13884255D1D7F89813D7F8286375
:10188000D7F82C4300250520A84600291EBF91F853
:10189000FC1000290720FEF780FD2EB196F8FC0011
:1018A00000B9356886F8FC803CB194F8FC0008B9B2
:1018B000D4F80080002084F8FC00454538BF454638
:1018C000E5B9B7F96C03B7F96E1388422AD101F074
:1018D0009EFF044697F8940300F0F70087F89403FE
:1018E00097F89403010704D4082107F56E7002F0FD
:1018F00026F82046BDE8F04101F0AEBF15F1010F1A
:1019000010D001F04EFFB5FBF0F1012998BF012185
:1019100007F2AC4001F04EFF07F2AC40BDE8F041E9
:1019200001F04ABFBDE8F081D84A92F88413002044
:10193000022904BFD2F86013002903D1D2F864133E
:1019400001B90120704770B5DFF8941C0446CF48F8
:10195000D0F89C6308682568026B9047864231BFC7
:10196000861B401E861B761C360BAE423CBF75198B
:101970006E0840F6C410864288BF064604D8B6F505
:10198000967F38BF4FF49676266070BD30B50D4611
:10199000A80781B0BD4C12D5FFF70EFFD4F858034D
:1019A00040B145F0020104F56E7001B0BDE8304071
:1019B00001F0C5BF01B0BDE83040FEF75FBE68076B
:1019C00067D5012184F89613042004F092FBDFF818
:1019D000100C01680A6B9047C4F89C03D4F85003BC
:1019E00098B10569D4F89803002818BFA8420AD016
:1019F00095F82800410704D56B6A00220421284687
:101A0000984701206876C4F89853D4F89803416841
:101A1000DFF8D00B0A780260022004F06AFB102085
:101A200004F07CFB012084F884037949887810B99C
:101A30000D2004F073FBD4F89803416888680028EF
:101A400004BFC868002806D0DFF89C0BDFF89C2B89
:101A50000021C16102600720DFF8941B08600021AB
:101A6000DFF8840B4269416182698161426942F019
:101A7000402242F0020242610FF22100C4F88803C2
:101A80001A2001F0C5FE01B0BDE83040192001F078
:101A9000BFBE01B030BD0000081004402DE9F04386
:101AA0000446880081B040F1B080DFF8E081D8F8CA
:101AB0009803416848688E68CF68010018BF804766
:101AC0003000DFF8245B01D138000ED0E86900282F
:101AD000FCD00021E961300018BFB047380018BFC2
:101AE000B847DFF8100B04F009F90020E86140F670
:101AF0000A09DFF8041B2960A8F87093A8F872039C
:101B000098F87C1301F0F00188F87C13C8F874038E
:101B1000204698F87D1301F0F00141F0010188F8AA
:101B20007D13FEF74EFEA668374640F6040140F6E8
:101B3000030200E00746786828B103884B451CBFC4
:101B400093428B42F6D17B7B08F55C70786003F0A2
:101B5000F0037B73D8F8500328B1C0680088904226
:101B600018BF88421CD0208FD0B100216187E1636B
:101B700094F8450094F8441000F0F00040F00100A3
:101B800084F8450001F0F00184F8441004F13800B5
:101B9000C8F8740398F87D1301F0F00188F87D13FC
:101BA000E8690028FCD00021E9610FF2F90298F8F9
:101BB0009103C8F8882330B104F004FC0028FBD05E
:101BC00004F011FC0EE0012005F0EDFA012809D027
:101BD000787B00F0F00040F0010078730FF23900DC
:101BE000C8F888030021E9612E60DFF8880C43689B
:101BF00019000AD0007AC10707D5D8F898033246F1
:101C000001B0BDE8F0430121184701B0BDE8F08301
:101C10004C02020020000E00DFF8142C114200D10B
:101C2000704710B5012005F0BEFA01280DD1DFF88C
:101C3000480C0FF27101C0F888130022DFF8A819D0
:101C4000CA6100F55C70086010BD0A20C0463221F0
:101C5000B1FBF0F1012998BF0121DFF81C4C04F51C
:101C60008D6001F0A7FD04F58D60BDE8104001F026
:101C7000A3BD00000C1004409430044085030021F3
:101C8000FDBFFFFF1031002070310020B82D002073
:101C9000E00100100100020401000224791200009A
:101CA0004C0202002DE9F047044688465FEA4840AE
:101CB00082B0DFF8C49B2CD501F0A9FDD9F8686388
:101CC00016B3D6E90A2302F00A0413F0E04508BF70
:101CD000002C19D1D6E90A45D6E90A23A243AB4321
:101CE000C6E90A2301F0B8FDB06878B1002D08BF3D
:101CF000002C0BD0B6F9301030692246B4682B4660
:101D0000A04728F48048C1E201F0A6FD28F48048ED
:101D1000BCE25FEA880040F18280DFF8600BD0F817
:101D20008C1041F08001C0F88C1099F8960328B10E
:101D3000042004F078F9002089F8960301F067FD8B
:101D40000546042005F02FFAD9F8B4230146914244
:101D50001DD1207E00281CBFD9F89C03002816D076
:101D6000D9F8600370B1C1680A8840F603039A424B
:101D70001FBFC068018840F60402914208BF04F109
:101D8000140001D004F11000FFF7DDFD05E040F67E
:101D9000C41020616061C9F8B413284601F05CFDED
:101DA000D9F898138A6801F1380300E002465068B8
:101DB00090B198421EBF0246506800280CD098424D
:101DC0001EBF02465068002806D098421FBF024638
:101DD000506800289842E9D1507B10F00F0F02BFE5
:101DE000488F40F6090290420FD1256A00224FF039
:101DF00000736FF480712046A847D9F8500310B1E2
:101E0000FEF73CFC01E048F002082046E4690022AD
:101E10004FF080630021A04728F0005836E25FEAC7
:101E2000887009D5FFF7C8FCD9F85803002840F09E
:101E30002D8228F0020829E25FEA485040F1B48080
:101E400001F0E5FC0546FFF76FFDD9F85043012886
:101E500040F0A480002C00F0A180042089F88403C5
:101E60000022DFF81C1A09F57D7001F0E5FC284618
:101E700001F0F2FC09F2AC4001F0A0FCDFF86007D1
:101E800001680A6B9047C9F8A003012089F89603FE
:101E9000042004F02EF92069C9F8980390F828105E
:101EA0004A0703D5436A002204219847D9F89803CA
:101EB000DFF8345741688E684868CF68002E08BF45
:101EC000002F04D00021E961DFF820272A6008B143
:101ED000C046C046002E08BF002F0CD0E86900287D
:101EE000FCD00021E96106B1B04707B1B847DFF87F
:101EF000040703F003FFD9F898030121417640F667
:101F00000A06FEF75EFCD9F898339A68114640F647
:101F1000040C40F6030E00E00146486828B107882B
:101F2000B7421CBF77456745F6D1002048604E7B1D
:101F300006F0F00646F001064E73E0680088704532
:101F400018BF604503D10020C9F8A00315E0188F21
:101F500098B103F13800002444804460047B04F00D
:101F6000F0040473447B04F0F00444F0010444736F
:101F70004860487B00F0F00048730020E8612A6068
:101F8000DFF8F008446821000BD0007AC10708D5BB
:101F900001211846A04728F4806877E1284601F01F
:101FA0005BFC28F4806871E15FEA085163D599F819
:101FB000960328B1042004F036F8002089F896032F
:101FC000D9F8984304F1080104F138050B6800E0E2
:101FD0000346586890B1A8421EBF034658680028BF
:101FE0000CD0A8421EBF03465868002806D0A8425D
:101FF0001FBF034658680028A842E9D1587B10F05B
:102000000F0F02BF488E40F60902904207D12046CA
:10201000246A00224FF000736FF48071A047D9F852
:10202000A00398B1DFF8B8150868026B9047D9F89B
:10203000A013814231BF401A401E401A401CD9F8FB
:102040009813000BC8600020C9F8A003002295492E
:1020500009F57D7001F0F0FB022189F88413D9F8AD
:10206000580318B109F56E7001F069FCFEF706FB24
:1020700028F400680AE15FEA087040F1008101F08D
:10208000C6FB0546FFF750FC002800F0F08099F8E9
:102090009403010700F1EB8099F89403010600F125
:1020A000E6806846FEF76DFA18B10098002800F047
:1020B000DE8099F82103002840F0D980002701260E
:1020C000F8B2022805DC09EB401101F53071887A7D
:1020D00018B97F1C032FF3D31BE08E7291F909000E
:1020E00006FA00FA01F093FB044699F8940320EAFB
:1020F0000A0A89F894A399F89413080703D520468F
:1021000001F0AAFBE5E7082109F56E7001F017FC64
:10211000F5E7032089F8840309F2AC4001F04EFB97
:10212000284601F099FBDFF8C04460690021616135
:102130000022E068E16009F57D70DFF8101B01F016
:102140007BFBDFF89C0401680A6B9047D9F89C136D
:10215000814231BF401A401E401A401CD9F88C13EE
:102160004FF0FF32A2EB10328A4234BF4FF0FF3003
:1021700001EB1030C9F88C0399F8900330B1D9F80D
:10218000A403D9F88C13C00288422FD2DFF8EC06E2
:102190000268D10725D5DFF80C0C0268110620D59E
:1021A00040F60900A9F870030021A9F8721399F804
:1021B0007D0300F0F00040F0010089F87D0399F8FC
:1021C0007C0300F0F00089F87C03C9F87413002048
:1021D000E06109F55C712160B9F8720310F4406F99
:1021E000FAD0002189F89063C9F88C1303F093FDAD
:1021F000DFF8FC13DFF87C460020086063681800F5
:1022000007D0207A810704D5D9F89803002202214B
:102210009847022003F007FF102003F01AFF99F8F7
:10222000950320B9D9F89803503001F048FBA07805
:1022300010B90D2003F00DFF99F8910328B100218A
:1022400089F89113052003F0EEFEDFF8C00BC9F802
:102250008803002189F884130220B9F96E13B9F9B3
:102260006C23914208BF0720FEF797F802E028464A
:1022700001F0F2FAFEF702FA28F0080806E05FEA39
:10228000480003D5FEF7FAF928F08048B8F1000FAE
:1022900004D0414609F56E7001F051FB02B0BDE873
:1022A000F0870000211100002DE9F54CDFF8C8A5EA
:1022B000DAF8504381B09B4600250E4600E02468C2
:1022C000002C5BD0B4420ED02468002C56D0B4420F
:1022D00009D02468002C51D0B44204D02468002CCA
:1022E0004CD0B442EBD1002C48D02069019927682A
:1022F000884209D09DF80800002818BF3C46F2D15A
:10230000284603B0BDE8F08C01F081FAD4E90A2335
:1023100043F08051C4E90A21D4E9082343F08051F5
:10232000C4E9082101F098FABBF1000F0CD1214655
:102330000AF5547004F0EFF921460AF5567004F0DE
:10234000C7F96D1CD6E700BF01F061FAD4E90A2392
:1023500043F08071C4E90A21D4E9082343F0807175
:10236000C4E9082101F078FA9AF84C133069CAF8E8
:10237000480341F001018AF84C13D8E7284603B01E
:10238000BDE8F08C2DE9F04E81461746032582B05A
:102390009B46380014BF4FF0804A4FF0005A0E465B
:1023A00001F035FA4FF0FF318E420090DFF8C8445B
:1023B00014D1D4F8600328B10069484508BFD4F8A7
:1023C000606356D0D4F8640328B10069484508BF5B
:1023D000D4F864634DD0D4F850634AE0B4F93000C7
:1023E0000021B04204BF23694B4503D1582041432B
:1023F00066183EE0B4F988000121B04204BFA36E24
:102400004B45F3D0B4F9E0000221B04204BFD4F848
:10241000C0304B45EAD0B4F938010321B04204BFC3
:10242000D4F818314B45E1D0B4F990010421B04201
:1024300004BFD4F870314B45D8D0B4F9E801052178
:10244000B04204BFD4F8C8314B45CFD0B4F94002F4
:102450000621B04204BFD4F820324B45C6D0B4F9AF
:1024600098020721B04204BFD4F878224A45BDD073
:102470000026002E7DD096F83300010678D50A9DFF
:10248000D4F860138E422DD1D4F860030022534655
:10249000FDF71AFED4F8640300225346FDF714FE3C
:1024A000002F14BFDFF8480BDFF8480B03F026FCC1
:1024B000002D3AD0D4F8600300224FF08073FDF76E
:1024C00003FED4F8640300224FF08073FDF7FCFD97
:1024D00094F84C133069C4F8480341F0010184F8C2
:1024E0004C1322E0D4F864138E422AD1D4F864034A
:1024F00000225346FDF7E8FD002F14BFDFF8F80A6D
:10250000DFF8F80A03F0FAFB7DB1D4F86403002287
:102510004FF08073FDF7D8FD94F84C133069C4F880
:10252000480341F0010184F84C13BBF1000F1DD0AA
:10253000D4F850132B465A464846FFF7B5FE83257C
:1025400017E02B465A4631464846FFF7ADFE78B1B4
:1025500094F8840301281CBF94F88403042805D050
:10256000DFF8081C04F56E7001F0E9F9832500E03E
:102570000425009801F070F9284602B0BDE8F08EFD
:1025800010B50C46BC4991F88423022A0BD103F004
:10259000B5FB04B1206000F0FF00012801D18120CB
:1025A00010BD022010BD012010BDF0B581B0044661
:1025B0000D46164601F02BF90746AF48D0F89813A0
:1025C0008C4218BF032404D131462846FFF7D8FFB8
:1025D0000446384601F040F9204601B0F0BD000045
:1025E0008C010010D0210840001004405100070663
:1025F000000004600100070601010E04002942D01A
:102600000A0E202A08BF10221AD0212A08BF202231
:1026100016D0A02A08BF302212D00AB940220FE0FB
:10262000102A08BF50220BD0112A08BF602207D001
:10263000402A08BF702203D0502A0CBF802290226B
:102640008901090A42EA012141F00F0100E0001D61
:10265000026812F1010F18BF8A421CBF50F8042F04
:1026600012F1010F0ED08A421CBF50F8042F12F154
:10267000010F07D08A421EBF50F8042F12F1010F3C
:102680008A42E4D101607047002944D00A0E202A12
:1026900008BF10221AD0212A08BF202216D0A02A53
:1026A00008BF302212D00AB940220FE0102A08BF1A
:1026B00050220BD0112A08BF602207D0402A08BF41
:1026C000702203D0502A0CBF802290228901090A6F
:1026D00042EA012141F00F0100E0001D026812F101
:1026E000010F18BF8A421CBF50F8042F12F1010FCE
:1026F0000ED08A421CBF50F8042F12F1010F07D0F0
:102700008A421EBF50F8042F12F1010F8A42E4D111
:102710004FF0FF31016070472DE9F04381B01E4654
:10272000089DDFF88C3BD3F800804FEA586313F024
:102730000108038840F6020765D0BB4207D0B3F515
:10274000C15F10D043F60607BB4218D022E000F16B
:1027500012030B604169116082693260C1692960AE
:10276000C77B047C22E000F112030B604169116019
:10277000426A3260816A2960C77B047C16E000F1FE
:102780001A030B600027C1691160026A3260416A56
:1027900029600AE000F11A030B60C1691160826AC6
:1027A0003260C16A296090F82470047E306804F0B9
:1027B000070488B105234FF6FF7240F2037103F05E
:1027C000C9FA8146B9F1050F06DA2146384603F009
:1027D00005FB316841F82900286820B305234FF62E
:1027E000FF7240F2037103F0B5FA0646052E1ADABD
:1027F000FF21384603F0F2FA296841F826004046E6
:1028000001B0BDE8F083BB4218BFB3F5C15F07BF9D
:1028100000F11203406900F11A03C0690B601060F7
:10282000002030602860404601B0BDE8F083000021
:102830000400002030B5040081B019D050234FF6B9
:10284000FF720B2103F086FA0546502D10DA04F0D2
:1028500043FC04F000FB0849DFF83C2BC1F8A80357
:102860001368D9688847000440F00B0044F825003D
:1028700001B030BD4C020200B82D002040210840BC
:102880008D1700002DE9F04186B015460C46002258
:10289000029204920392019201A9009103AB04AA4F
:1028A00002A9FFF739FF8326E20F33D148B303981B
:1028B00000281CBF019800281DD00298048040F217
:1028C0002B28039F502340F2FF324146384603F045
:1028D00041FAFF281CBF48EA842147F820100199DB
:1028E0000498FFF7D1FE15202880304603996960CF
:1028F00006B0BDE8F081029801884FF6FF72914260
:102900004DD002980480102129806C80304606B09A
:10291000BDE8F081002842D0039800281CBF019830
:1029200000281ED002984FF6FF7101805023019FAE
:1029300040F2FF322B21384603F00CFAFF2804D076
:10294000A40244F02B0447F8204001990498FFF7B3
:1029500055FE1520288030460199696006B0BDE813
:10296000F081049F502340F2FF322B21384603F0C0
:10297000F1F9FF2804D0A10241F02B0147F8201003
:10298000FF280CD002994FF6FF70088014222A808D
:10299000C4F315046C60304606B0BDE8F081032630
:1029A000304606B0BDE8F0812DE9F04391B00D4608
:1029B0000021DFF8E8890891019107910691064608
:1029C000D8F8089014461F4604F07AFC1C2803D05F
:1029D00004F076FC1B2826D1208843F607018842A4
:1029E00012D194F8240002281DDD2069DFF8902A16
:1029F00020F06041914216D020F06040DFF8841A48
:102A0000884240F01F810EE040F60202904203D15E
:102A1000E07B022807DD15E1B0F5C15F03D1E07B63
:102A2000022800F30F81002D18BF002C00F00A814E
:102A3000287829FA00F0C10740F1048100212046DE
:102A40000020C0467560B460DFF83C5AD5F8AC038E
:102A500088B106A9009107AB01AA08A92046FFF793
:102A60005BFE019850234FF6FF720B2103F072F9C1
:102A7000FF2800F0E78000F0CAFE814695F8950334
:102A8000022880F2DC80002840F0868003F019FAEA
:102A9000DFF8F809DFF8F849016841F00201016048
:102AA000DFF8F009C8F8000002A800F00AFF60781B
:102AB000DFF8E419049002AA05F56E7000F009FF32
:102AC00002AADFF8D81905F5826000F002FF02A81B
:102AD00000F0BAFE20785D4A039002AB192105F59B
:102AE0007D7000F06DFE02ABDFF8B4291A2105F20B
:102AF0004C4000F065FE00230022DFF8A81905F520
:102B00008D6000F031FE00230022DFF8101A05F27C
:102B1000AC4000F029FEDFF8080A0168C1F38140EB
:102B200038B10023DFF8FC29042105F59E6003F08D
:102B300068FAA078012804BF0D2003F0EFFA05F52C
:102B4000567003F095FD05F5547003F091FD0020DB
:102B500085F88403C5F88C030021072085F89013BD
:102B600085F8911385F82003C5F89C1300200521F2
:102B7000C5F8A003C5F8A41385F89403A349C5F8C4
:102B800088136368180007D0207A410704D5D5F868
:102B9000980300220421984795F8950305EB8002DD
:102BA000401CC2F8286385F895033C46484600F06F
:102BB00053FE3CB90FF2246191E8BC5109A880E8AA
:102BC000BC5109AC206830604FF4FA71F160A06923
:102BD000B0620120218A71837076E1693163606897
:102BE00018B130610021606803E040F6C410306124
:102BF000012131767061DFF830197162F161E068AE
:102C000000B101463162606900B17062A06800B134
:102C1000F061C82106F1380004F0D0FB002106F174
:102C2000500000F01AFE00230022DFF8241A06F1FB
:102C3000B80000F099FD304611B0BDE8F083484679
:102C400000F00AFE002011B0BDE8F083E716000096
:102C5000F0B5DFF8344894F89513002981B000F0FE
:102C60009E80B4F96C13B4F96E23914205461BD0D3
:102C700004F55471FDF7E2F968B9D4F8600328B19E
:102C80000069A84208BFD4F8600304D004F5567167
:102C90002846FDF7D3F938B1B0F930100A224FF0C9
:102CA000E043284600F0ACF900F0B1FD0646D4F848
:102CB0002803854207BF0021C4F828130020C4F868
:102CC0002C0394F89503401E84F89503C0B20028A5
:102CD00050D1C4F8985394F88403022820D100F00E
:102CE00096FD074694F8940300F0F70084F89403E7
:102CF00094F89403010704D4082104F56E7000F0E1
:102D00001EFE384600F0A8FD304600F0A5FD4FF04D
:102D1000FF3105F1500000F0CBFD00F078FD0646D4
:102D200004F56E7000F0FBFD04F57D7000F06DFDA4
:102D300004F5826000F0F3FD04F24C4000F065FD04
:102D400004F58D6000F029FD04F2AC4000F025FD93
:102D5000D4F8B01311B104F20450884704F59E6012
:102D600003F011FBDFF828078178012904BF0D204B
:102D700003F06FF9D4F89803A84204BF0021C4F807
:102D80009813304600F068FD05F1500000F08BFD0F
:102D900005F1B80001B0BDE8F04000F0FEBC01B0A4
:102DA000F0BD0000000004402DE9F04D00F02FFDC3
:102DB000DFF8D44694F8841302291CBF94F88413D6
:102DC000042907D1DFF8B028146800F045FD20463B
:102DD000BDE8F08D00F040FDDFF8A008DFF8A08826
:102DE00001680A6B904710F50036D4F8800341F172
:102DF000000A0146A8FB067B002008FB0ABB3C1822
:102E00004BEB01052C462046BDE8F08D8D190000E6
:102E10002DE9F04F83B082460F4615469B4600F0E1
:102E2000F6FC01906FF00104DFF85C86D8F8280307
:102E3000824508BFD8F82C0330B1B83000F0B5FC9B
:102E400010B16FF00204ABE0FDF70EF9060000F0E0
:102E5000C780DDE90C4908F2AC4000F0AFFCB8F8DF
:102E60006C03401CC0F30B00A8F86C03F760002053
:102E700086F83200C6F808B02021B8F86C23DFF8D5
:102E800004083286C6F810A0204009EA0101C6E90C
:102E900006014FF0000C86F833C0C6E908CCEC6898
:102EA00034642A7C86F844202B6873632A7986F878
:102EB0003820AB68F3636A69B264AB69F3642A7F54
:102EC00086F850206B7F86F851302A7C22B9EA6858
:102ED00012B1012386F844302A79002A02BF3A7BD6
:102EE00002F00F02022A04D1012286F83820BB68C2
:102EF0007363082301E017465B1E7A68002A18BF37
:102F0000002BF8D13A8802F47C42B2F5305F0AD146
:102F100096F8332042F0100286F8332040F0080083
:102F2000C6E9060103E040F00202C6E90621D8F82E
:102F30004803504507D198F84C03C10744BF00F03F
:102F4000FE0088F84C03DFF87C0704686FF0020588
:102F50000CB92C461DE0D8F8642308F55670009093
:102F600008F55473D8F860133046A0470446AC42C5
:102F70000FD0B8F96C03B6F93010884206D0B8F813
:102F80006C03411EC1F30B01A8F86C1314F1020F7E
:102F90000FD1B8F86C03411EC1F30B01A8F86C13F4
:102FA000C8F848A398F84C0340F0040088F84C0394
:102FB00016E0B6F9304096F8330040F0800086F80D
:102FC000330000218AF8FC10D8F85003B0421FBF2C
:102FD000F168087B00F00F00022808BFFDF74EFBE8
:102FE000019800F039FC204603B0BDE8F08F0000E6
:102FF0000100020401000104010002240100012477
:10300000F0B506460F46380081B014461D4603D57C
:103010000020002101B0F0BD00F083FCDFF868243F
:10302000B2F930100023B94204BF1169B14203D193
:1030300092F83310090659D4B2F988100123B94225
:1030400004BF916EB14203D192F88B1009064DD4A2
:10305000B2F9E0100223B94204BFD2F8C010B14265
:1030600003D192F8E310090640D4B2F938110323D2
:10307000B94204BFD2F81811B14203D192F83B1102
:10308000090633D4B2F990110423B94204BFD2F82F
:103090007011B14203D192F89311090626D4B2F906
:1030A000E8110523B94204BFD2F8C811B14203D1D7
:1030B00092F8EB11090619D4B2F940120623B9426D
:1030C00004BFD2F82012B14203D192F8431209068C
:1030D0000CD4B2F998120723B94204BFD2F878721F
:1030E000B7420AD192F89B120F0606D558214B43DE
:1030F000D71897F83320110605D400F022FC0220DF
:10310000002101B0F0BDD7E9082344F00A0445F0DE
:10311000E04522402B4008BF002A0ED000F011FCF1
:10312000D7E9080120402940C6E92C01D7E9082346
:1031300082438B43C7E9082313E0BA68DFF8881598
:103140008A4204D0D7F808C0C6F8A8C0B960C6E95A
:10315000284500F0F6FB4FF0FF3106F1500000F07B
:10316000A7FBD6E92C0101B0F0BD00000200004031
:10317000D0B582B00446DDE90667CDE90067FFF708
:1031800047FE0146204602B0BDE8D0400A224FF07B
:10319000E04335E700B581B0930803F001030093E5
:1031A000530803F0010302F00102FFF7EBF801B04E
:1031B00000BD00B581B0930803F00103009302F055
:1031C00001020123FFF7DEF801B000BDF0B500BF3A
:1031D00002A191E8FC5080E8FC50F0BDFFFFFFFF2A
:1031E0000000000000000000000000003A013A0169
:1031F0000000000000000000000000000022FFF7B7
:10320000D4B90022FFF7D1B900B581B06A46DFF822
:10321000C014FFF7CAF9812803BF00980002001606
:103220006FF07F0001B000BD70B50E46154600F08E
:10323000EEFA8324052E36D8DFE806F0030F1535A5
:103240001F28DFF88824D2F8601321B1D2F8601368
:103250000A8E2A8028E0802426E0DFF8701491F896
:1032600020232A8020E0DFF8641491F88423022AC6
:103270000CBF01210021297016E0DFF85014D1F8AD
:1032800028232A60D1F82C1369600DE0DFF83C2474
:10329000D2F8281301B1C9682960D2F82C1301B102
:1032A000C968696000E0032400F0D6FA204670BDCA
:1032B0009412005070B4DFF81424B2F930400023A7
:1032C0008C4204BF1669864203D192F8334025062A
:1032D00059D4B2F9884001238C4204BF966E8642CD
:1032E00003D192F88B4025064DD4B2F9E040022379
:1032F0008C4204BFD2F8C060864203D192F8E3400A
:10330000250640D4B2F9384103238C4204BFD2F8D9
:103310001861864203D192F83B41250633D4B2F9B5
:10332000904104238C4204BFD2F87061864203D1DD
:1033300092F89341250626D4B2F9E84105238C4240
:1033400004BFD2F8C861864203D192F8EB4125064A
:1033500019D4B2F9404206238C4204BFD2F820624D
:10336000864203D192F8434225060CD4B2F9984222
:1033700007238C4204BFD2F87812814209D192F817
:103380009B02010605D558204343D018C06870BC85
:10339000704770BC00207047E0010010CC2108404D
:1033A0002DE9F04B0E4682B096F9048034688346CE
:1033B000174600F02CFA344A92F8201300906FF070
:1033C00001094FF0000C012303FA0CFE11EA0E0F65
:1033D00006D04FF0FF35A84518BFE04500F0068045
:1033E0000CF1010CBCF1030FEED342E05FFA8CF05C
:1033F0000328F5DA02EB401505F53075A87A0028A8
:10340000EED121EA0E0082F82003AB7285F809C0E4
:103410000A2192F82203401C82F82203C5F800B06A
:103420002B7241486860298295F90900401DA874F3
:10343000B068686100207FB13978787895F90930F3
:10344000490141EA80015B1D41EA03214FF6FC700E
:103450000140DFF880020843A86104B16C60D2F833
:10346000980310B92968C2F89813FDF707F995F980
:103470000990009800F0F0F9484602B0BDE8F08BE2
:103480000F0000010F000005B82D002000200940AA
:103490004C020200110000E0AB16000057100000C3
:1034A000ED0F0000C9160000F0B581B006460F46CA
:1034B000802400F0ACF9FFB2032F054627DADFF8CD
:1034C0000C3203EB471101F53077B87AF8B139685F
:1034D000B1421CD193F88403022812D197F9091044
:1034E000D3F89803491D0906090C41F081610022B7
:1034F00041F00101FFF759F804463846FCF782FE17
:1035000005E03846FCF77EFEFDF7B8F88124284632
:1035100000F0A2F9204601B0F0BD00001D1500002A
:10352000B44F00504B030000A91600002DE9F041F4
:1035300007460D461646832400F069F9092D80469A
:1035400000F27E80DFE805F005081114171C4153D6
:10355000696E3068386074E0386960303861012124
:1035600078697976603078616BE03068788368E0FC
:103570003168B98565E030685449C1F8A40360E05A
:10358000306848B900F043F9504991F8942342F06B
:10359000800281F8942315E0012851D100F037F919
:1035A00006464A4890F8941301F07F0180F894137E
:1035B00090F894130A0704D4082100F56E7000F007
:1035C000BEF9304600F048F93BE0404991F88403E9
:1035D000002804BFD1F85003002811D13168192008
:1035E00000F030F931681A2000F02CF929E0374F4B
:1035F00097F88403002804BFD7F85003002801D0AF
:1036000000241EE0316807F56E7000F09CF9316807
:1036100007F5826000F097F913E030782B4981F8C4
:1036200020030EE02C48436819000AD0007A810676
:1036300007D52648D0F8980332462021984700E065
:103640000324404600F008F92046BDE8F081000060
:103650006515000030B5044683B0A0686A46FFF7E0
:1036600011F98328054604D1002269462046FEF759
:103670009CFF284603B030BD043004408C0100108C
:1036800000093D00FFEFFF9F10B582B003F0F1FC91
:1036900003F022FD00210091C21EC01C0B4C0F4BF9
:1036A00001B212B204F2045003F01DFD0C490D4AA0
:1036B000C4F8AC13C4F8B023002814BF032083203F
:1036C00002B010BDC42000206B150000B82D0020F2
:1036D00001000304010004064C02020079120000FC
:1036E000352800002D710000EFF31180202102E049
:1036F000EFF31180002181F31188704780F3118866
:10370000704703F06DBE10B500F0D4FD00F0A0FFCF
:1037100000F016F8DFF8544404F10800A06602F047
:10372000D3F901F011F901F091FD01F0C4FE01F0AF
:1037300086FB00F0F5FC01F0E1F80120207010BDDF
:1037400010B5DFF82C4494F8080160B9012184F821
:10375000081101F0D3F8002104F59A7001F0D0F8B7
:10376000DFF81014086010BDFEB5044613B901F06F
:1037700051FA10E06D4600200026002785E8C100C0
:10378000986802901D788DF80050586801906B463B
:10379000204601F03FFA2046FEBD01F05BBA00F082
:1037A000D1BA0A20704701F01DBA007D7047002190
:1037B00081607AE08160704701F006BA01F0C8B913
:1037C000F8B51C0086B005460E46174603D1002307
:1037D00000F0BCFC0BE000F012F8206801906B4692
:1037E000606804903A4600F004F800F0AFFC07B0BF
:1037F000F0BD207A8DF808003146284670476846AB
:10380000DFF88013182203F0C5BE00F0D0BC6BE7D0
:1038100000F0AEBDDFF8580390F8F41001F024BDBD
:1038200010B5FFF761FF0446FFF768FF601E804197
:10383000C00F10BD00F002BE70B501F0CEF965609A
:10384000266079E100F0EABD002101604FF0FF320F
:10385000012342600372704750E7FEB50446684694
:1038600000230025002680E8680001278DF80070FD
:103870006A46204601F03CFC2046FEBD3EB5694646
:1038800000220023002481E81C0001258DF800504F
:10389000DFF8E42201F03CFC3EBD80B500906846B4
:1038A00001F04FFC01BD01F040BC01704160704768
:1038B00080B501F082FB00B95AE0002002BD01F0A2
:1038C000DBBB002101604160C1604FF0FF318160CE
:1038D000704778B5140085B005460E4603D1002226
:1038E00001F013FD13E0A068062804D310F1010FC6
:1038F00018BF00200BD101F04DF8206801906A46F6
:1039000060680290314600F004F801F0FEFC06B059
:1039100070BDE0680490A06803902846704701F0ED
:1039200094BD00F04DBE01F0ECBCDFF8440290F80D
:10393000F410012901D1012070470020704701F0E7
:1039400046BD01F098BC062902D311F1010F01D147
:1039500001F049BD704708B400B501AB02F0EBF8C7
:103960005DF808FB02F0E7B803F066FE162101607F
:103970004FF0FF3002BD000030BF7047FCE738B5A4
:1039800003F064FE03F07BFC02F078FA044604F0D6
:103990000C000C2802D1AFF300803AE060071DD480
:1039A00001F007F805460121012002F071FA0A2111
:1039B0006943884212D2DFF80C42183D656104F178
:1039C0000C0001F001F9AFF30080012002F0F8FBD8
:1039D000AFF30080002084F820001EE0AFF30080E9
:1039E000200716D4DFF8E011DFF8E0010A689368D9
:1039F00098470428F6D0E10600D408B9012000E079
:103A0000002003F022FCDFF8C801012101600068FA
:103A100001E0FFF7B3FFAFF30080BDE8314003F0F2
:103A200019BEDFF84C0190F8AC10012280F8AC20F0
:103A30000123DFF8C421116090F8141180F81431CB
:103A40005160704710B5DFF8B041606801F013FCB9
:103A5000206801F028BC0000DFF8A011C20744BFB5
:103A600001230B60820744BF4FF480730B60400753
:103A700044BF4FF480320A60704710B5DFF88021F0
:103A8000C30748BF1160840748BF5160400748BF63
:103A9000916010BD2DE9FF4102280D460DD001288F
:103AA00004D003F0C9FD00F033F942E0684600F0AD
:103AB000A4F9019A0298002337E0FFF715FEDFF81A
:103AC00044410646207878B100234FF0FF320FF2D0
:103AD0007101201D01F02CF84FF0FF306061201DB6
:103AE00001F040F80020207000F032F88046E46ACF
:103AF00001F0EBFADFF81061DFF81001B8FBF6F225
:103B000006FB128800FB04883046B8FBF0F0002367
:103B1000002112184B414AF2C5776743D21906FBC0
:103B200010864B4142F210707043C5E90023A86033
:103B3000002004B0BDE8F081BDE87040FFF7DEBDB5
:103B400010B5FFF7D1FD044600F002F801F082BD88
:103B500080B500F025FFDFF8AC108A6A904202D2EF
:103B6000CB6A5B1CCB62886202BD0000E8290020A2
:103B7000AC1E0020F83C0020502000204FF0FF3009
:103B800032BD00007446000068460249242203F05A
:103B900001BD00BFECFD010010B5DFF8041191F884
:103BA000AC00012281F8AC20DFF894110C680CB154
:103BB00022680A6001F0C5FC1CB12046BDE8104037
:103BC00008E010BDA0210020D801001000400340F3
:103BD0002C20094010B5044604F1100001F0A5FAAC
:103BE000E06818B104F10C0001F036FF2146BDE891
:103BF0001040502201F0A3B99C3B00200420094052
:103C0000182009405C200020A0860100E006010089
:103C1000204601F096BC0446002101F0CEB92DE902
:103C20007F430E461446B268DFF88457AA4203D297
:103C30006946FFF72FFF10B14FF0FF302CE0D6E9B7
:103C40000023DDE90001DDE90089101A63EB0101C1
:103C50004B450ADB01DC424507D3B268029B0029D1
:103C600008BF002803D1934201DB002112E0D21AE1
:103C700044BFAA18401E02F2E7324FF47A7192FB59
:103C8000F1F109310A22DFF82C37B1FBF2F103FB25
:103C90000011491C2160002004B0BDE870830000C1
:103CA000AC1E002080B51146B1F5803F01D3FFF76F
:103CB0005BBE002201F01CFA002002BD80B501F0BD
:103CC000DBF9002002BD38B50D46FFF7A4FFA0B90F
:103CD0006A4629460120FFF7A2FF18B103F0ACFCA9
:103CE000162107E00099204601F067F928B903F092
:103CF000A3FC91210160FFF741BF002032BD80B5D8
:103D000000F002F8002002BD4FF0FF3101F055B97C
:103D1000162101604FF0FF307047DFF8600801782E
:103D2000FDE70000DFF85C0890F8F4007047DFF86A
:103D30005428014692F8F40082F8F410704700000D
:103D4000A43B0020DFF83818D1E90023C0E90023A4
:103D50007047000000BFDFF82C08D0F8FC100847BF
:103D6000DFF82018D1F800211047DFF8180890F884
:103D70001411012280F8142190F8AC1080F8AC20C6
:103D80000320D4E710B504460320FFF7D0FF2046F8
:103D900001F0B3BE80B5DFF8E4070178012901D056
:103DA000FFF7BBFFDFF8E40701F094FEFFF7A0FC8C
:103DB000002001F060FABDE8014001F093BB10B5AE
:103DC00088B001A80FF23C311C2203F0E3FB022271
:103DD00000218DF804200A248DF81010009103941E
:103DE00001ABDFF8A427DFF8AC0700F017F908B043
:103DF00010BD0146DFF89C07F4E07FB501F0DAF86A
:103E00000546684600F025F8DFF88417DFF8A0655E
:103E100048682060019B88680A681B1AD218626093
:103E20000298CB681B18B34203D3DFF87007521C0B
:103E3000C318A360626008698218626009688A42D8
:103E400002D22068401C206001F0FDF9002004B07F
:103E500070BD1CB50446DFF8400701680A6B904747
:103E60000191009000200199616020600099090C87
:103E70000091009ADFF83815A1FB0201000C40EA1E
:103E80000140A06013BD20B502460020D2E91023F6
:103E900047F6906103F008FC0125A94228BF4FF0C6
:103EA000FF3020BD38B50C4603F0D0FB050018BF2D
:103EB0000125DFF8EC060068811D201AB0F1004FE3
:103EC00005D8081BB0F1004F38BF8C4200D20C4619
:103ED00021460120FFF7D1FDEDB20DB9FFF79DBDE1
:103EE00031BD2DE9F84C05460C46D5E910ABD5E9B6
:103EF0001267AAFB04010BFB041136184F41340C66
:103F0000002244EA07412846FFF7CCFFC5E91467C1
:103F1000BDE8F18C38B50546FFF7E6FB6D69044650
:103F2000B5F5802F34BF04252D0CDFF8740600682A
:103F300045190120FFF790FD29460120FFF79DFD5F
:103F4000DFF8642613681D6823210020A847DFF8E6
:103F50005C1601200860204600F065BFDFF83806D7
:103F600001680A6B1047000010B504460120FFF7F6
:103F700073FDA069E169BDE8104008472DE9F047ED
:103F800007460120FFF768FDD7E91601D7E910259C
:103F9000002610EB02084D414FEA184040EA054A5E
:103FA000D7E914494FF0FF304FF6FF7108EA0002DD
:103FB00005EA0103204009EA01018B4202D82CBF27
:103FC00082420126324651463846FFF76BFFD7E959
:103FD0001601C7E91401C7E91685B869F969BDE892
:103FE000F0470847F8B504460D46FFF7B7FFD4E998
:103FF000106732463B4603F057FB3DB1A6FB00235A
:1040000006FB013307FB0033C4E91223F2BD80B580
:10401000FFF76AFBFFF772FB002002BD2DE9F841B4
:1040200087B005460F4690461C46FFF75DFBDFF85C
:104030007465B16811B1FFF761FB30E0B560FFF75F
:104040005DFB0CB90FF2BC04EF60C5F81C804FF4A7
:1040500080316068A8616962002028620022002324
:10406000C5E91223217BA06801290CD168610021D8
:10407000A068C5E91001227868690021022A0CBFF6
:10408000024600220DE001460020DFF88C2303F0F9
:104090000BFB012291426861EBD3C5E910010020BE
:1040A0002CE0C5E91421C5E91601182201A8DFF8A2
:1040B000001503F06FFA029501AB2078DFF8F414D5
:1040C000009100280CBFDFF8F024DFF8F024142161
:1040D00005F1280000F059F804462846FFF797FF3D
:1040E000287C10B92846FFF715FF2CB12946304629
:1040F00000F00FFF284601E00020B06008B0BDE8E6
:10410000F08100000000000000000000E803000053
:10411000000000000000000000000000000000009F
:1041200038B5DFF8604404F18405287F68B90121BF
:104130002977FFF7D9FAE16F2868C90800EBC101B8
:104140000839A1674FF0FF31A16631BDF8B5DFF83E
:104150003464DFF890740446D6F89C000D4650F89D
:104160002510B9420DD106F5D2700090294620469F
:1041700000F00BF840B1D6F89C0050F82510B94279
:1041800001D10020F2BD2046F2BD1CB504460BB99A
:10419000DFF81C3404980090204600F00AF8010073
:1041A00003D0204600F06DF80024204616BD002103
:1041B00067E0F8B51746069CDFF82C24362905463B
:1041C0001E4602DB002300930DE0DFF8B803E9810F
:1041D000D0F89C3053F82100DFF80834984209D019
:1041E000002300936C320B460021204601F03DFC79
:1041F0000120F2BD084600F099F86F6070682860F1
:10420000306910F1010F08BFFF2028730021307AB8
:1042100000B10121307D08B141F00201A9602846BA
:10422000214600F003F800B1801CF2BD38B5044609
:10423000217AB4F90E008A07054602D5217B202990
:1042400007D2616800F0B8F8B4F90E004042E0818E
:104250000AE0DFF83013D1F88C00DFF8841440F85E
:104260002540284600F0A8F8217B284600F0D6F823
:10427000207AC10744BF284600F07AF80020A060E9
:1042800032BD012900D1704710B5B0F90E40002CA5
:1042900048BF6442204600F049F8DFF84813204642
:1042A00000F08AF8DFF8DC12D1F88C20002042F808
:1042B000240010BD70B5FFF717FADFF82834DFF8D7
:1042C0002804DFF82814DFF82824DFF828440A60DF
:1042D0001B1A8B60DFF82034C868186002461D681E
:1042E000A5420FD0002554F8256040F825606D1CCC
:1042F0000F2DF8DB0F20DFF8EC4242F82040401C85
:104300003628FADB5C68DFF8F40324F47F440419F0
:104310005C600A62202199764FF40070D860DFF863
:104320007C04016821F04041016070BD10B50F2888
:1043300011D9A0F110011038012200F01F00DFF8A0
:104340006034DFF860444909824053F8210044F8A2
:104350002120104010BD09D1DFF8C01408680A6898
:1043600022F0020200F002000A6010BD002010BD21
:104370000F280FD9A0F110011038012200F01F0002
:10438000DFF81C344909824053F8210043F821200A
:104390001040704709D1DFF8841408680A6842F0B9
:1043A000020200F002000A6070470020704700001F
:1043B00000CA9A3BA0860100DFF8C821D2F88830F5
:1043C00003EB800002688A4218BF0160704710B595
:1043D000DFF8B041A06F03F08FFA0021A16610BD95
:1043E00070B50246DFF80403836853600468946084
:1043F00025462878BE2803D001200023136070BD15
:1044000000200029F9D015F8016FBE2EFBD06442C0
:104410002919491E5B1AF1E740420F00102805D305
:10442000DFF8B824104400F8101C7047042804D3A7
:10443000DFF8AC24104400F8041C7047102803D3A4
:10444000DFF8F81410380860704710B54D4B0FF2C4
:104450001504012283F86C2014B1BDE8104001E07E
:1044600010BD000018B50446DFF8C41448680122E6
:104470009FB00A7008B901AA4A60204600F014F8FB
:104480000320FFF754FCDFF8B804DFF8B824036812
:10449000A06B009003F0FF030F2B28BF7C3201F0CC
:1044A000C0F820B010BD0000F0B5364C226F04F10A
:1044B000F40501462E78167000230E6A166100205E
:1044C0004F6A57618E6A9661CF6AD7610E6816622D
:1044D0004F6857628E689662CF68D7620E6916631E
:1044E0004F6957638E699663CF69D76301F14007BF
:1044F0000E6B166457644E6B966404F184068F6BE2
:10450000D764C96B11651778032F14D8DFE807F05B
:1045100009070210B06B5060C36A806A0BE0E86A5A
:1045200006E0B06801F0FF0150F82110516000E092
:104530005060E36F3068D0609360616F39B10028DC
:1045400004E013F8014B01F8014B401EF9D1DFF8EC
:10455000F0030168DFF8A0045165037893654178A2
:10456000D165438813664168516683689366C16864
:10457000D1660369136740695067F0BDE8290020E0
:104580008C1F0020AC1E0020F14A00006B3D000093
:10459000A83B0020F02900208C010010003665C4E3
:1045A000302009408C200020840100108002244328
:1045B00074460000502000207D3F0000693F00004D
:1045C000DFF8141491F81401012281F814217047C6
:1045D000DFF8041491F8AC00012281F8AC20704798
:1045E0000000000015C80100DCD801002DE9F041F1
:1045F00000F0E0FCDFF8E07397F8AC50012087F89A
:10460000AC0097F8146187F814010020FFF78FFBC6
:104610008046D7F88C00DFF828130A6802F0FF0202
:1046200050F82270BC60FFF763F8386879688847F3
:10463000FFF75AF84046FFF77AFB06EB0520BDE886
:10464000F08100F0FF0000F031BE000A00F094BFDE
:10465000F8B5002101A8FFF7C3FE0398009004E01D
:10466000BE2101700099491C009100986845F7D35C
:1046700005B000BD000000000000000001000000C7
:1046800000000000E00000000100000070B5049C84
:10469000059D069E8908491E40F82140491E40F8A4
:1046A0002130491E40F82120491E40F82160491E52
:1046B00040F82150491EDFF80C2840F82120491EFF
:1046C0004FF0FF3240F8212000F01AF800F018F8FF
:1046D000491E40F8212000EB810070BD0000000061
:1046E000F1C6010000400120003C0120281F0020ED
:1046F000003C01200000000008ED00E00000FA0589
:10470000491E40F82120491E40F82120491E40F84A
:104710002120491E40F82120491E40F82120491E31
:1047200040F82120491E40F82120491E40F8212050
:10473000491E40F82120491E40F82120491E40F81A
:10474000212070477FB504460D46A16A164619B16F
:10475000E06ABE2203F0FCF8E16B02913346A06BE5
:1047600001900095A16A626BE06A091FFFF78EFF56
:1047700004B070BD10B504460120A0600021216185
:104780000022E26004F1140000F0D8FB2146BDE8ED
:104790001040DFF83C0700F0BCBB000034EF00E045
:1047A00000E100E080E100E0F8B50646DFF824070C
:1047B000046984B09CB16569077801210170B06813
:1047C000012807D10021B1603461F56000F07CFB65
:1047D000002020E03069A04203D100F075FB0120E9
:1047E00019E0204601F08AF8002102940391C4F8F0
:1047F00024D02A46694606F1140000F041F83069D9
:104800004069A84203DA3069294601F023F800F034
:104810005BFB0020606205B0F0BD000010E000E02E
:1048200070B5DFF8B0260546106938B31478012357
:10483000137009BBE96842699142BCBFE96801F0A5
:1048400009F8686905F11401884202D10122AA60C1
:1048500012E068690168696105F114024A608668BE
:104860002E617069E860FEF73FFF05462946304635
:1048700001F074F800F0E7FC00F023BC70BD00000C
:1048800010B50346186800E00068984207D08468B5
:1048900064699442F8DABDE8104000F033BBBDE82B
:1048A0001040184600F01FBB10B5044609B90FF2BE
:1048B0002801FFF75FFF204610BD10B5044601F048
:1048C000B5F818B12146BDE81040EDE710BD0FF274
:1048D00008012FE0000000000000000000E400E0FC
:1048E00018ED00E0806903F049B9806903F048B928
:1048F000806903F047B9806903F049B903F038B91A
:1049000010B504460020A061DFF86016DFF86026CD
:10491000DFF8600621606260A06004F11001DFF83A
:104920005826DFF85806E26000F0F3FA204610BD82
:10493000181F00200A6802607047000000EF00E0C6
:1049400004ED00E020D6010018B5234C94F8650072
:1049500085B0E8B9012284F865200021204600F0E6
:10496000EDFA00F073FC00F015F80520039004F553
:10497000D2736A460FF2E10104F1100000F04CFD21
:10498000E064FFF71CFADFF85407FFF77CFAA06534
:1049900006B010BD6846DFF84817142202F0FABDD1
:1049A00038B5FEF7A1FE04460020FFF722FA0546BF
:1049B0000DE038B5FEF798FE04460020FFF719FA1F
:1049C00005494D6D2D1A886DA84238BF0025204637
:1049D000FEF794FE284632BDAC1E002038B50446D2
:1049E0000D462146DFF8F406FFF77BFADFF864078F
:1049F0000465456531BD000028ED00E02DE9F84370
:104A00000446DFF850070768D7F804800D464FF0DA
:104A1000FF391BE03E463F68307D012816D1012C4E
:104A200004BFF168A94209D1306900281DBF4118AF
:104A3000F16030623075F069B1698847307D0128D6
:104A400004D1F068401B484598BF81464745E1D1F5
:104A50004846BDE8F28300002DE9F843FEF744FE26
:104A600080460120FFF7C5F9DFF8E85605F15C063E
:104A700001213170002272706F6DAA68A968C41B91
:104A8000401ABA1A904202D2002030702BE000F097
:104A90006FF94FF0000907E04F4439460120FFF756
:104AA000ADFFA4EB090481464C45F5D2FEF71CFE90
:104AB00080467078012804D139460020FFF79EFF18
:104AC0008146A86D19F1010F05D0A86DA9EB04046A
:104AD000A04288BF2046C119FFF780FF01200021B6
:104AE000B0703170AF604046BDE8F243FEF706BEDD
:104AF000DFF86006C06C00F03EBC000038B504462C
:104B00001D46A260002268682061A1612146A86854
:104B1000E0612275DFF83C0600F0FBF9287818B157
:104B20002046BDE832404FE031BD000038B572E1AB
:104B30008260816100220261C36102750146DFF873
:104B4000140600F0E6B98260816100220261C3614F
:104B50000021017570470146DFF8F805C3E1000048
:104B600000F0E5B970B50446DFF8E865A06820629A
:104B700006F15C05A978012904BF2878002816D120
:104B80000120FFF736F9B168736D0246B0681B1A51
:104B9000511A8B420BD3A0688118E1600123237561
:104BA000746DA21A90420DD2BDE8704016E7FFF76F
:104BB000F7FEA1680818E060012020752978012916
:104BC00008BF687070BD000038B500F0F3F9054605
:104BD0002046FFF7C7FF25E1BAE704460D46164613
:104BE000FEF782BD70B500F0E5F90646207D002590
:104BF000012807D1FFF7D4FEE5682D1A206AA842E4
:104C000038BF002500F061FA284670BD007D70476E
:104C100000F068BA10B504460BB90FF20C03FFF7A9
:104C20006DFF204610BD00000000000000000000E5
:104C30000000000070B504460D46164600222421EF
:104C400000F0F7FE28B133462A462146BDE8704001
:104C5000E0E770BD6AE710B504460022A2600021BB
:104C600004F10C0000F06AF92146BDE81040DFF8BD
:104C700054074EE138B500F09DF90546207C022826
:104C800004D1204600F053F900F08EF9CAE010B5C7
:104C9000836884681A400C408C4208BF0A4312B1F2
:104CA000816891438160104610BD2DE9F0431C4698
:104CB00091B081460D46174614F1010F18BF002C24
:104CC0000CD06B462246DFF8481708A8FFF73BFFD9
:104CD00008A9022203918DF8102004E0002003218E
:104CE00003908DF810100021DFF8E8610695079712
:104CF000059130690290FEF7F7FC80463A46294656
:104D00004846FFF7C4FF050003D000F031F82846FD
:104D10002BE01CB900F02CF8002026E034780120AC
:104D2000307069460298416209F10C0000F0DBF82E
:104D3000029800F0ECFD039820B1FFF70CFF0398F8
:104D4000FFF710FF00F014F8FEF762FFFEF7CCFC4F
:104D50000446039818B1FFF703FF0020039000F00A
:104D600085F99DF8100000B1059811B0BDE8F083F9
:104D70004046FEF7C3BCF8B505460E46FEF7B4FC48
:104D80000446A8680643AE6005F10C00E96881425C
:104D900002D1204600F053BADFF8B80390F8AC60B7
:104DA00000F01CF82846EF68FA69B969FFF76FFF51
:104DB000786160B1384600F0BAF801203874F868BC
:104DC00008B1002101752146B86800F0C7FD00F068
:104DD000FBFA3046BDE8F24000F0B3BB012180F899
:104DE000AC10704710B5044609B90FF20C01FFF77B
:104DF00032FF204610BD00000000000010B5044640
:104E00000B460022142100F014FE18B12146BDE823
:104E10001040E7E710BD0446FEF766FC0546204655
:104E200000F085F82846BDE83240FEF767BC2168EF
:104E30001422002000F043FE0020206010BD78B551
:104E4000DFF89046207889B0E0B901252570FEF79B
:104E50009BFE4FF44072059204F160010FF22802AC
:104E600004910092002603968DF8205000236A4694
:104E70000FF23501201D00F0A8FDDFF89815201D68
:104E8000C1F8D8000AB070BD74692E737973626975
:104E90006F732E6B6E6C2E5461736B2E49646C6550
:104EA0005461736B0000000080B500F001F8FCE76E
:104EB00010B5DFF8C046206880476168BDE8104043
:104EC0000847000045850000384600F03ABB000066
:104ED00098200020581F00200168814201D1012044
:104EE0007047002070470EE038B500F063F8256881
:104EF000296821602A685460FFF76ABD406000603D
:104F00007047000000BF426808604A60116041605D
:104F1000704738B500F007F82C6061686960626816
:104F2000156065607FE704460D46FEF7DDBB01684E
:104F3000426811604168006841607047DEE7002008
:104F400000F0BDBD10B5044610782074618204F1F4
:104F500014000021FFF7F2FF0021A160012021468B
:104F6000E060BDE81040DFF8E408D2E7E548000063
:104F7000EB480000F7480000F1480000A0200020A6
:104F800000BF00F11401816100F114024261704719
:104F900038B500F00FF80546207C022803D100F058
:104FA000CEF800F001F83DE7002020742946A06803
:104FB00000F0D4BC0446FEF797BB70B50C468EB02B
:104FC000054614F1010F18BF002C0AD06B4622468B
:104FD000DFF87C1805A8FFF7B6FD05A903910222AA
:104FE00002E00021039103228DF81020FEF77CFBE4
:104FF0000646688A002831D11CB900F066F8002006
:1050000032E0DFF8F40804780121017000690290B1
:10501000C0F824D000F07BFC694605F11400FFF7CE
:1050200062FF9DF81000022805D10398FFF793FD59
:105030000398FFF797FD00F048F8FEF7E9FDFEF74B
:1050400053FB0446039818B1FFF78AFD0020039034
:1050500000F00CF89DF8100030B104E0688A411EA1
:10506000698200F032F801200EB070BD0020029974
:1050700048622046FEF742BB70B50546354890F8B9
:10508000AC4000F025F80646686905F11401884235
:1050900007D1287CC1074EBF0120688A401C688266
:1050A0000DE06A6910686861416001201074D06881
:1050B00008B1002101753146906800F04FFC00F006
:1050C00004F82046BDE870403BE23046FEF716BBD0
:1050D000012180F8AC10FEF707BB0000F02900208A
:1050E0003054000000210022002380E80E007047A9
:1050F00010B504460AB90FF20C02FFF723FF204651
:1051000010BD0000000000000000000000000000D2
:1051100038B504460D46134600F089FC20B12A46F6
:105120002146BDE83840E3E732BD38B50446FFF715
:1051300027FFFEF7D9FA054600F001F872E620468F
:10514000F5E610B504462068FFF7EFFF21681C2242
:105150006FE60000AC1E0020B0FA80F0C0F11F0026
:1051600070472DE9F843044604F12800DFF84C5855
:10517000C168D5F81080EF68AE682961EC60002343
:105180008168A96000214268826001702B70012053
:10519000FEF7CDFD8146FEF7ABFAE169A0696269D1
:1051A0009047FEF7A1FA4846FEF7C1FD012028709E
:1051B000C5F81080EF60AE60BDE8F18338B5DFF868
:1051C0002C48E5682068FFF7C7FF216901EBC001A3
:1051D00000F090F803D12168426A91432160FFF703
:1051E000C0FF206830B1FFF7B7FF216901EBC001B4
:1051F0008D42EDD331BDF8B5DFF8186206F58A743B
:105200002769FEF771FA05466068FFF7A5FF616937
:1052100001EBC00087420FD296F8AC70012086F8EF
:10522000AC00DFF8CC0702F057FB0020207000F044
:105230000AF83846FFF7CEBD002020702846BDE8AA
:10524000F240FEF75BBA2846FEF758BA38B5DFF8E9
:10525000A447207A38B901212172002500F03CF9D9
:105260006D1C062DFAD331BD481E8041C00F70471A
:10527000FFF7A6B90000002800D0704710B5FEF770
:1052800033FA644C04F58A72516821B1FEF736FA9C
:10529000FFF7B1FF02E01170FEF730FA94F8AC00AE
:1052A000012184F8AC10BDE810404AE1002800D08C
:1052B000704738B5DFF804476068C0B1FEF718FAE8
:1052C000FEF712FA25696068FFF746FF616901EB96
:1052D000C0018D420BD200F00DF803D16168426A23
:1052E00091436160FFF73DFF60680028ECD100202A
:1052F000207031BD086802680A6051600A688A42FD
:1053000070474448D0F81C01704710B50446DFF8D8
:10531000783700F081F8606900B90024204610BD9C
:1053200038B5406000601368416103615168816174
:105330009368C361D16811F1010F08BF05210162B3
:10534000012303FA01F14162002400F128010C70ED
:1053500013698B6012694A602E4A046AD2F82831B8
:1053600003EBC405CD6000F1080102F58670FFF77C
:10537000D0FD002032BD2DE9F0418046FEF7B4F9A2
:1053800008F124050446287920B12046BDE8F04103
:10539000FEF7B4B90120DFF82476287141463E7843
:1053A00038702869FFF79FFD7968286801437960A4
:1053B00000F00AF816B9BDE8F0411CE7BDE8F0813D
:1053C00000000000A82000202046FEF797B938B55D
:1053D000FFF7A9FD216B0D432563FEF78FF92046EA
:1053E000BDE83240C7E738B50D46044615F1010F58
:1053F00008BF0525FEF778F90121A9406162256201
:10540000044AD2F8281101EBC5036363FFF70BBD13
:10541000754C0000AC1E002010B504460AB90FF20E
:105420001002FFF77DFF00B10024204610BD0000F0
:105430000000000000000000000000000500000067
:1054400000000000214600F03ABB38B5FFF7B2FD7E
:1054500000F0FDFAFFF7E6BC70B5DFF8D04600209B
:10546000207101E000F093FA20680028FAD020684B
:10547000FFF772FE6169226901EBC00082420ED221
:10548000E56820610068E06006463146284600F085
:105490008DF806F11C0105F11C0003F047F8207996
:1054A0000028DCD170BD10B5DFF84C44207A08B17B
:1054B000FFF7D2FF57E038B5DFF8D447207E38B980
:1054C00001212176002500F007F86D1C062DFAD386
:1054D00031BD0000582A00202268002102EBC500DF
:1054E000FFF72CBD10B596B0FEF7FEF8DFF83C468E
:1054F00001E000F04CFA20680028FAD02068FFF79D
:105500002BFE616901EBC000206101460868E06084
:10551000002020710220FEF70AFCE168002000F064
:1055200045F8FEF7E5F8FEF7DFF8FEF750FFE06814
:1055300000F11C0107A802F0F9FF16B010BDFFF73B
:1055400047B8002800D0704710B5FEF7CDF8DFF857
:10555000440700F1AC04217A012902BF90F814013C
:105560000028FFF779FF00202070BDE81040FEF70B
:10557000BFB80000A41E0020002800D0704710B55E
:10558000DFF8100700F1AC04217A012902BF90F87E
:1055900014010028FFF760FF0020207010BD0000FC
:1055A00000BFDFF8F006D0F8BC007047BCB50400BF
:1055B0000F4635D0E06ADFF8E0560178BE2905D005
:1055C0000022009223462A4600F02BF8F86A017860
:1055D000BE2907D0002000903B4605F16002002163
:1055E00000F043FAE06A01A9814222BFA26A801852
:1055F000884207D20091234605F1C0020021002015
:1056000000F033FAF869FA6A904222BFBB6AD218F6
:10561000824205D200903B4605F5947200F001F8F5
:10562000B3BD0021002020E290F84800012800D0FE
:10563000704710B5FEF758F8DFF858160446D1F851
:10564000B800401EC1F8B80004D1FFF7BDFE00202D
:10565000FEF786FB2046BDE81040FEF74FB870B558
:10566000DFF838060469057801210170FEF73CF87F
:105670000646204600F04BF9032084F8200020461F
:10568000FFF7D2FFFFF721FD64602460FFE72846A3
:10569000BDE8704055E7F8B5174604463868206104
:1056A0000E46F96861611D46B869002803BFDFF83E
:1056B000F005016821632063796909B94FF400712D
:1056C000386948B3C21DD208D200891A4118C908E6
:1056D000C9004FF0FF30E262A16220636663786820
:1056E000DFF8B065A063B968E163F869206404F18C
:1056F000480097F820100170012904D1D6F8B8109D
:10570000491CC6F8B8100022C2602946204600F0A5
:1057100018F870B1801CF2BDC91DC908C900A1628A
:105720000822206B00F0B2F90028E062D6D10120F7
:10573000F2BD04F1080106F1A400FFF7EAFB002026
:10574000F2BD70B50B460446DFF85825DFF8581552
:10575000FEF7F8FFE06108B9012070BD012084F870
:105760002000002161626069DFF82815002808D553
:10577000002201F1D000A261E0642146FFF7C9FBDD
:1057800018E060690122824001F1AC00A2618169E8
:10579000626901EBC203E364012105780170FDF742
:1057A000A3FF0646204600F0CFF8FFF78EFC284600
:1057B000FFF7C7FE002070BDF8B50029044641D1AF
:1057C000DFF8D8743D7801203870FDF78DFF06466C
:1057D00094F8200001280FD1FFF7B1FCE06C0168BC
:1057E000814203D17A68A06982437A60606A80B19D
:1057F000C06808B1FFF7B4F994F82000022808D176
:10580000606A68B1FFF793FB606AC06808B1FFF790
:10581000A7F994F82000032802D1FFF790FC02E0DA
:105820002046FFF701FFFFF750FC2846FFF789FEEF
:10583000206B10F1010F04D0A26AE16ABDE8F840C4
:105840003DE1F1BD0129F3D1F1BD0000B020002000
:10585000914F00002DE9F84FDFF838B40BF1AC049C
:10586000054694F80080012020700E46FDF73CFFAD
:10587000D5F814A0B245814636D0002E03D50027B6
:105880000BF1D00B04E0A0690127B74000EBC60B79
:1058900095F8200001281CD12846FFF748FBE86C4A
:1058A0000168814203D16268A8698243626020690D
:1058B000A84207D1C4F814B02946DBF80000FFF76E
:1058C00021FB03E029465846FFF70DFB606838438B
:1058D00060606E61AF61C5F84CB0002E44BF00201F
:1058E0006061012121724846FDF708FF4046FFF73D
:1058F00028FE5046BDE8F28F581F002038B5FFF74C
:1059000059FB0546204600F002F8FFF78BBA2DE957
:10591000F0410446DFF81452D4F84C802E68A76991
:10592000FFF705FBD8F80010414504BFBE432E60C9
:10593000E868A04204BF00212961022084F8200009
:1059400001212971BDE8F08138B5FFF733FB054629
:105950002946204600F002F8FFF764BA2DE9F0412D
:10596000DFF8C861376804468846A569E06C2146BF
:10597000FFF7B9FA2F433760012184F82010012086
:105980003071FFF7F5F9BDE8F041FDF7ADBE80B528
:10599000DFF8180320B9FDF7ABFEFFF789FA09E03D
:1059A000FDF7A6FE002001E00098401C0090009842
:1059B0000028F9D0BDE80140FDF796BEC01F0020C9
:1059C000DFF8EC12242201F0E5BD10B504460AB957
:1059D000DFF8DC22FFF75FFE010003D02046FFF76F
:1059E000EBFE0024204610BD00000000C41F002074
:1059F000BD510000D41F0020F8B500F011F8582167
:105A000000F017F8040009D03B4632462946FFF75C
:105A1000DCFF18B95822FFF715FD00242046F2BD1F
:105A200005460E4617463B46002270470B460022AD
:105A30001C2100202AE038B5FFF7BCFA00F007F877
:105A4000FFF701FC2046BDE834400021B4E60546DE
:105A500004F10800FFF76BBA10B504462068FFF7A1
:105A6000EAFF21685822FFF7E4B90749884283B06A
:105A700001D103B0704700B96846039902604360E2
:105A80008160FEE70000000050200020F8B504000F
:105A90000E461F4604BFDFF81C02046802B9082244
:105AA00025682046A847050007D100962346DFF861
:105AB000082200213846FFF7D8FF2846F2BD08B972
:105AC0007C480068436818477C49087A08B9012275
:105AD0000A72704738B5FFF76DFA78494A680125B0
