:100000000040012075F801008DBD01008DBD01008B
:100010008DBD01008DBD01008DBD01008DBD0100B4
:100020008DBD01008DBD01008DBD01008DBD0100A4
:100030008DBD01008DBD01004DBD010070B50446B0
:100040000D4603F02EFB2968002639B119B10A6963
:10005000A24208BF0E4609680029F7D103F046FB0B
:10006000304670BDDFF8041891F833000022030613
:1000700003D4582042438818704791F88B0001221E
:100080000306F6D591F8E30002220306F1D591F8B4
:100090003B0103220306ECD591F8930104220306E9
:1000A000E7D591F8EB0105220306E2D591F843026A
:1000B00006220306DDD591F89B0207220306D8D558
:1000C000002070472DE97043064614461D4603F094
:1000D000E8FA6EB1D6E90A2322432B43C6E90A2384
:1000E000D6E9088948EA040449EA0505C6E908454D
:1000F000BDE8704303F0FABA30B581B004460D464E
:1001000002F098FDA04231BF241A641E241A641C18
:10011000A40805F57A70A04238BFB4F1405F06D25A
:10012000641B012C98BF0124204601B030BD002083
:1001300001B030BDF0B5DFF8343704460025D3F800
:100140005003012981B024D100E00068002852D07A
:10015000C668377B07F00F07022F1AD00068002807
:1001600049D0C668377B07F00F07022F11D000680F
:10017000002840D0C668377B07F00F07022F08D051
:100180000068002837D0C668377B07F00F07022FBA
:10019000DBD180B3012502B11060C268167B06F086
:1001A0000F06022E27D1012904D10169CA68898D61
:1001B000511813E0118840F6030291421CBF40F62B
:1001C0000406B14207BF01694A6901690A69498B9E
:1001D000561893F82213192212FB0161406BFFF7A6
:1001E0008BFF20600A20C0462168B1FBF0F0206040
:1001F00001B02846F0BD0020206001B02846F0BDC7
:10020000F0B581B0044603F04CFA0546002C1CBF43
:10021000A07A002833D0DFF8583694F909001E6818
:100220000122F70702FA00F10ED5DFF848361E6802
:10023000370609D5DFF840365E68113002FA00F063
:10024000C04306405E6018600020A07220722060EB
:100250006060C4E90400DFF81436A06194F9090075
:1002600093F820638240324393F8220383F82023DB
:1002700010B1401E83F82203C8B200F062F928468C
:1002800001B0BDE8F04003F031BA00002DE9F047BD
:1002900000261124DFF8E055DFF8D0954FF0010873
:1002A000F0B2032848DA09EB401000F53077B97A4C
:1002B000012941D197F90900113008FA00F0C14332
:1002C00029606A681043686097F9090008FA00FA23
:1002D00003F0E7F999F894134AEA010A89F894A31C
:1002E00003F004FA99F88403022817D107F11000EB
:1002F00005F002FB00F0FF0001280FD1B86948B1FA
:1003000099F88413022909D105F0F6FA00F0FF00EC
:10031000012803D10220B8720EE000BF99F8210332
:1003200097F9091004FA01F1084389F82103002123
:1003300009F5826003F04EFA761C032EB0D3BDE8B7
:10034000F08730B5042881B020D1DFF8204504F5CE
:100350008D60007DC046C8B10A20C046054604F540
:100360008D6003F06AF94543B5F5967F0ED204F52A
:100370008D6003F06DF9052005F0B9FC012084F8CB
:100380009103042104F56E7003F024FA002001B0FB
:1003900030BD70B5044603F084F9DFF8D06405463B
:1003A00096F84C0320EA040486F84C430024D6F85F
:1003B000280320B1B830007DC04600B10124D6F832
:1003C0002C0320B1B830007DC046044319D196F803
:1003D0004C03002808BF002C13D1D6F8480380B185
:1003E00090F828108A070CD5446A284603F07EF955
:1003F000D6F8480300220221A0470020C6F848038F
:1004000070BD2846BDE8704003F070B9F0B4002913
:100410000CBF01230023002A0CBF01250025002862
:1004200039D02C0004BF90F84440002C33D0002970
:100430001CBF91F84440002C12D0446B0E6C07692D
:100440000969A408A4EB96040026B94218BFFE6807
:10045000A41B04F18054B4F1805F88BF012301D84C
:10046000190018D0BAB1D1680C7B04F00F04022C2B
:1004700011D1516B046C126900698908A1EB9401D8
:100480000024904218BFD468091B01F18051B1F1DA
:10049000805F88BF01252B40F0BCD8B27047F0B513
:1004A00081B01E466FF002078DF800700546346873
:1004B0002246FFF7ABFF10B101208DF800009DF937
:1004C0000000B84201BFE968087B00F00F00022875
:1004D0000CD100E024684CB1226821462846FFF781
:1004E00095FF0028F6D002208DF800009DF900103D
:1004F000B94204D1E86B10B104218DF800109DF9C8
:100500000070012F06D12946304605F0F7FE384627
:1005100001B0F0BD022F09D12268002A29463046D9
:1005200008D005F0C8FE384601B0F0BD042F03D155
:100530002946304605F0D2FE384601B0F0BD002015
:10054000704730B581B0044603F0ABF80546C748A4
:1005500090F8941321EA040480F8944390F89423CB
:10056000110704D4082100F56E7003F033F9284612
:1005700001B0BDE8304003F0B9B82DE9F04F0646B0
:1005800081B0002030600024DFF8E092D9F85003F9
:1005900018B3C1680A7B012402F00F02022A1CD1A1
:1005A0000A88192140F603039A421CBF40F604054D
:1005B000AA4219BF0269136902695369528B406BE1
:1005C0009A1899F8223311FB0321FFF795FD054690
:1005D0000A20C046B5FBF0F801E04FF00008002506
:1005E0004FF0FF3A0027F8B203281EDA09EB40115A
:1005F00001F53072907AC0B1107A0125022825D019
:10060000D9F898030169408B99F822330918192009
:1006100010FB03115069FFF76FFD83460A20C046A7
:10062000BBFBF0F0504598BF82467F1C032FDAD306
:10063000E3B230682B420CD0D0450BD9D0464046AF
:1006400030602C43E0B201B0BDE8F08F4FF0000AFB
:10065000EEE734B1404630602C43E0B201B0BDE873
:10066000F08F05B1504630602C43E0B201B0BDE8D8
:10067000F08F2DE9F04FDFF8F4A181B09AF88413E0
:10068000022905D101B0BDE8F04F192003F01CB8D4
:100690009AF8840301281CBF9AF88403042800F008
:1006A000878002F0FEFF00900024DAF85003002556
:1006B00018B3C1680A7B012502F00F02022A1CD17F
:1006C0000A88192140F603039A421CBF40F604062B
:1006D000B24219BF0269136902695369528B406BB8
:1006E0009A189AF8223311FB0321FFF705FD0646FD
:1006F0000A20C046B6FBF0F800E0A04600264FF006
:10070000FF390027F8B203281EDA0AEB401101F581
:100710003072907AC0B1107A012602281DD0DAF822
:1007200098030169408B9AF822330918192010FBAD
:1007300003115069FFF7E0FC83460A20C046BBFB6B
:10074000F0F0484598BF81467F1C022FDAD9354228
:1007500005D044464C4507D905E0A146F7E70DB161
:10076000444601E006B14C46354317D064B12146FA
:10077000012998BF01210AF58D6002F065FF0AF595
:100780008D6002F063FF0DE00AF58D6002F060FFFE
:1007900004210AF56E7003F01DF803E00AF58D6080
:1007A00002F056FF009801B0BDE8F04F02F09EBF86
:1007B00001B0BDE8F08F30B585B00146002203924C
:1007C00001920492029240F602058C68487E628093
:1007D00023885B1B09D041F21E055B1B05D041F647
:1007E000E6755B1B012B0FD91CE0238A4FF6FF3205
:1007F00013402382002819BF4FF60F4003402D20DD
:1008000060F3091323820DE0238B4FF6FF32134070
:100810002383002819BF4FF60F4003402D2060F3BB
:10082000091323830020487602AD009504AB01AA8A
:1008300003A9204601F0BAFE50B1039801884FF693
:10084000FF72914204D10299019801F021FE03E068
:100850000299019801F062FE0448D0F8AC1309B186
:100860000198884705B030BD00000000802D0020B1
:100870004021084000000440081004402DE9F047E2
:1008800084B00026DFF8C08B0396D8F85053029648
:10089000002D6AD0D8F86403002804BFD8F860039C
:1008A000002841D1012686F0010703AAF9B202A867
:1008B000FFF740FC04005AD1DFF8900BD0F8049009
:1008C000B9F1000F18BF002C00F0828202980028B6
:1008D00040F07E82D8F8641303980190009708F5E1
:1008E0005673D8F8600308F55472C847012800F021
:1008F0007A81022840F06C82D8F86003D8F860133F
:10090000B0F930400D6902F0CCFE4FF0FF318C425F
:1009100082464CD1D8F8600300283CD00069A84238
:1009200039D1D8F8606390E0D8F860030028BAD0D5
:10093000D8F86003016928698142B4D195F8331071
:10094000CA06B0D5D8F864030028ACD15FF0010620
:10095000D8F86003C16848880028F9D0D8F8600347
:10096000C16848880128F3D09DE70221BCE2002E2F
:10097000A2D1029800289FD00146022938BF012148
:1009800008F58D6002F060FE08F58D6002F05EFEF5
:1009900004B0BDE8F087D8F8640328B10069A84224
:1009A00008BFD8F8646350D0D8F850634DE0B8F968
:1009B00030000021A04204BFD8F81000A8423FD068
:1009C000B8F988000121A04204BFD8F86820AA42E3
:1009D00036D0B8F9E0000221A04204BFD8F8C00028
:1009E000A8422DD0B8F938010321A04204BFD8F89D
:1009F0001821AA4224D0B8F990010421A04204BFD2
:100A0000D8F87001A8421BD0B8F9E8010521A0422E
:100A100004BFD8F8C821AA4212D0B8F94002062172
:100A2000A04204BFD8F82002A84209D0B8F9980221
:100A30000721A04204BFD8F87822AA4240F0D18012
:100A4000582010FB01F108EB0106002E00F0C980D0
:100A500096F83300010640F1C480D8F8600386425E
:100A60001CBFD8F864138E4257D0D8F8504312E018
:100A70002468002C00F0B580B44211D02468002C0A
:100A800000F0AF80B4420BD02468002C00F0A980A5
:100A9000B44205D02468002C00F0A380B442E7D112
:100AA000276800953546002600E0276820690099F0
:100AB00088421FD100224FF080532046FFF702FBEF
:100AC00000224FF080732046FFF7FCFA98F84C1391
:100AD0002869C8F8480341F0010188F84C1308F56B
:100AE0005470214605F01DFC214608F5567005F0AE
:100AF000F5FB761C3C00D8D1002E1FBF98F884036C
:100B0000012898F8840304286BD0DFF8841B08F5CB
:100B10006E7002F05FFE504686E1D8F86003002256
:100B20004FF00053FFF7CEFAD8F8640300224FF0DD
:100B30000053FFF7C7FADFF85C0B04F0DDFED8F8CE
:100B4000600300224FF08073FFF7BCFAD8F864030B
:100B500000224FF08073FFF7B5FA98F84C13306914
:100B6000D8F85063C8F8480341F0010188F84C13E5
:100B7000344600E02468A4B3B4420BD0246884B3A4
:100B8000B44207D0246864B3B44203D0246844B3A9
:100B9000B442EFD12CB327680CB32069A8421ED110
:100BA00000224FF080532046FFF78CFA00224FF0CE
:100BB00080732046FFF786FA98F84C133069C8F81E
:100BC000480341F0010188F84C1308F554702146A0
:100BD00005F0A7FB214608F5567005F07FFB3C00A9
:100BE000D9D1504620E1039800B10546B5F930400F
:100BF0002F6902F056FD4FF0FF318C42064614D1AA
:100C0000D8F8600328B10069B84208BFD8F860433B
:100C100059D0D8F8640328B10069B84208BFD8F8A1
:100C2000644350D0D8F850434DE0B8F9300000216B
:100C3000A04204BFD8F81000B8423FD0B8F98800ED
:100C40000121A04204BFD8F86820BA4236D0B8F9D2
:100C5000E0000221A04204BFD8F8C000B8422DD065
:100C6000B8F938010321A04204BFD8F81821BA42CC
:100C700024D0B8F990010421A04204BFD8F8700133
:100C8000B8421BD0B8F9E8010521A04204BFD8F84A
:100C9000C821BA4212D0B8F940020621A04204BFCE
:100CA000D8F82002B84209D0B8F998020721A0422A
:100CB00004BFD8F87822BA4240F08880582010FB50
:100CC00001F108EB0104002C00F0808094F833005F
:100CD00001067BD5D8F8600384421CBFD8F86413A2
:100CE0008C424AD0D8F850032546044600E02468D8
:100CF000002C6BD0AC420ED02468002C66D0AC42E5
:100D000009D02468002C61D0AC4204D02468002CA7
:100D10005CD0AC42EBD12169B94257D100224FF0EF
:100D200080532046FFF7CEF900224FF08073204613
:100D3000FFF7C8F998F84C132869C8F8480341F040
:100D4000010188F84C1308F55470214605F0E9FAC2
:100D5000214608F5567005F0C1FA98F88403012879
:100D60001CBF98F88403042830D0DFF8241908F554
:100D70006E7002F02FFD304656E0D8F86003002276
:100D80004FF00053FFF79EF9D8F8640300224FF0AC
:100D90000053FFF797F9DFF8FC0804F0ADFDD8F831
:100DA000600300224FF08073FFF78CF9D8F86403DA
:100DB00000224FF08073FFF785F998F84C132069F3
:100DC000C8F8480341F0010188F84C1330462BE085
:100DD000002E00F08D802869D8F89813884218BF3B
:100DE0004FF4806140F08080002C1CBF02980028E6
:100DF0001FD0D8F86003002804BFD8F86403002887
:100E000017D102F04EFC044698F8940300F0F70066
:100E100088F8940398F89403010704D4082108F58E
:100E20006E7002F0D7FC204602F060FC04B0BDE812
:100E3000F08702F036FC98F8941341F0080188F826
:100E4000941302F053FC95F83300C10608F5547072
:100E500004D505F01EFAC8F8640303E005F019FA9A
:100E6000C8F86003D5E90601DFF8104BDFF8E46C41
:100E7000C043A060E268D5E906010243E260D5E91B
:100E80000623DB432360D4F804C0D5E9060141EA18
:100E90000C0CC4F804C07768EC683B46180007D017
:100EA000307A010704D5D8F898032A4608219847D4
:100EB000204604F021FD208840F60201401A08D0A7
:100EC00041F21E01401A04D041F6E671401A012891
:100ED00008D83FB1307AC10704D5D8F89803224624
:100EE0000121B8474FF0804108F56E7002F072FCA6
:100EF00004B0BDE8F087F0B5DFF84C65DFF8F40B1F
:100F000081B0D6F8605304F0A4FD0446DFF8480C25
:100F10000268076802F0200207F46027224018BF29
:100F2000002D0CD01346C6F8685300222846FFF760
:100F3000C9F84FF4804106F56E7002F04BFC3C405E
:100F40000DD096F8210340EA544486F8214306F573
:100F5000826001B0BDE8F040002102F03BBC01B06E
:100F6000F0BD2DE9F043DFF8E09481B099F821035A
:100F7000002400284CD099F821030026C1073DD554
:100F800099F821031021B140084218BF012402F052
:100F900088FB99F821131122B240914389F821135B
:100FA00002F0A4FB032E33DA09EB461101F530728F
:100FB000907A68B392F90980DFF8A01B01EB8801F1
:100FC000002C0D681668576804BF107A022803D1F8
:100FD000D2E90401C30009D41046FFF711F92CB17E
:100FE0000020009000224FF0007303E000950022E3
:100FF0004FF0006341463046B84709E099F82103B5
:1010000001268107BCD499F8210302264107B7D4F1
:1010100099F8210338B109F5826001B0BDE8F043C9
:10102000002102F0D7BB01B0BDE8F0832DE9F04309
:101030000FF23C1285B0D2E90034CDE900344FF410
:10104000804004F053FC4FF0000800B3DFF8100BB1
:10105000D0F813100078C1F31501800841EAC0717F
:10106000DFF8E403D0F89833986802AA01F054FB43
:10107000DFF8D403DFF8DC1AD0F898034B688268F5
:101080001C0004D00C7AE10744BF012198476E464A
:101090004FF0020937683868002856D03868D0E920
:1010A000060104F023FC3D680021CDE9020104465D
:1010B00002F0F7FA84467DB1D5E90A23DDE90201A1
:1010C00010431943C5E90A01D5E90823DDE9020106
:1010D00010431943C5E90801604602F007FB14F00C
:1010E0000A0F2BD03868DFF8701ADFF8783A8A6870
:1010F000DFF8644AD0E9060118408243A260224624
:1011000038681368D0E906018B4313603A68DFF84A
:10111000440A4368190007D0017AC80604D5CA4CAE
:10112000D4F89803102198473968DFF83C0A05F095
:10113000D5F80020386048F0020806E02CB1386885
:10114000C149C1F8680348F48048361DB9F1010966
:10115000A0D15FEA08011CBFDFF8100A02F03AFBD9
:10116000FFF794F8FFF78AFB05B0BDE8F0830000B5
:10117000E0300020E43000202DE9F04F81B005463A
:10118000984605F0B7FBB04FD7F8A813884200F097
:101190001881DFF8DC29C7F8A8031168CB689847E5
:1011A000064697F8840302281CBF97F88403042896
:1011B00040F00781D7F86003002804BFD7F8640324
:1011C000002800F0F280D7F86003D7F86013B0F978
:1011D0003040D1F810A002F064FA4FF0FF318C4299
:1011E000834614D1D7F8600328B10069504508BF81
:1011F000D7F8604356D0D7F8640328B1006950454A
:1012000008BFD7F864434DD0D7F850434AE0B7F948
:1012100030000021A04204BF386950453ED0B7F9E4
:1012200088000121A04204BFBA6E524536D0B7F9FA
:10123000E0000221A04204BFD7F8C00050452DD0E5
:10124000B7F938010321A04204BFD7F8182152454D
:1012500024D0B7F990010421A04204BFD7F870014F
:1012600050451BD0B7F9E8010521A04204BFD7F8CB
:10127000C821524512D0B7F940020621A04204BF4E
:10128000D7F82002504509D0B7F998020721A042AB
:1012900004BFD7F87822524540F08480582010FBD4
:1012A00001F17C18002C7DD094F83300010679D52B
:1012B000D7F8600384421CBFD7F864138C4249D02E
:1012C000D7F85003A146044600E02468002C69D0FA
:1012D0004C450ED02468002C64D04C4509D02468BD
:1012E000002C5FD04C4504D02468002C5AD04C45CB
:1012F000EBD12169514555D100224FF08053204652
:10130000FEF7E0FE00224FF080732046FEF7DAFE83
:1013100097F84C13D9F81000C7F8480341F00101C1
:1013200087F84C1307F55470214604F0FAFF214664
:1013300007F5567004F0D2FF97F8840301281CBF0C
:1013400097F8840304282DD0D14907F56E7002F078
:1013500041FA27E0D7F8600300224FF00053FEF770
:10136000B1FED7F8640300224FF00053FEF7AAFE47
:10137000C84804F0C1FAD7F8600300224FF0807328
:10138000FEF7A0FED7F8640300224FF08073FEF74B
:1013900099FE97F84C132069C7F8480341F0010102
:1013A00087F84C13584602F0A1F94FF6FC7006403E
:1013B00046F0C166D7F89803002246F0010101F01B
:1013C0003EF800210091EA1EED1C4046DFF8A437EC
:1013D00012B229B205F0DBFB78B1DFF87807436879
:1013E00019000AD0007A410607D5D7F8980301B052
:1013F000BDE8F04F00224021184701B0BDE8F08F52
:1014000030B5114C81B0B4F96C03B4F96E13884255
:1014100017D102F046F9054694F8940300F0F7005E
:1014200084F8940394F89403010704D4082104F584
:101430006E7002F0CFF9284601B0BDE8304002F0EE
:1014400055B901B030BD0000802D0020942000204F
:101450000720FEF79EBF2DE9F04107468846D7F8E2
:10146000A86014461D4606B1B047D7E9280104EA32
:10147000000215EA010308BF002A00F08580DFF8AA
:10148000F41CB1F930000026404504BF0869B84299
:1014900003D191F8330000065CD4B1F9880001262D
:1014A000404504BF886EB84203D191F88B00000616
:1014B00050D4B1F9E0000226404504BFD1F8C00085
:1014C000B84203D191F8E300000643D4B1F93801E2
:1014D0000326404504BFD1F81801B84203D191F862
:1014E0003B01000636D4B1F990010426404504BF03
:1014F000D1F87001B84203D191F89301000629D4C4
:10150000B1F9E8010526404504BFD1F8C801B84249
:1015100003D191F8EB0100061CD4B1F94002062674
:10152000404504BFD1F82002B84203D191F84302EC
:1015300000060FD4B1F998020726404504BFD1F840
:101540007802B84203D191F89B02000602D4C7E9A1
:101550002C2310E0582010FB06F6C7E92C2388192D
:10156000D0E9084524EA020225EA0303C0E908237A
:10157000D7F8A81081600020C7F8A80007F1500034
:10158000BDE8F04102F0E6B8BDE8F081704700B573
:1015900081B002F013F9DFF8DC2B0146D2F8980392
:1015A000D2F8882301B05DF804EB1047DFF8C40BD4
:1015B0000FF2C552D0F88813914208BFFFF759B80F
:1015C000042100F56E7002F005B930B581B04FF01E
:1015D000FF3004F08BF9DFF89C5B0FF29D5104465D
:1015E000D5F88803884232D10022DFF88C1B05F53C
:1015F0007D7002F06BF8022085F88403D5F898130B
:101600008A6801F1380300E00246506890B19842C0
:101610001EBF0246506800280CD098421EBF0246EA
:101620005068002806D098421FBF02465068002824
:101630009842E9D1507B10F00F0F02BF488F40F65F
:101640000901884203D0FEF721FEFFF717F9104881
:10165000044208D005F56E7001B0BDE830404FF08F
:10166000005102F0B7B801B030BD00B581B04FF005
:10167000FF3004F03BF9800708D501B05DF804EBBA
:101680004FF40061DFF8E40402F0A4B801B000BD3B
:1016900002000040010001042DE9F041DFF8D47A96
:1016A000D7F85863002E00F0AD80F068082140F6AE
:1016B000040240F6030301E04068491E68B1CCB261
:1016C0005CB104889C4218BF9442F5D1316901F1A4
:1016D00038021AC81AC21AC81AC2D6E90A45002224
:1016E000C6E90A22B068D0B115F0E24310D024F068
:1016F0000F0235F0E24308BF002A05D0B6F93010DA
:101700003069D6F808C0E04704F0000405F0E2456F
:10171000B6F9301030692246B4682B46A04701F074
:10172000C0FF0446B7F86E03401CC0F30B00A7F8D7
:101730006E036FF00201002086F83300318607F552
:10174000567004F0A6FD204601F0D0FFB7F96E03F5
:10175000B7F96C13884255D1D7F89813D7F8286396
:10176000D7F82C4300250520A84600291EBF91F874
:10177000FC1000290720FEF70CFE2EB196F8FC00A5
:1017800000B9356886F8FC803CB194F8FC0008B9D3
:10179000D4F80080002084F8FC00454538BF454659
:1017A000E5B9B7F96C03B7F96E1388422AD101F095
:1017B00078FF044697F8940300F0F70087F8940345
:1017C00097F89403010704D4082107F56E7002F01E
:1017D00001F82046BDE8F04101F088BF15F1010F86
:1017E00010D001F028FFB5FBF0F1012998BF0121CD
:1017F00007F2AC4001F028FF07F2AC40BDE8F04131
:1018000001F024BFBDE8F081DFF8682992F8841365
:101810000020022904BFD2F86013002903D1D2F8B6
:10182000641301B90120704770B5DFF8481C044605
:10183000DFF84009D0F89C6308682568026B904780
:10184000864231BF861B401E861B761C360BAE427D
:101850003CBF75196E0840F6C410864288BF064624
:1018600004D8B6F5967F38BF4FF49676266070BDE3
:1018700030B50D46A80781B0DFF8F84812D5FFF75C
:101880000BFFD4F8580340B145F0020104F56E7027
:1018900001B0BDE8304001F09DBF01B0BDE830406F
:1018A000FEF7E7BE680767D5012184F89613042088
:1018B00004F01DFADFF8BC0B01680A6B9047C4F80E
:1018C0009C03D4F8500398B10569D4F89803002814
:1018D00018BFA8420AD095F82800410704D56B6AC2
:1018E000002204212846984701206876C4F89853BE
:1018F000D4F898034168DFF8800B0A780260022070
:1019000004F0F5F9102004F007FA012084F88403AC
:101910009049887810B90D2004F0FEF9D4F89803A6
:1019200041688868002804BFC868002806D0DFF82E
:101930004C0BDFF84C2B0021C16102600720DFF85F
:10194000441B08600021DFF8340B42694161826961
:101950008161426942F0402242F0020242610FF28C
:101960002100C4F888031A2001F09CFE01B0BDE8F4
:101970003040192001F096BE01B030BD081004407F
:101980002DE9F0430446880081B040F1B080DFF8D3
:10199000E487D8F89803416848688E68CF680100EA
:1019A00018BF80473000DFF8D45A01D138000ED07C
:1019B000E8690028FCD00021E961300018BFB04779
:1019C000380018BFB847DFF8C00A03F095FF0020C1
:1019D000E86140F60A09DFF8B41A2960A8F87093A4
:1019E000A8F8720398F87C1301F0F00188F87C13D2
:1019F000C8F87403204698F87D1301F0F00141F017
:101A0000010188F87D13FEF7D6FEA668374640F63A
:101A1000040140F6030200E00746786828B1038815
:101A20004B451CBF93428B42F6D17B7B08F55C7023
:101A3000786003F0F0037B73D8F8500328B1C068D6
:101A40000088904218BF88421CD0208FD0B100215E
:101A50006187E16394F8450094F8441000F0F000C9
:101A600040F0010084F8450001F0F00184F84410D2
:101A700004F13800C8F8740398F87D1301F0F00100
:101A800088F87D13E8690028FCD00021E9610FF295
:101A9000E90298F89103C8F8882330B104F09BFA62
:101AA0000028FBD004F0A8FA0EE0012005F0CFF8E2
:101AB000012809D0787B00F0F00040F00100787335
:101AC0000FF23500C8F888030021E9612E60DFF8C5
:101AD000380C436819000AD0007AC10707D5D8F836
:101AE0009803324601B0BDE8F0430121184701B028
:101AF000BDE8F08320000E00DFF8102C114200D169
:101B0000704710B5012005F0A2F801280DD1DFF8CB
:101B100064060FF26501C0F888130022DFF85C1933
:101B2000CA6100F55C70086010BD0A20C046322111
:101B3000B1FBF0F1012998BF0121DFF8384604F527
:101B40008D6001F081FD04F58D60BDE8104001F06D
:101B50007DBD00009CF801000C100440943004404E
:101B600085030021FDBFFFFFD83000203831002061
:101B7000E0010010791100002DE9F0470446884685
:101B80005FEA484082B0DFF8EC952CD501F089FD82
:101B9000D9F8686316B3D6E90A2302F00A0413F0F1
:101BA000E04508BF002C19D1D6E90A45D6E90A2339
:101BB000A243AB43C6E90A2301F098FDB06878B1AF
:101BC000002D08BF002C0BD0B6F93010306922462A
:101BD000B4682B46A04728F48048BFE201F086FD98
:101BE00028F48048BAE25FEA880040F18280DFF89A
:101BF000200BD0F88C1041F08001C0F88C1099F8BF
:101C0000960328B1042004F00CF8002089F896030C
:101C100001F047FD0546042005F019F8D9F8B42372
:101C2000014691421DD1207E00281CBFD9F89C039B
:101C3000002816D0D9F8600370B1C1680A8840F650
:101C400003039A421FBFC068018840F60402914214
:101C500008BF04F1140001D004F11000FFF7E4FD07
:101C600005E040F6C41020616061C9F8B41328464D
:101C700001F03CFDD9F898138A6801F1380300E0BF
:101C80000246506890B198421EBF02465068002834
:101C90000CD098421EBF02465068002806D09842D9
:101CA0001FBF0246506800289842E9D1507B10F0CF
:101CB0000F0F02BF488F40F6090290420FD1256AEC
:101CC00000224FF000736FF480712046A847D9F8C6
:101CD000500310B1FEF7CDFC01E048F002082046A9
:101CE000E46900224FF080630021A04728F00058EB
:101CF00034E25FEA887009D5FFF7CEFCD9F85803C3
:101D0000002840F02B8228F0020827E25FEA4850C2
:101D100040F1B48001F0C5FC0546FFF775FDD9F828
:101D20005043012840F0A480002C00F0A180042042
:101D300089F884030022DFF8DC1909F57D7001F0D1
:101D4000C5FC284601F0D2FC09F2AC4001F080FC51
:101D5000DFF8200701680A6B9047C9F8A00301204B
:101D600089F89603042003F0C2FF2069C9F898039C
:101D700090F828104A0703D5436A002204219847A7
:101D8000D9F89803DFF8F45641688E684868CF6840
:101D9000002E08BF002F04D00021E961DFF8E02603
:101DA0002A6008B1C046C046002E08BF002F0CD0E4
:101DB000E8690028FCD00021E96106B1B04707B10D
:101DC000B847DFF8C40603F097FDD9F8980301215E
:101DD000417640F60A06FEF7EEFCD9F898339A6889
:101DE000114640F6040C40F6030E00E00146486838
:101DF00028B10788B7421CBF77456745F6D1002058
:101E000048604E7B06F0F00646F001064E73E0682F
:101E10000088704518BF604503D10020C9F8A003B1
:101E200015E0188F98B103F1380000244480446015
:101E3000047B04F0F0040473447B04F0F00444F0E9
:101E4000010444734860487B00F0F00048730020B0
:101E5000E8612A60DFF8B008446821000BD0007AFE
:101E6000C10708D501211846A04728F4806875E10C
:101E7000284601F03BFC28F480686FE15FEA0851D6
:101E800063D599F8960328B1042003F0CAFE002018
:101E900089F89603D9F8984304F1080104F138054C
:101EA0000B6800E00346586890B1A8421EBF034685
:101EB000586800280CD0A8421EBF03465868002866
:101EC00006D0A8421FBF034658680028A842E9D19F
:101ED000587B10F00F0F02BF488E40F60902904267
:101EE00007D12046246A00224FF000736FF48071FE
:101EF000A047D9F8A00398B1DFF878150868026BFD
:101F00009047D9F8A013814231BF401A401E401AB1
:101F1000401CD9F89813000BC8600020C9F8A00332
:101F20000022954909F57D7001F0D0FB022189F866
:101F30008413D9F8580318B109F56E7001F04AFC02
:101F4000FEF797FB28F4006808E15FEA087040F1AB
:101F5000FE8001F0A6FB0546FFF756FC002800F0C6
:101F6000EE8099F89403010700F1E98099F8940351
:101F7000010600F1E4806846FEF7FFFA18B1009808
:101F8000002800F0DC8099F82103002840F0D78079
:101F900000270126F8B202281FDC09EB401101F5E9
:101FA0003071887AC8B18E7291F9090006FA00FA88
:101FB00001F077FB044699F8940320EA0A0A89F8AD
:101FC00094A399F89413080704D4082109F56E70B6
:101FD00001F000FC204601F089FB7F1C032FD9D3C0
:101FE000032089F8840309F2AC4001F031FB284654
:101FF00001F07CFBDFF8844460690021616100220C
:10200000E068E16009F57D70DFF8241C01F05EFBFB
:10201000DFF8600401680A6B9047D9F89C1381428D
:1020200031BF401A401E401A401CD9F88C134FF0A3
:10203000FF32A2EB10328A4234BF4FF0FF3001EB87
:102040001030C9F88C0399F8900330B1D9F8A40383
:10205000D9F88C13C002884230D2DFF8B406026887
:10206000D10726D5DFF8300C0268110621D540F6DD
:102070000900A9F870030021A9F8721399F87D03EB
:1020800000F0F00040F0010089F87D0399F87C032E
:1020900000F0F00089F87C03C9F874130020E061B7
:1020A00009F55C71216000BFB9F8720310F4406F4C
:1020B000FAD0002189F89063C9F88C1303F029FC49
:1020C000DFF8C013DFF8404600200860636818009E
:1020D00007D0207A810704D5D9F89803002202217D
:1020E0009847022003F09DFD102003F0B0FD99F801
:1020F000950320B9D9F89803503001F02BFBA07854
:1021000010B90D2003F0A3FD99F8910328B1002127
:1021100089F89113052003F084FDDFF8800BC9F8DE
:102120008803002189F884130220B9F96E13B9F9E4
:102130006C23914208BF0720FEF72BF902E02846E6
:1021400001F0D4FAFEF795FA28F0080806E05FEAF5
:10215000480003D5FEF78DFA28F08048B8F1000F4B
:1021600004D0414609F56E7001F034FB02B0BDE8C1
:10217000F0870000802D00202D1000002DE9F54C87
:10218000DFF81CABDAF8504381B09B4600250E46C1
:1021900000E02468002C55D0B4420ED02468002CF6
:1021A00050D0B44209D02468002C4BD0B44204D0A3
:1021B0002468002C46D0B442EBD1002C42D02069D8
:1021C00001992768884237D101F06BFAD4E90A23D4
:1021D00043F08051C4E90A21D4E9082343F0805137
:1021E000C4E9082101F082FABBF1000F18D001F018
:1021F00058FAD4E90A2343F08071C4E90A21D4E9EA
:10220000082343F08071C4E9082101F06FFA9AF8BD
:102210004C133069CAF8480341F001018AF84C13A5
:1022200021460AF5547004F07CF821460AF55670F0
:1022300004F054F815F101059DF80800002818BFB6
:102240003C46BAD1284603B0BDE8F08C2DE9F04EEB
:1022500081461746032582B09B46380014BF4FF0D5
:10226000804A4FF0005A0E4601F01BFA4FF0FF3142
:102270008E420090DFF8284A38D1D4F8600348B382
:102280000069484526D1D4F86063002E00F0BA807A
:1022900096F83300010640F1B4800A9DD4F860033B
:1022A00086421CBFD4F864138E4240F09380D4F869
:1022B000600300225346FDF705FFD4F864030022B3
:1022C0005346FDF7FFFE002F14BFDFF8D809DFF8F3
:1022D000D80959E0D4F8640328B10069484508BF1B
:1022E000D4F86463D1D0D4F85063CEE7B4F93000A9
:1022F0000021B04204BF2069484503D15820414322
:102300006618C2E7B4F988000121B04204BFA26E8A
:102310004A45F3D0B4F9E0000221B04204BFD4F83A
:10232000C0004845EAD0B4F938010321B04204BFE7
:10233000D4F818214A45E1D0B4F990010421B04203
:1023400004BFD4F870014845D8D0B4F9E80105219C
:10235000B04204BFD4F8C8214A45CFD0B4F94002F6
:102360000621B04204BFD4F820024845C6D0B4F9D3
:1023700098020721B04204BFD4F878224A4541D1DF
:1023800058204143661880E703F0B6FAB5B1D4F897
:10239000600300224FF08073FDF794FED4F86403CD
:1023A00000224FF08073FDF78DFE94F84C133069D6
:1023B000C4F8480341F0010184F84C13BBF1000F4D
:1023C0001DD0D4F850132B465A464846FFF7D6FE88
:1023D000832517E02B465A4631464846FFF7CEFE86
:1023E00078B194F8840301281CBF94F8840304286E
:1023F00005D0DFF8041C04F56E7001F0EBF98325BD
:1024000000E00425009801F071F9284602B0BDE80B
:10241000F08E10B50C46DFF8881891F88423022A54
:102420000BD103F069FA04B1206000F0FF0001282D
:1024300001D1812010BD022010BD012010BDF0B5DA
:1024400081B004460D46164601F02BF90746DFF829
:102450005008D0F898138C4218BF032404D1314699
:102460002846FFF7D6FF0446384601F03FF92046DC
:1024700001B0F0BD8C010010D021084000100440D4
:1024800051000706000004600100070601010E0468
:10249000002942D00A0E202A08BF10221AD0212A71
:1024A00008BF202216D0A02A08BF302212D00AB9B5
:1024B00040220FE0102A08BF50220BD0112A08BF7B
:1024C000602207D0402A08BF702203D0502A0CBFD8
:1024D000802290228901090A42EA012141F00F017C
:1024E00000E0001D026812F1010F18BF8A421CBFF4
:1024F00050F8042F12F1010F0ED08A421CBF50F881
:10250000042F12F1010F07D08A421EBF50F8042F8A
:1025100012F1010F8A42E4D101607047002944D0D2
:102520000A0E202A08BF10221AD0212A08BF202212
:1025300016D0A02A08BF302212D00AB940220FE0DC
:10254000102A08BF50220BD0112A08BF602207D0E2
:10255000402A08BF702203D0502A0CBF802290224C
:102560008901090A42EA012141F00F0100E0001D42
:10257000026812F1010F18BF8A421CBF50F8042FE5
:1025800012F1010F0ED08A421CBF50F8042F12F135
:10259000010F07D08A421EBF50F8042F12F1010F1D
:1025A0008A42E4D14FF0FF31016070472DE9F043DA
:1025B00081B01E46089DDFF8843BD3F800804FEAC7
:1025C000586313F00108038840F6020765D0BB4248
:1025D00007D0B3F5C15F10D043F60607BB4218D051
:1025E00022E000F112030B604169116082693260E0
:1025F000C1692960C77B047C22E000F112030B60F3
:1026000041691160426A3260816A2960C77B047C3B
:1026100016E000F11A030B600027C1691160026A1D
:102620003260416A29600AE000F11A030B60C16957
:102630001160826A3260C16A296090F82470047E59
:10264000306804F0070488B105234FF6FF7240F2AA
:10265000037103F07DF98146B9F1050F06DA2146D1
:10266000384603F0B9F9316841F82900286820B3E9
:1026700005234FF6FF7240F2037103F069F9064635
:10268000052E1ADAFF21384603F0A6F9296841F829
:102690002600404601B0BDE8F083BB4218BFB3F549
:1026A000C15F07BF00F11203406900F11A03C0695E
:1026B0000B601060002030602860404601B0BDE82B
:1026C000F08330B5040081B01AD050234FF6FF726A
:1026D0000B2103F03DF90546502D11DA04F050FAB4
:1026E00004F008F9DFF8B815DFF83C2BC1F8A803AF
:1026F0001368D9688847000440F00B0044F82500AF
:1027000001B030BD000000009CF801000400002072
:10271000402108406B1600002DE9F04186B01546B7
:102720000C460022029204920392019201A90091A8
:1027300003AB04AA02A9FFF739FF8326E20F33D1C6
:1027400048B3039800281CBF019800281DD00298A8
:10275000048040F22B28039F502340F2FF32414671
:10276000384603F0F5F8FF281CBF48EA842147F8F3
:10277000201001990498FFF7D1FE152028803046DB
:102780000399696006B0BDE8F081029801884FF6B0
:10279000FF7291424DD002980480102129806C80F4
:1027A000304606B0BDE8F081002842D003980028EA
:1027B0001CBF019800281ED002984FF6FF710180BF
:1027C0005023019F40F2FF322B21384603F0C0F81E
:1027D000FF2804D0A40244F02B0447F820400199BC
:1027E0000498FFF755FE152028803046019969604E
:1027F00006B0BDE8F081049F502340F2FF322B2148
:10280000384603F0A5F8FF2804D0A10241F02B01BF
:1028100047F82010FF280CD002994FF6FF7008806F
:1028200014222A80C4F315046C60304606B0BDE85B
:10283000F0810326304606B0BDE8F0812DE9F04373
:1028400091B00D460021DFF8E489089101910791CC
:1028500006910646D8F8089014461F4604F090FAF0
:102860001C2803D004F08CFA1B2826D1208843F6BC
:102870000701884212D194F8240002281DDD206946
:10288000DFF8902A20F06041914216D020F060409D
:10289000DFF8841A884240F01F810EE040F6020201
:1028A000904203D1E07B022807DD15E1B0F5C15F5E
:1028B00003D1E07B022800F30F81002D18BF002C0C
:1028C00000F00A81287829FA00F0C10740F104815C
:1028D000002120460020C0467560B460DFF8C05378
:1028E000D5F8AC0388B106A9009107AB01AA08A9E5
:1028F0002046FFF75BFE019850234FF6FF720B2135
:1029000003F026F8FF2800F0E78000F0CAFE8146B9
:1029100095F89503022880F2DC80002840F086803C
:1029200003F0CDF8DFF8F409DFF8F449016841F06D
:1029300002010160DFF8EC09C8F8000002A800F00D
:102940000BFF6078DFF8E019049002AA05F56E70BD
:1029500000F00AFF02AADFF8D41905F5826000F042
:1029600003FF02A800F0BAFE2078B14A039002AB40
:10297000192105F57D7000F06DFE02ABDFF8B0297E
:102980001A2105F24C4000F065FE00230022DFF81A
:10299000A41905F58D6000F031FE00230022DFF858
:1029A0000C1A05F2AC4000F029FEDFF8040A0168B9
:1029B000C1F3814038B10023DFF8F829042105F57F
:1029C0009E6003F01CF9A078012804BF0D2003F0DD
:1029D000A3F905F5567003F051FC05F5547003F0AA
:1029E0004DFC002085F88403C5F88C0300210720E6
:1029F00085F8901385F8911385F82003C5F89C138A
:102A000000200521C5F8A003C5F8A41385F8940398
:102A1000A249C5F888136368180007D0207A4107D7
:102A200004D5D5F8980300220421984795F895031A
:102A300005EB8002401CC2F8286385F895033C46EC
:102A4000484600F053FE3CB90FF21C6191E8BC51BE
:102A500009A880E8BC5109AC206830604FF4FA71D5
:102A6000F160A069B0620120218A71837076E1690A
:102A70003163606818B130610021606803E040F69E
:102A8000C4103061012131767061DFF82C19716258
:102A9000F161E06800B101463162606900B17062C5
:102AA000A06800B1F061C82106F1380004F0E0F937
:102AB000002106F1500000F01AFE00230022DFF88A
:102AC000201A06F1B80000F099FD304611B0BDE8BB
:102AD000F083484600F00AFE002011B0BDE8F08304
:102AE000F0B56F4C94F89513002981B000F09E80EA
:102AF000B4F96C13B4F96E23914205461BD004F56A
:102B00005471FDF79BFA68B9D4F8600328B10069E5
:102B1000A84208BFD4F8600304D004F556712846D3
:102B2000FDF78CFA38B1B0F930100A224FF0E043CB
:102B3000284600F0AAF900F0B4FD0646D4F82803B0
:102B4000854207BF0021C4F828130020C4F82C03D5
:102B500094F89503401E84F89503C0B2002850D124
:102B6000C4F8985394F88403022820D100F099FD0A
:102B7000074694F8940300F0F70084F8940394F85F
:102B80009403010704D4082104F56E7000F022FEBE
:102B9000384600F0ABFD304600F0A8FD4FF0FF31A5
:102BA00005F1500000F0CEFD00F07BFD064604F577
:102BB0006E7000F0FFFD04F57D7000F070FD04F50F
:102BC000826000F0F7FD04F24C4000F068FD04F56F
:102BD0008D6000F02CFD04F2AC4000F028FDD4F82C
:102BE000B01311B104F20450884704F59E6003F05D
:102BF000C8F9DFF82C078178012904BF0D2003F004
:102C000026F8D4F89803A84204BF0021C4F898130A
:102C1000304600F06BFD05F1500000F08EFD05F12F
:102C2000B80001B0BDE8F04000F001BD01B0F0BD5A
:102C3000CB1500002DE9F04D00F033FD184C94F851
:102C4000841302291CBF94F88413042907D1DFF8E8
:102C5000B828146800F04AFD2046BDE8F08D00F069
:102C600045FDDFF8A808DFF8A88801680A6B9047DF
:102C700010F50036D4F8800341F1000A0146A8FBA4
:102C8000067B002008FB0ABB3C184BEB01052C46D9
:102C90002046BDE8F08D00000000044071180000DF
:102CA000802D002001000204010001042DE9F04FF5
:102CB00083B082460F4615469B4600F0F2FC019019
:102CC0006FF00104DFF89088D8F82803824508BF28
:102CD000D8F82C0330B1B83000F0B1FC10B16FF06F
:102CE0000204ABE0FDF7BEF9060000F0C780DDE9A5
:102CF0000C4908F2AC4000F0ABFCB8F86C03401C87
:102D0000C0F30B00A8F86C03F760002086F83200CF
:102D1000C6F808B02021B8F86C23DFF8F80732862F
:102D2000C6F810A0204009EA0101C6E906014FF0EB
:102D3000000C86F833C0C6E908CCEC6834642A7C01
:102D400086F844202B6873632A7986F83820AB68AC
:102D5000F3636A69B264AB69F3642A7F86F8502032
:102D60006B7F86F851302A7C22B9EA6812B10123C0
:102D700086F844302A79002A02BF3A7B02F00F021B
:102D8000022A04D1012286F83820BB687363082325
:102D900001E017465B1E7A68002A18BF002BF8D1A5
:102DA0003A8802F47C42B2F5305F0AD196F83320BB
:102DB00042F0100286F8332040F00800C6E9060110
:102DC00003E040F00202C6E90621D8F84803504566
:102DD00007D198F84C03C10744BF00F0FE0088F803
:102DE0004C03DFF8780704686FF002050CB92C4635
:102DF0001DE0D8F8642308F55670009008F5547368
:102E0000D8F860133046A0470446AC420FD0B8F95A
:102E10006C03B6F93010884206D0B8F86C03411E36
:102E2000C1F30B01A8F86C1314F1020F0FD1B8F81D
:102E30006C03411EC1F30B01A8F86C13C8F848A33A
:102E400098F84C0340F0040088F84C0316E0B6F9FB
:102E5000304096F8330040F0800086F833000021BF
:102E60008AF8FC10D8F85003B0421FBFF168087B05
:102E700000F00F00022808BFFDF7FBFB019800F0EF
:102E800035FC204603B0BDE8F08FF0B506460F468E
:102E9000380081B014461D4603D50020002101B042
:102EA000F0BD00F089FCDFF8B026B2F93010002345
:102EB000B94204BF1169B14203D192F83310090637
:102EC00059D4B2F988100123B94204BF916EB142BE
:102ED00003D192F88B1009064DD4B2F9E010022309
:102EE000B94204BFD2F8C010B14203D192F8E31046
:102EF000090640D4B2F938110323B94204BFD2F80D
:102F00001811B14203D192F83B11090633D4B2F93A
:102F100090110423B94204BFD2F87011B14203D119
:102F200092F89311090626D4B2F9E8110523B942A3
:102F300004BFD2F8C811B14203D192F8EB110906CF
:102F400019D4B2F940120623B94204BFD2F82012B4
:102F5000B14203D192F8431209060CD4B2F9981287
:102F60000723B94204BFD2F87872B7420BD192F866
:102F70009B120F0607D5582111FB03F3D71897F8BA
:102F80003320110605D400F027FC0220002101B0F7
:102F9000F0BDD7E9082344F00A0445F0E04522409B
:102FA0002B4008BF002A0ED000F016FCD7E908011C
:102FB00020402940C6E92C01D7E9082382438B43EE
:102FC000C7E9082313E0BA68DFF894158A4204D0F1
:102FD000D7F808C0C6F8A8C0B960C6E9284500F00F
:102FE000FBFB4FF0FF3106F1500000F0ABFBD6E9E0
:102FF0002C0101B0F0BD000002000040D0B582B04D
:103000000446DDE90667CDE90067FFF74FFE01469C
:10301000204602B0BDE8D0400A224FF0E04334E73A
:1030200000B581B0930803F001030093530803F047
:10303000010302F00102FFF709F901B000BD00B57C
:1030400081B0930803F00103009302F00102012311
:10305000FFF7FCF801B000BDF0B500BF02A191E898
:10306000FC5080E8FC50F0BDFFFFFFFF00000000B7
:1030700000000000000000003A013A0100000000DA
:1030800000000000000000000022FFF7D8B9002275
:10309000FFF7D5B900B581B06A46DFF8C814FFF76D
:1030A000CEF9812803BF0098000200166FF07F0060
:1030B00001B000BD70B50E46154600F0F2FA83244B
:1030C000052E36D8DFE806F0030F15351F28DFF888
:1030D0008824D2F8601321B1D2F860130A8E2A80B6
:1030E00028E0802426E0DFF8701491F820232A805D
:1030F00020E0DFF8641491F88423022A0CBF012138
:103100000021297016E0DFF85014D1F828232A6036
:10311000D1F82C1369600DE0DFF83C24D2F82813B5
:1031200001B1C9682960D2F82C1301B1C96869607E
:1031300000E0032400F0DAFA204670BD941200503B
:1031400030B4DFF81444B4F9302000238A4204BFBD
:103150002269824203D194F83320150659D4B4F978
:10316000882001238A4204BFA56E854203D194F8CA
:103170008B2015064DD4B4F9E02002238A4204BF07
:10318000D4F8C020824203D194F8E320150640D43D
:10319000B4F9382103238A4204BFD4F81851854278
:1031A00003D194F83B21150633D4B4F990210423BC
:1031B0008A4204BFD4F87021824203D194F893214B
:1031C000150626D4B4F9E82105238A4204BFD4F8B1
:1031D000C851854203D194F8EB21150619D4B4F9EE
:1031E000402206238A4204BFD4F82022824203D11F
:1031F00094F8432215060CD4B4F9982207238A4286
:1032000004BFD4F8781281420AD194F89B020106D7
:1032100006D5582010FB03F3E018C06830BC704797
:1032200030BC002070470000E0010010CC210840B5
:103230002DE9F04B0E4682B096F90480346883463F
:10324000174600F02EFADFF8102392F820130090B2
:103250006FF001094FF0000C5FF0010303FA0CFE60
:1032600011EA0E0F50D04FF0FF35A84518BFE045CA
:103270004AD15FFA8CF0032846DA02EB401505F5D7
:103280003075A87A00283FD121EA0E0082F8200389
:10329000AB7285F809C00A2192F82203401C82F81B
:1032A0002203C5F800B02B720023434868602982CE
:1032B00095F90900401DA874B06868617FB13B783A
:1032C00078785B0143EA800395F90900401D43EAE1
:1032D00000234FF6FC710B40DFF88C020343AB6117
:1032E00004B16C60D2F8980310B92968C2F8981339
:1032F000FDF7BFF995F90990009800F0F7F94846F5
:1033000002B0BDE8F08B00BF0CF1010CBCF1030F63
:10331000A4D3F1E70F0000010F00000500200940D1
:103320009CF80100110000E08F150000630F000001
:10333000F70E0000AD150000F0B581B006460F464F
:10334000802400F0AEF9FFB2032F054627DADFF83C
:10335000083203EB471101F53077B87AF8B13968D4
:10336000B1421CD193F88403022812D197F90910B5
:10337000D3F89803491D0906090C41F08161002228
:1033800041F00101FFF75BF804463846FCF738FFCF
:1033900005E03846FCF734FFFDF76BF98124284639
:1033A00000F0A4F9204601B0F0BD000001140000B7
:1033B000B44F0050430300008D1500002DE9F0418B
:1033C00007460D461646832400F06BF9092D80460A
:1033D00000F27E80DFE805F005081114171C415348
:1033E000696E3068386074E0386960303861012196
:1033F00078697976603078616BE03068788368E06E
:103400003168B98565E030685349C1F8A40360E0CC
:10341000306848B900F045F94F4991F8942342F0DB
:10342000800281F8942315E0012851D100F039F988
:103430000646494890F8941301F07F0180F89413F0
:1034400090F894130A0704D4082100F56E7000F078
:10345000C1F9304600F04AF93BE03F4991F8840356
:10346000002804BFD1F85003002811D13168192079
:1034700000F032F931681A2000F02EF929E0364FB9
:1034800097F88403002804BFD7F85003002801D020
:1034900000241EE0316807F56E7000F09FF9316876
:1034A00007F5826000F09AF913E030782A4981F834
:1034B00020030EE02D48436819000AD0007A8106E7
:1034C00007D52548D0F8980332462021984700E0D8
:1034D0000324404600F00AF92046BDE8F0810000D0
:1034E0005114000030B5044683B0A0686A46FFF767
:1034F00013F98328054604D1002269462046FEF7C9
:103500009EFF284603B030BD043004408C010010FB
:1035100000093D00FFEFFF9F10B582B003F0FDFAF8
:1035200003F02EFB014600200090CA1E0A4C104BEF
:10353000C91C12B209B204F2045003F028FB0D4971
:103540000D4AC4F8AC13C4F8B023002814BF0320FC
:10355000832002B010BD0000802D002094200020A8
:103560005714000001000304010004069CF8010048
:1035700079110000C3260000D56B0000EFF3118025
:10358000202102E0EFF31180002181F311887047C0
:1035900080F31188704703F07DBC10B500F098FCF3
:1035A00000F05CFE00F016F8DFF8784304F1080044
:1035B000A06602F087F800F0CDFF01F045FC01F0B5
:1035C00077FD01F03AFA00F0B9FB00F09DFF012011
:1035D000207010BD10B5DFF8504394F8080160B9B1
:1035E000012184F8081100F08FFF002104F59A7082
:1035F00000F08CFFDFF83413086010BDFEB5044600
:1036000013B901F005F910E06D46002000260027EF
:1036100085E8C100986802901D788DF800505868C0
:1036200001906B46204601F0F3F82046FEBD01F004
:103630000FB900F0DDB90A20704701F0D0B8007D65
:103640007047002181607AE08160704701F0B9B86D
:1036500001F07BB8F8B51C0086B005460E4617464B
:1036600003D1002300F080FB0BE000F012F820688B
:1036700001906B46606804903A4600F004F800F050
:1036800073FB07B0F0BD207A8DF80800314628465C
:1036900070476846DFF89C12182203F0D3BC00F094
:1036A00094BB6BE700F06DBCDFF87C0290F8F4107F
:1036B00001F0D8BB10B5FFF761FF0446FFF768FFC4
:1036C000601E8041C00F10BD00F0C2BC70B501F09B
:1036D00081F86560266021E100F0AABC002101604C
:1036E0004FF0FF32012342600372704750E7FEB58E
:1036F0000446684600230025002680E8680001276C
:103700008DF800706A46204601F0F0FA2046FEBDB2
:103710003EB5694600220023002481E81C000125F3
:103720008DF80050DFF8082201F0F0FA3EBD80B5B8
:103730000090684601F003FB01BD01F0F4BA01708E
:103740004160704780B501F036FA08B900F037B92A
:10375000002002BD01F08EBA002101604160C1600D
:103760004FF0FF318160704778B5140085B0054691
:103770000E4603D1002201F0C6FB13E0A068062824
:1037800004D310F1010F18BF00200BD100F008FF87
:10379000206801906A4660680290314600F004F8A3
:1037A00001F0B1FB06B070BDE0680490A068039022
:1037B0002846704701F047BC00F008BD01F09FBBF0
:1037C000DFF8640190F8F410012901D1012070475D
:1037D0000020704701F0F9BB01F04BBB062902D372
:1037E00011F1010F01D101F0FCBB704708B400B525
:1037F00001AB01F09EFF5DF808FB01F09ABF0000ED
:1038000030BF7047FCE738B503F06CFC03F08BFA6F
:1038100002F032F9044604F00C000C2802D1AFF398
:1038200000803AE060071DD400F0C9FE0546012182
:10383000012002F02BF90A216943884212D2DFF8F5
:103840003041183D656104F10C0000F0BAFFAFF3A0
:103850000080012002F0B2FAAFF30080002084F86B
:1038600020001EE0AFF30080200716D4DFF804111B
:10387000DFF804010A68936898470428F6D0E10647
:1038800000D408B9012000E0002003F032FADFF88C
:10389000EC0001210160006801E0FFF7B3FFAFF326
:1038A0000080BDE8314003F021BCDFF87C0090F8D7
:1038B000AC10012280F8AC200123DFF8E820116071
:1038C00090F8141180F814315160704710B5DFF88A
:1038D000D440606801F0CDFA206801F0E2BA00003F
:1038E000DFF8C410C20744BF01230B60820744BF46
:1038F0004FF480730B60400744BF4FF480320A607E
:10390000704710B5DFF8A420C30748BF11608407D3
:1039100048BF5160400748BF916010BDBDE870408E
:10392000FFF736BEB0290020AC1E0020D83C002096
:1039300050200020804200006846DFF888102422D2
:1039400003F080BB10B5DFF8701091F8AC000122D5
:1039500081F8AC20DFF894100C680CB122680A6082
:1039600001F0EDFB1CB12046BDE8104008E010BDA1
:1039700068210020D8010010004003402C2009409D
:1039800010B5044604F1100001F0CDF9E06818B15B
:1039900004F10C0001F05CFE2146BDE8104050220D
:1039A00001F0CBB8903B00200420094018200940CA
:1039B000204601F0C4BB0000AC1E002001604FF0A7
:1039C000FF3002BD4CF40100DFF8C4070178FDE7C9
:1039D000DFF8C40790F8F4007047DFF8BC27014611
:1039E00092F8F40082F8F41070470000983B002031
:1039F000DFF8A017D1E90023C0E900237047DFF802
:103A00009807D0F8FC100847DFF88C17D1F8002190
:103A10001047DFF8840790F81411012280F8142170
:103A200090F8AC1080F8AC200320D6E710B504461F
:103A30000320FFF7D2FF204601F05DBE80B5DFF81E
:103A400050070178012901D0FFF7BEFFDFF85007CA
:103A500001F03EFEFFF796FD002001F00AFABDE8F6
:103A6000014001F03DBB10B588B001A80FF2B021B4
:103A70001C2203F0E7FA022200218DF804200A2418
:103A80008DF810100091039401ABDFF81027DFF8D8
:103A9000140700F0D1F808B010BD0146DFF80407A4
:103AA000AEE020B502460020D2E9102347F690612F
:103AB00003F046FB0125A94228BF4FF0FF3020BD8F
:103AC00038B50C4603F00EFB050018BF0125DFF8E2
:103AD000DC060068811D201AB0F1004F05D8081BD4
:103AE000B0F1004F38BF8C4200D20C462146012075
:103AF000FFF707FFEDB20DB9FFF7D3BE31BD2DE9DA
:103B0000F84C05460C46D5E910ABD5E91267AAFB7F
:103B100004010BFB041136184F41340C002244EA17
:103B200007412846FFF7CCFFC5E91467BDE8F18CD3
:103B300038B50546FFF722FD6D690446B5F5802FBF
:103B400034BF04252D0CDFF86406006845190120F8
:103B5000FFF7C6FE29460120FFF7D3FEDFF8542603
:103B600013681D6823210020A847DFF84C160120A8
:103B70000860204600F055BFDFF82C0601680A6B8C
:103B80001047000010B504460120FFF7A9FEA06908
:103B9000E169BDE8104008472DE9F04707460120DC
:103BA000FFF79EFED7E91601D7E91025002610EB96
:103BB00002084D414FEA184040EA054AD7E9144946
:103BC0004FF0FF304FF6FF7108EA000205EA0103EB
:103BD000204009EA01018B4202D82CBF8242012613
:103BE000324651463846FFF76BFFD7E91601C7E961
:103BF0001401C7E91685B869F969BDE8F0470847B7
:103C0000F8B504460D46FFF7B7FFD4E91067324612
:103C10003B4603F095FA3DB1A6FB002306FB0133BA
:103C200007FB0033C4E91223F2BD80B5FFF7A6FC01
:103C3000FFF7AEFC002002BD2DE9F84187B0054634
:103C40000F4690461C46FFF799FCDFF86465B168A3
:103C500011B1FFF79DFC30E0B560FFF799FC0CB99E
:103C60000FF2BC04EF60C5F81C804FF4803160682F
:103C7000A86169620020286200220023C5E912239E
:103C8000217BA06801290CD168610021A068C5E9E9
:103C90001001227868690021022A0CBF0246002226
:103CA0000DE001460020DFF8842303F049FA0122E9
:103CB00091426861EBD3C5E9100100202CE0C5E911
:103CC0001421C5E91601182201A8DFF8F01403F049
:103CD000B9F9029501AB2078DFF8E41400910028CF
:103CE0000CBFDFF8E024DFF8E024142105F1280000
:103CF00000F059F804462846FFF797FF287C10B9D2
:103D00002846FFF715FF2CB12946304600F0FFFE8C
:103D1000284601E00020B06008B0BDE8F081000056
:103D20000000000000000000E803000000000000A8
:103D300000000000000000000000000038B5DFF8BF
:103D4000584404F18405287F68B901212977FFF7D9
:103D500015FCE16F2868C90800EBC1010839A167AB
:103D60004FF0FF31A16631BDF8B5DFF82C64DFF804
:103D700080740446D6F89C000D4650F82510B942D0
:103D80000DD106F5D27000902946204600F00BF8C0
:103D900040B1D6F89C0050F82510B94201D100205E
:103DA000F2BD2046F2BD1CB504460BB9DFF80C3459
:103DB00004980090204600F00AF8010003D0204645
:103DC00000F06DF80024204616BD002167E0F8B52C
:103DD0001746069CDFF81C24362905461E4602DBE2
:103DE000002300930DE0DFF8B003E981D0F89C30A8
:103DF00053F82100DFF8F833984209D000230093EC
:103E00006C320B460021204601F02EFC0120F2BD51
:103E1000084600F099F86F6070682860306910F10A
:103E2000010F08BFFF2028730021307A00B1012163
:103E3000307D08B141F00201A9602846214600F01A
:103E400003F800B1801CF2BD38B50446217AB4F9FC
:103E50000E008A07054602D5217B202907D261681A
:103E600000F0B3F8B4F90E004042E0810AE0DFF858
:103E70002813D1F88C00DFF8741440F82540284648
:103E800000F0A3F8217B284600F0D2F8207AC10781
:103E900044BF284600F075F80020A06032BD01291B
:103EA00000D1704710B5B0F90E40002C48BF6442F5
:103EB000204600F049F8DFF83813204600F085F876
:103EC000DFF8D412D1F88C20002042F8240010BD75
:103ED00070B5FFF753FBDFF81834DFF81804DFF88C
:103EE0001814DFF81824DFF818440A601B1A8B60D6
:103EF000DFF81034C868186002461D68A5420FD06C
:103F0000002554F8256040F825606D1C0F2DF8DB66
:103F10000F20DFF8DC4242F82040401C3628FADB54
:103F20005C68DFF8E40324F47F4404195C600A62EF
:103F3000202199764FF40070D860DFF86C04016896
:103F400021F04041016070BD0F2810D9A0F110018F
:103F50004909A0F11002DFF85404012302F01F0206
:103F600050F8210003FA02F2DFF8443425E006D1CC
:103F7000DFF8B41408680A6822F0020221E0002089
:103F800070470F280ED9A0F11002012302F01F0282
:103F900003FA02F2A0F11001DFF81034490953F8D6
:103FA00021000AE006D1DFF8801408680A6842F0B0
:103FB000020206E000207047000043F82120104074
:103FC000704700F002000A607047DFF8CC21D2F899
:103FD000883003EB800002688A4218BF0160704796
:103FE00010B5DFF8B441A06F03F0D2F90021A1664B
:103FF00010BD70B50246DFF80003836853600468A3
:10400000946025462878BE2803D001200023136041
:1040100070BD00200029F9D015F8016FBE2EFBD02D
:1040200064422919491E5B1AF1E7000040420F0063
:10403000102805D3DFF8B024104400F8101C704796
:10404000042804D3DFF8A424104400F8041C7047AB
:10405000102803D3DFF8F01410380860704710B54B
:104060004D4B0FF21504012283F86C2014B1BDE80A
:10407000104001E010BD000018B50446DFF8BC1484
:10408000486801229FB00A7008B901AA4A60204618
:1040900000F014F80320FFF7A0FCDFF8B004DFF80D
:1040A000B0240368A06B009003F0FF030F2B28BF20
:1040B0007C3201F0B4F820B010BD0000F0B5364CF1
:1040C000226F04F1F40501462E78167000230E6A63
:1040D000166100204F6A57618E6A9661CF6AD76178
:1040E0000E6816624F6857628E689662CF68D76214
:1040F0000E6916634F6957638E699663CF69D763FC
:1041000001F140070E6B166457644E6B966404F120
:1041100084068F6BD764C96B11651778032F14D889
:10412000DFE807F009070210B06B5060C36A806ACD
:104130000BE0E86A06E0B06801F0FF0150F82110DA
:10414000516000E05060E36F3068D0609360616F51
:1041500039B1002804E013F8014B01F8014B401E6F
:10416000F9D1DFF8E8030168DFF89C0451650378B2
:1041700093654178D16543881366416851668368C9
:104180009366C168D1660369136740695067F0BDE3
:10419000B02900208C1F0020AC1E00200147000029
:1041A000133A0000B82900208C010010302009408B
:1041B0005C20002084010010800224438042000023
:1041C00050200020993B0000853B0000DFF81814C8
:1041D00091F81401012281F814217047DFF80814C6
:1041E00091F8AC00012281F8AC207047000000007B
:1041F0008DBD01009CCD01002DE9F04100F0D8FCFF
:10420000DFF8E47397F8AC50012087F8AC0097F81A
:10421000146187F814010020FFF7DFFB8046D7F810
:104220008C00DFF828130A6802F0FF0250F82270B1
:10423000BC60FFF7A7F9386879688847FFF79EF9EF
:104240004046FFF7CAFB06EB0520BDE8F08100F011
:10425000FF0000F029BE000A00F08CBFF8B5002175
:1042600001A8FFF7C6FE0398009004E0BE2101708C
:104270000099491C009100986845F7D305B000BD2E
:10428000000000000000000001000000000000002D
:10429000E00000000100000070B5049C059D069E32
:1042A0008908491E40F82140491E40F82130491E26
:1042B00040F82120491E40F82160491E40F8215055
:1042C000491EDFF8FC2740F82120491E4FF0FF323D
:1042D00040F8212000F01AF800F018F8491E40F8C4
:1042E000212000EB810070BD0000000069BC0100CE
:1042F00000400120003C0120281F0020003C01203C
:104300000000000008ED00E00000FA05491E40F83A
:104310002120491E40F82120491E40F82120491E35
:1043200040F82120491E40F82120491E40F8212054
:10433000491E40F82120491E40F82120491E40F81E
:104340002120491E40F82120491E40F821207047B5
:104350007FB504460D46A16A164619B1E06ABE2231
:1043600003F042F8E16B02913346A06B0190009597
:10437000A16A626BE06A091FFFF78EFF04B070BD8F
:1043800010B504460120A060002121610022E260F6
:1043900004F1140000F0D0FB2146BDE81040DFF826
:1043A0002C0700F0B4BB000034EF00E000E100E0B7
:1043B00080E100E0F8B50646DFF81407046984B030
:1043C0009CB16569077801210170B068012807D1A7
:1043D0000021B1603461F56000F074FB002020E042
:1043E0003069A04203D100F06DFB012019E02046A6
:1043F00001F082F8002102940391C4F824D02A46E7
:10440000694606F1140000F041F830694069A8429D
:1044100003DA3069294601F01BF800F053FB002055
:10442000606205B0F0BD000010E000E070B5DFF89C
:10443000A0260546106938B314780123137009BB10
:10444000E96842699142BCBFE96801F001F8686916
:1044500005F11401884202D10122AA6012E06869C4
:104460000168696105F114024A6086682E6170690D
:10447000E860FFF783F805462946304601F06CF8FE
:1044800000F0DFFC00F01BBC70BD000010B503465F
:10449000186800E00068984207D084686469944214
:1044A000F8DABDE8104000F02BBBBDE8104018461C
:1044B00000F017BB10B5044609B90FF22801FFF749
:1044C0005FFF204610BD10B5044601F0ABF818B1EF
:1044D0002146BDE81040EDE710BD0FF208012FE0C6
:1044E000000000000000000000E400E018ED00E023
:1044F000806903F08EB8806903F08DB8806903F09D
:104500008CB8806903F08EB803F07DB810B504460E
:104510000020A061DFF85016DFF85026DFF85006C3
:1045200021606260A06004F11001DFF84826DFF826
:104530004806E26000F0EBFA204610BD181F00208C
:104540000A6802607047000000EF00E004ED00E040
:10455000E0CA010018B5244C94F8650085B0E8B9AC
:10456000012284F865200021204600F0E5FA00F0E1
:104570006BFC00F015F80520039004F5D2736A4631
:104580000FF2E50104F1100000F044FDE064FFF7D4
:104590006AFADFF84407FFF784FAA06506B010BD99
:1045A0006846DFF83817142202F04CBD38B5FEF724
:1045B000E5FF04460020FFF770FA05460EE038B527
:1045C000FEF7DCFF04460020FFF767FA05460648C1
:1045D000416D806D4D1BA84238BF00252046FEF777
:1045E000D7FF284632BD0000AC1E002038B5044677
:1045F0000D462146DFF8E006FFF781FADFF85007A5
:104600000465456531BD000028ED00E02DE9F84363
:104610000446DFF83C070768D7F804800D464FF0E2
:10462000FF391BE03E463F68307D012816D1012C42
:1046300004BFF168A94209D1306900281DBF4118A3
:10464000F16030623075F069B1698847307D0128CA
:1046500004D1F068401B484598BF81464745E1D1E9
:104660004846BDE8F28300002DE9F843FEF786FFD7
:1046700080460120FFF711FADFF8D45605F15C06F9
:1046800001213170002272706F6DAA68A968C41B85
:10469000401ABA1A904202D2002030702BE000F08B
:1046A00065F94FF0000907E04F4439460120FFF754
:1046B000ADFFA4EB090481464C45F5D2FEF75EFF41
:1046C00080467078012804D139460020FFF79EFF0C
:1046D0008146A86D19F1010F05D0A86DA9EB04045E
:1046E000A04288BF2046C119FFF780FF01200021AA
:1046F000B0703170AF604046BDE8F243FEF748BF8E
:10470000DFF84C06C06C00F034BC000038B504463D
:104710001D46A260002268682061A1612146A86848
:10472000E0612275DFF8280600F0F1F9287818B169
:104730002046BDE8324044E031BD000038B568E1B4
:104740008260816100220261C361002101757047AE
:104750000146DFF8FC05C4E1000000F0E6B970B5E1
:104760000446DFF8EC65A068206206F15C05A978D4
:10477000012904BF2878002816D10120FFF78DF900
:10478000B168736D0246B0681B1A511A8B420BD385
:10479000A0688118E16001232375746DA21A90420C
:1047A0000DD2BDE8704021E7FFF700FFA1680818AF
:1047B000E060012020752978012908BF687070BD6C
:1047C000000038B500F0F4F905462046FFF7C7FFB2
:1047D00026E1BAE704460D461646FEF7CFBE70B591
:1047E00000F0E6F90646207D0025012808D1FFF7F4
:1047F000DDFE0546E068216A451BA94238BF002559
:1048000000F061FA284670BD007D704700F068BA7C
:1048100010B504460BB90FF20C03FFF777FF2046E3
:1048200010BD0000000000000000000000000000BB
:1048300070B504460D4616460022242100F0F5FE10
:1048400028B133462A462146BDE87040E0E770BDF6
:1048500074E710B504460022A260002104F10C00A8
:1048600000F06AF92146BDE81040DFF854074EE138
:1048700038B500F09DF90546207C022804D1204679
:1048800000F053F900F08EF9CAE010B5836884682F
:104890001A400C408C4208BF0A4312B18168914310
:1048A0008160104610BD2DE9F0431C4691B0814651
:1048B0000D46174614F1010F18BF002C0CD06B46A3
:1048C0002246DFF8481708A8FFF73AFF08A9022296
:1048D00003918DF8102004E00020032103908DF84F
:1048E00010100021DFF8E8610695079705913069FF
:1048F0000290FEF743FE80463A4629464846FFF7B7
:10490000C4FF050003D000F031F828462BE01CB9A5
:1049100000F02CF8002026E0347801203070694641
:104920000298416209F10C0000F0DBF8029800F0F7
:10493000ECFD039820B1FFF70BFF0398FFF70FFF83
:1049400000F014F8FFF734F8FEF718FE0446039859
:1049500018B1FFF702FF0020039000F085F99DF8E1
:10496000100000B1059811B0BDE8F0834046FEF795
:104970000FBEF8B505460E46FEF700FE0446A868D1
:104980000643AE6005F10C00E968814202D1204681
:1049900000F053BADFF8B80390F8AC6000F01CF8F0
:1049A0002846EF68FA69B969FFF76FFF786160B16F
:1049B000384600F0BAF801203874F86808B10021D0
:1049C00001752146B86800F0C7FD00F0FBFA3046DB
:1049D000BDE8F24000F0B3BB012180F8AC10704795
:1049E00010B5044609B90FF20C01FFF732FF20465B
:1049F00010BD00000000000010B504460B46002268
:104A0000142100F012FE18B12146BDE81040E7E77E
:104A100010BD0446FEF7B2FD0546204600F085F8BD
:104A20002846BDE83240FEF7B3BD216814220020BD
:104A300000F043FE0020206010BD78B5DFF89046FE
:104A4000207889B0E0B901252570FEF775FF4FF495
:104A50004072059204F160010FF228020491009265
:104A6000002603968DF8205000236A460FF2350188
:104A7000201D00F0A8FDDFF89815201DC1F8D80012
:104A80000AB070BD74692E73797362696F732E6B8F
:104A90006E6C2E5461736B2E49646C655461736B3C
:104AA0000000000080B500F001F8FCE710B5DFF869
:104AB000C046206880476068BDE81040004700009D
:104AC0007D7E0000384600F03ABB000068200020E0
:104AD000581F00200168814201D101207047002049
:104AE00070470EE038B500F063F82568296821604A
:104AF0002A685460FFF773BD406000607047000093
:104B000000BF426808604A6011604160704738B574
:104B100000F007F82C606168696062681560656084
:104B20007FE704460D46FEF729BD01684268116023
:104B30004168006841607047DEE7002000F0BDBDBD
:104B400010B5044610782074618204F1140000212D
:104B5000FFF7F2FF0021A16001202146E060BDE8DF
:104B60001040DFF8E408D2E7F1440000F744000009
:104B700003450000FD4400007020002000BF00F14C
:104B80001401816100F114024261704738B500F0F0
:104B90000FF80546207C022803D100F0CEF800F083
:104BA00001F83DE7002020742946A06800F0D4BC3D
:104BB0000446FEF7E3BC70B50C468EB0054614F112
:104BC000010F18BF002C0AD06B462246DFF87C1874
:104BD00005A8FFF7B5FD05A90391022202E0002117
:104BE000039103228DF81020FEF7C8FC0646688A60
:104BF000002831D11CB900F066F8002032E0DFF85F
:104C0000F40804780121017000690290C0F824D0F2
:104C100000F07BFC694605F11400FFF762FF9DF888
:104C20001000022805D10398FFF792FD0398FFF7C3
:104C300096FD00F048F8FEF7BBFEFEF79FFC044629
:104C4000039818B1FFF789FD0020039000F00CF8DD
:104C50009DF8100030B104E0688A411E698200F0BE
:104C600032F801200EB070BD002002994862204643
:104C7000FEF78EBC70B50546354890F8AC4000F0A4
:104C800025F80646686905F11401884207D1287C99
:104C9000C1074EBF0120688A401C68820DE06A6926
:104CA00010686861416001201074D06808B100216B
:104CB00001753146906800F04FFC00F004F8204682
:104CC000BDE870403BE23046FEF762BC012180F84F
:104CD000AC10FEF753BC0000B82900202C50000097
:104CE00000210022002380E80E00704710B5044622
:104CF0000AB90FF20C02FFF723FF204610BD000097
:104D000000000000000000000000000038B504466C
:104D10000D46134600F087FC20B12A462146BDE827
:104D20003840E3E732BD38B50446FFF727FFFEF70A
:104D300025FC054600F001F872E62046F5E610B5C0
:104D400004462068FFF7EFFF21681C226FE6000091
:104D5000AC1E0020B0FA80F0C0F11F0070472DE9B2
:104D6000F843044604F12800DFF84C58C168D5F830
:104D70001080EF68AE682961EC6000238168A9604B
:104D800000214268826001702B700120FEF725FE31
:104D90008146FEF7F7FBE169A06962699047FEF77B
:104DA000EDFB4846FEF719FE01202870C5F810807B
:104DB000EF60AE60BDE8F18338B5DFF82C48E568F8
:104DC0002068FFF7C7FF216901EBC00100F090F8F0
:104DD00003D12168426A91432160FFF7C0FF206838
:104DE00030B1FFF7B7FF216901EBC0018D42EDD370
:104DF00031BDF8B5DFF8186206F58A742769FEF749
:104E0000BDFB05466068FFF7A5FF616901EBC000C7
:104E100087420FD296F8AC70012086F8AC00DFF81C
:104E2000CC0702F0A5FA0020207000F00AF83846FE
:104E3000FFF7CEBD002020702846BDE8F240FEF707
:104E4000A7BB2846FEF7A4BB38B5DFF81848207A80
:104E500038B901212172002500F03CF96D1C062DA6
:104E6000FAD331BD481E8041C00F7047FFF7AEB97D
:104E70000000002800D0704710B5FEF77FFB644C9F
:104E800004F58A72516821B1FEF782FBFFF7B1FF8A
:104E900002E01170FEF77CFB94F8AC00012184F86D
:104EA000AC10BDE810404AE1002800D0704738B58A
:104EB000DFF804476068C0B1FEF764FBFEF75EFBF5
:104EC00025696068FFF746FF616901EBC0018D420B
:104ED0000BD200F00DF803D16168426A9143616022
:104EE000FFF73DFF60680028ECD10020207031BD45
:104EF000086802680A6051600A688A42704744483C
:104F0000D0F81C01704710B50446DFF8783700F080
:104F100081F8606900B90024204610BD38B54060B2
:104F20000060136841610361516881619368C361E6
:104F3000D16811F1010F08BF05210162012303FAB5
:104F400001F14162002400F128010C7013698B60AB
:104F500012694A602E4A046AD2F8283103EBC4056C
:104F6000CD6000F1080102F58670FFF7D0FD00204A
:104F700032BD2DE9F0418046FEF700FB08F1240523
:104F80000446287920B12046BDE8F041FEF700BB79
:104F90000120DFF82476287141463E783870286970
:104FA000FFF79FFD796828680143796000F00AF8EF
:104FB00016B9BDE8F0411CE7BDE8F0810000000033
:104FC000782000202046FEF7E3BA38B5FFF7A9FDA8
:104FD000216B0D432563FEF7DBFA2046BDE8324026
:104FE000C7E738B50D46044615F1010F08BF052582
:104FF000FEF7C4FA0121A94061622562044AD2F891
:10500000281101EBC5036363FFF70BBD7148000076
:10501000AC1E002010B504460AB90FF21002FFF7CB
:105020007DFF00B10024204610BD000000000000FC
:10503000000000000000000005000000000000006B
:10504000214600F03ABB38B5FFF7B2FD00F0FBFA9D
:10505000FFF7E6BC70B5DFF8D0460020207101E014
:1050600000F093FA20680028FAD02068FFF772FE5B
:105070006169226901EBC00082420DD2E5682061BE
:105080000668E6603146284600F08EF806F11C01FD
:1050900005F11C0002F0E6FE20790028DDD170BD8C
:1050A00010B5DFF85044207A08B1FFF7D3FF58E07D
:1050B00038B5DFF8D847207E38B9012121760025A0
:1050C00000F008F86D1C062DFAD331BD0000000079
:1050D000202A00202268002102EBC500FFF72CBD2A
:1050E00038B596B0FEF74AFADFF83C4601E000F02A
:1050F0004CFA20680028FAD02068FFF72BFE61697F
:1051000001EBC0000146206100200D68E5602071C0
:105110000220FEF762FC2946002000F045F8FEF769
:1051200031FAFEF72BFAFEF75BFFE06800F11C0195
:1051300007A802F097FE17B030BDFFF74FB8002860
:1051400000D0704710B5FEF719FADFF8440700F1F8
:10515000AC04217A012902BF90F814010028FFF75E
:1051600079FF00202070BDE81040FEF70BBA000068
:10517000A41E0020002800D0704710B5DFF81007EB
:1051800000F1AC04217A012902BF90F81401002833
:10519000FFF760FF0020207010BD000000BFDFF8A7
:1051A000F006D0F8BC007047BCB504000F4635D0FF
:1051B000E06ADFF8E0560178BE2905D000220092AF
:1051C00023462A4600F02BF8F86A0178BE2907D05A
:1051D000002000903B4605F16002002100F044FAF7
:1051E000E06A01A9814222BFA26A8018884207D2E0
:1051F0000091234605F1C0020021002000F034FA9E
:10520000F869FA6A904222BFBB6AD218824205D27C
:1052100000903B4605F5947200F001F8B3BD002103
:10522000002021E290F84800012800D0704710B516
:10523000FEF7A4F9DFF858160446D1F8B800401E6E
:10524000C1F8B80004D1FFF7BDFE0020FEF7DCFB7B
:105250002046BDE81040FEF79BB970B5DFF8380670
:105260000469057801210170FEF788F90646204699
:1052700000F04BF9032084F820002046FFF7D2FF0E
:10528000FFF721FD64602460FFE72846BDE8704019
:1052900055E7F8B517460446386820610E46F968A8
:1052A00061611D46B869002803BFDFF8F005016899
:1052B00021632063796909B94FF40071386948B3F3
:1052C000C21DD208D200891A4118C908C9004FF07E
:1052D000FF30E262A162206366637868DFF8B06540
:1052E000A063B968E163F869206404F1480097F8A5
:1052F00020100170012904D1D6F8B810491CC6F855
:10530000B8100022C2602946204600F018F870B19B
:10531000801CF2BDC91DC908C900A1620822206B0A
:1053200000F0B2F90028E062D6D10120F2BD04F10C
:10533000080106F1A400FFF7EAFB0020F2BD70B5FA
:105340000B460446DFF85825DFF85815FFF700F83C
:10535000E06108B9012070BD012084F8200000211F
:1053600061626069DFF82815002808D5002201F184
:10537000D000A261E0642146FFF7C9FB18E0606934
:105380000122824001F1AC00A2618169626901EBF6
:10539000C203E364012105780170FEF7EFF80646C9
:1053A000204600F0CFF8FFF78EFC2846FFF7C7FE37
:1053B000002070BDF8B50029044641D1DFF8D8744B
:1053C0003D7801203870FEF7D9F8064694F82000A1
:1053D00001280FD1FFF7B1FCE06C0168814203D1D5
:1053E0007A68A06982437A60606A80B1C06808B157
:1053F000FFF7B3F994F82000022808D1606A68B179
:10540000FFF793FB606AC06808B1FFF7A6F994F84C
:105410002000032802D1FFF790FC02E02046FFF7AE
:1054200001FFFFF750FC2846FFF789FE206B10F1C3
:10543000010F04D0A26AE16ABDE8F8403DE1F1BD88
:105440000129F3D1F1BD0000802000208D4B000028
:105450002DE9F84FDFF838B40BF1AC04054694F8A9
:105460000080012020700E46FEF788F8D5F814A0C1
:10547000B245814636D0002E03D500270BF1D00B64
:1054800004E0A0690127B74000EBC60B95F82000A7
:1054900001281CD12846FFF748FBE86C01688142CF
:1054A00003D16268A869824362602069A84207D17B
:1054B000C4F814B02946DBF80000FFF721FB03E035
:1054C00029465846FFF70DFB6068384360606E61FF
:1054D000AF61C5F84CB0002E44BF002060610121CF
:1054E00021724846FEF754F84046FFF728FE504622
:1054F000BDE8F28F581F002038B5FFF759FB05466D
:10550000204600F002F8FFF78BBA2DE9F04104467F
:10551000DFF81452D4F84C802E68A769FFF705FB1A
:10552000D8F80010414504BFBE432E60E868A04291
:1055300004BF00212961022084F820000121297183
:10554000BDE8F08138B5FFF733FB05462946204614
:1055500000F002F8FFF764BA2DE9F041DFF8C86106
:10556000376804468846A569E06C2146FFF7B9FA1A
:105570002F433760012184F8201001203071FFF79C
:10558000F5F9BDE8F041FDF7F9BF80B5DFF8180384
:1055900020B9FDF7F7FFFFF789FA09E0FDF7F2FF01
:1055A000002001E00098401C009000980028F9D0ED
:1055B000BDE80140FDF7E2BFC01F0020DFF8EC129C
:1055C000242201F03FBD10B504460AB9DFF8DC2201
:1055D000FFF75FFE010003D02046FFF7EBFE00243B
:1055E000204610BD00000000C41F0020B94D00007F
:1055F000F8B500F011F8582100F017F8040009D0B0
:105600003B4632462946FFF7DEFF18B95822FFF71E
:1056100017FD00242046F2BD05460E4617463B46C0
:10562000002270470B4600221C2100202CE038B5D8
:10563000FFF7BEFA00F007F8FFF703FC2046BDE8CD
:1056400034400021B6E6054604F10800FFF76DBAC4
:1056500010B504462068FFF7EAFF21685822FFF7DB
:10566000E6B90000D41F00200649884283B001D16A
:1056700003B0704700B968460399026043608160D7
:10568000FEE7000050200020F8B504000E461F463B
:1056900004BFDFF81C02046802B90822256820460E
:1056A000A847050007D100962346DFF8082200210D
:1056B0003846FFF7D9FF2846F2BD08B97C48006894
:1056C000436818477C49087A08B901220A72704772
:1056D00038B5FFF76DFA78494A680125082A05DAD6
:1056E0000B6843F82240521C4A6000E00025FEF798
:1056F00076BF10B5044600F006F82046BDE810401D
:1057000000E00000FEE770B5FFF752FA6A4D6E68E0
:1057100007E0296801EB8602204652F8043C9847CE
:10572000761E012EF5DA70BD5C1F002002F0B8FB7A
:105730000EBD0EB50023009302ABF7E7F0B50024D1
:105740000025002B44BF5B42002902D54942521E6E
:105750002D25B1FBF3F60FF2781703FB1611641C2D
:10576000795C00F8011D31460029F2D19442BEBF98
:10577000302100F8011D641CF8DB290018BF00F877
:10578000015DF0BD1368022B07D35B1E1360026836
:105790001AB1117001684A1C026070472DE9F0418E
:1057A0002DED028B174682B00A683D6812F8010B96
:1057B0000A6066281E465DD1307E012808D155F862
:1057C000041B0091084602F00BFD41EC180B06E0AB
:1057D000E81D20F0070000F1080590ED008B51EC6A
:1057E000180B0022002302F01FFD08D281F00041B7
:1057F00041EC180B3069401E0124306100E00024A8
:1058000051EC180B2D4A2E4B02F028FD04D80FF254
:10581000D400F06107212BE002F03AFD804602F04F
:1058200053FD02460B4651EC180B02F015FE002208
:10583000244B02F083FE02F057FF014670690A23F1
:105840000422FFF77BFF2E2100F8011C401E726925
:105850003169F061121AF2600A238A1A4146FFF791
:105860006DFF14B12D2100F8011DF0617169091A55
:10587000F16003E0F16908700120F0603D6002B062
:105880000020BDEC028BBDE8F0810000701F0020FD
:10589000AC1E002008B30100581F0020D43C00209B
:1058A0005B520000A1500000AD4A00004CF4010022
:1058B000D83C002070DF0100882000200100C0FFDC
:1058C000FFFFDF410088C340FDF765BEFDF765BE01
:1058D0003031323334353637383961626364656666
:1058E00000000000286572726F7229005C490A6826
:1058F0001040C2430A6070475A4A11680029FCD11F
:105900000023D3611060D0690028FCD0D1615068B9
:1059100070475548016821F0020141F408710160A7
:1059200003215248016041F23002C260012343600A
:105930005021C160012242604FF4CA61C1604260DF
:105940004FF48651C16042600120494908607047A8
:1059500070B4054600201C003AD013F003040AD0AE
:1059600055F8206016F1010F32D016408E422CD02F
:10597000401C641EF4D19B0800F02A8055F820409A
:1059800014F1010F24D014408C421ED0401C55F855
:10599000204014F1010F1BD014408C4215D0401C44
:1059A00055F8204014F1010F12D014408C420CD055
:1059B000401C55F8204014F1010F09D014408C42CE
:1059C00003D0401C5B1ED9D102E070BCC0B270474E
:1059D00070BCFF20704700001E281DD8DFE800F0D3
:1059E000101C131C1619161C1C1C191C161C1C1927
:1059F0001C1C1C1C1C1C1C1C1C1C1C1C1C1C190006
:105A000040F2025209E04FF4817206E04FF20112B7
:105A100003E041F2011200E00022FF2909D14FF614
:105A2000FF30024042F0C00240F2037040EA024000
:105A30007047080008BF42F0300205D0C8074CBFCD
:105A400042F0100242F0200240F2037040EA0240AD
:105A5000704708490A681040C2430A607047000056
:105A60001010044000100440000004605460044022
:105A70000041044008100440DFF8B4078068704714
:105A8000DFF8AC17084490F84A017047024600203E
:105A9000022904D1012A06D140F2EE207047012AE2
:105AA00008BF4FF47A707047DFF8841791F841010E
:105AB00020B1D1F86C01002818BF004770472DE9CC
:105AC000F841DFF86C4704F2391583B0687A002892
:105AD00040F091800121697204F5B67601F00FF96A
