:1000000000000120C1710300DD550100DF55010032
:10001000E1550100E1550100E1550100E155010004
:10002000E1550100E1550100E1550100B53D020037
:10003000E1550100E1550100773D0200413D02001C
:10004000E1550100E1550100E1550100E1550100D4
:10005000E1550100E1550100E1550100E1550100C4
:10006000E1550100E1550100E1550100E1550100B4
:10007000E1550100E1550100E1550100E1550100A4
:10008000E1550100E1550100E1550100F8B584B0EA
:100090005F4CE077002565630C20202160540D2023
:1000A00060845C48A084A74E3778277170786071AF
:1000B000B178A171F278E271337923727679667240
:1000C00027756075A175E27523766676FF2020732B
:1000D0006073A073E07320746074A5859A4F380034
:1000E0001C3003F09BFC994E4078B07738001C30F0
:1000F00003F094FC007820217054954800882085F6
:1001000038001C3003F08AFC4069A06338001C30C2
:1001100003F084FC01798F48017038001C3003F033
:100120007DFC41798C48017038001C3003F076FC6E
:10013000C078207703F07EFC05F0EBFF00906A4664
:100140001078207005F0D2FF0090844A6B46197831
:10015000117006F0CCF907280AD106F073FA802155
:10016000C901E07F06F056FC002006F02CFE32E0CC
:10017000C046C0467A4800688047060006F034FE54
:1001800007F032F8684606F04DFF0421684601701A
:100190006946002007F09EF8206307F08DF93000D3
:1001A0007049096888470C216F4807F018F920004A
:1001B0000C3007F05BFB07F097F86C490D606C485A
:1001C00088808D710121FF200020C0468021890197
:1001D000E07F06F01FFC05B0F0BD80B5012007F000
:1001E000B1FE01000020634B1B689B7C012B00D0FB
:1001F00000230B4360490968C97A012900D0002116
:100200001943B04B9B68002B00D00120084302BD6E
:100210003C09002032030000F8B50C00AB4D8027EC
:100220003F013C4211D0688DFF280BD0C0B207F0CF
:100230009AFE060006D01621B07908F035FA300093
:1002400007F095FEFF20688557E0FE08344202D093
:10025000C046C04632E02026344202D007F01AFEE3
:100260002CE0E0070CD509F0ABFA002805D00021FE
:100270008160E86B002800D0804701206040F2BD1B
:100280000826344202D007F0FDFD17E01026344264
:1002900002D0022100200FE00226344201D03C218E
:1002A00009E00426344202D007F0F0FD06E0802683
:1002B000344206D03B21012007F0F0FD66403000BB
:1002C000F2BD77013C421BD0A84E30680D3007F0DC
:1002D00036FB002804D13068C11D0D3007F09EFAAE
:1002E00007F0E0FD784842683900E87F09F038FD02
:1002F000002802D08E2008F008F867403800F2BDD0
:10030000B5002C4202D009F035FF16E06D002C42FA
:1003100002D0C046C04610E02D012C4203D08120FF
:1003200007F0F3FF09E06D082C4209D00AF07DFACE
:10033000BF4807F015FF00F021F865402800F2BD26
:100340000020F2BD5800004E10710300C0CD002007
:100350003A0D002012DA002013DA002010DA002013
:10036000100500201405002014D900207CD900209D
:10037000FFFF0000CC0C0020D00C0020FEB50024B4
:100380006846047005F0C5FE0190504B01AA107834
:100390001870BA4800680AF0E3FBA64800680AF043
:1003A000D5FDAF480078012809D10AF064FE0500A8
:1003B0000AF05FFE29000AF0EDFD6946087000F0C2
:1003C00016F9AD4EB06B048044800471B16B4C7172
:1003D000AB4D2968002909D08C7409F0F1F929681E
:1003E0000968884202D1A74803F0C2FBA64D2968DC
:1003F000002909D0CC7209F0E3F92968096888421C
:1004000002D1A24803F0B4FB00250DE0B269F4214B
:100410004900484310184079012804D1E8B207F098
:10042000A2FD07F0A4FD6D1C2021715CE8B288429A
:10043000ECD307F0A0FD964DB07FE87507F0D3FD33
:10044000B278D00701D5072000E00520FB21FF2767
:10045000120701D5FF2200E0FB22024072772C82B6
:100460000120A874EC7428756C75AC756C831B2026
:100470007084A4204000B084F084A920000130855D
:100480007185F185AE48B085308607F079F90BF0BB
:10049000EDF8C046C046C046C04608F0BBF9F47748
:1004A0002F706F70AF70EF701F2129712F726F72F4
:1004B000AF72EF722973252028763477684600786A
:1004C000FEBD000090C7002038D900203C09002064
:1004D00038B59C480568A80080B20DF06EFB04009A
:1004E00001D1072032BDAA00002106F060F92900E1
:1004F00020000DF06FFB002803D020000DF065FBFD
:1005000008E0200006F0A0FD050020000DF05DFBD6
:10051000002D01D0032032BD002032BD80B518303F
:1005200080B20DF093FB002803D01321C9430DF0D6
:10053000D9FB02BD80B5401D80B20DF087FB0028BD
:1005400003D00421C9430DF0CDFB02BD98490A79BF
:1005500002704A7942708A798270CA79C2700A7AC6
:100560000271497A417100207047000040D9002093
:1005700080B5002800D1E7E03F49CA7F052A17D19E
:100580003F4A1268927A012A2FD0032A2DD0884A36
:10059000037813734378537383789373C378D37357
:1005A000037913744079507401200877002002BD4C
:1005B000062A07D1344A1268927A012A15D0032AF2
:1005C000E5D112E0112AE2D1974A1268002ADED062
:1005D000137A012BF9D1136E5B78DB06F5D5422334
:1005E000D35C012B01D0032BEFD10C2002BD80B5D1
:1005F00003F0E1FA010004D1204800680AF0BEFAD5
:10060000002002BD38B505000C0003F0D4FA01004B
:100610000BD1220003D0012A01D0122032BD2900C3
:100620000123164800680AF021FB32BD00000000DB
:10063000FEFF0000FCD9002038B505000C0003F0D7
:10064000BAFA01000BD1200003D0012C01D01220F6
:1006500032BD29002200094800680AF0BFFB32BD04
:10066000B809002010B50400044800680AF0B4FA84
:100670002070002010BD0000C0CD0020F8D900205F
:10068000CC0C002014C70020D00C002050C7002044
:100690007CD7002080B5002803D0002901D0002A93
:1006A00001D1122002BD06F05EFF002002BD80B520
:1006B00006F095FE02BDF8B502788F2111436A4617
:1006C0001170694609780170C27820211143C17008
:1006D000C02702793A4302714479012323434371CD
:1006E0003F24857825438570FF264670CC260E432F
:1006F000C670FF24047102211943417169460A78CA
:1007000070211143017010213143C1708470C47095
:100710000020F2BD002802D0BB49497D01700020B5
:10072000704780B5002800D10EE00022B6498B1832
:100730005B788354521C082AF9DB002002BD0000BC
:10074000904200007473030006F03DFB1E2002BDC2
:1007500070B504000D001600002C01D106F033FB2B
:10076000002D02D1002006F02EFB002E02D1002029
:1007700006F029FB002C03D0002D01D0002E01D162
:100780001E2070BD29482021415C2170418C2980A8
:10079000808C3080002070BD0100012803D19B486F
:1007A0008175002070470028F9D0122070470000A2
:1007B0003C090020F8B5060007F0C0FB01001AD183
:1007C000F0B207F0D0FB05006879002801D10220C3
:1007D000F2BDFF2016302C18207801280CD18D2076
:1007E00040002918488800900B88E27831000020EA
:1007F0000DF02FFB0020F2BD854800688047070000
:10080000844E6078002809D10C21280003F05EFA9C
:1008100001206070380031688847EBE738003168A4
:1008200088473A20F2BD0000C40C00203C0900209B
:1008300010B5140014D0002902D0012909D00FE00E
:1008400005F09EFB7F23DB43984206D123703020C6
:1008500010BD05F04BFC05F066FC2070002010BDBB
:10086000122010BD38B505000C0007F067FB00280A
:1008700001D0022032BD280007F075FB6221415CE7
:1008800021706230417861708178A170C178E17027
:1008900000792071002032BD38B505000C005A489F
:1008A000C07F0C2802D10AF02DF90EE00A2802D1EF
:1008B000A648807809E0280007F040FB010006D137
:1008C000E8B207F050FB7421405C2070002032BD7C
:1008D00038B504000D00052D0DD0132D0BD0142DAF
:1008E00009D0152D07D01A2D05D0292D03D03B2D69
:1008F00001D0122032BD07F021FB010012D1E0B27D
:1009000007F031FB7721415C022901D13A2032BD49
:100910009021490045540021C183FF22022103F0A8
:1009200028FA002032BDF3B583B0040015001E0084
:100930003748006880470290364F0498002805D059
:1009400068460671002E06D0012E04D00298396840
:100950008847122055E0C580AD48008DA84207D2D7
:100960008A2007F0D2FC029839688847302048E096
:10097000200007F0E3FA050022D1E0B207F0F3FA15
:1009800004002248C17D00290AD101200DF053FA4C
:1009900002200120C046029839688847072030E0CD
:1009A000491EC175D9204000205A6946C98888422D
:1009B0000FD20A460499200004F0B1FA050004D0D1
:1009C00002983968884728001BE004980DF057F911
:1009D00009E01020009068460379C288D2B20499D9
:1009E000200004F0B3F908F0EBFE216809880088C4
:1009F000814202D1200007F0D2FA02983968884774
:100A0000002005B0F0BD0000C0CD00207CD7002044
:100A1000100500201405002010B500240223022830
:100A200004D007D3042803D005D303E0012302E058
:100A3000042400E000230B70147010BDFEB5060006
:100A4000282811DA68460270002A0FD0012A0DD03A
:100A5000022A0BD0032A09D0042A07D0052A05D080
:100A6000062A03D0072A01D01220FEBD384DE87FA8
:100A7000002801D02120FEBD68460371C170804C62
:100A80002000804938220DF01DFB300040302C2121
:100A90006054684601782E2021546846C0782F2182
:100AA000605400203021605477480078C046C0462A
:100AB000029022002D3202A908781070E86B40895C
:100AC000A08600AA521C00A9891C68460079FFF77D
:100AD000A3FF00236846C2784178807804F053FC75
:100AE0000700F93069490DF02DFB080000D0012006
:100AF0000190684680786946497801436180F937FA
:100B0000380062490DF01EFB0199401860494843C6
:100B100080086086E86B06706846C178E86B4170B3
:100B200068460178E86B8170E86B00218180C180A4
:100B3000802101720920E8775648A06100202061D9
:100B400055480068606102F007FB0000A0D8002053
:100B5000C0CD0020F8B50600282801DB1220F2BD28
:100B60004E4DE87F002801D02120F2BD68468170FB
:100B7000C1484B4938220DF0A5FA310040314948AF
:100B80000170494CBC480463BC4F47632000BC491A
:100B900014220DF097FAFF202074607C0421014399
:100BA00061743800B74910220DF08CFA39780320AF
:100BB000084338700024BC603C737F20C043B87089
:100BC0007C60E86B0670E96B4C70FF20E96B887005
:100BD000E86B8480C480802101720A20E87700AA33
:100BE000521C694668468078FFF716FF6846017810
:100BF000A1484180274981610461A34800689E495A
:100C00004861A24807F0ACFA9B4902F066F900007F
:100C10003C09002038B5214DE87F092803D00A2877
:100C200005D0212032BD16480221352402E0924829
:100C30000321392409F0BCFE032805D0102803D075
:100C4000A04201D0032032BDE87F092802D1002153
:100C5000002010E00A2810D1E96B884843890289F6
:100C60009B18027B9A188A8082780A720289E96B43
:100C7000CA80012140890DF022F90020E87732BDB9
:100C800054D400204C6B030010DA002071020000E5
:100C9000C4090000112001008C650300C0CD0020B4
:100CA000846B0300B8D4002010D80020F1B586B0C2
:100CB0000C0015001E006846008B07F03FF901008C
:100CC0003ED10C9F684686822E00C482008BC0B243
:100CD00007F049F90500B62040002C180C30281800
:100CE000049060890390207A0290288901900097EF
:100CF0006846838A3200C18A280004F0DBFA0028A3
:100D000001D012240FE06846C08A208066806846C1
:100D1000808AA080E7802800903006806946898A12
:100D200041808780002428680088802802D1FC2226
:100D3000002101E0FC221021280003F01AF8200015
:100D400007B0F0BD38B504000D0007F0F7F801005A
:100D50001AD1E0B207F007F90400FF20801D201827
:100D60000178490707D40F210177FC2207212000D1
:100D700002F0FFFF07E0200002F0D4FF2A000F215D
:100D8000200004F028F8002032BDF8B50F004049DB
:100D9000BC1F8C4216D21600921F8A4212D2BE424B
:100DA00010D31C00FA2149008B420BDA069D290062
:100DB0000A39384A914205D25B1C71004B43E90065
:100DC0008B4201D31220F2BD694608806846008834
:100DD00007F0B4F801004ED168460088C0B207F0B1
:100DE000C2F8010077318A7A002A07D07722825C24
:100DF000002A06D00F2A04D0102A02D0497C0129EB
:100E000001D13A20F2BDFF21891D43180221026859
:100E10001288402A0AD1204A52780A4201D1112070
:100E2000F2BD1A780A4201D11A20F2BDB622520050
:100E30008218178056809480D58007008A37B97051
:100E40000022BA80828ED21D3A80FE803C817D8154
:100E50000124FF22683284547D3285182A781024B8
:100E600014432C701A780A4201D1002100E00F21AE
:100E700002F02CFF0020F2BD8CD40020A0D800206E
:100E800090650300A4650300B4650300FEFF000045
:100E90007B0C0000770C0000C0CD002010B50400D2
:100EA00001D11E2010BD05F06BF8207000202156E6
:100EB0007F20C043814201D1302010BD002010BDF1
:100EC00038B504000D0001D1122032BD07F036F80C
:100ED000010019D1E0B207F046F8016809884029FD
:100EE00001D00C2032BD0023EA5C59424418EF21A6
:100EF00062545B1C102BF7DB0122F1214254FF22CC
:100F0000052102F036FF002032BD10B5040007F0C5
:100F100015F8010026D1E0B207F025F8016809882C
:100F2000402901D00C2010BD0100FC3106220B78B5
:100F3000012B05D1902149004254FF2202210EE0ED
:100F40004B7A5B0708D5C221490043180321197069
:100F50005A70FF22112102E04A70FF220D2102F097
:100F600008FF002010BDF3B581B00400E0782179BE
:100F700009024018617909044618A079E17909024B
:100F80004018217A0904451820780AF0B3F800289F
:100F90000CD04C21415C002908D0627833211140EB
:100FA00067D1A17D4F22805C814242D160780007E9
:100FB00015D49F48203E864202D2203D854201D36F
:100FC0001120FEBDA01DE11C88425DD3A07A00283F
:100FD00005D0012803D0022801D0032849D1A07CE4
:100FE000002805D0012803D0022801D0032840D1D1
:100FF000207D012805D0022803D0832801D00328B2
:1010000037D1607A4007400F60723DD001212078CF
:101010000AF04BFB002809D106F094FFA849097893
:10102000884201D10D20FEBD0720FEBD017A0129B5
:1010300001D10C20FEBD002100224272046602751F
:101040000125667A012393401E4208D0037D5B1C74
:10105000DEB2012E02D11600253646750375521CEC
:10106000032AEEDB270006007878C20620D53A7DF9
:10107000012A63D1102819D0122815D0132804D0C2
:1010800015280CD01D280DD058E0B1731320385608
:101090009F4C7F2813D12078292170541DE0042013
:1010A000B073F3E7B573F1E70220F9E70320F7E740
:1010B0003900300006F0BFFF0100E7D0FEBD00217F
:1010C00005F00FF800903200293269460B78137052
:1010D000184605F02FF8002830D00298002805D0D7
:1010E0002920305C05F01FF802990870B97A0029B0
:1010F00001D0012910D142203154B97A300060303A
:101100000174B87AC00701D4211D01E021000C311F
:101110000622300030304AE07E4800680D3006F08C
:101120000EFC002824D0B87AC10701D4211D01E0AB
:1011300021000C3106F0DDFB002801D11220FEBD9C
:10114000B87AC00701D4211D01E021000C3106222C
:101150003000303005F0F6FAB97A0120084042211B
:101160007054B97A012008403100603108740EE0F3
:10117000062268480068C11D3000303005F0E2FAF0
:10118000032142203154B97A300060300174614843
:10119000BA7A0121114002681170B97AC90701D4E5
:1011A000211D01E021000C3106220068401C05F0E1
:1011B000C9FA7878400737D5B87A022801D00328D1
:1011C00027D13A000C32F87A0121014051480068D9
:1011D00006F0C3FB0400FF2C1BD04E4800681E2104
:1011E000614340180D3006F0AAFB002811D11E20E3
:1011F00044432700474C2068C019C11D0D3006F03C
:101200000DFB30004230457006222068C019C11D18
:1012100006E0F87A310042314870062239000C317C
:1012200030003C3005F08EFA75720020FEBD0000E3
:10123000E1B70B0010B50400207806F087FE002807
:1012400002D0026E002A01D1422010BD1021527836
:101250000A4207D0E17820790006000C01432029DA
:101260002CDB5BE0E27823791B061B0C1A432A4B2C
:101270001B88934200D259E0006E4078C2071DD50A
:101280000A22430700D51122084200D0D21C810651
:1012900000D51232400600D5521CE07821790906AB
:1012A000090C0843FF21891A814207DA0020E07007
:1012B0002071611D0CF09EFF302010BD002123E045
:1012C000B80C002010B50400207806F03FFE00287E
:1012D00002D0006E002801D1422010BD4078C00627
:1012E00007D5E17820790006000C014320290ADBAC
:1012F00014E0E07821790906090C084306490988B9
:10130000814200D212E0012120000AF0FAF810BD5B
:101310003C09002040D90020420D00200020E07050
:101320002071611D0CF066FF122010BD0020E070DE
:101330002071611D0CF05EFF072010BDF8B505009F
:1013400058D0BA48C07F092807D00A2805D00B28F2
:1013500003D00C2801D00D2801D12120F2BDA8789E
:1013600006F0F4FD040001D14220F2BDA978B04896
:101370000170AE48C07F002802D1A978AF48017043
:1013800026005C367068407812210140022904D1A1
:10139000F068002801D10C20F2BD607A002829D025
:1013A000A07B01280CD1E87829790906090C0843AB
:1013B00006D0E97828790006000C0143812919DA62
:1013C0006878402816DA20000BF0F8F8E06D002865
:1013D00001D10720F2BD35612878012820D1A07BFA
:1013E000002803D0012801D0042819D1AE48007884
:1013F000002801D11220F2BD8C49497D814201D1E2
:101400000920F2BD70684078400709D54320215C6F
:1014100020003C3006F0D7FD002801D00B20F2BDA3
:101420006878002801D11120F2BD2878012800D069
:10143000D0E000272773A763207A012803D16879B9
:1014400031694871F0E01120C046C0460120207289
:10145000E772677308F007F96060AB48006880477F
:10146000AA4901E062684A6009680029FAD1A849DE
:1014700009688847A7496068416100216C48007885
:101480000020C04601226A4801781120C046C046AB
:1014900070684078C00605D520000BF057FC0100AD
:1014A00037D0F2BD608C0BF09DFF21216054706835
:1014B00000780020C04605000BD04C20285C002896
:1014C00007D0E17F20200843E077E17D1820084322
:1014D000E075200006F0B3FD070011D012280DD1F1
:1014E0008948006880470500200009F079FF200046
:1014F0000CF08CFA28008649096888473800F2BD4C
:10150000002D06D04C20285C012802D120000020AC
:10151000C04670684078C0071FD55220205A002866
:101520001BD0616D002918D04621615C814214D224
:101530000F200CF059FA00280FD06846716809781E
:1015400001705221615A4170090A81704621615C23
:10155000C17069460F200CF035FA344DE87F002841
:1015600022D16D480078002817D070684078800735
:1015700013D06A48007801280BD109F07CFD0600E1
:1015800009F077FD310009F005FD002805D01E2087
:10159000F2BD6348006806F07BFA1120E87701206D
:1015A000207207F05FF93FE0200009F09CFE002860
:1015B0003AD0E36D002B37D02169A27B012A02D0FB
:1015C0008088800000E0986A08185921615C00203A
:1015D000C04629E0207A002826D04B480068804782
:1015E0000700134D012128780020C046200009F093
:1015F000F7FE474E28781149097888420BD108F048
:10160000DFF86168884206D1486802F0B1FA380014
:101610003168884708E020000CF0F8F9380031689C
:10162000884720000CF078FA0020F2BDC0CD0020E1
:10163000BB0C00203B48007870470000BA0C00202B
:1016400070B5040030480068804730490A681500CA
:1016500001E02A002D68002D20D02B6E1E78A642B6
:10166000F7D104002A4E287A012804D120003168DD
:1016700088470C2070BD286810600868854201D139
:1016800028680860E86D002801D00CF09EFA280058
:101690000CF09BFA2000316800F066FD1C490968D7
:1016A0008847422070BD0000E0CD002070B50120C9
:1016B00006F048FC002801D00C2070BD12480068DC
:1016C00080470600114C14E028682060E86D00286F
:1016D00001D00CF07AFA08F073F86968884202D1F8
:1016E000486802F045FA281D08F01DF828000CF0A3
:1016F0006CFA2568002DE7D12068002802D0002070
:1017000005F061FB00F02DFD10050020C40C002049
:10171000140500208198000038D90020B809002065
:10172000F8D90020B80C0020F8B57F4E31680029A8
:1017300001D10720F2BD050014D06878022805D039
:10174000032803D0002801D0012851D1287802288D
:1017500005D0032803D0002801D0012848D1AA7859
:101760000520104000D1A3E0012A01D0042A1ED197
:1017700028796A791206120C1043AA79EB791B06B4
:101780001B0C1A43904220D32A7968790006000C7A
:101790000243042A20DBA879EA791206120C1043CE
:1017A000042819DBE878002801D0012820D1A87886
:1017B00005283DD128796A791206120C1043AA79BE
:1017C000EB791B061B0C1A43904271D32A79687976
:1017D0000006000C0243042A6ADBAA79E8790006B5
:1017E000000C0243042A63DBE878002801D00128BA
:1017F0005ED1687AAA7A1206120C1043EA7A2B7B21
:101800001B061B0C1A43904252D3687AAA7A12061E
:10181000120C104304284BDBEA7A287B0006000CEC
:101820000243042A44DB287A002801D001283FD152
:10183000887C012801D10C20F2BD002048743B496E
:10184000087028783A4C0127002801D001281DD1C2
:10185000316888722878C00701D4211D01E0210079
:101860000C3106223068001D04F06CFF297801203D
:1018700008403049096808702878C00701D4211D44
:1018800001E021000C3106222A483EE02948006888
:101890000D3006F054F800281ED02878C10701D476
:1018A000211D01E021000C3106F023F8002801D1B0
:1018B0001220F2BD2878C00701D4211D01E02100CB
:1018C0000C3106223068001D04F03CFF297801200D
:1018D0000840316888720AE0062216480068C11D77
:1018E0003068001D04F02EFF03213068817211481A
:1018F0002A7801211140026811702978C90701D4A2
:10190000211D01E021000C3106220068401C04F07A
:1019100019FF0622002130680B3004F048FF3068C0
:10192000056247740020F2BDCC0C0020BE0C0020E4
:101930003C09002040D90020F8B5A54D29680029B0
:1019400009D0060007D0086A002804D0497C002985
:1019500003D13178012900D199E0C149C97F092912
:1019600007D00A2905D00B2903D00C2901D00D2955
:1019700001D12120F2BD3178002901D0012905D102
:101980007178002904D0012902D0022900D07EE01C
:10199000B278F1780906090C0A4316D032797179C8
:1019A0000906090C0A4310D0B278F1780906090C2F
:1019B0000A43317973791B061B0C19430A235343DD
:1019C000A022D2004A43934261D2B278F17809064C
:1019D000090C0A431ED08178012901D0042919D1AC
:1019E000017942791206120C1143B378F27812068B
:1019F000120C13431A01914249D28179C27912061D
:101A0000120C1143B378F2781206120C13431A0128
:101A100091423CD2B278F1780906090C0A4338D0D9
:101A20008178052935D1017942791206120C1143CA
:101A3000B378F2781206120C13431A01914226D29F
:101A40008179C2791206120C1143B378F27812062A
:101A5000120C13431A01914219D2417A827A12066A
:101A6000120C1143B378F2781206120C13431A01C8
:101A700091420CD2C17A027B1206120C1143B37848
:101A8000F2781206120C13431A01914201D312206C
:101A9000F2BD8078022802D1002005F094F9286870
:101AA000466200276F4C3178012900D092E0807C9B
:101AB000012872D0022007F0D6FD296808606A4A22
:101AC00042606A4A42610F77092128688177286855
:101AD00047772868426A117953791B061B0C194312
:101AE0009678D3781B061B0C1E43A022D2004A43D3
:101AF0000921C943714351188161062200210B302D
:101B000004F055FE627F296828200A540BF08AFBF6
:101B10000100BDD10520C046C0460121286881745E
:101B20004F4EF07F002839D151480078002822D04C
:101B3000504C514800680D3005F001FF002805D1D8
:101B40002720215C04200843272160542720215CA2
:101B500018200843272160542968096A4978032915
:101B600001D0022903D102210143272021542068FA
:101B7000083805F08DFF002300220021032009F022
:101B800026FF3E480770C046C0460520F077012278
:101B90000021C046C04606F065FE5FE02868016A85
:101BA0008A1D374909788B00591851180A784B78E3
:101BB0001B061B0C1A432821415C4069314B5343DF
:101BC000C0189622120180180020C04646E000BFCF
:101BD000CC0C0020817C00290BD1407F01283DD115
:101BE0002021E07F08F0F4F8002109200BF0EAFE44
:101BF00034E025480068804700902021E07F08F00D
:101C0000E7F82868877407F0DBFD204E296809682B
:101C1000884210D1144801F0ABFF312801D00228CE
:101C200005D11B48E0630121E07F04F0F3FE00983A
:101C30003168884712E00BF0F5FE0098316888475C
:101C40002868416A0A7948790006000C024305D1E8
:101C5000002109200BF0B6FE286847620020F2BD83
:101C6000C0CD00203C09002014C70020F9990000D5
:101C700038D90020C8C7002040D900201DDA002034
:101C8000BE0C0020C409000010050020140500202F
:101C9000FD800000FEB50500B1480068002801D1B4
:101CA0000720FEBDC07A012804D0042007F097FD6C
:101CB000012801D10C20FEBDAA48C07F092807D009
:101CC0000A2805D00B2803D00C2801D00D2801D1FB
:101CD0002120FEBD002D22D02878002802D0012826
:101CE00018D106E006220021E81C05F044F800287F
:101CF00010D1A878002805D0012803D0022801D0EF
:101D0000032807D16878002806D0012804D00228CB
:101D100002D0032800D002E1697A0520084000D1F2
:101D2000FDE000200021012200926B7A82401342E4
:101D300000D191E00A01AF18BA7AFB7A1B061B0C9E
:101D40001A43042A35DBBA7AFB7A1B061B0C1A43AA
:101D5000854B9A4268DA3A7B7B7B1B061B0C1A4345
:101D6000042A26DB3A7B7B7B1B061B0C1A437E4B2B
:101D70009A4259DABA7AFB7A1B061B0C1A433B7B50
:101D80007C7B2406240C23439A420AD33A7E7B7E32
:101D90001B061B0C1A43BC7DFB7D1B061B0C1C4346
:101DA000A24200D2BBE0BA7BFB7B1B061B0C1A4392
:101DB000062A00DAB3E0BA7BFB7B1B061B0C1A4336
:101DC000C94B9A4230DA3B7C7A7C1206120C1343E0
:101DD000062B72DB3B7C7A7C1206120C1343C24A40
:101DE000934221DA3B7C7C7C2406240C2343BE7B7B
:101DF000FC7B2406240C2643B3425ED3BB7CFC7CD4
:101E00002406240C2343FA246400A3420CDA3B7D0D
:101E10007C7D2406240C23430A2B4EDB3B7D7C7DFA
:101E20002406240C2343934279DABA7CFB7C1B06FC
:101E30001B0C1A43BB7BFC7B2406240C2343521C43
:101E40005B005A433B7D7C7D2406240C2343DB004E
:101E50009A4264D2491CC9B2401CC2B2022A00DCB8
:101E600061E73F4800684561687A062801D100991A
:101E700000E000219D48017002F0F6F8040001D155
:101E80000920FEBD364FA17938680174A978E81C95
:101E900006F099F8002804D0200002F0FAF90B208F
:101EA000FEBD21006231200001F0BAFF3B20205C22
:101EB000012803DC200002F0ECF930E06878396892
:101EC00088726878AA4E002801D0012809D1C0077D
:101ED00001D4311D01E031000C3106223868001DAB
:101EE00049E0A44800680D3005F029FD002806D11E
:101EF000A148007800281FD1287800281CD16878D4
:101F0000C10701D4311D01E031000C3105F0F1FCB5
:101F1000002804D06878C00703D4311D03E01220E4
:101F2000FEBD31000C3106223868001D04F00AFCA9
:101F300000213868817207E006228E480068C11DC2
:101F40003868001D04F0FEFB8A486A780099114049
:101F5000026811706978C90708D4311D08E000BF14
:101F6000D00C0020C0CD00200140000031000C3119
:101F700006220068401C04F0E5FB2878002835D1D3
:101F8000A978A920400021540622E91C801F2018AE
:101F900004F0D8FBEA1CA878009901407548006855
:101FA00005F0DBFC0190FF2820D072480268019800
:101FB0001E2148431018417F002917D10D3005F02C
:101FC000BEFC002812D1A97802200843A9214900AB
:101FD000605406226748036801981E214843181878
:101FE000C11DA6204000201804F0ACFB02F014FE36
:101FF000A0620CF039F960623C48007803012800C7
:102000001030C218117850780006000C0143618628
:1020100028001430C1180A7848780006000C0243E2
:10202000E286EA18907CD17C0906090C0843A08658
:102030003868407C2C21605402212E20215405F068
:10204000C9F9618E0CF07BF8218605F0C3F90C21EB
:102050000CF075F8491D3C202154042007F003FBC7
:102060003968086045494160454941610620C046DC
:10207000C04600983968C872B17F38680176A07987
:102080000BF074FA3F4CE07F002814D13A480078F6
:10209000002803D03C48006805F0FAFC3868007C52
:1020A00005F075FF0620E07701220021C046C046FA
:1020B00006F0D8FB15E03A6850690C300B490978F6
:1020C00009014318187859780906090C0843117E4C
:1020D000D3682E4A42439A18962000011018002017
:1020E000C0460020FEBD0000810C0000C00C002096
:1020F00070B5274D2868C07A002804D0042007F066
:1021000085FB002801D10C2070BD22480068804763
:10211000060000212868C172154C07F0A7FB0128B2
:1021200005D007F04DFB2968096888420DD1134896
:1021300001F01EFD312801D0022808D11648E063C5
:102140000121E07F04F066FC01E00BF071FC2868DF
:10215000007C05F008FF02F09CF81021E07F04F0FD
:1021600059FC30000D4909688847002070BD000007
:102170003C09002040D9002038D9002050C7002059
:102180009F9A0000C0CD0020F8D90020C4090000AB
:10219000D00C00201005002005810000140500204F
:1021A0000100F0221201914204DA9F4A2023D35CFD
:1021B000984201D3122070479269F42040004143B5
:1021C00050184079002801D1022070470020704744
:1021D000F8B5060008D03179E020084004D130007D
:1021E00001F0F0FE012801D01220F2BD00248E4D36
:1021F00000E0641C2021695CE0B2884218D2A96921
:10220000F42252005043081840790128F1D1E0B27D
:1022100005F0A9FE010077318A7A002A03D07722DF
:10222000805C012802D0C87F0128E2D13A20F2BDAB
:1022300000200090002418E005F095FE4179012966
:1022400012D10168098880290ED100996222775C39
:1022500043189F54491C0529F9DB828ED21D982111
:102260004252012101F032FD641C2021695CE0B280
:102270008842E1D30020F2BDFEB50F0005D00092E8
:10228000002A02D00193002B01D11220FEBD0400D0
:1022900005F054FE010057D1E0B205F064FE0600DF
:1022A00030680088802801D00C20FEBD3500F03554
:1022B000687DC00701D41120FEBD687C012801D1D2
:1022C0003A20FEBDA0480068804702900120687453
:1022D00000240020B4213B5C32185354401C0828D1
:1022E000F9DB3000BC300099097801700099497819
:1022F00041700022019FEF23B95C50423018C15455
:10230000521C102AF8DB3000AC3005F0F9F8300030
:10231000A03005F0FDF80C219D4805F060F867201D
:1023200034542C706C709A20305C012802D12873D0
:102330000A2101E02C730321300001F0C7FC029850
:102340009449096888470020FEBD10B5040005F0D7
:10235000F5FD010021D1E0B205F005FE8221490022
:1023600041180A78022A07D1FF210E3142188179DB
:1023700000200BF00BFE0FE002681288802A01D1CA
:10238000082107E0402A07D14978090701D4112024
:1023900010BD0E2101F09AFC002010BD70B50500A3
:1023A0000C00C0B205F0DFFD0600280005F0C6FDF8
:1023B000010007D1B020400030580A210BF0C2FEC6
:1023C0002080002070BD38B505000C0005F0B6FD7A
:1023D000010028D1E8B205F0C6FD210007D0CB00EE
:1023E000828E521C448E64006243934201D21220BA
:1023F00032BDB022520084180A22514321609A2132
:10240000405C00280ED0504800688047050000203E
:10241000607120684108A0790CF048F828005D49F7
:1024200009688847002032BDC0CD002070B50C007F
:102430001B39E1290CD216005749521857498A42D4
:1024400006D2574B598DA14202D39A8DB24201D286
:10245000122070BD050005F071FD01002FD1E8B21A
:1024600005F081FD8221490042185178890601D486
:10247000112070BDD8214900415CC90601D51A2040
:1024800070BDC521490041180B78012B01D13A20BC
:1024900070BD1378022B0AD19278120707D4CC8032
:1024A000A64A964200DB16000E818A8001E0CC80AD
:1024B0000E8101220A70142101F008FC002070BD79
:1024C000002202800A80364A53789B0601D41120EC
:1024D0007047538C0380908C08800020704710B5A3
:1024E00002001B3AE12A0BD22B4A8B182B4A93424B
:1024F00006D22B4A548D844202D3948D8C4201D251
:10250000122010BD53789B0601D4112010BD5084B9
:102510009184D1841185002010BD30B50024048041
:102520000C8014801C801E4C6578AD0601D41120EF
:1025300030BD658D0580A08D0880E08D1080208ED7
:102540001880002030BD00001005002070B5144C2C
:10255000657D002D01D00C2070BD6578AD0601D4DD
:10256000112070BD05001B3DE12D00D260850B4898
:10257000094D4E19864200D2A18511001B39E1296F
:1025800000D2E2855919814200D22386002070BD15
:1025900014D9002014050020B8FEFFFF49410000B7
:1025A000C0CD0020FEB50500080019002B0001D0A9
:1025B000012D2BD11600009002D0002826D003E078
:1025C000002823D1002921D0AE4F00290ED010229F
:1025D00038680D3004F0B6F8102138680D3004F07A
:1025E000E9FE3868C11D0D3005F018F9002E00D144
:1025F000A0E0012D0CD1300005F0A1F9002807D191
:1026000000984179C0200840C02801D01220FEBDAA
:1026100001200290012101E0491CC9B2AC480078B8
:10262000884200DA88E038681E224A43801802781F
:10263000FF2AF1D101910C461E214C430570062260
:10264000009938680019401C04F07CF81022310011
:10265000386800190D3004F075F8386800190D302D
:1026600005F06DF900280BD11021386800190D30E4
:1026700004F0A0FE38680019C11D0D3005F0CEF839
:102680000025396809194D77FDF7A7FD012821D1EB
:10269000AF48007801280ED108F0EDFC060008F0E4
:1026A000E8FC320001003868001905F0C9FB002879
:1026B00010D01E20FEBDA7480068807C012803D1F1
:1026C000A5480168083901E0A44801683868001984
:1026D00005F0A0F901981E214843009000E06D1C10
:1026E000BD490978E8B2884224D205F03CFC417922
:1026F0000029F4D0A9214900441821780129EED1FC
:10270000A621490046183968009809180D31300093
:1027100005F0C5F80028E2D039680098095C0298F5
:10272000084020700622396800980818411C3000C3
:1027300004F008F80020FEBD0720FEBD4808000098
:10274000F8B5020001D0012801D1002901D11220E1
:10275000F2BD01244B4F06000D0001E0641CE4B201
:102760005B480078A04263DB39681E20604308188C
:102770000178B142F2D106222900401C04F006F88B
:102780000028EBD000941E204443FF2039680855F0
:10279000FDF723FD012849D16D48007801280ED1AD
:1027A00008F069FC050008F064FC2A0001003868A4
:1027B000001905F045FB002838D01E20F2BD654801
:1027C0000068807C012803D163480468083C01E06C
:1027D0006248046832002900200008F006FA070069
:1027E0002178884214D0201D01F018F90500201D21
:1027F00001F014F9F90043181A7858780006000C13
:1028000002436918BD4810400870000A48700DE086
:1028100032002900200005F097FA050006D0201D9F
:1028200001F0FCF8E900401808F0C4F90020F2BDFE
:102830000220F2BDF8B50124124E254F18E01E25E6
:102840006543FF2130684155062200213068401958
:10285000C01D03F0ACFF10220021306840190D307C
:1028600003F0A5FF0020316849194877641CE4B2E1
:102870003878A042E3DA0020F2BD154909780170EA
:102880000020704740D9002038B5030001D001284E
:1028900003D1002901D0150001D1122032BD984C7E
:1028A0000A000100206805F058F8FF2808D0062229
:1028B00023681E2148431818C11D280000F0D0FECF
:1028C00006220021280003F072FF022032BD000022
:1028D00013DA002080B5030010001A0001D0012B8C
:1028E00003D1002901D0002801D1122002BD062207
:1028F00083490968C91D03F025FF002002BD70B59A
:102900000100804DE87F802676017F4C002910D0A1
:1029100001291AD12178002909D16268310007F014
:102920001FFA002801D0032070BD01202070002074
:1029300070BD21780029FAD0310007F049FA310042
:10294000E87F04F0BBF80020F0E7122070BD000023
:10295000B8090020CC0C0020C8C70020F8D90020FE
:1029600038B5010002D0B549884201DB302032BDC4
:10297000654AFA21890048435060107801280AD13D
:10298000604D802464012100E87F07F021FA2100D6
:10299000E87F04F03FF8002032BD38B5140001D0C4
:1029A000012A05D1020001D0012801D1002901D15D
:1029B000122032BD524D0A000100286804F0CDFFFC
:1029C000FF2806D02A681E214843101844770020AB
:1029D00032BD022032BD0000E0CD002030B591B004
:1029E000412168460BF048FE684601F044F80500B6
:1029F0006C462021601C04F0DDFC202120002130E9
:102A000004F0D8FC002D01D1002000E01F2022009E
:102A10002132611C05F05CFD002011B030BD38B5DD
:102A2000A2B001006C464022601C03F08BFE042023
:102A300020702021601C04F0BDFC202120002130EA
:102A400004F0B8FC11A9684601F04CF8002801D147
:102A5000002500E01F2511AC2021601C04F0AAFC19
:102A6000611C280005F062FD002023B030BD70B568
:102A70000C0001D0160001D1122070BD050000210C
:102A80002170317005F05AFA010011D1E8B205F059
:102A90006AFADD214900421810780321042800D188
:102AA000032020701078042800D00100317000202D
:102AB00070BD30B5AA4CA378DD0701D5072500E02D
:102AC00005251B0701D5002300E00423DB432B4031
:102AD000C50701D51D0002E01D000D4008D04008CB
:102AE000C00703D52B4005D11E2030BD1340F9D1BE
:102AF000202030BD6377002030BD0000F7FF0000CC
:102B000040D900203C09002038D90020F3B581B01D
:102B100014001D00089E310005D0012E03D0022EA6
:102B200001D01220FEBD070005F008FA01006ED1A9
:102B3000F8B205F018FA009089488078C10701D5ED
:102B4000072100E00521000701D5FF2000E0FB2060
:102B50000840009ADE21490057183978C90601D586
:102B60001A20FEBD6946097A0A0005D1AC4212D18D
:102B700025400100294011E0012905D1A8420ADBC6
:102B80000100294007D009E0022906D1A04202DB5A
:102B90000100214002D11120FEBD010008407870E3
:102BA000BE70411E01400FD004217B780B4204D03F
:102BB000BA78002A01D0042006E00221084202D19E
:102BC0004908FBD100E00800009ACE2149005418C2
:102BD000E077009800680088402813D1E07F02F079
:102BE00053FC20760123A288B97802F0A7FB218844
:102BF000814206D30123A288B978207E02F09EFB91
:102C00000100E1821621009801F060F80020FEBD6D
:102C100038B5534CA57809242C4001D1112032BD80
:102C2000012B07D0022B05D0042B03D0032B01D09E
:102C3000202032BDFDF702FF32BD0000B9A1000027
:102C400010B5474B9C780923234001D1112010BDBA
:102C5000012905D0022903D0032901D0202010BD6D
:102C6000130003D0012A01D0122010BDFDF772FF1E
:102C700010BD38B505000C0003F03EFA03F053FA1E
:102C8000287003F033FA03F04EFA2070002032BDB2
:102C9000334A936B1A880280588808800020704756
:102CA00030B5904A904B84B2E418944203D38CB26E
:102CB000E318934201D2122030BD294DAC6B208025
:102CC0006180208840B20A210BF039FA2071AC6B88
:102CD000608840B20A210BF032FA6071002030BDEA
:102CE00010B5040008D02179E020084004D120006C
:102CF00001F068F9012801D0122010BD0022A1487E
:102D0000A15C8154521C042AFADD002010BD79B563
:102D1000002808D00179E020084004D1009801F093
:102D200051F9012801D0122076BD002300209549D9
:102D30000B76009A125C0C18227200251400EC40ED
:102D4000E607F60F9B196D1CECB2082CF6DB401C55
:102D50000428EDDD0B760120C046C046002076BD7C
:102D6000C0CD0020002901D1122070470120087039
:102D70000C20704738B5140006D003F0B2F90500F6
:102D800003F0D8F9002801D1122032BD280003F049
:102D900059F901202070002032BD80B5002803D0F1
:102DA000002901D0002A01D1122002BD04F0F8FB55
:102DB000002002BD10B5002801D1122010BDA44989
:102DC0004A7D002A01D00C2010BD0024035D0A19A1
:102DD0005370641C082CF9DB8A78D00701D50720D2
:102DE00000E00520120701D5FF2200E0FB2202408F
:102DF0004A77002010BD002806D0012806D1012105
:102E000060480175002070470021F9E712207047E3
:102E10008F49C97F072901D00C207047002806D0B0
:102E2000012806D101215748417500207047002133
:102E3000F9E712207047F8B50C00282909DA69462D
:102E4000087068460078002805D068460078012898
:102E500001D01220F2BD7E4DE87F002801D0212054
:102E6000F2BD07F0E2FC7B48016A2800403007F021
:102E70001BFD0700784E3000784934220BF022F910
:102E80003020315CFB200840694609788A00042123
:102E90000A4002433020325400236846007801285B
:102EA00001D1002000E00220FC2111400843302124
:102EB000705440342C203454F385694801782D2017
:102EC000315473806748B06133616748006870614E
:102ED0000B20E8776F633100380007F01CFD0020FD
:102EE000F2BD0000FFF50000FFFAFFFFF8B5040097
:102EF000282801DB1220F2BD5548C07F002801D0F0
:102F00002120F2BD07F091FC5248016A964807F073
:102F1000CBFC0090954F3800954938220BF0D2F841
:102F2000944D3D63944E7E632800944914220BF027
:102F3000C9F8FF202874697C04200843687490480D
:102F4000A86030008F4910220BF0BCF831780320C4
:102F5000084330700020B06030737F21C943B170E6
:102F6000706040342C217C543E49B96138618648F8
:102F7000006878610C213648C177009941633900B7
:102F80000098AAE77CD70020FEB51400282A13DA9F
:102F90006A46107068460078002803D068460078BA
:102FA000012809D10D002A4E0AD0B078012905D098
:102FB00002290AD0062908D01220FEBDC00706D576
:102FC000F07F002805D02120FEBD0007F8D4112095
:102FD000FEBD07F02AFC1F48016A3000403007F0B0
:102FE00063FC01901C4F38009A4934220BF06AF8B8
:102FF0003020395CFB200840694609788A000421AA
:103000000A40024330203A540023684600780128E1
:1030100001D1002000E00220FC21114008433021B2
:10302000785440342C203C54FB850D4801782D20E9
:10303000395440357D800B48B8613B61B348006826
:1030400078610B20F077019870633900019887E070
:10305000C0CD00207C090020C4D40020D46C030023
:103060003C09002011200100B8650300FEB50E00E8
:103070000DD001290BD0022909D0032907D004293A
:1030800005D0052903D0062901D0072909D1170049
:103090009F4D0AD0A978012A05D0022A0AD0062A13
:1030A00008D01220FEBDC90706D5E97F002905D04A
:1030B0002120FEBD0907F8D41120FEBD69468870A5
:1030C000944C2000944938220AF0FCFF40202C2127
:1030D0006054684681782F2021542E202654678022
:1030E0000026302026548D480078C046C046019006
:1030F00022002D3201AB197811700120A0866A469A
:1031000000A9491C3800FDF787FC00236846827837
:103110000178407802F037F90700F93080490BF068
:1031200011F8002900D0012168464180F9373800A4
:103130007B490BF007F869464988411878484143B4
:1031400061860D20E8779848A0612661974800685D
:1031500097490968014361619E4805F001F8210023
:1031600007F0D9FB0020FEBD00CE00208CD400204B
:10317000BC6B030010D80020A0D80020BC65030061
:1031800029417671D0650300E0650300FEB50C00AF
:10319000282912DA6946087068460078002810D09D
:1031A0005B4880780978012909D0694609780229A5
:1031B0000DD069460978062909D01220FEBDC00746
:1031C00007D55348C07F002805D02120FEBD000749
:1031D000F7D41120FEBD07F028FB7F48016A7F4825
:1031E00007F062FB01907E4F38007E4938220AF0DA
:1031F00069FF9F4D3D639F4E7E6328009E491422C8
:103200000AF060FFFF202874697C0420084368747A
:1032100030009A4910220AF055FF31780320084304
:1032200030700020B0603073706040342C217C54CA
:103230006946097879805C49B961386190480068CD
:1032400078610C213248C1770198314948633900CF
:10325000019885E7086D030080B52D48C07F0B28D5
:1032600005D00C280AD00D280AD12A4800E0A04831
:1032700000F07EFCFDF782F8002002BD5848F7E719
:10328000212002BD002801D1122070472049C97FAA
:10329000002901D00C207047AB490278FF2A1AD1CF
:1032A0004278FF2A17D18278FF2A14D1C278FF2AE8
:1032B00011D10279FF2A0ED14279FF2A0BD1087D64
:1032C0000871487D4871887D8871C87DC871087E05
:1032D0000872487E16E00A790A754A794A758A7931
:1032E0008A75CA79CA750A7A0A764A7A4A7602785B
:1032F0000A7142784A7182788A71C278CA710279F9
:103300000A7240794872002070470000E4650300AB
:10331000C0CD002054D40020F46B030010DA00204C
:10332000710200000200FF21F6318A4201DB122007
:1033300070478649C97F082901D0072901D10C208F
:10334000704783490968152A01DA072221E0130032
:10335000153B0A2B01D206221BE013001F3B142B46
:1033600001D2052215E01300333B192B01D20422B0
:103370000FE013004C3B192B01D2032209E013008C
:10338000653B322B01D2022203E0973A642A924134
:10339000D20F4A74954900E0488509680029FBD19D
:1033A000AE4908700020704711200100E865030055
:1033B000EC65030080B502F094FE009002F0BAFEC6
:1033C000002801D1122002BDAC4B6A46107818705B
:1033D000002002BDFEFF00007C09002000CE00207E
:1033E0008CD400202C6C0300F8B5060006F0E8F938
:1033F0000700300004F0A2FD010038D1F0B204F063
:10340000B2FD050001D0002F01D10220F2BD9C4881
:1034100000688047009038884B4C802801D04028B5
:103420001AD14A49897D8E4216D1FF2020302818B2
:103430000121017016214170786800F099FB312854
:1034400001D002280ED13888402801D18D4800E0F3
:103450008D48E063012102E0668580210901E07F5B
:1034600003F0D8FA00988949096888470020F2BD1E
:1034700010D80020A0D80020F065030004660300E7
:103480001466030038B505000C0004F057FD010078
:1034900010D1E8B204F067FD912149004018002CDA
:1034A00002D0012C07D00DE00021018041808180F5
:1034B000C180002032BDC3888288418800880CF01A
:1034C000B3FBF6E7122032BD714B002802D0012871
:1034D00002D00AE099857047988D1070988D000A87
:1034E000507000209070D07070471220704700001C
:1034F000C4D4002080B501006548C07F02D00129F6
:1035000007D00AE064228021890006F029FC00200F
:1035100002BD64228021C900F7E7122002BD02002B
:103520000FD00A4A937F83420BD3002907D0012989
:1035300007D1012257498874CA74002070470022BD
:10354000F8E71220704700003C090020C0CD0020A1
:10355000D00C002070B5002802D0B74B1B78037048
:10356000002902D04C48407D0870002A3CD000243D
:103570000025160033E001220FE004F0DFFC0028F4
:103580002CD1E8B204F0EFFCE1B27554611C4C1C84
:1035900002681288802AEED10022C9B27254A62194
:1035A000490040180278E1B27254641C4278E1B2DA
:1035B0007254641C8278E1B27254641CC278E1B225
:1035C0007254641C0279E1B27254641C4279E1B213
:1035D0007254641C8179E0B23154641C6D1C9649AC
:1035E0000978E8B28842C8D3002070BDC40C00201E
:1035F00038B50D00904A127890422CD204F0B3FCFA
:1036000004006079002824D02900606A0AF0F2FDE5
:10361000608E2871000A68713C20205CA871AF2080
:103620004000205AE871000A28723820205C687235
:10363000FF20E630205CA8740522210062312800BA
:103640000A3003F07FF803222100283128000F30D0
:1036500006E0022032BD1E2032BD0000BD0C00205D
:1036600003F070F8002032BD4007400F01D11E204A
:1036700070478D49087000207047000010DA002064
:1036800010050020DF7F0000D77F00001405002018
:103690003C0900207CD70020C0CD0020F0B585B0CB
:1036A0000400150018000026002262320492002255
:1036B000593203929D220292052C10DC6A46117049
:1036C00021000ED1C0B204F04EFC0600684600781E
:1036D000032833DA002E02D0707900282ED11E2064
:1036E000A8E0012C07D1C0B204F030FC0028F6D0CD
:1036F0005930039022E0042C07D1C0B20020C0460C
:103700000028ECD06230049018E0022C07D1674802
:1037100000680028E3D0407C00280FD1DFE7052CAB
:1037200006D10020C0460028D9D09D30029005E087
:10373000032C03D15E4800680028D0D0EE20400062
:1037400030180190AF00DD204000301880210906BC
:10375000CA436B461B78002B03D0022B44D022D3E4
:10376000BDE7032DBBD2210003D1002E61D08576A9
:103770005FE0012C01D103980DE0042C01D10498E5
:1037800009E0022C04D14948016828200D5450E07A
:10379000052C02D1029805704BE0032C49D1444816
:1037A0000068057645E0002C99D1002E97D003786B
:1037B000042B05D1914BEC18914B9C4205D38EE71D
:1037C000904BEB18904CA34289D2847F0123234372
:1037D0008377019800680140C820400138180240F2
:1037E0000A430198026024E0002C08D1002E06D084
:1037F0000378042B04D1A9231B019D4204D26EE758
:10380000A4235B009D42FAD3748E804B6343BB427A
:10381000F5D3019B1B6813409F42F0D3847F0223A2
:10382000234383770198406801403A400A43019856
:103830004260002005B0F0BDE0CD002000291CD181
:1038400003281AD27249130001D1087013E0012A2B
:1038500001D148700FE06F4B022A01D158770AE07E
:10386000032A01D1987706E0042A01D1887002E08A
:10387000052A02D1C870002070471E207047664993
:10388000C96B48810020704762490A7B02704A7BFD
:1038900042708A7B8270CA7BC2700A7C0271497C4A
:1038A0004171002070470000610D0020CC0C002009
:1038B000D00C002010B50C0004F048FB002C01D106
:1038C000122010BD002801D1422010BD817B0329A8
:1038D00002D1017A012901D10C2010BD0022422120
:1038E0004254227830214254627831214254A278E5
:1038F00032214254E2783321425422793421425415
:10390000627935214254002010BD3EB505000C00FF
:1039100004F014FB010013D1E8B204F024FB982159
:1039200049004018002C02D0012C0AD016E00021DA
:10393000018041808180C18001814181818100209D
:103940003EBD818902914189019101890091C3881D
:103950008288418800880CF085F9F0E712203EBD8E
:103960003EB505000C0004F0E9FA010013D1E8B2FD
:1039700004F0F9FA9F2149004018002C02D0012CD4
:103980000AD016E00021018041808180C180018140
:103990004181818100203EBD81890291418901914F
:1039A00001890091C3888288418800880CF08AF9D7
:1039B000F0E712203EBD012801D8112070471220E7
:1039C0007047022901DA402801DB122070472F28B6
:1039D00005D111488279012903D1530601D4112060
:1039E0007047437D002B06D1C9015206520E0A438F
:1039F0008271002070470C207047000070F5FFFFB7
:103A000001380000B8FEFFFF01070000C4090000F4
:103A10004B0D00203C090020C0CD0020C3788278E7
:103A2000417800781B021A4309021204084310432C
:103A30007047A62A38B5C046C046484C20000CF056
:103A400096FB474D28000C30FFF7E8FF007804286C
:103A500006D028000C30FFF7E1FF0078022800D1E3
:103A60002070210000200CF0F1FC6063002801D1DF
:103A700003F0A9F931BD38B50500384C20212000EC
:103A80003C3003F0ACFC202221003C3120005C30B3
:103A90000CF0E6FC4122290020006C300CF0E2FC26
:103AA000200024300CF0E4FC2E48FFF7B7FF8068BC
:103AB000606220005C30A06220006C30E062210077
:103AC0002431606B0CF073FBA063002802D000204F
:103AD00003F079F9202120003C3003F06BFCA06B4F
:103AE00040B232BD70B505000E001C4C20222100F2
:103AF0003C3120005C300CF0B3FC41222900200056
:103B00007C300CF0ADFC25008C35412231002800C2
:103B10000CF0A8FC200010300CF0B0FC1148FFF7AE
:103B20007DFF8068206120005C30606120007C3077
:103B3000A061E561202120003C3003F03BFC210026
:103B40001031606B0CF0B8FBA063202120003C30EA
:103B500003F030FCA06B40B270BD00005CCE0020D2
:103B6000107103002C71030080B50CF098FC02BDAD
:103B700080B5032106F01CFF02BD1CB5994C2088BE
:103B8000002817D040060AD50821684603F027FC14
:103B900068460CF033F8218893480840208020784C
:103BA000000607D50C21914803F019FC21889048A4
:103BB0000840208013BD80B58E48007804F0C6F917
:103BC0008D4909688A7C012A0DD10A6A5278012A36
:103BD0001DD0032A1BD0002A01D0022A03D1496A32
:103BE0004978012913D085490A68D17A012903D17E
:103BF0005169097801290AD000280AD0016E0029EC
:103C000007D0007A012804D1887C002801D00C203C
:103C100002BD002002BDFEB507000CF07DFCFA21BC
:103C2000090140180190380004F09DF9060074481D
:103C30000090012473480068204029D0002000250E
:103C400001E000206D1C704A1278E9B291420FD257
:103C5000EAB2BA42F6D0E8B204F085F90179012956
:103C6000EFD141790129ECD1016809888029E8D197
:103C700000280DD000990C700168C968728E634BE2
:103C80005343C9188079381A614A5043081806E02E
:103C9000009804700198728E5C49514340185D4948
:103CA0004863F7BD002800D1704710B500240472A6
:103CB00003238373012A00D1091DCAB2921D828198
:103CC000C473047444748374C17410BDF8B50500E2
:103CD0000C00002D04D02F00813738780A2803DB30
:103CE000002003F070F8F1BD4B48006880470600E3
:103CF00000203B7805E02A007732525CA2420FD0C8
:103D0000401CC1B29942F6D328007730C4543878A9
:103D1000401C3870C0B20A2802DB002003F053F8C0
:103D2000300022E0F8B5040001D1002004E02500B5
:103D30007635E87A002802D103F045F8F1BD36481F
:103D400000688047EB7A5B1EEB720022FF211B06A6
:103D500001D1697008E00023E71877377E783E705C
:103D60005B1C092BF8DBA9722A702C49096888476B
:103D7000F1BDF8B504000D00002C02D103F023F8CA
:103D8000F1BD16002448006880470090210076317C
:103D90000020FF2E06D14D70CA7A002A19D1521C7C
:103DA000CA7216E00022230077339F5CB74203D02B
:103DB000521C0A2AF7DB02E0230077339D540A2ABB
:103DC00005D1CA7A531CCB72230077339D54002A45
:103DD00000D10870C87A0A2802DB002002F0F3FF45
:103DE0000098C2E796D70020BFFF000014D900203A
:103DF0007FFF0000BA0C0020CC0C0020D00C00206B
:103E000080C7002074090020E0CD00208813000046
:103E1000204E000050C7002010050020140500208F
:103E200070B50A79D206D20E0A7100233B22835460
:103E30003D260025CA5CEA40D20709D5DA005419AC
:103E40003B22825C821894553B22845C641C84541F
:103E50006D1C082DEEDB5B1C042BEADD70BD70B51C
:103E600004003820215C39202154E020400025182E
:103E700026009636307801281CD12089411C708894
:103E8000814217DB210062312000FFF7C9FF2000CB
:103E9000296888473A2160540120C046002806D08E
:103EA0003A20225C21006231A07904F0C3F902209B
:103EB000307004E02000296888473A2160543A2095
:103EC000205C21684A682C21505470BD38B504002C
:103ED00021896089401A80B2010000D10120392176
:103EE000615C3C22A25C4243881825210AF027F934
:103EF00038202154002200E0521C3B20215C382055
:103F0000205CD5B28D4206D223003D33D1B2595C3C
:103F10008842F1D132BD50E0010900010843020698
:103F2000920E332111408200CC20104008434208F9
:103F3000552111404200AA20104008437047F8B5AF
:103F40004140032506000C00200AFFF7E5FF0702A9
:103F5000E0B2FFF7E1FF384301010918881984B284
:103F60006D1EF1D130006040F2BD70B50400606A92
:103F70006189020C504080B2FFF7E1FF0600250086
:103F8000383525210AF0DBF82970002100E0491CB2
:103F90003B20205CCBB2834208D23820205C230037
:103FA0003D33CAB29A5C9042F1D170BD21003D31DF
:103FB0007043000C085C287070BD3D340AF0BFF8F7
:103FC000605C32BD10B5002200210379DB06DB0EF8
:103FD00003710024035D002B01D0521CD2B2012AD0
:103FE0000BDC002B00D01900641C042CF2DD002A2D
:103FF00005D04A1E0A40100002D0012010BD00204A
:1040000010BD38B5C0B203F0AEFF0400DD204000A3
:1040100025186946287801F06DFF002101202A78D3
:10402000042A03D12A79012A00D101216279002AC8
:1040300001D1FF2032BDAA7F024213D19A20235C16
:1040400000226846007801F09EF9EE2149006118CF
:104050000A6880231B061A400004430BBC4818184A
:1040600010430860002032BDF8B5BA480078BA495C
:104070000978814200D10AE10026002400E0641C96
:10408000844200DB00E1B4494A68F42149006143FD
:10409000511809790029F2D1E0B203F064FF01213F
:1040A00001714671847146620300623359710300E5
:1040B000683319711E609E60068146810174392241
:1040C000865486610677C68307008837BE733E70C4
:1040D000A62252008218167480241C739E735E768A
:1040E000FF246D462C809C77FF231633C3181E7067
:1040F0005E709E70DE708D235B00C3181E805E8034
:104100005E71BE740400F034267066706660A6604E
:10411000A673267426736674A674E6741E815E8187
:104120009E81DE8196235B00C7183E606B461B882C
:1041300013815681894B5361167656766B461B88E0
:104140009376D8235B00C418A1720223E372A6738E
:104150002673834B1B786373A67196711670567025
:104160009670D67016715671EA235B00C3185E74A0
:10417000C522520085182E7026707A4A12882A812C
:10418000794A1288AA80794A1288EA80784A128885
:104190006A80A4225200EA812A821B236B81AB81B0
:1041A000EA822A836B82AB826A83AA83EA832A84A7
:1041B0006A84AA846380217100216A4615884318A5
:1041C00077229D54491C0A29F7DB01006231694AB4
:1041D00013780B7053784B7093788B70D378CB70C7
:1041E00012790A71002564490091009949194B78A8
:1041F0004219FF21891D53546D1C082DF5DB050064
:10420000F030427DFB21114041755C49216106750A
:10421000A879FFF7F6FEEA204000281858490978E7
:10422000017046800279FE2111400171FD220A4091
:104230000271C168802212061140524A0A43C260CC
:10424000027CF821114001746683A68326622683CE
:104250000220A077267540480178491C0170C9B238
:10426000012901D1A9798170BE80FE803E817E81C5
:10427000BE81FE813E827E82BE82FE823E837E833E
:10428000BE83FE832800F2BD002002F09CFD0020CA
:10429000F2BD70B50400A079C046C046B4480078AD
:1042A000082801D0072803D10122A179C046C046C1
:1042B000B04E00256079002808D06571707800281C
:1042C00001D102F080FD7078401E70703078401E81
:1042D0003070000601D1FF20B070257170BD70B53F
:1042E000002200251C481B490AE0F42464006C43AA
:1042F0004668361972714668361D32556D1CEDB22E
:104300000B789D42F1DB0280FF21817070BD70B59A
:104310000C00C0B203F027FE01684968CE694179FC
:10432000002901D1FF2070BD050009E0698E924887
:1043300048432418EB20400029180888401C0880B6
:10434000210030000CF0ECF80028EFD170BD000027
:10435000581B0000E0CD0020D4CD002030750000B7
:10436000DDCD0020E4CD0020F0CD0020E2CD002006
:10437000EECD00207CD70020C0CD0020CD3E000037
:104380004B0D0020400A0100FEB505000C00C0B234
:1043900003F0E9FD0600E0B203F0E5FD316849688D
:1043A000C969029101684968C969019142797179C5
:1043B000002902D0002A05D1BCE0002A00D0B7E0D5
:1043C000FF20FEBDDB2149007118897F0329F3D04E
:1043D000DB2149004718B97F032900D1A8E0C18932
:1043E0004B08C3214900425A69460A80F1894908AD
:1043F000C3225200B25A91426946098802D38B42C5
:1044000003D297E08B4200D392E0FF21E431415C7C
:10441000C909FF22E432B25CD20902D0002902D1DC
:1044200088E0002971D1010088318822B25C002A1D
:1044300011D07289521C93B2320088325288934252
:1044400009DB0A78002A75D04289521C92B24B8847
:104450009A4209DA6EE00A78002A05D04289521C95
:1044600093B24A88934263DA32008832937B012BFD
:104470000FD173895B1C9BB2128A934209DB8A7B42
:10448000012A57D14289521C92B2098A8A4209DA1A
:1044900050E08A7B012A05D14289521C92B2098AD6
:1044A0008A4245DADB2149007318197801290FD1B6
:1044B0007189491C8AB259888A4209DB39780129F5
:1044C00038D14189491C89B27A88914209DA31E0B0
:1044D0003978012905D14189491C8AB279888A42F3
:1044E00026DADB2149004118897FDB225200B2180D
:1044F000927F91421ED38A421AD3718E408E884297
:1045000004D23A8C5043884214DB11E01A8C814269
:1045100003D2514381420BDB0CE0388C904209D32B
:10452000824205D3019902980BF0FAFF002801D0CE
:104530002000FEBD2800FEBD60B50E494B78A349A2
:104540000968012B02D10A7890420ED0002500E0C4
:1045500035005A1E954208DA6E1C4A5D9042F7D12A
:104560009E4202D0481C405D60BDFF2060BD00003F
:10457000DFCD0020D4CD0020C4090000F8B50C0028
:10458000C0B203F0F0FC0500E0B203F0ECFC040064
:1045900028684068C76920684068C6696179687999
:1045A000002803D0002905D10020F2BD00291BD12D
:1045B000FF20F2BD310038000BF0B2FF002807D019
:1045C000EE2040002058400040083118380006E036
:1045D000EE204000285840004008391830000BF009
:1045E0009FFF401E8041C00FF2BDF3B583B00400B1
:1045F000C0B203F0B8FC070038684068C06900909A
:104600007879002802D1FF2005B0F0BDEC204000F1
:104610003D1828784008C0072BD4802636066C4801
:104620004078012808D1694800680078844202D0A7
:10463000002002F0C8FB7BE06846008AFF2827D0F4
:10464000C0B203F090FC00684068C0690190614C02
:104650000098798E6143411801980BF061FF0028A2
:1046600008D0788E444360004008A9680E4030436B
:10467000A86051E000990198401AC046F143AA6829
:10468000324008401043A8606A680A4001403EE09A
:104690002000FFF751FF69460C8109E06846018957
:1046A0002000FFF771FEA04217D02000FFF744FF63
:1046B0000400FF2C3CD0E0B203F055FC00684068D9
:1046C000C06901900098798E424A4A438118019846
:1046D0000BF026FF0028E1D020E0019C2100009B88
:1046E0007A8E3C48504318180BF01AFF002815D05A
:1046F00000992000401AC046A96831404000400897
:104700000843A86069684A0052084100490891427C
:1047100002DA06403243AA60002075E7798E2D4800
:10472000484341004908A86806403143A960F3E7BF
:10473000788E28494143F6E7FEB500210125002681
:10474000224800680078224A5278012A3DD06A4601
:104750001080019104001D4F0EE03A68515D0198F0
:10476000105CFFF711FE04003968495D884200D1F2
:1047700001956D1CEDB2761C154841780198884270
:104780000CDA8D420ADAF0B2052807DA3A68515D90
:104790000198105CFFF7F2FE0128DED06846018820
:1047A000A14205D021000088FFF7E8FE012805D1CD
:1047B000FF212000FFF719FF2000FEBD2100684601
:1047C0000088FFF712FF68460088FEBDACD90020C4
:1047D000D4CD0020C409000058B5C0B203F0C3FB1B
:1047E000040004D0E08940080090042801DA002089
:1047F00052BD0A2109F0A3FC012901DB012600E0DA
:10480000002600980A2109F09AFC8019C322520060
:10481000A25A81B2914200D3002080B252BD10B59D
:104820000C00C0B203F09FFB002818D0417900298A
:1048300015D0FF21E4314018012C05D102788021E8
:1048400011430170002010BD002C08D101784906E9
:10485000490E01704278F82111404170F2E7FF20C3
:1048600010BDF8B57A484078002801D102F0ABFAC3
:1048700000240BF051FE7749471800251AE003F099
:1048800072FB4179002914D08179734A1268E3B22E
:10489000D154641C01684968C9690091390000F06D
:1048A00043FEEEB200993000FFF731FD3000FFF714
:1048B000A8FB6D1C69490978E8B28842DFD3644DD2
:1048C0006878E4B2844205D0002002F07CFA8220AD
:1048D00000F092FF6878012831D100245F4E00E09B
:1048E000641C3078E1B2814223D2E0B203F03BFB9A
:1048F00041790029F4D00400A07957490968097862
:10490000884202D0002002F05EFAFF21A079FFF772
:104910006CFEE0894008C3214900615A884206D3F1
:10492000207C002803D10121A07903F050FBA0795D
:10493000F2BD002002F047FA822000F05DFF6978A6
:104940004548006800F0B0FDFFF7F6FE0400C0B275
:10495000FF2805D1002002F036FA822000F04CFF3B
:10496000E0B203F000FBC1894908C3225200825A19
:10497000914206D3007C002803D10121E0B203F06C
:1049800026FBE0B2F2BDF8B5FF24314A5278002A86
:104990005CD00F0005002900380002F09FFF0028BE
:1049A00005D09B480168280002F0AEFF04000026F5
:1049B00020E0974801681E206043081801788A4269
:1049C00017D11A7841788A4213D159788278914266
:1049D0000FD19978C27891420BD1DA7801798A4265
:1049E00007D119794279914203D15979807981426D
:1049F0002AD0761C19490978F0B2884226D203F0F1
:104A0000B2FA41790029F4D0A621490043189A79D5
:104A1000FF2CCED1BA42ECD1197828788142E8D166
:104A2000597868788142E4D19978A8788142E0D1B8
:104A3000D878E9788842DCD1197928798142D8D1AF
:104A4000597968798142D4D10120F2BD0020F2BDAC
:104A5000D4CD0020C4090000ACD90020E0CD002056
:104A6000FEB5070003D1002002F0ADF9F7BD69489B
:104A7000006880470190B3204000385C09F051FD88
:104A8000B86E002831D080240EE001000F31827B07
:104A9000895C032906D0C17B214203D0A24A117848
:104AA000491C117009F0EBF8B86E001DFFF75CF8B7
:104AB0000028EAD1B86E0C30FFF756F8002810D065
:104AC00002000F32817B515C032907D0C17B214258
:104AD00004D095490978491C934A117009F0CFF820
:104AE000E8E7B86E00680BF0D0FC90480078904979
:104AF000087090480068BA791C214A438218002146
:104B00009160BA791C214A4382180021D160BB7997
:104B10001C225343C150B9795143401800214160D0
:104B200085480078012817D1386F002814D00BF081
:104B3000ACFC82480BF0A9FC81480BF0A6FC0026D7
:104B4000804CB0002518286809F099F800202860EA
:104B5000761C042EF5DB2084734C207800280AD0C4
:104B6000BA7969460A80488000AA921C012003F0A5
:104B7000FBFA002020703800FFF78BFB380004F0B0
:104B8000D2FD0198704909688847F7BD10B5040047
:104B900003D1002002F017F910BDA07903F084FDC5
:104BA000200003F0E4F903F05DFE10BD082809DAE7
:104BB0000A0007D04B1E194204D1BD4A1218507882
:104BC00088435070704710B500200023B8494C1C32
:104BD000DAB2A0545B1CDAB2082AF9DBD0224A729E
:104BE00030228A727822CA7208220A7310234B7309
:104BF0008873C8730874FF2048708B787920184335
:104C00008870087902430A71C046C04610BD000092
:104C100040D900201005002080B50020009002F04F
:104C2000D9FB6946087002F0D5FB6946487002F06E
:104C3000D1FB69468870009802BD03008B4207D201
:104C40001000814202D39342804107E00020704768
:104C50001000834204D391428041C043C00F70478B
:104C60000120704770B506000C002089A18809F06A
:104C700066FA0500F5812089A18809F060FA00290B
:104C800000D06D1CF58170BDF0B507007C8EFA2553
:104C90002D022800210009F052FA06002800210008
:104CA00009F04DFA002900D0761C82203E52F0BD5A
:104CB000F8B50C001E4E1C4F050013E019000F3113
:104CC0009A7B895C032907D0D97B090604D5401C4F
:104CD00038703078401C3070A86E001DFEF744FF1D
:104CE00008F0CDFFA86E43683878002B02D0197AFF
:104CF0000229E3D0002814D0B7490978884205D2A8
:104D0000012C0ED1B549097800290AD0AA79694643
:104D10000A80488000AA921C012003F025FA002096
:104D20003870F1BD000000008DD70020DECD0020DE
:104D300093D7002000D60020D4CD0020F4D5002049
:104D4000ECD50020DCD5002014050020F8B50600C5
:104D5000080015001F00142108F0C4FF04001422ED
:104D6000002101F024FD20001230002F01D102218A
:104D700000E00121069B2A0035000170461C3270BC
:104D8000701C002727720327A773E77BBC46DF0050
:104D900063461F43E773931DA3816723EB5C012BDD
:104DA00012D19A23EB5C002B09D033781B1D337092
:104DB000A3891B1DA3810300280002F061FC2100D0
:104DC000A86E0CF028FD04E02100A86E0C300BF05A
:104DD0007AFB0020F2BDF8B50500FD302C006834E8
:104DE0007F4F037A5B0733D5C22040002E18317005
:104DF00072709A20295C684601700320FBF78EFBD5
:104E000000284FD014380700684602780321380084
:104E1000FEF748FF3900143111200870481C317822
:104E200001707178417068460078002806D03B0018
:104E3000143303220321280002F022FC3900A86E5B
:104E40000CF0E9FC1121280003F07EF9112123E088
:104E500002700220FBF762FB002823D01438070001
:104E600000220221FEF71EFF390014310D200870C8
:104E70004E1C0D223100280003F05EF90D22310096
:104E8000280003F05DF93900A86E0CF0C4FC0D2178
:104E9000280003F059F90D21280003F059F9608B1F
:104EA000A083F1BD8021C901387801F0B3FDF1BDC7
:104EB000C0CD0020F8B50400A07903F03FF8002829
:104EC0002CD1AD48006880470700B020400026186C
:104ED00001257079012809D1A07903F053FA3079BE
:104EE00001280BD0002001F06EFF07E03079002888
:104EF00004D1357112212000FEF7E8FE707945409B
:104F00007571B320400023183068420821009B4887
:104F100009F0C5FA3800C34909688847F1BDFEB5F4
:104F2000002702900E00150016E0102108E0220074
:104F3000310001F007FC36192D1B2804F5D00021A3
:104F40003800471CC3B2002B00D00123009122007F
:104F500001990298FFF7FAFEA8B2002812D0029930
:104F6000D92040000C5AA8B2844200D90400E4B20F
:104F7000200009F0A1FB01900028D8D1812003F086
:104F8000C4F90720FEBD70B50A000024E5214900E0
:104F900045182988A44BA54E36888E4203D26A88CC
:104FA00099788A2004E0914205D26A8899788B200A
:104FB00003F0CDF90DE0E822520085180800FBF758
:104FC000B9FA2860002801D0012402E0812003F012
:104FD0009CF9200070BD00008ED700208FD70020E4
:104FE0005B090020FEB582B001210091C0B202F041
:104FF000BAFF0190684686890198E4214900441867
:105000000025A079012802D0022864D0B2E002274E
:105010006846007C022808D16580A5802580A7719C
:10502000A06808F02CFEA56059E02088022811DB5A
:105030006188821991420DDA65802580A771A06888
:1050400008F01DFEA560A288774881788B2003F0C8
:105050007EF986E0012817D1002E15D0029800783D
:10506000000261880143091D6180032E06DD02985C
:1050700040780299897809024018A08068468189A1
:105080000198FFF780FF0090A068002872D0009977
:1050900001296FD169468A8902992388C01801F0D5
:1050A00051FB20886946898940182080628880B237
:1050B00090425FD101987421405C40B200906846F4
:1050C000037CA168584880780CF008FC6580A580B6
:1050D0002580A7714EE06846007C02284AD16846C8
:1050E0008089002803D18C2003F00FF942E0684644
:1050F0008089012804D1208002990978618038E0F4
:10510000029840780002029909780843001D6080E7
:10511000032E06DD029880780299C97809024018AA
:10512000A080684681890198FFF72DFF0100A068E3
:1051300000281FD001291DD169468A89029901F0F2
:1051400001FB62886846808990420CD101997420E5
:10515000085C40B200900223A168334880780CF0CC
:10516000BDFBA58006E0208869468989401820801B
:105170000120A07105B0F0BD10050020B54E000063
:10518000F8B504002068018840294AD1E18B002944
:1051900047D0A1490978012943D14668AF48006842
:1051A000804700900BF0B8F9618E8A1CAC494A43E5
:1051B0008718A0791C49897888422BD13900F06979
:1051C0000BF0AEF9002828D004F0FAFA050001210E
:1051D000300005F0EDFB29693800401AC046A04DAB
:1051E000618E694308F0AEFF228911186181216840
:1051F0000A6980B2618E484368431018F061392013
:10520000215C382021542000FEF729FE00200CF0FC
:10521000BDFB02E020680069F0610098014909685F
:105220008847F1BD14050020D4CD0020640900207A
:10523000FDB582B00A000B98002300210025894C9F
:105240006E00865BA64201D0491CC9B26D1C062DBA
:10525000F6DB0AE06D1CEEB28E4205DA009F3F8855
:105260007600865BB742F5D15B1C8B4209DA5D00A4
:10527000465BA64219D045190095B24215D35D1C74
:10528000E9E712D1002912D068460189914204D081
:10529000017C080009D08A4207D30A9869468989A7
:1052A000401A80B26108884201DB012000E0002042
:1052B00005B0F0BDFEB50C006B49A51F8D4239D27B
:1052C00015002F00BA1F8A4234D2A54232D3FA21E8
:1052D00049008B422EDA08990E000A3E634A964234
:1052E00028D25E1C6A007243C9008A4222D2009012
:1052F00001469A20085C002809D0B02040000858D8
:105300000A2108F01FFFC0007E43B04212D32900DB
:10531000009800F083F801280CD00A9B099A0C9899
:1053200001906846808D009029002000FFF780FFE3
:10533000012801D10120FEBD0020FEBD10B5002BCB
:1053400001D0042400E00024022802D0042805D063
:1053500014E05000C008001B0B3812E0022901D1F4
:10536000082100E002211B204843121A404810186F
:10537000C90008F0E4FE001B801E02E0D008001BFC
:105380000A3880B210BD002B00D00423D2180128A7
:1053900002D0022806D012E00B32D10000204018C3
:1053A00040087047002900D10820921C4243D200D7
:1053B0001B2148431118BC204000081870470A32CE
:1053C000D000704710B5C921490041180B890A88DF
:1053D0009A4200D213000B838A899301F42292002F
:1053E0009A180B8A934200DA1A00448E214B5C43D0
:1053F000A31A962252009B1A7E32825A98B2824297
:1054000000D902004B821C48824201DB100000E000
:10541000401E8A8210BD000090D70020174A937862
:105420001B0719D5CF235B00C018037F042B13D1B2
:105430005278920610D502889301F42292009A18AD
:105440008088904200DA02000D4848430D49511807
:10545000884201DA012070470020704710050020C3
:10546000C4090000FFFF00007B0C0000770C000067
:1054700088FEFFFF71020000910A0000C0CD0020ED
:10548000E2040000BC0B000001000BD0410701D575
:1054900004207047C10701D501207047800701D55E
:1054A0000220704700207047F3B583B0060048081B
:1054B00004E00198C10F0818C005000E0190019882
:1054C00000282FD06946087018E0019800787055C0
:1054D0002D1BEDB2A5420BDB281B30180190007884
:1054E00002F041FD029900684068C0698142ECD336
:1054F0000194775568460178491C01706846007828
:105500006946097C8842D4D26846047835192878DF
:1055100002F029FD00684068C0692F782500019CD1
:105520000290D7E705B0F0BDF8B584B004000F00D5
:10553000206840680090C0690AF0F2FF002800D09F
:1055400010E1206801693800401AC0460600882032
:10555000205C002800D190E021892000883040881C
:10556000401E80B2401A80B205008820205C0228CC
:1055700004D1AC2040002018008E00E0608E68430B
:105580000190206801690198A64A50430918380023
:105590000AF0C6FF002848D06D1C03958820205CC7
:1055A000022804D1AC2040002018008E00E0608E5C
:1055B000019908180190039802900025206801695C
:1055C0000198984A5043091838000AF0A9FF0028AA
:1055D0001DD001989449484337182000883001892C
:1055E0006846018108468F4D45433800290008F080
:1055F000A9FD06003800290008F0A4FD002900D00C
:10560000761C6846058975430398801902902089A5
:1056100002994018608120008830019AC188511891
:105620004D19007801283DD123E0608E7D4F47431E
:105630003000390008F086FD05003000390008F020
:1056400081FD002900D06D1C208940196081ADB218
:10565000618E4D4321680988402923D1210088317A
:105660000A78012A1ED14A8880B282421AD1C8889B
:105670002D18200000F085F814E0608E694F474334
:105680003000390008F05EFD05003000390008F0F8
:1056900059FD002900D06D1C208940196081ADB2F0
:1056A000608E4543276839695E4868430818009949
:1056B000C861904E3988802910D1F86030001030D0
:1056C000FEF7ACF9618E00684843642108F03AFDAA
:1056D00054494843884941180098C1853888402872
:1056E00036D1A561AC2040002018C1888348081835
:1056F00045432800C821490008F024FD401C606192
:105700000099C9690A1A0099CA61AC214900615817
:10571000400009180098C185424D8820205C02286D
:1057200007D10098C08D2E21615C69434118009813
:10573000C18530001030FEF771F9618E0068484372
:10574000642108F0FFFC68436B49411800988162AE
:105750000098C069B8603920215C382021542000AD
:10576000FEF77DFB6189A089401A80B2AC21490017
:105770006118C885E289824200D20120C88505B03F
:10578000F0BD38B5040021008C31FFF76BFA25001D
:1057900088356889608400212177E1836189E08907
:1057A0000818A081F220400020182A89618E8A42C0
:1057B0000BD1AA89E18E8A4207D16A89A18E8A42D9
:1057C00003D101780909C90703D5027808211143DB
:1057D0000170618EC4204000215229792E2021546D
:1057E000288960866889A086A889E0862000FFF75E
:1057F0004BFA0220287031BD80B502F086FD01BD54
:105800000300080003E001781970401C5B1C1100C4
:105810004A1E0906F7D17047614B18609A8099714A
:1058200070470000C40900003CF6FFFFF2B5070016
:1058300015005B480068002853D059488088A97932
:10584000884202D0574988424BD1554880792989EE
:10585000002903D1C10701D501260BE0DD21490054
:1058600069184979012902D10226304202D1FF2864
:1058700037D1FF26202008F0A4F9040031D0684673
:1058800000882770A97961803A21695C2171DD2146
:105890004900695C61717421695CA1712081922069
:1058A0004000285A60812889A0822868C068800842
:1058B000A061267703F084FF060004D13A48A08156
:1058C0000020C04308E03088A0810AF025FE0100D6
:1058D000B068401AC046800820612000304909683D
:1058E0008847DD20400028184179012901D1002195
:1058F0004171F1BD1071030050FBFFFFDC0500009A
:1059000038B57E4D28680024417F002924D10C2021
:1059100008F058F82868406A002804D00470286805
:10592000406AFCF709F82868406A00280FD002791D
:1059300041790906090C0A4309D00124047028683A
:105940008169202008F008F92868447731BD0021DA
:10595000072008F037F831BD0221017700210D2022
:1059600008F030F8286844772868416A49780229A5
:105970000ED1006A4078002801D0022804D1604886
:10598000006805F0E3FA03E0C248006805F0B4FAE5
:105990002868406A0178012901D1FBF7CDFF31BDAC
:1059A0007CD90020FDFF0000FFFF0000B8B58BB0E0
:1059B000B9480068007C02F0D6FA0400A920400033
:1059C000205C0890A62040002018079000270A9726
:1059D0000997B1480068007CFF2802D1002001F03F
:1059E000F2F9AE480078002805D1AB48006840695C
:1059F0000078012859D108990120084069460870AB
:105A0000079A68460178A648006801F0A6FFFF28BB
:105A10003AD01E2148430190022507996846007834
:105A200001F05CFF002818D09D4801680198081813
:105A300001780D430895411C0791C01D0A900899F3
:105A400001200840A9214900605406220799A62098
:105A50004000201800F076FE16E0079968460078AE
:105A600001F047FF00280FD08D4801680198091800
:105A7000487F012805D008000D3001F060FF0028A4
:105A800002D008980543089583480068807A022868
:105A900001D0032809D1824D28680D3001F04FFF55
:105AA000002802D12868C01D09900697E08E0009E1
:105AB0000590A08E0490608E400803900A98029092
:105AC00009980190079800900898C3B20022A17924
:105AD000002002F052FDE02040002058C3498842D7
