:10000000009000208DBE0200AD260000AF2600004B
:10001000B1260000B1260000B1260000B126000084
:10002000B1260000B1260000B1260000A13000007A
:10003000B1260000B1260000633000002D30000022
:10004000B1260000B1260000B1260000B126000054
:10005000B1260000B1260000B1260000B126000044
:10006000B1260000B1260000B1260000B126000034
:10007000B1260000B1260000B1260000B126000024
:10008000B1260000B1260000B126000001000831B1
:1000900041600021C943816001000831C160010055
:1000A0000831016100210160704742684A6093682D
:1000B0008B6093685960916008610168491C016018
:1000C000704730B50A680023DB439A4201D10369C7
:1000D00007E00300083300E023005C682568AA42BB
:1000E000FAD25A684A6091608B6059600861016871
:1000F000491C016030BD0169826843689A604268AA
:1001000083685A604A68824201D182684A6000224C
:1001100002610868401E086008687047000000001F
:1001200038B504000D00002C01D172B6FEE7E16B7A
:10013000002936D00020C04302F0D5FE216C884251
:100140002FD302F05BFF216CE26B23681000484361
:100150001818A0600020A0636360521E4A439818DC
:10016000E060200044300021C94301704170002D3F
:100170000BD12069002810D02000103000F0C4FFFF
:1001800000280AD002F034FF07E020001030FFF70B
:100190007DFF20002430FFF779FF02F03BFF0120B4
:1001A00032BD72B6FEE700007CB51C00002C01D108
:1001B00072B6FEE7002803D0002A03D0002903D13D
:1001C00072B6FEE70029FBD150230093009B502B11
:1001D00001D072B6FEE7069B009D01254626A55577
:1001E000009400F02AF8200076BD0000F8B5040065
:1001F0001500002C1FD00F000020C043210002F08A
:1002000072FEB84217D3200078434F21C943884279
:1002100011D2503001F064FC06000AD02B000020FF
:10022000462170540096320050323900200000F010
:1002300004F83000F2BD72B6FEE738B5049C002920
:1002400001D1246000E022601D00E06321640121EF
:100250002000FFF765FF4C20255431BD002800D158
:10026000704780B5002181600160C16000230022D9
:1002700000F050F801BD10B5020000210120FFF789
:10028000B5FF0400FFF7EAFF200010BD80B500288D
:1002900001D172B6FEE781688F4AD26B914209D1D3
:1002A000C168491EC16003D10023002200F032F86A
:1002B000012002BD002002BD10B50400002C01D1B8
:1002C00072B6FEE7A068844AD26B904204D1E0681F
:1002D000401CE060012010BD200000F0CDF9002896
:1002E00002D0E168491CE16010BD00001CB513009C
:1002F00000280CD00C00A04209D30221009100225A
:100300000021FFF751FF002800D0846316BD72B6AC
:10031000FEE70000F4B584B0040000200090002C3B
:1003200001D172B6FEE70391002902D1206C0028AA
:100330000ED11F00022F02D1E06B01280AD101F07B
:1003400060F8002843D10498002840D072B6FEE738
:1003500072B6FEE772B6FEE70498002854D0012575
:100360005D4E0098002804D1706E0190306D0290AF
:10037000009502F04FFE306F401C306702F03EFEE9
:10038000200044300021C9434422A2568A4201D1B0
:1003900000220270012282568A4201D1002141705E
:1003A00002F038FE04A901A800F06CFF002840D13B
:1003B00002F024FEA06BE16B884229D102F02AFEF4
:1003C000002D27D1200000F08EFA00F0CBFC02F0C7
:1003D00015FEA06BE16B884201D3022FBCD13A001D
:1003E0000399200000F034FA616A002903D020004C
:1003F000243000F089FE002801D002F0F9FD02F05F
:1004000009FE012005B0F0BD02F004FE0020F9E76E
:100410000025D3E704992000103000F019FE2000D9
:1004200000F061FA00F09EFC0028D0D102F0E0FD5F
:10043000CDE7200000F057FA00F094FCE6E700005A
:10044000FEB504001700002C01D172B6FEE7009142
:10045000002902D1206C002828D11E00022E02D1D2
:10046000E06B012824D102F02DFE0190A06BE16B1E
:10047000884201D3022E29D145202556A06B320097
:100480000099200000F0E4F901260020C0438542D5
:1004900010D1606A00281AD02000243000F034FE09
:1004A000002814D0002F12D03E6010E072B6FEE794
:1004B00072B6FEE70848C06C854208D27F2D01D194
:1004C00072B6FEE76D1C4520255400E00026019819
:1004D00080F310883000FEBDE81B0020F8B5040052
:1004E0000F00002C01D172B6FEE7206C002801D06D
:1004F00072B6FEE72068002802D1A06800281CD14F
:1005000002F0E0FD0500A16BE06B814223D24520A3
:100510002056491CA16301260021C94388420ED1FF
:10052000606A002818D02000243000F0EDFD00287B
:1005300012D0002F10D03E600EE072B6FEE74D499B
:10054000C96C884208D27F2801D172B6FEE7401CF0
:100550004521605400E00026280080F31088300018
:10056000F2BD00007EB583B004000025002C01D14F
:1005700072B6FEE70291002902D1206C002808D152
:1005800000F03FFF00280BD10498002808D072B675
:10059000FEE772B6FEE7200000F0A5F900F0E2FBEE
:1005A00002F02CFDA06B00283DD10498002851D00A
:1005B000304E002D04D1706E0090306D01900125F9
:1005C00002F028FD306F401C306702F017FD20005C
:1005D00044300021C9434422A2568A4201D100225C
:1005E0000270012282568A4201D10021417002F03C
:1005F00011FD04A9684600F045FE00282ED1200018
:1006000000F0A6F90028C6D004992000243000F09C
:100610001FFD200000F067F900F0A4FB0028BFD107
:1006200002F0E6FCBCE705000299200000F048F962
:100630006D1EA5632069002807D02000103000F04F
:1006400063FD002801D002F0D3FC02F0E3FC01209E
:1006500006B070BD02F0DEFC0020F9E7200000F0DB
:1006600042F900F07FFB200000F072F9002897D0DB
:10067000F2E70000E81B0020F2B582B0040000277A
:100680000025002C01D172B6FEE7206C002801D0B5
:1006900072B6FEE700F0B5FE002809D102980028E6
:1006A00006D072B6FEE7200000F01DF900F05AFBFC
:1006B00002F0A4FCA06B002848D10298002876D054
:1006C0005C4E002F04D1706E0090306D01900127B8
:1006D00002F0A0FC306F401C306702F08FFC20005D
:1006E00044300021C9434422A2568A4201D100224B
:1006F0000270012282568A4201D10021417002F02B
:1007000089FC02A9684600F0BDFD002835D1200013
:1007100000F01EF90028C6D02068002807D102F09A
:100720006DFCA06800F07CFE050002F073FC0299ED
:100730002000243000F08CFC200000F0D4F800F001
:1007400011FB0028B4D102F053FCB1E7401EA063B6
:100750002068002802D100F023FFA0602069002853
:1007600007D02000103000F0CFFC002801D002F0AC
:100770003FFC02F04FFC0120FEBD200000F0B3F86A
:1007800000F0F0FA200000F0E3F8002890D0002DEF
:100790000FD002F033FC606A002804D00A20216BDD
:1007A0000968411A00E00021A06800F0B1FE02F0E3
:1007B00031FC0020FEBD0000F7B50400002C01D183
:1007C00072B6FEE70091002902D1206C002807D103
:1007D00002F078FC0700A66B002E03D1380077E604
:1007E00072B6FEE7442025560099200000F068F814
:1007F000761EA66301260020C04385420DD12069E4
:100800000028EBD02000103000F07EFC0028E5D05E
:1008100002980028E2D00660E0E70648C06C8542F6
:10082000DCD27F2D01D172B6FEE76D1C4420255429
:10083000D4E70000E81B002080B5002801D172B683
:10084000FEE74621415C002901D101F0C7F901BD55
:10085000F8B50400100000260027A56B226C002AC2
:1008600008D12068002827D1A06800F019FE0700F1
:10087000A66021E006000CD1606802F047FC6068C9
:10088000216C40186060A168884215D320686060C0
:1008900012E0E06802F03AFC216C4842E168091875
:1008A000E1602268914202D2A1680818E060022E3D
:1008B00002D1002D00D06D1E6D1CA5633800F2BD65
:1008C0000B00026C002A00D1704710B5C16889186E
:1008D000C1608468A14201D30168C160C168180089
:1008E00002F014FC10BDF8B5050002F087FB2F00E4
:1008F000443701203C5608E02800243000F004FC76
:10090000002801D000F0F6FC641E60B2012802DB72
:10091000686A0028F0D10024E4437C7002F07AFB7E
:1009200002F06CFB44202E5608E02800103000F046
:10093000EBFB002801D000F0DDFC761E70B2012830
:1009400002DB28690028F0D13C7002F063FBF1BDA6
:1009500010B5040002F052FBA06B441EA44100F04D
:10096000C3FF70B504000D00160002F047FB002025
:100970000021C9434422A2568A4201D14423E054B3
:100980004522A2568A4201D14521605402F042FB21
:10099000A06B002805D1320029002000243000F08F
:1009A00091FB2000FFF79FFF70BD0000F0B587B0FE
:1009B0000D9D002D01D172B6FEE70E9C002C01D1D9
:1009C00072B6FEE768260096009E682E01D072B6C9
:1009D000FEE71E0017000591069000986821200090
:1009E00002F0B2FB256302206521605400200390D1
:1009F000029404A801900C98009033003A000599E5
:100A0000069800F037F8200000F078F8049807B056
:100A1000F0BDF6B585B005001E00900001F060F84D
:100A2000040022D0682001F05BF807001AD0049679
:100A3000059E682102F088FB3C6300206521785404
:100A4000039002970D9801900C980090049B6846C3
:100A5000028B3100280000F00DF8380000F04EF84D
:100A6000012004E0200001F0B9F80020C04307B0E5
:100A7000F0BD0000F9B581B00E0015000A9CA5225A
:100A8000A900206B02F064FB206BA90045182D1F04
:100A90000720854368072564002E0FD000210096AB
:100AA0003427009A521813786618F3551278002AE2
:100AB00002D0491C0C29F4D33F216054089E0A2E11
:100AC00001D372B6FEE7099FE66220004030C6609F
:100AD000201D0021016120001830002101612461E6
:100AE0000A20801BA0616462029A0199280002F02A
:100AF00051FA2060002F00D03C60F7BDF8B504002B
:100B000002F07CFA4E4DE86C401CE8644D4FE86BF7
:100B1000002824D1EC63E86C012829D10026142098
:100B200070433818FFF7B2FA761C0A2EF7D3464EF8
:100B30003000FFF7ABFA28009830FFF7A7FA28003B
:100B4000FFF7A4FA28001430FFF7A0FA2800283095
:100B5000FFF79CFA2E6428009830686408E0A86DBE
:100B6000002805D1E06AE96BC96A884200D3EC63CA
:100B7000A86E401C6064E16A6A6D8A4200D26965B1
:100B8000142251433A1D5258A2609368E360231D1A
:100B9000966873609360791861610A68521C0A60F4
:100BA000A86602F037FAA86D002806D0E86BC06A84
:100BB000E16A884201D202F01BFAF1BD38B50500A6
:100BC00002F01CFA1E4C002D00D1E56B281DFFF72A
:100BD00092FAA86A002803D028001830FFF78BFA91
:100BE000A06E401CA066E06B85420BD1291D200041
:100BF0001430FFF75AFAA06C401CA064280002F0E1
:100C000013F907E0E06C401EE064280002F00CF9E4
:100C100000F0E7FB02F0FEF9E06B854202D028000D
:100C200000F0CCFBA06D002809D0E06B854206D116
:100C3000206F002801D072B6FEE702F0D9F931BD6D
:100C4000E81B0020DC2100206C1C002070B5050092
:100C500002F0D4F9424C002D00D1E56B281DFFF7BE
:100C60004AFAA86A002803D028001830FFF743FA90
:100C7000291D20002830FFF718FA002600206423E1
:100C800029186422895C012902D100212A18D15433
:100C9000401C0028F4DD02F0BDF9A06D002805D04D
:100CA00002F0ACF900F09DFB02F0B4F9E06B854274
:100CB00012D1A06D002807D0206F002801D072B695
:100CC000FEE702F095F970BDA06AE16C884201D19F
:100CD000E66370BD00F082F970BD00001FB5204CC6
:100CE0009920800020180290B320800020180190E5
:100CF0000020009000234C2268496948FFF756FE07
:100D000000280CD000F092FC0021C943012809D131
:100D100072B6E166A0650020206502F053F96148D3
:100D200000681FBD8842FAD172B6FEE70C48016F19
:100D3000491C016770470020002209494B6D002BB8
:100D400000D00122CB6BDB6A002B08D1404B1B6823
:100D5000012B04D8002A02D1C86E096D401A7047D1
:100D6000E81B0020F8B5002000908E4C206F002872
:100D700001D172B6FEE702F041F9206F401E2067F4
:100D8000206F00285FD1E06C00285CD00020012596
:100D900040E0E068C068816A026AC3699A60C2691B
:100DA000036A5A604A68030018339A4201D1026A02
:100DB0004A6087620A68521E0A604169C268836895
:100DC0009A608268C3685A604A68031D9A4201D1DA
:100DD000C2684A6047610A68521E0A60C16A626D51
:100DE0008A4200D2616514225143194A131D5B588F
:100DF00083609E68C660061D9F687E609E60511875
:100E000041610A68521C0A60C16AE26BD26A91426F
:100E100000D32566002721680029BAD1002801D017
:100E200000F0DFFAE66D002E07D000F03DF8002854
:100E300000D02566761EF8D1E765206E002802D026
:100E4000009502F0D5F802F0E5F80098F2BD000038
:100E5000DC21002038B50400524DE86E296D0919D7
:100E6000884201D272B6FEE7286D0019E96E884209
:100E700010D1286F002801D172B6FEE7002C01D1F5
:100E800072B6FEE702F0BAF8E86D401CE86502F0C1
:100E9000C1F8641E286D0019286531BDF8B902003B
:100EA000FD12000020090020F8B500263D4D286FF6
:100EB000002871D12C6D641C2C650ED1286C006843
:100EC000002801D072B6FEE7286C696C296468645A
:100ED000686E401C686600F084FAE86E844254D361
:100EE00000214AE0286CC068C0684268944251D32F
:100EF0004269C3688668B3608368C6687360536874
:100F0000061DB34201D1C3685360002343611668D4
:100F1000761E1660826A002A10D0066AC769BE6013
:100F2000C669076A7E60566807001837BE4201D15D
:100F3000066A5660836213685B1E1360C26A6B6D3B
:100F4000934200D26A6514235A430092484A131D03
:100F5000009E9B5983609E68C660061D9F687E60E8
:100F60009E60009BD218426113685B1C1360EA6BA1
:100F7000D26AC06A824200D20121286C006800282F
:100F8000B0D10020C043E8660E00286E002806D0CD
:100F9000012604E0EA66F7E7E86D401CE8653000EA
:100FA000F2BD0000E81B002038B505000C00002D44
:100FB00001D10948C56B02F021F86C6502F02AF8EE
:100FC00031BD10B5040001D1AC48C46B02F016F875
:100FD000646D00F08AFC0000E81B002010B5A74CEF
:100FE000206F002802D00120206610BD2066E06B33
:100FF000006BA34902688A4208D142688A4205D13F
:1010000082688A4202D1C068884205D0E06B010044
:101010003431E06B02F0D8F8606D00E0401E1449F6
:101020001422424389180A68002A03D10028F5D106
:1010300072B6FEE74A6852684A600B0008339A426B
:1010400001D152684A604968C968E163606510BDB2
:1010500010B50C00002801D172B6FEE78749C96BB4
:101060001831FFF72EF80121200000F0A7FA10BD7B
:10107000DC21002038B503001000002B01D172B62E
:10108000FEE77E4A146F002C01D172B6FEE7802481
:1010900024060C43D16B8C615968D46BE1618C6878
:1010A000D56B2C62D46B18348D686C60D46B18349B
:1010B0008C60D16B8B621968491C1960012100F0AA
:1010C0007DFA31BD70B50B001100002801D172B658
:1010D000FEE74268694CE56BEA619568E66B35624C
:1010E000E56B183596687560E56B18359560E26BB1
:1010F00090620268521C0260002901D00023DB4389
:10110000180000F05BFA70BDF8B5C068C668002E24
:1011100001D172B6FEE7B06A316AF2699160F16995
:10112000326A5160416832001832914201D1316A0D
:1011300041600024B4620168491E01604F4D286F70
:10114000002829D17069F168B2689160B168F268CD
:1011500051604168321D914201D1F1684160746172
:101160000168491E0160F06A696D814200D26865BC
:101170001421484390490A1D1258B2609368F360E5
:10118000331D97687B609360081870610168491C83
:10119000016000F026F90EE06868F0618168316254
:1011A0003100183182685160310018318160B562B8
:1011B0002868401C2860E86BC06AF16A884202D245
:1011C00001202866F2BD0020F2BD000070B52B4C56
:1011D000226F002A01D172B6FEE7802212060A436E
:1011E0000260C668002E01D172B6FEE7016982680E
:1011F00043689A60426883685A604A68824201D1B3
:1012000082684A60002505610868401E086000F099
:10121000E8F87069F168B2689160B168F26851608D
:101220004168321D914201D1F168416075610168E8
:10123000491E0160F06A616D814200D2606514212F
:1012400048435D490A1D1258B2609368F360331D2C
:1012500095686B609360081870610168491C0160B3
:10126000E06BC06AF16A884201D20120206670BD3D
:1012700002494A6E0260096D41607047E81B002018
:10128000A5A5A5A5FEB50400002C01D172B6FEE708
:101290000D00002D01D172B6FEE701F0AFFE5F49EF
:1012A000086D0290606801900298019A801A00907F
:1012B0002B6800220020C043834213D04E6E276863
:1012C000BE4206D0029E019FBE4202D301242A6084
:1012D0000CE0009E9E4207D2981B2860486E20605A
:1012E000086D6060002401E02A60012401F092FE94
:1012F0002000FEBD012049490866704738B5474CBB
:1013000011E001F07BFE206AC568281DFEF7F3FEA0
:10131000E06C401EE064A06C401EA06401F07AFE08
:10132000280000F04BF8A06C0028EAD1FFF703FD7D
:101330000228F8D3206F401C2067E06E216D8842A0
:101340000AD3FFF7F8FC022803D38021605001F094
:101350009DFFFFF707FDE6E772B6FEE701202F4984
:101360000A68002A05D10A6E002A02D1CA6D002A35
:1013700001D0002070478A6A521CC96C8A4200D191
:101380000220704702290AD2002805D12348C06BE9
:10139000002801D172B6FEE78900401882657047C7
:1013A00002000020022906D2002A01D11B48C26B8C
:1013B00088001018806D7047DC21002010B50400F3
:1013C0006520205C002806D1206B00F007FC20007F
:1013D00000F004FC10BD0128F9D00228FAD072B642
:1013E000FEE70E48016C0968002902D10021C943BB
:1013F00002E0016CC9680968C16670476D48C06B3E
:1014000070476C48816D002901D101207047006F41
:10141000002801D10220704700207047E81B0020FF
:1014200070B504000020002C39D0E16A614DEA6BF0
:10143000D26A91422DD2A069002804D40A20EA6B16
:10144000D26A801AA0615C4E6069142251437118FF
:1014500088421AD1201DFEF74EFEE86BC06AE0629A
:10146000696D814200D2686514214843311D0958D5
:10147000A1608A68E260221D8B685A608A60301819
:1014800060610168491C016008E0E86BC06AE062C5
:1014900004E0E16CEA6BD26A914200D2012070BD97
:1014A00038B504000020002C30D0424DE96B8C424E
:1014B00001D072B6FEE7216D002901D172B6FEE7B8
:1014C000491E2165E26AE36C9A421FD000291DD1B2
:1014D000201DFEF710FEE06CE0620A21091AA161EE
:1014E000696D814200D268651421484332490A1D62
:1014F0001258A2609368E360231D95686B60936047
:10150000081860610168491C0160012032BD0000BB
:1015100070B5040039D0226D002A01D172B6FEE701
:10152000E06C814200D20100E06A88422DD0012A9D
:101530002BD1204DEA6B944201D172B6FEE7E162F5
:10154000A269002A02D40A22511AA1611A4E6169C5
:10155000142250433018814217D1201DFEF7CBFDD5
:10156000E06A696D814200D2686514214843311DEB
:101570000958A1608A68E260221D8B685A608A60FF
:10158000301860610168491C016070BD0949C86B71
:101590008069CA6B0A23C96BC96A591A916170477D
:1015A0000448C16B002903D0C16B0A6D521C0A6547
:1015B000C06B7047E81B0020DC210020F8B5040058
:1015C0000E00424D2F6DE86B001DFEF794FD0020CC
:1015D000C043844216D1002E14D0E86AE96B8860BB
:1015E0008168EA6BD160E96B091D82685160E96B23
:1015F000091D816028002830E96B4861A86A401CF9
:10160000A862F1BD3C19E86B4460BC42E86B04D2AF
:10161000011D686CFEF755FDF1BD011D286CFEF73C
:1016200050FDE86E844200D2EC66F1BDE0B500F0FA
:1016300038F92648C16F002913D0FF2189004118CD
:1016400002915B494018019005200090002364221C
:1016500058495948FFF7AAF95849002803D10020F2
:10166000086072B6FEE7086001200EBD70B5050087
:101670000C00160004E0A86924182800296A88478D
:1016800023003200A8692118280000F077F800280C
:10169000F1D170BD70B505000E000C48406FC068F8
:1016A000C468201DFEF727FD2820205C410705D5D2
:1016B000290032002000FFF7D9FF03E0FE2101409E
:1016C000282021542000216A884770BDE81B002093
:1016D000F8B5294F14E0FFF745FB0FE0B86F00683D
:1016E000461EB641F60F3200611BF86FFFF739F95D
:1016F000FFF738FB002801D101F07AFC00F060F818
:10170000786F0168002902D10126002402E000263A
:10171000C0680468386F401C3867684600F00FF8EE
:10172000050000980028D6D1002ED7D1A542DAD3E3
:10173000FFF718FB29002000FFF7ACFFDEE7F8B544
:1017400004000D4D2F6D744E306887420AD300207F
:10175000376020603800F2BD0021C943C0680068CE
:10176000FFF798FF686F01680029F5D1A96F6967D5
:10177000A8670120ECE70000E81B002038B5002432
:1017800041600061654D8A4206D3D11A8269914257
:1017900006D2011DA86F07E09A4203D2994201D3F5
:1017A000012403E0011D686FFEF78BFC200032BDB1
:1017B0006404000000BA0200D1160000A422002038
:1017C000F0B585B0FE27012605E02B002A00291878
:1017D0002000FFF7D3FF002201A95048C06FFEF799
:1017E000C1FE00285BD00198002803D50499039816
:1017F000029A904701980028EDD4039C6069002864
:1018000002D0201DFEF777FC6846FFF798FF050021
:101810000198401E0828DED801A109568F4400BF58
:101820000A0A724C620A0A724C002820205C30437B
:1018300028216054029B2A00A06919182000FFF794
:101840009DFF0028C7D02820205C410707D52A002B
:101850000298A16941182000FFF708FF02E0384014
:10186000282160542000216A8847B4E72820205CA2
:101870003043282160540298A0610028A5D172B697
:10188000FEE72820205C800703D4200000F0A6F9A2
:10189000A1E72820205C3840282160549BE705B050
:1018A000F0BD7CB501F0AAFB1C4CE06F002817D1FD
:1018B0002500AC352800FEF7E9FB2600C0363000D5
:1018C000FEF7E4FB6567A667002000902300D43391
:1018D00092204000221810211420FEF765FCE067DA
:1018E00001F098FB73BD0000E40F01F093FB2000B2
:1018F00010BD00001FB51C000123DB4300930190C5
:10190000029103920023220069460448C06FFEF74B
:1019100097FD04B010BD0000A8220020E81B0020A5
:1019200038B5202000F0DCF8040005D00025256043
:10193000201DFEF7ABFB2577200032BDF5B583B047
:101940001D00002601960398002801D172B6FEE71B
:101950000091080E0006002801D072B6FEE70029AB
:1019600001D172B6FEE70A9CFFF74BFD002801D1BA
:10197000002C12D102955848016F491C0167039849
:1019800005680098C743029A0146280000F090F8C5
:10199000002804D1002C0CD122E072B6FEE700240E
:1019A000049800281CD00398006838400399086008
:1019B00016E00498002802D080204004019002988C
:1019C000002804D001988021C9040143019122001C
:1019D0000098019901430398001DFFF74BFB002578
:1019E000FFF7C0F9002C1FD0002801D101F000FB47
:1019F000FFF7CCFD0400A00114D401F0FFFA039816
:101A00000468029A0099200000F052F8002807D0DC
:101A10000498002804D003980068074003980760E2
:101A200001F0F8FA25022D0A280005B0F0BD0000EB
:101A3000F8B50A000025002801D172B6FEE7110EA4
:101A40000906002901D072B6FEE723490B6F5B1C23
:101A50000B67016903681A4302600400080018E07C
:101A60008B4215D1F30102D52B000D001D438021BF
:101A700089041143FFF7AAFB0AE041680091066858
:101A80003102090A13000B407701E9D4002BE9D198
:101A90000098226821000C318842EED1AA432260CE
:101AA000FFF760F92068F2BD80B5FFF7C1FF01BD07
:101AB000030000200B40002A02D1002B03D001E0DC
:101AC0008B4200D10120704780B513000A0001004D
:101AD0000248FFF70FFF02BDE81B0020A91A000013
:101AE000FEB50024019402945F490A6F521C0A67F4
:101AF0005E4DA96800291DD1A021C9012A001C3210
:101B000000920723DB432E001C36760704D0D21D3B
:101B10001A40891A009E89192A606C605118083988
:101B20000B40AB605C601C60991A51601360516897
:101B30002961E960002847D00727102107220240C9
:101B4000891A0022D243521A82423DD340183BD414
:101B50003AD0E968814237D329002E6801E031008C
:101B600016007268824202D23268002AF7D1AA684F
:101B7000964229D00A680832019232680A60716878
:101B8000091A10290BD9321800923A4201D072B6C4
:101B9000FEE7321D11507060009800F041F8706847
:101BA000E968091AE960E9682A69914200D91100D7
:101BB0002961802109060143716034606869401C15
:101BC0006861019807400297FFF7CCF80298002857
:101BD00001D072B6FEE70198FEBD0000002800D1DA
:101BE000704710B508384168002901D472B6FEE785
:101BF0000268002A01D072B6FEE749004908416038
:101C0000194A136F5B1C1367184CE2685118E160A6
:101C100000F006F8A069401CA061FFF7A3F810BD12
:101C200030B5124A110000E019000B688342FBD363
:101C30004B68CC18844203D14068181848600800EB
:101C400044680B6805199D4208D19268934204D0FC
:101C50005A68A21842601B6800E0130003608142CA
:101C600000D0086030BD0000E81B0020AC2200203E
:101C700080B5FFF755FE02BD7CB506000D001400CF
:101C80001800FA21890001F02EF9230000D0012369
:101C90000090012229003000FFF750FE284003D0B9
:101CA000A84202D0012C00D1002076BD38B5040036
:101CB0000D000020009000F0E8FB002805D06A46E7
:101CC00029002000FFF700FF31BD29002000FFF7A9
:101CD000AFFE31BD3EB5002A04D101AA00236D46F6
:101CE0002B7102930D001178002906D10200290002
:101CF0003B48FEF7FBFA040010E0032100910300CB
:101D0000002200210120FEF74FFA040006D0002D2A
:101D100004D0002300220021FEF7FCFA20003EBD83
:101D200038B503000C0003200090002200210120A0
:101D3000FEF73AFA06E038B504000322002101203C
:101D4000FEF754FA050006D0002C04D00023002230
:101D50000021FEF7DFFA280032BD80B5FEF76CFDEA
:101D600001BD002101704160704738B504000D00CD
:101D700000F08BFB002805D0002200212000FEF798
:101D80001BFD08E02800FA21890001F0ACF80100F1
:101D90002000FEF771FC012801D1002032BD002097
:101DA000C04332BD1CB5040000F06FFB002806D113
:101DB0000023002200212000FEF7ACFA13BD694683
:101DC0002000FEF78BFB13BD10B500F034FB174964
:101DD0008C6A00228A6200F06DFB200010BD0000BA
:101DE000FFFF000012480068C005C00D0F49096BD5
:101DF000884201D1012070470020704770B504006F
:101E000000F019FB0500094EB462706A002809D081
:101E1000012C07D13078002804D1306B00F046FB4C
:101E200001203070280000F045FB70BD240900201F
:101E300004ED00E008B400B501AB00F007F800992C
:101E400002B0084780B500F001F802BDF7B58EB0CA
:101E50001E0000200490109800280AD144E10FAA27
:101E600001000EA800F078F90498401C049000E0EE
:101E7000049410980278401C109010000021002A51
:101E800000D12CE12528EAD110980078109A521C34
:101E900001272D2804D16B461F711078521C01E0D8
:101EA0006C462171302803D103971078521C00E052
:101EB000039100230024E44300942A2813D13068BE
:101EC000361D02901078521C1092029A002A10D5EA
:101ED0006B461F71029A53420AE00A2463431B189F
:101EE000303B1078521C0400303C0A2CF5D3109281
:101EF00002932E281CD1002210980078109B5B1CA6
:101F00002A280FD13068361D0090002800D5009196
:101F100018785A1C10920BE00A2462431218303AC7
:101F200018785B1C0400303C0A2CF5D31093009207
:101F3000039A002A01D0029A03926C2801D04C28FF
:101F400004D110980078109A521C109206AC06AD7D
:101F50002A0010320592009A039B9A4200DA1A0076
:101F6000642801D0692804D13168361D0923DB4378
:101F70000AE00A23752805D01023782802D0082308
:101F80006F2807D13168361D2800103000F0AEF8F8
:101F9000040072E0702805D063280ED13068361D29
:101FA00028706CE03168361D10230822280010309C
:101FB00000F09CF8441E40205EE0732811D1346884
:101FC000361D002C00D1824C200001F021FB0700BF
:101FD00000980021C943884251D0B8424FDC070025
:101FE0004DE0662800D03AE70C91F01D07218843A8
:101FF0000600083603C80AAA03C20AA803C80022BA
:10200000002301F00CFB0AD20AA803C880221206A2
:1020100051400AAA03C20C970398401E03900AA8D5
:1020200003C801F015FB04000422009201F04AFBF2
:1020300002000B000AA803C801F0ABFB0022934B7F
:1020400001F01EFC01F016FB01000A23009A280093
:10205000103000F04BF8401E2E2101700A23039926
:10206000059A121A8A1A210000F040F804000C9810
:10207000002802D0641E2D2020700598071B0298AE
:10208000C01B0290684600790028049D11D1029877
:10209000401E02900DD40FAA20210EA800F05CF87B
:1020A0006D1CF4E70FAA21780EA800F055F8641C07
:1020B0006D1C3800471E0028F4D10495684600794D
:1020C000002800D1D5E62C46029D6D1E00D5CFE636
:1020D0000FAA20210EA800F03FF8641CF5E70E9827
:1020E000002800D00170049811B0F0BDF7B50A00C7
:1020F00000256C462570002B0AD559420B00002A9A
:1021000006D551420A000299491E02912D212170E3
:10211000040001931600754F641E3000019900F011
:10212000E2FE785C20703000019900F0DCFE0600D1
:102130006D1C002EF0D1611E0298854204DA0C005D
:10214000302020706D1CF6E720006A461278002AC5
:1021500001D008000270FEBD1368022B05D35B1E80
:1021600013600268531C03601170704710B58B49EF
:102170001CC91CC010BDF8B5884C207B002826D196
:102180008B4800680090864F01253D6000268848F6
:102190008660FD6000228349834800F09DF91B2082
:1021A000824908607D602000103001F02BFC00980F
:1021B000A06100987F494018E0616673A67325739B
:1021C00000F039F9E1697A4AD16100F073F9F1BDA3
:1021D00008BA0200F8B50025ED43704A16690700F9
:1021E0000C001BE04018F0600CE0307D012814D199
:1021F000012F0AD1F068A04207D131690029F1D13D
:1022000000203075F069B1698847307D012804D11C
:10221000F068001BA84200D805003668002EE4D103
:102220002800F2BDF8B501245D48046000F003F910
:102230005F490968594E74730027B773F4690D1B21
:1022400000F038F9002005E024182D1A21000120A3
:10225000FFF7C0FF8542F7D2050000F0ECF80090D0
:10226000B07B012804D121000020FFF7B3FF050057
:102270005048854200D9050060194D49C861F06198
:102280007773B461009800F015F9F1BD0088C34080
:1022900070B5040001D1002070BD1E003F4D00D17B
:1022A0002E0070682061A260A161B068E06100202A
:1022B0002075FFF760FF21002800103001F0C0FBFF
:1022C0003078002802D0200000F012F8200070BD05
:1022D00070B504000D001600202000F081FA3300D4
:1022E0002A002100FFF7D4FF70BD000010BA0200E1
:1022F000FEB5040000F09FF80190284801212C4A07
:10230000437B002B15D1136885690095C5698669E3
:10231000AE1B009FDF1BBE420BD3A6689E19E66072
:102320002175A168EB1A99420DD2E168D161C161B2
:1023300009E01268A368D218E26001222275427B8C
:10234000012A00D18173019800F0B4F8F7BD0000B4
:10235000F8B500210175114DC068E969884213D1B3
:10236000134E346800F067F8070021000020FFF7E3
:1023700031FF5649884200D908002018F061E86111
:10238000AC61380000F096F8F1BD51494160002180
:10239000016070470648006870470000C87200205E
:1023A0005420024025220000D874002044540240EA
:1023B00004210240FFFFBFFF80B501F01CFC01BDFE
:1023C000FEB504000E001700002C22D01D0003D122
:1023D0006D46684600F061F869683E48CAB2FF2A57
:1023E00019D180216960B100401844636760286892
:1023F000A0602660A149300001F04DFB6968C9B2B8
:10240000300001F069FB287A002802D0300001F08A
:10241000AEFB2000FEBD026B9642E4D0C029E2D1A3
:102420000024F6E710B50400206801F0B2FB206834
:1024300001F04DFB10BD80B59B480068C00503D17D
:1024400000F0DCFD002002BDEFF31080012181F3DC
:10245000108802BD944800681E490006800D0818C7
:10246000416B002900D1704780B58868496888476A
:1024700000F0BEFD01BD80B501F079FB01BDEFF3B9
:102480001080401E8041C00F704787480068C0051B
:10249000C00D00D00120C0B27047002805D0002137
:1024A0000160C943416001210172704780B501F0AC
:1024B00081FB01BD80B57C490968C90502D100F0E6
:1024C000A9FD01BD80F3108801BD0000FFFFBFFF23
:1024D000006CDC022409002070B504000D00160019
:1024E000FFF7A9FF6560A660FFF7E4FF70BD70B558
:1024F00004000E00FFF79FFF0500F1B2200001F07D
:10250000EBFA2800FFF7D6FF70BDF0B585B0FFF7F6
:1025100092FF0490FEF722FF002800D1A9E000F00E
:10252000A1FE8107CA0F012151404007C20F0120BF
:1025300050406A4610707D4802689207920F012A47
:1025400005D1006A800102D4080000D091E0002982
:1025500000D189E0764800680190764B7648039078
:102560001C3802900198002822D00024E4430298ED
:102570000568002601980100F140C90713D56F498D
:10258000B2008918039FD21912680A606C4A925DE2
:1025900009682F009740C91B994200D90021D140FA
:1025A0008C4200D90C00761C052EE4D3019000E08B
:1025B0001C00644880214158FA22920051438C4209
:1025C00000D90C00FF21F6318C424DD3016F491C1C
:1025D00001675D4D2868012188432860A86868600C
:1025E0005A4F042038602020FFF7E6FE584E30682E
:1025F0000090B93CE10840183061012000F0EEFE87
:102600000120F0632020FFF7D7FE1B2038600298DE
:1026100000680028FBD00024002201980100D1406E
:10262000C90705D545499300C958039FDB191960AF
:10263000521C052AF2D33E49086001F025FB042014
:1026400000F09EFF30680099401AC00001F042FB84
:10265000FEF700FCAC602868052101432960594859
:102660006860FEF77FFB04E068460078002800D031
:1026700030BF0498FFF71EFF05B0F0BD55240000E1
:1026800080B501F03BFB72B6BFF34F8FBFF36F8F86
:102690004D484E490860012002BD00004A480068CC
:1026A0008546EDE70120704704ED00E0FEE7FEE718
:1026B000FEE770B505000C00200000F04BF8022D7D
:1026C00031D0012D06D001F02FFB16210160002032
:1026D000C04370BDA0683E4E3E4DA969884208DAED
:1026E0008019A06003CC083C0022401E914103C425
:1026F000083C0CCC083C2800103003C8121A8B414F
:1027000003CD083D80185941A268AB69D21AAB6865
:10271000D218B24204DB0023401C59412E4BD21880
:1027200003C4083CA260002070BD0000C01000403F
:1027300044200240FFFFBFFF20210240E87200203A
:1027400024BA0200E81B002010E000E044540240DC
:1027500018200040FEB50500FFF76DFE040001A83B
:10276000FEF786FD2000FFF7A5FE029C0198009071
:10277000FA27BF002000390000F0B5FB06002A4808
:1027800070432018009994225200514344182000AD
:10279000390000F0A8FB02000027002180197941D0
:1027A00006000F0000980D49484300218019794127
:1027B00003C5083D1C484243A0181C494843A86073
:1027C000F7BD00007FBB00000000000008ED00E046
:1027D00000CA9A3BE80F0020003665C437894100E3
:1027E00010B504000834002801D0844203D201F05F
:1027F0009BFA162107E02000FFF772F9002805D1A7
:1028000001F092FA0C210160002010BD00604460CC
:10281000083010BD002800D1704780B50838006826
:10282000FFF7DCF901BD000018FCFFFF40420F007C
:102830000CB4FEB507000C00002000900190664D1E
:10284000686800281ED1FEF7DCFD022805D10126AC
:102850006248016F491C016700E000260120FDF776
:102860000AFD6860002801D101200190002E01D0EE
:10287000FEF778FA0198002804D001F055FA0C21EF
:102880000160A1E0019408A88026B60021463140ED
:1028900006D040680090002802D12800083000903F
:1028A00002971624002F0AD0019830400BD00098D0
:1028B0004068012803DB00988068012803DA01F0F2
:1028C00033FA046080E0FEF79CFD022804D1002169
:1028D000C9436868FDF7D0FE029800F0E2F80400F2
:1028E00009D0A02000010199014081420BD101F0E3
:1028F0001BFA112105E00198064004D101F014FAF9
:102900000221016056E00820FFF7EAF806000C27D4
:10291000002E4CD0002C2AD12420FFF7E1F804002F
:1029200042D00120E06100988068606100984068B2
:102930002061029800F06CFE401CFFF7D1F8206285
:1029400000282ED0029901F0F9F900220098816840
:102950004068FDF74BFCA06000281DD0002060609F
:102960002868002800D0446020602C6002E0E06904
:10297000401CE061FEF745FD022805D1002300223E
:1029800000216868FDF7C6FC346001984004C10F5F
:1029900088037060300019E0206A002801D0FFF73A
:1029A0001DF92000FFF71AF93000FFF717F901F0C1
:1029B000BBF90760FEF725FD022805D100230022A0
:1029C00000216868FDF7A6FC0020C04303B004990D
:1029D000F0BC03B008470000000A0020E81B0020FC
:1029E000F8B50468636900930025ED439A4203D269
:1029F00001F09AF97A211AE04068400401D50026D6
:102A000000E02E000F00FFF740FD002805D0002257
:102A10003900A068FDF7D0FE04E032003900A0685C
:102A2000FDF7A0FD012805D001F07EF90B21016022
:102A30002800F2BD0098F2BDF8B504680026F64300
:102A40006369934207D2FFF720FD002825D101F0EA
:102A50006BF97A2120E04068400401D5002500E0B0
:102A600035000F00FFF711FD002806D000230022DB
:102A70003900A068FDF7E4FC05E000232A003900D6
:102A8000A068FDF747FC012809D0FFF7FEFC0028ED
:102A900003D101F049F90B2101603000F2BD0020A3
:102AA000F2BD38B504004848056800E02D68002DE7
:102AB00007D02100286A01F049F90028F6D1280042
:102AC00032BD002032BD80B55549142200F004FB10
:102AD000002002BD002903D0012901D01620704733
:102AE00001610020704709680A2901D2002901D13B
:102AF000162070470160002070474160826000200E
:102B00007047F5B583B01E0000250295002901D15C
:102B1000434F00E00F003420FEF7E2FF04001ED018
:102B200004983969002900D0012121746061A661EF
:102B3000E560A560E561256238686060A56225638F
:102B4000E562386900280CD1032200210120FDF73D
:102B50004DFBA060002804D12000FFF73FF80C20B7
:102B60002EE0FEF74EFC012805D001262B48016F10
:102B7000491C016700E0002601943868009023009A
:102B8000B8680004820C2AA12A48FDF742FF0128F8
:102B900004D121002068FEF707FA0AE0A0680028A7
:102BA00001D0FDF749FE2000FFF718F800240C20A3
:102BB000029003980460002E01D0FEF7D3F802982B
:102BC00005B0F0BD00000000000A002038B5050087
:102BD00000F028F8040065626946012000F02EF834
:102BE00002E0012100F043F8A06A0028F9D120009A
:102BF00000F051F8207C002809D100230022002198
:102C0000A068FDF787FB0020FEF720F831BD20000B
:102C1000FEF7E4FF0020FDF7D1FF31BDE81B0020E7
:102C2000180A002080B50448C06BFEF7CAF902BD3F
:102C300078000000872C0000E81B002038B5050054
:102C40000C00FFF7EFFF002D03D0012D01D016205F
:102C500032BDC1692160C561002D06D1006A00281E
:102C600003D00020C043FFF7B1FF002032BD0200B7
:102C7000106913689862002900D1704780B5906888
:102C80005168884701BD80B5010088694969884756
:102C9000FFF79CFF01BD38B50500FEF747F817E0C8
:102CA0000168E96204696168002901D022680A604C
:102CB0002168002901D062684A608168096800299A
:102CC00003D0C068002800D088472000FEF786FFA8
:102CD000E86A0028E4D1FEF745F831BD10B53B495C
:102CE0001CC91CC0002010BD80B5C068002801D0E0
:102CF000FDF7A2FD002002BD10B50400002900D19F
:102D000032490868A0600020E06060604868206088
:102D1000A068002801D0022801D1012000E0042091
:102D2000FDF7A9FA002804D12000FFF7DDFF0C20F1
:102D300010BDE060002010BD80B50021C94300F047
:102D400024F802BDF8B5040000250027A06801287A
:102D500008D1E068FDF79AFA012801D10020F2BD00
:102D60000120F2BD1848016F491C016700230022B1
:102D70000021E068FDF7CEFA06006560FDF7F2FF7E
:102D8000012E00D0124F3800F2BDF8B504000F003C
:102D90000025FFF747FF0600A2686068B04203D134
:102DA000022A01D12D20F2BDE0683900012A02D1AA
:102DB000FDF782FA01E0FDF75FFC012801D09125C3
:102DC00000E066602800F2BDE81B0020FC720020D5
:102DD000D10700007CB5304DFEF713FB012801D16F
:102DE000280076BD2B48C66B00213000FEF7D8FACC
:102DF000040017D12A0000213000FEF7C3FA00F0CA
:102E0000C9FFFEF76DFE040007D000F0B6FF2200F8
:102E100000213000FEF7B6FA04E00120009000988F
:102E20000028FCD1200076BD10B50021FEF7B8FACD
:102E3000040000BF00BF002C02D02000FEF7CEFE31
:102E400010BD7CB505000C20FEF74AFE04000126EB
:102E5000002C03D1009600980028FCD10120FDF73A
:102E60000AFAA060002806D12000FEF7B7FE0096FF
:102E700000980028FCD10020206060602C6073BDA9
:102E800010B50468A068FDF7D7FC2000FEF7A6FE89
:102E900010BD0000E81B0020187D002080B5FFF762
:102EA000D0FF01BD80B5FFF7EBFF01BD80B5FFF797
:102EB00091FF02BDF446002804D4494200F013F803
:102EC000404260474042002905D45FD000F00BF833
:102ED000404249426047494200F005F84942604794
:102EE00003460B43E6D40022030A8B420BD20309AC
:102EF0008B4219D243088B422ED2411A00D201468E
:102F0000524110467047FF2209023FD012068B4201
:102F100005D3121209028B4201D3121209020309CE
:102F20008B4219D300E0090AC3098B4201D3CB01BC
:102F3000C01A524183098B4201D38B01C01A5241FE
:102F400043098B4201D34B01C01A524103098B4202
:102F500001D30B01C01A5241C3088B4201D3CB00ED
:102F6000C01A524183088B4201D38B00C01A5241D0
:102F700043088B4201D34B00C01A5241884200D310
:102F8000401A5241CFD201461046704708B5C0469C
:102F9000C04608BD10B503000C3B802464049C604F
:102FA00059602A49196020380260203810BD00009D
:102FB000274800680021C943884201D072B6FEE765
:102FC00072B6FEE780B523480168FF2212040A4367
:102FD00002600168FF2212060A43026000F0E4FE6C
:102FE00000201B49086000F05CF8002002BD0000D2
:102FF000802040051849086006E0000072B61448B9
:103000000168491C016000BFBFF34F8FBFF36F8F92
:10301000704700000E480168002901D172B6FEE732
:10302000491E0160002900D162B6704710B500F05A
:1030300049F80400FDF738FF002803D08020400540
:1030400005490860200080F3108810BDB12F0000F2
:103050002C0A002020ED00E004ED00E080F3088859
:103060007047EFF309801B4B1A6820381060F0C0DE
:1030700044464D4656465F46F0C008B572B6FDF769
:10308000ADFF62B60CBC116808681030F0C8A046ED
:10309000A946B246BB4680F309882038F0C81847D5
:1030A00070470C4B19680868203080F309880220AB
:1030B00080F31488BFF36F8F3FBCAE4608BC04BCDE
:1030C00062B61847EFF3108072B6704780F310882D
:1030D00070470000241C002070B4103A03D378C954
:1030E000103A78C0FBD2530701D318C918C001D5D4
:1030F00008C908C0D20704D30B880380891C801C30
:10310000002A01D50B78037070BC70478B0701D182
:103110008307E1D0124205D00B78491C0370401C94
:10312000521EF9D170470A181206130A1A43130CDB
:103130001A4300BF094205D083070FD00270401C1C
:10314000491EF9D1704700000022F3E7002205E094
:103150001206130A1A43130C1A4300BF1300103946
:1031600006D330B41400150010393CC0FCD230BC7A
:10317000490700D30CC000D504C0890002D30280E7
:10318000801C002900D502707047232A10B50B4817
:103190000B49086000F022FE00F08DFE0A20C046B8
:1031A000084CA168086001F0D6F9A168486001F0F8
:1031B0008FFBFDF793FD002010BD0000DD31000006
:1031C000EC0C00201808002081B00120694608702E
:1031D000684600780028FBD101B0704781B00B2809
:1031E00006D1012069460870684600780028FBD1A6
:1031F00001B0704770B5704C6078002830D101255F
:1032000065706E484068002801D0012100E000216F
:103210002170606000236A4A132120000830FFF704
:10322000CFF8032067490860674E68483060132074
:10323000FFF721F90023664A202120002430FFF700
:10324000BFF86448056085606348056000F05EF97A
:10325000F06C802109060143F164902071490860F7
:10326000002070BD714880687047C1B2FF22120211
:10327000024001D16C4804E080204000824202D12B
:103280007648405C70470120C04370474A48416817
:10329000002900D1704780B50078012800D1884707
:1032A00001BD38B50024002801D0150002D1022448
:1032B000E44306E08160C26003610100684800F0F9
:1032C000BFFB200032BD80B50100654800F0CBFB9C
:1032D00001BD10B50400FFF7AEF854498A68012318
:1032E000A34013438B6009190A78521C0A70FFF738
:1032F000E1F8002010BD10B50400FFF79CF84B4921
:103300000A1913785B1E13701B0604D18A68012307
:10331000A3409A438A60FFF7CDF8002010BD70B536
:103320000400FFF788F806002000FFF79EFF050065
:10333000691CC9B2200000F03DF92D0613D1FF2011
:103340000002204004D080214900884205D00AE0D4
:103350000120A0408849086005E000210120A0402C
:1033600080B200F079FC22E070B50500FFF763F849
:1033700006002800FFF779FF441EE1B2280000F0A4
:1033800019F9240613D1FF200002284004D080211F
:103390004900884205D00AE00120A8405A49086047
:1033A00005E000210120A84080B200F061FC30005F
:1033B000FFF780F8002070BDB47400206CC00200DC
:1033C0006534000010540240581000400280000094
:1033D000FF340000582000406020024038B5012032
:1033E00000F0CEF8114C0125002801D0257132BD26
:1033F00077490860EFF31480E060002080F31488C0
:10340000744909688847E06880F3148800F07EF802
:103410002571002032BD72B66F48016801220A434F
:103420000260FEE70058004088740020840D0020F0
:1034300010B56A486A4941640224846601218163A7
:10344000010D0160FEF7F7FF4C498A6814438C6058
:103450004A78521C4A70FFF72DF810BDA87400205E
:10346000F474002070B55F4C2568A56025612804C0
:1034700011D5082000F084F8FEF7DDFF3F494A78B7
:10348000521E4A70120603D18A6802239A438A6048
:10349000FFF710F807E0A80705D5A06B01218843C6
:1034A000A06300F033F8680517D5012060664A482C
:1034B000016804220A430260102000F061F8FEF760
:1034C000BAFF2E494A78521E4A70120603D18A6802
:1034D00002239A438A60FEF7EDFF082635400DD09F
:1034E000FEF7A9FFA16D49004908A165A16D8022E1
:1034F00012060A43A265FEF7DDFFE66070BD3A489A
:1035000001688160704700002000024070B501250D
:10351000364CE06B28402DD135482066354E422090
:1035200031688847344820663448A06506203168F1
:1035300088474020E060A16D2943A165A16DA943A2
:10354000A16521680140FCD0A06D2D490140A16515
:10355000E06B0543E563FEF76EFF08498A680223C6
:1035600013438B604A78521C4A70FEF7A3FFE00BAE
:10357000E060206170BD000014000240840D002056
:1035800038B520490C68002C11D00500A0682840EF
:1035900003D12468002CF9D109E022690021280018
:1035A000E36898470028F4D00020C04332BD0020D3
:1035B00032BD0000C2B2FF231B02034001D11248FA
:1035C00004E080204000834201D1104881547047BC
:1035D000A81000404C00000F2C0000405810004084
:1035E00080841E804C1000404C2000404810004059
:1035F0000D0000809400000F110000800000038087
:10360000FFFFFE7FF474002088740020A87400205F
:10361000431C0178401C0942FBD1C01A704730B4EA
:10362000012464054D00EC420BD85D00EC4208D843
:103630000C001C4364000443144304D2994200D19B
:10364000904230BC7047FCD08B42FAD18242F8E7FE
:10365000F4464A1805D200F00FF801D5801740084B
:10366000604700F009F80121C907884200D9080025
:10367000404260474A1812D2400DC9020843012156
:10368000C9070843520D40210901521A521C06D4A1
:1036900052421F3201D4D0407047C01770470020FB
:1036A0007047242A010042221201D21E004207D094
:1036B00002D4521E0018FCD5C10A40051205891813
:1036C000704700000100EED54042F446FFF7EBFFE3
:1036D0000122D207114360478B4200D1824205D9B3
:1036E0008446100062468C4619006346DF184C1869
:1036F000640D7F0D3AD0661C760537D0E61B352E5B
:1037000034DCDB022B43DB0A0C0DC9022943C9124E
:10371000202E0DDB1700203E06D01F00F741F3409E
:103720005F400026012A7741C01871410DD217E091
:103730001700F741F2405740F3415A40B340F3407D
:103740005A400026801859410AD3A21C52050FD0B6
:10375000C207012F724117004008CB0718434908E0
:10376000641C24054208AF4170416141F0BC7047C0
:10377000641C21050020F9E76B4010E06B40ABE7CB
:10378000F742F3D1E943F1E72442EFD100200021D1
:10379000ECE7F0B40125ED070F005F40EED40C001C
:1037A000871A9C4105D2C01BA141D21963416940CF
:1037B0006B40AE0ADF184C18F442E1D2640D7F0D65
:1037C000E2D0E61B362ED1DCDB022B43DB0AA4461B
:1037D0000C0DC9022943C90A012E28DC04D1D607E1
:1037E0005208DF073A435B08EF0A7642904199415D
:1037F00014D039423BD1B61940414941761C394277
:1038000004D1761C001849413942FAD0B9436746C1
:10381000B74208D9A41B24052143A7E70042EAD1F7
:103820003642E8D1A2E7E40AE10700209EE7202E15
:103830000BDD203E1F00F340F7415F40012A0022CC
:1038400057417E42984191410BE01700F741F24009
:103850005740F3415A40B340F3405A407E429041B2
:1038600099410A0303D2641EB61940414941002719
:10387000641E24054208AE4178416141F0BC7047A6
:10388000F0B50E005E400125ED072E40B446AE0AAD
:10389000DF184C18F44208D2F7420ED2640D01D062
:1038A0007F0D12D100206146F0BD05D1F74201D84D
:1038B0007F0D05D10020C143F0BDFBD1640DF9D0CF
:1038C0000020C143490549088FE0E419C902DB0221
:1038D00029432B43DB0A460DC00231438E4630B4E8
:1038E00087B295B27D432E0CADB2140C7C43A41963
:1038F000260C240425439CB27C43A419190C79435B
:10390000270CC919A4B20F043C43090C000C97B250
:1039100047432E0CBE193543ADB2170C4743360C46
:10392000BF19A6B2BF193E043543240C3E0C36190C
:103930009FB24743BF19BCB23E0C89191F0C4743C5
:103940007F183E043443390C704680B297B2474327
:103950002E0CBE193543ADB2170C4743360CBF19B8
:10396000A6B2BF193E043543240C3E0C36199FB253
:103970004743BF19BCB23E0C89191F0C47437F183F
:103980003E043443390C77463F0C90B278432E0CFA
:1039900080190604ADB22E43050CA0B22D18120CEE
:1039A0007A435019020C80B2240CA4189AB27A43BC
:1039B000121914042043120C89181B0C7B43C918DC
:1039C00030BCEF0A394203D1B61940414941641E67
:1039D0006F12BF0DE41B0BDBFF19BC4211DA24058B
:1039E00000274208AE417841614166463143F0BD4F
:1039F000641C05D1401C6141CF0201D34908F4E7A2
:103A000050E75DE710B50400FEF715FD0021616089
:103A10002160FEF74FFD10BD38B50400FEF70BFD29
:103A20002568002D08D02968216029680022002916
:103A300001D04A6000E06260FEF73CFD280032BD24
:103A400038B505000C00FEF7F6FC0021216069681E
:103A500061606968002901D00C6000E02C606C6036
:103A6000FEF728FD31BD38B505000C00FEF7E3FC7C
:103A700061682268002A01D1696000E051606168D4
:103A80002268002901D12A6000E00A60FEF712FDD9
:103A900031BD252AFEE7F1B4644A1300644C206866
:103AA00098420FD0266830681060361D101D112511
:103AB00037680760371D3F684760083008366D1E5D
:103AC000F6D12360009880001150F1BC704759492D
:103AD000564A800011507047F8B40F2803D8564B4F
:103AE0000200083A02E0554B0200103A9408D20056
:103AF00018251540009500220F2807D1504D2A683F
:103B00009607F20F2E680227BE430DE00500103D18
:103B1000202D0AD20500F0354A4A1668EE40F20719
:103B2000D20F0126AE40484D2E60A4001B191C6820
:103B3000FF25009EB540AC43C0250D4031468D4069
:103B400025431D60002A10D00F2805D13C4801688C
:103B500002220A43026008E001001039202904D241
:103B60000121F030814037480160F1BC70470F28D7
:103B700005D13348016802220A4302607047010000
:103B80001039202904D20121F03081402D480160F4
:103B900070470F2804D12A4801680222914307E0A8
:103BA00001001039202904D20121F030814026483B
:103BB0000160704701001039202905D20121F03041
:103BC0008140224801607047022804D120480168E2
:103BD000802212060CE00E2804D11D4801688022C4
:103BE000520505E00F2805D1194801688022D2044A
:103BF0000A43026070470E2804D1154801688022EC
:103C0000120505E00F2806D11148016880229204B0
:103C10000A430260704701001039202904D20121B3
:103C2000F03081400B48016070470000007E0020AA
:103C300008ED00E0953A00001CED00E000E400E033
:103C400010E000E000E100E080E100E000E200E0E0
:103C500004ED00E080E200E080B5022905DA1A4AAE
:103C6000490051188A881043888000F00DF801BD82
:103C700080B5022905DA144A490051188A8882431E
:103C80008A8000F001F801BD10B40F4801788388E4
:103C9000C2881A430B000AD053085B000B4C236008
:103CA000002A0ED102210A4AD160002109E0130046
:103CB00007D00221064B1960012152085200034B24
:103CC0001A60017010BC7047507800200400084052
:103CD00014000240020C074B1100594380B25843B4
:103CE000054B5A438018C009DE30400A0818400AC4
:103CF000704700BF12830000986E000006484178AC
:103D0000042900DA80300078FD2804DB03480449E8
:103D100001600449416070472F03004E18110040B4
:103D2000E3887F09E3387F4980B5FFF7BFF8024990
:103D3000401802BD00000000000000000023DB432B
:103D40005B1CCA5C002AC254FAD1704702780B7817
:103D5000002A03D0401C491C9A42F7D0D01A704761
:103D600038B504000C4D2A000C49FFF7CFF90C4878
:103D7000411B6019FFF7E8F931BD80B5FFF7F0FF8F
:103D800000BF00BF01BD10B504000648FFF7E8FF03
:103D9000200010BD02487047000000000000000035
:103DA00004000000187D0020084809490160FF2137
:103DB0005E3141605E2181600648002101608160C2
:103DC0000549416007210160704700BF087300206A
:103DD00080BB000010E000E07FBB000001490860EC
:103DE00070470000140500207047262A38B50400EB
:103DF0000021062000F091FE00250021122000F095
:103E00008CFE20000721491BC840C107C90F0D20A7
:103E100000F083FE0121122000F07FFE082000F058
:103E2000D1FE6D1CE8B20828E7DB0021122000F06B
:103E300074FE0121062000F070FEAF20800000F02B
:103E4000C1FE31BD80B52549062000F03CFE0021B1
:103E5000062000F062FE012000F0B4FE01210620E1
:103E600000F05BFE8C20800000F0ACFE01BD10B5C0
:103E7000FFF7E8FF1949062000F025FE184C210045
:103E8000122000F020FE21000D2000F01CFE15493C
:103E90000C2000F018FEB920FFF7A8FF062000F064
:103EA000A0FE122000F09DFE0D2000F09AFE0C20D6
:103EB00000F097FE10BD80B5FFF79CF9FFF7B8FA48
:103EC0000948016801220A43026000F08AFD00F0FF
:103ED000A1FEFFF7CCFFC046C04601BD0104002093
:103EE00000040020022004601400004080B5FDF7AB
:103EF0006BFF69460880FEF79EFA69464880009885
:103F000002BD80B5FDF77AFA02BD01B5684640886A
:103F1000FEF7D0FA68460088FDF770FF01BD38B59E
:103F20000500FFF7E3FF0021AD4A0C234B43D418F3
:103F30002268002A06D0954203D0491C0329F3D3F6
:103F400000E049E223E038B50400FFF7CFFF00228C
:103F500000232100A24C0C255D4365192C68002C20
:103F600005D0A1420DD05B1C032BF3D30FE004005E
:103F70002960AA60FDF77CFE6860002802D100F08D
:103F800083FE04002000FFF7C0FF280032BDFFF7CA
:103F9000BCFF002032BD38B50400FFF7A7FF0025A5
:103FA000A4492A01895A002907D08C4203D06D1CEC
:103FB000062DF5D301E000F0BCFB00F0BEFB10B510
:103FC00004002088FFF7E7FFFF2801D1002006E06A
:103FD0009849000108188168002902D10120C043D6
:103FE00010BD2000884710BD70B505684468FFF714
:103FF0007DFF0600FFF785FFFFF7A5FF002801D131
:1040000000F042FE3000FFF780FF210001A0A8472A
:10401000002070BDBF3F0000ED3E00000B3F0000E0
:1040200010B5002000216E4A0C234B43D2181060BB
:104030009060491C0329F6D300217E4A0C011053DD
:10404000491C0629FAD310BD10B586B00020029095
:1040500005900820039002A90850974C02AB00225B
:10406000810100BF0EA0FEF7E3FB60600021C943A1
:10407000884206D1002006B010BD8847019800F0A4
:10408000AFF90023082269466068FEF7A9FC012801
:10409000F7DB009901980028EFD18847F1E700008D
:1040A000626C655F6963616C6C00000038B586B056
:1040B00001A8FEF708FD040002200090694601A84F
:1040C000FEF711FD204304008021C90001A8816092
:1040D00000200500012101A8FEF7FCFC010025439A
:1040E00029430C000023814A01A97348FEF709FD0A
:1040F000204307B030BDFEB50E000025ED432C0077
:10410000009000200190002E0BD0100009D0170065
:1041100000F058F90190002816D03A00310000F064
:10412000B8FD65484068A04207D0012308226946CF
:10413000FEF782FC0400AC4204D10198002801D0B3
:1041400000F060F92000FEBD2800FEBDF8B588B083
:1041500000270290684601702BE003A8FEF7B3FC2D
:1041600005000298390144186068019001A903A86C
:10417000FEF7B9FC06002E43A16803A88160002069
:104180000500012103A8FEF7A5FC2168874A1160FC
:10419000E16851603543284304001346844A03A96B
:1041A0008448FEF7AEFC0100214301D000F0A4F9E1
:1041B0007F1C684600788742CFD309B0F0BDF8B5C0
:1041C000052001907C4802907C4800907C48039038
:1041D00001216846FFF7BAFFFFF768FF05B000BD91
:1041E0002410002038B504000D00FFF77FFE0022E8
:1041F00029000C390A602168002901D1256005E0F9
:104200000C390A0011680029FAD11560FFF77DFE0C
:1042100031BD062807DA074A0001105A002802D0EB
:104220009E4A904202D10020C0437047088000207F
:10423000704700004810002010B50C000021FA2241
:104240009200002300F02CFD8022120600239942E8
:1042500001D8904202D30220C04310BD206000204C
:1042600010BD80B50100C8688968884701BDF8B5F0
:1042700005000C00FFF745FEFFF765FE060018D0AD
:10428000FFF734FE00210022854B1701DB191F8840
:10429000002F03D0521C062AF6D30AE07F4F1F805E
:1042A0005E6099602A7071682160FFF72EFE002021
:1042B000F2BD00F0E9FC00BFA810002080B50C386A
:1042C00000F08EF801BD70B50400080015001E0056
:1042D000FFF761FE0100FF2902D10020C04370BD3D
:1042E00033002A00200000F095F870BD494000001E
:1042F00038B50500FFF705FEFFF711FE040002D1F7
:104300000420C04332BD002D0AD1002000902B00B4
:104310000022802149026068FDF7AEFC002032BD1A
:104320000020C0438542F1D069462800FFF784FF92
:104330000028ECD032BD80B580214902FDF7B6FCE3
:10434000002002BDFFB581B00500FFF7DAFDFFF7E1
:10435000FAFD040003D10220C04305B0F0BDFFF711
:10436000C5FD00212A00029B039D049E00904C483D
:104370000F01C0190788002F05D0BA420ED0491C82
:104380000629F4D30EE002804460836029706068DF
:1043900030600098FFF7B9FD0020DEE70098FFF7D6
:1043A000B4FDD8E700F070FC00BF0000B0100020A2
:1043B000E93F0000B8100020DC050000C1BA02008F
:1043C0001808002038B50400FFF790FD0500200014
:1043D000FEF706FA04002800FFF797FD200032BD23
:1043E00038B50400FFF782FD0500002C02D0200044
:1043F000FEF710FA2800FFF788FD31BD80B5FFF702
:10440000E1FF02BD80B5FFF7EBFF01BD80B5FFF70F
:10441000D9FF02BDF7B50F001C000226F643062F98
:104420000FDA6946087068460078062809DAFFF74F
:104430005DFD1B493A018D186968002903D1FFF71A
:1044400064FD3000FEBD69460E7AFFF75EFD200078
:1044500008386946097801704770867028880F49C6
:1044600088420DD1EA68002A15D02100002090472B
:10447000002C10D000280ED02000FFF71FFF0AE00C
:10448000210068680830FFF7ADFE802149026868A6
:104490004068FDF70BFC0020FEBD0000F8FF0000A7
:1044A00048100020F7B50700FFF72BFDFFF737FD99
:1044B000040002D10420C043FEBD00250026FFF702
:1044C00015FDA168002906D00E000C390A68A2600B
:1044D0000D60FF228A72FFF718FD002E01D1022025
:1044E000FEBD0299019832000C3A13793B70527963
:1044F00002700E600020FEBD82B001206946087087
:10450000684600780028FBD100F0BEFB00BF38B53C
:1045100084B069460220FEF7CCF8002801D00020C4
:1045200013E0684603C80D4A002300F0B9FB0400FD
:104530000D000298FA218900FEF7D2FCC11700197C
:1045400069410A22002300F0C4FB05B030BD80B5EC
:10455000FFF7DDFF02BD83487047000040420F00B7
:104560007CB50E0014001D006946FFF765FE0028AB
:1045700006D12B0022003100009800F002F8002044
:1045800076BDF9B583B00E0015001C68002C22D151
:104590001820FFF717FF04000327FF43002C13D058
:1045A0006846FDF7E3FD00206A4610700190029412
:1045B00003998A48FDF78CFE6060002806D1FFF75A
:1045C0009BFF2000FFF70CFF380010E0A660E560BD
:1045D0000498046003E06068FDF7BAFEE5600399A3
:1045E00060688160C0466068FDF782FE002005B00B
:1045F000F0BD002800D1704780B54068FDF7A8FEE7
:1046000001BDFEB584B004000E00FFF77AFCFFF791
:1046100086FC070000210291002F02D10420C04334
:104620006EE020000AD1019101200090FFF78FFF7A
:10463000019940183D00009C070021E0C9438842D1
:10464000F1D001A9FFF7F8FD0028EDD058E003995B
:1046500002A8FFF7C7FD802149016868FDF726FB26
:10466000012401980021C943884209D0002807D0BD
:10467000FFF76DFF381A32D0019981422FD3019094
:10468000019B0022802149016868FDF7F5FA0028A6
:1046900025D003AA694600A8401CFFF703FF0400C9
:1046A000DED100A9891C68464078FFF7B2FD0028DA
:1046B000CDD1039A684601784088B0470028C6D01B
:1046C0000598002802D0694649880180069800288C
:1046D00002D06946097801700C9803990160029E26
:1046E000FFF704FC002E08D031000C390A001168D5
:1046F0000029FAD1A9681160AE60FFF706FC20001E
:1047000007B0F0BD38B5FFF7FCFB0400FFF7EEFB88
:10471000002556492A0189180A88002A08D04968C4
:104720000968A14203D06D1C062DF2D300E000E021
:1047300003E0FFF7EAFBE8B232BDFFF7E6FBFF203C
:1047400032BD1CB56C46208000206080A171684697
:10475000474909688847002801D1E07916BDFF2044
:1047600016BD000014AE47011078422801D1012087
:104770007047002070470CB478B587B005000CA8CE
:1047800002AE1422328100240294FF22B2720691FA
:104790000590FFF7B7FF33000C3303222900FFF722
:1047A00092FD019401A80090002300223149324873
:1047B000FFF727FF012807D0002805D1019800281E
:1047C00004D0FFF77BFD01E0FFF796FE0598006837
:1047D00008B0039970BC03B00847000063420000B2
:1047E000F7B50C001F000226F643062C11DA6946C5
:1047F00008706846007806280BDAFFF777FB1B493C
:1048000022018918019101994968002903D1FFF714
:104810007CFB3000FEBD69460D7AFFF776FB380061
:10482000083869460978017044708570390001982C
:1048300040680830FFF7D6FC8021490101984068A4
:104840004068FDF733FA0020FEBD3EB504000D00C0
:1048500001A96846FFF70BFD6946097821700349F5
:104860006A46127812018918CD603EBD48100020BA
:104870000808002069470000881300007047000006
:1048800080B5801D00F036FB030000BF1FA2002191
:10489000012000F076FC1A48807E02280BDB002005
:1048A00000F0F4FD00F026FB030000BF1FA2002172
:1048B000022000F066FC00F071FE00F027FF00F01F
:1048C00099FF01F05AF801F0EEF801F017F901BD77
:1048D00080B500BF24A0007869460870002000F071
:1048E0003DFB00BF19A20021002000F04AFC044A51
:1048F000130020330349044801F00AF901BD000008
:1049000094040020814800007D480000424C45206E
:10491000494420416464726573733A201B5B316DB6
:104920001B5B33326D25731B5B306D00424C4520A1
:10493000525020416464726573733A201B5B316D81
:104940001B5B33326D25731B5B306D001B5B316D60
:104950001B5B33366D446174612053747265616D05
:104960001B5B306D000000000000272AFF2803D0E9
:1049700001218140844801607047FF2804D0012153
:104980008140804801608160704758B57F48066863
:1049900006617F4C22E01F20310000230A0C01D168
:1049A000103309040A0E01D1083309020A0F01D19C
:1049B0001B1D09018A0F01D19B1C8900490002D2ED
:1049C00000D45B1C5B1CC01A012181408E436168CE
:1049D00082008958002901D0C0B28847002EDAD160
:1049E00051BDF0B5A7B000240026FDF724FD694DA8
:1049F0002978002902D0FDF75DFD5EE001212970D4
:104A0000FDF758FD0020FEF78AFC04A8FDF745FDE0
:104A10005F48C068059004AB5F4A1521281DFDF76B
:104A2000CFFC5E480078694648706846407803903D
:104A300002465B4800780870684600780290904211
:104A400028D3930007A8C0180194040050480068B8
:104A5000C058C508ED002560850706D5400712D56A
:104A600030000126964006430DE0019F0125954048
:104A70003D430195D7B2FF2F05D001270740D5B29E
:104A8000484828180770521C241D1B1D029890428C
:104A9000DCD2019C44480460444806606846407883
:104AA0000978091A491C8A0007A980000918039887
:104AB00080003F4BC018FEF729FB27B0F0BD3D49F1
:104AC00040180078704780B5002200F02EF802BD33
:104AD00070B50400FF2818D00D0080003649461834
:104AE000FDF7A9FC3178FC220A40A903890F114384
:104AF0003170FDF7DFFC680703D52000FFF73DFFAD
:104B000070BD0120A0402049086070BDFF2803D07F
:104B100001212A4A801801707047FF2804D0CA0773
:104B2000D20F2049401802707047F0B4FF2802D11C
:104B30000020C04323E00B000400A1001C4D4D19D0
:104B40009907CF0F01267E400127012181403000C7
:104B500005D01F4013482018077019480160094804
:104B60005C0702D50160816000E00161072083439A
:104B70001A432A60002E01D1114801610020F0BCC7
:104B800070470000643002407430024054300240EC
:104B90006CBF0200507300208B490000BFB00100C1
:104BA00026DE010000310240003502404430024060
:104BB0000031004000360240023100400033024024
:104BC000103502400138FDD170477047FF2807D0EB
:104BD0000F4A52688000101802688A4200D00160B3
:104BE000704770B50400FF280FD0FFF7BFFEA60086
:104BF000074D286881592000FFF765FF002120003C
:104C0000FFF7E4FF0020A968885170BD0000000094
:104C10006CBF020018480178002900D0704710B519
:104C2000012404700023154A0421001DFEF739FBFE
:104C30001120FEF774FB1248FF2181628464114940
:104C40000968416004601120FEF78EFB10BD80B53D
:104C500004280ED11120FEF762FB0948FF21816272
:104C600001218164074A1268426001601120FEF749
:104C70007BFB002002BD0000387800204F4C000074
:104C8000046002409CC0020080B5012001F030F8B1
:104C900001BD10B50400FEF739FA200010BD282A26
:104CA00030B4434351435D18010C0C00130C5C43BA
:104CB0002D1980B2434392B251430024C918644174
:104CC00024040B04090C09195043C018694130BC75
:104CD000704712422DD0994231D970B500251B4240
:104CE00009D00C00002112E01100FEF7FCF80A00C8
:104CF0000021002370BD0942F6D000240126491886
:104D00006441944200D3A41A7641F8D331000126BD
:104D100001E0764109D2001864416D41A41A9D4119
:104D2000F7D2A4185D41B619F5D3300022002B004C
:104D300070BD1B42CFD108B5C046C04608BD01D1E9
:104D40009042CAD202000B00002100207047292A9D
:104D500038B586B001A8FDF7B6FE0400764D286888
:104D600000680090694601A8FDF7BDFE20430400DD
:104D700028684268002101A8FDF7BFFE0500012157
:104D800001A8FDF7A7FE0100254329430C000023DD
:104D90006A4A01A96A48FDF7B4FE204307B030BD56
:104DA000E0B50200664840680023DB43984201D129
:104DB00010200EBD6B461A7001910123082269462E
:104DC000FDF73AFEC0B20EBDFEB500F012FF00F0D6
:104DD00016FF802424065A4F0AE0280000F092FFB4
:104DE000002D05D0002E00D17FE02800FFF766FAE5
:104DF0000023082269467868FDF7F2FD0128F7DBF9
:104E0000019D0026684600780628E9D801A10956C8
:104E100049008F44033F4354585C600001262878C2
:104E200001282CD090281ED0912818D092281ED06E
:104E3000942820D0A0280AD0A2280CD0B02802D0D4
:104E4000D028CAD0CCE7280000F081FFC8E72800AE
:104E500000F0F2FFC4E7280000F0F2FFC0E72800EE
:104E600000F097FFBCE7280000F0B1FFB8E728008A
:104E700000F0BBFFB4E7280000F0D5FFB0E7280042
:104E800000F0C1FF68680178891E0129A8D801F0E7
:104E900062F8A5E7280000F0DEFF0CE0280000F033
:104EA000DFFF2868610A884205D1686880690028A8
:104EB00001D0FFF7A7FA2868A04214D00EE028001E
:104EC00000F0D3FF0FE0280000F0D4FF0BE0280033
:104ED00000F0D7FF07E068682968884768680028FD
:104EE00001D0FFF78FFA002D02D02800FFF78AFAD1
:104EF0007EE7000030B585B00400684612A1142298
:104F0000FEF7EAF80F483021017078214170811CCA
:104F1000A31D06246A465B1E1D782D09555D0D7084
:104F20001D782D072D0F555D4D70891C641EF2D123
:104F300000220A7005B030BD24050020C94D0000D4
:104F40001C0500200810002030313233343536374C
:104F500038394142434445460000000070B5B74C23
:104F6000A278012A22D00D0020D0060002D1287894
:104F700000281BD10120A07001F09EF80021002024
:104F8000C04301F051F8606200280FD02878002853
:104F900012D00A20E070607881006118CE6031780C
:104FA0002018017100F00AF9002801D0012070BD1D
:104FB00000F004F800F03AF8002070BD78B5A3B016
:104FC000A94D12A829004422FEF786F801A829005D
:104FD00044314422FEF780F8984CB5A612A8009000
:104FE000330000220021606A01F056F82B0088335C
:104FF00000220121606A01F04FF82B00CC3300221F
:105000000221606A01F048F801A8009033000022F4
:105010000321606A01F040F801A8009033000022EB
:105020000921606A01F038F824B070BD80B500F045
:105030009FF88248C068017800F011F801BD80B582
:1050400000F087F87D48002101704378C1180A7983
:1050500000219B00C018C06800F018F801BD38B5E9
:105060000025764C2570E268904202D000F060F88E
:105070000500607821180A79002123000C33800094
:10508000185800F003F8280032BD0000F8B50D00F4
:1050900017000524401C01F023F8684E009000BF63
:1050A0008BA300220421706A00F0F6FF05E0E1B254
:1050B000E8B200F011F8641C6D1CE0B2E9B2B9422C
:1050C00001D20928F3DB092804DA0822E1B2706A68
:1050D00000F0DAFFF1BD0000F8B584B00C0075A552
:1050E000052900D174A50090544E707880003018C6
:1050F000C768781D00F0F4FF00990C22514300911D
:105100004018083000F0ECFF0390781D00F0E8FF35
:105110000099401800F0E4FF039902910195009076
:105120006FA300222100706A00F0B6FF05B0F0BD49
:1051300030B5424A5378042B09DC5B1CDCB2A50075
:105140005519E860101901715370002030BD01201D
:1051500030BD3A484178002900D1704720B500237E
:1051600045182B718A008218D360491E417020BDFA
:1051700010B5324C01E0FFF7ECFF60780028FAD15F
:1051800010BD08B418B5130003AA4C4C00920A00D5
:10519000E1780918C9B2606A00F084FF01B0019893
:1051A00010BC02B0004710B5444BDC786218D2B294
:1051B0002118C9B2586A00F067FF10BD18B585B054
:1051C000684601F007F90A20694608733C480490D4
:1051D000C82040000190642000903A4C002001F06B
:1051E00091F820606946012001F08CF86060206829
:1051F000002802D06068002801D1012000E00020D2
:1052000006B010BD38B584B005000C00684600BF7C
:1052100036A11022FDF760FF00202A4909688D425F
:1052200001D1002100E00821082C00D004206A46AA
:105230005118085800F0B7FC05B030BDBC10002074
:1052400010B51E484378C1180A7901784C1C944265
:1052500001D1002100E0491C0170C9B29B00C018B7
:10526000C068FFF713FF10BD74AA020080B5FFF7F6
:10527000E6FE01BD70B5114C607880002018C6684C
:10528000701D00F02DFF247825000C214D4340199E
:10529000001D00F025FF002809D0701D00F020FF40
:1052A0004019001D00F01CFF01002000884770BD60
:1052B00025730000000000003E000000BC1000202C
:1052C00005520000E410002080B5FFF7AFFE01BDDD
:1052D0001B5B316D1B5B33366D25731B5B306D00C3
:1052E00025732025732020202025730041520000C3
:1052F0006D52000075520000C952000010B5002424
:105300009D4B1A78022A01D1122010BD002802D02C
:10531000012806D00DE000290BD010221800203003
:1053200004E0002905D0102218003030FDF7EEFE11
:1053300000E01824200010BD38B505000F2D15DA47
:105340000C008E4A914211D0022805D13C206043C6
:1053500080B201F09BF904E00E2802D1E0B201F026
:10536000FDF9874869004452002032BD022032BD59
:105370000F2803DA82494000085A70477F48704777
:1053800038B505007C4C1C220021200001F03FFABA
:1053900020002030606020003030A0602577607FE2
:1053A000002801D0022804D12000103001F044FF71
:1053B00003E02000103003F08BF8050004D1012039
:1053C000207001F087F802E00020207012252800EC
:1053D00032BD10B5684CE160A0601022002101F0E0
:1053E000EDFC012803D11021A06803F039F910BDAC
:1053F00010B5614C60601022FF2101F0DFFC012834
:1054000003D11021606803F02BF9606803F058FEA7
:10541000012001F02FF910BD5A48704770B50021E6
:10542000002400281BD00578534A2B0006D143786E
:10543000867836029B19D382C078107610780128BE
:105440000DD10124280006D102201070117ED08ACF
:1054500003F00DFF00E01170280000F05DF820005F
:1054600070BD4948704744480078704780B5484847
:105470000068002807D0C08804F02CF8002802D06B
:105480003421405C02BD3C48407F02BD38B5050078
:105490003F48006800280AD0C08804F01BF80028A4
:1054A00005D03421415C280000F021F832BD324C97
:1054B000607F002D0BD1022809DB22004032210041
:1054C0001031002002F097FE2000403032BD00284D
:1054D00001D0022804D12000103001F0ADFE03E01D
:1054E0002000103002F0F4FF2000103032BD10B563
:1054F00000280BD1022909DB1F4C22004032210079
:10550000103102F078FE2000403010BDC80701D4F1
:10551000204810BD204810BD7CB504001B4E3078DB
:10552000FF2826D00C2001F087F9050021D0D020DB
:1055300028706C700020A8700F4C607F002801D08C
:10554000022806D1062221001031A81D01F02AF9F7
:1055500007E0684602F0BCFF06226946A81D01F07C
:1055600021F9E08AA880207EE8702900307801F0D7
:10557000B8F973BD00000000300A0020FFFF0000F2
:10558000780A0020500A0020600A0020D10F002075
:105590005C78002030750020387500203EB56846E4
:1055A0000021002206C004F067F801001FD101208D
:1055B000FFF76CFF0400032221006846FDF7A6FDFB
:1055C0006D460B4A0221E81CFDF7AEFD0322E11CEB
:1055D000681DFDF79BFD6A460821002004F05AF87B
:1055E000010004D103A21421062004F053F83EBDAB
:1055F000FEFF0000546578617320496E7374727504
:105600006D656E747300000080B50300474A012980
:1056100000D0543200210820FFF7B3FD01BD000087
:10562000F5B589B00D0002A855A11822FDF754FD6B
:105630006846048D601C04F023F9060000206946CA
:1056400008800B210920FFF7AEFD0E20FFF75EFA60
:105650000F20FFF75BFA364F6846008D00280DD10A
:1056600002A800906846838C3A0000210920FFF7C9
:1056700088FD162102A804F024F942E0019568464D
:10568000028D29463000FDF741FD00253555009477
:105690006846838C3A00543200210920FFF771FDDF
:1056A000330000BF24A200210A20FFF76AFD019801
:1056B000415D0A001300613B1A2B01D2E03103E087
:1056C000413A1A2A01D2203141556D1CA542EFDB27
:1056D00004006846018D200004F0F3F8002809D189
:1056E0006846028D21003000FDF710FD330000BF39
:1056F00016A202E0030000BF19A200210B20FFF751
:1057000040FD300004F0C5F80BB0F0BD80B509488D
:1057100004F0C4F8010008D100210E20FFF7FDF9C4
:1057200001210F20FFF7F9F9002002BDB4B10200FA
:1057300060B202008C040020446174613A201B5B5B
:1057400033336D25731B5B306D0000004563686F5C
:105750003A201B5B33336D25731B5B306D000000FB
:1057600053656E642064617461202D204572726FF0
:10577000723A201B5B33336D2564201B5B306D0058
:10578000446174612073697A6520697320746F6F56
:10579000206C6F6E6700000080B5234A012802D09C
:1057A000022803D001BD4868037802E04868037806
:1057B0002C3200210320FFF7E4FC01BD70B51B4C27
:1057C00022A5012802D002280FD070BD1849102050
:1057D000FEF7D1FF060017491020FEF7CCFF8642E6
:1057E00003D3207800F049FA70BD2900207800F03A
:1057F0003DFA70BD10B50D4C201D00F0B3F901004D
:1058000010D12000103000F0ADF901000AD100BF26
:1058100009A1200000F019FA010003D10BA12078A2
:1058200000F024FA10BD0000A0B70200D40400204C
:10583000499500005D9500001500000078080020E3
:1058400016000000900800205C0800200000000006
:1058500078B587B00C005549554D012806D002286F
:1058600018D0082840D0102834D059E06089514A17
:1058700012888A4206D14F4B18800622211D981C9F
:10588000FDF744FC201DFFF735FB03006089009005
:105890002A000FE0A0880022464BD6009B191E88E4
:1058A000864215D0521C002AF6DDA0790090A3880C
:1058B0002A00783200210620FFF763FC3E491020C1
:1058C000FEF759FF03002A005432002105201BE097
:1058D0001980EAE76089002801D1012100E0002158
:1058E000200000F0D9F91BE001ABA2883349102059
:1058F000FEF741FF002813D1A388E078002806D1E5
:105900002A00C83200210620FFF73BFC08E0009384
:10591000A378842040002A1800210620FFF731FCDC
:1059200008B070BD80B5042801D0082822D188783D
:105930000C281FD1224AC878002805D08B88002166
:105940000620FFF71EFC01BDC879012802D100BF67
:105950001CA008E0022801D11CA004E0032801D10A
:105960001CA000E01DA000908B883432002106208E
:10597000FFF707FC01BD0F48704710B50D4C0B48F1
:1059800020802000083000F0EDF8010003D1200055
:10599000143000F0E7F810BD06490988814201D1B2
:1059A00000207047FF20704700000000FFFF00004C
:1059B000D0A7020060040020499500008D940000EB
:1059C000B4B5020031204D627073000032204D6288
:1059D00070730000434F444544000000556E6578E5
:1059E000706563746564205048592056616C756514
:1059F0000000000080B5324800900023CA88314979
:105A00001020FEF7B8FE01BD70B586B00C002E4A1E
:105A1000012806D0022808D0042835D0082838D01C
:105A20003FE0207A0090238837E0207A0090238896
:105A3000503200210720FFF7A4FBFFF79CFF060070
:105A40006B46228821491020FEF795FE002828D1B8
:105A50006D466878022801D0032822D10622002151
:105A60002800083001F0AAF900281AD12088FFF791
:105A700093FFC0B2FF2814D00622A91CC000301822
:105A8000801CFDF743FB0CE0207A00902388A032B5
:105A900003E0207A00902388F43200210720FFF7EA
:105AA00070FB06B070BD10B5094C200000F05AF82C
:105AB000010003D120000C3000F054F810BD0000AC
:105AC00040E20100B11B01002CA902008D940000EE
:105AD000BC04002080B50C4A08797E2802D07F28BB
