:10000000009000206D270300752D0100772D010061
:10001000792D0100792D0100792D0100792D010044
:10002000792D0100792D0100792D010085C0010095
:10003000792D0100792D010047C0010011C0010098
:10004000792D0100792D0100792D0100792D010014
:10005000792D0100792D0100792D0100792D010004
:10006000792D0100792D0100792D0100792D0100F4
:10007000792D0100792D0100792D0100792D0100E4
:10008000792D0100792D0100792D0100F8B584B09A
:10009000A24CA077002525630C20202160540D2060
:1000A00060849F48A0849F4F38782071797861716F
:1000B000BA78A271FB78E3713E7926727F79677214
:1000C00020756175A275E37526766776FF2020732B
:1000D0006073A073E073207460746585924E300085
:1000E0001C3003F08BF94078607730001C3003F04F
:1000F00085F90078E0778D480088208530001C3035
:1001000003F07CF94069606330001C3003F076F93D
:1001100000798749087030001C3003F06FF940798E
:100120008449087030001C3003F068F9C0782077EB
:1001300003F070F906F008F800907F4869460A78E5
:10014000027005F0E1FF009068460178217006F02A
:1001500028F807280AD106F0BAF88021C901A07F43
:1001600006F090FA002006F066FC2FE07348006865
:100170008047060006F070FC06F05AFE684606F05E
:1001800075FD042069460870002006F0B5FEE062A7
:1001900006F0A4FF3000A649096888470C21A5484D
:1001A00006F02FFF20000C3007F05EF906F0AEFEDF
:1001B000A1480560B449818085710121FF2000209C
:1001C000C04680218901A07F06F05CFA05B0F0BD31
:1001D00080B5012007F068FC01000020AB4B1B68D4
:1001E0001B7B012B00D000230B43BD490968C97A52
:1001F000012900D10120184302BDF8B50C004E4D75
:1002000080273F013C4213D0688EFF280BD0C0B23C
:1002100007F05BFC060006D01621B07908F0A4FABE
:10022000300007F056FCFF20688667403800F2BDBA
:100230002026344202D007F0DFFB69E0E0070CD54E
:1002400009F049FA002805D000218160E86B0028F8
:1002500000D0804701206040F2BD0826344202D021
:1002600007F0C2FB54E01026344202D002210020E5
:100270000FE00226344201D03C2109E0042634423A
:1002800002D007F0B5FB43E08026344204D03B2186
:10029000012007F0B5FB3BE07601344218D0B24DA7
:1002A00028680D3007F04AF9002804D12868C11DDC
:1002B0000D3007F0B1F807F0A7FB8A48426831001B
:1002C0001648807F09F075FC002821D08E200FE0B1
:1002D000F608344202D009F04DFE19E076003442AF
:1002E00002D0C046C04613E03601344203D081201C
:1002F00007F0DEFD0CE0760834420CD00AF0E8F896
:10030000B849280040300AF0EFF8686300F018F8A8
:1003100066403000F2BD0020F2BD00006871002090
:10032000220300005800004E14270300620B002037
:1003300066810020678100207407002010050020DE
:10034000F8B505F001FF0090A74C684601782170D0
:10035000A64800680AF0D0F9A54800680AF0CCF970
:1003600000F004F9494800680025002800D0057312
:100370005B480068002800D0C57200269D4F0EE043
:10038000E069F1B2E422520051434018407901285B
:1003900004D1F0B207F099FB07F09BFB761CF97FC4
:1003A000F0B28842ECD307F098FB934E787F30761A
:1003B00008F0F2FB07F0C5FBA279D00701D50721B1
:1003C00000E00521FB20FF27120701D5FF2200E0F6
:1003D000FB220A4032747574B5740121F1743575CD
:1003E0007175F5827576B5831B216184A42149005E
:1003F000A184E184A921090121856085E085AB48BC
:10040000A085208606F0BEFF0AF016FD20202554A8
:1004100037707770B770F7701F203071377277724E
:10042000B772F77230732520B0760020F2BD00005D
:1004300014050020DC7200209073002038B5AA4813
:100440000568A80080B20BF0E9FE040001D1072086
:1004500032BDAA00002105F0E6FF290020000BF0C4
:10046000E9FE002803D020000BF0E0FE08E02000A9
:1004700006F00EFC050020000BF0D8FE002D01D088
:10048000032032BD002032BDFFFF0000100B002012
:1004900080B5183080B20BF00BFF002803D0132179
:1004A000C9430BF051FF02BD80B5401D80B20BF077
:1004B000FFFE002803D00421C9430BF045FF02BD15
:1004C0004C490A7902704A7942708A798270CA79F5
:1004D000C2700A7A0271497A4171002070470000A7
:1004E000140B0020447D002010B5040002D1002030
:1004F00006F0A1FA9F480078052815D19E480068AB
:10050000807A01282DD003282BD03A482178017316
:1005100061784173A1788173E178C17321790174A5
:1005200061794174002010BD062807D13348006866
:10053000807A012815D00328E7D112E01128E4D1F0
:100540008E4800680028E0D0017A0129F9D1816C39
:100550004978C906F5D53221415C012901D003292A
:10056000EFD10C2010BD00004C7D002080B503F0C1
:1005700012F8010004D11D4800680AF0CEF80020EE
:1005800002BD38B505000C0003F005F801000BD1E1
:10059000220003D0012A01D0122032BD29000123FC
:1005A000124800680AF041F932BD38B505000C0068
:1005B00002F0F1FF01000BD1200003D0012C01D08B
:1005C000122032BD29002200084800680AF0E4F930
:1005D00032BD10B50400054800680AF0CEF820705E
:1005E000002010BD1828030074070020247D00207F
:1005F000287D002068710020A4710020140B0020C9
:1006000080B5002803D0002901D0002A01D1122092
:1006100002BD06F0B9FD002002BD80B506F0F1FC78
:1006200002BDF8B501788F220A4369460A7002704C
:10063000C17820240C43C470C02105790D43057195
:1006400042790126164346713F2782783A438270E9
:10065000FF234370CC232343C370FF270771022479
:10066000344344716C46247870252543057010246A
:100670001C43C4708770C7700020F2BD002802D0F0
:10068000A649497E01700020704710B5040002D1D0
:10069000002006F0D0F90020A0490A18527922540F
:1006A000401C0828F9DB002010BD0000904200002B
:1006B00070B504000D001600002C01D106F0BBF946
:1006C000002D02D1002006F0B6F9002E02D1002044
:1006D00006F0B1F992482021415C2170418C2980BB
:1006E000808C3080002070BD08290300012803D1D0
:1006F0008C49C875002070470028F9D01220704737
:10070000F8B5060007F0CCF901001AD1F0B207F0F5
:10071000DCF905006879002801D10220F2BDFF2034
:1007200012302C18207801280CD18B20400028187A
:10073000418800910388E2783100002008F00DF92B
:100740000020F2BD7848006880470700774E607847
:10075000002809D10C21280003F045FA012060701F
:10076000380031688847EBE73800316888473A201D
:10077000F2BD000094070020100B0020080B0020A1
:1007800010B5140014D0002902D0012909D00FE0BF
:1007900005F06DFC7F21C943884206D121703020CD
:1007A00010BD05F0B1FC05F0D6FC2070002010BD96
:1007B000122010BD38B505000C0007F071F90100DA
:1007C0000FD1280007F081F96221415C217062306D
:1007D000417861708178A170C178E17000792071F1
:1007E000002032BD38B505000C009F4800780C2869
:1007F00002D109F04DFF0EE00A2802D19B48807813
:1008000009E0280007F04CF9010006D1E8B207F032
:100810005CF97421405C2070002032BD38B50400C2
:100820000D00052D0DD0132D0BD0142D09D0152D35
:1008300007D01A2D05D0292D03D03B2D01D0122031
:1008400032BD07F02DF9010012D1E0B207F03DF9F9
:100850007721415C022901D13A2032BD8E21490025
:1008600045540021C183FF22022103F018FA002021
:1008700032BDFEB50D0005D069460B71002B03D0CB
:10088000012B01D01220FEBD17002549098D914290
:1008900004D28A2007F00CFB3020FEBD040007F0D4
:1008A000FFF8010039D1E0B207F00FF904001D4E46
:1008B000307E002804D1012007F098F90720FEBD02
:1008C000194800688047317E491E3176174909680A
:1008D0008847C9204000205AB8420AD23A0029006D
:1008E000200004F0E0FB010017D128000BF0F9FC18
:1008F00008E01020009068460379FAB22900200031
:1009000004F098F908F0E7FE216809780078814240
:1009100002D1200007F0F5F80020FEBD740700208A
:1009200068710020A471002010050020140500202B
:1009300010B500230224012806D00FD3032808D0C5
:1009400004D3042808D010BD0B7003E00120087008
:1009500000E00C70137010BD0C70107010BDFEB56F
:100960000600282811DA68460270002A0FD0012AF2
:100970000DD0022A0BD0032A09D0042A07D0052A59
:1009800005D0062A03D0072A01D01220FEBD7E4DD5
:100990002020285C002801D02120FEBD1F006846D1
:1009A000C1707A4C20007A4938220BF003FD3000E8
:1009B00040302C216054684600782E2160546846EF
:1009C000C0782F21605400203021605456480078B0
:1009D000C046C046019020002D3001A90A7802705F
:1009E000A86B4089A08600AA521C00A9891C380067
:1009F000FFF79EFF00236846C2784178807804F0B4
:100A000081FDF93063490BF015FD0700F9306149AC
:100A10000BF010FD002900D07F1C684680786946E5
:100A20004978014361805C484743B8086086A86BF9
:100A300006706846C078A96B487068460078A96B54
:100A40008870A96B00208880C88080220A720921E2
:100A50002022A9545149A1612061C1480068606108
:100A60002100686B02F090F994070020947C00202C
:100A7000F8B50600282801DB1220F2BD424D2020E7
:100A8000285C002801D02120F2BD68468170B5485D
:100A9000B54938220BF08EFC30004030B349087065
:100AA000B34CB0480463B34F47632000B2491422EB
:100AB0000BF080FCFF202074607C042101436174F2
:100AC0003800AE4910220BF075FC38780321014341
:100AD00039700024BC603C737F20C043B8707C60D8
:100AE000A86B0670A96B4C70FF20A96B8870A86B6F
:100AF0008480C480802101720A202021685400AAC9
:100B0000521C694668468078FFF712FF68460078F5
:100B100094494880214888610C619948006848617F
:100B2000686B02F004F800006871002010B5164CE4
:100B30002020205C092803D00A2803D0212010BDE2
:100B4000124800E0874802F003FD2020205C0928BD
:100B500002D10021002010E00A2810D1A16B8548A5
:100B600042890389D218037BD2188A8082780A725C
:100B70000189A26BD1800121408907F0F5FF002097
:100B80002021605410BD000074070020107C00205C
:100B90005021030071020000C409000079F900002F
:100BA000F1B586B00C0015001E006846008B06F0FB
:100BB00077FF01003ED10C9F684686822E00C482DA
:100BC000008BC0B206F081FF0500A62040002C1863
:100BD0000C302818049060890390207A02902889AC
:100BE000019000976846838A3200C18A280004F089
:100BF00021FC002801D012240FE06846C08A208022
:100C000066806846808AA080E78028008A30068057
:100C10006946898A41808780002428680078802876
:100C200002D1FC22002101E0FC221021280003F067
:100C300036F8200007B0F0BD38B504000D0006F00E
:100C40002FFF01001AD1E0B206F03FFF0400FF20A1
:100C5000801C20180178490707D40F210177FC2256
:100C60000721200003F01BF807E0200002F0F0FF4E
:100C70002A000F21200004F0EBF8002032BDF8B567
:100C80000F004049BC1F8C4216D21400921F8A42AA
:100C900012D2BC4210D31D00FA22520095420BDA48
:100CA000069E32000A3A384B9A4205D2691C62000D
:100CB0005143F200914201D31220F2BD69460880EF
:100CC0006846008806F0ECFE010048D168460088BE
:100CD000C0B206F0FAFE010077310A79002A07D087
:100CE0007722825C002A06D00F2A04D0102A02D074
:100CF000C97A012901D13A20F2BDFF21891C41188E
:100D0000022203681B78402B0AD1204B5B791342E7
:100D100001D11120F2BD0B78134201D11A20F2BD8E
:100D2000A6235B00C3181F805C809D80DE800300CB
:100D300084339A7000279F80878EFF1D1F80DC8080
:100D40001D815E810123FF24483403550978114237
:100D500001D1002100E00F2102F045FF0020F2BD8B
:100D6000D81C0300487C002088210300747C0020EC
:100D7000807C0020947C0020DC1C0300F01C03001D
:100D8000001D03007B0C0000770C0000740700209E
:100D900010B5040002D1002005F04DFE05F067F902
:100DA0002070002020567F21C943884201D1302085
:100DB00010BD002010BD38B504000D0001D1122077
:100DC00032BD06F06DFE010019D1E0B206F07DFEE5
:100DD00001680978402901D00C2032BD0021EB24A4
:100DE0006A5C4B42C3181A55491C1029F8DB0121D3
:100DF000ED228154FF22052102F051FF002032BD77
:100E000010B5040006F04CFE010026D1E0B206F059
:100E10005CFE01680978402901D00C2010BD020059
:100E2000F83206211378012B05D18E22520081540D
:100E3000FF2202210EE0537A5B0708D5B22252004E
:100E40008218032313705170FF22112102E05170A8
:100E5000FF220D2102F023FF002010BDF3B581B069
:100E60000400A079E17909024018217A09044018A8
:100E7000617809071CD49549E27823791B02D218BE
:100E800063791B04D218203A8A4202D22038884261
:100E900001D31120FEBDA01DE11C88425DD3A07AC4
:100EA000002805D0012803D0022801D0032849D109
:100EB000A07C002805D0012803D0022801D00328F7
:100EC00040D1207D012805D0022803D0832801D0FD
:100ED000032837D1607A4007400F60723DD001216E
:100EE000207809F0C9FF002809D106F0DDFD784916
:100EF0000978884201D10D20FEBD0720FEBD846423
:100F000000214172027A012A01D10C20FEBD00228B
:100F100002750125637A01269640334208D0037D8D
:100F20005B1CDEB2012E02D1160025364675037514
:100F3000521C032AEEDB270006007878C20658D53B
:100F40003A7D012A55D1102810D012280CD0132830
:100F500004D0152804D01D2804D04AE0B17307E05E
:100F6000042004E0B57303E0022000E00320B07326
:100F7000132038567F2803D156480078B0750CE00E
:100F800005F0BBF800903000163069460A78027010
:100F9000104605F0E9F800282BD0029C002C03D065
:100FA000B07D05F0D8F82070B87A4B4C002801D0FD
:100FB00001280CD132217054B87AC00701D4211D08
:100FC00001E021000C310622300020303EE0434891
:100FD00000680D3006F0B2FA00281CD0B87AC107BC
:100FE00001D4211D01E021000C3106F080FA002817
:100FF00001D11220FEBDB87AC00701D4211D01E045
:1010000021000C3106223000203005F0D7F9B97AE2
:101010000120084008E0062230480068C11D300069
:10102000203005F0CBF90320322170542B48B97AD7
:1010300001220A4001680A70B97AC90701D4211D4A
:1010400001E021000C3106220068401C05F0B6F9D1
:101050007878400735D5B87A022801D0032826D100
:101060003A000C32F87A012101401C48006806F071
:1010700073FA0400FF2C1AD0184800681E2161433F
:1010800040180D3006F05AFA002810D11E204443B3
:101090002700124C2068C019C11D0D3006F0BCF9A4
:1010A0003321755406222068C019C11D05E0F87A65
:1010B00033217054062239000C3130002C3005F0F9
:1010C0007DF975720020FEBD00000000E1B70B0045
:1010D000BC0A002074070020687100204C7D0020AD
:1010E00010B50400207806F0E3FC002802D0806CE4
:1010F000002801D1422010BD4078C00607D5E07815
:1011000021790906090C0843202800DB1DE0002195
:1011100017E010B50400207806F0CAFC002802D0C1
:10112000806C002801D1422010BD4078C00607D550
:10113000E07821790906090C0843202800DB04E047
:101140000121200009F00AFE10BD0020E07020718E
:10115000611D0BF0C7F9122010BDF8B506004CD088
:10116000994F2020385C092807D00A2805D00B2881
:1011700003D00C2801D00D2801D12120F2BDB07878
:1011800006F096FC040001D14220F2BDB078AA49D5
:1011900008702020385C002802D1B0788B49087094
:1011A000607A002829D0A07B01280CD1F078317911
:1011B0000906090C084306D0F07831790906090CB4
:1011C0000843812819DA7078402816DA20000AF0DE
:1011D000FFF9606C002801D10720F2BD6665307808
:1011E000012820D1A07B002803D0012801D00428A9
:1011F00019D1A648C07F002801D11220F2BD797E06
:10120000814201D10920F2BDA06C407840070AD587
:101210003320225C21002C31802006F082FC002843
:1012200001D00B20F2BD7078002801D11120F2BD51
:1012300000253078012873D12573A562207A012812
:1012400003D17079616D4871B8E01120C046C04685
:1012500001262672E5726573012008F08EF9606040
:101260008B48006880478B4901E062684A600968E2
:101270000029FAD188490968884788486168486127
:101280006D4D002128780020C046012229781120C8
:10129000C046C046A06C4078C00604D520000AF0C5
:1012A000A7F90100C3D1A06C4078C0071DD5208FDD
:1012B00000281AD0E16B002917D03621615C8142E9
:1012C00013D20F200AF0E4FE00280ED06846A16C6D
:1012D00009780170218F4170090A81703621615CA3
:1012E000C17069460F200AF0C3FE2020385C002838
:1012F00012D16B480078002807D0A06C4078800796
:1013000003D06848006806F09EF911202021785427
:10131000267207F067FC51E0200009F0A8FC4DE0C0
:10132000207A00284AD05A48006880470090424EF0
:10133000012130780020C04625725B480168080012
:101340000268137A002B04D1926C127833789A4297
:1013500003D0C0688842F3D10AE0544D29780129AE
:1013600006DD09F06BFC0AF061FF2878401E28704A
:10137000494D307815490978884216D108F0ABF903
:101380006168884211D1486802F0E2F8182801D05B
:10139000022806D14648F86301213C48807F05F0C9
:1013A00071F900982968884708E020000AF086FE55
:1013B00000982968884720000AF0F3FE0020F2BD5B
:1013C0003C4800787047000074070020BD0A0020E8
:1013D00070B504002E48006880472E490A68150041
:1013E00001E02A002D68002D20D0AB6C1B78A342B1
:1013F000F7D10400284E287A012804D12000316852
:1014000088470C2070BD286810600868854201D1AB
:1014100028680860686C002801D00AF007FF2800DF
:101420000AF004FF2000316800F031FD1A49096814
:101430008847422070BD00007581002070B50120F2
:1014400006F032FB002801D00C2070BD1048006867
:10145000804704000F4D0CE030682860706C002855
:1014600001D00AF0E3FE301D08F0EAF830000AF07F
:10147000DDFE2E68002EEFD12868002802D0002063
:1014800005F0D9FA200000F000FD0000687100208E
:1014900010050020080B002014050020859700008F
:1014A000447D0020247D00200C0B0020BE0A00207B
:1014B000ED060300BC0A0020F8B57D4E3168002916
:1014C00001D10720F2BD05000020C872002D14D004
:1014D0006978022905D0032903D0002901D0012908
:1014E00051D12978022905D0032903D0002901D040
:1014F000012948D1A97805220A4000D1A1E001299B
:1015000001D004291ED129796A791206120C1143DF
:10151000AA79EB791B061B0C1A43914220D3297937
:101520006A791206120C1143042920DBA979EA79A1
:101530001206120C1143042919DBE978002901D0A5
:10154000012920D1A97805293DD129796A79120686
:10155000120C1143AA79EB791B061B0C1A4391421A
:101560006FD329796A791206120C1143042968DBBA
:10157000A979EA791206120C1143042961DBE97892
:10158000002901D001295CD1697AAA7A1206120CCD
:101590001143EA7A2B7B1B061B0C1A43914250D352
:1015A000697AAA7A1206120C1143042949DBE97AF6
:1015B0002A7B1206120C1143042942DB297A0029E6
:1015C00001D001293DD131680A7B012A01D10C20CB
:1015D000F2BD384A10702878374C0127002801D016
:1015E00001281CD188722878C00701D4211D01E090
:1015F00021000C3106223068001D04F0DFFE28783F
:10160000012101402D48006801702878C00701D4ED
:10161000211D01E021000C31062228483EE0274828
:1016200000680D3005F08AFF00281ED02878C10719
:1016300001D4211D01E021000C3105F058FF0028E4
:1016400001D11220F2BD2878C00701D4211D01E08C
:1016500021000C3106223068001D04F0AFFE28780E
:1016600001210140306881720AE0062213480068B7
:10167000C11D3068001D04F0A1FE0320316888728E
:101680000E48297801220A4001680A702978C907A2
:1016900001D4211D01E021000C3106220068401C0C
:1016A00004F08CFE3068C561C7720020F2BD0000F6
:1016B000100B0020C00A0020687100204C7D002023
:1016C000F8B5B44C2168002906D0060004D0C87AC9
:1016D000002803D13078012800D19CE0AE4F2020B3
:1016E000385C092807D00A2805D00B2803D00C281D
:1016F00001D00D2801D12120F2BD3078002801D081
:10170000012805D17078002804D0012802D00228D1
:1017100000D080E0B078F2781206120C104316D098
:10172000307972791206120C104310D0B078F2782A
:101730001206120C1043327973791B061B0C1A43E4
:101740000A234343A020C0005043834263D2B078B1
:10175000F2781206120C10431FD0C8698278012A51
:1017600001D0042A19D1027943791B061B0C1A43B4
:10177000B378F5782D062D0C2B431B019A424AD2E3
:101780008279C3791B061B0C1A43B078F3781B06C9
:101790001B0C1843000182423DD2B078F278120649
:1017A000120C104339D0C8698278052A35D10279E4
:1017B00043791B061B0C1A43B378F5782D062D0CC4
:1017C0002B431B019A4226D28279C3791B061B0C3C
:1017D0001A43B378F5782D062D0C2B431B019A4242
:1017E00019D2427A837A1B061B0C1A43B378F57818
:1017F0002D062D0C2B431B019A420CD2C27A037B7F
:101800001B061B0C1A43B078F3781B061B0C1843FD
:101810000001824201D31220F2BDC86980780228FB
:1018200002D1002005F007F9206806620025317812
:10183000012966D1007B012862D0022007F09DFEBD
:1018400021680860554A4260554A42610D76092078
:1018500021688876206845762068036A19795A7964
:101860001206120C11439A78DD782D062D0C2A43AE
:10187000A023DB004B430921C9435143591841615F
:1018800048498978242281540AF000F90100C3D123
:101890000520C046C0460120216808732020385C1E
:1018A000002874D140480078002820D03F4D40489F
:1018B00000680D3005F042FE002805D12120285C8B
:1018C00004210143212029542120295C08200843B8
:1018D000212168542168C9694978032903D102216B
:1018E0000143212029542868083805F0ACFE052062
:1018F0002021785401220021C046C04607F072F929
:1019000045E02C4E017B00290BD1407E01283ED1C1
:101910002021B07F08F085F9002109200AF0A8FBFA
:1019200035E025480068804700902021B07F08F00E
:1019300078F921680D7307F0CEFE216809688842A6
:1019400011D1164801F004FE182801D0022805D153
:101950001A48F8630121B07F04F094FE00981849FA
:101960000968884713E00AF0AEFB0098144909683B
:1019700088472068016A08794A791206120C1043D8
:1019800005D1002109200AF073FB206805620020C0
:10199000F2BD0000100B002074070020C873002067
:1019A000E99800006B0B0020447D00203C7400206F
:1019B0004C7D002068710020100500201D150300DB
:1019C00014050020F8B50600B0480068002801D1D1
:1019D0000720F2BDC07A012804D0042007F083FE5E
:1019E000012801D10C20F2BDA9480078092807D0B0
:1019F0000A2805D00B2803D00C2801D00D2801D1CE
:101A00002120F2BD002E22D03078002802D00128FB
:101A100018D106E006220021F01C04F0E4FF0028A3
:101A200010D1B078002805D0012803D0022801D0B9
:101A3000032807D17078002806D0012804D0022896
:101A400002D0032800D000E1707A0521014000D1C6
:101A5000FBE000230024707A01219940084200D164
:101A600091E020013018817AC27A1206120C1143DB
:101A7000042935DB817AC27A1206120C1143854A99
:101A8000914268DA017B427B1206120C1143042951
:101A900026DB017B427B1206120C11437D4A9142E8
:101AA00059DA817AC27A1206120C1143027B457B05
:101AB0002D062D0C2A4391420AD3017E427E120646
:101AC000120C1143827DC57D2D062D0C2A439142B7
:101AD00000D2BAE0817BC27B1206120C11430629A8
:101AE00000DAB2E0817BC27B1206120C1143C74AB6
:101AF000914230DA017C427C1206120C1143062915
:101B000070DB027C417C0906090C0A43BF498A420A
:101B100021DA027C457C2D062D0C2A43857BC77B70
:101B20003F063F0C3D43AA425CD3827CC57C2D0618
:101B30002D0C2A43FA256D00AA420CDA027D457D60
:101B40002D062D0C2A430A2A4CDB027D457D2D06ED
:101B50002D0C2A438A4278DA817CC27C1206120C50
:101B60001143827BC57B2D062D0C2A43491C520054
:101B70005143027D457D2D062D0C2A43D000814224
:101B800063D2641CE4B25B1CD8B2022800DC62E7BA
:101B90003E4800684661707A062801D1012000E0C5
:101BA00000209B49087002F0E4F9050001D10920EA
:101BB000F2BDA879354909680874B278F11C402053
:101BC00005F0AFFF002801D00B20F2BD29006231E3
:101BD000280002F0A9F83B20285C012803DC28003B
:101BE00002F0BDFA31E0294F707839688872707858
:101BF000A84C002801D0012809D1C00701D4211D1B
:101C000001E021000C3106223868001D49E0AE4891
:101C100000680D3005F092FC002806D1AB48007832
:101C200000281FD1307800281CD17078C10701D45A
:101C3000211D01E021000C3105F059FC002804D0E1
:101C40007078C00703D4211D03E01220F2BD2100EB
:101C50000C3106223868001D04F0B0FB0020396802
:101C6000887207E0062298480068C11D3868001D88
:101C700004F0A4FB94487178CA07D20F01680A7077
:101C80007178C90708D4211D08E000BF140B00209B
:101C9000940700200140000021000C31062200685A
:101CA000401C04F08BFB3078002835D1B0789921A6
:101CB000490068540622F11C96204000281804F0C0
:101CC0007DFBF21CB078C107C90F7F48006805F0A2
:101CD00043FC0090FF281FD07B4C206800991E22F7
:101CE00051434018417F002916D10D3005F026FCE4
:101CF000002811D1B07802210143992040002954D5
:101D00000622206800991E2359434018C11D9620C1
:101D10004000281804F052FB02F0F2FEA8620AF01C
:101D20001BFC68623A4800780001310010310A1843
:101D3000117853781B061B0C194369863100143146
:101D40000A18117853781B061B0C1943E9863118C1
:101D5000887CCA7C1206120C1043A8863868407C26
:101D60002C21685402202E21685405F045F9698E13
:101D70000AF05DFB298605F03FF90C210AF057FBBC
:101D8000491D3C202954042007F0F7FB39680860FE
:101D900079494160794941610620C046C046012029
:101DA0003968C8727648C07839680876A87909F029
:101DB00051FF4648007800280CD1386841690978FD
:101DC000012907D1807A022804D13F4800680D30EC
:101DD00005F0B4FBA04C2020205C002814D13B4827
:101DE0000078002803D09D48006805F02CFC386876
:101DF000007C05F07EFE0620202160540122002197
:101E0000C046C04606F0EEFE0020F2BD810C000088
:101E1000C10A002070B5924C2068C07A002804D016
:101E2000042007F077FC002801D10C2070BD8D48FC
:101E300000688047060000202168C872154D07F031
:101E400099FC012805D007F046FC21680968884202
:101E50000ED1494801F07CFB182801D0022809D195
:101E6000B9487D49C8630121A87F04F00BFC01E05B
:101E70000AF032F92068007C05F027FE02F06FF9C5
:101E80001021A87F04F0FEFB3000B04909688847A4
:101E9000002070BD687100200100F0221201914203
:101EA00003DAAB4AD27F904201D3122070476A48CE
:101EB000C069E4225200514340184079002801D102
:101EC00002207047002070474C7D0020447D002098
:101ED000F8B5040008D02079E021014004D12000A9
:101EE00001F0F4FF012801D01220F2BD00265A4D66
:101EF000974F00E0761CF97FF0B2884219D2E8696A
:101F0000F1B2E42252005143401840790128F1D146
:101F1000F0B205F0DAFD010077310A79002A03D02A
:101F20007722805C012802D0487E0128E2D13A2045
:101F3000F2BD002000900025622617E005F0C5FDE7
:101F40004179012911D10168097880290DD10099C1
:101F5000625C43189A55491C0529F9DB818EC91D1D
:101F600092228152012101F03EFE6D1CF97FE8B200
:101F70008842E3D30020F2BD0074002041990000A4
:101F80006B0B0020FEB50F0005D00092002A02D096
:101F90000193002B01D11220FEBD040005F080FD4D
:101FA000010057D1E0B205F090FD060030680078DE
:101FB000802801D00C20FEBD3400EC34607DC007C9
:101FC00001D41120FEBD607C012801D13A20FEBD64
:101FD000244800688047029001206074002500209A
:101FE000B023395C3218D154401C0828F9DB30008A
:101FF000B830009909780170009949784170002241
:102000000198EB27815C5342F318D955521C102AD2
:10201000F8DB3000A83005F084F830009C3005F083
:1020200088F80C219B4804F0ECFF6721755425705B
:1020300065709420305C012802D120730A2101E0F0
:1020400025730321300001F0CEFD02983F49096855
:1020500088470020FEBD000074070020247D00207A
:10206000140B00201005002010B5040005F018FD29
:10207000010021D1E0B205F028FD8021490041187E
:102080000A78022A07D1FF210A31421881790020FB
:1020900006F02EFC0FE002681278802A01D1082198
:1020A00007E0402A07D14978090701D4112010BD63
:1020B0000E2101F098FD002010BD70B505000C0048
:1020C000C0B205F002FD0600280005F0E9FC0100A1
:1020D00007D1A020400030580A210AF0ABF9208037
:1020E000002070BD38B505000C0005F0D9FC0100DA
:1020F00028D1E8B205F0E9FC210007D0CA00838EA0
:102100005B1C448E640063439A4201D2122032BDAC
:10211000A022520084180A22514321609421405C7D
:1021200000280ED09D48006880470500002060719F
:1021300020684108A0790AF033FB280003490968A8
:102140008847002032BD0000E90B03001405002081
:102150006871002070B50C001B39E1290CD2150004
:102160008F4AA9188F4A914206D28F494A8DA242BE
:1021700002D3898DA94201D2122070BD060005F05C
:102180008FFC010020D1F0B205F09FFCFF21891CDB
:10219000415C890601D4112070BDC8214900415C11
:1021A000C90601D51A2070BDB521490041180A7829
:1021B000012A01D13A2070BD4C80CD8001220A70E5
:1021C000142101F010FD002070BD002202800A8061
:1021D000754A53799B0601D411207047538C0380B4
:1021E000908C08800020704702001B3AE12A0BD235
:1021F0006B4BCA186B4B9A4206D2B54A538D834239
:1022000002D3938D8B4201D21220704753799B06E3
:1022100001D41120704750849184D184118500200D
:10222000704730B5002404800C8014801C80A84CBA
:102230006579AD0601D4112030BD658D0580A08D76
:102240000880E08D1080208E1880002030BD70B591
:10225000554C657E002D01D00C2070BD6579AD0612
:1022600001D4112070BD05001B3DE12D00D2608519
:102270004C484B4D4E19864200D2A18511001B39A6
:10228000E12900D2E2855919814200D2238600203B
:1022900070BD0000DC720020F8B5050008001900D0
:1022A0002B0001D0012D2AD11700009002D0002868
:1022B00025D003E0002822D1002920D0A14C0029FC
:1022C0000ED0102220680D3004F078F8102120681C
:1022D0000D3004F081FE2068C11D0D3005F09CF822
:1022E000002F56D0012D0CD1380005F027F9002819
:1022F00007D100984079C0210140C02901D01220A7
:10230000F2BD012001E0401CC0B2A349097881421E
:1023100041DB1E264643216889190A78FF2AF2D13B
:102320000D700622009920688019401C04F046F8C0
:1023300010223900206880190D3004F03FF8206821
:1023400080190D3005F0FAF800280BD11021206813
:1023500080190D3004F040FE20688019C11D0D3039
:1023600005F05AF80020216889194877FDF730FFF9
:1023700001280ED1A7480068007B012803D1A64898
:102380000168083901E0A54801682068801905F056
:1023900041F90020F2BD0720F2BD00001005002029
:1023A000B8FEFFFF4941000074070020F8B50200A5
:1023B00001D0012801D1002901D11220F2BD012450
:1023C000604F06000D0001E0641CE4B27248007822
:1023D000A04252DB38681E21614340180178B142A7
:1023E000F2D106222900401C04F00CF80028EBD0A2
:1023F0000094FF20396822461E235A438854FDF773
:10240000E7FE012837D183480068007B012803D10B
:1024100081480468083C01E08048046832002900D3
:10242000200008F0B2F907007D490978884214D0ED
:10243000201D00F0E3FF0500201D00F0DFFFF90084
:102440004218107853781B061B0C18436918754AFC
:1024500002400A70120A4A700DE032002900200082
:1024600005F047FA050006D0201D00F0C7FFE9007F
:10247000401808F070F90020F2BD0220F2BDF8B556
:102480000124304E444F18E01E256543FF2031687B
:1024900048550622002130684019C01D03F0C3FFD3
:1024A00010220021306840190D3003F0BCFF0020DD
:1024B000316849194877641CE4B23878A042E3DAFD
:1024C0000020F2BD344909780170002070470000F7
:1024D0007407002038B5030001D0012803D100297A
:1024E00001D0150001D1122032BD164C0A000100A6
:1024F000206805F031F8FF2808D0062221681E2345
:1025000058430818C11D280000F03FFE0622002194
:10251000280003F088FF022032BD80B503001000C0
:102520001A0001D0012B03D1002901D0002801D1CC
:10253000122002BD062203490968C91D03F03EFFAF
:10254000002002BD4C7D002070B50100804DA87FA9
:10255000802676017F4C002910D001291AD12178DC
:10256000002909D16268310007F023FB002801D05F
:10257000032070BD01202070002070BD217800294B
:10258000FAD0310007F04DFB3100A87F04F0CDF800
:102590000020F0E7122070BD6781002038B50100EF
:1025A00002D0AF49884201DB302032BD6949FA22AE
:1025B000920050434860087801280AD1644D802475
:1025C00064012100A87F07F02CFB2100A87F04F004
:1025D00059F8002032BD38B5140001D0012A05D1C8
:1025E000020001D0012801D1002901D1122032BD01
:1025F000B34D0A000100286804F0AEFFFF2806D0A2
:1026000029681E22504308184477002032BD02205A
:1026100032BD0000100B00203C740020247D0020FF
:1026200066810020F7FF000030B591B04122002103
:1026300068460AF089F9684600F00DFF05006C460F
:102640002021601C04F0C8FC20212000213004F06F
:10265000C3FC002D01D1002000E01F202200213208
:10266000611C05F06BFE002011B030BD38B5A2B082
:1026700001006C464022601C03F0A0FE0420207084
:102680002021601C04F0A8FC20212000213004F04F
:10269000A3FC11A9684600F015FF002801D1002411
:1026A00000E01F2411AD2021681C04F095FC691C7A
:1026B000200005F0A5FE002023B030BD70B50C0051
:1026C00001D0150001D1122070BD0600002020703D
:1026D0002870300005F0E4F9010011D1F0B205F0E6
:1026E000F4F9CD214900401801780322042900D1D2
:1026F000032121700078042800D002002A700020F5
:1027000070BD10B5A94B9B79DC0701D5072400E00B
:1027100005241B0701D5002300E00423DB432340ED
:10272000C40701D51C0002E01C000C4009D0400881
:10273000C00704D52340180605D11E2010BD134044
:10274000F8D1202010BD9A480374002010BD00006D
:1027500068710020447D0020F3B581B014001D0095
:10276000089E310005D0012E03D0022E01D0122088
:10277000FEBD070005F094F9010070D1F8B205F034
:10278000A4F9009089488079C10701D5072100E0AC
:102790000521000701D5FF2000E0FB20084000993B
:1027A000CE2252008F183978C90601D51A20FEBDF5
:1027B0006946097A0A0005D1AC4212D125400100D0
:1027C000294011E0012905D1A8420ADB0100294076
:1027D00007D009E0022906D1A04202DB0100214016
:1027E00002D11120FEBD01000840C0B27870BE7059
:1027F000411E014010D004217A780A4204D0BA78F0
:10280000002A01D0042007E00221084203D1490830
:102810000A06FAD100E008000099BE2252008C1886
:10282000E077009800680078402813D1E07F02F03C
:10283000E9FE20760123A288B97802F03EFE2188C5
:10284000814206D30123A288B978207E02F035FEAA
:102850000100E1821621009801F0C5F90020FEBDBB
:10286000B9A1000038B5514CA4790925254001D102
:10287000112032BD012B07D0022B05D0042B03D031
:10288000032B01D0202032BDFEF769F832BD10B510
:10289000464B9B7909241C4001D1112010BD012910
:1028A00005D0022903D0032901D0202010BD130038
:1028B00003D0012A01D0122010BDFEF7D9F810BDB7
:1028C0004C7D002038B505000C0003F021FC03F01E
:1028D00042FC287003F018FC03F03DFC207000203F
:1028E00032BD954A12681388038050880880002002
:1028F000704730B5914A924B84B2E418944203D3A6
:102900008CB2E318934201D2122030BD8A4C256864
:10291000288069800020285E0A2109F088FD28713E
:1029200024680220205E0A2109F081FD60710020E8
:1029300030BD10B5040008D02079E021014004D159
:10294000200001F0C3FA012801D0122010BD0020A0
:102950001749225C0A54401C0428FADD002010BDEF
:10296000F1B5002808D00079E021014004D1009899
:1029700001F0ACFA012801D01220F2BD00200023A2
:1029800000210B4A9376009C645C55182C7200253C
:102990002600EE40F707FF0FDB196D1CEEB2082E84
:1029A000F6DB491C0429EDDD9376F2BD74070020A7
:1029B000A4710020002901D1122070470120087065
:1029C0000C207047002901D11220704701200870A7
:1029D0001120704738B5140006D003F08EFB0500B7
:1029E00003F0C2FB002801D1122032BD280003F001
:1029F0005FFB01202070002032BD80B5002803D08D
:102A0000002901D0002A01D1122002BD04F0CFFB21
:102A1000002002BD10B5002801D1122010BD6F4961
:102A20004A7E002A01D00C2010BD835C8C18637193
:102A3000521C082AF9DB8879C10701D5072100E07B
:102A40000521000701D5FF2000E0FB200840964942
:102A50000874002010BD002801D0012803D192493C
:102A6000487500207047122070479049097807295F
:102A700001D00C207047002801D0012803D18A49D9
:102A800088750020704712207047F8B50C0028297F
:102A900009DA6946087068460078002805D068465B
:102AA0000078012801D01220F2BD4C4D2020285C76
:102AB000002801D02120F2BD07F00AFD7C49280042
:102AC000403007F011FD06007A4F38007A49342271
:102AD00009F070FC3020395CFB2008406946097819
:102AE00089000422114001433020395400206A46F5
:102AF0001278012A01D1002200E00222FC230B40BF
:102B00001A4330217A5440342C217C54F88529789A
:102B10002D22B95478806949B961386168480068E4
:102B200078610B20202168546E633900300007F073
:102B300013FD0020F2BD0000C4710020FFF500006D
:102B4000FFFAFFFFF8B50400282801DB1220F2BDD0
:102B500056480078002801D02120F2BD07F0B8FCCB
:102B600053498B4807F0C0FC00908A4D28009349D8
:102B7000382209F01FFC924F2F63924E6E6338008B
:102B80009149142209F016FCFF203874787C042146
:102B9000014379748D48B86030008D49102209F0E6
:102BA00009FC30780321014331700020B06030739C
:102BB0007F21C943B170706040342C216C543F496F
:102BC000A96128618348006868610C203749087052
:102BD0000098A349486329000098A8E774070020DB
:102BE000FEB51400282A13DA6A4610706846007889
:102BF000002803D068460078012809D10E00984DBE
:102C00000AD0A879012905D002290BD0062909D0BC
:102C10001220FEBDC00707D52020285C002805D063
:102C20002120FEBD0007F7D41120FEBD07F050FCA7
:102C30001F492800403007F057FC01901D4F380015
:102C40008849342209F0B6FB3020395CFB2008406B
:102C50006946097889000422114001433020395423
:102C600000206A461278012A01D1002200E00222E7
:102C7000FC230B401A4330217A5440342C217C54DD
:102C8000F88529782D22B95440367E800B49B961E8
:102C900038619E48006878610B20202168540198B3
:102CA000686339006FE00000A471002094070020E1
:102CB00018280300A47C0020D422030079F9000026
:102CC000041D0300FEB50C00282912DA69460870BD
:102CD00068460078002810D0614880790978012979
:102CE00009D06946097802290DD069460978062974
:102CF00009D01220FEBDC00707D5854800780028FE
:102D000005D02120FEBD0007F7D41120FEBD07F03D
:102D1000DFFB80491E4807F0E7FB01901D4D2800AE
:102D20007D49382209F046FB254F2F63254E6E63FF
:102D300038009E49142209F03DFBFF203874787C4E
:102D400004210143797430009949102209F032FBC3
:102D500030780321014331700020B060307370601F
:102D600040342C216C546946097869809149A961E5
:102D700028619148006868610C20654908700198D5
:102D8000374948632900019807F0E6FB0020FEBDA3
:102D9000B4070020487C002080B55D4800780B28EF
:102DA00003D00C2808D1A04800E0AB4800F0D0FBCD
:102DB000FDF7C6FA002002BD212002BDC02103009C
:102DC000807C0020947C0020081D0300294176713E
:102DD0001C1D03002C1D0300002801D11220704788
:102DE0004B490978002901D00C207047A44902788A
:102DF000FF2A1AD14278FF2A17D18278FF2A14D1EC
:102E0000C278FF2A11D10279FF2A0ED14279FF2A16
:102E10000BD1087D0871487D4871887D8871C87D17
:102E2000C871087E0872487E16E00A790A754A79E8
:102E30004A758A798A75CA79CA750A7A0A764A7A87
:102E40004A7602780A7142784A7182788A71C27829
:102E5000CA7102790A7240794872002070470000F6
:102E600074070020082303000200FF21F6318A4284
:102E700001DB1220704726490978082901D007296B
:102E800001D10C2070477F490968152A01DA072211
:102E900021E01300153B0A2B01D206221BE0130090
:102EA0001F3B142B01D2052215E01300333B192BD5
:102EB00001D204220FE013004C3B192B01D2032254
:102EC00009E01300653B322B01D2022203E0973A5E
:102ED000642A9241D20F4A74924900E0088309683B
:102EE0000029FBD1AF4908700020704780B503F07E
:102EF00004F9009003F038F9002801D1122002BD36
:102F0000A94869460A780270002002BD301D0300FE
:102F10009407002018280300F8210300FEB50500DF
:102F200006F0D9FB0090280004F0BAFD01003CD166
:102F3000E8B204F0CAFD070002D00098002801D1D1
:102F40000220FEBD994800688047019000980078F3
:102F50004B4C974E802801D040281BD1B17E8D422A
:102F600018D1FF201C303818012101701621417042
:102F70000098406800F0ECFA182801D002280FD120
:102F800000980078402801D18A4800E08A48F06320
:102F9000012102E0758680210901A07F03F072FB08
:102FA00001988649096888470020FEBD341D03004A
:102FB000481D030079F90000581D030038B50500CD
:102FC0000C0004F06DFD010010D1E8B204F07DFDAD
:102FD0008F2149004018002C02D0012C07D00DE0B1
:102FE0000021018041808180C180002032BDC388E2
:102FF0008288418800880AF03DFEF6E7122032BD43
:10300000694B002802D0012802D00AE05985704798
:10301000588D1070588D000A507000209070D0703C
:103020007047122070470000487C002080B50100E6
:103030005D48807F02D0012907D00AE06422802108
:10304000890006F0B6FD002002BD64228021C9007F
:10305000F7E7122002BD0000A47C002002000CD083
:10306000074A527F824208D3002901D0012904D1A6
:10307000A64AD074117500207047122070470000D6
:1030800068710020140B002070B5002802D0464B58
:10309000DB7F0370002902D04548407E0870002A7B
:1030A0003DD000250026140034E0012210E004F099
:1030B000F7FC00282DD1F0B204F007FDE9B2665408
:1030C0006D1C29006D1C02681278802AEDD1002247
:1030D000C9B262549621490040180178EAB2A1545D
:1030E0006D1C4178EAB2A1546D1C8178EAB2A154FA
:1030F0006D1CC178EAB2A1546D1C0179EAB2A154E9
:103100006D1C4179EAB2A1546D1C8079E9B260541A
:103110006D1C761C2449C97FF0B28842C7D30020B9
:1031200070BD0000080B002038B50D001E4AD27F8C
:10313000904228D204F0C9FC04006079002820D015
:103140002900606A09F0CEF9608E2871000A687162
:103150003C20205CA8719F204000205AE871000AA2
:1031600028723820205C6872052221006231280014
:103170000A3003F023F903222100283128000F3000
:1031800003E0022032BD1E2032BD03F017F90020FB
:1031900032BD4007400F01D11E20704776490870AC
:1031A00000207047BF0A0020687100201005002031
:1031B000740700203B7B0000337B000014050020D7
:1031C000FEB5040015000026002241320292052CB3
:1031D00010DC6A46117021000ED1D8B204F075FCE3
:1031E000060068460078032820DA002E02D07079A5
:1031F00000281BD11E20FEBD012C07D1D8B204F03F
:1032000057FC0028F6D0413002900FE0022C07D185
:103210005A4800680028EDD0C07A002806D1E9E7B6
:10322000032C03D1564800680028E3D0DE2040007C
:1032300030180190A800CD21490071188022120693
:10324000D3436F463F78002F03D0022F38D018D3D6
:10325000D0E7032DCED2200001D18D7653E0012C92
:1032600002D1029805704EE0022C04D14348006858
:103270002421455447E0032C45D141480068057698
:1032800041E0002CB6D10C78042C05D13D4C2C1912
:103290003D4DAC4205D3ADE73C4C2C193C4DAC4206
:1032A000A8D28C7F012525438D77019909680A40B2
:1032B000C82149014018034013430198036022E0EC
:1032C000002C97D10C78042C04D1A9242401A54208
:1032D00004D28FE7A4246400A5428BD3748E2D4DB5
:1032E0006543854286D3019C24681C40A042F9D3E3
:1032F0008C7F022525438D77019949680A40034058
:103300001343019843600020FEBD0000A47100201B
:1033100000291BD1032819D21F49130001D10870BD
:1033200012E0012A01D148700EE0022A01D1887012
:103330000AE0032A01D1C87006E0042A01D108710D
:1033400002E0052A02D14871002070471E20704714
:103350001249896B48810020704711490A7B02702D
:103360004A7B42708A7B8270CA7BC2700A7C02717F
:10337000497C417100207047830B0020100B002016
:10338000140B002070F5FFFF01380000B8FEFFFFAE
:1033900001070000C40900006B0B00207407002027
:1033A0006871002010B50C0004F082FB002C01D1E4
:1033B000122010BD002801D1422010BD817B0329BD
:1033C00002D1017A012901D10C2010BD0021322245
:1033D0008154217820228154617821228154A1785E
:1033E00022228154E178232281542179242281549C
:1033F000617925228154002010BDA62AC3788278E5
:10340000417800781B021A43090212040843104352
:103410007047C92A38B5C046C046484C20000AF05B
:103420009EFC474D28000C30FFF7E8FF0078042889
:1034300006D028000C30FFF7E1FF0078022800D109
:103440002070210000200AF0F9FD6063002801D1FE
:1034500003F0F1FA31BD38B50500384C20212000C9
:103460003C3003F0CEFD202221003C3120005C30B6
:103470000AF0EEFD4122290020006C300AF0EAFD3E
:10348000200024300AF0ECFD2E48FFF7B7FF8068DB
:10349000606220005C30A06220006C30E06221009D
:1034A0002431606B0AF07BFCA063002802D000206E
:1034B00003F0C1FA202120003C3003F08DFDA06B09
:1034C00040B232BD70B505000E001C4C2022210018
:1034D0003C3120005C300AF0BBFD41222900200075
:1034E0007C300AF0B5FD25008C35412231002800E2
:1034F0000AF0B0FD200010300AF0B8FD1148FFF7C7
:103500007DFF8068206120005C30606120007C309D
:10351000A061E561202120003C3003F05DFD210029
:103520001031606B0AF0C0FCA063202120003C3009
:1035300003F052FDA06B40B270BD0000B47E0020CD
:10354000142703003027030080B50AF0A0FD02BD58
:1035500080B5032107F044F802BD1CB5764C2088E5
:10356000002817D040060AD50821684603F049FD17
:1035700068460AF069FB2088704901402180207864
:10358000000607D50C216E4803F03BFD20886D49ED
:103590000140218013BD80B56B48007804F088FAA3
:1035A0006A4909680A7B012A0DD1CA695278012A41
:1035B0001DD0032A1BD0002A01D0022A03D1096A98
:1035C0004978012913D062490968CA7A012A03D1CE
:1035D0004969097801290AD000280AD0816C00299C
:1035E00007D0007A012804D1887C002801D00C2063
:1035F00002BD002002BDFEB506000AF085FDFA21DD
:10360000090140180190300004F05FFA0400CA4F2D
:103610000125CA48006828402ED000206A4616704E
:10362000002601E00020761CC54A1278F1B29142D2
:1036300010D26A4612789142F5D0F0B204F045FA01
:1036400001790129EED141790129EBD1016809788D
:103650008029E7D16946097800280DD02E22BD5473
:103660000268D268638EB74C5C4312198079081ADD
:10367000B5494843101806E02E203D540198618E4C
:10368000B04A4A4380183863F7BD10B5002303726F
:1036900003248473012A00D1091DCAB2921D8281BC
:1036A000C373037443748474C17410BD70B5060091
:1036B0000C20FCF7EDFE00283CD014380500340047
:1036C0008434227C0C21FFF7E0FF00202875A078CD
:1036D0006875A088A875A088000AE875E088287633
:1036E000E088000A68762089A8762089000AE876B2
:1036F000608928776089000A6877208831894018B6
:10370000BE4949788A005118401820802088A8773F
:103710002088000AE877207C002806D02B0014338C
:103720000C220321300003F0ADFD2900B06E0BF038
:10373000EDFD012070BD0000C0710020BFFF000042
:10374000DC7200207FFF0000BD0A0020100B00206B
:10375000140B002070B505000820FCF799FE002826
:1037600027D0143806002C009234A2780821FFF7E5
:103770008CFF0120307505222900623130001530A0
:1037800002F01CFE2088298940182080B07620880D
:10379000000AF076A078002806D0330014330822FF
:1037A0000321280003F06EFD3100A86E0BF0AEFD82
:1037B000012070BDF8B50400A06E00680068002804
:1037C00037D11720FCF764FE002832D014380500EA
:1037D00000221721FFF759FF032028750822210036
:1037E000B0312800153002F0E9FD02222100B83185
:1037F00028001D3002F0E2FD2700A837082239001A
:1038000028001F3002F0DAFD26009C360422310029
:103810002800273002F0D2FD2900A06E0BF076FDC3
:103820000821380003F0D8FB0421300003F0D4FB5A
:103830003FE00020F2BDF8B50400A06E006800680B
:10384000002834D10D20FCF723FE00282FD0143897
:10385000050000220D21FFF718FF0420287527001E
:10386000A037082239002800153002F0A7FD2600F5
:1038700098360422310028001D3002F09FFD2900F7
:10388000A06E0BF043FD0821380003F0A5FB0421D6
:10389000300003F0A1FB0020C123414261189F22A8
:1038A000895C2218D154401C0828F6DB01E0002076
:1038B000F2BD20006830818AC1820120F2BD38B596
:1038C00004000120FCF7E4FD002810D014380500A6
:1038D00000220121FFF7D9FE052028752900A06EDE
:1038E0000BF014FD20006830818AC182012032BDB6
:1038F00038B504000120FCF7CBFD00281BD014389C
:10390000050001220121FFF7C0FE062028752B00CB
:10391000143301220321200003F0B4FC2900A06E1F
:103920000BF0F4FCC9480078082803D12000683067
:10393000818AC182012032BD007400209C71002068
:103940008771002088130000204E000038B5040065
:10395000A06E0068006800281DD10120FCF798FDCA
:10396000002818D01438050001220121FFF78DFE30
:103970000A2028752B00143301220321200003F0B4
:1039800081FC2900A06E0BF0C1FC20006830818A08
:10399000C182012032BD002032BD70B50400A06E8E
:1039A00000680068002826D10120FCF771FD00287E
:1039B00021D0002214380600A44D2878072800D111
:1039C000012201213000FFF760FE0B2030752878BE
:1039D000072806D13300143301220321200003F00D
:1039E00051FC3100A06E0BF091FC20006830818A00
:1039F000C182012070BD002070BD00008C07002036
:103A000038B504000220FCF743FD002813D0143819
:103A1000050000220221FFF738FE0D202875F9204D
:103A2000205C68752900A06E0BF070FC20006830E7
:103A3000818AC182012032BD70B504000920FCF7E3
:103A400027FD002822D0143805002600943632784D
:103A50000921FFF71AFE7D480078082800D00E20C3
:103A600028750822AB492800153002F0A7FC3078F1
:103A7000002806D02B00143309220321200003F074
:103A800001FC2900A06E0BF041FC012070BD70B557
:103A900004000920FCF7FCFC002823D014380500A2
:103AA0002600943632780921FFF7EFFD09202875AA
:103AB000F830205C6875072297492800163002F01C
:103AC0007DFC3078002806D02B0014330922032116
:103AD000200003F0D7FB2900A06E0BF017FC00209C
:103AE000E083012070BD70B505000620FCF7D0FC16
:103AF000002829D0143804002E009436327806218C
:103B0000FFF7C3FD0C20207584480178617541885A
:103B1000A1754188090AE175818821768088000AAB
:103B200060763078002806D0230014330622032163
:103B3000280003F0A7FB2100A86E0BF0E7FB28008C
:103B40006830818AC182012070BD70B504000220F6
:103B5000FCF79EFC002820D01438050026007E3695
:103B6000B27D0221FFF791FD022028758E204000D2
:103B7000205C6875B07D002806D02B00143302222B
:103B80000321200003F07EFB2900A06E0BF0BEFB9A
:103B90000020E083E0893080012070BD70B5040012
:103BA0000220FCF775FC00281CD014380500260004
:103BB000943632780221FFF768FD07202875FF2030
:103BC0001E30205C68753078002806D02B00143336
:103BD00002220321200003F055FB2900A06E0BF008
:103BE00095FB012070BD70B505000C00002D01D1C2
:103BF00002F021FF7B20285C042802DB002002F079
:103C00001AFF4748006880470600002005E02900A9
:103C10007731895CA14213D0401C7B21695CC2B220
:103C20008A42F4D32800773044547B20285C401C1F
:103C30007B216854C0B2042802DB002002F0FBFEA6
:103C4000300038490968884770BD0000940700209B
:103C5000F8B5050002D1002002F0EDFE2C0076340C
:103C60006079002801D102F0E6FE2D480068804707
:103C700063795B1E63710021FF221B0601D1627014
:103C800008E00023EE187736777837705B1C032B3B
:103C9000F8DB22712170234909688847F1BD7CB5A2
:103CA00004000D001600002C01D102F0C4FE1C48D7
:103CB0000068804700902000763000212B00FF2E06
:103CC00006D143704279002A18D1521C427115E086
:103CD000002225007735AD5CB54203D0521C042A82
:103CE000F7DB02E025007735AB54042A04D1427992
:103CF000551C45717734A354002A00D101704079D6
:103D0000042802DB002002F096FE009805490968AD
:103D1000884773BD790700207A070020887100204A
:103D20001005002014050020F0B50A79D206D20E45
:103D30000A7100233B2403553D270024CD5CE54058
:103D4000ED070AD5DD002D193B26865D8619F55550
:103D50003B25455D6D1C3B268555641C082CEDDB21
:103D60005B1C042BE9DDF0BD70B504003820205C3D
:103D700039216054D0204000251826009036307834
:103D800001281CD12089401C7188884217DB210042
:103D900062312000FFF7C8FF2000296888473A21D8
:103DA00060540120C046002806D03A20225C210041
:103DB0006231A07903F0DEFF0220307004E02000C1
:103DC000296888473A2160543A20205C2168496874
:103DD0002C22885470BD10B5040021896089401AD6
:103DE00080B2010000D101203921615C3C22A25C3B
:103DF00042438818252108F01AFB3820215400225C
:103E000000E0521C3B20215C3820205CD3B28B4266
:103E100005D221003D31C95C8842F2D110BD3D344C
:103E200008F005FB605C10BD0109000108430106B4
:103E3000890E33220A408100CC20084010434108FB
:103E400055220A404100AA20084010437047F8B5A7
:103E50004140032604000D002804000EFFF7E4FF94
:103E60000702E8B2FFF7E0FF384301010818001924
:103E700085B2761EF0D120006840F2BD70B5040016
:103E8000606A6189020C504080B2FFF7E0FF0600D3
:103E900025003835252108F0CAFA2970002100E0F4
:103EA000491C3B20205CCAB2824208D23820205CE8
:103EB00022003D32CBB2D25C9042F1D170BD2100E4
:103EC0003D317043000C085C287070BD10B50022B5
:103ED00000210379DB06DB0E03710023C45C002C98
:103EE00001D0521CD2B2012A0CDC002C00D02100DF
:103EF0005B1C042BF2DD002A06D04A1E0A40D0B219
:103F0000002802D0012010BD002010BD38B5C0B27D
:103F100003F0DBFD0400CD20400025186946287819
:103F200002F070F8002101202A78042A03D12A79AE
:103F3000012A00D101216279002A01D1FF2032BD7E
:103F4000AA7F024213D19420235C002268460078A5
:103F500001F0D8FADE21490061180A6880231B06A7
:103F60001A400004400BAB4BC018104308600020FF
:103F700032BDF8B5A8480078A8490978814200D137
:103F8000EBE00024002500E06D1C854200DBE1E051
:103F9000A2494968E42252006A4389180979002934
:103FA000F2D1E8B203F091FD0121017144718571F4
:103FB00044620300623359710300683319711C6055
:103FC0009C600481448101743925445584610477DF
:103FD000C483050090352C709C7694225200821880
:103FE000147580261E739C73DC74FF261E76FF23D7
:103FF0001233C3181C705C709C70DC708B235B00E8
:10400000C6183480748074712C710300EC331C70FA
:104010005C705C609C609C731C741C735C749C740E
:10402000DC7434817481B481F4811460FF251573CC
:10403000D4817B4D956114775477FF259577913521
:104040004519A9720226EE72AC732C73754E367840
:104050006E73AC719472147154719471D471147242
:104060005472B5225200821814702C706E4E36882D
:10407000D6806E4E368816816D4E368856806D4ECF
:1040800036889680A4267600D68116821B27578113
:104090009781D68216835782978256839683D683DA
:1040A0001684568496846F8029710021FF22772719
:1040B0004618F255491C0429FADB010062315E4AB8
:1040C00016780E7056784E7096788E70D678CE70C0
:1040D00012790A7100218A37584A521852784618C4
:1040E000F255491C0829F7DB0600587DFB210140E9
:1040F0005975534828611C75B079FFF707FFDA201E
:10410000400030184F490978017044800279FE213F
:1041100011400171FD220A400271C168802212061D
:104120001140494A0A43C260017CF8220A400274E5
:104130006C83AC832C622C830220A8772C753749C2
:104140000878401C0870C0B2012801D1B07988708D
:104150003000F2BD002002F06EFC0020F2BD70B510
:104160000400A8480078082801D0072803D10122BC
:10417000A179C046C046A44D00266079002808D029
:1041800066716878002801D102F055FC6878401EFD
:1041900068702878401E2870000601D1FF20A870A2
:1041A000267170BD50B5002300241C481A490AE04E
:1041B000E422520062434668B61873714668361DA1
:1041C000B354641CE4B20A789442F1DB0380FF210B
:1041D000817050BD70B50C00C0B203F076FC016870
:1041E0004968CE694179002901D1FF2070BD0500E1
:1041F00009E0688E854941436418DB204000281897
:104200000188491C01802100300009F081FF00284D
:10421000EFD170BD581B0000877100208C07002073
:1042200030750000B471002098070020A40700201A
:1042300096070020A2070020A47100207807002024
:10424000D73D00006B0B0020400A0100FEB50400C2
:104250000D00C0B203F039FC0600E8B203F035FCF3
:1042600031684968C969019101684968C969009163
:1042700041797279002A02D0002905D1A4E00029F1
:1042800000D09FE0FF20FEBDC1894908B322520043
:10429000825AF3895B08B3277F00F75BBB4202D3E6
:1042A000914202D290E0914279D2FF21C431415C27
:1042B000C909FF22C432B25CD20902D0002902D15E
:1042C00082E000296BD10100823132008232137802
:1042D000002B0FD073895B1C9BB25788BB4209DB54
:1042E0000B78002B70D043895B1C9BB24F88BB427C
:1042F00009DA69E00B78002B05D043895B1C9BB27F
:104300004F88BB425EDA937B012B0FD173895B1C14
:104310009BB2128A934209DB8A7B012A54D14289DB
:10432000521C92B2098A8A4209DA4DE08A7B012A3C
:1043300005D14289521C92B2098A8A4242DACB21C3
:1043400049004118CB225200B2181378012B0FD12B
:1043500073895B1C9BB25788BB4209DB0B78012B2E
:1043600032D143895B1C9BB24F88BB4209DA2BE0F8
:104370000B78012B05D143895B1C9BB24F88BB4254
:1043800020DA977F8B7FBB421ED39F421AD3738E56
:10439000408E984204D2098C4843984214DB11E0C5
:1043A000128C834203D2534383420BDB0CE0088C14
:1043B000904209D3824205D30099019809F0A8FEE2
:1043C000002801D02800FEBD2000FEBD50B50E49DA
:1043D0004978A04A1268012902D11478A0420ED06F
:1043E000002300E023004C1EA34208DA5C1CD65CCC
:1043F000B042F7D18C4202D0501CC05C50BDFF20AF
:1044000050BD0000940700208C070020C409000064
:10441000F8B50D00C0B203F058FB0400E8B203F099
:1044200054FB050020684068C76928684068C66971
:1044300068796179002902D0002806D1F2BD0028F0
:1044400001D00020F2BDFF20F2BD3100380009F09C
:104450005FFE002807D0DE204000285840004008BA
:104460003118380006E0DE204000205840004008A7
:104470003918300009F04CFE401E8041C00FF2BDDB
:10448000F3B583B00500C0B203F01FFB0700386826
:104490004068C06900907879002802D1FF2005B0FB
:1044A000F0BDDC2040003C1820784008C00779D4DB
:1044B0008026360668484078012808D1654800689B
:1044C0000078854270D0002002F0B5FA6CE06846B2
:1044D000008AFF2822D0C0B203F0F7FA00684068D3
:1044E000C0690190C84D0098798E694341180198C0
:1044F00009F00EFE002803D0788E4543680057E08F
:1045000000990198401AC046F243A168314010401A
:104510000843A0606168114002403EE02800FFF7B8
:1045200055FF69468D8009E0684681882800FFF7BD
:104530008DFEA84217D02800FFF748FF0500FF2D89
:1045400032D0E8B203F0C1FA00684068C069029056
:104550000098798EAC4A4A438118029809F0D8FD38
:104560000028E1D020E0029D290000987A8EA64B19
:104570005343C01809F0CCFD002815D0009928003D
:10458000401AC046A1683140400040080843A0607E
:10459000616849004908420052088A4202DA06402E
:1045A0003143A16000207AE7788E97494143480063
:1045B0004008A1680E403043A060F3E7FEB500213B
:1045C00001240026234800680078904A5278012A86
:1045D0003ED06A461080019105001E4F0EE03868FB
:1045E000015D019A805CFFF731FE05003968095DC5
:1045F000884200D10194641CE4B2761C8348407860
:10460000019981420CDA84420ADAF0B2052807DA0D
:104610003868015D019A805CFFF7FAFE0128DED060
:10462000684600882900884205D068460088FFF760
:10463000EFFE012805D1FF212800FFF721FF280008
:10464000FEBD290068460088FFF71AFF684600880B
:10465000FEBD0000A07100208C07002098B5C0B2FC
:1046600003F033FA040004D0E089400800900428E5
:1046700001DA002092BD0A2107F0D9FE012901DBF1
:10468000012700E0002700980A2107F0D0FEC0199A
:10469000B3225200A25A81B2914200D3002080B2CC
:1046A00092BD10B50C00C0B203F00FFA002818D06C
:1046B0004179002915D0FF21C4314018012C05D1C2
:1046C000017880220A430270002010BD002C08D11E
:1046D00001784906490E01704178F8220A4042707B
:1046E000F2E7FF2010BDF8B548484078002801D116
:1046F00002F0A1F9002509F007FD434947180024FD
:104700001AE003F0E2F94179002914D08179894A4D
:104710001268EBB2D1546D1C01684968C9690091F7
:10472000390000F0B9FFE6B200993000FFF752FD02
:104730003000FFF7EBFB641C7F490978E0B2884248
:10474000DFD3324C6078EDB2854205D0002002F014
:1047500072F9822001F005F96078012830D1002635
:10476000754D00E0761C2978F0B2884222D203F021
:10477000ACF941790029F5D00400A0796D490968A8
:104780000978884202D0002002F055F9FF21A07973
:10479000FFF776FEE0894008B3214900615A88425C
:1047A00006D3207C002803D10121A07903F0BDF9B4
:1047B000A079F2BD002002F03EF9822001F0D1F88C
:1047C00061785C48006800F02DFFFFF7F7FE0400F9
:1047D000C0B2FF2805D1002002F02DF9822001F09F
:1047E000C0F8E0B203F071F9C1894908B322520060
:1047F000825A914206D3007C002803D10121E0B205
:1048000003F093F9E0B2F2BDC40900008C07002068
:10481000F2B504001700802804D0402802D0002000
:1048200002F009F99148407800282FD0904800788C
:1048300003F03EF90500802C2AD1002D02D1002082
:1048400002F0F9F8A86C002801D102F0F4F8A86C85
:1048500041781022114204D0AB7B012B2BD0042BCA
:1048600029D014230B40042B25D0114207D0A97B5B
:10487000002904D1817C022921D003291FD0002BDB
:1048800004D1807C02281AD0032818D00020F2BD61
:10489000402CFBD1964C2068002801D102F0CBF8C7
:1048A00020684069002801D102F0C5F820684069FD
:1048B0000078002801D1012002E00128E6D1002083
:1048C0000024009D06001AE0BA4217D108782A7821
:1048D000904213D148786A7890420FD18878AA78AC
:1048E00090420BD1C878EA78904207D108792A79AA
:1048F000904203D148796979884218D0641C0E49E6
:104900000978E0B28842C1D203F0DFF8417900298A
:10491000F4D09621490041188A79002ED4D17548E7
:10492000006805F032FF744909788842E6D2012018
:10493000F2BD0000A071002087710020FEB50700C5
:1049400002D1002002F077F86C480068804701909F
:10495000A3204000385C07F05EFFB86E002831D01D
:1049600080240EE001000F31827B895C032906D090
:10497000C17B214203D0A6490A78521C0A7007F075
:10498000B0FCB86E001DFEF7DFFD0028EAD1B86E5E
:104990000C30FEF7D9FD002810D001000F31827BCA
:1049A000895C032907D0C17B214204D0984909784A
:1049B000491C974A117007F094FCE8E7B86E00684C
:1049C00009F05BFB934800789349087093480068AE
:1049D000B9791C225143411800228A60B9791C22FE
:1049E000514341180022CA600021BA791C235A435E
:1049F0008150B9791C2251434018002141601B4865
:104A00000078012817D1386F002814D009F035FB41
:104A1000834809F032FB834809F02FFB0024824DC4
:104A2000A0002E18306807F05CFC00203060641C89
:104A3000042CF5DB2884764C207800280AD0B9793C
:104A40006A46118069464880921C012003F0ECF808
:104A5000002020703800FFF782FB380004F0F0FDE2
:104A60000198724909688847F7BD00008C0700204B
:104A70007581002038B505000C00002D01D101F032
:104A8000DAFF2100A87903F06FFE280003F021F877
:104A900004F0A8F831BD082809DA0A0007D04A1E38
:104AA000114204D1624A101842788A43427070471A
:104AB00010B5002000225E494B1CD4B21855521C80
:104AC000D3B2082BF8DBD0224A7230228A727822C5
:104AD000CA7208220A7310224A738873C873087452
:104AE000FF2048708878492202438A7010BD000078
:104AF000140B0020247D002066810020100500207A
:104B000080B50020009002F077FA6946087002F044
:104B100073FA6946487002F06FFA69468870009827
:104B200002BD0300884207D21000814202D39342A3
:104B3000804107E0002070471000834204D3914277
:104B40008041C043C00F70470120704770B504001A
:104B50000D002889A98807F06AFC0600E6812889EB
:104B6000A98807F064FC002900D0761CE68170BD9E
:104B7000F0B50400668EFA273F023800310007F0D6
:104B800056FC05003800310007F051FC002900D028
:104B90006D1C7C202552F0BDF8B50D001E4E1C4F3B
:104BA000040013E002000F32837BD25C032A07D09B
:104BB000C07B000604D5491C39703078401C307029
:104BC000A06E001D09F063FA07F08BFBA06E406831
:104BD0003978002802D0027A022AE3D0002915D0C1
:104BE000A9480078814205D2012D0FD1A74800784D
:104BF00000280BD0A0796A46108068464180921C3C
:104C00006946012003F010F800203870F1BD000063
:104C1000B671002085710020BC7100202077002033
:104C2000147700200C770020FC760020140500206B
:104C300078070020F8B50600080017001D001421B1
:104C400007F082FB04001230002D01D1022100E0A8
:104C50000121069B3A0035000170461C3270701C21
:104C6000002727720327A773E77BDB003B43E3732F
:104C7000931DA3816723EB5C012B12D19423EB5C82
:104C8000002B09D033781B1D3370A3891B1DA38112
:104C90000300280002F0F6FA2100A86E0AF036FBA5
:104CA00004E02100A86E0C3009F005FA0020F2BDE6
:104CB00038B504009420205C012801D001F0BBFE2F
:104CC0000120FBF7E5FB002815D014380500012270
:104CD0000121FEF7DAFC122028752B001433012283
:104CE0000321200002F0CEFA2900A06E0AF00EFB8C
:104CF0000020E083012032BD38B504009420205C00
:104D0000012801D001F097FE0120FBF7C1FB00282C
:104D100015D01438050001220121FEF7B6FC13203E
:104D200028752B00143301220321200002F0AAFA77
:104D30002900A06E0AF0EAFA0020E083012032BDCB
:104D4000F8B505000F0038001638012802D9801E7A
:104D500002D03EE0032400E005242000FBF798FB8E
:104D6000002836D01438060094202A5C2100300038
:104D7000FEF78BFC3775CC2040002818163F012F1A
:104D800002D9BF1E05D024E0C1787175C078B07516
:104D90000EE0C1787175C178B1750188002902D023
:104DA0002A89891801800188F1750088000A307607
:104DB0009420285C002806D03300143322000321FD
:104DC000280002F05FFA3100A86E0AF09FFA012075
:104DD000F2BD0020F2BDF8B506000F000920FBF778
:104DE00057FB002833D0143805009420325C092189
:104DF0002800FEF74AFC2F75B62040003418608862
:104E000068756088000AA875E088E875E088000A7F
:104E10002876208868762088000AA876A088E87618
:104E2000A088000A28779420305C002806D02B0048
:104E3000143309220321300002F024FA2900B06E55
:104E40000AF064FA142F01D11B20E0840120F2BD86
:104E500070B50300F933C14C8025ED011E7A760749
:104E600007D5B2235B00C31819705A7000F0BCF864
:104E700002E01A70FEF7C4FD002803D12900207853
:104E800001F000FC70BD0000B7710020B871002077
:104E9000F8B506001820FBF7FBFA00284DD01438AF
:104EA0000400370094373A781821FEF7EEFB0F2004
:104EB0002075A62040003018018861750188090A14
:104EC000A1754188E1754188090A2176818861765A
:104ED0008188090AA176C188E176C088000A207716
:104EE00000256577A577E577FF20202160542121F3
:104EF00060542221605423216054242160542521D0
:104F000060542621605427216054282160542921AF
:104F100060542A2160542B2160543878002806D030
:104F20002300143318220321300002F0ABF92100D2
:104F3000B06E0AF0EBF9F5830120F2BDF8B506007A
:104F40001820FBF7A5FA00284DD0143804003700CC
:104F500094373A781821FEF798FB10202075A62088
:104F600040003018018861750188090AA1754188DF
:104F7000E1754188090A2176818861768188090A6C
:104F8000A176C188E176C088000A20770025657780
:104F9000A577E577FF20202160542121605422214C
:104FA000605423216054242160542521605426211B
:104FB00060542721605428216054292160542A21FB
:104FC00060542B2160543878002806D02300143315
:104FD00018220321300002F055F92100B06E0AF0CA
:104FE00095F9F5830120F2BD70B504000320FBF7AD
:104FF0004FFA002821D01438050026009436327864
:105000000321FEF742FB11202875B2204000201832
:10501000017869754078A8753078002806D02B0093
:10502000143303220321200002F02CF92900A06E82
:105030000AF06CF90020E083012070BDF8B504008F
:10504000A07902F02DFD00282CD1AA4800688047E5
:105050000700A0204000261801257079012809D1F9
:10506000A07902F0FBFF307901280BD0002001F07D
:10507000E2FC07E03079002804D1357112212000CC
:10508000FEF7B1FD707945407571A32040002318EB
:10509000306842082100984807F07BFB3800C0497F
:1050A00009688847F1BDFEB5002502900F00160083
:1050B00016E0102008E02200390001F07FF93F19C6
:1050C000361B3004F5D0002029006D1CCBB2002B1C
:1050D00000D001230090220001990298FFF7AAFD59
:1050E000B0B2002812D00298C9214900445AB0B287
:1050F000844200D90400E4B2200007F02FFC0190A4
:105100000028D8D1812002F0D3FE0720FEBD70B563
:105110000024D522520085182A88A24BA24E368838
:10512000964203D26A8899788A2004E08A4205D29E
:105130006A8899788B2002F078FF0DE0D821490029
:1051400045181000FBF7B0F92860002801D00124B1
:1051500002E0812002F0ACFE200070BD86710020CC
:10516000FEB582B001210091C0B202F0AEFC019008
:10517000684686890198D421490044180025A07901
:10518000012802D0022864D0B2E002276846007CE1
:10519000022808D16580A5802580A771A06807F046
:1051A000A0F8A56059E02088022811DB62888119E7
:1051B0008A420DDA65802580A771A06807F091F812
:1051C000A560A288774881788B2002F02EFF86E0C8
:1051D000012817D1002E15D00298007800026188AE
:1051E0000143091D6180032E06DD02984078029973
:1051F000897809024018A080684681890198FFF7E4
:1052000086FF0090A068002872D0009901296FD114
:1052100069468A8902992388C01801F0CFF820884E
:105220006946898940182080628880B290425FD1A7
:1052300001987421405C40B200906846037CA168EC
:10524000584880780AF0C0F86580A5802580A7714D
:105250004EE06846007C02284AD1684680890028D2
:1052600003D18C2002F024FE42E0684680890128A8
:1052700004D1208002990978618038E00298407852
:105280000002029909780843001D6080032E06DDA4
:10529000029880780299C97809024018A08068466F
:1052A00081890198FFF733FF0100A06800281FD013
:1052B00001291DD169468A89029901F07FF8628827
:1052C0006846808990420CD101987421405C40B2BC
:1052D00000900223A168334880780AF075F8A58011
:1052E00006E0208869468989401820800120A07145
:1052F00005B0F0BD100500203D500000F8B50400D9
:105300002068017840294AD1E18B002947D0A04983
:105310000978012943D14668AE480068804700906B
:1053200008F0F2FE618E891CAB4A51434718A07900
:105330001C49897888422BD13900F06908F0E8FED1
:10534000002828D004F0C7F905000121300005F03D
:1053500047F929693800401AC0469F4D618E69435C
:1053600007F068F82189091861812168096980B20C
:10537000628E504368430818F0613920205C382160
:1053800060542000FEF7F0FC00200AF077F802E0FD
:1053900020680069F0610098014909688847F1BDFB
:1053A000140500208C07002090710020FDB582B00C
:1053B0000C000B98002300210025884A6E00865BB4
:1053C000964201D0491CC9B26D1C062DF6DB0AE0DD
:1053D0007F1CFDB28D4205DA009E36886D00455B6C
:1053E000AE42F5D15B1C8B420ADA5D00455B95420B
:1053F0001BD05E0086190096AC4216D35F1CE8E70E
:1054000013D1002913D068460089A04205D0684610
:10541000007C010009D0844207D30A986946898933
:10542000401A80B26E49884201DB012000E0002072
:1054300005B0F0BDFEB50C006A49A51F8D4238D2FB
:1054400015002E00B21F8A4233D2A54231D3FA2171
:1054500049008B422DDA08990A000A3A624FBA4293
:1054600027D25F1C6A007A43C9008A4221D2009089
:105470009421405C002809D00098AC3140580A21A2
:1054800006F0D8FFC0007743B84212D32900009835
:1054900000F080F801280CD00A9B099A0C98019022
:1054A0006846808D009029002000FFF77FFF0128CB
:1054B00001D10120FEBD0020FEBD10B5002B01D0A2
:1054C000042400E00024022802D0042805D014E0BF
:1054D0005000C008001B0B3812E0022901D108213E
:1054E00000E002211B204843101A404A8018C900DE
:1054F00006F09DFF001B801E02E0D008001B0A384A
:1055000080B210BD002B00D00423D218012802D095
:10551000022804D010E00B32D00040087047002968
:1055200000D10820921C4243D1001B22504308188E
:10553000BC214900401870470A32D000704710B5AE
:10554000B821490041184A890B88934200D21A00B9
:105550004A83CA899201F4239B00D2184B8A934252
:1055600000DA1A00438E224C63439A1A96235B009A
:10557000D21A5E33C35A90B2834200D90300180096
:105580001C4CA04200DA601ECB828A8210BD000053
:10559000B9710020184A93781B0719D5BF235B0007
:1055A000C018037F042B13D15278920610D50288BD
:1055B0009201F4239B00D2188088904200DA020006
:1055C0000E4848430E495118884201DA01207047BD
:1055D0000020704710050020C4090000FFFF0000F4
:1055E000FF7F00007B0C0000770C000088FEFFFFAF
:1055F00071020000910A000078070020E204000018
:10560000BC0B000001000BD0410701D504207047FE
:10561000C10701D501207047800701D502207047DE
:1056200000207047F3B583B04D0802E0E80F401941
:1056300045102FD069460D7018E03878A055761BBC
:10564000F6B2AE420ADB701B2718387802F03DFA3A
:10565000029900684068C0698142EED303940198C2
:10566000A05568460078401C694608706846007876
:10567000097C8842DAD26846067803988419207833
:1056800002F023FA00684068C06921780191039C08
:105690000290D6E705B0F0BDF8B584B004000F0065
:1056A000206840680090C06908F032FD002800D0F2
:1056B00011E1206801693800401AC04606008220C6
:1056C000205C002800D191E02189200082304088B0
:1056D000401E80B2401A80B205008220205C022861
:1056E00004D19C2040002018008E00E0608E6843AA
:1056F0000190206800690199A44A5143411838007B
:1057000008F006FD002849D06D1C03958220205C1E
:10571000022804D19C2040002018008E00E0608EFA
:1057200001990818019003980290002520680069EB
:105730000199964A51434118380008F0E9FC0028C5
:105740001ED00198924948433518200082300089C4
:1057500069460881684600898C4F47432800390014
:1057600006F068FE06002800390006F063FE0029F6
:1057700000D0761C6846058975430398801902900D
:105780002089029940186081200082300199C288E6
:1057900089184D19007801283DD123E0608E7B4F98
:1057A00047433000390006F045FE0500300039005F
:1057B00006F040FE002900D06D1C20894019608150
:1057C000ADB2618E4D4321680978402923D1210073
:1057D00082310A78012A1ED14A8880B282421AD1C7
:1057E000C8882D18200000F085F814E0608E674FFF
:1057F00047433000390006F01DFE05003000390037
:1058000006F018FE002900D06D1C20894019608127
:10581000ADB2608E4543266830695C4969434018E3
:105820000099C8618E4F3178802910D1F06038001E
:105830001030FDF7E3FD618E00684843642106F0F7
:10584000F9FD52494843874940180099C885307886
:10585000402836D1A5619C2040002018C08882498C
:10586000401845432800C821490006F0E3FD401CCC
:1058700060610099C969091A009AD1619C214900A7
:105880006158400008180099C885404D8220205C6E
:10589000022807D10098C08D2E21615C6943401811
:1058A0000099C88538001030FDF7A8FD618E0068AA
:1058B0004843642106F0BEFD68436A4940180099D8
:1058C00088620098C069B0603920205C382160543B
:1058D0002000FEF749FA6189A089401A80B29C2114
:1058E00049006118C885E289824200D20120C8853A
:1058F00005B0F0BD38B5040021008631FFF726F968
:10590000250082356889608400202077E0836089E3
:10591000E1894018A0812889618E884207D1A88931
:10592000E18E884203D16889A18E884206D0E220A8
:1059300040002018017808220A430270608EB421CA
:105940004900605228792E21605428896086688930
:10595000A086A889E0862000FFF70AF902202870B7
:1059600031BD80B502F0A4FA01BD0300080003E0D8
:1059700001781970401C5B1C11004A1E0906F7D102
:105980007047624B18609A8099717047C409000093
:105990003CF6FFFFF3B581B014005C4800680028B6
:1059A00055D05A488088A279904202D058498842FE
:1059B0004DD156488079FF272189002903D1C1079D
:1059C00001D501260BE0CD21490061184979012953
:1059D00002D10226304202D1FF2838D1FF262020F2
:1059E00006F020FC050032D0684600896946097936
:1059F0002970A17969803A21615C2971CD21490022
:105A0000615C69717421615CA971288190204000FA
:105A1000205A68812089A882206800698008A861CE
:105A20002E7703F058FE060003D12F730020C043E9
:105A300008E03078287308F067FB0100B068401A6E
:105A4000C046800828612800304909688847CD2071
:105A5000400020184179012901D100214171F7BD91
:105A60001427030050FBFFFFDC05000038B57B4C1A
:105A700020680025417E002924D10C2006F0F8FA88
:105A80002068006A002804D005702068006AFBF7CF
:105A900017FE2068006A00280FD0017942791206AB
:105AA000120C114309D0012505702068416920209E
:105AB00006F097FB2068457631BD0021072006F0EF
:105AC000D7FA31BD0221017600210D2006F0D0FA6F
:105AD000206845762068016A497802290ED1C0699C
