:1000000000400120E1520200611202006112020070
:10001000611202006112020061120200611202000C
:1000200061120200611202006112020061120200FC
:1000300061120200611202002112020070B5044632
:100040000D4603F0F0F92968002639B119B10A69A3
:10005000A24208BF0E4609680029F7D103F008FA4A
:10006000304670BDDFF8041891F833000022030613
:1000700003D4582042438818704791F88B0001221E
:100080000306F6D591F8E30002220306F1D591F8B4
:100090003B0103220306ECD591F8930104220306E9
:1000A000E7D591F8EB0105220306E2D591F843026A
:1000B00006220306DDD591F89B0207220306D8D558
:1000C000002070472DE97043064614461D4603F094
:1000D000AAF96EB1D6E90A2322432B43C6E90A23C3
:1000E000D6E9088948EA040449EA0505C6E908454D
:1000F000BDE8704303F0BCB930B581B004460D468D
:1001000002F03EFCA04231BF241A641E241A641C73
:10011000A40805F57A70A04238BFB4F1405F06D25A
:10012000641B012C98BF0124204601B030BD002083
:1001300001B030BDF0B5DFF8343704460025D3F800
:100140005003012981B024D100E00068002852D07A
:10015000C668377B07F00F07022F1AD00068002807
:1001600049D0C668377B07F00F07022F11D000680F
:10017000002840D0C668377B07F00F07022F08D051
:100180000068002837D0C668377B07F00F07022FBA
:10019000DBD180B3012502B11060C268167B06F086
:1001A0000F06022E27D1012904D10169CA68898D61
:1001B000511813E0118840F6030291421CBF40F62B
:1001C0000406B14207BF01694A6901690A69498B9E
:1001D000561893F82213192212FB0161406BFFF7A6
:1001E0008BFF20600A20C0462168B1FBF0F0206040
:1001F00001B02846F0BD0020206001B02846F0BDC7
:10020000F0B581B0044603F00EF90546002C1CBF82
:10021000A07A002833D0DFF8583694F909001E6818
:100220000122F70702FA00F10ED5DFF848361E6802
:10023000370609D5DFF840365E68113002FA00F063
:10024000C04306405E6018600020A07220722060EB
:100250006060C4E90400DFF81436A06194F9090075
:1002600093F820638240324393F8220383F82023DB
:1002700010B1401E83F82203C8B200F062F928468C
:1002800001B0BDE8F04003F0F3B800002DE9F047FD
:1002900000261124DFF8E055DFF8D0954FF0010873
:1002A000F0B2032848DA09EB401000F53077B97A4C
:1002B000012941D197F90900113008FA00F0C14332
:1002C00029606A681043686097F9090008FA00FA23
:1002D00003F0A9F899F894134AEA010A89F894A35B
:1002E00003F0C6F899F88403022817D107F110002B
:1002F00005F008F900F0FF0001280FD1B86948B1F6
:1003000099F88413022909D105F0FCF800F0FF00E8
:10031000012803D10220B8720EE000BF99F8210332
:1003200097F9091004FA01F1084389F82103002123
:1003300009F5826003F010F9761C032EB0D3BDE8F6
:10034000F08730B5042881B020D1DFF8204504F5CE
:100350008D60007DC046C8B10A20C046054604F540
:100360008D6003F02CF84543B5F5967F0ED204F569
:100370008D6003F02FF8052005F0B9FA012084F80C
:100380009103042104F56E7003F0E6F8002001B03B
:1003900030BD70B5044603F046F8DFF8D06405467A
:1003A00096F84C0320EA040486F84C430024D6F85F
:1003B000280320B1B830007DC04600B10124D6F832
:1003C0002C0320B1B830007DC046044319D196F803
:1003D0004C03002808BF002C13D1D6F8480380B185
:1003E00090F828108A070CD5446A284603F040F894
:1003F000D6F8480300220221A0470020C6F848038F
:1004000070BD2846BDE8704003F032B8F0B4002952
:100410000CBF01230023002A0CBF01250025002862
:1004200039D02C0004BF90F84440002C33D0002970
:100430001CBF91F84440002C12D0446B0E6C07692D
:100440000969A408A4EB96040026B94218BFFE6807
:10045000A41B04F18054B4F1805F88BF012301D84C
:10046000190018D0BAB1D1680C7B04F00F04022C2B
:1004700011D1516B046C126900698908A1EB9401D8
:100480000024904218BFD468091B01F18051B1F1DA
:10049000805F88BF01252B40F0BCD8B27047F0B513
:1004A00081B01E466FF002078DF800700546346873
:1004B0002246FFF7ABFF10B101208DF800009DF937
:1004C0000000B84201BFE968087B00F00F00022875
:1004D0000CD100E024684CB1226821462846FFF781
:1004E00095FF0028F6D002208DF800009DF900103D
:1004F000B94204D1E86B10B104218DF800109DF9C8
:100500000070012F06D12946304605F0EDFC384633
:1005100001B0F0BD022F09D12268002A29463046D9
:1005200008D005F0BEFC384601B0F0BD042F03D161
:100530002946304605F0C8FC384601B0F0BD002021
:10054000704730B581B0044602F06DFF0546C748DC
:1005500090F8941321EA040480F8944390F89423CB
:10056000110704D4082100F56E7002F0F5FF28464B
:1005700001B0BDE8304002F07BBF2DE9F04F0646E8
:1005800081B0002030600024DFF8E092D9F85003F9
:1005900018B3C1680A7B012402F00F02022A1CD1A1
:1005A0000A88192140F603039A421CBF40F604054D
:1005B000AA4219BF0269136902695369528B406BE1
:1005C0009A1899F8223311FB0321FFF795FD054690
:1005D0000A20C046B5FBF0F801E04FF00008002506
:1005E0004FF0FF3A0027F8B203281EDA09EB40115A
:1005F00001F53072907AC0B1107A0125022825D019
:10060000D9F898030169408B99F822330918192009
:1006100010FB03115069FFF76FFD83460A20C046A7
:10062000BBFBF0F0504598BF82467F1C032FDAD306
:10063000E3B230682B420CD0D0450BD9D0464046AF
:1006400030602C43E0B201B0BDE8F08F4FF0000AFB
:10065000EEE734B1404630602C43E0B201B0BDE873
:10066000F08F05B1504630602C43E0B201B0BDE8D8
:10067000F08F2DE9F04FDFF8F4A181B09AF88413E0
:10068000022905D101B0BDE8F04F192002F0DEBE0D
:100690009AF8840301281CBF9AF88403042800F008
:1006A000878002F0C0FE00900024DAF85003002595
:1006B00018B3C1680A7B012502F00F02022A1CD17F
:1006C0000A88192140F603039A421CBF40F604062B
:1006D000B24219BF0269136902695369528B406BB8
:1006E0009A189AF8223311FB0321FFF705FD0646FD
:1006F0000A20C046B6FBF0F800E0A04600264FF006
:10070000FF390027F8B203281EDA0AEB401101F581
:100710003072907AC0B1107A012602281DD0DAF822
:1007200098030169408B9AF822330918192010FBAD
:1007300003115069FFF7E0FC83460A20C046BBFB6B
:10074000F0F0484598BF81467F1C022FDAD9354228
:1007500005D044464C4507D905E0A146F7E70DB161
:10076000444601E006B14C46354317D064B12146FA
:10077000012998BF01210AF58D6002F027FE0AF5D4
:100780008D6002F025FE0DE00AF58D6002F022FE7C
:1007900004210AF56E7002F0DFFE03E00AF58D60B9
:1007A00002F018FE009801B0BDE8F04F02F060BE04
:1007B00001B0BDE8F08F30B585B00146002203924C
:1007C00001920492029240F602058C68487E628093
:1007D00023885B1B09D041F21E055B1B05D041F647
:1007E000E6755B1B012B0FD91CE0238A4FF6FF3205
:1007F00013402382002819BF4FF60F4003402D20DD
:1008000060F3091323820DE0238B4FF6FF32134070
:100810002383002819BF4FF60F4003402D2060F3BB
:10082000091323830020487602AD009504AB01AA8A
:1008300003A9204601F083FD50B1039801884FF6CB
:10084000FF72914204D10299019801F0EAFC03E0A1
:100850000299019801F02BFD0448D0F8AC1309B1BE
:100860000198884705B030BD00000000502F0020DF
:100870004021084000000440081004402DE9F047E2
:1008800084B00026DFF838890396D8F850530296D2
:10089000002D6AD0D8F86403002804BFD8F860039C
:1008A000002841D1012686F0010703AAF9B202A867
:1008B000FFF740FC04005AD1DFF80809D0F8049093
:1008C000B9F1000F18BF002C00F0828202980028B6
:1008D00040F07E82D8F8641303980190009708F5E1
:1008E0005673D8F8600308F55472C847012800F021
:1008F0007A81022840F06C82D8F86003D8F860133F
:10090000B0F930400D6902F08EFD4FF0FF318C429E
:1009100082464CD1D8F8600300283CD00069A84238
:1009200039D1D8F8606390E0D8F860030028BAD0D5
:10093000D8F86003016928698142B4D195F8331071
:10094000CA06B0D5D8F864030028ACD15FF0010620
:10095000D8F86003C16848880028F9D0D8F8600347
:10096000C16848880128F3D09DE70221BCE2002E2F
:10097000A2D1029800289FD00146022938BF012148
:1009800008F58D6002F022FD08F58D6002F020FD73
:1009900004B0BDE8F087D8F8640328B10069A84224
:1009A00008BFD8F8646350D0D8F850634DE0B8F968
:1009B00030000021A04204BFD8F81000A8423FD068
:1009C000B8F988000121A04204BFD8F86820AA42E3
:1009D00036D0B8F9E0000221A04204BFD8F8C00028
:1009E000A8422DD0B8F938010321A04204BFD8F89D
:1009F0001821AA4224D0B8F990010421A04204BFD2
:100A0000D8F87001A8421BD0B8F9E8010521A0422E
:100A100004BFD8F8C821AA4212D0B8F94002062172
:100A2000A04204BFD8F82002A84209D0B8F9980221
:100A30000721A04204BFD8F87822AA4240F0D18012
:100A4000582010FB01F108EB0106002E00F0C980D0
:100A500096F83300010640F1C480D8F8600386425E
:100A60001CBFD8F864138E4257D0D8F8504312E018
:100A70002468002C00F0B580B44211D02468002C0A
:100A800000F0AF80B4420BD02468002C00F0A980A5
:100A9000B44205D02468002C00F0A380B442E7D112
:100AA000276800953546002600E0276820690099F0
:100AB00088421FD100224FF080532046FFF702FBEF
:100AC00000224FF080732046FFF7FCFA98F84C1391
:100AD0002869C8F8480341F0010188F84C1308F56B
:100AE0005470214605F013FA214608F5567005F0BA
:100AF000EBF9761C3C00D8D1002E1FBF98F8840378
:100B0000012898F8840304286BD0DFF8FC1808F556
:100B10006E7002F021FD504686E1D8F86003002295
:100B20004FF00053FFF7CEFAD8F8640300224FF0DD
:100B30000053FFF7C7FADFF8D40804F0E3FCD8F855
:100B4000600300224FF08073FFF7BCFAD8F864030B
:100B500000224FF08073FFF7B5FA98F84C13306914
:100B6000D8F85063C8F8480341F0010188F84C13E5
:100B7000344600E02468A4B3B4420BD0246884B3A4
:100B8000B44207D0246864B3B44203D0246844B3A9
:100B9000B442EFD12CB327680CB32069A8421ED110
:100BA00000224FF080532046FFF78CFA00224FF0CE
:100BB00080732046FFF786FA98F84C133069C8F81E
:100BC000480341F0010188F84C1308F554702146A0
:100BD00005F09DF9214608F5567005F075F93C00C1
:100BE000D9D1504620E1039800B10546B5F930400F
:100BF0002F6902F018FC4FF0FF318C42064614D1E9
:100C0000D8F8600328B10069B84208BFD8F860433B
:100C100059D0D8F8640328B10069B84208BFD8F8A1
:100C2000644350D0D8F850434DE0B8F9300000216B
:100C3000A04204BFD8F81000B8423FD0B8F98800ED
:100C40000121A04204BFD8F86820BA4236D0B8F9D2
:100C5000E0000221A04204BFD8F8C000B8422DD065
:100C6000B8F938010321A04204BFD8F81821BA42CC
:100C700024D0B8F990010421A04204BFD8F8700133
:100C8000B8421BD0B8F9E8010521A04204BFD8F84A
:100C9000C821BA4212D0B8F940020621A04204BFCE
:100CA000D8F82002B84209D0B8F998020721A0422A
:100CB00004BFD8F87822BA4240F08880582010FB50
:100CC00001F108EB0104002C00F0808094F833005F
:100CD00001067BD5D8F8600384421CBFD8F86413A2
:100CE0008C424AD0D8F850032546044600E02468D8
:100CF000002C6BD0AC420ED02468002C66D0AC42E5
:100D000009D02468002C61D0AC4204D02468002CA7
:100D10005CD0AC42EBD12169B94257D100224FF0EF
:100D200080532046FFF7CEF900224FF08073204613
:100D3000FFF7C8F998F84C132869C8F8480341F040
:100D4000010188F84C1308F55470214605F0DFF8CE
:100D5000214608F5567005F0B7F898F88403012885
:100D60001CBF98F88403042830D0DFF89C1608F5DF
:100D70006E7002F0F1FB304656E0D8F860030022B6
:100D80004FF00053FFF79EF9D8F8640300224FF0AC
:100D90000053FFF797F9DFF8740604F0B3FBD8F8B7
:100DA000600300224FF08073FFF78CF9D8F86403DA
:100DB00000224FF08073FFF785F998F84C132069F3
:100DC000C8F8480341F0010188F84C1330462BE085
:100DD000002E00F08D802869D8F89813884218BF3B
:100DE0004FF4806140F08080002C1CBF02980028E6
:100DF0001FD0D8F86003002804BFD8F86403002887
:100E000017D102F010FB044698F8940300F0F700A5
:100E100088F8940398F89403010704D4082108F58E
:100E20006E7002F099FB204602F022FB04B0BDE890
:100E3000F08702F0F8FA98F8941341F0080188F866
:100E4000941302F015FB95F83300C10608F55470B1
:100E500004D505F014F8C8F8640303E005F00FF8B2
:100E6000C8F86003D5E90601DFF88848DFF85C6A56
:100E7000C043A060E268D5E906010243E260D5E91B
:100E80000623DB432360D4F804C0D5E9060141EA18
:100E90000C0CC4F804C07768EC683B46180007D017
:100EA000307A010704D5D8F898032A4608219847D4
:100EB000204604F027FB208840F60201401A08D0A3
:100EC00041F21E01401A04D041F6E671401A012891
:100ED00008D83FB1307AC10704D5D8F89803224624
:100EE0000121B8474FF0804108F56E7002F034FBE5
:100EF00004B0BDE8F087F0B5DFF8C462DFF86C0934
:100F000081B0D6F8605304F0AAFB0446DFF8C009AC
:100F10000268076802F0200207F46027224018BF29
:100F2000002D0CD01346C6F8685300222846FFF760
:100F3000C9F84FF4804106F56E7002F00DFB3C409D
:100F40000DD096F8210340EA544486F8214306F573
:100F5000826001B0BDE8F040002102F0FDBA01B0AE
:100F6000F0BD2DE9F043DFF8589281B099F82103E4
:100F7000002400284CD099F821030026C1073DD554
:100F800099F821031021B140084218BF012402F052
:100F90004AFA99F821131122B240914389F821139A
:100FA00002F066FA032E33DA09EB461101F53072CE
:100FB000907A68B392F90980DFF8181901EB88017B
:100FC000002C0D681668576804BF107A022803D1F8
:100FD000D2E90401C30009D41046FFF711F92CB17E
:100FE0000020009000224FF0007303E000950022E3
:100FF0004FF0006341463046B84709E099F82103B5
:1010000001268107BCD499F8210302264107B7D4F1
:1010100099F8210338B109F5826001B0BDE8F043C9
:10102000002102F099BA01B0BDE8F0832DE9F04348
:101030000FF23C1285B0D2E90034CDE900344FF410
:10104000804004F059FA4FF0000800B3DFF8880838
:10105000D0F813100078C1F31501800841EAC0717F
:10106000DFF85C01D0F89833986802AA01F0FAF929
:10107000DFF84C01DFF85418D0F898034B68826809
:101080001C0004D00C7AE10744BF012198476E464A
:101090004FF0020937683868002856D03868D0E920
:1010A000060104F029FA3D680021CDE90201044659
:1010B00002F0B9F984467DB1D5E90A23DDE90201E0
:1010C00010431943C5E90A01D5E90823DDE9020106
:1010D00010431943C5E90801604602F0C9F914F04C
:1010E0000A0F2BD03868DFF8E817DFF8F0378A6886
:1010F000DFF8DC47D0E9060118408243A2602246AF
:1011000038681368D0E906018B4313603A68DFF84A
:10111000BC074368190007D0017AC80604D5284CDB
:10112000D4F89803102198473968DFF8B40704F021
:10113000CBFE0020386048F0020806E02CB1386889
:101140001F49C1F8680348F48048361DB9F1010908
:10115000A0D15FEA08011CBFDFF8880702F0FCF9A4
:10116000FFF794F8FFF78AFB05B0BDE8F0830000B5
:10117000B0320020B432002030B5114C81B0B4F947
:101180006C03B4F96E13884217D102F04CF905468E
:1011900094F8940300F0F70084F8940394F894030F
:1011A000010704D4082104F56E7002F0D5F9284631
:1011B00001B0BDE8304002F05BB901B030BD0000C5
:1011C000502F00203C1F00200720FFF7E2B82DE938
:1011D000F04107468846D7F8A86014461D4606B178
:1011E000B047D7E9280104EA000215EA010308BF65
:1011F000002A00F08580DFF8EC1CB1F930000026F1
:10120000404504BF0869B84203D191F83300000695
:101210005CD4B1F988000126404504BF886EB8420D
:1012200003D191F88B00000650D4B1F9E0000226FA
:10123000404504BFD1F8C000B84203D191F8E300A3
:10124000000643D4B1F938010326404504BFD1F864
:101250001801B84203D191F83B01000636D4B1F928
:1012600090010426404504BFD1F87001B84203D173
:1012700091F89301000629D4B1F9E801052640450B
:1012800004BFD1F8C801B84203D191F8EB010006C0
:101290001CD4B1F940020626404504BFD1F8200213
:1012A000B84203D191F8430200060FD4B1F9980275
:1012B0000726404504BFD1F87802B84203D191F81F
:1012C0009B02000602D4C7E92C2310E0582010FB33
:1012D00006F6C7E92C238819D0E9084524EA02025A
:1012E00025EA0303C0E90823D7F8A810816000208D
:1012F000C7F8A80007F15000BDE8F04102F0ECB8D3
:10130000BDE8F081704700B581B002F019F9DFF84F
:10131000D42B0146D2F89803D2F8882301B05DF8A7
:1013200004EB1047DFF8BC0B0FF2BD52D0F8881366
:10133000914208BFFFF79DB9042100F56E7002F0DD
:101340000BB930B581B04FF0FF3004F0D5F8DFF8BD
:10135000945B0FF295510446D5F88803884232D148
:101360000022DFF8841B05F57D7002F071F8022081
:1013700085F88403D5F898138A6801F1380300E0F2
:101380000246506890B198421EBF0246506800283D
:101390000CD098421EBF02465068002806D09842E2
:1013A0001FBF0246506800289842E9D1507B10F0D8
:1013B0000F0F02BF488F40F60901884203D0FEF7A5
:1013C00065FFFFF75BFA1048044208D005F56E7020
:1013D00001B0BDE830404FF0005102F0BDB801B09F
:1013E00030BD00B581B04FF0FF3004F085F88007C4
:1013F00008D501B05DF804EB4FF40061DFF8E404B8
:1014000002F0AAB801B000BD0200004001000104D2
:101410002DE9F041DFF8CC7AD7F85863002E00F0C0
:10142000AD80F068082140F6040240F6030301E0B5
:101430004068491E68B1CCB25CB104889C4218BFB8
:101440009442F5D1316901F138021AC81AC21AC89A
:101450001AC2D6E90A450022C6E90A22B068D0B10C
:1014600015F0E24310D024F00F0235F0E24308BF3C
:10147000002A05D0B6F930103069D6F808C0E04728
:1014800004F0000405F0E245B6F930103069224658
:10149000B4682B46A04701F0C6FF0446B7F86E03B8
:1014A000401CC0F30B00A7F86E036FF00201002090
:1014B00086F83300318607F5567004F0E0FC2046CC
:1014C00001F0D6FFB7F96E03B7F96C13884255D116
:1014D000D7F89813D7F82863D7F82C4300250520B0
:1014E000A84600291EBF91F8FC1000290720FEF72E
:1014F00050FF2EB196F8FC0000B9356886F8FC80E4
:101500003CB194F8FC0008B9D4F80080002084F8BD
:10151000FC00454538BF4546E5B9B7F96C03B7F956
:101520006E1388422AD101F07EFF044697F8940397
:1015300000F0F70087F8940397F89403010704D4A8
:10154000082107F56E7002F007F82046BDE8F0416B
:1015500001F08EBF15F1010F10D001F02EFFB5FB89
:10156000F0F1012998BF012107F2AC4001F02EFFF4
:1015700007F2AC40BDE8F04101F02ABFBDE8F081C0
:10158000DFF8602992F884130020022904BFD2F802
:101590006013002903D1D2F8641301B90120704708
:1015A00070B5DFF8401C0446DFF83809D0F89C63BA
:1015B00008682568026B9047864231BF861B401E33
:1015C000861B761C360BAE423CBF75196E0840F682
:1015D000C410864288BF064604D8B6F5967F38BF49
:1015E0004FF49676266070BD30B50D46A80781B0E1
:1015F000DFF8F04812D5FFF70BFFD4F8580340B1DD
:1016000045F0020104F56E7001B0BDE8304001F014
:10161000A3BF01B0BDE83040FFF72BB8680767D51E
:10162000012184F89613042004F061F9DFF8B40B6B
:1016300001680A6B9047C4F89C03D4F8500398B132
:101640000569D4F89803002818BFA8420AD095F875
:101650002800410704D56B6A0022042128469847D8
:1016600001206876C4F89853D4F898034168DFF8ED
:10167000780B0A780260022004F039F9102004F097
:101680004BF9012084F884039049887810B90D2023
:1016900004F042F9D4F8980341688868002804BF30
:1016A000C868002806D0DFF8440BDFF8442B00217F
:1016B000C16102600720DFF83C1B08600021DFF8F1
:1016C0002C0B4269416182698161426942F040228A
:1016D00042F0020242610FF22100C4F888031A208E
:1016E00001F0A2FE01B0BDE83040192001F09CBE1F
:1016F00001B030BD081004402DE9F04304468800D5
:1017000081B040F1B080DFF8DC87D8F898034168F9
:1017100048688E68CF68010018BF80473000DFF846
:10172000CC5A01D138000ED0E8690028FCD0002145
:10173000E961300018BFB047380018BFB847DFF87C
:10174000B80A03F0DFFE0020E86140F60A09DFF87E
:10175000AC1A2960A8F87093A8F8720398F87C1363
:1017600001F0F00188F87C13C8F87403204698F85B
:101770007D1301F0F00141F0010188F87D13FFF7BE
:101780001AF8A668374640F6040140F6030200E066
:101790000746786828B103884B451CBF93428B42AB
:1017A000F6D17B7B08F55C70786003F0F0037B7307
:1017B000D8F8500328B1C0680088904218BF88420A
:1017C0001CD0208FD0B100216187E16394F84500DF
:1017D00094F8441000F0F00040F0010084F8450057
:1017E00001F0F00184F8441004F13800C8F87403E3
:1017F00098F87D1301F0F00188F87D13E86900285E
:10180000FCD00021E9610FF2E10298F89103C8F8D9
:10181000882330B104F0D5F90028FBD004F0E2F9B8
:101820000EE0012004F0A1FB012809D0787B00F034
:10183000F00040F0010078730FF23500C8F888031B
:101840000021E9612E60DFF80C0C436819000AD012
:10185000007AC10707D5D8F89803324601B0BDE831
:10186000F0430121184701B0BDE8F08320000E00CD
:10187000DFF8E42B114200D1704710B5012004F0CD
:1018800074FB01280DD1DFF85C060FF25D01C0F892
:1018900088130022DFF85419CA6100F55C700860F3
:1018A00010BD0A20C0463221B1FBF0F1012998BFDA
:1018B0000121DFF8304604F58D6001F087FD04F565
:1018C0008D60BDE8104001F083BD0000FC520200B5
:1018D0000C1004409430044085030021FDBFFFFF3D
:1018E000A8320020083300202DE9F047044688463E
:1018F0005FEA484082B0DFF8EC952CD501F093FD0B
:10190000D9F8686316B3D6E90A2302F00A0413F083
:10191000E04508BF002C19D1D6E90A45D6E90A23CB
:10192000A243AB43C6E90A2301F0A2FDB06878B137
:10193000002D08BF002C0BD0B6F9301030692246BC
:10194000B4682B46A04728F48048BFE201F090FD20
:1019500028F48048BAE25FEA880040F18280DFF82C
:10196000FC0AD0F88C1041F08001C0F88C1099F876
:10197000960328B1042003F054FF002089F8960351
:1019800001F051FD0546042004F0EFFAD9F8B42324
:10199000014691421DD1207E00281CBFD9F89C032E
:1019A000002816D0D9F8600370B1C1680A8840F6E3
:1019B00003039A421FBFC068018840F604029142A7
:1019C00008BF04F1140001D004F11000FFF7E8FD96
:1019D00005E040F6C41020616061C9F8B4132846E0
:1019E00001F046FDD9F898138A6801F1380300E048
:1019F0000246506890B198421EBF024650680028C7
:101A00000CD098421EBF02465068002806D098426B
:101A10001FBF0246506800289842E9D1507B10F061
:101A20000F0F02BF488F40F6090290420FD1256A7E
:101A300000224FF000736FF480712046A847D9F858
:101A4000500310B1FEF715FE01E048F002082046F1
:101A5000E46900224FF080630021A04728F000587D
:101A600034E25FEA887009D5FFF7D2FCD9F8580351
:101A7000002840F02B8228F0020827E25FEA485055
:101A800040F1B48001F0CFFC0546FFF779FDD9F8AD
:101A90005043012840F0A480002C00F0A1800420D5
:101AA00089F884030022DFF8B81909F57D7001F088
:101AB000CFFC284601F0DCFC09F2AC4001F08AFCC6
:101AC000DFF8200701680A6B9047C9F8A0030120DE
:101AD00089F89603042003F00AFF2069C9F89803E7
:101AE00090F828104A0703D5436A0022042198473A
:101AF000D9F89803DFF8F45641688E684868CF68D3
:101B0000002E08BF002F04D00021E961DFF8E02695
:101B10002A6008B1C046C046002E08BF002F0CD076
:101B2000E8690028FCD00021E96106B1B04707B19F
:101B3000B847DFF8C40603F0E5FCD9F898030121A3
:101B4000417640F60A06FEF736FED9F898339A68D1
:101B5000114640F6040C40F6030E00E001464868CA
:101B600028B10788B7421CBF77456745F6D10020EA
:101B700048604E7B06F0F00646F001064E73E068C2
:101B80000088704518BF604503D10020C9F8A00344
:101B900015E0188F98B103F13800002444804460A8
:101BA000047B04F0F0040473447B04F0F00444F07C
:101BB000010444734860487B00F0F0004873002043
:101BC000E8612A60DFF88C08446821000BD0007AB5
:101BD000C10708D501211846A04728F4806875E19F
:101BE000284601F045FC28F480686FE15FEA08515F
:101BF00063D599F8960328B1042003F012FE002063
:101C000089F89603D9F8984304F1080104F13805DE
:101C10000B6800E00346586890B1A8421EBF034617
:101C2000586800280CD0A8421EBF034658680028F8
:101C300006D0A8421FBF034658680028A842E9D131
:101C4000587B10F00F0F02BF488E40F609029042F9
:101C500007D12046246A00224FF000736FF4807190
:101C6000A047D9F8A00398B1DFF878150868026B8F
:101C70009047D9F8A013814231BF401A401E401A44
:101C8000401CD9F89813000BC8600020C9F8A003C5
:101C90000022954909F57D7001F0DAFB022189F8EF
:101CA0008413D9F8580318B109F56E7001F054FC8B
:101CB000FEF7DFFC28F4006808E15FEA087040F1F5
:101CC000FE8001F0B0FB0546FFF75AFC002800F04B
:101CD000EE8099F89403010700F1E98099F89403E4
:101CE000010600F1E4806846FEF747FC18B1009851
:101CF000002800F0DC8099F82103002840F0D7800C
:101D000000270126F8B202281FDC09EB401101F57B
:101D10003071887AC8B18E7291F9090006FA00FA1A
:101D200001F081FB044699F8940320EA0A0A89F835
:101D300094A399F89413080704D4082109F56E7048
:101D400001F00AFC204601F093FB7F1C032FD9D33E
:101D5000032089F8840309F2AC4001F03BFB2846DC
:101D600001F086FBDFF88444606900216161002294
:101D7000E068E16009F57D70DFF8001C01F068FBA8
:101D8000DFF8600401680A6B9047D9F89C13814220
:101D900031BF401A401E401A401CD9F88C134FF036
:101DA000FF32A2EB10328A4234BF4FF0FF3001EB1A
:101DB0001030C9F88C0399F8900330B1D9F8A40316
:101DC000D9F88C13C002884230D2DFF8900602683E
:101DD000D10726D5DFF80C0C0268110621D540F694
:101DE0000900A9F870030021A9F8721399F87D037E
:101DF00000F0F00040F0010089F87D0399F87C03C1
:101E000000F0F00089F87C03C9F874130020E06149
:101E100009F55C71216000BFB9F8720310F4406FDE
:101E2000FAD0002189F89063C9F88C1303F077FB8E
:101E3000DFF8C013DFF81C46002008606368180054
:101E400007D0207A810704D5D9F89803002202210F
:101E50009847022003F0E5FC102003F0F8FC99F805
:101E6000950320B9D9F89803503001F035FBA078DC
:101E700010B90D2003F0EBFC99F8910328B1002173
:101E800089F89113052003F0CCFCDFF85C0BC9F84E
:101E90008803002189F884130220B9F96E13B9F977
:101EA0006C23914208BF0720FEF773FA02E0284630
:101EB00001F0DEFAFEF7DDFB28F0080806E05FEA35
:101EC000480003D5FEF7D5FB28F08048B8F1000F95
:101ED00004D0414609F56E7001F03EFB02B0BDE84A
:101EE000F0870000502F00202D1000002DE9F54C48
:101EF000DFF8F8AADAF8504381B09B4600250E4679
:101F000000E02468002C55D0B4420ED02468002C88
:101F100050D0B44209D02468002C4BD0B44204D035
:101F20002468002C46D0B442EBD1002C42D020696A
:101F300001992768884237D101F075FAD4E90A235C
:101F400043F08051C4E90A21D4E9082343F08051C9
:101F5000C4E9082101F08CFABBF1000F18D001F0A0
:101F600062FAD4E90A2343F08071C4E90A21D4E972
:101F7000082343F08071C4E9082101F079FA9AF846
:101F80004C133069CAF8480341F001018AF84C1338
:101F900021460AF5547003F0BAFF21460AF556703F
:101FA00003F092FF15F101059DF80800002818BF05
:101FB0003C46BAD1284603B0BDE8F08C2DE9F04E7E
:101FC00081461746032582B09B46380014BF4FF068
:101FD000804A4FF0005A0E4601F025FA4FF0FF31CB
:101FE0008E420090DFF8044A38D1D4F8600348B339
:101FF0000069484526D1D4F86063002E00F0BA800D
:1020000096F83300010640F1B4800A9DD4F86003CD
:1020100086421CBFD4F864138E4240F09380D4F8FB
:10202000600300225346FEF74DF8D4F86403002203
:102030005346FEF747F8002F14BFDFF8B409DFF866
:10204000B40959E0D4F8640328B10069484508BFD1
:10205000D4F86463D1D0D4F85063CEE7B4F930003B
:102060000021B04204BF2069484503D158204143B4
:102070006618C2E7B4F988000121B04204BFA26E1D
:102080004A45F3D0B4F9E0000221B04204BFD4F8CD
:10209000C0004845EAD0B4F938010321B04204BF7A
:1020A000D4F818214A45E1D0B4F990010421B04296
:1020B00004BFD4F870014845D8D0B4F9E80105212F
:1020C000B04204BFD4F8C8214A45CFD0B4F9400289
:1020D0000621B04204BFD4F820024845C6D0B4F966
:1020E00098020721B04204BFD4F878224A4541D172
:1020F00058204143661880E703F004FAB5B1D4F8DC
:10210000600300224FF08073FDF7DCFFD4F8640316
:1021100000224FF08073FDF7D5FF94F84C1330691F
:10212000C4F8480341F0010184F84C13BBF1000FDF
:102130001DD0D4F850132B465A464846FFF7D6FE1A
:10214000832517E02B465A4631464846FFF7CEFE18
:1021500078B194F8840301281CBF94F88403042800
:1021600005D0DFF8E01B04F56E7001F0F5F983256A
:1021700000E00425009801F07BF9284602B0BDE894
:10218000F08E10B50C46DFF8641891F88423022A0B
:102190000BD103F0B7F904B1206000F0FF00012873
:1021A00001D1812010BD022010BD012010BDF0B56D
:1021B00081B004460D46164601F035F90746DFF8B2
:1021C0002C08D0F898138C4218BF032404D1314650
:1021D0002846FFF7D6FF0446384601F049F9204665
:1021E00001B0F0BD8C010010D02108400010044067
:1021F00051000706000004600100070601010E04FB
:1022000030B5144681B00546502340F2FF3203F04A
:10221000A5F924B1014655F82110890A216001B0C1
:1022200030BD002942D00A0E202A08BF10221AD041
:10223000212A08BF202216D0A02A08BF302212D09F
:102240000AB940220FE0102A08BF50220BD0112AF1
:1022500008BF602207D0402A08BF702203D0502A4E
:102260000CBF802290228901090A42EA012141F033
:102270000F0100E0001D026812F1010F18BF8A4231
:102280001CBF50F8042F12F1010F0ED08A421CBF60
:1022900050F8042F12F1010F07D08A421EBF50F8E8
:1022A000042F12F1010F8A42E4D101607047002926
:1022B00044D00A0E202A08BF10221AD0212A08BFB3
:1022C000202216D0A02A08BF302212D00AB94022FC
:1022D0000FE0102A08BF50220BD0112A08BF60223D
:1022E00007D0402A08BF702203D0502A0CBF80229A
:1022F00090228901090A42EA012141F00F0100E020
:10230000001D026812F1010F18BF8A421CBF50F86D
:10231000042F12F1010F0ED08A421CBF50F8042F77
:1023200012F1010F07D08A421EBF50F8042F12F19C
:10233000010F8A42E4D14FF0FF31016070472DE96F
:10234000F04381B01E46089DDFF83C3BD3F8008087
:102350004FEA586313F00108038840F6020765D07E
:10236000BB4207D0B3F5C15F10D043F60607BB42AE
:1023700018D022E000F112030B60416911608269FC
:102380003260C1692960C77B047C22E000F112033E
:102390000B6041691160426A3260816A2960C77BC3
:1023A000047C16E000F11A030B600027C16911607C
:1023B000026A3260416A29600AE000F11A030B6088
:1023C000C1691160826A3260C16A296090F8247024
:1023D000047E306804F0070488B105234FF6FF72CD
:1023E00040F2037103F0BAF88146B9F1050F06DA3D
:1023F0002146384603F0F6F8316841F8290028688C
:1024000020B305234FF6FF7240F2037103F0A6F8E4
:102410000646052E1ADAFF21384603F0E3F829684C
:1024200041F82600404601B0BDE8F083BB4218BF2A
:10243000B3F5C15F07BF00F11203406900F11A0351
:10244000C0690B601060002030602860404601B019
:10245000BDE8F083FC520200040000204021084047
:10246000E31300002DE9F04186B015460C4600222A
:10247000029204920392019201A9009103AB04AA73
:1024800002A9FFF75CFF8326E20F33D148B303981C
:1024900000281CBF019800281DD00298048040F23B
:1024A0002B28039F502340F2FF324146384603F069
:1024B00055F8FF281CBF48EA842147F820100199ED
:1024C0000498FFF7F4FE15202880304603996960D0
:1024D00006B0BDE8F081029801884FF6FF72914284
:1024E0004DD002980480102129806C80304606B0BF
:1024F000BDE8F081002842D0039800281CBF019855
:1025000000281ED002984FF6FF7101805023019FD2
:1025100040F2FF322B21384603F020F8FF2804D088
:10252000A40244F02B0447F8204001990498FFF7D7
:1025300078FE1520288030460199696006B0BDE814
:10254000F081049F502340F2FF322B21384603F0E4
:1025500005F8FF2804D0A10241F02B0147F8201014
:10256000FF280CD002994FF6FF70088014222A80B1
:10257000C4F315046C60304606B0BDE8F081032654
:10258000304606B0BDE8F0812DE9F04391B00D462C
:102590000021DFF8E0890891019107910691064634
:1025A000D8F8089014461F4603F078FD1C2803D085
:1025B00003F074FD1B2826D1208843F607018842CA
:1025C00012D194F8240002281DDD2069DFF88C2A3E
:1025D00020F06041914216D020F06040DFF8801A70
:1025E000884240F01F810EE040F60202904203D183
:1025F000E07B022807DD15E1B0F5C15F03D1E07B88
:10260000022800F30F81002D18BF002C00F00A8172
:10261000287829FA00F0C10740F104810021204602
:102620000020C0467560B460DFF8C053D5F8AC0335
:1026300088B106A9009107AB01AA08A92046FFF7B7
:102640007EFE019850234FF6FF720B2102F086FFA9
:10265000FF2800F0E78000F0E6FE814695F895033C
:10266000022880F2DC80002840F0868003F027F802
:10267000DFF8F009DFF8F049016841F0020101607C
:10268000DFF8E809C8F8000002A800F027FF60782A
:10269000DFF8DC19049002AA05F56E7000F026FF41
:1026A00002AADFF8D01905F5826000F01FFF02A82A
:1026B00000F0D6FE2078B14A039002AB192105F54F
:1026C0007D7000F089FE02ABDFF8AC291A2105F21B
:1026D0004C4000F081FE00230022DFF8A01905F530
:1026E0008D6000F04DFE00230022DFF8081A05F28D
:1026F000AC4000F045FEDFF8000A0168C1F38140FC
:1027000038B10023DFF8F429042105F59E6003F0B9
:1027100076F8A078012804BF0D2003F0FDF805F538
:10272000567003F0A1FB05F5547003F09DFB0020EB
:1027300085F88403C5F88C030021072085F89013E1
:1027400085F8911385F82003C5F89C130020052116
:10275000C5F8A003C5F8A41385F89403A249C5F8E9
:1027600088136368180007D0207A410704D5D5F88C
:10277000980300220421984795F8950305EB800201
:10278000401CC2F8286385F895033C46484600F093
:102790006FFE3CB90FF21C6191E8BC5109A880E8BA
:1027A000BC5109AC206830604FF4FA71F160A06947
:1027B000B0620120218A71837076E16931636068BB
:1027C00018B130610021606803E040F6C410306148
:1027D000012131767061DFF828197162F161E068DA
:1027E00000B101463162606900B17062A06800B159
:1027F000F061C82106F1380003F0C8FC002106F1A1
:10280000500000F036FE00230022DFF81C1A06F10B
:10281000B80000F0B5FD304611B0BDE8F083484681
:1028200000F026FE002011B0BDE8F083F0B56F4C3B
:1028300094F89513002981B000F09E80B4F96C13D0
:10284000B4F96E23914205461BD004F55471FDF78F
:10285000F5FB68B9D4F8600328B10069A84208BF45
:10286000D4F8600304D004F556712846FDF7E6FB62
:1028700038B1B0F930100A224FF0E043284600F09A
:10288000AAF900F0D0FD0646D4F82803854207BF18
:102890000021C4F828130020C4F82C0394F89503F1
:1028A000401E84F89503C0B2002850D1C4F8985354
:1028B00094F88403022820D100F0B5FD074694F86F
:1028C000940300F0F70084F8940394F8940301074C
:1028D00004D4082104F56E7000F03EFE384600F086
:1028E000C7FD304600F0C4FD4FF0FF3105F1500048
:1028F00000F0EAFD00F097FD064604F56E7000F06A
:102900001BFE04F57D7000F08CFD04F5826000F084
:1029100013FE04F24C4000F084FD04F58D6000F0DD
:1029200048FD04F2AC4000F044FDD4F8B01311B1FE
:1029300004F20450884704F59E6003F022F9DFF8A2
:1029400028078178012904BF0D2002F080FFD4F808
:102950009803A84204BF0021C4F89813304600F041
:1029600087FD05F1500000F0AAFD05F1B80001B0A7
:10297000BDE8F04000F01DBD01B0F0BD4313000004
:102980002DE9F04D00F04FFD184C94F88413022906
:102990001CBF94F88413042907D1DFF83029146888
:1029A00000F066FD2046BDE8F08D00F061FDDFF827
:1029B0002009DFF8208901680A6B904710F500367E
:1029C000D4F8800341F1000A0146A8FB067B0020F1
:1029D00008FB0ABB3C184BEB01052C462046BDE822
:1029E000F08D000000000440E9150000502F002089
:1029F00001000204010001042DE9F04F83B082467A
:102A00000F4615469B4600F00EFD01906FF0010445
:102A1000DFF8C888D8F82803824508BFD8F82C0307
:102A200030B1B83000F0CDFC10B16FF00204ABE073
:102A3000FDF718FB060000F0C780DDE90C4908F23D
:102A4000AC4000F0C7FCB8F86C03401CC0F30B00AE
:102A5000A8F86C03F760002086F83200C6F808B0CA
:102A60002021B8F86C23DFF870083286C6F810A071
:102A7000204009EA0101C6E906014FF0000C86F882
:102A800033C0C6E908CCEC6834642A7C86F844205C
:102A90002B6873632A7986F83820AB68F3636A6918
:102AA000B264AB69F3642A7F86F850206B7F86F8A6
:102AB00051302A7C22B9EA6812B1012386F84430E9
:102AC0002A79002A02BF3A7B02F00F02022A04D1BF
:102AD000012286F83820BB687363082301E017469B
:102AE0005B1E7A68002A18BF002BF8D13A8802F4DE
:102AF0007C42B2F5305F0AD196F8332042F01002E2
:102B000086F8332040F00800C6E9060103E040F0F3
:102B10000202C6E90621D8F84803504507D198F8C3
:102B20004C03C10744BF00F0FE0088F84C03DFF8F7
:102B3000B00704686FF002050CB92C461DE0D8F808
:102B4000642308F55670009008F55473D8F86013A4
:102B50003046A0470446AC420FD0B8F96C03B6F932
:102B60003010884206D0B8F86C03411EC1F30B0147
:102B7000A8F86C1314F1020F0FD1B8F86C03411EC2
:102B8000C1F30B01A8F86C13C8F848A398F84C03DC
:102B900040F0040088F84C0316E0B6F9304096F88F
:102BA000330040F0800086F8330000218AF8FC10E2
:102BB000D8F85003B0421FBFF168087B00F00F0047
:102BC000022808BFFDF755FD019800F051FC204692
:102BD00003B0BDE8F08FF0B506460F46380081B06F
:102BE00014461D4603D50020002101B0F0BD00F0C1
:102BF000A5FCDFF8E826B2F930100023B94204BF83
:102C00001169B14203D192F83310090659D4B2F9CF
:102C100088100123B94204BF916EB14203D192F8EA
:102C20008B1009064DD4B2F9E0100223B94204BF5B
:102C3000D2F8C010B14203D192F8E310090640D493
:102C4000B2F938110323B94204BFD2F81811B142C6
:102C500003D192F83B11090633D4B2F99011042341
:102C6000B94204BFD2F87011B14203D192F8931166
:102C7000090626D4B2F9E8110523B94204BFD2F8F7
:102C8000C811B14203D192F8EB11090619D4B2F977
:102C900040120623B94204BFD2F82012B14203D138
:102CA00092F8431209060CD4B2F998120723B942DC
:102CB00004BFD2F87872B7420BD192F89B120F067C
:102CC00007D5582111FB03F3D71897F833201106C5
:102CD00005D400F043FC0220002101B0F0BDD7E98B
:102CE000082344F00A0445F0E04522402B4008BF89
:102CF000002A0ED000F032FCD7E90801204029401C
:102D0000C6E92C01D7E9082382438B43C7E908238E
:102D100013E0BA68DFF8CC158A4204D0D7F808C0AF
:102D2000C6F8A8C0B960C6E9284500F017FC4FF006
:102D3000FF3106F1500000F0C7FBD6E92C0101B0CD
:102D4000F0BD000002000040D0B582B00446DDE9CD
:102D50000667CDE90067FFF74FFE0146204602B047
:102D6000BDE8D0400A224FF0E04334E700B581B01F
:102D7000930803F001030093530803F0010302F0EA
:102D80000102FFF71BF901B000BD00B581B0930847
:102D900003F00103009302F001020123FFF70EF993
:102DA00001B000BDF0B500BF02A191E8FC5080E881
:102DB000FC50F0BDFFFFFFFF00000000000000001E
:102DC000000000003A013A0100000000000000008D
:102DD000000000000022FFF7EAB90022FFF7E7B980
:102DE00000B581B06A46DFF80015FFF7E0F98128E9
:102DF00003BF0098000200166FF07F0001B000BD15
:102E000070B50E46154600F00EFB8324052E36D80D
:102E1000DFE806F0030F15351F28DFF8C024D2F8CD
:102E2000601321B1D2F860130A8E2A8028E0802432
:102E300026E0DFF8A81491F820232A8020E0DFF8AC
:102E40009C1491F88423022A0CBF012100212970CF
:102E500016E0DFF88814D1F828232A60D1F82C1363
:102E600069600DE0DFF87424D2F8281301B1C96855
:102E70002960D2F82C1301B1C968696000E003240D
:102E800000F0F6FA204670BD9412005030B4DFF81E
:102E90004C44B4F9302000238A4204BF22698242A4
:102EA00003D194F83320150659D4B4F988200123AE
:102EB0008A4204BFA56E854203D194F88B20150683
:102EC0004DD4B4F9E02002238A4204BFD4F8C020D4
:102ED000824203D194F8E320150640D4B4F9382196
:102EE00003238A4204BFD4F81851854203D194F8D1
:102EF0003B21150633D4B4F9902104238A4204BF40
:102F0000D4F87021824203D194F89321150626D477
:102F1000B4F9E82105238A4204BFD4F8C851854298
:102F200003D194F8EB21150619D4B4F940220623F5
:102F30008A4204BFD4F82022824203D194F843226B
:102F400015060CD4B4F9982207238A4204BFD4F89A
:102F5000781281420AD194F89B02010606D55820C6
:102F600010FB03F3E018C06830BC704730BC002091
:102F700070470000CC2108402DE9F04B0E4682B08E
:102F800096F9048034688346174600F04CFADFF85F
:102F90004C2392F8201300906FF001094FF0000CC1
:102FA0005FF0010303FA0CFE11EA0E0F50D04FF050
:102FB000FF35A84518BFE0454AD15FFA8CF00328D9
:102FC00046DA02EB401505F53075A87A00283FD1A6
:102FD00021EA0E0082F82003AB7285F809C00A21AD
:102FE00092F82203401C82F82203C5F800B02B722D
:102FF000002343486860298295F90900401DA874A0
:10300000B06868617FB13B7878785B0143EA800300
:1030100095F90900401D43EA00234FF6FC710B406F
:10302000DFF8C8020343AB6104B16C60D2F89803C7
:1030300010B92968C2F89813FDF71BFB95F90990A0
:10304000009800F015FA484602B0BDE8F08B00BFCA
:103050000CF1010CBCF1030FA4D3F1E70F00000148
:103060000F00000500200940FC520200110000E0A2
:1030700007130000630F0000F70E00002513000087
:10308000F0B581B006460F46802400F0CCF9FFB2BF
:10309000032F054627DADFF8443203EB471101F529
:1030A0003077B87AF8B13968B1421CD193F884030B
:1030B000022812D197F90910D3F89803491D09067F
:1030C000090C41F08161002241F00101FFF76FF826
:1030D00004463846FDF794F805E03846FDF790F8C9
:1030E000FDF7C7FA8124284600F0C2F9204601B056
:1030F000F0BD000079110000B44F00504303000000
:10310000051300002DE9F04107460D4616468324BD
:1031100000F089F9092D804600F27E80DFE805F095
:1031200005081114171C4153696E3068386074E04B
:10313000386960303861012178697976603078616A
:103140006BE03068788368E03168B98565E03068A5
:103150006249C1F8A40360E0306848B900F063F93F
:103160005E4991F8942342F0800281F8942315E09F
:10317000012851D100F057F90646584890F89413A9
:1031800001F07F0180F8941390F894130A0704D497
:10319000082100F56E7000F0DFF9304600F068F9A4
:1031A0003BE04E4991F88403002804BFD1F8500356
:1031B000002811D13168192000F050F931681A2027
:1031C00000F04CF929E0454F97F88403002804BF2C
:1031D000D7F85003002801D000241EE0316807F51D
:1031E0006E7000F0BDF9316807F5826000F0B8F943
:1031F00013E03078394981F820030EE03C484368F9
:1032000019000AD0007A810607D53448D0F898030F
:1032100032462021984700E00324404600F028F978
:103220002046BDE8F0810000C911000030B5044619
:1032300083B0A0686A46FFF715F98328054604D1D4
:10324000002269462046FEF7B2FF284603B030BD93
:1032500030B587B00022059204920392029202AD2B
:103260000FF29801234A0C680192009503AB806825
:1032700004AA05A9FFF763F8059909884FF6FF72BC
:1032800091421BD1E8B1039800281CBF0298002886
:1032900002D001AA2B2102E0049801AA2B21FEF7FB
:1032A000AFFFFF280DD0019913480440C1F3150169
:1032B0000C4344F00044204607B030BDA40D41EA61
:1032C0008454204607B030BD0000000004300440A4
:1032D0008C01001000093D00FFEFFF9F502F0020E0
:1032E0003C1F0020CF110000010003040100040670
:1032F000FC520200FFFF3F000000C07FFFFF3F00C5
:10330000EFF31180202102E0EFF31180002181F31F
:103310001188704780F31188704702F047BF10B5DD
:1033200000F08EFC00F052FE00F016F8DFF8644367
:1033300004F10800A06602F08FF800F0C3FF01F06E
:103340004DFC01F07FFD01F02EFA00F0AFFB00F024
:1033500093FF0120207010BD10B5DFF83C4394F8B6
:10336000080160B9012184F8081100F085FF0021EF
:1033700004F59A7000F082FFDFF82013086010BD9A
:10338000FEB5044613B901F0F9F810E06D460020CF
:103390000026002785E8C100986802901D788DF806
:1033A0000050586801906B46204601F0E7F820462F
:1033B000FEBD01F003B900F0D3B90A20704701F057
:1033C000C6B8007D7047002181607AE08160704757
:1033D00001F0AFB801F071B8F8B51C0086B0054631
:1033E0000E46174603D1002300F076FB0BE000F0F9
:1033F00012F8206801906B46606804903A4600F02D
:1034000004F800F069FB07B0F0BD207A8DF80800E1
:103410003146284670476846DFF88812182202F0C5
:103420009DBF00F08ABB6BE700F063BCDFF8680269
:1034300090F8F41001F0E0BB10B5FFF761FF04460F
:10344000FFF768FF601E8041C00F10BD00F0B8BCE0
:1034500070B501F077F86560266017E100F0A0BC58
:10346000002101604FF0FF32012342600372704778
:1034700050E7FEB50446684600230025002680E894
:10348000680001278DF800706A46204601F0F8FABE
:103490002046FEBD3EB5694600220023002481E897
:1034A0001C0001258DF80050DFF8F42101F0F8FA36
:1034B0003EBD80B50090684601F00BFB01BD01F0F8
:1034C000FCBA01704160704780B501F03EFA08B95E
:1034D00000F02DB9002002BD01F096BA0021016074
:1034E0004160C1604FF0FF318160704778B51400D2
:1034F00085B005460E4603D1002201F0CEFB13E055
:10350000A068062804D310F1010F18BF00200BD1CA
:1035100000F0FEFE206801906A4660680290314625
:1035200000F004F801F0B9FB06B070BDE06804904B
:10353000A06803902846704701F04FBC00F0FEBC25
:1035400001F0A7BBDFF8500190F8F410012901D178
:10355000012070470020704701F001BC01F053BB0F
:10356000062902D311F1010F01D101F004BC70470B
:1035700030BF7047FCE738B502F034FF02F061FD60
:1035800002F080F8044604F00C000C2802D1AFF3DE
:1035900000803AE060071DD400F0C9FE0546012115
:1035A000012002F073F80A216943884212D2DFF841
:1035B0003041183D656104F10C0000F0BAFFAFF333
:1035C0000080012002F0FAF9AFF30080002084F8B7
:1035D00020001EE0AFF30080200716D4DFF80411AE
:1035E000DFF804010A68936898470428F6D0E106DA
:1035F00000D408B9012000E0002002F008FDDFF847
:10360000EC0001210160006801E0FFF7B3FFAFF3B8
:103610000080BDE8314002F0E9BEDFF87C0090F8A0
:10362000AC10012280F8AC200123DFF8E820116003
:1036300090F8141180F814315160704710B5DFF81C
:10364000D440606801F0DFFA206801F0F4BA0000AD
:10365000DFF8C410C20744BF01230B60820744BFD8
:103660004FF480730B60400744BF4FF480320A6010
:10367000704710B5DFF8A420C30748BF1160840766
:1036800048BF5160400748BF916010BDBDE8704021
:10369000FFF740BE802B0020541D0020E851002081
:1036A000F81E0020F03F00006846DFF88810242252
:1036B00002F054BE10B5DFF8701091F8AC00012292
:1036C00081F8AC20DFF894100C680CB122680A6015
:1036D00001F0FFFB1CB12046BDE8104008E010BD22
:1036E000B0200020D8010010004003402C200940E9
:1036F00010B5044604F1100001F0DFF9E06818B1DC
:1037000004F10C0001F06EFE2146BDE8104050228D
:1037100001F0DCB8A0500020042009401820094026
:10372000204601F0D6BB0000541D002001604FF080
:10373000FF3002BD584E0200DFF8C4070178FDE7F4
:10374000DFF8C40790F8F4007047DFF8BC270146A3
:1037500092F8F40082F8F41070470000A85000209E
:10376000DFF8A017D1E90023C0E900237047DFF894
:103770009807D0F8FC100847DFF88C17D1F8002123
:103780001047DFF8840790F81411012280F8142103
:1037900090F8AC1080F8AC200320D6E710B50446B2
:1037A0000320FFF7D2FF204601F06FBE80B5DFF89F
:1037B00050070178012901D0FFF7BEFFDFF850075D
:1037C00001F050FEFFF7A0FD002001F01CFABDE85B
:1037D000014001F04FBB10B588B001A80FF2B02135
:1037E0001C2202F0BBFD022200218DF804200A24D5
:1037F0008DF810100091039401ABDFF81027DFF86B
:10380000140700F0D1F808B010BD0146DFF8040736
:10381000AEE020B502460020D2E9102347F69061C1
:1038200002F0ECFD0125A94228BF4FF0FF3020BD7A
:1038300038B50C4602F0D6FD050018BF0125DFF8AB
:10384000DC060068811D201AB0F1004F05D8081B66
:10385000B0F1004F38BF8C4200D20C462146012007
:10386000FFF707FFEDB20DB9FFF7D3BE31BD2DE96C
:10387000F84C05460C46D5E910ABD5E91267AAFB12
:1038800004010BFB041136184F41340C002244EAAA
:1038900007412846FFF7CCFFC5E91467BDE8F18C66
:1038A00038B50546FFF72CFD6D690446B5F5802F48
:1038B00034BF04252D0CDFF864060068451901208B
:1038C000FFF7C6FE29460120FFF7D3FEDFF8542696
:1038D00013681D6823210020A847DFF84C1601203B
:1038E0000860204600F053BFDFF82C0601680A6B21
:1038F0001047000010B504460120FFF7A9FEA0699B
:10390000E169BDE8104008472DE9F047074601206E
:10391000FFF79EFED7E91601D7E91025002610EB28
:1039200002084D414FEA184040EA054AD7E91449D8
:103930004FF0FF304FF6FF7108EA000205EA01037D
:10394000204009EA01018B4202D82CBF82420126A5
:10395000324651463846FFF76BFFD7E91601C7E9F3
:103960001401C7E91685B869F969BDE8F047084749
:10397000F8B504460D46FFF7B7FFD4E910673246A5
:103980003B4602F03BFD3DB1A6FB002306FB0133A5
:1039900007FB0033C4E91223F2BD80B5FFF7B0FC8A
:1039A000FFF7B8FC002002BD2DE9F84187B00546BD
:1039B0000F4690461C46FFF7A3FCDFF86465B1682C
:1039C00011B1FFF7A7FC30E0B560FFF7A3FC0CB91D
:1039D0000FF2BC04EF60C5F81C804FF480316068C2
:1039E000A86169620020286200220023C5E9122331
:1039F000217BA06801290CD168610021A068C5E97C
:103A00001001227868690021022A0CBF02460022B8
:103A10000DE001460020DFF8842302F0EFFC0122D4
:103A200091426861EBD3C5E9100100202CE0C5E9A3
:103A30001421C5E91601182201A8DFF8F01402F0DC
:103A40008DFC029501AB2078DFF8E414009100288A
:103A50000CBFDFF8E024DFF8E024142105F1280092
:103A600000F059F804462846FFF797FF287C10B964
:103A70002846FFF715FF2CB12946304600F003FF1A
:103A8000284601E00020B06008B0BDE8F0810000E9
:103A90000000000000000000E8030000000000003B
:103AA00000000000000000000000000038B5DFF852
:103AB000584404F18405287F68B901212977FFF76C
:103AC0001FFCE16F2868C90800EBC1010839A16734
:103AD0004FF0FF31A16631BDF8B5DFF82C64DFF897
:103AE00080740446D6F89C000D4650F82510B94263
:103AF0000DD106F5D27000902946204600F00BF853
:103B000040B1D6F89C0050F82510B94201D10020F0
:103B1000F2BD2046F2BD1CB504460BB9DFF80C34EB
:103B200004980090204600F00AF8010003D02046D7
:103B300000F06DF80024204616BD002167E0F8B5BE
:103B40001746069CDFF81C24362905461E4602DB74
:103B5000002300930DE0DFF8B003E981D0F89C303A
:103B600053F82100DFF8F833984209D0002300937E
:103B70006C320B460021204601F040FC0120F2BDD2
:103B8000084600F099F86F6070682860306910F19D
:103B9000010F08BFFF2028730021307A00B10121F6
:103BA000307D08B141F00201A9602846214600F0AD
:103BB00003F800B1801CF2BD38B50446217AB4F98F
:103BC0000E008A07054602D5217B202907D26168AD
:103BD00000F0B3F8B4F90E004042E0810AE0DFF8EB
:103BE0002813D1F88C00DFF8741440F825402846DB
:103BF00000F0A3F8217B284600F0D2F8207AC10714
:103C000044BF284600F075F80020A06032BD0129AD
:103C100000D1704710B5B0F90E40002C48BF644287
:103C2000204600F049F8DFF83813204600F085F808
:103C3000DFF8D412D1F88C20002042F8240010BD07
:103C400070B5FFF75DFBDFF81834DFF81804DFF814
:103C50001814DFF81824DFF818440A601B1A8B6068
:103C6000DFF81034C868186002461D68A5420FD0FE
:103C7000002554F8256040F825606D1C0F2DF8DBF9
:103C80000F20DFF8DC4242F82040401C3628FADBE7
:103C90005C68DFF8E40324F47F4404195C600A6282
:103CA000202199764FF40070D860DFF86C04016829
:103CB00021F04041016070BD0F2810D9A0F1100122
:103CC0004909A0F11002DFF85404012302F01F0299
:103CD00050F8210003FA02F2DFF8443425E006D15F
:103CE000DFF8B41408680A6822F0020221E000201C
:103CF00070470F280ED9A0F11002012302F01F0215
:103D000003FA02F2A0F11001DFF81034490953F868
:103D100021000AE006D1DFF8801408680A6842F042
:103D2000020206E000207047000043F82120104006
:103D3000704700F002000A607047DFF8CC21D2F82B
:103D4000883003EB800002688A4218BF0160704728
:103D500010B5DFF8B441A06F02F078FC0021A16635
:103D600010BD70B50246DFF8000383685360046835
:103D7000946025462878BE2803D0012000231360D4
:103D800070BD00200029F9D015F8016FBE2EFBD0C0
:103D900064422919491E5B1AF1E7000040420F00F6
:103DA000102805D3DFF8B024104400F8101C704729
:103DB000042804D3DFF8A424104400F8041C70473E
:103DC000102803D3DFF8F01410380860704710B5DE
:103DD0004D4B0FF21504012283F86C2014B1BDE89D
:103DE000104001E010BD000018B50446DFF8BC1417
:103DF000486801229FB00A7008B901AA4A602046AB
:103E000000F014F80320FFF7A0FCDFF8B004DFF89F
:103E1000B0240368A06B009003F0FF030F2B28BFB2
:103E20007C3201F0C6F820B010BD0000F0B5364C71
:103E3000226F04F1F40501462E78167000230E6AF5
:103E4000166100204F6A57618E6A9661CF6AD7610A
:103E50000E6816624F6857628E689662CF68D762A6
:103E60000E6916634F6957638E699663CF69D7638E
:103E700001F140070E6B166457644E6B966404F1B3
:103E800084068F6BD764C96B11651778032F14D81C
:103E9000DFE807F009070210B06B5060C36A806A60
:103EA0000BE0E86A06E0B06801F0FF0150F821106D
:103EB000516000E05060E36F3068D0609360616FE4
:103EC00039B1002804E013F8014B01F8014B401E02
:103ED000F9D1DFF8E8030168DFF89C045165037845
:103EE00093654178D165438813664168516683685C
:103EF0009366C168D1660369136740695067F0BD76
:103F0000802B0020341E0020541D0020714400002E
:103F100083370000882B00208C01001030200940DE
:103F2000041F00208401001080022443F03F0000A1
:103F3000F81E002009390000F5380000DFF81814D9
:103F400091F81401012281F814217047DFF8081458
:103F500091F8AC00012281F8AC207047000000000D
:103F600061120200DC1F02002DE9F04100F0EAFCC2
:103F7000DFF8E47397F8AC50012087F8AC0097F8AD
:103F8000146187F814010020FFF7DFFB8046D7F8A3
:103F90008C00DFF828130A6802F0FF0250F8227044
:103FA000BC60FFF7B1F9386879688847FFF7A8F96E
:103FB0004046FFF7CAFB06EB0520BDE8F08100F0A4
:103FC000FF0000F03BBE000A00F09EBFF8B50021E4
:103FD00001A8FFF7C6FE0398009004E0BE2101701F
:103FE0000099491C009100986845F7D305B000BDC1
:103FF00000000000000000000100000000000000C0
:10400000E00000000100000070B5049C059D069EC4
:104010008908491E40F82140491E40F82130491EB8
:1040200040F82120491E40F82160491E40F82150E7
:10403000491EDFF8F82740F82120491E4FF0FF32D3
:1040400040F8212000F01AF800F018F8491E40F856
:10405000212000EB810070BD000000003D11020036
:1040600000400120003C0120D01D0020003C012028
:104070000000000008ED00E00000FA05491E40F8CD
:104080002120491E40F82120491E40F82120491EC8
:1040900040F82120491E40F82120491E40F82120E7
:1040A000491E40F82120491E40F82120491E40F8B1
:1040B0002120491E40F82120491E40F82120704748
:1040C0007FB504460D46A16A164619B1E06ABE22C4
:1040D00002F0E8FAE16B02913346A06B0190009583
:1040E000A16A626BE06A091FFFF78EFF04B070BD22
:1040F00010B504460120A060002121610022E26089
:1041000004F1140000F0D4FB2146BDE81040DFF8B4
:10411000280700F0B8BB000034EF00E000E100E049
:1041200080E100E0F8B50646DFF81007046984B0C6
:104130009CB16569077801210170B068012807D139
:104140000021B1603461F56000F072FB002020E0D6
:104150003069A04203D100F06BFB012019E020463A
:1041600001F094F8002102940391C4F824D02A4667
:10417000694606F1140000F041F830694069A84230
:1041800003DA3069294601F02DF800F051FB0020D8
:10419000606205B0F0BD000010E000E070B5DFF82F
:1041A0009C260546106938B314780123137009BBA7
:1041B000E96842699142BCBFE96801F013F8686997
:1041C00005F11401884202D10122AA6012E0686957
:1041D0000168696105F114024A6086682E617069A0
:1041E000E860FFF78DF805462946304601F07EF875
:1041F00000F0F1FC00F02DBC70BD000010B50346CE
:10420000186800E00068984207D0846864699442A6
:10421000F8DABDE8104000F02FBBBDE810401846AA
:1042200000F01BBB10B5044609B90FF22801FFF7D7
:104230005FFF204610BD10B5044601F0BDF818B16F
:104240002146BDE81040EDE710BD0FF208012FE058
:10425000000000000000000000E400E018ED00E0B5
:10426000806902F02ABB806902F029BB806902F0F4
:1042700028BB806902F02ABB02F019BB10B50446C6
:104280000020A061DFF87416DFF87426DFF87406EA
:1042900021606260A06004F11001DFF86C26DFF895
:1042A0006C06E26000F0EFFA204610BDC01D002051
:1042B0000A6802607047000000EF00E004ED00E0D3
:1042C000401C020018B5244C94F8650085B0E8B98C
:1042D000012284F865200021204600F0E9FA00F070
:1042E0007DFC00F015F80520039004F5D2736A46B2
:1042F0000FF2E50104F1100000F056FDE064FFF755
:104300006AFADFF86807FFF784FAA06506B010BD07
:104310006846DFF85C17142202F020B838B5FEF7C3
:10432000EFFF04460020FFF770FA05460EE038B5AF
:10433000FEF7E6FF04460020FFF767FA0546064849
:10434000416D806D4D1BA84238BF00252046FEF709
:10435000E1FF284632BD0000541D002038B5044658
:104360000D462146DFF80407FFF781FADFF87407EE
:104370000465456531BD000028ED00E02DE9F843F6
:104380000446DFF860070768D7F804800D464FF051
:10439000FF391BE03E463F68307D012816D1012CD5
:1043A00004BFF168A94209D1306900281DBF411836
:1043B000F16030623075F069B1698847307D01285D
:1043C00004D1F068401B484598BF81464745E1D17C
:1043D0004846BDE8F28300002DE9F843FEF790FF60
:1043E00080460120FFF711FADFF8F85605F15C0668
:1043F00001213170002272706F6DAA68A968C41B18
:10440000401ABA1A904202D2002030702BE000F01D
:1044100063F94FF0000907E04F4439460120FFF7E8
:10442000ADFFA4EB090481464C45F5D2FEF768FFC9
:1044300080467078012804D139460020FFF79EFF9E
:104440008146A86D19F1010F05D0A86DA9EB0404F0
:10445000A04288BF2046C119FFF780FF012000213C
:10446000B0703170AF604046BDE8F243FEF752BF16
:10447000DFF87006C06C00F046BC000038B504469A
:104480001D46A260002268682061A1612146A868DB
:10449000E0612275DFF84C0600F0F5F9287818B1D4
:1044A0002046BDE8324044E031BD000038B566E149
:1044B0008260816100220261C36100210175704741
:1044C0000146DFF82006C8E1000000F0EAB970B547
:1044D0000446DFF81066A068206206F15C05A97842
:1044E000012904BF2878002816D10120FFF78DF993
:1044F000B168736D0246B0681B1A511A8B420BD318
:10450000A0688118E16001232375746DA21A90429E
:104510000DD2BDE8704021E7FFF700FFA168081841
:10452000E060012020752978012908BF687070BDFE
:10453000000038B500F006FA05462046FFF7C7FF31
:1045400024E1BAE704460D461646FEF7D9BE70B51B
:1045500000F0F8F90646207D0025012808D1FFF774
:10456000DDFE0546E068216A451BA94238BF0025EB
:1045700000F073FA284670BD00F07CBA10B504460E
:104580000BB90FF20C03FFF779FF204610BD0000B6
:1045900000000000000000000000000070B50446AC
:1045A0000D4616460022242100F009FF28B13346AB
:1045B0002A462146BDE87040E0E770BD76E710B5B9
:1045C00004460022A260002104F10C0000F070F902
:1045D0002146BDE81040DFF87C0754E138B500F013
:1045E000B1F90546207C022804D1204600F059F993
:1045F00000F0A2F9CAE010B5836884681A400C4044
:104600008C4208BF0A4312B1816891438160104611
:1046100010BD2DE9F0431C4691B081460D4617466A
:1046200014F1010F18BF002C0CD06B462246DFF8A6
:10463000701708A8FFF73CFF08A9022203918DF824
:10464000102004E00020032103908DF810100021B9
:10465000DFF8E86106950797059130690290FEF74B
:104660004FFE80463A4629464846FFF7C4FF0500FC
:1046700003D000F031F828462BE01CB900F02CF8EC
:10468000002026E0347801203070694602984162AB
:1046900009F10C0000F0E1F8029800F000FE039828
:1046A00020B1FFF70DFF0398FFF711FF00F014F89A
:1046B000FFF736F8FEF724FE0446039818B1FFF71B
:1046C00004FF0020039000F099F99DF8100000B15C
:1046D000059811B0BDE8F0834046FEF71BBEF8B563
:1046E00005460E46FEF70CFE0446A8680643AE607B
:1046F00005F10C00E968814202D1204600F067BA5A
:10470000DFF8E00390F8AC6000F01CF82846EF6892
:10471000FA69B969FFF76FFF786160B1384600F058
:10472000C0F801203874F86808B1002101752146ED
:10473000B86800F0DBFD00F00FFB3046BDE8F2404A
:1047400000F0C7BB012180F8AC10704710B50446DB
:1047500009B90FF20C01FFF732FF204610BD00002F
:104760000000000010B504460B460022142100F0A2
:1047700026FE18B12146BDE81040E7E710BD04460B
:10478000FEF7BEFD0546204600F08BF82846BDE842
:104790003240FEF7BFBD21681422002000F057FE12
:1047A0000020206010BD78B5DFF8B846207889B0C9
:1047B000E0B901252570FEF777FF4FF440720592AE
:1047C00004F160010FF22802049100920026039682
:1047D0008DF8205000236A460FF23501201D00F0AD
:1047E000BCFDDFF8C015201DC1F8D8000AB070BDAF
:1047F00074692E73797362696F732E6B6E6C2E54AD
:1048000061736B2E49646C655461736B000000002A
:1048100080B500F001F8FCE710B5DFF8E846206845
:1048200080476068BDE8104000470000417100000B
:10483000384600F04EBB0000101F0020001E002074
:104840000146086802680A60516070470168814249
:1048500001D101207047002070470EE038B500F00C
:1048600071F82568296821602A685460FFF76FBDD8
:10487000406000607047000000BF426808604A6006
:1048800011604160704738B500F007F82C6061682E
:10489000696062681560656079E704460D46FEF759
:1048A0002FBD01684268116041680068416070472F
:1048B000DEE710B504460B460022082100F07FFD1C
:1048C00018B12146BDE81040F2E710BD002000F00D
:1048D000BEBD10B5044610782074618204F1140046
:1048E0000021FFF7E5FF0021A16001202146E060E3
:1048F000BDE81040DFF8E408C5E7000061420000B1
:1049000067420000734200006D420000181F002043
:1049100000BF00F11401816100F11402426170478F
:1049200038B500F00FF80546207C022803D100F0CE
:10493000CEF800F001F829E7002020742946A0688D
:1049400000F0D4BC0446FEF7DBBC70B50C468EB05C
:10495000054614F1010F18BF002C0AD06B46224601
:10496000DFF87C1805A8FFF7A3FD05A90391022233
:1049700002E00021039103228DF81020FEF7C0FC15
:104980000646688A002831D11CB900F066F800207C
:1049900032E0DFF8F4080478012101700069029028
:1049A000C0F824D000F07BFC694605F11400FFF745
:1049B00054FF9DF81000022805D10398FFF780FDF1
:1049C0000398FFF784FD00F048F8FEF7A9FEFEF714
:1049D00097FC0446039818B1FFF777FD0020039079
:1049E00000F00CF89DF8100030B104E0688A411E18
:1049F000698200F032F801200EB070BD00200299EB
:104A000048622046FEF786BC70B50546354890F8EA
:104A1000AC4000F025F80646686905F114018842AB
:104A200007D1287CC1074EBF0120688A401C6882DC
:104A30000DE06A6910686861416001201074D068F7
:104A400008B1002101753146906800F04FFC00F07C
:104A500004F82046BDE870403BE23046FEF75ABC01
:104A6000012180F8AC10FEF74BBC0000882B002021
:104A7000C04D000000210022002380E80E00704796
:104A800010B504460AB90FF20C02FFF722FF2046C8
:104A900010BD000000000000000000000000000049
:104AA00038B504460D46134600F087FC20B12A466F
:104AB0002146BDE83840E3E732BD38B50446FFF78C
:104AC00027FFFEF71DFC054600F001F85EE62046D4
:104AD000E7E610B504462068FFF7EFFF21681C22C7
:104AE0005BE60000541D0020B0FA80F0C0F11F000A
:104AF00070472DE9F843044604F12800DFF84C58CC
:104B0000C168D5F81080EF68AE682961EC600023B9
:104B10008168A96000214268826001702B700120C9
:104B2000FEF713FE8146FEF7EFFBE169A0696269BB
:104B30009047FEF7E5FB4846FEF707FE0120287088
:104B4000C5F81080EF60AE60BDE8F18338B5DFF8DE
:104B50002C48E5682068FFF7C7FF216901EBC00119
:104B600000F090F803D12168426A91432160FFF779
:104B7000C0FF206830B1FFF7B7FF216901EBC0012A
:104B80008D42EDD331BDF8B5DFF8186206F58A74B1
:104B90002769FEF7B5FB05466068FFF7A5FF616969
:104BA00001EBC00087420FD296F8AC70012086F866
:104BB000AC00DFF8CC0701F039FD0020207000F0D8
:104BC0000AF83846FFF7BABD002020702846BDE835
:104BD000F240FEF79FBB2846FEF79CBB38B5DFF8D6
:104BE0001848207A38B901212172002500F03CF9DB
:104BF0006D1C062DFAD331BD481E8041C00F704791
:104C0000FFF79CB90000002800D0704710B5FEF7F0
:104C100077FB644C04F58A72516821B1FEF77AFB88
:104C2000FFF7B1FF02E01170FEF774FB94F8AC00DF
:104C3000012184F8AC10BDE810404AE1002800D002
:104C4000704738B5DFF804476068C0B1FEF75CFB19
:104C5000FEF756FB25696068FFF746FF616901EBC7
:104C6000C0018D420BD200F00DF803D16168426A99
:104C700091436160FFF73DFF60680028ECD10020A0
:104C8000207031BD086802680A6051600A688A4273
:104C900070474448D0F81C01704710B50446DFF84F
:104CA000783700F081F8606900B90024204610BD13
:104CB00038B54060006013684161036151688161EB
:104CC0009368C361D16811F1010F08BF052101622A
:104CD000012303FA01F14162002400F128010C7064
:104CE00013698B6012694A602E4A046AD2F828312F
:104CF00003EBC405CD6000F1080102F58670FFF7F3
:104D0000C2FD002032BD2DE9F0418046FEF7F8FAE1
:104D100008F124050446287920B12046BDE8F04179
:104D2000FEF7F8BA0120DFF82476287141463E7874
:104D300038702869FFF791FD796828680143796028
:104D400000F00AF816B9BDE8F0411CE7BDE8F081B3
:104D500000000000201F00202046FEF7DBBA38B517
:104D6000FFF79BFD216B0D432563FEF7D3FA204629
:104D7000BDE83240C7E738B50D46044615F1010FCE
:104D800008BF0525FEF7BCFA0121A9406162256232
:104D9000044AD2F8281101EBC5036363FFF7F7BC9F
:104DA000DD450000541D002010B504460AB90FF27D
:104DB0001002FFF77DFF00B10024204610BD000067
:104DC00000000000000000000000000005000000DE
:104DD00000000000214600F03ABB38B5FFF7B2FDF5
:104DE00000F0FBFAFFF7D2BC70B5DFF8D046002028
:104DF000207101E000F093FA20680028FAD02068C2
:104E0000FFF772FE6169226901EBC00082420DD298
:104E1000E56820610668E6603146284600F08EF8B5
:104E200006F11C0105F11C0002F07EF92079002832
:104E3000DDD170BD10B5DFF85044207A08B1FFF71E
:104E4000D3FF58E038B5DFF87846207E38B9012125
:104E50002176002500F008F86D1C062DFAD331BD2F
:104E600000000000F02B00202268002102EBC500AA
:104E7000FFF71EBD38B596B0FEF742FADFF83C46A4
:104E800001E000F04CFA20680028FAD02068FFF713
:104E90002BFE616901EBC0000146206100200D6816
:104EA000E56020710220FEF750FC2946002000F04A
:104EB00045F8FEF729FAFEF723FAFEF749FFE06806
:104EC00000F11C0107A802F02FF917B030BDFFF761
:104ED0003DB8002800D0704710B5FEF711FADFF892
:104EE000E40500F1AC04217A012902BF90F8140115
:104EF0000028FFF779FF00202070BDE81040FEF782
:104F000003BA00004C1D0020002800D0704710B5E7
:104F1000DFF8B00500F1AC04217A012902BF90F856
:104F200014010028FFF760FF0020207010BD000072
:104F300000BFDFF89005D0F8BC007047BCB5040096
:104F40000F4635D0E06ADFF880550178BE2905D0DC
:104F50000022009223462A4600F02BF8F86A0178D6
:104F6000BE2907D0002000903B4605F160020021D9
:104F700000F044FAE06A01A9814222BFA26A8018C7
:104F8000884207D20091234605F1C002002100208B
:104F900000F034FAF869FA6A904222BFBB6AD2186C
:104FA000824205D200903B4605F5947200F001F86C
:104FB000B3BD0021002021E290F84800012800D074
:104FC000704710B5FEF79CF9DFF8F8140446D1F8E5
:104FD000B800401EC1F8B80004D1FFF7BDFE0020A4
:104FE000FEF7CAFB2046BDE81040FEF793B970B546
:104FF000DFF8D8040469057801210170FEF780F913
:105000000646204600F04BF9032084F82000204695
:10501000FFF7D2FFFFF721FD64602460FFE7284619
:10502000BDE8704055E7F8B517460446386820617A
:105030000E46F96861611D46B869002803BFDFF8B4
:105040009004016821632063796909B94FF4007104
:10505000386948B3C21DD208D200891A4118C9085C
:10506000C9004FF0FF30E262A16220636663786896
:10507000DFF85064A063B968E163F869206404F163
:10508000480097F820100170012904D1D6F8B81013
:10509000491CC6F8B8100022C2602946204600F01C
:1050A00018F870B1801CF2BDC91DC908C900A16201
:1050B0000822206B00F0B2F90028E062D6D101206E
:1050C000F2BD04F1080106F1A400FFF7DCFB0020AB
:1050D000F2BD70B50B460446DFF8F823DFF8F8138D
:1050E000FEF7EEFFE06108B9012070BD012084F8F1
:1050F0002000002161626069DFF8C813002808D52C
:10510000002201F1D000A261E0642146FFF7BBFB61
:1051100018E060690122824001F1AC00A26181695E
:10512000626901EBC203E364012105780170FEF7B7
:10513000E7F80646204600F0CFF8FFF78EFC284639
:10514000FFF7C7FE002070BDF8B50029044641D125
:10515000DFF878733D7801203870FEF7D1F8064605
:1051600094F8200001280FD1FFF7B1FCE06C016832
:10517000814203D17A68A06982437A60606A80B113
:10518000C06808B1FFF7A1F994F82000022808D1FF
:10519000606A68B1FFF785FB606AC06808B1FFF715
:1051A00094F994F82000032802D1FFF790FC02E064
:1051B0002046FFF701FFFFF750FC2846FFF789FE66
:1051C000206B10F1010F04D0A26AE16ABDE8F8403B
:1051D0003DE1F1BD0129F3D1F1BD0000281F002000
:1051E000214900002DE9F84FDFF8D8B20BF1AC04EB
:1051F000054694F80080012020700E46FEF780F8E6
:10520000D5F814A0B245814636D0002E03D500272C
:105210000BF1D00B04E0A0690127B74000EBC60BEF
:1052200095F8200001281CD12846FFF73AFBE86CCE
:105230000168814203D16268A86982436260206983
:10524000A84207D1C4F814B02946DBF80000FFF7E4
:1052500013FB03E029465846FFF7FFFA606838431E
:1052600060606E61AF61C5F84CB0002E44BF002095
:105270006061012121724846FEF74CF84046FFF775
:1052800028FE5046BDE8F28F001E002038B5FFF71B
:1052900059FB0546204600F002F8FFF777BA2DE9E2
:1052A000F0410446DFF81452D4F84C802E68A76908
:1052B000FFF7F7FAD8F80010414504BFBE432E604F
:1052C000E868A04204BF00212961022084F8200080
:1052D00001212971BDE8F08138B5FFF733FB0546A0
:1052E0002946204600F002F8FFF750BA2DE9F041B8
:1052F000DFF8C861376804468846A569E06C214636
:10530000FFF7ABFA2F433760012184F8201001200A
:105310003071FFF7E1F9BDE8F041FDF7F1BF80B56D
:10532000DFF8B80120B9FDF7EFFFFFF775FA09E0E4
:10533000FDF7EAFF002001E00098401C0090009873
:105340000028F9D0BDE80140FDF7DABF681E002053
:10535000DFF88C11242201F001B810B504460AB917
:10536000DFF87C21FFF75FFE010003D02046FFF746
:10537000EBFE0024204610BD000000006C1E002043
:105380004D4B0000F8B500F011F8582100F017F867
:10539000040009D03B4632462946FFF7DEFF18B924
:1053A0005822FFF717FD00242046F2BD05460E46A1
:1053B00017463B46002270470B4600221C21002066
:1053C0002CE038B5FFF7BEFA00F007F8FFF703FC52
:1053D0002046BDE834400021B6E6054604F1080049
:1053E000FFF75FBA10B504462068FFF7EAFF2168AF
:1053F0005822FFF7D2B900007C1E002006498842DF
:1054000083B001D103B0704700B9684603990260C8
:1054100043608160FEE70000F81E0020F8B504003C
:105420000E461F4604BFDFF8BC00046802B908221C
:1054300025682046A847050007D100962346DFF8D7
:10544000A82000213846FFF7D9FF2846F2BD08B949
:1054500024480068436818472449087A08B901229B
:105460000A72704738B5FFF76DFA20494A6801257E
:10547000082A05DA0B6843F82240521C4A6000E013
:105480000025FEF764BF10B5044600F006F820467C
:10549000BDE8104000E00000FEE770B5FFF752FAEB
:1054A000124D6E6807E0296801EB8602204652F82B
:1054B000043C9847761E012EF5DA70BD041E0020CC
:1054C000181E0020541D002018030200001E00209A
:1054D000E4510020EF4F0000354E00001948000055
:1054E000584E0200E8510020D8330200301F00203F
:1054F000FDF713BFFDF713BF5C490A681040C243B4
:105500000A6070475A4A11680029FCD10023D36110
:105510001060D0690028FCD0D161506870475548B0
:10552000016821F0020141F4087101600321524831
:10553000016041F23002C260012343605021C1602A
:10554000012242604FF4CA61C16042604FF486514B
:10555000C1604260012049490860704770B4054647
:1055600000201C003AD013F003040AD055F8206044
:1055700016F1010F32D016408E422CD0401C641E12
:10558000F4D19B0800F02A8055F8204014F1010F57
:1055900024D014408C421ED0401C55F8204014F1F9
:1055A000010F1BD014408C4215D0401C55F82040F0
:1055B00014F1010F12D014408C420CD0401C55F84D
:1055C000204014F1010F09D014408C4203D0401C3C
:1055D0005B1ED9D102E070BCC0B2704770BCFF2026
:1055E000704700001E281DD8DFE800F0101C131CB7
:1055F0001619161C1C1C191C161C1C191C1C1C1C06
:105600001C1C1C1C1C1C1C1C1C1C190040F20252E3
:1056100009E04FF4817206E04FF2011203E041F21B
:10562000011200E00022FF2909D14FF6FF300240AD
:1056300042F0C00240F2037040EA024070470800A6
:1056400008BF42F0300205D0C8074CBF42F010023C
:1056500042F0200240F2037040EA024070470849DD
:105660000A681040C2430A607047000010100440EE
:1056700000100440000004605460044000410440F5
:1056800008100440DFF89407806870470246002045
:10569000022904D1012A06D140F2EE207047012AE6
:1056A00008BF4FF47A707047DFF8701791F8410126
:1056B00020B1D1F86C01002818BF004770472DE9D0
:1056C000F841DFF8584704F2391583B0687A0028AA
:1056D00040F091800121697204F5B67600F09DFCDE
:1056E0003071DFF83C77387B287279683160DFF8F9
:1056F0003467B068C0F38140A8B9386998B1D6F86A
:1057000000800A20C046C8F30662642111FB02F241
:10571000B2FBF0F200230FF2457104F19400FDF7A3
:105720002FFE00F015FC6846FDF74DFE00200190AD
:105730008DF80000002202926B460FF27151DFF8E3
:10574000E88604F10C00FDF71BFE6846FDF73BFE02
:10575000002001908DF8000002906B460822DFF8CF
:10576000CC1604F15000FDF70BFE00230FF2C542EA
:10577000322104F1D800FDF72FFE0020C8F8000008
:105780000023DFF8AC262C2104F1F400FDF724FE01
:10579000B168787BC1F3815120B1032902D1012086
:1057A000287004E0032918BF022900D089B9D8F86D
:1057B000000040F04000C8F80000FDF734FEA1688A
:1057C00041F00401A160297B491C2973FDF750FEBB
:1057D00003E0012908BF00F0CCFB706840070AD441
:1057E000FDF721FEA16841F00101A160A97A491CE1
:1057F000A972FDF73DFE002004B0BDE8F08138B588
:10580000002408B1150002D16FF0020407E08160A6
:10581000C26003610146DFF8040600F055FB204634
:1058200032BD10B50446FDF7FEFDDFF8F0150A198C
:1058300092F843315B1E82F84331DBB233B98A6898
:10584000012303FA04F422EA04048C6060E0F8B552
:105850000546FDF7E8FD0446DFF8C015481990F845
:105860004A21521E80F84A21D2B232BBDFF8C40569
:1058700000EB850210F825505688280622D5DFF85F
:10588000B87539680A6A3046904739688A6A30467E
:10589000904739680A6B30469047DFF8A015012021
:1058A0000860DFF89C0501688907FCD505F03F0515
:1058B000152DBCBF2846FFF7CAFF2046FDF7D8FDCF
:1058C0000020F2BD680606D501EB86010020D1F864
:1058D00060219047EAE7DFF860150B689A69304667
:1058E0009047304601F036FC0228FAD1DEE710B5C9
:1058F0000446FDF798FDDFF824158A680123A340CC
:105900001A438A60214491F84321521C81F84321B3
:10591000FDF7AEFD002010BD2DE9F0410646FDF774
:1059200082FD0446DFF8F454A81990F84A114A1C85
:1059300080F84A2139BBDFF8FC8418F8260000F013
:105940003F001428D8BFFFF7E7FF08EB8600478821
:1059500018F8260001061CD5DFF8DC542A68D16946
:10596000384688472A68516A384688472A68D16A83
:1059700038468847DFF8C42401201060DFF8C004EF
:1059800001688907FCD52046FDF772FD0020BDE8BF
:10599000F081400606D505EB87010120D1F8602192
:1059A0009047F0E7DFF890140B685A693846904743
:1059B000384601F0ECFB0128FAD1E4E72DE9F84F75
:1059C00000250026AB46012818BF6FF0010840F003
:1059D000D580DFF8489409F59A74206801282CD105
:1059E00002212160FDF719FE012000F062F95FEA53
:1059F000000825D109F5AA7A9AF8060008B14FF0F7
:105A0000010B9AF8050008B14BF0020B9AF804005C
:105A100008B14BF0040B012000F0A7FA01281CBFCD
:105A20002079012803D1002000F086F9012599F89A
:105A30000800C10709D5012611E06FF004089DE0B8
:105A400001202060FDF7FAFD98E0DFF8EC13DFF8A5
:105A5000F8030A6A916888470746042FF5D0304654
:105A600000F0D0FA5EB9012F07D1DFF8CC23DFF8C0
:105A7000D803136A5A680121904700F06EFADFF8E4
:105A8000B8130A685369584698479AF8000018B145
:105A90004FF4806000F0BDFAE07F18B14FF48160F0
:105AA00000F0B7FADFF89413DFF8A03301200860A4
:105AB00000221A6003202060584601F068FB01288C
:105AC000FAD1DFF880733868042000F0F2F8064657
:105AD000DFF87C1301200860002D3A6841D000F007
