:020000040000FA
:1000000043433133783252315DED7F210301FEFFEE
:10001000FFFF0700FFFFFFFF704B02009000000092
:10002000303030316F4B02002C00FFFF03FEFFFF2A
:1000300055000000015F14E665B0177D511DEC10FE
:100040008B770C5DB4BB014B30B19F519A11070007
:1000500017C64E39405B8A6E21DE8CDBF244E5F731
:1000600076ADE027EDC3F319738E9D72FA51E07FF0
:100070003EACC6903293EAF5E865829367167F102E
:10008000BC01FEFFFFEF4A0200000000000000007C
:1000900090560020013C0200353D0200353D020033
:1000A000353D0200353D0200353D0200353D020080
:1000B000353D0200353D0200353D0200353D020070
:1000C000353D0200353D0200F53C0200FFFFFFFF19
:1000D0001823002014090000650501000D08010027
:1000E000C52A0000C52A0000C52A0000510D0100E4
:1000F0006F0D0100C52A0000890D0100B90D010036
:10010000BF0D0100590F0100C52A00006110010058
:1001100065090100C50D0100E50D0100710E01002A
:10012000E5100100C52A00000D120100C52A0000DB
:10013000C52A0000CD0901002D0D0100C52A0000CF
:1001400003BB010025BA010059BB0100F9B9010048
:100150000BBA0100AFBC0100B3BC0100DFBD010060
:1001600025BD01004FBE0100F5BC010007BD010027
:10017000A9BE0100ADBE0100654501006945010051
:100180001D620000236200000205000308100A003F
:100190006C3F0020703F00203A010000000000008A
:1001A00000000000241F0020D81B002000000000D9
:1001B000000000000000000001000000D800000066
:1001C000DC06000040010000FC0600008001000089
:1001D00000000000743F002008000000942300206D
:1001E000DC230020F423002010240020D000000095
:1001F000000000002024002048240020000000000F
:100200000000000010000000000000005265676957
:1002100073746572656420736572766963652C20FA
:1002200025642061747472696275746573000000DE
:10023000526567697374657265642063616C6C6292
:1002400061636B7320746F206170706C696361749B
:10025000696F6E2E205374727563742025700000D0
:100260004E756C6C20706F696E746572206769766C
:10027000656E20666F72206170702063616C6C62C5
:1002800061636B732E000000536574506172616D81
:10029000657465723A20506172616D657465722093
:1002A000232564206E6F742076616C69642E0000D3
:1002B000547279696E6720746F2073656E64206E66
:1002C0006F74692F696E643A20636F6E6E48616E59
:1002D000646C652025782C20257300004C656E67C2
:1002E0007468206F75747369646520626F756E64DD
:1002F000733A204C656E3A202564204D696E4C653A
:100300006E3A202564204D61784C656E3A20256454
:100310002E00000052656164417474724342203AB9
:1003200020257320636F6E6E48616E646C653A20A1
:100330002564206F66667365743A202564206D65B8
:1003400074686F643A2030782530327800000000FD
:10035000416E20696E76616C6964206F66667365B4
:100360007420776173207265717565737465642E8E
:100370000000000057726974654174747243422032
:100380002843434344293A20706172616D3A202525
:100390006420636F6E6E48616E646C653A202564FC
:1003A0002025730000000000000000B00040510450
:1003B000201100F010000000A40300000097B92EE7
:1003C000E5725CCB5DCAE473B82F0196BA2D039435
:1003D0005FC8E671E7705EC90295BB2CE3745ACD25
:1003E0000691BF28BE2907905BCCE27559CEE07715
:1003F000BC2B05920493BD2AE17658CF51C6E87F05
:10040000B4230D9A0C9BB522E97E50C7EB7C52C5F4
:100410000E99B720B6210F9853C4EA7DB2250B9CE4
:1004200057C0EE79EF7856C10A9DB324089FB126D4
:10043000ED7A54C355C2EC7BB027099EA2351B8CC4
:1004400047D0FE69FF6846D11A8DA334188FA136B4
:10045000FD6A44D345D2FC6BA037198E41D6F86FA4
:10046000A4331D8A1C8BA532F96E40D7FB6C42D594
:100470001E89A730A6311F8843D4FA6DF3644ADD84
:100480001681AF38AE3917804BDCF26549DEF06774
:10049000AC3B15821483AD3AF16648DF1087A93E64
:1004A000F5624CDB4DDAF463A83F1186AA3D138454
:1004B0004FD8F661F7604ED91285AB3C526567693B
:1004C00073746572656420736572766963652C2048
:1004D000256420617474726962757465730000002C
:1004E000526567697374657265642063616C6C62E0
:1004F00061636B7320746F206170706C69636174E9
:10050000696F6E2E2053747275637420257000001D
:100510004E756C6C20706F696E74657220676976B9
:10052000656E20666F72206170702063616C6C6212
:1005300061636B732E000000536574506172616DCE
:10054000657465723A20506172616D6574657220E0
:10055000232564206E6F742076616C69642E000020
:10056000547279696E6720746F2073656E64206EB3
:100570006F74692F696E643A20636F6E6E48616EA6
:10058000646C652025782C20257300004C656E670F
:100590007468206F75747369646520626F756E642A
:1005A000733A204C656E3A202564204D696E4C6587
:1005B0006E3A202564204D61784C656E3A202564A2
:1005C0002E00000052656164417474724342203A07
:1005D00020257320636F6E6E48616E646C653A20EF
:1005E0002564206F66667365743A202564206D6506
:1005F00074686F643A20307825303278000000004B
:10060000416E20696E76616C6964206F6666736501
:100610007420776173207265717565737465642EDB
:10062000000000005772697465417474724342207F
:100630002843434344293A20706172616D3A202572
:100640006420636F6E6E48616E646C653A20256449
:100650002025730057726974654174747243422097
:100660003A20257320636F6E6E48616E646C652856
:10067000256429206C656E28256429206F666673C1
:10068000657428256429206D6574686F6428307846
:100690002530327829000000496E76616C6964204B
:1006A00076616C7565206C656E6774682077617320
:1006B0002072656365697665642E000000000000A5
:1006C000000000B000405104301100F010000000A4
:1006D000BC06000002000000DA2A000069CF010019
:1006E00079CF010015CC0100D3CF01007F9C010020
:1006F0008B9C010029D0010025D101003943010064
:1007000001D301000D440100F7430100AB370000A5
:10071000D9360000393800007D3800009D380000CF
:100720003D3600004F380000E13700001F3900005F
:10073000CB360000493900003D3900002B3900005C
:10074000A3370000A5370000D53B0000A937000003
:10075000A73700005265676973746572656420731A
:100760006572766963652C202564206174747269F2
:1007700062757465732C207374617475732030789E
:100780002530327800000000526567697374657225
:1007900065642063616C6C6261636B7320746F20AD
:1007A0006170706C69636174696F6E2E205374722E
:1007B00075637420257000004E756C6C20706F6935
:1007C0006E74657220676976656E20666F7220614F
:1007D00070702063616C6C6261636B732E0000004B
:1007E000536574506172616D657465723A20506131
:1007F00072616D6574657220232564206E6F7420AC
:1008000076616C69642E00004C656E677468206FB9
:1008100075747369646520626F756E64733A204CF9
:10082000656E3A202564204D696E4C656E3A202530
:1008300064204D61784C656E3A2025642E000000DE
:1008400052656164417474724342203A20257320DA
:10085000636F6E6E48616E646C653A202564206F2C
:1008600066667365743A202564206D6574686F64EC
:100870003A2030782530327800000000416E20693F
:100880006E76616C6964206F66667365742077614B
:1008900073207265717565737465642E00000000C5
:1008A0005772697465417474724342203A2025730B
:1008B00020636F6E6E48616E646C65282564292024
:1008C0006C656E28256429206F666673657428251B
:1008D0006429206D6574686F64283078253032781B
:1008E00029000000496E76616C69642076616C7540
:1008F00065206C656E67746820776173207265632C
:1009000065697665642E000000000000000000B0FC
:1009100000405104101100F0100000000809000010
:100920003E3E3E535441434B204153534552542085
:100930004361757365203078253032782073756295
:1009400043617573652030782530327800000000EF
:1009500000000000000000B000405104C0FF00F0A3
:1009600000000000000000B000405104C1FF00F092
:1009700000000000000000B000405104C2FF00F081
:1009800000000000000000B000405104C5FF00F06E
:100990001000000050090000496D67204964656E31
:1009A0007469667900000000496D6720426C6F63CE
:1009B0006B0000004F414420457874656E646564A7
:1009C00020436F6E74726F6C000000004F41442032
:1009D0004E564D31000000000000000000000000F5
:1009E0000000000000000000000000000000000007
:1009F00000000000000000000000000000000000F7
:100A000000000000000000000000000000000000E6
:100A100000000000000000000000000000000000D6
:100A200000000000000000000000000000000000C6
:100A300000000000000000000000000000000000B6
:100A400000000000000000000000000000000000A6
:100A50000000000000000000000000002F4F414493
:100A600051756575650000009DE201001DE2010001
:100A70003DF20100B9A101100DCF0110817E0110DE
:100A80002D23021051C2010009DF010095C00100B1
:100A90005468697320697320612070726574747979
:100AA000206C6F6E6720737472696E672C20697397
:100AB0006E277420697421004F414420444C204328
:100AC0006F6D706C6574652C207761697420666F3A
:100AD0007220656E61626C65000000004741502025
:100AE000697320737461727465642E204F7572206F
:100AF000616464726573733A201B5B33326D2573D6
:100B00001B5B306D000000004E616D6520696E203A
:100B100061647644617461312061727261793A2056
:100B20001B5B33336D25731B5B306D004C696E6B43
:100B30002065737461626C697368206576656E7494
:100B40002C20737461747573203078253032782EC0
:100B5000204E756D20436F6E6E733A202564000041
:100B6000436F6E6E65637465642E205065657220F8
:100B7000616464726573733A201B5B33326D257355
:100B80001B5B306D00000000504859204368616EC7
:100B90006765206661696C7572652C207065657289
:100BA00020646F6573206E6F7420737570706F7240
:100BB0007420746869730000416476205365742062
:100BC00025642064697361626C6564206166746584
:100BD0007220636F6E6E202564000000426F6E64A9
:100BE0004D6772205265717565737465642070611C
:100BF0007373636F64652E205765206172652025CD
:100C0000732070617373636F6465202530366400F0
:100C1000436F6E6E656374696F6E206576656E7482
:100C200020646F6E6520666F7220636F6E6E486120
:100C30006E646C653A2025640000000055706461A4
:100C400074656420706172616D7320666F72202517
:100C5000732C20696E74657276616C3A2025642E5F
:100C60002564206D732C206C6174656E63793A2065
:100C700025642C2074696D656F75743A2025642095
:100C80006D73000056616C7565204368616E676521
:100C9000206D73673A2044617461205365727669F0
:100CA00063652053747265616D3A20253032783A5D
:100CB000253032783A253032782E2E2E0000000072
:100CC0004352432053746174757320696E76616C6E
:100CD0006964617465642E205265626F6F74696E19
:100CE0006720696E746F2042494D2E0043524320A5
:100CF000496E76616C6964617465207772697465A8
:100D0000206661696C65642E20537461747573206C
:100D100030782578000000004C6566742062757498
:100D2000746F6E206E6F742068656C6420756E64DD
:100D3000657220626F6F742C206E6F7420726576FE
:100D4000657274696E6720746F20666163746F7278
:100D5000792E000052696768742B4C6566742062B6
:100D60007574746F6E206E6F742068656C64207586
:100D70006E64657220626F6F742C206E6F742065D4
:100D8000726173696E672065787465726E616C203C
:100D9000666C6173682E000052696768742B4C653D
:100DA000667420627574746F6E2068656C6420616F
:100DB000667465722072657365742E00486F6C648A
:100DC00020666F722035207365636F6E64732074C4
:100DD0006F2065726173652065787465726E616CF1
:100DE00020666C6173682E004E6F746520746861B4
:100DF0007420746869732077696C6C20616C736F00
:100E00002072656D6F766520746865202266616367
:100E1000746F727920696D616765222E0000000091
:100E20005468657265206973206E6F77206E6F203D
:100E3000666163746F727920696D61676520696EA0
:100E40002065787465726E616C20666C61736820D1
:100E5000746F2072657665727420746F00000000F4
:100E6000526573657420746865206465766963658E
:100E700020746F206D616B652074686973207468DD
:100E80006520666163746F727920696D61676500C2
:100E900052696768742B4C656674206E6F742068A5
:100EA000656C6420666F722035207365636F6E64B5
:100EB000732C20636F6E74696E75696E6720626F44
:100EC0006F742E00486F6C6420666F72203520733B
:100ED00065636F6E647320746F20696E76616C69F0
:100EE0006461746520696D61676520616E6420725C
:100EF00065626F6F740000004C656674206E6F74DD
:100F00002068656C6420666F722035207365636F9E
:100F10006E64732C20636F6E74696E75696E6720E2
:100F2000626F6F742E00000028434229204C454414
:100F300020537663204368617261637465726973DC
:100F40007469632076616C7565206368616E67659E
:100F50003A20706172616D4944282564292E20531E
:100F6000656E64696E67206D736720746F206170B1
:100F7000702E00002843422920446174612053767A
:100F80006320436861726163746572697374696335
:100F90002076616C7565206368616E67653A2070C4
:100FA0006172616D4944282564292E2053656E6461
:100FB000696E67206D736720746F206170702E00FA
:100FC0002843422920427574746F6E205376632043
:100FD0004368617220636F6E666967206368616E43
:100FE000676520706172616D4944282564292E204F
:100FF00053656E64696E67206D736720746F20613E
:1010000070702E0028434229204461746120537679
:1010100063204368617220636F6E6669672063684E
:10102000616E676520706172616D4944282564298D
:101030002E2053656E64696E67206D736720746F30
:10104000206170702E0000004F70656E696E672021
:1010500065787465726E616C20666C617368206679
:101060006F72206D6173732065726173650000009B
:10107000457874466C61736820726567696F6E426B
:101080006173653A20307825782C20726567696F26
:101090006E53697A653A20307825782C2073656321
:1010A000746F7253697A653A2030782578000000B1
:1010B0004F4144206661696C656420746F206F70D5
:1010C000656E000052656769737465726564204FD0
:1010D0004144205365727669636500004F414420A6
:1010E000496D616765207625730000004F414420FB
:1010F0004572726F723A202564000000446576697B
:10110000636520446973636F6E6E65637465642103
:10111000000000004E756D20436F6E6E733A2025FF
:1011200064000000557064617465204661696C65F7
:1011300064203078253032783A2025730000000092
:10114000436F6E74696E75696E6720626F6F7400AD
:101150004C65667420627574746F6E2068656C648B
:101160002061667465722072657365742E000000DC
:1011700074510020775100207651002078510020D2
:101180007551002074230000244F0020842B002080
:101190006B5100206C510020042C0020052C0020F5
:1011A0000ACE0000CEDE000096710100EE3F010085
:1011B0008E3E0100674502008FC1010073450200A9
:1011C00025C30100ED2401003D300100EDB3010015
:1011D000DD2A0100E1D50100FD240100CB3F010023
:1011E000FD3F0100E54E0100B9C00100412E0100A4
:1011F0001D130200F11202008B9A010027980100D2
:101200007D4B0100A9B30100E5A40100E51902002E
:10121000A5C10100094E010039730100AD3D020076
:10122000E93F0200C1B601001DA50100B1A3010004
:1012300079B301008D3E0100B12A0100D56A021088
:101240002D920110A1F101104D0A0210495E021009
:1012500059E2010049AA0110D52A021075D40110E3
:1012600065E20100794B0110154B021005150210C3
:1012700047B20100217A0110514D0210F5E2011030
:101280009DF90100010A021071E20100A52302107C
:1012900081CF011045FB0110994B021095510210AE
:1012A000C537021091370210D1F90100A10E0210CA
:1012B0002D380210796E0210816E0210756E0210C8
:1012C0005D4502107D6E0210255302106159021017
:1012D000AD520210FD520210D5520210895E02106A
:1012E00019550110A5D60110B13E0100756D02100F
:1012F0002D69021011F0010099C50110813F010014
:10130000893F010091FD0100B13E0100B13E0100A5
:10131000853F010041F00100D9CA0110ED260210FD
:1013200021A1011089ED010005550210E13E0210D6
:10133000D96D011061500110F1170210B13E01008A
:10134000ED7F011075660210C9EC01007D4D0210A1
:10135000B13E0100B13E0100D5FD010059E301108D
:10136000659A011065A70110D9AA011039BF0110B3
:1013700011F30110515C0110155A0210B13E010029
:10138000B13E010005560110156B0210B1AF01000E
:10139000DD540210056B0210AD460210FD4702102D
:1013A0003D2D0210F159021065270210CD470210A1
:1013B000310F0210A53F0200E9DA01108D42020050
:1013C0002DEB010069B60110E9C90110B5F2011059
:1013D000A1EB0100295F0210418A011085EC011088
:1013E0002D54011029270210A1E70100F9B40100D2
:1013F000B13E0100B13E0100B13E01009504021072
:10140000D131011045ED011089EA0100B13E010022
:10141000B13E0100B13E0100D53C0110B5540210AF
:1014200009EC010061CA011091FD01103DFD0110A0
:10143000E1B20100A5CB01004DCB0100ED66021029
:1014400055690210A15B02103DB201002930010074
:101450003D2F0210696002102D4E0210956E021091
:10146000996E02105D5A021019F10100E52D02106B
:10147000B13E0100B13E0100B13E0100A96E021073
:10148000ED8A0110AD6E0210A56E0210B13E010092
:10149000B13E0100B13E01005D480210395A021010
:1014A000B16E0210014E0210E9FC011045F101106D
:1014B000A55A0210AD170210A16E02108DA80110DE
:1014C000256B02108D6602109D6E0210B1F00100B6
:1014D000F9F00100E56B021081A3011055550210CF
:1014E00089F0010059510110B9110210F55502108F
:1014F0000112021039D20110DD4E0210BD6202103D
:10150000DD490210459C0110EDF70110FD3E010080
:10151000616C02102DB70100656E0210696E021039
:10152000DD4302106D6B01102D480210C10F021037
:10153000F9A7011051EE010089DE01106962021065
:101540007D430210511B0210BD1802108D0B0200CA
:101550007DF80100059B0110E11002101DFD010046
:10156000513F02001D620110053F02002944011095
:10157000B1E50110291902008D180200C1EE010029
:10158000C13B0110418E011019690210E5EC0110F8
:10159000752D02103DEF0100CDEF0100559F0110A8
:1015A000E50A0210752F0210B9CC0110B14E0210DD
:1015B000310B021055DB0110CDB401106DF3011099
:1015C0000D680210DD670210056702102911021074
:1015D00019400210D11F0210AD2F0210854E0210CB
:1015E0006D8401003192010061D801108D5A011003
:1015F000E9080200B59001008D2E0210AD490210DD
:1016000089AC0110C55B0210DDD00110B589010065
:10161000E5AD010059910100558901008562021074
:10162000C95F02103989010029E00110D5130200B9
:1016300019280210791802103518021039C001104B
:10164000ED480210416902107D550210ED6D021047
:10165000CD550210695F021079060200B13E01000B
:1016600005050200B13E0100C9AC0100158501006D
:10167000953F0100B9C0011009B80100E53F021013
:101680009D89010095960100894202108D3F01005D
:1016900061840100E95F02109D130200B13E010068
:1016A000856B0210A5ED01104DE5011081010210BE
:1016B00041A30100DD27021021420210BD480210A3
:1016C000E5040210656B0210FD570100DD160200F3
:1016D0001D49021055420210D56602102DE201107C
:1016E0009D3F0100A5660210511F0210CD19021086
:1016F00025930010F9AB01100D9A001059B70100A5
:1017000029B30110A55502109DE90100F5E601007D
:10171000BD070200093F0100D1AE0100A5960100FE
:1017200051CB011095F7011005EE011015B1010024
:1017300091AC0100B13E0100AD430210B13E010089
:10174000117D0110C97D0110D90B02002D77011008
:1017500055810110993F0100F1920100ED680110DF
:10176000559E010099000200C9FE010069080200AF
:10177000B9BF0110B13E01001D340210B13E01009D
:10178000798C0100E9E40110C9CB0110557C0110EE
:1017900091E00110F9E00110BD15020035050210BD
:1017A00051D10110B13E0100C1EE011051100210E3
:1017B00085E4011041CC0110C1DF01109DB2011080
:1017C0007D850110F1B60110B13F02107D89010045
:1017D000416E02101DC5011041B401100119021023
:1017E000B5B3011021A90110E540020029C601008E
:1017F0003907011069D001105D6602103D540210D6
:10180000911E021045660210CD5902108D5402102F
:10181000952C02106554021025410200516D0210F2
:10182000D54D021015540210D1200210A53102101E
:10183000C56B0210C95E021069AB0110E95E0210AF
:10184000A93D0210396D02108559021021130210B2
:101850007D5B021045290210DD46021085B10110A2
:1018600025170210DD6802104504021035D601105C
:10187000C5EB0110D56B0210A94D021005690210CD
:10188000D5630110B99E0110113E0210B12602105D
:101890005D2C02106D470210F56A021035F601103A
:1018A000A1C40110A5EA01105916021025C40110A7
:1018B00095670210F16802103111020079070110DA
:1018C000F9220110D192011015BA011051A2011094
:1018D000DDF50110EDFB01101D840110A959021066
:1018E0004D620210ED5302103D4702109D1602108A
:1018F000E1160210DD3D021065EB0110111E021011
:1019000075930110FD650210511E0210C1110200F5
:101910006913021059F20110595B0210990A021062
:1019200031470110355B0210156602103148011075
:10193000793E0210F5CF011011DA01103D67011058
:10194000453E0210E9A20110DD31021005EB011045
:101950002D66021065670210A56B0210196E021049
:10196000B9630210E169021019610210596E021088
:10197000556A0210456A02105D6E0210556E021023
:10198000F5D70110E9330210E95C0210111A0210B8
:1019900045510210C95C0210E16002104D21021095
:1019A000511A0210695C0210610C02104D430210C2
:1019B0004D33021019330210496002107D64021089
:1019C000CD690210ED5A021025060210AD57021023
:1019D000C1DB01101D430210115B0210F513021050
:1019E000295D0210AD640210ED5002101532021094
:1019F000E5320210A95C02107D320210ED420210A5
:101A0000D11A0210BD420210911A0210892102104F
:101A1000B1320210895C021049320210316C02109E
:101A2000256C0210F529021065EE0110C560021048
:101A3000C1420200111B02105D3702106DB001108F
:101A4000295E0210C90D021005D40110BD820110DB
:101A5000819D0110F9C801103D590210C1610210A9
:101A60005565021029C40100B5C5010039410200C5
:101A700085980110A5030210D1580210990C01108D
:101A80003D4402109D440210DD6102109DFA0110D8
:101A9000F5360210D9A50110E1B501106D6E0210E6
:101AA000716E021059360210252D0110F503021037
:101AB0008D360210D1410200B9BD011065790110C7
:101AC0006D6502105F420200F3410200216D0210B9
:101AD000156D0210F9610210E94A021025990110F2
:101AE00029370210F5580210F50F01101562021087
:101AF000E95D02108565021019590210095E021095
:101B0000A56102101134011045A501100DB9011095
:101B100039D901105D44020051DD0110B1C201103C
:101B20009D720110958901108DF0011055AF0110C3
:101B300085F50110C114021069090210CDD80110F9
:101B400089A0011085080210D10802101D09021099
:101B5000253602103DA60110F5C90100A1C90100FA
:101B6000D1A60110E5650210CD4402109D6502105A
:101B70000D6D0110D9C3010071C90110111C0110B4
:101B800065660110054C0100998D01106DC40100BE
:101B900085C6010049240110F18C0110FDC7010028
:101BA00069C80100ED3D0200C5990110911B0210AA
:101BB00085F301006DDE0000316E021021BD0110C1
:101BC000D11B02106D610210C56A0210B9C101106B
:101BD00005E8011025E9011039140210ED34021056
:101BE000D9570110F53F0200290D0200B90E02007D
:101BF000111D0210C143020029430200B5DE01009D
:101C00009D6C0210A96C0210396E0210496E021010
:101C10002135021025F40110A1BB0110B5020210FC
:101C2000895D0210D5710110654A0210390D02104C
:101C30007D38011095D3011089910110ADF8010094
:101C40003D220210C16C0210CD6C0210050302107F
:101C50005507021021BC0110BD060210C13F010052
:101C6000394A02102143011099CE011065E8011094
:101C7000AD580210A5E70110756A0210956A0210AE
:101C8000856A0210A56A0210F564021089350210F7
:101C900009430200A50C0200A1BC0110A10702101B
:101CA000A93F0100B1640110AD3F01000D410110D9
:101CB000DD8601100140011005C801104D400210E1
:101CC00085D70110991A0200E52B01109DF801102B
:101CD000097101101D670210F562021081290210BE
:101CE000D962021069690210B540021081400210E9
:101CF000150C021079480110A5140110754C011043
:101D000035090110592E0110714D011089FF011084
:101D1000256802107D69021045190210354F021026
:101D20008500021089C701108D870110291A020051
:101D30001D300210458C0110BD3F010055300210CE
:101D4000619501104556021011200210C90B0210B6
:101D50001DBB011011630210E94002102D63021037
:101D6000FD30021049630210F1320110F15E0110E2
:101D700061E10110A56D021009F700108D3002100D
:101D8000C5300210094F0210CD280210D5050210EF
:101D9000DDE6011029600210912802105120021086
:101DA0003100021049360110911202106D4E0110DF
:101DB000A9CD0110D900021041E70110D91202107B
:101DC00021CE011019A4011001B80110B13F01008A
:101DD000A52A0110E11A020045F80110B94F0210BE
:101DE00011500210E54F021085410210614F0210A0
:101DF0009550021035670210092902108D4F02100C
:101E000081630210098201109D6302103557021090
:101E100069500210BD5602103D500210E5560210E6
:101E2000A5690210B94102106D560210C95A02107C
:101E30003FC30100353102101D56021095560210A5
:101E4000C15801105D5702100D570210C9F301105F
:101E5000091B0200311B0200ADD20110E52F021058
:101E6000B13E0100E5FD011021D30110491202101D
:101E700079E6011039FE011039C101100DC70110BA
:101E800045FB0010B93F0100B1F200106160011084
:101E9000B53F0100996D02107D0B0210115E01101B
:101EA00085E90110290F0200810D02103D88011003
:101EB0002D2A0210810F02008D65011069DC0010CF
:101EC00051100200914A021031F00110A95D021078
:101ED000652901105535021001220210694F0110C9
:101EE000B934021065020210695D0210B44000208E
:101EF000E7080200CC400020BA1502007041002023
:101F0000BB150200000002400929FF009841002093
:101F1000041F0000B8410020592602009C22002026
:101F2000D841002054420020FFFFFFFF0080040042
:101F30000040000000000000000010000010000041
:101F4000D04200204000000000000000000000001F
:101F500000093D0014000000640000001825000086
:101F6000665100202C1F0000402500001043002077
:101F7000341F000000000000CB430000717A000015
:101F80000101010000000000FF000100F1AF0000AE
:101F9000070000000000004017FF000000000000E4
:101FA0000400FFFF0800000010000000401800209F
:101FB00030180020401A0020301A00200A000000CB
:101FC000090000000C0000000B00000009080AFFD7
:101FD0000A000000682500001C430020941F000038
:101FE000FF0000000000000080A903001C44002046
:101FF000E01F00000010004015000000FF0000007E
:102000001046002020000000304600202000000084
:10201000000000000C0000000D000000FF000000A8
:10202000FF0000002018002010180020040000000D
:102030000200000005000000100000000F0000007A
:10204000110000001200000000020000A044002067
:10205000F41F00004400010022000100F8240020C9
:1020600020000000696E746E756D3A202564206949
:1020700073206F7574206F662072616E676520280B
:102080004877692E633A333737290000487769204B
:10209000616C726561647920646566696E65643A35
:1020A00020696E74722320256420284877692E6386
:1020B0003A333835290000006861726477617265CF
:1020C00020657863657074696F6E206964203D20B7
:1020D00025642C207063203D20307825303878200E
:1020E000284877692E633A313039322900000000E0
:1020F0006E6F204953522C206964203D2025642CAA
:10210000207063203D2030782530387820284877AB
:10211000692E633A31303935290000000A00000089
:1021200000000000000000000000000001000000AE
:10213000000000000002000000000000000000009D
:10214000010000007461736B20307825782073746F
:1021500061636B206F766572666C6F7720285461BF
:10216000736B2E633A343736290000007461736B49
:10217000203078257820737461636B206F766572E8
:10218000666C6F7720285461736B2E633A34383154
:10219000290000007461736B2030782578207374F7
:1021A00061636B206572726F722C205350203D204A
:1021B0003078257820285461736B2E633A34383890
:1021C000290000007461736B2030782578207374C7
:1021D00061636B206572726F722C205350203D201A
:1021E0003078257820285461736B2E633A34393463
:1021F000290000006F7574206F66206D656D6F7229
:10220000793A20686561703D307825782C207369B3
:102210007A653D257520284D656D6F72792E633A7C
:1022200037382900286E756C6C2900001B5B333130
:102230003B316D4552524F523A201B5B33303B319C
:102240006D2825733A256429201B5B306D00000042
:102250001B5B33333B316D5741524E494E473A2059
:102260001B5B33303B316D2825733A256429201BD5
:102270005B306D001B5B33323B316D494E464F3A4C
:10228000201B5B33303B316D2825733A25642920B0
:102290001B5B306D0000000096C298D84539A1F450
:1022A000A033EB2D817D0377F240A463E5E6BCF813
:1022B00047422CE1F2D1176BF551BF376840B6CBDE
:1022C000CE5E316B5733CE2B169E0F7C4AEBE78EDA
:1022D0009B7F1AFEE242E34FFFFFFFFFFFFFFFFF7E
:1022E000FFFFFFFF000000000000000000000000F2
:1022F00001000000FFFFFFFFFCFFFFFFFFFFFFFFEC
:10230000FFFFFFFF000000000000000000000000D1
:1023100001000000FFFFFFFF4B60D2273E3CCE3B99
:10232000F6B053CCB0061D65BC86987655BDEBB3B0
:10233000E7933AAAD835C65A512563FCC2CAB9F305
:10234000849E17A7ADFAE6BCFFFFFFFFFFFFFFFF6C
:1023500000000000FFFFFFFF0059340000000000F4
:1023600058230000010000000000D002EC00002112
:102370005F00000000000000000000006C2300006F
:10238000682300000000000082840000A684000092
:10239000428A000082910000E29C00008B3402001F
:1023A000FE3B0200702300009EA90000DAA9000095
:1023B0006427002002000000F6B0000000000000CA
:1023C0001B3E0200000000008E0000008E00010095
:1023D0008E0002008E0003008F0000018F000002BB
:1023E0008F0000038E0001048E0000058E0008049B
:1023F0008E00000489000006500000007F000100EC
:102400003F0004003F0002003F0001007F00020087
:102410008E0002048E0001028E0001010200000005
:1024200000000000FFFFFFFF0000000000000000B0
:10243000000000000000000000000000000000009C
:102440000100000000C201000300000000000000C5
:1024500002000000DEA90000F93F020059F6010069
:10246000000000000C0802170D010102090901011A
:1024700006020918180301010909030305030201F3
:102480000000000000000000FFFFFFFF0000000050
:10249000000000000000000000000000000000003C
:1024A0000000000000000000FFFFFFFF0000000030
:1024B000000000000000000000000000000000001C
:1024C0000000000000000000FFFFFFFF0000000010
:1024D00000000000000000000000000000000000FC
:1024E0000000000000000000FFFFFFFF00000000F0
:1024F00000000000000000000000000000000000DC
:1025000029160200FF00000000000000ED17020085
:10251000FF000000000000008D1B0200951B020060
:102520009B1B0200C71B0200DF1B0200211C0200D4
:10253000331C02009D1C0200DB1C0200E31C020095
:10254000F51E0200831F0200F91F02002520020071
:10255000372002006D200200812002009F2102002E
:10256000E3210200ED21020059270200CF270200DB
:10257000952A02009F2A02008B2C02007B2F02006A
:10258000F543002179400021954000216944002154
:10259000A5440021C5400021D1400021DD4000219B
:1025A000F94000214F45002141410021DB0705D0C2
:1025B00000F003F80249087070BD70B5014D28475E
:1025C000E00400211D240200074C657900F009F8A1
:1025D00061796940490703D50121044A89031160E3
:1025E00070BD70B5024908478003002108110440FE
:1025F0002D59000070B5004700F016FA004800475A
:10260000577F000000F016FA004800471B880000C2
:102610000599880A802805D1134988788007800F9A
:1026200000F020FA00480047D96E00000FB40F48B0
:10263000C188002902D0104600F014FA079B9B0ABB
:10264000084D832B08D1084C23899B0604D500F044
:1026500005F8002800D042350FBC284770B5044863
:10266000004700001F0B02006001002180030021D1
:10267000EB0902000848094A03689A420AD108484F
:102680000289084BD21A01D0012A03D1406E0649B3
:1026900088470399054B1847A8020021BD03020093
:1026A0006001002121180000F1350000BD06000086
:1026B00070B51F4D2878C4B21E488047287803287B
:1026C00034D1032C32D01C488068400DC2071A4810
:1026D000014660318030002A03D01F240C57458802
:1026E00002E01E240C570588002C1FD01348154A01
:1026F000416900794143481011494969401810491E
:102700004039497F904740054015694288420DDBBA
:10271000A8420BDC0C4B996988B20246090C624353
:1027200009045212801880B20843986170BD0000FD
:10273000E4020021794100002800002180030021EB
:1027400000030021CB8100004040044010B5864CBE
:1027500021464031087D012834D18448C07D40089D
:10276000C0072FD02046603042795208D20729D0C6
:102770004089800B012825D1087E4109C9070CD06A
:10278000A16F00070988C00F400209040843606672
:10279000A06F801C00F080F913E07448203080693D
:1027A000406800280ED0724A00230178D356591A87
:1027B00008D4C90008184178C90703D001686166C8
:1027C0004068A0666B48804710BDF8B5664C6A4902
:1027D00026462036707B2546403500902F79B8007C
:1027E000401880688047002828D16049C97D0909C0
:1027F000C90723D022466432152F20D0297E00231A
:102800004F09FF0703D06D7D002D00D00123009FED
:10281000A56FBB4312D0737B002B0FD0237D5B06CB
:102820000CD5D288920B012A08D1C908C90705D056
:10283000A988890B012901D100217173F8BDAB7EF4
:10284000E97D012BE3D00023E1E770B5464C254636
:10285000606A803500281DD15420005D00220028C8
:1028600017D06420005D8008C00712D0A96888884E
:10287000800B01280DD13D48C07D4008C00708D01D
:102880003A48203080690068002802D02962A86098
:1028900000E02A6239488047616A002903D1296A29
:1028A000002900D0A96070BDF8B52F4C34492046EE
:1028B0004030027D002A2FD0807E254680350328B7
:1028C00002D0042803D027E00120E87524E064202A
:1028D000005D8008C0071FD0A8688088800B012891
:1028E0001AD12248EA7DC07D002A13D0C008C00753
:1028F00012D026462036777B88470146394308D1D7
:10290000217D090605D56988890B012901D100219E
:102910007173F8BD8008EAE78847F8BD1248803037
:102920000021C175174800470F494031087126281A
:1029300014D006DC152813D01B280BD01F2804D177
:102940000AE03D280ED047280AD00B4980004018E5
:10295000806870470C4870470C4870470C487047B7
:102960000C4870470C48704760010021C8000021E6
:10297000E004002159490200005502008F3D020089
:1029800075300200152A0200E94300217543002139
:1029900017430021974200211942002110B50C492C
:1029A00088470C4A0621515E002907D0022905D02C
:1029B000092903D0102901D0112907D17721C94352
:1029C000884201DD002801DD7F20C04310BD0000EA
:1029D000A96500008003002110B51048C188104887
:1029E000052918D00F4C21684A0852002260A26BBA
:1029F00052085200A2632160FFF7FCFDA06B0007A4
:102A000008D40120206060600020401C0C28FCDB02
:102A10001420206210BDFFF7EDFD10BD80030021E2
:102A20003F5B000000600440806B0C490007000F12
:102A300048717047094A0A4918235079CB56497E94
:102A4000C018814201DD084602E00F2800DD0F209A
:102A5000D189090909010143D1817047E0020021B0
:102A6000880000210849C979CA08D20708D0C140A6
:102A70000648C90701D0064900E00649491CC16063
:102A80007047002070470000E80000212800002166
:102A90008801000050010000820881079200C90EE1
:102AA0000CCAC078CA40494220318B401A431102F7
:102AB000090A000608437047014908607047000092
:102AC000FC1B002081B001208DF800009DF8000063
:102AD0000028FBD101B0704770470A18DFF800F0FA
:102AE000E56A0210F8B5040000F08F802568E878E8
:102AF0008DF80000684629798DF80110FFF7EEFF88
:102B0000A86808B142490160E86808B1414901601C
:102B1000414E2878307006F13C0769783F48717063
:102B200002883F490A806879387006F16800A979FF
:102B3000797005F130010A7802724978394A417298
:102B40003A62A1680A78F270A16891F82C200270AC
:102B5000A1684A6872608B68B360CA68F2600B69EA
:102B60003361CA69FA610B6ABB618A697A618B6AEF
:102B7000BB624A6A7A6200220B6B4360C26048699A
:102B8000706160680168B1612A69F26269693163E4
:102B9000AA697263E969B1632A6A7A60806810B9C8
:102BA000C046C04600E030626068C06810B9C046E8
:102BB000C04600E070626068006910B9C046C04657
:102BC00000E0B0626068406810B9C046C04600E0EE
:102BD000F0612869F062696AB960A86AF860E96A18
:102BE00039610121E0688268106800F01FF8E06830
:102BF000C06810B9C046C04601E00B490860E068F3
:102C00004168006800F020F8F1BDC046C046F1BD43
:102C1000653D02009B3D020064270020D82B002068
:102C2000DA2B002084230020D4340020020008BFC7
:102C30000248034A1170034908607047FB720100A3
:102C4000002C002060270020024A1060024801602A
:102C5000704700BFE84C0020EC4C0020F0B5DFF8D6
:102C60009863DFF898430546307885B0800000F01F
:102C700098FD0100A0600BD04FF6FF77384601F0B9
:102C80002BF83078800000F08CFD0100E06001D16D
:102C900013201DE0384601F01FF80FF2804001902C
:102CA00010210091072304F11402DFF854131020BF
:102CB00000F051FF064600F0B4F907200090012211
:102CC000D04B0FF26C30E62101F02FF82570F0B2F6
:102CD00005B0F0BD18B5010085B00FF25430CA4BF5
:102CE0000DD0CA4A00911160002404940394029408
:102CF00001940122F82101F018F8002008E000F00A
:102D00008DF8009130330222FD2101F00EF80120F0
:102D100006B010BD2DE9F84787B00C469246002654
:102D2000DFF8EC820FF208390FF21833B34D10B10F
:102D3000012821D031E005F11001AA1C059106926D
:102D40000122AF68049003960296019440F221118B
:102D5000C3A0009000F062F9022C4DDA20004BD0A5
:102D600005985146224601F0DFF80698048097F84E
:102D70000200F8B9BEA023E005F111012A1D05915A
:102D800006920122D5F80C70B7A00496039602961D
:102D9000019400904FF49671DCE70090049603963E
:102DA00002960196434603224FF4987100F036F9DB
:102DB000022030E001280CBF0FF2D0200FF2E420F7
:102DC000019004960396029608F128033888009033
:102DD00001224FF4A17100F021F90FF2910002904D
:102DE000072229780191009205F114030599002228
:102DF000384601F0EDF80DE00122029201920496AE
:102E00000396009408F1540303224FF4A87100F0D4
:102E100005F91826304608B0BDE8F0870021049176
:102E2000039102910191704710B542F6021304E03C
:102E300041680A889A4216D1103801780229F7D0E1
:102E4000102910D1D0F80440ACA11022204601F086
:102E500017F948B15FF01002ACA1204601F010F95B
:102E600008B9012010BDFF2010BD00002DE9F14F71
:102E700086B089461298BDF840400FF2B41ADFF8C8
:102E800094B15E4E059090461D464846FFF7CCFF34
:102E9000002710B101281FD02AE0768805990490F8
:102EA000039102944FEA0B036DA200F044F840F244
:102EB000BB11504600F039FFBDF840309E4223DA86
:102EC00000F033F80BF13C03032240F2D1115046DD
:102ED00000F02BFF072724E0B6880599049703919B
:102EE00002945B4660A200F026F84FF4E371E0E73D
:102EF00000F01BF85FF003026FA340F2CB115046C5
:102F000000F013FF0A200DE01199F01A8142A8BFCA
:102F1000F11A29804046D9F80C102A88194401F08A
:102F200003F8384607B0BDE8F08F0497039702977F
:102F3000019700977047BDF8180000920190012298
:102F4000704700002DE9F0430F4685B004463878FD
:102F50000FF2DC0915469846022801BF78680188FF
:102F600042F60212914236D10D98FE280CBF0FF2A4
:102F700064160FF27C163846FFF756FF00210491C5
:102F800003910296009001940122234B40F2FD111F
:102F900000F044F8BDF83010009103200190434642
:102FA0002A463946204601F09FF85FEA000910D111
:102FB000164E306800281CBF4068002809D03846EB
:102FC000FFF732FF0146204634682B4665684246CB
:102FD000A84748460CE03846FFF726FF00F021F8E6
:102FE0000090032234A34FF4057100F017F80A2073
:102FF00005B0BDE8F0830000C10F0020001C0020D8
:10300000A5C301000C02000030020000543D002066
:10301000880200001403000074030000484600F01A
:1030200084BE00200490039002900190704700003D
:10303000627574746F6E5F736572766963652E6313
:1030400000000000536574506172616D65746572B3
:10305000203A202573206C656E3A2025640000001C
:10306000425554544F4E3000425554544F4E310047
:103070001B5B33336D4E6F74692F696E6420646916
:103080007361626C65641B5B306D00004E6F746928
:103090006669636174696F6E20656E61626C6564F8
:1030A00000000000496E6469636174696F6E206599
:1030B0006E61626C6564000041747472696275745B
:1030C0006520776173206E6F7420666F756E642E55
:1030D000000000002D20726573746F72696E6720A6
:1030E000626F6E6465642073746174650000000033
:1030F0002D204F5441207772697465000000000054
:10310000000000B000405104211100F00000000058
:10311000000000B000405104221100F06D2E0000AC
:10312000452F000000000000EFF31180DFF8141AB3
:103130000A6882F31188704780B5FFF7F5FFADF894
:10314000020003F06BF8ADF80000009802BD01B575
:10315000BDF8000003F065F8BDF8020080F31188A7
:1031600001BD38B5DFF8604A207801282DD0DFF89E
:103170005C0ADFF85C2A80088000121AA261012133
:103180002170024602E0002342F8043BA3691D18A7
:10319000AA42F8D39B0800EB8302002142F8041CEA
:1031A000E8230360A16989088900EC39C0F8E810B8
:1031B000606100F1E801A160002000F007F8E06024
:1031C000A1696069A060091F216131BDF8B50026C1
:1031D0000027051D15F003001CBF2D1D2D1AFFF73C
:1031E000ABFF0146DFF8E029112D34BF9468D468A5
:1031F0002068002803D580F0004000271AE03B003B
:1032000014D0D6F800C023686344AB42336011D3B6
:1032100034461846ECB1401B042811D3605145F0E8
:103220000040206013695D1B156111E0A842F1D2D6
:1032300001272646044420680028DAD1002408E04B
:10324000136920681B1A1361256845F00045256045
:10325000241D516000F03BFC2046F2BD10B5044631
:10326000FFF76AFF54F8042CDFF85C1922F00042E3
:1032700044F8042C0B69D2180A61221F8B689A4209
:1032800038BF8A604860BDE8104060E72DE9F04132
:10329000FFF752FFDFF83029D3680024002500260D
:1032A000002709E00E4601251C4604E011D581F0F7
:1032B0000041002547460B441968B046BE4238BF5E
:1032C000B8460029F2D15060FFF741FF4046BDE803
:1032D000F081002DE6D0D4F800C08C44C4F800C0C2
:1032E0008E19E8E710B50446DFF8DC088169216033
:1032F00000696060FFF7CAFF09282CBF083800206A
:10330000A06010BDDFF8C0180A69121A40F22D1330
:103310009A4228BFFFF75ABF0020704780B5FFF7D9
:1033200020FF4BF6BE2002BD08464FE7084695E752
:1033300002B56846FFF7D6FF01BD0120704770B5A2
:103340000446FFF7F9FE0022DFF834591601A959A7
:1033500049B18C4203D0521C032AF7D303E0FFF794
:10336000F6FEA81970BD21E070B50546FFF7E4FE32
:1033700004460021DFF8080900EB0116306828B187
:1033800085420DD0491C0329F4D30EE00021B06022
:103390003173356002F0D0FB706008B903F0D2FCE5
:1033A0002046FFF7D4FE304670BD2046FFF7CFFE23
:1033B000002070BD38B50446FFF7BEFE0025DFF8DB
:1033C000C4280C216943515A39B18C4203D06D1C79
:1033D000062DF6D301E000F09DBBFFF7B8FEFF20FD
:1033E00032BD10B504462088FFF7E4FFFF2802D164
:1033F0004FF0FF3010BD0C21DFF8882848431044FF
:10340000816811B96FF0010010BD2046BDE8104081
:10341000084702460FF6B400104710B50020DFF849
:103420006018002300240201401C8B500A4403282A
:103430009460F8D30020DFF84C1800220C2343439B
:10344000401CCA520628F9D3BDE8104089E62DE990
:10345000F04F89B08246884603F04FF88146002736
:10346000DFF824580FF65C0603E05846FFF76FFEBE
:103470007F1C47451ED2684603F0C4FA0AEB0711C9
:1034800028464A6803928A68059200220B680193D5
:10349000C96802910096694603F0D2FA040007D089
:1034A000FFF74AFE83462046FFF75EFF0028DCD187
:1034B00003F048FC484603F022F809B0BDE8F08F5D
:1034C000F8B56846052141604FF480528260DFF80C
:1034D000BC17DFF8BC270091C2600121FFF7B7FFDE
:1034E00005B000BD38B504460D46FFF725FE0021A6
:1034F00045F80C1C226812B9256006E00A4652F80D
:103500000C1C0029FAD142F80C5CBDE832401EE6E2
:1035100080B503F023F8FFF712FF10B96FF0040035
:1035200002BD816809B9022002BD00F0BFFB002086
:1035300002BD06280ADA0C22DFF848375043185A31
:1035400000281CBF4FF6F872904202D14FF0FF30B6
:10355000704708800020704730B5DFF838572A6878
:103560000C464FF47A71A1FB0001002303F0EEFB3F
:10357000002902D8B0F1004F02D36FF0020030BD35
:103580002060002030BD0146886849680847F8B5CA
:1035900005460E4602F0E2FFFFF7E6FE04001BD0F0
:1035A000FFF7CAFD014600220C27DFF8D836574343
:1035B0003B44188818B1521C062AF5D30CE04FF68C
:1035C000F870002718805C609F602A706068306027
:1035D00000F07DFA0020F2BD03F0B4FB00BF0C3810
:1035E0003CE670B5044615461E460846FFF7E2FE67
:1035F0000146FF2902D14FF0FF3070BD33462A4605
:103600002046BDE87040D0E07CB50546164600F087
:10361000E7F8040010D128886946C0B2FFF789FF97
:1036200028B13068FFF7DBFF6FF0050076BDBDF80D
:1036300000002880FFF76CFF204676BD38B586B0C5
:10364000044602F08BFFFFF77AFE054601F0C0F951
:10365000002818BF012800D015B96FF0040027E03A
:1036600054B900200090287B20B314F1010F10D131
:10367000686801F09AF926E014F1010F08BF4FF0D5
:10368000FF30EFD069462046FFF766FF0028EAD0FA
:103690000EE01022002102A803F070FC0146204633
:1036A00000F0D4FA686802A901F063F958B101206A
:1036B00007B030BD009B68684FF00042002102F067
:1036C00092F90028F3D00020F2E780B54FF00041D6
:1036D00002F0EFF9002002BD2DE9F84F38288046AE
:1036E000894616461F466FF0020A2ED102F036FFB9
:1036F0008346FFF721FD04460021DFF8840500EB37
:103700000115286828B183451AD0491C0329F4D330
:1037100012E0A86001212973C5F800B01C20FFF752
:1037200055FD686018B903F00DFBBDE8F28F00226B
:10373000002101F00DF903E02046FFF708FD0AE043
:103740002046FFF704FD2C4604E002F007FFFFF7D8
:103750000BFE04460CB95046E7E7FFF7EDFC0146C7
:103760000022DFF820350C25554303EB050CBCF88F
:10377000000030B14546854211D0521C062AF2D3D2
:10378000D1E7ACF80080181D4451CCF80890327095
:10379000084662683A60FFF7DAFC0020C5E7084691
:1037A000CBE713E55AE5ADE59CE52DE9F84300F0DC
:1037B00045FABCBF0446062806DAFFF7BDFC00F058
:1037C00036FA19B9FFF7C3FC404607E0FFF7BFFC24
:1037D00000F023FA786800F069FA0020BDE8F2836F
:1037E0002DE9F04106460F46904602F0B7FEFFF77E
:1037F000A6FD050008BF6FF004001BD0FFF79CFC7E
:10380000A968002441B10C46A4F10C0100230A6808
:10381000AA60FF250B608D72FFF799FC0CB902209E
:1038200008E0A4F10C000179317040793870C8F8D3
:1038300000400020BDE8F08182B001208DF800003A
:103840009DF800000028FBD103F07CFA00BF01F0D6
:103850004DBF00B5DFF83C2413686FF00040A0FBBB
:1038600003014FF47A72002303F070FA002902D8A2
:10387000B0F1004F01D36FF0004000BD7CB50C46A5
:1038800015461E466946FFF767FE30B90098334675
:103890002A46214600F002F8002076BD2DE9FE43BD
:1038A0001D4680462C680E46174614BB0C20FFF7B9
:1038B0008DFC04006FF0030915D0684602F047F84C
:1038C00000208DF800000190029400236A464146D2
:1038D000DFF8C40302F04CF8206030B9FFF7ACFF0A
:1038E0002046FFF7BBFC484617E06660A7602C60E7
:1038F0000BE0DFF8A863306880470546206802F0D7
:103900000AF8A760284671688847206841468160A8
:10391000C046206801F0F7FF0020BDE8FE830028C4
:103920001CBF006801F0F7BF7047E0B58DF80400D8
:10393000684603F059FB9DF805000EBDE0B5019007
:10394000684603F087FB0EBDE0B50190684603F0C2
:103950008BFB0EBD2DE9F04788B08246894615469F
:103960001E4602F0FBFDFFF7EAFC002102910191E7
:10397000074601F02DF8002818BF012800D017B91C
:103980006FF0040090E0BAF1000F16D10020019012
:1039900001F0ACFE01460198DDF840804018397B0B
:1039A0000124002931D01022002104A803F0E6FAF6
:1039B0000146504600F04AF914E01AF1010F08BF21
:1039C0004FF0FF30E3D001A95046FFF7C5FD0028B6
:1039D000DED069E0039902A8FFF784FD786800F063
:1039E000C3FF0124786804A900F0C3FF002846D172
:1039F00000F068F80400F4D100F05FF80028E9D185
:103A000000F055F80028E5D02EE0824618E0039932
:103A100002A8FFF767FD78684FF0005102F049F8FF
:103A20000198012410F1010F18BF002808D001F0FF
:103A30005DFEBAEB000022D0019981421FD30190B4
:103A4000019B78684FF00052002101F0CCFFB0B12B
:103A500000F038F80400E3D100F02FF80028D6D1A8
:103A600000F025F80028D2D015B1BDF8020028805A
:103A700016B19DF8000030700399C8F80010FFF7E8
:103A800047FD029DFFF758FB014655B12A4600E06D
:103A9000024652F80C0C0028FAD1B86842F80C0C17
:103AA000BD6000F014F8204608B0BDE8F087039A26
:103AB0009DF80010BDF8020048479DF801000DF187
:103AC000020136E503AA69460DF1010088E60846C1
:103AD000FFF73DBB38B502F041FD044600F078FF2A
:103AE000002818BF012813D0FFF726FB0025654AE0
:103AF0000C236B43D15A49B1D11849680B68A342D2
:103B000003D06D1C062DF3D300E003E0FFF71FFB8D
:103B1000FF2032BDFFF71BFBE8B232BDE0B5ADF8C8
:103B200000008DF8061000205D490A68ADF802001B
:103B30006846904710B99DF807000EBDFF200EBDE6
:103B400000000000602000001078422801D1012010
:103B50007047002070470CB478B504460E4687B015
:103B600000F036FF0CAD002814BF0128FFF764FEFB
:103B700014200021FF22ADF8100002918DF81220D0
:103B800006960595FFF7A6FF05AB03222146FFF732
:103B900028FD002001A90190009100230022414945
:103BA00041F28830FFF7D6FE012805D020B90198F0
:103BB00020B1FFF714FD01E0FFF73EFE0598006815
:103BC00008B070BC5DF80CFB503F002093560020FD
:103BD000FF3301202DE9F84300F030F8BCBF044664
:103BE000062806DAFFF7A8FA00F021F819B9FFF75E
:103BF000AEFA40460FE0FFF7AAFA00F00EF8796837
:103C00004868097B11B100F0AFFE03E04FF00051AE
:103C100001F04FFF0020BDE8F283A9F10800047015
:103C200045708670494678680830FFF75BBC0C2207
:103C3000144B12FB07F7DF19796870470D462F46C2
:103C4000164699466FF00208062F7047F8B50446ED
:103C50000D46012000F044FCD5E900674FF47A726C
:103C6000B4FBF2F0002136184F41C5E90067AB689C
:103C700002FB10440C4800FB0434AC60F1BD0000B2
:103C8000D83E0020083F00201334000019CB01006B
:103C90009C1F00201C21000087350000181F0020F9
:103CA000201F0020493B000040420F004268007B7B
:103CB00000281CBF104600F057BE4FF000411046D0
:103CC00001F0F7BE6963616C6C000000E333000033
:103CD000393100004F31000038B54FF6FF74A04273
:103CE0000DD10020094A0025137898420DDA21F8F9
:103CF000204001EB8003401C9D70C0B2F4E703F04C
:103D0000CBF910B104800021817031BDC10F0020BA
:103D1000EFF3118075490A6882F31188704780F3C8
:103D2000118870477249886070472DE9F34F81B060
:103D30000C9F0D9D0E9EDDF83CA0DDF840B0904636
:103D40009946FFF7E5FF009000246A486849036838
:103D50004A7896462820DFF8A0C110FB0EFE0CEB37
:103D60000E0003608B88C3845B1C8B80019B4360C7
:103D7000029B8360A0F82480C0F80C900761456125
:103D80008661C0F81CA0C0F820B08878002802BF67
:103D90000B789A420124521CD0B2202808BF00227E
:103DA00004B10A70002088704A700098BDE8FE4F88
:103DB000B5E700002DE9F04F4D498868002887B02D
:103DC0000C4630D18EE04832029D019B0095391A95
:103DD00002F0D0FE00F098F80246A068002304F13B
:103DE0000C0103F0B5F90698059903900291CDF8FE
:103DF00000B05346049801904A46A62104F10C00F5
:103E000002F0B8FE00F080F804F10C0108440D2225
:103E100002700A23821C437004F10C00121AA0687D
:103E2000002303F095F9A07800285BD1FFF770FF1D
:103E300022783149282313FB02F30B441D685E6886
:103E40000196521C9F680297D3F80C90D3F810A0EB
:103E5000D3F814B0996904910021DE6905965118D0
:103E60001F6A069701F0E001B3F82480DB8C521A38
:103E70006178D6B28E4204BF0126A670227080F30C
:103E8000118800BF22A2A62104F10C0002F072FEEC
:103E900000F03AF804F10C060644A8B203F060F909
:103EA0000022164B03F06AF90022154B03F066F965
:103EB00003F03AFA009004F1B2072B0C16A2B91BDA
:103EC000304602F057FE00F01FF804F10C01B8F183
:103ED000020F08440B4A03D0B8F1030F01D072E778
:103EE000243271E707B0BDE8F08F000060200000C9
:103EF000A026002030200940D84700200000F03ED6
:103F000000408F402C22000004F10C0003F028BA7E
:103F100023253036752000005B2025642E253033A4
:103F200075205D200000000062B38B0708D0521E90
:103F300011F8013B00F8013B00F024808B07F6D11B
:103F4000830740F0208000BF103A07D330B4B1E8B7
:103F50003810103AA0E83810F9D230BC530724BF0B
:103F6000B1E80810A0E8081044BF51F8043B40F83D
:103F7000043BD20724BF31F8022B20F8022B44BFA8
:103F80000B7803707047121F17D35B0009D151F8EB
:103F9000043B20F8023B1B0C121F20F8023BF6D218
:103FA0000BE051F8043B00F8013B1B0A20F8023BF0
:103FB0001B0C121F00F8013BF3D238BF121D521E1A
:103FC00024BF11F8013B00F8013BF8D87047232AC1
:103FD0002DE9F04F002485B00D46002818BF002DB4
:103FE00003D013B1109F390001D1022042E00F9E8F
:103FF0000495A14683468DF80820039333E05FFAC9
:1040000089FA3BF82A004FF6FF7188421EBF0BEB7E
:104010008A05A878002824D0049ABDF8381003989F
:1040200003F0B9F95FEA00081BD0A878C1070AD5E8
:10403000019700969DF808203BF82A00434601218D
:1040400003F03CF80443A87881070AD5019700964D
:104050009DF808203BF82A004346022103F02EF881
:10406000044309F1010905490A785FFA89F0904291
:10407000C5D3E0B205B0BDE8F08F00BFC10F00208E
:104080000300002013F0030F09D0521E22BF13F8C3
:10409000010B11F801CBB0EB0C00F3D0704711F01D
:1040A000030F14D1121F22BF53F8040B51F804CB95
:1040B0006045F7D0121D0AD200BA9CFA8CFCB0EB16
:1040C0000C0038BF6FF0000088BF01207047521EFF
:1040D00022BF13F8010B11F801CBB0EB0C00F6D0A6
:1040E000521C08BF10467047F8B5044606980D46A6
:1040F0000026E0B9022B18D111780798527801EB0D
:104100000227C04307420ED1EA681168204603F037
:1041100052F9B8420CD0E86801683A46204603F0EC
:1041200050F9064604E0802602E00D2600E00B264A
:104130003046F2BDEFF31180202102E0EFF3118051
:10414000002181F31188704780F31188704710B502
:1041500000F006FF01F0F3F800F016F8DFF8604613
:1041600004F10800A06602F0CDFC01F091FA02F023
:1041700043F802F07DF901F003FD00F027FE01F0A5
:104180006BFA0120207010BD10B5DFF8384694F8A6
:10419000080160B9012184F8081101F05DFA0021DD
:1041A00004F59A7001F05AFADFF81C16086010BD89
:1041B000FEB5044613B901F0CCFB10E06D460020BB
:1041C0000026002785E8C100986802901D788DF8C8
:1041D0000050586801906B46204601F0BAFB20461B
:1041E000FEBD01F0D5BB00F003BC0A20704701F012
:1041F00098BB007D70470021816084E0816070473A
:1042000001F081BB01F045BB401D0A21B0FBF1F07C
:1042100002F027BA00F026BFF8B51C0086B00546AC
:104220000E46174603D1002300F0E6FD0BE000F038
:1042300012F8206801906B46606804903A4600F0DE
:1042400004F800F0D9FD07B0F0BD207A8DF8080021
:104250003146284670476846DFF8BC151822FFF73C
:1042600073BE00F0FABD65E700F0B6BE00F0D6BE42
:10427000DFF8500590F8F41001F0CCBF10B5FFF74F
:1042800059FF0446FFF760FF601E8041C00F10BD5C
:1042900000F03ABF70B501F03FFB6560266071E148
:1042A00000F022BF002101604FF0FF320123426085
:1042B0000372704748E7FEB50446684600230025B0
:1042C000002680E8680001278DF800706A462046C5
:1042D00001F0E6FE2046FEBD3EB569460022002301
:1042E000002481E81C0001258DF80050DFF8DC2453
:1042F00001F0E6FE3EBD80B50090684601F0F9FE93
:1043000001BD01F0EABE01704160704780B501F067
:1043100028FE00B953E0002002BD01F083BE002159
:1043200001604160C1604FF0FF318160704778B536
:10433000140085B005460E4603D1002201F0BDFFF2
:1043400013E0A068062804D310F1010F18BF002065
:104350000BD101F0C4F9206801906A4660680290B0
:10436000314600F004F801F0A8FF06B070BDE06827
:104370000490A06803902846704702F043B800F00C
:1043800089BF01F095BFDFF83C0490F8F4100129D3
:1043900001D1012070470020704701F0F0BF01F00B
:1043A000C3BF01F03EBF062902D311F1010F01D1B5
:1043B00001F0F4BF704703F017F8162101604FF0C9
:1043C000FF3002BD30BF7047FCE738B503F016F888
:1043D00003F099F803F0B8F8044604F00C000C2838
:1043E00002D1AFF300803AE060071DD401F087F9F5
:1043F00005460121012003F0B1F80A2169438842F2
:1044000012D2DFF85C44183D656104F10C0001F044
:104410007AFAAFF30080012003F038FAAFF300809E
:10442000002084F820001EE0AFF30080200716D49F
:10443000DFF83014DFF830040A68936898470428DE
:10444000F6D0E10600D408B9012000E0002003F016
:1044500040F8DFF8180401210160006801E0FFF76F
:10446000B3FFAFF30080BDE8314002F0CBBFDFF80F
:10447000540390F8AC10012280F8AC200123DFF83F
:104480001424116090F8141180F8143151607047B1
:1044900010B5DFF80044606801F0C3FE206801F049
:1044A000D9BE0000DFF8F013C20744BF01230B6040
:1044B000820744BF4FF480730B60400744BF4FF442
:1044C00080320A60704710B5DFF8D023C30748BFB9
:1044D0001160840748BF5160400748BF916010BD1C
:1044E0002DE9FF4102280D460DD0012804D002F02D
:1044F0007BFF00F063FA42E0684600F0D4FA019ACC
:104500000298002337E0FFF715FEDFF894430646D4
:10451000207878B100234FF0FF320FF27101201D97
:1045200001F0A6F94FF0FF306061201D01F0BAF9EB
:104530000020207000F032F88046E46A01F09BFD14
:10454000DFF86C63DFF86C03B8FBF6F206FB128849
:1045500000FB04883046B8FBF0F00023002112185D
:104560004B414AF2C5776743D21906FB10864B418F
:1045700042F210707043C5E90023A860002004B027
:10458000BDE8F081BDE87040FFF7DEBD10B5FFF774
:10459000D1FD044600F002F802F03CB880B501F00D
:1045A000A5F8DFF8FC128A6A904202D2CB6A5B1C43
:1045B000CB62886202BD0CB42DE9F84FDFF804A28B
:1045C00005469AF8F400002684B00F4602280CBF76
:1045D0004FF00108B0469AF8AC00DFF8DC42012148
:1045E0008AF8AC100090206838B90AF5A87B002141
:1045F000584600F02FFFC4F800B0009801F07FFF8C
:10460000B9050EA803D546680EB90AF5BC76280090
:1046100000950AD002F0A4FE8346B8050AD5716859
:104620000129A4BFB068012804DA02F0DDFE1621DA
:10463000016078E00020B8F1000F019003D02068FD
:1046400000F022FF8146009800F0D2F8050008D063
:1046500007F42060B0F5206F09D102F0C5FE1121EA
:1046600059E0B80503D402F0BFFE022153E001ABCC
:104670000022082100F0DAF85FEA000A48D045BBC2
:1046800001AB0022242100F0D1F805003CD001202C
:10469000E8610BF1010BB168696101AB70682861D9
:1046A0000022594600F0C2F8286258B3009903F07E
:1046B00045FB7168B06801AB002201F0C5FBA86042
:1046C000D8B100216960606800B14560286065600C
:1046D00002E0E869401CE861B8F1000F03D02068EF
:1046E000494600F0E9FEBF1307F00107CAF8005081
:1046F000BF03CAF80470504617E0296A11B15A4640
:1047000002F0FBF900F0CEF80822514600F0CCF898
:1047100002F06AFE0C21B8F1000F016003D020689E
:10472000494600F0C9FE4FF0FF3005B0BDE8F00F7C
:104730005DF80CFB70B500F017F804D202F054FEDF
:104740007A2101600EE04068420448BF0023A0685F
:104750001A4601F0CFFA08B1656903E002F044FEA1
:104760000B210160284670BD046866694FF0FF3375
:10477000B2421D46704738B500F01BF806D200F073
:1047800014F80FD102F030FE7A210AE000F020F890
:1047900001F0D8FA38B900F008F803D102F024FE8D
:1047A0000B21016021E0002032BD94F8F4000228C2
:1047B00070470368034C5D69954270470000000034
:1047C0006834002078240020B44700201C260020F4
:1047D0004068420403D494F8F400022801D0002277
:1047E00001E04FF0FF32986870474FF0FF3032BD64
:1047F00038B50546DFF8C000446800E024683CB1E5
:10480000206A294603F0A6FA0028F7D1204632BDD7
:10481000002032BD000000006453000068460249D9
:104820002422FFF791BB00BF20210000002002F0EE
:104830004BB910B5DFF8141191F8AC00012281F8E2
:10484000AC20DFF8A8110C680CB122680A6001F0F6
:1048500056FE1CB12046BDE8104009E010BD000026
:1048600040280020D8010010004003402C200940BF
:1048700010B5044604F1100001F02FFCE06818B1F7
:1048800004F10C0002F007F92146BDE81040502267
:1048900001F029BB5046002004200940182009409F
:1048A0002826002024222946002002F026B90000F4
:1048B000A0860100E006010058460020204601F0D5
:1048C0001EBE0446002101F04CBB2DE97F430E467D
:1048D0001446B268DFF88457AA4203D26946FFF74C
:1048E000FFFD10B14FF0FF302CE0D6E90023DDE9E9
:1048F0000001DDE90089101A63EB01014B450ADB79
:1049000001DC424507D3B268029B002908BF00289A
:1049100003D1934201DB002112E0D21A44BFAA184E
:10492000401E02F2E7324FF47A7192FBF1F1093145
:104930000A22DFF82C37B1FBF2F103FB0011491C0E
:104940002160002004B0BDE87083000078240020BE
:1049500080B51146B1F5803F01D3FFF72CBD002291
:1049600001F09EFB002002BD80B501F05BFB002042
:1049700002BD38B50D46FFF7A4FFA0B96A46294627
:104980000120FFF7A2FF18B102F02EFD162107E06B
:104990000099204601F0E5FA28B902F025FD9121A1
:1049A0000160FFF722BF002032BD80B500F002F8A1
:1049B000002002BD4FF0FF3101F0D3BA1621016093
:1049C0004FF0FF307047DFF880080178FDE7000006
:1049D000DFF87C0890F8F4007047DFF8742801468F
:1049E00092F8F40082F8F41070470000604600204E
:1049F000DFF85818D1E90023C0E900237047000010
:104A000000BFDFF84C08D0F8FC100847DFF840186A
:104A1000D1F800211047DFF8380890F8141101226E
:104A200080F8142190F8AC1080F8AC200320D4E773
:104A300010B504460320FFF7D0FF204602F07BB8F4
:104A400080B5DFF804080178012901D0FFF7BBFF2A
:104A5000DFF8040802F05CF8FFF770FB002001F0BB
:104A6000E0FBBDE8014001F01BBD10B588B001A816
:104A70000FF23C311C22FFF767FA022200218DF869
:104A800004200A248DF810100091039401ABDFF884
:104A9000C427DFF8C80700F017F908B010BD0146B9
:104AA000DFF8B807F4E07FB501F058FA054668462C
:104AB00000F025F8DFF8A817DFF8A0654868206047
:104AC000019B88680A681B1AD21862600298CB683A
:104AD0001B18B34203D3DFF89007521CC318A3601E
:104AE000626008698218626009688A4202D220689E
:104AF000401C206001F07DFB002004B070BD1CB59F
:104B00000446DFF8600701680A6B90470191009046
:104B100000200199616020600099090C0091009AC1
:104B2000DFF83815A1FB0201000C40EA0140A0604B
:104B300013BD20B502460020D2E9102347F690614C
:104B400002F004F90125A94228BF4FF0FF3020BD33
:104B500038B50C4602F052FC050018BF0125DFF8FD
:104B60000C070068811D201AB0F1004F05D8081B02
:104B7000B0F1004F38BF8C4200D20C4621460120D4
:104B8000FFF7A1FCEDB20DB9FFF76DBC31BD2DE90A
:104B9000F84C05460C46D5E910ABD5E91267AAFBDF
:104BA00004010BFB041136184F41340C002244EA77
:104BB00007412846FFF7CCFFC5E91467BDE8F18C33
:104BC00038B50546FFF7B6FA6D690446B5F5802F8E
:104BD00034BF04252D0CDFF8940600684519012028
:104BE000FFF760FC29460120FFF76DFCDFF8842603
:104BF00013681D6823210020A847DFF87C160120D8
:104C00000860204600F0B0BFDFF8580601680A6B64
:104C10001047000010B504460120FFF743FCA069CF
:104C2000E169BDE8104008472DE9F047074601203B
:104C3000FFF738FCD7E91601D7E91025002610EB5D
:104C400002084D414FEA184040EA054AD7E91449A5
:104C50004FF0FF304FF6FF7108EA000205EA01034A
:104C6000204009EA01018B4202D82CBF8242012672
:104C7000324651463846FFF76BFFD7E91601C7E9C0
:104C80001401C7E91685B869F969BDE8F047084716
:104C9000F8B504460D46FFF7B7FFD4E91067324672
:104CA0003B4602F053F83DB1A6FB002306FB01335F
:104CB00007FB0033C4E91223F2BD80B5FFF73AFACF
:104CC000FFF742FA002002BD2DE9F84187B0054602
:104CD0000F4690461C46FFF72DFADFF89465B16841
:104CE00011B1FFF731FA30E0B560FFF72DFA0CB9DA
:104CF0000FF2BC04EF60C5F81C804FF4803160688F
:104D0000A86169620020286200220023C5E91223FD
:104D1000217BA06801290CD168610021A068C5E948
:104D20001001227868690021022A0CBF0246002285
:104D30000DE001460020DFF8AC2302F007F8012265
:104D400091426861EBD3C5E9100100202CE0C5E970
:104D50001421C5E91601182201A8DFF82415FFF770
:104D6000F3F8029501AB2078DFF8101500910028C8
:104D70000CBFDFF81025DFF81025142105F12800FD
:104D800000F059F804462846FFF797FF287C10B931
:104D90002846FFF715FF2CB12946304601F08DF863
:104DA000284601E00020B06008B0BDE8F0810000B6
:104DB0000000000000000000E80300000000000008
:104DC00000000000000000000000000038B5DFF81F
:104DD000804404F18405287F68B901212977FFF711
:104DE000A9F9E16F2868C90800EBC1010839A1677A
:104DF0004FF0FF31A16631BDF8B5DFF85464DFF83C
:104E00008C740446D6F89C000D4650F82510B94223
:104E10000DD106F5D27000902946204600F00BF81F
:104E200040B1D6F89C0050F82510B94201D10020BD
:104E3000F2BD2046F2BD1CB504460BB9DFF8403484
:104E400004980090204600F00AF8010003D02046A4
:104E500000F06DF80024204616BD002167E0F8B58B
:104E60001746069CDFF82824362905461E4602DB35
:104E7000002300930DE0DFF8D803E981D0F89C30DF
:104E800053F82100DFF80434984209D0002300933E
:104E900028320B460021204601F006FE0120F2BD1B
:104EA000084600F099F86F6070682860306910F16A
:104EB000010F08BFFF2028730021307A00B10121C3
:104EC000307D08B141F00201A9602846214600F07A
:104ED00003F800B1801CF2BD38B50446217AB4F95C
:104EE0000E008A07054602D5217B202907D261687A
:104EF00000F0C7F8B4F90E004042E0810AE0DFF8A4
:104F00005013D1F88C00DFF8081440F825402846EB
:104F100000F0B7F8217B284600F0E6F8207AC107B8
:104F200044BF284600F07AF80020A06032BD012975
:104F300000D1704710B5B0F90E40002C48BF644254
:104F4000204600F049F8DFF84413204600F099F8B5
:104F5000DFF8FC12D1F88C20002042F8240010BDAC
:104F600070B5FFF7E7F8DFF8AC33DFF8AC03DFF834
:104F7000AC13DFF8AC23DFF8AC430A601B1A8B607C
:104F8000DFF8A433C868186002461D68A5420FD038
:104F9000002554F8256040F825606D1C0F2DF8DBC6
:104FA0000F20DFF8E84242F82040401C3628FADBA8
:104FB0005C68DFF8780324F47F4404195C600A62BB
:104FC000202199764FF40070D860DFF8040401685E
:104FD00021F04041016070BD10B50F2811D9A0F13A
:104FE00010011038012200F01F00DFF8E833DFF86D
:104FF000E8434909824053F8210044F82120104039
:1050000010BD09D1DFF8D41308680A6822F0020243
:1050100000F002000A6010BD002010BD0F280FD95B
:10502000A0F110011038012200F01F00DFF8A433B6
:105030004909824053F8210043F82120104070476D
:1050400009D1DFF8981308680A6842F0020200F0FC
:1050500002000A60704700207047000000CA9A3BB7
:10506000A086010010280BD300F1F002012102F00C
:105070001F02DFF8403410389140400943F82010F7
:105080007047DFF8CC21D2F8883003EB800002684B
:105090008A4218BF0160704710B5DFF8B441A06FB5
:1050A00002F072FE0021A16610BD70B50246DFF865
:1050B0006C02836853600468946025462878BE2893
:1050C00003D001200023136070BD00200029F9D017
:1050D00015F8016FBE2EFBD064422919491E5B1AD8
:1050E000F1E7000040420F00102805D3DFF800244C
:1050F000104400F8101C7047042804D3DFF8F42390
:10510000104400F8041C7047102803D3DFF85C1427
:1051100010380860704710B54D4B0FF2150401228E
:1051200083F86C2014B1BDE8104001E010BD000010
:1051300018B50446DFF83814486801229FB00A7099
:1051400008B901AA4A60204600F014F80320FFF7CE
:1051500044FCDFF88004DFF880240368A06B009033
:1051600003F0FF030F2B28BF383201F03AFA20B0CA
:1051700010BD0000F0B5364C226F04F1F405014675
:105180002E78167000230E6A166100204F6A576150
:105190008E6A9661CF6AD7610E6816624F68576251
:1051A0008E689662CF68D7620E6916634F6957633F
:1051B0008E699663CF69D76301F140070E6B166461
:1051C00057644E6B966404F184068F6BD764C96B89
:1051D00011651778032F14D8DFE807F009070210CC
:1051E000B06B5060C36A806A0BE0E86A06E0B068A2
:1051F00001F0FF0150F82110516000E05060E36FB2
:105200003068D0609360616F39B1002804E013F812
:10521000014B01F8014B401EF9D1DFF8B8030168DA
:10522000DFF868045165037893654178D165438858
:1052300013664168516683689366C168D1660369E5
:10524000136740695067F0BD68340020582500207E
:105250007824002035580000174A000070340020E0
:10526000644600208C010010003665C430200940DF
:105270005826002084010010800224431C260020B0
:1052800064530000294C0000154C0000353D02001D
:1052900064200000DFF8A41391F81401012281F8C2
:1052A00014217047DFF8941391F8AC00012281F8C3
:1052B000AC20704700002DE9F04100F04FFEDFF810
:1052C0007C7397F8AC50012087F8AC0097F8146114
:1052D00087F814010020FFF780FB8046D7F88C0088
:1052E000DFF8F0120A6802F0FF0250F82270BC608A
:1052F000FEF724FF386879688847FEF71BFF4046B1
:10530000FFF76BFB06EB0520BDE8F0810000000015
:10531000113C02009056002090520020F4240020FE
:10532000905200209000000008ED00E00000FA0517
:1053300000F0FF0000F091BF000A01F0FBB8F8B5E3
:10534000002101A8FFF7B1FE0398009004E0BE2100
:1053500001700099491C009100986845F7D305B089
:1053600000BD00000000000000000000010000007F
:1053700000000000E00000000100000070B5049C87
:10538000059D069E8908491E40F82140491E40F8A7
:105390002130491E40F82120491E40F82160491E55
:1053A00040F82150491EDFF8482940F82120491EC5
:1053B0004FF0FF3240F8212000F012F800F010F812
:1053C000491E40F8212000EB810070BD0000000064
:1053D00034EF00E000E100E080E100E010E000E0F8
:1053E000491E40F82120491E40F82120491E40F85E
:1053F0002120491E40F82120491E40F82120491E45
:1054000040F82120491E40F82120491E40F8212063
:10541000491E40F82120491E40F82120491E40F82D
:10542000212070477FB504460D46A16A164619B182
:10543000E06ABE2202F0D4FCE16B02913346A06B1D
:1054400001900095A16A626BE06A091FFFF796FF61
:1054500004B070BD10B5044609B90FF2680100F040
:1054600002F8204610BD10B504460022012104F1C7
:105470000C0000F015FE0021A1602146BDE810409F
:10548000DFF8740900F019BD38B504466B4DA0680B
:10549000D5F8BC2090420AD04FF0FF3104F10C0047
:1054A00000F05FFDD5F8BC00A060002032BD0120F7
:1054B00032BD000080E200E019B981600C3000F0DC
:1054C000B1BD70470000000010B504460120A06087
:1054D000002121610022E26004F1140000F002FDCD
:1054E0002146BDE81040DFF8140900F0E6BC0000DA
:1054F00000E400E018ED00E0F8B50646DFF800092A
:10550000046984B09CB16569077801210170B068B5
:10551000012807D10021B1603461F56000F03AFC48
:10552000002020E03069A04203D100F033FC0120CC
:1055300019E0204601F004FA002102940391C4F816
:1055400024D02A46694606F1140000F047F8306975
:105550004069A84203DA3069294601F09DF900F05C
:1055600019FC0020606205B0F0BD000000EF00E013
:10557000E424002070B5DFF888280546106938B3A8
:1055800014780123137009BBE96842699142BCBFDA
:10559000E96801F081F9686905F11401884202D1D6
:1055A0000122AA6012E068690168696105F11402CC
:1055B0004A6086682E617069E860FEF7BBFD0546AB
:1055C0002946304601F0ECF900F013FE00F04FBD23
:1055D00070BD000004ED00E0B820000010B50346E7
:1055E000186800E00068984207D0846864699442B3
:1055F000F8DABDE8104000F059BCBDE8104018468C
:1056000000F046BC10B5044609B90FF22C01FFF7B3
:105610005BFF204610BD10B500F09AFA00F0EEFED8
:1056200018B12146BDE81040ECE710BD0FF20801AB
:105630000A68026070470000000000007824002023
:105640008069FDF771BE8069FDF770BE8069FDF766
:105650006FBE8069FDF771BEFDF760BE10B50446F0
:105660000020A061DFF8B018DFF8B028DFF8B0083C
:1056700021606260A06004F11001DFF8A828DFF863
:105680009409E26000F019FC204610BD28ED00E00E
:1056900018B5DFF8F44994F8650085B0E8B901223F
:1056A00084F865200021204600F01CFC00F0A4FDD9
:1056B00000F015F80520039004F5D2736A460FF246
:1056C000DD0104F1100000F07FFEE064FFF7CDF98A
:1056D000DFF8B809FFF72DFAA06506B010BD6846DF
:1056E000DFF8AC191422FEF72FBC000038B5FEF726
:1056F00021FD04460020FFF7D2F905460EE038B53B
:10570000FEF718FD04460020FFF7C9F9DFF8781905
:105710004D6D2D1A886DA84238BF00252046FEF732
:1057200013FD284632BD38B504460D462146DFF844
:105730005C09FFF72CFADFF850090465456531BDB7
:105740002DE9F8430446DFF840090768D7F80480DC
:105750000D464FF0FF391BE03E463F68307D012883
:1057600016D1012C04BFF168A94209D13069002883
:105770001DBF4118F16030623075F069B16988472A
:10578000307D012804D1F068401B484598BF814610
:105790004745E1D14846BDE8F28300002DE9F843D2
:1057A000FEF7C8FC80460120FFF779F9DFF8D858EA
:1057B00005F15C0601213170002272706F6DAA68DC
:1057C000A968C41B401ABA1A904202D20020307055
:1057D0002BE000F06BF94FF0000907E04F44394629
:1057E0000120FFF7ADFFA4EB090481464C45F5D23B
:1057F000FEF7A0FC80467078012804D139460020CD
:10580000FFF79EFF8146A86D19F1010F05D0A86D25
:10581000A9EB0404A04288BF2046C119FFF783FF0B
:1058200001200021B0703170AF604046BDE8F24306
:10583000FEF78ABCDFF85008C06C00F075BD38B5C3
:1058400004461D46A260002268682061A1612146CD
:10585000A868E0612275DFF8300800F02EFB287898
:1058600018B12046BDE832404DE031BD38B573E196
:105870008260816100220261C36102750146DFF826
:10588000080800F01ABB00008260816100220261FA
:10589000C3610021017570470146DFF8EC07F7E2AC
:1058A00000F019BB70B50446DFF8DC67A068206221
:1058B00006F15C05A978012904BF2878002816D1D3
:1058C0000120FFF7ECF8B168736D0246B0681B1A4F
:1058D000511A8B420BD3A0688118E1600123237514
:1058E000746DA21A90420DD2BDE870401BE7FFF71D
:1058F000FDFEA1680818E0600120207529780129C3
:1059000008BF687070BD38B500F028FB054620461A
:10591000FFF7C8FF27E1BCE704460D461646FEF731
:1059200009BC70B500F01AFB0646207D0025012851
:1059300007D1FFF7DBFEE5682D1A206AA84238BFC1
:10594000002500F098FB284670BD007D704700F0F0
:10595000A1BB10B504460BB90FF20803FFF76FFFA8
:10596000204610BD00000000000000000000000004
:1059700070B504460D4616460022242100F03FFD76
:1059800028B133462A462146BDE87040E1E770BDA4
:105990006CE710B504460022A260002104F10C005F
:1059A00000F0A0FA2146BDE81040DFF8C80984E203
:1059B00038B500F0D3FA0546207C022804D12046F1
:1059C00000F089FA00F0C4FACDE010B5836884686D
:1059D0001A400C408C4208BF0A4312B181689143BF
:1059E0008160104610BD2DE9F0431C4691B0814600
:1059F0000D46174614F1010F18BF002C0CD06B4652
:105A00002246DFF8941908A8FFF73EFF08A90222F2
:105A100003918DF8102004E00020032103908DF8FD
:105A200010100021DFF8D8630695079705913069BB
:105A30000290FEF77FFB80463A4629464846FFF72C
:105A4000C4FF050003D000F031F828462BE01CB954
:105A500000F02CF8002026E03478012030706946F0
:105A60000298416209F10C0000F012FA029800F06D
:105A700070FF039820B1FFF70FFF0398FFF712FFA5
:105A800000F014F8FEF71AFFFEF754FB04460398E3
:105A900018B1FFF705FF0020039000F0BDFA9DF854
:105AA000100000B1059811B0BDE8F0834046FEF744
:105AB0004BBBF8B505460E46FEF73CFB0446A8680E
:105AC0000643AE6005F10C00E968814202D1204630
:105AD00000F08BBBDFF8B00590F8AC6000F01CF86C
