:100000000040022015F9010009BE010009BE0100EF
:1000100009BE010009BE010009BE010009BE0100C0
:1000200009BE010009BE010009BE010009BE0100B0
:1000300009BE010009BE0100C9BD010070B504463A
:100040000E4603F050FA3168002549B111B10A6932
:10005000A24203D009680029F8D101E00D46F9E772
:1000600003F066FA284670BDDFF8082892F83300DE
:100070000021030604D4582010FB01F150187047EA
:1000800092F88B0001210306F5D592F8E3000221D6
:100090000306F0D592F83B0103210306EBD592F855
:1000A000930104210306E6D592F8EB01052103062E
:1000B000E1D592F8430206210306DCD592F89B02B3
:1000C00007210306D7D5002070472DE97043064667
:1000D00014461D4603F007FA6EB1D6E90A232243FF
:1000E0002B43C6E90A23D6E9088948EA040449EA09
:1000F0000505C6E90845BDE8704303F019BA30B5F7
:1001000081B004460D4602F0DDFCA04231BF241A46
:10011000641E241A641CA40805F57A70A04238BF36
:10012000B4F1405F06D2641B012C98BF0124204625
:1001300001B030BD002001B030BDF0B5DFF834377C
:1001400004460025D3F85003012981B024D100E0F2
:100150000068002852D0C668377B07F00F07022FCF
:100160001AD00068002849D0C668377B07F00F070F
:10017000022F11D00068002840D0C668377B07F0F6
:100180000F07022F08D00068002837D0C668377BD9
:1001900007F00F07022FDBD180B3012502B11060F9
:1001A000C268167B06F00F06022E27D1012904D162
:1001B0000169CA68898D511813E0118840F603025D
:1001C00091421CBF40F60406B14207BF01694A696B
:1001D00001690A69498B93F822335118192212FBDD
:1001E0000311406BFFF78BFF20600A20C046216897
:1001F000B1FBF0F0206001B02846F0BD0020206087
:1002000001B02846F0BDF0B581B0044603F06BF9AB
:100210000546002C1CBFA07A002833D0DFF85826F2
:1002200094F9090013680126DF0706FA00F10ED5DC
:10023000DFF8482613681F0609D5DFF844265368FF
:10024000113006FA00F0C0430340536010600020F4
:10025000A072207220606060C4E90400DFF81426F8
:10026000A06194F9090092F8203386401E4392F869
:10027000220382F8206310B1401E82F82203C8B224
:1002800000F063F9284601B0BDE8F04003F050B932
:100290002DE9F04700241125DFF8E465DFF8D48567
:1002A0004FF00109E0B2032806DA08EB401101F52E
:1002B0003077B87A012805D0641C032CF2D3BDE84E
:1002C000F08700BF97F90900113009FA00F0C14327
:1002D000316072681043706097F9090009FA00FAFA
:1002E00003F001F998F894134AEA010A88F894A3F4
:1002F00003F01EF998F8840302280DD107F11000CD
:1003000005F07EFB00F0FF00012805D1B869C8B1F7
:1003100098F8841302290FD098F8210397F909104F
:1003200005FA01F1084388F82103002108F58260ED
:1003300003F071F9C0E700BF05F062FB00F0FF00B9
:100340000128E9D10220B872B6E730B5042881B09F
:1003500020D1DFF8204504F58D60007DC046C8B18E
:100360000A20C046054604F58D6003F088F8454331
:10037000B5F5967F0ED204F58D6003F08BF805205D
:1003800005F039FD012084F89103042104F56E7015
:1003900003F041F9002001B030BD70B5044603F010
:1003A000A2F8DFF8D064054696F84C0320EA04046E
:1003B00086F84C430024D6F8280320B1B830007DDD
:1003C000C04600B10124D6F82C0320B1B830007D1E
:1003D000C046044319D196F84C03002808BF002CEE
:1003E00013D1D6F8480380B190F828108A070CD5AD
:1003F000446A284603F09CF8D6F8480300220221FC
:10040000A0470020C6F8480370BD2846BDE87040EC
:1004100003F08EB8F0B400290CBF01230023002A9A
:100420000CBF01250025002839D02C0004BF90F80E
:100430004440002C33D000291CBF91F84440002CCC
:1004400012D0446B0E6C07690969A408A4EB9604EA
:100450000026B94218BFFE68A41B04F18054B4F111
:10046000805F88BF012301D8190018D0BAB1D168C4
:100470000C7B04F00F04022C11D1516B046C126937
:1004800000698908A1EB94010024904218BFD46848
:10049000091B01F18051B1F1805F88BF012503EA9A
:1004A0000500F0BC7047F0B581B01E466FF0020742
:1004B0008DF80070054634682246FFF7ABFF10B197
:1004C00001208DF800009DF90000B84201BFE968E5
:1004D000087B00F00F0002280CD100E024684CB12A
:1004E000226821462846FFF795FF0028F6D0022013
:1004F0008DF800009DF90010B94204D1E86B10B1ED
:1005000004218DF800109DF90070012F06D12946B5
:10051000304605F06FFF384601B0F0BD022F09D11B
:100520002268002A2946304608D005F040FF3846A8
:1005300001B0F0BD042F03D12946304605F04AFF33
:10054000384601B0F0BD0020704730B581B0044698
:1005500002F0C9FF0546C74890F8941321EA040445
:1005600080F8944390F89423110704D4082100F5EF
:100570006E7003F050F8284601B0BDE8304002F03C
:10058000D7BF2DE9F04F064681B00020306000242F
:10059000DFF8E0A2DAF8500318B3C1680A7B01243F
:1005A00002F00F02022A1CD10A88192140F6030327
:1005B0009A421CBF40F60405AA4219BF026913699A
:1005C00002695369528B406B9A189AF8223311FBD7
:1005D0000321FFF794FD05460A20C046B5FBF0F85D
:1005E00001E04FF0000800254FF0FF390027F8B276
:1005F000032805DA0AEB401101F53072907A18B938
:100600007F1C032FF3D325E0107A012502281FD089
:10061000DAF898030169408B01449AF82203192300
:1006200013FB00115069FFF76AFD83460A20C0469C
:10063000BBFBF0F04845E3D88146E1E7C8450DD95A
:10064000C8464146316045EA040001B0BDE8F08F7C
:100650004FF0000931682C42F0D134B1414631608D
:1006600045EA040001B0BDE8F08F05B149463160AC
:1006700045EA040001B0BDE8F08F2DE9F04FDFF846
:10068000F4AB81B09AF88413022905D101B0BDE81A
:10069000F04F192002F03ABF9AF8840301281CBFDA
:1006A0009AF88403042800F0888002F01CFF009070
:1006B0000024DAF85003002518B3C1680A7B01252D
:1006C00002F00F02022A1CD10A88192140F6030306
:1006D0009A421CBF40F60406B24219BF0269136970
:1006E00002695369528B406B9A189AF8223311FBB6
:1006F0000321FFF704FD06460A20C046B6FBF0F8CA
:1007000000E0A04600264FF0FF390027F8B203288A
:1007100005DA0AEB401101F53072907A18B97F1CA6
:10072000022FF3D91EE0107A0126022819D0DAF838
:1007300098030169408B01449AF82203192313FBA3
:1007400000115069FFF7DBFC83460A20C046BBFB63
:10075000F0F04845E3D88146E1E744464C4508D9E6
:1007600006E0A1463542F8D10DB1444601E006B19C
:100770004C46354317D064B12146012998BF012169
:100780000AF58D6002F082FE0AF58D6002F080FEAF
:100790000DE00AF58D6002F07DFE04210AF56E7011
:1007A00002F039FF03E00AF58D6002F073FE009855
:1007B00001B0BDE8F04F02F0BBBE01B0BDE8F08F64
:1007C00030B585B001460022039201920492029254
:1007D00040F602038C68487E62802288D21A09D0D3
:1007E00041F21E03D21A05D041F6E673D21A012A4D
:1007F0000FD91CE0258A4FF6FF322A4022820028BA
:1008000019BF4FF60F4002402D2060F309122282DB
:100810000DE0238B4FF6FF321A402283002819BFC8
:100820004FF60F4002402D2060F309122283002072
:10083000487602AD009504AB01AA03A9204601F059
:1008400019FE50B1039A10884FF6FF71884204D107
:100850000299019801F080FD03E00299019801F0EE
:10086000C1FD0448D0F8AC1309B10198884705B020
:1008700030BD0000B82D0020402108400000044099
:10088000081004402DE9F04F85B00027DFF8E45947
:100890000397D5F850630297002E6CD0D5F8640307
:1008A000002804BFD5F86003002844D1012787F051
:1008B000010903AA494602A8FFF73FFC01005CD1E9
:1008C0000446DFF8B409D0F80480B8F1000F18BF6F
:1008D000002C00F0F7820298002840F0F382D5F84F
:1008E000641303980190CDF8009005F55673D5F880
:1008F000600305F55472C047012800F0E481022826
:1009000040F0E082D5F86013D5F86003B1F93040CB
:10091000D0F8108002F0E7FD4FF0FF318C428246A4
:100920004AD1D5F8600300283AD00069404537D154
:10093000D5F860638CE0D5F860030028B7D0D5F80F
:100940006013086931698842B1D196F83300C10655
:10095000ADD5D5F864030028A9D10127D5F86003E7
:10096000C16848880028F9D0D5F86003C168488874
:100970000128F3D09BE7022132E3002FA0D1029996
:1009800000299DD0022938BF012105F58D6002F0B4
:100990007DFD05F58D6002F07BFD05B0BDE8F08FB3
:1009A000D5F8640328B10069404508BFD5F86463F1
:1009B0004ED0D5F850634BE0B5F930000021A0428D
:1009C00004BF2B69434504D1582010FB01F16E1878
:1009D0003EE0B5F988000121A04204BFAB6E43455B
:1009E000F2D0B5F9E0000221A04204BFD5F8C03032
:1009F0004345E9D0B5F938010321A04204BFD5F839
:100A000018314345E0D0B5F990010421A04204BF5C
:100A1000D5F870314345D7D0B5F9E8010521A0429A
:100A200004BFD5F8C8314345CED0B5F94002062100
:100A3000A04204BFD5F820324345C5D0B5F998028D
:100A40000721A04204BFD5F878224245BCD0002639
:100A5000002E00F0368196F83300010640F1318116
:100A6000D5F86003864271D1D5F8600300224FF0BB
:100A70000053FFF72AFBD5F8640300224FF0005320
:100A8000FFF723FBDFF8880904F0BAFFD5F860030D
:100A900000224FF08073FFF718FBD5F864030022A3
:100AA0004FF08073FFF711FB306995F84C13D5F8C0
:100AB0005073C5F8480341F0010185F84C133846DE
:100AC00000E00068002800F0FC80B84211D0006807
:100AD000002800F0F680B8420BD00068002800F033
:100AE000F080B84205D00068002800F0EA80B842E3
:100AF000E7D1002800F0E5800446266814B120699B
:100B0000404503D03400F8D1504607E200224FF0B0
:100B100080532046FFF7D9FA00224FF08073204619
:100B2000FFF7D3FA95F84C133869C5F8480341F03C
:100B3000010185F84C1305F55470214605F06DFC54
:100B4000214605F5567005F045FCDBE7D5F8640352
:100B5000864262D1D5F8640300224FF00053FFF7BC
:100B6000B4FADFF8F00804F04BFFD5F86403002274
:100B70004FF08073FFF7A9FA306995F84C13D5F858
:100B80005073C5F8480341F0010185F84C1338460D
:100B900000E00068002800F09480B84211D000689E
:100BA000002800F08E80B8420BD00068002800F0CA
:100BB0008880B84205D00068002800F08280B842E2
:100BC000E7D100287DD00446266814B1206940454D
:100BD00003D03400F8D15046A0E100224FF08053FA
:100BE0002046FFF772FA00224FF080732046FFF78D
:100BF0006CFA95F84C133869C5F8480341F00101C7
:100C000085F84C1305F55470214605F006FC214685
:100C100005F5567005F0DEFBDBE7D5F850430FE035
:100C20002468002C4DD0B4420ED02468002C48D04B
:100C3000B44209D02468002C43D0B44204D02468C4
:100C4000002C3ED0B442EBD12768CDF80080B346EB
:100C5000002600E0276820690099884220D1002200
:100C60004FF080532046FFF730FA00224FF0807398
:100C70002046FFF72AFA95F84C13DBF81000C5F868
:100C8000480341F0010185F84C1305F554702146E5
:100C900005F0C3FB214605F5567005F09BFB761C5D
:100CA0003C00D7D1002E1FBF95F88403012895F88A
:100CB0008403042805D0DFF8681805F56E7002F08B
:100CC000AAFC50462AE1039800B10646B6F9304026
:100CD000D6F810A002F007FC4FF0FF318C42064618
:100CE00014D1D5F8600328B10069504508BFD5F884
:100CF000604357D0D5F8640328B10069504508BF58
:100D0000D5F864434ED0D5F850434BE0B5F93000E8
:100D10000021A04204BF2B69534504D1582010FB89
:100D200001F16C183EE0B5F988000121A04204BF32
:100D3000AB6E5345F2D0B5F9E0000221A04204BFEA
:100D4000D5F8C0305345E9D0B5F938010321A042A8
:100D500004BFD5F818315345E0D0B5F9900104210E
:100D6000A04204BFD5F870315345D7D0B5F9E8019A
:100D70000521A04204BFD5F8C8315345CED0B5F9FE
:100D800040020621A04204BFD5F820325345C5D009
:100D9000B5F998020721A04204BFD5F87822524540
:100DA000BCD00024002C00F08B8094F833000106A6
:100DB00040F18680D5F86003844219D1D5F86003EC
:100DC00000224FF00053FFF780F9D5F864030022AA
:100DD0004FF00053FFF779F9DFF8340604F010FE06
:100DE000D5F8600300224FF08073FFF76EF90EE034
:100DF000D5F8640384421CD1D5F8640300224FF077
:100E00000053FFF762F9DFF84C0604F0F9FDD5F85E
:100E1000640300224FF08073FFF757F9206995F8BB
:100E20004C13C5F8480341F0010185F84C133046D6
:100E300074E0D5F850032746044600E02468002CEF
:100E40003ED0BC420CD02468002C39D0BC4207D024
:100E50002468ACB3BC4203D024688CB3BC42EDD14F
:100E6000216951452CD100224FF080532046FFF7D5
:100E70002CF900224FF080732046FFF726F995F8F1
:100E80004C133869C5F8480341F0010185F84C134B
:100E900005F55470214605F0C0FA214605F5567057
:100EA00005F098FA95F8840301281CBF95F884038F
:100EB000042805D0DFF8681605F56E7002F0ABFB6C
:100EC00030462BE0002F00F08F803069D5F8981362
:100ED000884218BF4FF4806140F08280002C1CBF14
:100EE000029800281FD0D5F86003002804BFD5F869
:100EF0006403002817D102F0F6FA044695F894032B
:100F000000F0F70085F8940395F89403010704D4E2
:100F1000082105F56E7002F07EFB204602F008FB0A
:100F200005B0BDE8F08F02F0DEFA95F8941341F0B9
:100F3000080185F8941302F0FBFA96F83300C10615
:100F400005F5547004D505F020FAC5F8640303E0F4
:100F500005F01BFAC5F86003D6E90601DFF8A428FE
:100F6000DFF8207AC0439060D368D6E906010343D6
:100F7000D360D6E906AB6FEA0B0BC2F800B053683A
:100F8000D6E906010B435360D7F804A0F468534632
:100F9000180007D0387A010704D5D5F898033246EF
:100FA00008219847204604F02BFD208840F60201D6
:100FB000401A08D041F21E01401A04D041F6E671F1
:100FC000401A01280AD8BAF1000F07D0387AC107B1
:100FD00004D5D5F8980322460121D0474FF080412F
:100FE00005F56E7002F017FB05B0BDE8F08FF0B5A7
:100FF000A04EDFF8140881B0D6F8604304F0ADFDD0
:101000000546DFF8E0090268076802F0200207F4ED
:1010100060272A4018BF002C0CD01346C6F868433E
:1010200000222046FFF751F84FF4804106F56E701C
:1010300002F0F1FA3D400DD096F8210340EA554503
:1010400086F8215306F5826001B0BDE8F04000212A
:1010500002F0E1BA01B0F0BD2DE9F043DFF81492DF
:1010600081B099F82103002400284CD099F821037D
:101070000026C1073DD599F821231021B1400A422D
:1010800018BF012402F02FFA99F821131122B2405F
:10109000914389F8211302F04BFA032E33DA09EB5E
:1010A000461101F53072907A68B392F90980DFF841
:1010B000381901EB8801002C0D681668576804BFC9
:1010C000107A022803D1D2E90401C30009D41046E2
:1010D000FFF799F82CB10020009000224FF0007328
:1010E00003E0009500224FF0006341463046B847C8
:1010F00009E099F8210301268107BCD499F821035E
:1011000002264107B7D499F8210338B109F5826066
:1011100001B0BDE8F043002102F07DBA01B0BDE8A6
:10112000F08300002DE9F0430FF2501285B0D2E9B0
:101130000034CDE900344FF4804004F05BFC4FF004
:10114000000800B3DFF8A408D0F813100078C1F34A
:101150001501800841EAC0714648D0F89833986874
:1011600002AA01F01DFA4348DFF81838D0F89803B6
:101170005B688268190006D0DFF80848217ACC073E
:1011800044BF012198476E464FF00209376838681E
:1011900020B9361DB9F10109F8D15CE03868D0E911
:1011A000060104F027FC3D680021CDE90201044658
:1011B00002F099F984467DB9604602F0B9F914F05D
:1011C0000A0F1AD1002CE4D038682A49C1F8680304
:1011D00048F48048DDE700BFD5E90A23DDE90201D4
:1011E00010431943C5E90A01D5E90823DDE90201E5
:1011F00010431943C5E90801DEE73868DFF8E41752
:10120000DFF8EC378A68DFF8DC47D0E906011840E0
:101210008243A260224638681368D0E906018B43F6
:1012200013603A68DFF85C375B68180009D0DFF8B4
:101230005417087AC10604D50E48D0F89803102137
:1012400098473968DFF8AC0705F0C4F8002038602B
:1012500048F002089DE75FEA08011CBFDFF8980725
:1012600002F0D9F9FFF714F8FFF70CFB05B0BDE861
:10127000F0830000B82D0020C42000201831002089
:101280001C31002030B5DFF8744781B0B4F96C032D
:10129000B4F96E13884217D102F025F9054694F887
:1012A000940300F0F70084F8940394F89403010782
:1012B00004D4082104F56E7002F0ADF9284601B09F
:1012C000BDE8304002F034B901B030BD0720FFF76F
:1012D00064B82DE9F04107468846D7F8A86014465F
:1012E0001D4606B1B047D7E9280104EA000215EA15
:1012F000010308BF002A00F08780DFF80047B4F937
:1013000030000021404504BF2669BE4203D194F855
:10131000330005065CD4B4F988000121404504BFC0
:10132000A66EBE4203D194F88B00050650D4B4F9E2
:10133000E0000221404504BFD4F8C060BE4203D1A2
:1013400094F8E300050643D4B4F93801032140457D
:1013500004BFD4F81861BE4203D194F83B010506DE
:1013600036D4B4F990010421404504BFD4F870612B
:10137000BE4203D194F89301050629D4B4F9E801DB
:101380000521404504BFD4F8C861BE4203D194F89A
:10139000EB0105061CD4B4F940020621404504BF08
:1013A000D4F82062BE4203D194F8430205060FD45C
:1013B000B4F998020721404504BFD4F87852BD42E1
:1013C00003D194F89B02050602D4C7E92C2312E04E
:1013D0005820C7E92C2310FB01F10C44D7E92C015C
:1013E000D4E9082322EA000023EA0101C4E9080144
:1013F000D7F8A820A2600020C7F8A80007F1500085
:10140000BDE8F04102F0C7B8BDE8F081000000007F
:1014100001000104704700B581B002F0F0F8DFF878
:10142000DC250146D2F89803D2F8882301B05DF894
:1014300004EB1047DFF8C4050FF2C552D0F888134B
:10144000914208BFFFF719B9042100F56E7002F050
:10145000E2B800000100012430B581B04FF0FF3048
:1014600004F0C8FADFF894550FF295510446D5F808
:101470008803884232D10022DFF87C1B05F57D709D
:1014800002F046F8022085F88403D5F898138A689C
:1014900001F1380300E00246506890B198421EBF47
:1014A0000246506800280CD098421EBF0246506881
:1014B000002806D098421FBF024650680028984274
:1014C000E9D1507B10F00F0F02BF488F40F60901A1
:1014D000884203D0FEF7DCFEFFF7D4F9104804423F
:1014E00008D005F56E7001B0BDE830404FF00051F6
:1014F00002F091B801B030BD00B581B04FF0FF30BF
:1015000004F078FA800708D501B05DF804EB4FF4D9
:101510000061DFF8E40402F07EB801B000BD000015
:10152000020000402DE9F041DFF8D074D7F858638D
:10153000002E00F0AD80F068082140F6040240F66D
:10154000030301E04068491E68B1CCB25CB1048875
:101550009C4218BF9442F5D1326902F138011CC88F
:101560001CC11CC81CC1D6E90A450022C6E90A22D2
:10157000B068D0B115F0E24310D024F00F0235F07E
:10158000E24308BF002A05D0B6F930103069D6F81A
:1015900008C0E04704F0000405F0E245B6F9301059
:1015A00030692246B4682B46A04701F09CFF0446F0
:1015B000B7F86E03401CC0F30B00A7F86E036FF082
:1015C0000201002086F83300318607F5567004F0DA
:1015D000DCFE204601F0ACFFB7F96E03B7F96C13DF
:1015E000884255D1D7F89813D7F82853D7F82C63E9
:1015F00000240520A04600291EBF91F8FC100029F8
:101600000720FEF7CAFE2DB195F8FC0000B92C6842
:1016100085F8FC803EB196F8FC0008B9D6F8008049
:10162000002086F8FC00444538BF4446E4B9B7F9C9
:101630006C03B7F96E1388422AD101F054FF0446B7
:1016400097F8940300F0F70087F8940397F8940351
:10165000010704D4082107F56E7001F0DCFF204675
:10166000BDE8F04101F064BF14F1010F10D001F0AA
:1016700004FFB4FBF0F1012998BF012107F2AC404F
:1016800001F004FF07F2AC40BDE8F04101F000BFFB
:10169000BDE8F081D94A92F884130020022904BFE2
:1016A000D2F86013002903D1D2F8641301B90120E4
:1016B000704770B5DFF8841C0A680446CF48D0F83C
:1016C0009C632568106B8047864231BF861B401E95
:1016D000861B761C360BAE423CBF75196E0840F671
:1016E000C410864288BF064604D8B6F5967F38BF38
:1016F0004FF49676266070BD30B50D46A80781B0D0
:10170000BE4C12D5FFF70EFFD4F8580340B145F098
:10171000020104F56E7001B0BDE8304001F07BBFFE
:1017200001B0BDE83040FEF7A8BF680767D50121CA
:1017300084F89613042004F05EFBDFF8001C0A68AE
:10174000106B8047C4F89C03D4F8500398B1056926
:10175000D4F89803002818BFA8420AD095F82800AA
:10176000410704D56B6A00220421284698470120CE
:101770006876C4F89853D4F898134A68DFF8C01B09
:1017800010780860022004F036FB102004F048FBBB
:10179000012084F884037B49887810B90D2004F077
:1017A0003FFBD4F8980341688868002804BFC868E4
:1017B000002806D0DFF88C0BDFF88C2B0021C161EC
:1017C00002600720DFF8841B08600021DFF8740B3B
:1017D0004269416182698161426942F0402242F07E
:1017E000020242610FF22500C4F888031A2001F0BA
:1017F0007BFE01B0BDE83040192001F075BE01B09C
:1018000030BD00000810044020000E002DE9F0411A
:101810000746880040F1B380DFF8E081D8F89803EC
:10182000416848688E68CD68010018BF8047DFF8BE
:10183000144B300008BF002D0DD0E0690028FCD00B
:101840000021E161300018BFB04705B1A847DFF8BB
:10185000000B04F0D5F80020E06140F60A05DFF83F
:10186000F41A2160A8F87053A8F8720398F87C1352
:1018700001F0F00188F87C13C8F87403384698F832
:101880007D1301F0F00141F0010188F87D13FEF7AE
:1018900097FFD7F80880464640F6040140F6030259
:1018A00000E00646706828B10388AB421CBF934233
:1018B0008B42F6D1514B03F55C707060707B00F089
:1018C000F0007073D3F8500328B1C06800889042CC
:1018D00018BF88421CD0388FD0B1002197F845003E
:1018E0007987F96300F0F00097F8441040F00100A8
:1018F00087F8450001F0F00187F8441007F138003F
:10190000C3F8740393F87D1301F0F00183F87D139D
:10191000E0690028FCD000221F46C4F81C200FF20A
:10192000E10197F89103C7F8881330B104F0CCFBBC
:101930000028FBD004F0D9FB0EE0012004F0A9FD43
:10194000012809D0707B00F0F00040F001007073B6
:101950000FF23500C7F888030021E161C4F8008068
:10196000DFF82C0C4368190009D0007AC10706D5AE
:10197000D7F898034246BDE8F04101211847BDE879
:10198000F08100003CF90100DFF8002C114200D189
:10199000704710B5012004F07CFD01280DD1DFF85F
:1019A000F40B0FF25D01C0F888130022DFF89419E0
:1019B000CA6100F55C70086010BD0A20C046322183
:1019C000B1FBF0F1012998BF0121DFF8C84B04F504
:1019D0008D6001F05BFD04F58D60BDE8104001F005
:1019E00057BD00000C1004409430044085030021D2
:1019F000FDBFFFFF1031002070310020B82D002006
:101A00002DE9F04704460E46700482B0DFF8848B5F
:101A10002CD501F068FDD8F8687317B3D7E90A230D
:101A200002F00A0413F0E04508BF002C19D1D7E9F1
:101A30000A45D7E90A23A243AB43C7E90A2301F0C9
:101A400077FDB86878B1002D08BF002C0BD0B7F92E
:101A5000301038692246BC682B46A04726F48046E1
:101A6000C1E201F065FD26F48046BCE2B00040F121
:101A70008280DFF8240BD0F88C1041F08001C0F890
:101A80008C1098F8960328B1042004F04EF9002039
:101A900088F8960301F027FD0546042004F0F9FCC0
:101AA000D8F8B423014691421DD1207E00281CBFE6
:101AB000D8F89C03002816D0D8F8600370B1C3682A
:101AC000198840F6030291421FBFC368188840F688
:101AD0000401884208BF04F1140001D004F1100091
:101AE000FFF7E7FD05E040F6C41020616061C8F82B
:101AF000B413284601F01CFDD8F898138A6801F148
:101B0000380300E00246506890B198421EBF02467A
:101B1000506800280CD098421EBF0246506800282A
:101B200006D098421FBF0246506800289842E9D16B
:101B3000507B10F00F0F02BF488F40F60902904211
:101B40000FD1256A00224FF000736FF48071204698
:101B5000A847D8F8500310B1FEF78FFD01E046F01A
:101B600002062046E46900224FF080630021A0476E
:101B700026F0005637E2B00709D5FFF7D3FCD8F8B6
:101B80005803002840F02F8226F002062BE2700551
:101B900040F1BA8001F0A7FC0546FFF77BFDD8F8BD
:101BA0005043012840F0AA80002C00F0A7800420B8
:101BB00088F884030022DFF8E41908F57D7001F04D
:101BC000A7FC284601F0B4FC08F2AC4001F062FC2E
:101BD000DFF868170A68106B8047C8F8A003012176
:101BE00088F89613042004F006F92069C8F89803D1
:101BF00090F828104A0703D5436A00220421984729
:101C0000D8F89803DFF83C5741688F684868D1F8E6
:101C10000C90002F08BFB9F1000F04D00021E9613A
:101C2000DFF824272A6008B1C046C046002F08BF4D
:101C3000B9F1000F0ED0E8690028FCD00021E9615D
:101C400007B1B847B9F1000F18BFC847DFF8000760
:101C500003F0D6FED8F898030121417640F6030739
:101C6000FEF7AEFDD8F898339A68114640F60A0C94
:101C700040F6040E00E00146486830B1B0F800902C
:101C8000E1451CBFB945F145F5D100204860487BCE
:101C900000F0F00040F001004873E0680088B842AE
:101CA00018BF704503D10020C8F8A00315E0188FB5
:101CB00098B103F13800002444804460047B04F0B0
:101CC000F0040473447B04F0F00444F00104447312
:101CD0004860487B00F0F00048730020E8612A600B
:101CE000DFF8AC08446821000BD0007AC10708D5A2
:101CF00001211846A04726F4806674E1284601F0C9
:101D000017FC26F480666EE1310563D598F89603DA
:101D100028B1042004F009F8002088F89603D8F8C8
:101D2000984304F1080204F13805136800E0034603
:101D3000586890B1A8421EBF0346586800280CD0CE
:101D4000A8421EBF03465868002806D0A8421FBFFD
:101D5000034658680028A842E9D1587B10F00F0FBD
:101D600002BF508E40F60902904207D12046246AF5
:101D700000224FF000736FF48071A047D8F8A003E1
:101D800098B1DFF8B8150A68106B8047D8F8A0132F
:101D9000814231BF401A401E401A401CD8F89813A7
:101DA000000BC8600020C8F8A0030022924908F583
:101DB0007D7001F0ADFB022188F88413D8F8580338
:101DC00018B108F56E7001F026FCFEF756FC26F4FB
:101DD000006608E1300740F1008101F084FB044611
:101DE000FFF758FC002800F0F08098F894030107F2
:101DF00000F1EB8098F89403010600F1E680684654
:101E0000FEF7BFFB18B10098002800F0DE8098F8BC
:101E10002103002840F0D98000250127E8B20228DC
:101E200005DC08EB401101F53071887A18B96D1C9A
:101E3000032DF3D31BE08F7291F9090007FA00FA22
:101E400001F051FB814698F8940320EA0A0A88F8C9
:101E500094A398F89413080703D5484601F068FB4B
:101E6000E5E7082108F56E7001F0D5FBF5E70320E2
:101E700088F8840308F2AC4001F00CFB204601F026
:101E800057FBDFF8C0446069002161610022E0680F
:101E9000E16008F57D70DFF8D01A01F039FBDFF85A
:101EA0009C140A68106B8047D8F89C13814231BF9C
:101EB000401A401E401A401CD8F88C134FF0FF32D5
:101EC000A2EB10328A4234BF4FF0FF3001EB1030EA
:101ED000C8F88C0398F8900330B1D8F8A403D8F868
:101EE0008C13C00288422FD2DFF8AC060268D107FB
:101EF00025D5DFF8CC0B0268110620D540F6090085
:101F0000A8F870030021A8F8721398F87D0300F078
:101F1000F00040F0010088F87D0398F87C0300F0A1
:101F2000F00088F87C03C8F874130020E06108F51D
:101F30005C712160B8F8720310F4406FFAD0002190
:101F400088F89073C8F88C1303F067FDDFF8FC1372
:101F5000DFF83C46002008606368180007D0207A4C
:101F6000810704D5D8F8980300220221984702205F
:101F700003F0DBFE102003F0EEFE98F8950320B985
:101F8000D8F89803503001F006FBA07810B90D2066
:101F900003F0E1FE98F8910328B1002188F891132D
:101FA000052003F0C2FEDFF8800BC8F8880300218B
:101FB00088F884130220B8F96E13B8F96C239142A3
:101FC00008BF0720FEF7E9F902E0204601F0B0FA69
:101FD000FEF753FB26F0080605E0700003D5FEF778
:101FE0004CFB26F0804626B1314608F56E7001F0B4
:101FF00012FB02B0BDE8F087251100002DE9F54C79
:10200000DFF890A5DAF8504381B09B4600250E46D4
:1020100000E02468002C5BD0B4420ED02468002C71
:1020200056D0B44209D02468002C51D0B44204D018
:102030002468002C4CD0B442EBD1002C48D020694D
:1020400001992768884209D09DF80800002818BF28
:102050003C46F2D1284603B0BDE8F08C01F043FACB
:10206000D4E90A2343F08051C4E90A21D4E90823C2
:1020700043F08051C4E9082101F05AFABBF1000F86
:102080000CD121460AF5547004F0C7F921460AF52F
:10209000567004F09FF96D1CD6E700BF01F023FADB
:1020A000D4E90A2343F08071C4E90A21D4E9082362
:1020B00043F08071C4E9082101F03AFA9AF84C1310
:1020C0003069CAF8480341F001018AF84C13D8E797
:1020D000284603B0BDE8F08C2DE9F04E14460327E6
:1020E00082B082469B46002C14BF4FF080494FF0CF
:1020F00000590E4601F0F7F94FF0FF318E42009083
:10210000DFF8905414D1D5F8600328B10069504528
:1021100008BFD5F8606357D0D5F8640328B10069CB
:10212000504508BFD5F864634ED0D5F850634BE0F6
:10213000B5F930000021B04204BF2B69534504D1EA
:10214000582010FB01F16E183EE0B5F9880001211E
:10215000B04204BFAB6E5345F2D0B5F9E0000221A6
:10216000B04204BFD5F8C0305345E9D0B5F93801C5
:102170000321B04204BFD5F818315345E0D0B5F97A
:1021800090010421B04204BFD5F870315345D7D037
:10219000B5F9E8010521B04204BFD5F8C83153456F
:1021A000CED0B5F940020621B04204BFD5F82032A6
:1021B0005345C5D0B5F998020721B04204BFD5F800
:1021C00078225245BCD00026002E00F0808096F880
:1021D000330001067AD50A9FD5F860138E422ED1BE
:1021E000D5F8600300224B46FDF76FFFD5F8640376
:1021F00000224B46FDF769FF002C14BFDFF8100BDF
:10220000DFF8100B03F0FCFBF8B200283BD0D5F848
:10221000600300224FF08073FDF757FFD5F8640389
:1022200000224FF08073FDF750FF95F84C13306992
:10223000C5F8480341F0010185F84C1323E0D5F8B7
:1022400064138E422BD1D5F8640300224B46FDF770
:102250003CFF002C14BFDFF8C00ADFF8C00A03F00F
:10226000CFFBF8B278B1D5F8640300224FF0807349
:10227000FDF72BFF95F84C133069C5F8480341F082
:10228000010185F84C13BBF1000F1DD0D5F8501398
:10229000FBB25A465046FFF7B1FE832717E0FBB268
:1022A0005A4631465046FFF7A9FE78B195F88403A7
:1022B00001281CBF95F88403042805D0DFF8CC1B47
:1022C00005F56E7001F0A7F9832700E00427009858
:1022D00001F02EF9384602B0BDE8F08E10B50C467C
:1022E000AC4991F88423022A0BD103F089FB04B195
:1022F000206000F0FF00012801D1812010BD0220E4
:1023000010BD012010BDF0B581B004460D46164643
:1023100001F0E9F807469F48D0F898138C4218BF9F
:10232000032404D131462846FFF7D8FF0446384637
:1023300001F0FEF8204601B0F0BD00008C01001055
:10234000D02108400010044051000706000004603E
:102350000100070601010E04002942D00A0E202ABE
:1023600008BF10221AD0212A08BF202216D0A02A86
:1023700008BF302212D00AB940220FE0102A08BF4D
:1023800050220BD0112A08BF602207D0402A08BF74
:10239000702203D0502A0CBF802290228901090AA2
:1023A00042EA012141F00F0100E0001D026812F134
:1023B000010F18BF8A421CBF50F8042F12F1010F01
:1023C0000ED08A421CBF50F8042F12F1010F07D023
:1023D0008A421EBF50F8042F12F1010F8A42E4D145
:1023E00001607047002944D00A0E202A08BF10223D
:1023F0001AD0212A08BF202216D0A02A08BF3022D6
:1024000012D00AB940220FE0102A08BF50220BD088
:10241000112A08BF602207D0402A08BF702203D0CB
:10242000502A0CBF802290228901090A42EA012128
:1024300041F00F0100E0001D026812F1010F18BF0A
:102440008A421CBF50F8042F12F1010F0ED08A42AD
:102450001CBF50F8042F12F1010F07D08A421EBF93
:1024600050F8042F12F1010F8A42E4D14FF0FF31EE
:10247000016070472DE9F04381B01E46089DDFF8EA
:10248000503BD3F800804FEA586313F001080388EB
:1024900040F6020765D0BB4207D0B3F5C15F10D04C
:1024A00043F60607BB4218D022E000F112030B608E
:1024B0004169116082693260C1692960C77B047C0F
:1024C00022E000F112030B6041691160426A326040
:1024D000816A2960C77B047C16E000F11A030B6057
:1024E0000027C1691160026A3260416A29600AE00E
:1024F00000F11A030B60C1691160826A3260C16A1F
:10250000296090F82470047E306804F0070488B1D4
:1025100005234FF6FF7240F2037103F09DFA8146E6
:10252000B9F1050F06DA2146384603F0D9FA3168C9
:1025300041F82900286820B305234FF6FF7240F2C6
:10254000037103F089FA0646052E1ADAFF21384690
:1025500003F0C6FA296841F82600404601B0BDE8FC
:10256000F083BB4218BFB3F5C15F07BF00F1120390
:10257000406900F11A03C0690B60106000203060F0
:102580002860404601B0BDE8F08300000400002050
:102590003CF90100B82D002040210840F91400004A
:1025A0002DE9F04186B015460C46002202920492B5
:1025B0000392019201A9009103AB04AA02A9FFF7BB
:1025C00059FF8326E20F33D148B3039800281CBF7C
:1025D000019800281DD00298048040F22B28039F08
:1025E000502340F2FF324146384603F035FAFF28C7
:1025F0001CBF48EA842147F8201001990498FFF78E
:10260000F1FE1520288030460399696006B0BDE8C8
:10261000F081029A10884FF6FF7188424DD00298DF
:102620000480102129806C80304606B0BDE8F0811E
:10263000002842D0039800281CBF019800281ED013
:1026400002984FF6FF7101805023019F40F2FF3244
:102650002B21384603F000FAFF2804D0A40244F0EE
:102660002B0447F8204001990498FFF775FE1520C8
:10267000288030460199696006B0BDE8F081049F6A
:10268000502340F2FF322B21384603F0E5F9FF28B2
:1026900004D0A10241F02B0147F82010FF280CD0F4
:1026A00002994FF6FF70088014222A80C4F31504A3
:1026B0006C60304606B0BDE8F0810326304606B0B7
:1026C000BDE8F0812DE9F04391B00C460021DFF820
:1026D000EC9908910191079106910646D9F8088076
:1026E00015461F4603F066FF1C2803D003F062FF67
:1026F0001B2826D1288843F60701884212D195F875
:10270000240002281DDD2869DFF8942A20F06041AA
:10271000914216D020F06040DFF8881A884240F0DD
:102720001F810EE040F60202904203D1E87B0228AE
:1027300007DD15E1B0F5C15F03D1E87B022800F3A6
:102740000F81002C18BF002D00F00A81207828FA94
:1027500000F0C10740F10481002128460020C04656
:10276000DFF8448AB5607460D8F8AC0388B106A974
:10277000009107AB01AA08A92846FFF77BFE019844
:1027800050234FF6FF720B2103F066F9FF2800F08B
:10279000E78000F0A8FE054698F89503022880F22D
:1027A000DC80002840F0868003F00DFADFF8FC0999
:1027B000DFF8FC49016841F002010160DFF8F4092B
:1027C000C9F8000002A800F0E8FE6078DFF8E81918
:1027D000049002AA08F56E7000F0E7FE02AADFF886
:1027E000DC1908F5826000F0E0FE02A800F098FE17
:1027F00020785D4A039002AB192108F57D7000F046
:102800004BFE02ABDFF8B8291A2108F24C4000F069
:1028100043FE00230022DFF8AC1908F58D6000F0BC
:102820000FFE00230022DFF8141A08F2AC4000F07B
:1028300007FEDFF80C0A0168C1F3814038B10023BC
:10284000DFF8002A042108F59E6003F05CFAA07806
:10285000012804BF0D2003F0E3FA08F5567003F0D9
:1028600089FD08F5547003F085FD002088F8840385
:10287000C8F88C030021072088F8901388F891137A
:1028800088F82003C8F89C1300200521C8F8A0038D
:10289000C8F8A41388F89403A349C8F88813636898
:1028A000180007D0207A410704D5D8F898030022F1
:1028B0000421984798F8950308EB8002401CC2F861
:1028C000286388F895033C46284600F031FE3CB961
:1028D0000FF2286191E8BC5109A880E8BC5109AC0D
:1028E000206830604FF4FA71F160A069B062012095
:1028F000218A71837076E1693163606818B1306153
:102900000021606803E040F6C41030610121317697
:102910007061DFF834197162F161E06800B101465D
:102920003162606900B17062A06800B1F061C821D5
:1029300006F1380003F07EFE002106F1500000F0A1
:10294000F8FD00230022DFF8281A06F1B80000F095
:1029500077FD304611B0BDE8F083284600F0E8FD71
:10296000002011B0BDE8F08359140000F0B5DFF885
:10297000384894F89513002981B000F09E80B4F98E
:102980006C13B4F96E23914205461BD004F55471C3
:10299000FDF754FB68B9D4F8600328B10069A84278
:1029A00008BFD4F8600304D004F556712846FDF73B
:1029B00045FB38B1B0F930100A224FF0E043284609
:1029C00000F0AEF900F08FFD0646D4F828038542EA
:1029D00007BF0021C4F828130020C4F82C0394F882
:1029E0009503401E84F89503C0B2002850D1C4F866
:1029F000985394F88403022820D100F074FD074610
:102A000094F8940300F0F70084F8940394F8940386
:102A1000010704D4082104F56E7000F0FCFD38466F
:102A200000F086FD304600F083FD4FF0FF3105F1E8
:102A3000500000F0A9FD00F056FD064604F56E704A
:102A400000F0D9FD04F57D7000F04BFD04F58260C7
:102A500000F0D1FD04F24C4000F043FD04F58D6020
:102A600000F007FD04F2AC4000F003FDD4F8B01311
:102A700011B104F20450884704F59E6003F004FB92
:102A8000DFF82C078178012904BF0D2003F063F9DA
:102A9000D4F89803A84204BF0021C4F89813304624
:102AA00000F046FD05F1500000F069FD05F1B800A9
:102AB00001B0BDE8F04000F0DCBC01B0F0BD0000AA
:102AC000000004402DE9F04100F00DFDDFF8D8468C
:102AD00094F8841302291CBF94F88413042907D1A5
:102AE000DFF8B428146800F023FD2046BDE8F0812B
:102AF00000F01EFDDFF8A418DFF8A4880A68106B48
:102B0000804710F50036D4F8800341F100070146F4
:102B1000A8FB0623002008FB0733141843EB01052C
:102B20002C462046BDE8F081F91600002DE9F04F53
:102B300083B082460F4615469B4600F0D4FC0190B8
:102B40006FF00104DFF86096D9F82803824508BFCA
:102B5000D9F82C0330B1B83000F093FC10B16FF00D
:102B60000204ACE0FDF780FA060000F0C880DDE961
:102B70000C4809F2AC4000F08DFCB9F86C03401C25
:102B8000C0F30B00A9F86C03F760002086F8320050
:102B9000C6F808B02021B9F86C23DFF8080832869F
:102BA000C6F810A0204008EA0101C6E9060100228B
:102BB00086F83320C6E90822EA683264287C86F861
:102BC000440029687163287986F83800A968F163A0
:102BD0006869B064A969F164287F86F85000697F4C
:102BE00086F85110287C20B9E86810B1012186F8D8
:102BF00044102879002802BF387B00F00F0002281B
:102C000004D1012086F83800B9687163082001E01A
:102C10000F46401E7968002918BF0028F8D13A886D
:102C2000D6E9060102F47C42B2F5305F0AD196F88B
:102C3000332042F0100286F8332040F00800C6E945
:102C4000060103E040F00202C6E90621D9F8480374
:102C5000504507D199F84C03C10744BF00F0FE006E
:102C600089F84C03DFF8400704686FF002050CB9DF
:102C70002C461DE0D9F8642309F55670009009F53B
:102C80005473D9F860133046A0470446AC420FD0C5
:102C9000B9F96C03B6F93010884206D0B9F86C0364
:102CA000411EC1F30B01A9F86C1314F1020F0FD1EF
:102CB000B9F86C03411EC1F30B01A9F86C13C9F8F4
:102CC00048A399F84C0340F0040089F84C0316E03F
:102CD000B6F9304096F8330040F0800086F83300B3
:102CE00000218AF8FC10D9F85003B0421FBFF168E8
:102CF000087B00F00F00022808BFFDF7BEFC01981A
:102D000000F016FC204603B0BDE8F08F0000000084
:102D10000100020401000104010002240100012459
:102D2000F0B506460F46380081B014461D4603D55F
:102D30000020002101B0F0BD00F05FFCDFF8683436
:102D4000B3F930100022B94204BF1969B14203D16E
:102D500093F83310090659D4B3F988100122B94207
:102D600004BF996EB14203D193F88B1009064DD47C
:102D7000B3F9E0100222B94204BFD3F8C010B14247
:102D800003D193F8E310090640D4B3F938110322B4
:102D9000B94204BFD3F81811B14203D193F83B11E3
:102DA000090633D4B3F990110422B94204BFD3F811
:102DB0007011B14203D193F89311090626D4B3F9E7
:102DC000E8110522B94204BFD3F8C811B14203D1BA
:102DD00093F8EB11090619D4B3F940120622B9424F
:102DE00004BFD3F82012B14203D193F8431209066D
:102DF0000CD4B3F998120722B94204BFD3F8787201
:102E0000B7420BD193F89B120F0607D5582111FB3F
:102E100002F29F1897F83320110605D400F0FDFB4D
:102E20000220002101B0F0BDD7E9082344F00A04D4
:102E300045F0E04522402B4008BF002A0ED000F0AC
:102E4000ECFBD7E9080120402940C6E92C01D7E96D
:102E5000082382438B43C7E9082313E0BA68DFF8ED
:102E60004C158A4204D0D7F808C0C6F8A8C0B9608B
:102E7000C6E9284500F0D1FB4FF0FF3106F15000C4
:102E800000F082FBD6E92C0101B0F0BD0200004049
:102E9000D0B582B00446DDE90667CDE90067FFF7EB
:102EA00045FE0146204602B0BDE8D0400A224FF060
:102EB000E04335E710B582B0940804F001045308EC
:102EC000009403F0010302F00102FFF705F902B0DC
:102ED00010BD10B582B0940804F0010400940123E1
:102EE00002F00102FFF7F8F802B010BDF0B500BF24
:102EF00002A191E8FC5080E8FC50F0BDFFFFFFFF0D
:102F00000000000000000000000000003A013A014B
:102F10000000000000000000000000000022FFF799
:102F2000F2B90022FFF7EFB900B581B06A46DFF8C9
:102F30008414FFF7E8F9812803BF00980002001607
:102F40006FF07F0001B000BD70B50E46144600F072
:102F5000CAFA8325052E36D8DFE806F0030F1535AB
:102F60001F28DFF84C24D2F8601321B1D2F8601387
:102F70000A8E228028E0802526E0DFF8341491F8BC
:102F80002023228020E0DFF8281491F88423022AED
:102F90000CBF01210021217016E0DFF81414D1F8D4
:102FA00028232260D1F82C1361600DE0DFF80024A3
:102FB000D2F8281301B1C9682160D2F82C1301B1ED
:102FC000C968616000E0032500F0B2FA284670BDD0
:102FD0009412005070B4DFF8D833B3F930400022B7
:102FE0008C4204BF1E69864203D193F83340250604
:102FF00059D4B3F9884001228C4204BF9E6E8642A8
:1030000003D193F88B4025064DD4B3F9E04002225A
:103010008C4204BFD3F8C060864203D193F8E340EA
:10302000250640D4B3F9384103228C4204BFD3F8BB
:103030001861864203D193F83B41250633D4B3F996
:10304000904104228C4204BFD3F87061864203D1C0
:1030500093F89341250626D4B3F9E84105228C4222
:1030600004BFD3F8C861864203D193F8EB4125062B
:1030700019D4B3F9404206228C4204BFD3F820622F
:10308000864203D193F8434225060CD4B3F9984203
:1030900007228C4204BFD3F8781281420AD193F8F8
:1030A0009B02010606D5582010FB02F29818C06852
:1030B00070BC704770BC002070470000CC210840F5
:1030C0002DE9F04B0E4682B096F9048034688346B1
:1030D000174600F008FA344A92F8201300906FF077
:1030E00001094FF0000C012303FA0CFE11EA0E0F48
:1030F00006D04FF0FF35A84518BFE04500F0068028
:103100000CF1010CBCF1030FEED342E05FFA8CF03E
:103110000328F5DA02EB401505F53075A87A00288A
:10312000EED121EA0E0082F82003AB7285F809C0C7
:103130000A2192F82203401C82F82203C5F800B04D
:103140002B7241486860298295F90900401DA874D6
:10315000B068686100207FB13978787895F90930D6
:10316000490141EA80015B1D41EA03214FF6FC70F1
:103170000140DFF844020843A86104B16C60D2F852
:10318000980310B92968C2F89813FDF776FA95F9F3
:103190000990009800F0CCF9484602B0BDE8F08BE9
:1031A0000F0000010F000005B82D0020002009408D
:1031B0003CF90100110000E0171400005910000054
:1031C000EF0F000035140000F0B581B004460F4643
:1031D000802500F088F9FFB2032F064627DADFF8D2
:1031E000D03103EB471101F53077B87AF8B139687F
:1031F000A1421CD193F88403022812D197F9091037
:10320000D3F89803491D0906090C41F08161002299
:1032100041F00101FFF777F805463846FCF7F3FF68
:1032200005E03846FCF7EFFFFDF727FA8125304629
:1032300000F07EF9284601B0F0BD000085120000C4
:10324000B44F00504B030000151400002DE9F0416D
:1032500007460D461646832400F045F9092D8046A1
:1032600000F27E80DFE805F005081114171C4153B9
:10327000696E3068386074E0386960303861012107
:1032800078697976603078616BE03068788368E0DF
:103290003168B98565E030684549C1F8A40360E04C
:1032A000306848B900F01FF9414991F8942342F081
:1032B000800281F8942315E0012851D100F013F920
:1032C00006463B4890F8941301F07F0180F8941370
:1032D00090F894130A0704D4082100F56E7000F0EA
:1032E0009AF9304600F024F93BE0314991F8840323
:1032F000002804BFD1F85003002811D131681920EB
:1033000000F00CF931681A2000F008F929E0284F84
:1033100097F88403002804BFD7F85003002801D091
:1033200000241EE0316807F56E7000F078F931680E
:1033300007F5826000F073F913E030781C4981F8DA
:1033400020030EE01D48436819000AD0007A810668
:1033500007D51748D0F8980332462021984700E057
:103360000324404600F0E4F82046BDE8F081000068
:10337000CD12000030B5044683B0A0686A46FFF75E
:103380000FF98328054604D1002269462046FEF73E
:10339000BAFF284603B030BD043004408C01001051
:1033A00000093D00FFEFFF9FC4200020D312000062
:1033B000B82D002001000304010004063CF90100BF
:1033C000EFF31180202102E0EFF31180002181F35F
:1033D0001188704780F31188704703F03DB910B52C
:1033E00000F0DEFD00F0ADFF00F016F8DFF850440D
:1033F00004F10800A06602F0E3F901F01FF901F002
:103400009BFD01F0D0FE01F096FB00F0FFFC01F007
:10341000EFF80120207010BD10B5DFF8284494F8B3
:10342000080160B9012184F8081101F0E1F80021D8
:1034300004F59A7001F0DEF8DFF80C14086010BD96
:10344000FEB5044613B901F06BFA10E06D4600209A
:103450000026002785E8C1009868029020461D7864
:103460008DF800505B6801936B4601F059FA2046D5
:10347000FEBD01F075BA00F0DDBA0A20704701F018
:1034800037BA007D7047002181607AE08160704723
:1034900001F020BA01F0E2B9F8B51C0086B005468B
:1034A0000E46174603D1002300F0C6FC0BE000F0E7
:1034B00012F8206801906B46606804903A4600F06C
:1034C00004F800F0B9FC07B0F0BD207A8DF80800D0
:1034D0003146284670476846DFF87C13182203F00F
:1034E00093B900F0D9BC6BE700F0B8BDDFF8540326
:1034F00090F8F41001F02EBD10B5FFF761FF0446FF
:10350000FFF768FF601E8041C00F10BD00F00CBEC9
:1035100070B501F0E8F96560266076E100F0F4BD71
:10352000002101604FF0FF320123426003727047B7
:1035300050E7FEB50446684600230025002680E8D3
:10354000680001278DF800706A46204601F044FCAF
:103550002046FEBD3EB5694600220023002481E8D6
:103560001C0001258DF80050DFF8E02201F044FC3A
:103570003EBD80B50090684601F057FC01BD01F0EA
:1035800048BC01704160704780B501F090FB00B904
:103590005AE0002002BD01F0EBBB00210160416058
:1035A000C1604FF0FF318160704778B5140085B07D
:1035B00005460E4603D1002201F01FFD13E0A0686E
:1035C000062804D310F1010F18BF00200BD101F021
:1035D0005DF8206801906A4660680290314600F00C
:1035E00004F801F00AFD06B070BDE0680490A06820
:1035F00003902846704701F0A0BD00F059BE01F0CD
:10360000F7BCDFF8400290F8F410012901D1012045
:1036100070470020704701F052BD01F0A2BC06299E
:1036200002D311F1010F01D101F055BD704708B46B
:1036300000B501AB02F003F95DF808FB02F0FFB83A
:1036400003F034F9162101604FF0FF3002BD000095
:1036500030BF7047FCE738B503F032F902F089FF5C
:1036600002F08EFA044604F00C000C2802D1AFF3ED
:1036700000803AE060071DD401F019F805460121E9
:10368000012002F087FA0A216943884212D2DFF84A
:103690001842183D656104F10C0001F01BF9AFF30D
:1036A0000080012002F00EFCAFF30080002084F8BF
:1036B00020001EE0AFF30080200716D4DFF8EC21D5
:1036C000DFF8EC011368996888470428F6D0E10612
:1036D00000D408B9012000E0002002F02CFFDFF840
:1036E000D40101210160006801E0FFF7B3FFAFF3EF
:1036F0000080BDE8314003F0E7B8DFF8480190F8FA
:10370000AC20012180F8AC100123DFF8D0110A6051
:1037100090F8142180F814314A60704710B5DFF832
:10372000BC41606801F01DFC206801F033BC000062
:10373000DFF8AC11C20744BF01230B60820744BF0E
:103740004FF480730B60400744BF4FF480320A602F
:10375000704710B5DFF88C21C30748BF116084079C
:1037600048BF5160400748BF916010BDFEB50228B8
:103770000D460DD0012804D003F098F800F03EF972
:10378000FEBD684600F0B1F90198029A002137E0C9
:10379000FFF716FEDFF850410646207878B1002387
:1037A0004FF0FF320FF26D01201D01F047F84FF08E
:1037B000FF306061201D01F05BF80020207000F0F8
:1037C00031F80746E46A01F0B4FBDFF82031DFF896
:1037D0002021B7FBF3F603FB167702FB0477BC4608
:1037E000BCFBF3F200270021B01879414AF2C576FC
:1037F0007443001903FB12C3794142F210725A4319
:10380000C5E90001AA600020FEBDBDE87040FFF7D9
:10381000E1BD000010B5FFF7D3FD044600F002F84B
:1038200001F090BD80B500F039FFDFF8BC108A6A66
:10383000904202D2CB6A5B1CCB62886202BD000060
:10384000E8290020AC1E0020F83C00205020002079
:103850004FF0FF3032BD0000684300000446DFF83F
:10386000300190F8AC50012180F8AC1070476846E8
:10387000DFF89411242202F0C7BF10B5DFF88C10D6
:1038800091F8AC00012281F8AC20DFF8A4110C689B
:103890000CB122680A6001F0CCFC1CB12046BDE8E6
:1038A000104009E010BD0000A0210020D801001048
:1038B000004003402C20094010B5044604F11000DC
:1038C00001F0A7FAE06818B104F10C0001F040FF24
:1038D0002146BDE81040502201F0AFB99C3B0020CA
:1038E00004200940182009405C200020A086010027
:1038F000E0060100204601F09CBC0099204601F042
:10390000D6B90446002101F0D2B90000AC1E002057
:103910002DE97F430D461446AA68DFF88067B2425E
:1039200003D26946FFF722FF10B14FF0FF302CE0C1
:10393000D5E90023DDE90001DDE90089101A63EB18
:1039400001014B450ADB01DC424507D3AA68029B13
:10395000002908BF002803D1934201DB002212E0B6
:10396000D21A44BFB218401E02F2E7324FF47A7303
:1039700092FBF3F209320A25DFF82417B2FBF5F2C5
:1039800001FB0022521C2260002004B0BDE87083BD
:10399000AC1E002080B51146B1F5803F01D3FFF782
:1039A0004FBE002201F018FA002002BD80B501F0E0
:1039B000DFF9002002BD38B50D46FFF7A2FF90B930
:1039C0006A4629460120FFF7A3FF18B102F06EFFF7
:1039D000162105E0FFF791FF28B902F067FF91215A
:1039E0000160FFF735BF002032BD80B500F002F85E
:1039F000002002BD4FF0FF3101F059B916210160DE
:103A00004FF0FF3070470000E0F40100DFF85C0881
:103A10000178FDE7DFF85C0890F8F4007047DFF804
:103A20005428014692F8F40082F8F4107047000020
:103A3000A43B0020DFF83818D1E90023C0E90023B7
:103A40007047000000BFDFF82C18D1F8FC000047D9
:103A5000DFF82028D2F800110847DFF8180890F89E
:103A60001411012280F8142190F8AC1080F8AC20D9
:103A70000320D4E710B504460320FFF7D0FF20460B
:103A800001F0B7BE80B5DFF8E4070178012901D065
:103A9000FFF7BCFFDFF8E40701F098FEFFF794FCA6
:103AA000002001F05EFABDE8014001F093BB10B5C3
:103AB00088B001A80FF238311C2202F0A5FE0222C4
:103AC00000218DF804200A248DF810100091039431
:103AD00001ABDFF8A427DFF8AC0700F015F908B058
:103AE00010BD0146DFF89C07F2E07FB501F0DCF87D
:103AF0000546684600F025F8DFF88417DFF89C6576
:103B000048682060019B88680A681B1AD2186260A6
:103B10000298CB681B18B34203D3DFF86C07521C22
:103B2000C318A360626008698218626009688A42EB
:103B300002D22068401C206001F045F8002004B04B
:103B400070BD1CB50446DFF8440701680A6B904756
:103B50000191009000220199616022600098DFF8D5
:103B60003C15000C0090009AA1FB0201000C40EAF9
:103B70000140A06013BD20B502460020D2E9102309
:103B800047F6906102F0A8FE0125A94228BF4FF038
:103B9000FF3020BD38B50C4602F092FE050018BF7C
:103BA0000125DFF8EC060068811D201AB0F1004FF6
:103BB00005D8081BB0F1004F38BF8C4200D20C462C
:103BC00021460120FFF7C5FDEDB20DB9FFF791BD0C
:103BD00031BD2DE9F84C05460C46D5E910ABD5E9C9
:103BE0001267AAFB04010BFB041136184F41340C79
:103BF000002244EA07412846FFF7CCFFC5E91467D5
:103C0000BDE8F18C38B501F04FF864690546B4F5AC
:103C1000802F34BF0424240CDFF8740600680419D4
:103C20000120FFF785FD21460120FFF792FDDFF817
:103C300068361C682268232100209047DFF85C1654
:103C40000120086000F06ABF0000DFF840160A6833
:103C5000106B004710B504460120FFF769FDA0690D
:103C6000E169BDE8104008472DE9F047054601200D
:103C7000FFF75EFDD5E91601D5E91027002410EB0A
:103C800002084F414FEA184040EA074AD5E9146953
:103C90004FF0FF304FF6FF7108EA000207EA010318
:103CA000304009EA01018B4202D82CBF8242012434
:103CB000224651462846FFF76DFFD5E91601C5E9B2
:103CC0001401C5E91687A869E969BDE8F047084706
:103CD000F8B504460D46FFF7B8FFD4E91067324641
:103CE0003B4602F0F9FD3DB1A6FB002306FB013384
:103CF00007FB0033C4E91223F2BD80B5FFF760FB78
:103D0000FFF768FB002002BD2DE9F04387B00546B0
:103D10000F4690461C46FFF753FBDFF87865B16805
:103D200011B1FFF757FB2FE0B560FFF753FB0CB95C
:103D30000FF2BC04EF60C5F81C804FF4803160685E
:103D4000A861002269622A62C5E91222217BA0686B
:103D500001290CD168610021A06827786A690023D5
:103D6000022F07BF90469946984699460EE00146B5
:103D70000020DFF89023002302F0AEFD01229142E3
:103D80006861EAD3C5E9100100202EE0C5E9148975
:103D9000C5E91001C5E9162301A8DFF804151822AA
:103DA00002F032FD029501AB2078DFF8F8140091A3
:103DB00000280CBFDFF8F024DFF8F024142105F10F
:103DC000280000F057F804462846FFF796FF287CA5
:103DD00010B92846FFF716FF2CB12946304600F0EF
:103DE00016FF284601E00020B06007B0BDE8F08370
:103DF0000000000000000000E803000000000000D8
:103E000000000000000000000000000038B5DFF8EE
:103E1000644404F18405287F68B901212977FFF7FC
:103E2000CFFAE16F2868C90800EBC1010839A16722
:103E30004FF0FF31A16631BDF8B5DFF83874DFF817
:103E40009464D7F89CC004460D465CF82500B04247
:103E50000CD107F5D2700090204600F00BF840B16D
:103E6000D7F89C0050F82510B14201D10020F2BDD6
:103E70002046F2BD1CB504460BB9DFF82434049883
:103E80000090204600F00AF8010003D0204600F020
:103E90006EF80024204616BD002168E0F8B51746EC
:103EA000069DDFF88C24362904461E4603DB0023DA
:103EB00000930B460EE0DFF8BC03E181D0F89C30A4
:103EC00053F82100DFF80C34984209D000240B4647
:103ED00000946C320021284601F043FC0120F2BD21
:103EE000084600F099F8676070682060306910F14A
:103EF000010F08BFFF2020730021307A00B101219B
:103F0000307D08B141F00201A1602046294600F051
:103F100003F800B1801CF2BD38B50446217AB4F92B
:103F20000E008A07054602D5217B202907D2616849
:103F300000F0B8F8B4F90E004042E0810AE0DFF882
:103F40003413D1F88C00DFF88C1440F82540284653
:103F500000F0A8F8217B284600F0D6F8207AC107A7
:103F600044BF284600F07AF80020A06032BD012945
:103F700000D1704710B5B0F90E40002C48BF644224
:103F8000204600F049F8DFF84C13204600F08AF88C
:103F9000DFF8E012D1F88C20002042F8240010BD98
:103FA00070B5FFF70DFADFF83014DFF83034DFF8C2
:103FB0003024DFF83004DFF830440B60121ADFF8E9
:103FC0002C34C8688A60186002461D68A5420FD06C
:103FD000002554F8256040F825606D1C0F2DF8DB96
:103FE0000F20DFF8F04242F82040401C3628FADB70
:103FF0005C68DFF8FC0324F47F4404195C600A6207
:10400000202199764FF40070D860DFF884040168AD
:1040100021F04041016070BD10B50F2811D9A0F109
:1040200010011038012200F01F00DFF86844DFF8AB
:1040300068344909824054F8210043F82120104097
:1040400010BD09D1DFF8C81408680A6822F002021E
:1040500000F002000A6010BD002010BD0F280FD92B
:10406000A0F110011038012200F01F00DFF8243405
:104070004909824053F8210043F82120104070473D
:1040800009D1DFF88C1408680A6842F0020200F0D7
:1040900002000A60704700207047000000CA9A3B87
:1040A000A0860100DFF8CC21D2F8883003EB800035
:1040B00002688A4218BF0160704710B5DFF8B4414A
:1040C000A06F02F031FD0021A16610BD70B502465F
:1040D000DFF80403836853600468946025462878F9
:1040E000BE2803D001200023136070BD00200029EA
:1040F000F9D015F8016FBE2EFBD064422919491E74
:104100005B1AF1E740420F00102805D3DFF8C02406
:10411000104400F8101C7047042804D3DFF8B424BE
:10412000104400F8041C7047102803D3DFF8001572
:1041300010380860704710B54E4B0FF2150401227D
:1041400083F86C2014B1BDE8104001E010BD000000
:1041500018B500F01BF89FB00A7008B901AA4A60B0
:10416000204600F019F80320FFF759FCDFF8C404DB
:10417000DFF8C4240368A06B009003F0FF030F2B4B
:1041800028BF7C3201F0C5F820B010BD0446DFF82E
:104190006815486801227047F0B5364C236F04F16A
:1041A000F40501462E781E7000220E6A1E61002062
:1041B0004F6A5F618E6A9E61CF6ADF610E681E6220
:1041C0004F685F628E689E62CF68DF620E691E6311
:1041D0004F695F638E699E63CF69DF6301F14007BA
:1041E0000E6B1E645F644E6B9E6404F184068F6BDD
:1041F000DF64C96B19651F78032F14D8DFE807F057
:1042000009070210B06B5860C26A806A0BE0E86A66
:1042100006E0B06801F0FF0150F82110596000E09D
:104220005860E26F3068D8609A60616F39B10028D9
:1042300004E012F8014B01F8014B401EF9D1DFF800
:10424000F4030268DFF8B4045A650178996542788E
:10425000DA654188196642685A6681689966C2685B
:10426000DA660169196740695867F0BDE8290020DE
:104270008C1F0020AC1E0020FF4700005B3A0000AE
:10428000A83B0020F0290020003665C48C010010F6
:10429000302009408C20002084010010800224433B
:1042A0006843000050200020693C0000553C00009D
:1042B000DFF8241491F81401012281F814217047C9
:1042C000DFF8141491F8AC00012281F8AC2070479B
:1042D0000000000009BE01002DE9F04100F0E4FCFF
:1042E000DFF8F45395F8AC60012085F8AC0095F840
:1042F000147185F814010020FFF791FB8046D5F872
:104300008C00DFF830130A6802F0FF0250F82250E8
:10431000AC60FFF759F8286869688847FFF750F8DC
:104320004046FFF77CFB07EB0620BDE8F08100006C
:10433000E4CF010000F0FF0000F02FBE000A00F003
:1043400093BFF8B5002101A8FFF7C0FE03980090C5
:1043500004E0BE2101700099491C00910098684555
:10436000F7D305B000BD0000000000000000000011
:104370000100000000000000E0000000010000005B
:1043800070B5049C059D069E8908491E40F8214091
:10439000491E40F82130491E40F82120491E40F8AE
:1043A0002160491E40F82150491EDFF8102840F8CE
:1043B0002120491E4FF0FF3240F8212000F01AF86A
:1043C00000F018F8491E40F8212000EB810070BD74
:1043D00000000000E5BC0100281F0020003C022076
:1043E00000400220003C02200000000008ED00E038
:1043F0000000FA05491E40F82120491E40F82120FE
:10440000491E40F82120491E40F82120491E40F84D
:104410002120491E40F82120491E40F82120491E34
:1044200040F82120491E40F82120491E40F8212053
:10443000491E40F8212070477FB504460D46A16A09
:10444000164619B1E06ABE2202F09AFBE16B0291B6
:104450003346A06B01900095A16A626BE06A091F68
:10446000FFF78EFF04B070BD10B504460120A060B8
:10447000002121610022E26004F1140000F0DCFB65
:104480002146BDE81040DFF8440700F0C0BB000043
:1044900034EF00E000E100E080E100E0F8B505461F
:1044A000DFF82C07046984B09CB1666907780121A4
:1044B0000170A868012807D10021A9602C61EE6075
:1044C00000F07EFB002020E02869A04203D100F02C
:1044D00077FB012019E0204601F086F800210294C4
:1044E0000391C4F824D03246694605F1140000F067
:1044F00041F828694069B04203DA2869314601F081
:104500001FF800F05DFB0020606205B0F0BD000008
:1045100010E000E070B5DFF8B8260446106940B33B
:1045200015780123137009BBE16842699142BCBF51
:10453000E16801F005F8606904F11401884202D1D4
:104540000122A26012E060690168616104F1140255
:104550004A60866826617069E060FEF731FF0446B4
:104560002146304601F074F800F0A6FD284600F020
:1045700025BC70BD10B50346186800E0006898427D
:1045800007D0846864699442F8DABDE8104000F00E
:1045900037BBBDE81040184600F023BB10B50446F9
:1045A00009B90FF22801FFF75FFF204610BD10B5D3
:1045B000044601F0B7F818B12146BDE81040EDE718
:1045C00010BD0FF208012FE0000000000000000005
:1045D00000E400E018ED00E0806902F015BC80699D
:1045E00002F014BC806902F013BC806902F015BCB3
:1045F00002F004BC10B504460020A061DFF8681684
:10460000DFF86826DFF8680621606260A06004F1C8
:104610001001DFF84C270348E26000F0F8FA20466A
:1046200010BD00BFA02000200A6802607047000093
:1046300000EF00E004ED00E01CCC010018B5264CB2
:1046400094F8650085B0E0B9012284F86520002166
:10465000204600F0F1FA00F06FFC00F017F805209A
:10466000039004F5D2736A460FF2F10104F11000D1
:1046700000F04AFDE064FFF71AFA0348FFF77BFAFF
:10468000A06506B010BD00BFF029002068460249B1
:10469000142202F0B9B800BF2051000038B5FEF76F
:1046A0008FFE04460020FFF71CFA05460DE038B5E2
:1046B000FEF786FE04460020FFF713FA06494D6D0B
:1046C0002D1A886DA84238BF00252046FEF782FECD
:1046D000284632BD00000000AC1E002038B504465C
:1046E0000D462146DFF8B807FFF773FADFF8B40785
:1046F0000465456531BD0000181F002028ED00E06D
:104700002DE9F8430446DFF89C070768D7F80480D2
:104710000D464FF0FF391BE03E463F68307D0128D3
:1047200016D1012C04BFF168A94209D130690028D3
:104730001DBF4118F16030623075F069B16988477A
:10474000307D012804D1F068401B484598BF814660
:104750004745E1D14846BDE8F28300002DE9F84322
:10476000FEF72EFE06460120FFF7BBF9DFF83417EF
:1047700001F15C0201231370002454704C6D8B68AE
:104780008968051B401AE31A984203D20020107072
:10479000304630E000F0CDFB4FF0000907E04C441C
:1047A00021460120FFF7ACFFA5EB090581464D45E9
:1047B000F5D2FEF705FEDFF8EC7607F15C068046E1
:1047C0007078012804D121460020FFF799FF814627
:1047D000B86D19F1010F05D0B86DA9EB0505A84218
:1047E00088BF28460119FFF779FF0120B07000212A
:1047F0003170BC604046BDE8F243FEF7EBBDDFF828
:10480000A416C86C00F030BC38B504461D46A26042
:10481000002268682061A1612146A868E0612275D4
:10482000DFF8800600F0F3F9287818B12046BDE8DB
:1048300032404FE031BD000038B568E182608161EF
:1048400000220261C36102750146DFF8580600F0DC
:10485000DEB98260816100220261C36100210175BD
:1048600070470146DFF83C06BBE1000000F0DDB90F
:1048700070B50446DFF82C66A068206206F15C057E
:10488000A978012904BF2878002816D10120FFF754
:1048900028F9B268736DB1685B1A821A93420CD31F
:1048A000A2681118E16001232375746D201A8242F9
:1048B0000ED2BDE87040104610E7FFF7EFFEA1688A
:1048C0000818E060012020752978012908BF687068
:1048D00070BD000038B500F0E7F905462046FFF747
:1048E000C7FF1BE1BAE704460D461646FEF768BD52
:1048F00070B500F0D9F90646207D0025012807D1C2
:10490000FFF7CCFEE5682D1A206AA84238BF0025C3
:1049100000F00FFB284670BD007D704700F056BACE
:1049200010B504460BB90FF20C03FFF76DFF2046DC
:1049300010BD0000000000000000000000000000AA
:1049400070B504460D4616460022242100F0EDFE07
:1049500028B133462A462146BDE87040E0E770BDE5
:104960006AE710B504460022A260002104F10C00A1
:1049700000F062F92146BDE81040DFF8380746E153
:1049800038B500F091F90546207C022804D1204674
:1049900000F04BF900F082F9C0E010B5836884683C
:1049A0001A400C408C4208BF0A4312B181689143FF
:1049B0008160104610BD2DE9F0431C4691B0804641
:1049C0000D46174614F1010F18BF002C0AD06B4694
:1049D0002246DFF8301708A8FFF73BFF08A903912C
:1049E000022202E00021039103220021DFF8E061AE
:1049F0008DF8102006950797059130690290FEF713
:104A0000DFFC81463A4629464046FFF7C6FF0500CF
:104A100004D04846FEF7DEFC28462DE024B948467F
:104A2000FEF7D8FC002027E034780120307069467A
:104A30000298416208F10C0000F0D3F8029800F0EF
:104A4000DCFD039820B1FFF70CFF0398FFF710FF80
:104A50004846FEF7BFFCFEF74DFFFEF7B1FC0446EB
:104A6000039818B1FFF702FF0020039000F07AF9D5
:104A70009DF8100000B1059811B0BDE8F083F8B5BD
:104A800007460D46FEF79CFC0446B8680543BD602A
:104A900007F10C00F968814202D1204600F045BAC6
:104AA000FEF7DDFE3846FE68F269B169FFF775FF73
:104AB000706160B1304600F0B8F801203074F068E1
:104AC00008B1002101752146B06800F0C1FD00F079
:104AD000F3FA2846BDE8F24000F0ABBB10B504463F
:104AE00009B90FF20C01FFF73CFF204610BD000092
:104AF0000000000010B504460B460022142100F00F
:104B000014FE18B12146BDE81040E7E710BD044689
:104B1000FEF756FC0546204600F087F82846BDE81B
:104B20003240FEF757BC21681422002000F043FEFB
:104B30000020206010BD78B5DFF88846207889B065
:104B4000E0B901262670FEF792FE4FF440720592FE
:104B500004F160010FF228020491009200250395F0
:104B60008DF8206000236A460FF23501201D00F009
:104B7000A8FDDFF83013201DC1F8D8000AB070BDC1
:104B800074692E73797362696F732E6B6E6C2E5419
:104B900061736B2E49646C655461736B0000000097
:104BA00080B500F001F8FCE710B5DFF8B8462068E2
:104BB00080476168BDE8104008470000CD770000DD
:104BC000384600F036BB2846FEF704BC982000208B
:104BD000581F00200168814201D101207047002048
:104BE00070470EE038B500F05FF82568296821604D
:104BF0002A685460FFF76ABD40600060704700009B
:104C000000BF426808604A6011604160704738B573
:104C100000F007F82C606168696062681560656083
:104C20007DE704460D46FEF7CBBB01684268116084
:104C30004168006841607047DEE7002000F0BBBDBE
:104C400010B5044610782074618204F1140000212C
:104C5000FFF7F2FF0021A16001202146E060BDE8DE
:104C60001040DFF8D408D2E7D9450000DF45000046
:104C7000EB45000000BF00F11401816100F1140256
:104C80004261704738B500F00FF80546207C0228D5
:104C900003D100F0C8F800F001F83FE700202074CD
:104CA0002946A06800F0D4BC0446FEF789BB70B565
:104CB0000C468EB0054614F1010F18BF002C0AD027
:104CC0006B462246DFF8741805A8FFF7C2FD05A958
:104CD0000391022202E00021039103228DF81020AB
:104CE000FEF76EFB0646688A002831D11CB900F039
:104CF00020F9002032E0DFF8EC080478012101708F
:104D000000690290C0F824D000F077FC694605F1F4
:104D10001400FFF766FF9DF81000022805D10398E4
:104D2000FFF79FFD0398FFF7A3FD00F002F9FEF7E0
:104D3000E1FDFEF745FB0446039818B1FFF796FD29
:104D40000020039000F00EF89DF8100030B104E050
:104D5000688A411E698200F0ECF801200EB070BD37
:104D6000E54500000020029948622046FEF732BB6C
:104D700070B506464B4890F8AC4000F022F8054666
:104D8000706906F11401884207D1307CC1074EBF1B
:104D90000120708A401C70820DE072691068706199
:104DA000416001201074D06808B1002101752946C6
:104DB000906800F04DFCFFF706FF2046BDE870400C
:104DC00037E2012180F8AC10FEF7FABA0021002288
:104DD000002380E80E00704710B504460AB90FF2B0
:104DE0000C02FFF72DFF204610BD00000000000060
:104DF000000000000000000038B504460D461346D0
:104E000000F091FC20B12A462146BDE83840E3E796
:104E100032BD38B50446FFF72DFFFEF7D1FA05463F
:104E200000F001F87AE62046FFE610B50446206857
:104E3000FFF7EFFF21681C2277E60000B0FA80F050
:104E4000C0F11F0070472DE9F843044604F1280023
:104E5000DFF86058C168D5F81080EF68AE68296146
:104E6000EC6000238168A9600021426882600170C3
:104E70002B700120FEF7D3FD8146FEF7A5FAE1690C
:104E8000A06962699047FEF79BFA4846FEF7C7FDA6
:104E900001202870C5F81080EF60AE60BDE8F18396
:104EA000F0290020AC1E002038B5DFF83848E5684E
:104EB0002068FFF7C3FF216901EBC00100F091F802
:104EC00003D12368416A8B432360FFF7BCFF20684E
:104ED00030B1FFF7B3FF216901EBC0018D42EDD383
:104EE00031BDF8B5DFF8504704F58A752F69FEF734
:104EF00067FA06466868FFF7A1FF696901EBC00021
:104F000087420FD294F8AC70012084F8AC00DFF82F
:104F1000D80701F0F9FD0020287000F00AF83846A3
:104F2000FFF7D8BD002028703046BDE8F240FEF7FC
:104F300051BA3046FEF74EBA38B5DFF8B047207A9E
:104F400038B901212172002500F03EF96D1C062DB3
:104F5000FAD331BD481E8041C00F7047FFF7A8B992
:104F60000000002800D0704710B5FEF729FADFF8DE
:104F7000C84604F58A72516821B1FEF72BFAFFF793
:104F8000B0FF02E01170FEF725FA94F8AC000121A1
:104F900084F8AC10BDE810404BE1002800D0704709
:104FA00038B5DFF810476068C0B1FEF70DFAFEF7BC
:104FB00007FA25696068FFF741FF616901EBC001ED
:104FC0008D420BD200F00DF803D16368416A8B4328
:104FD0006360FFF738FF60680028ECD10020207084
:104FE00031BD086802680A6051600A688A427047E9
:104FF000DFF84406D0F81C01704710B50446DFF80E
:10500000803700F081F8606900B90024204610BDA7
:1050100038B5406000601368416103615168816187
:105020009368C361D16811F1010F08BF05210162C6
:10503000012303FA01F14162002400F128010C7000
:1050400013698B6012694A60DFF8EC25046AD2F8B4
:10505000283103EBC405CD6000F1080102F586702C
:10506000FFF7D5FD002032BD2DE9F0418046FEF767
:10507000A7F908F124060446307920B12046BDE89E
:10508000F041FEF7A7B90120DFF8287630714146DC
:105090003D7838703069FFF7A4FD796830680143C6
:1050A000796000F009F815B9BDE8F04119E7BDE8ED
:1050B000F0810000A82000202046FEF78BB938B50B
:1050C000FFF7AFFD216B0D432563FEF783F9204603
:1050D000BDE83240C8E738B50D46044615F1010F6A
:1050E00008BF0525FEF76CF90121A9406162256220
:1050F000DFF84425D2F8281101EBC5036363FFF7FD
:105100000EBD00008149000010B504460AB90FF237
:105110001002FFF77DFF00B10024204610BD000003
:10512000000000000000000000000000050000007A
:1051300000000000214600F03EBB38B5FFF7B4FD8B
:1051400000F001FBFFF7EABC70B5DFF8D84600209D
:10515000207101E000F096FA20680028FAD020685B
:10516000FFF76CFE6169226901EBC00082420ED23A
:10517000E56820610068E06006463146284600F098
:105180008DF806F11C0105F11C0002F013FB2079DB
:105190000028DCD170BD10B5DFF84844207A08B192
:1051A000FFF7D2FF57E038B5DFF8EC47207E38B97B
:1051B00001212176002500F007F86D1C062DFAD399
:1051C00031BD0000582A00202268002102EBC500F2
:1051D000FFF732BD10B596B0FEF7F2F8DFF844469F
:1051E00001E000F04FFA20680028FAD02068FFF7AD
:1051F00025FE616901EBC000206101460868E0609E
:10520000002020710220FEF70AFCE168002000F077
:1052100045F8FEF7D9F8FEF7D3F8FEF74EFFE06841
:1052200000F11C0107A802F0C5FA16B010BDFFF787
:1052300047B8002800D0704710B5FEF7C1F8DFF876
:10524000F80300F1AC04217A012902BF90F814019F
:105250000028FFF779FF00202070BDE81040FEF71E
:10526000B3B80000A41E0020002800D0704710B57D
:10527000DFF8C40300F1AC04217A012902BF90F8E1
:1052800014010028FFF760FF0020207010BD00000F
:1052900000BFDFF8A403D0F8BC007047BCB5040021
:1052A0000D4635D0E06ADFF8F4760178BE2905D0E6
:1052B0000022009223463A4600F02BF8E86A017873
:1052C000BE2907D0002000902B4607F16002002184
:1052D00000F047FAE06A01A9814222BFA26A801861
:1052E000884207D20091234607F1C0020021002026
:1052F00000F037FAE869EA6A904222BFAB6AD21836
:10530000824205D200902B4607F5947200F001F816
:10531000B3BD0021002024E290F84800012800D00D
:10532000704710B5FEF74CF8DFF80C130446D1F8BF
:10533000B800401EC1F8B80004D1FFF7BDFE002040
:10534000FEF786FB2046BDE81040FEF743B870B577
:10535000DFF84C060469057801210170FEF730F88A
:105360000646204600F049F9032084F82000204634
:10537000FFF7D2FFFFF7DDFD64602460FFE72846FA
:10538000BDE8704055E7F8B5164604463068206120
:105390000D46F16861611F46B069002803BFDFF860
:1053A0000406016821632063716909B94FF4007133
:1053B000306940B3C21DD208D200891A4118C90809
:1053C000C9004FF0FF30E262A1622063656370683C
:1053D000994DA063B168E163F069206404F148006D
:1053E00096F820100170012904D1D5F8B810491C95
:1053F000C5F8B8100022C2603946204600F018F8FF
:1054000070B1801CF2BDC91DC908C900A162082283
:10541000206B00F0B7F90028E062D7D10120F2BD7F
:1054200004F1080105F1A400FFF7F1FB0020F2BD33
:1054300070B50B460446DFF87025DFF87015FEF7EF
:10544000FBFFE06108B9012070BD012084F8200055
:105450000021616260697849002808D5002201F1C5
:10546000D000A261E0642146FFF7D1FB18E060693B
:105470000122824001F1AC00A2618169626901EB05
:10548000C203E364012105780170FDF799FF064628
:10549000204600F0D3F8FFF74CFD2846FFF7C9FE81
:1054A000002070BDF8B50029044641D1DFF8F07442
:1054B0003D7801203870FDF783FF064694F8200000
:1054C00001280FD1FFF7AFFCE06C0168814203D1E6
:1054D0007A68A06982437A60606A80B1C06808B166
:1054E000FFF7C4F994F82000022808D1606A68B177
:1054F000FFF79BFB606AC06808B1FFF7B7F994F843
:105500002000032802D1FFF78EFC02E02046FFF7BF
:1055100003FFFFF70EFD2846FFF78BFE206B10F10F
:10552000010F04D0A26AE16ABDE8F84043E1F1BD91
:105530000129F3D1F1BD0000B0200020854C00000E
:105540002DE9F84FDFF8F0B00BF1AC04054694F804
:105550000080012020700E46FDF732FFD5F814A020
:10556000B245814636D0002E03D500270BF1D00B73
:1055700004E0A0690127B74000EBC60B95F82000B6
:1055800001281CD12846FFF750FBE86C01688142D6
:1055900003D16268A869824362602069A84207D18A
:1055A000C4F814B02946DBF80000FFF729FB03E03C
:1055B00029465846FFF715FB6068384360606E6106
:1055C000AF61C5F84CB0002E44BF002060610121DE
:1055D00021724846FDF7FEFE4046FFF72AFE504680
:1055E000BDE8F28F581F002038B5FFF75DFB054678
:1055F000204600F002F8FFF791BA2DE9F041044689
:10560000DFF82052D4F84C802E68A769FFF70DFB15
:10561000D8F80010414504BFBE432E60E868A042A0
:1056200004BF00212961022084F820000121297192
:10563000BDE8F08100000000AC1E002038B5FFF787
:1056400033FB05462946204600F002F8FFF766BA0C
:105650002DE9F041DFF8CC61376804468846A5693A
:10566000E06C2146FFF7BDFA2F433760012184F833
:105670002010012030714046FDF7ACFEBDE8F0413E
:10568000FDF79EBE80B5DFF8280320B9FDF79CFE2C
:10569000FFF78AFA09E0FDF797FE002001E0009885
:1056A000401C009000980028F9D0BDE80140FDF7AB
:1056B00087BE0000C01F0020DFF8F812242201F08E
:1056C000A3B810B504460AB9DFF8E822FFF75BFE7D
:1056D000010003D02046FFF7E5FE0024204610BD60
:1056E00000000000C41F0020A94E0000D41F0020AD
:1056F000F8B500F011F8582100F017F8040009D0AF
:105700003B4632462946FFF7DCFF18B95822FFF71F
:1057100011FD00242046F2BD05460E4617463B46C5
:10572000002270470B4600221C2100202AE038B5D9
:10573000FFF7BAFA00F007F8FFF745FA2046BDE890
:1057400034400021AEE6054604F10800FFF76DBACB
:1057500010B504462068FFF7EAFF21685822FFF7DA
:10576000E4B90749884283B001D103B0704700B95A
:1057700068460399026043608160FEE70000000014
:1057800050200020F8B504000E461F4604BFDFF885
:105790002802046802B9082225682046A8470500A7
:1057A00007D100962346DFF8142200213846FFF780
:1057B000D8FF2846F2BD08B97F48006843681847FB
:1057C0007F49087A08B901220A72704738B5FFF795
:1057D0006BFA7B494A680125082A05DA0B6843F809
:1057E0002240521C4A6000E00025FEF76FBF10B552
:1057F000044600F006F82046BDE8104000E0000036
:10580000FEE770B5FFF750FA6D4D6E6807E02A6845
:1058100002EB8603204653F8041C8847761E012EAF
:10582000F5DA70BD5C1F002000F004F8002001F0E4
:10583000E1FF16BD009401AB4FF0FF3170471CB57E
:105840000024009401ABF2E7F0B500240025002B02
:1058500044BF5B42002902D54942521E2D25B1FBAF
:10586000F3F60FF2741703FB1611641C795C00F851
:10587000011D31460029F2D19442BEBF302100F80B
:10588000011D641CF8DB290018BF00F8015DF0BDA4
:105890001368022B07D35B1E136002681AB11170E4
:1058A00001684A1C026070472DE9F0412DED028B22
:1058B000174682B00A683E6812F8010B0A60662833
:1058C0001D465DD1287E012808D156F8041B0091A1
:1058D000084602F033F941EC180B06E0F01D20F009
:1058E000070000F1080690ED008B51EC180B002228
:1058F000002302F047F908D281F0004141EC180B77
:105900002869401E0124286100E0002451EC180B96
:105910002C4A2D4B02F050F904D80FF2D000E86168
:1059200007212BE002F062F9804602F083F902467B
:105930000B4651EC180B02F045FA0022234B02F003
:10594000B3FA02F087FB014668690A230422FFF7D5
:105950007BFF2E2100F8011C401E6A692969E8615D
:10596000121AEA600A238A1A4146FFF76DFF14B142
:105970002D2100F8011DE8616969091AE96003E059
:10598000E96908700120E8603E6002B00020BDECCB
:10599000028BBDE8F0810000701F002084B201007E
:1059A000581F0020F43C00204F5300009751000086
:1059B000A94B0000E0F40100F83C0020A0E2010047
:1059C000B82000200100C0FFFFFFDF410088C34076
:1059D000FDF703BDFDF703BD3031323334353637C3
:1059E0003839616263646566000000002865727280
:1059F0006F7229005C490A681040C2430A60704710
:105A00005A4A11680029FCD10023D3611060D06983
:105A10000028FCD0D161506870475548016821F0DA
:105A2000020141F40871016003215248016041F212
:105A30003002C260012343605021C16001224260F4
:105A40004FF4CA61C16042604FF48651C160426048
:105A5000012049490860704770B4044600251800C9
:105A60003AD013F003000AD054F8256016F1010F64
:105A700032D016408E422CD06D1C401EF4D19B08B3
:105A800000F02A8054F8250010F1010F24D01040B6
:105A900088421ED06D1C54F8250010F1010F1BD058
:105AA0001040884215D06D1C54F8250010F1010FEC
:105AB00012D0104088420CD06D1C54F8250010F113
:105AC000010F09D01040884203D06D1C5B1ED9D154
:105AD00002E0E8B270BC704770BCFF207047000065
