:100000000000042015A30200813A0200813A020098
:10001000813A0200813A0200813A0200813A0200EC
:10002000813A0200813A0200813A0200813A0200DC
:10003000813A0200813A0200453A0200DFF858286E
:1000400092F833000021030604D4582010FB01F17C
:100050005018704792F88B0001210306F5D592F8ED
:10006000E30002210306F0D592F83B0103210306C9
:10007000EBD592F8930104210306E6D592F8EB0143
:1000800005210306E1D592F8430206210306DCD5DB
:1000900092F89B0207210306D7D5002070472DE96F
:1000A0007043064614461D4603F0FFF96EB1D6E9CB
:1000B0000A2322432B43C6E90A23D6E9088948EAE2
:1000C000040449EA0505C6E90845BDE8704303F0A4
:1000D00011BA2DE9F04707460E4603F0E6F9DFF8BE
:1000E000B84794F8841302291CBF94F88413042998
:1000F00016D003F0FFF9DFF8A4A705F001FB10F517
:100100000038AAFB0823D4F8800341F100090AFB58
:10011000093301460020141843EB01052C4604E086
:10012000DFF87C170C6803F0E5F9BC4231BF381BDF
:10013000781E001B401C800806F57A71814238BF8A
:10014000B0F1405F05D2801B012803D80120BDE833
:10015000F0870020BDE8F087F0B504460025DFF801
:10016000383781B0D3F85003012924D100E000686A
:10017000002852D0C668377B07F00F07022F1AD02D
:100180000068002849D0C668377B07F00F07022FA8
:1001900011D00068002840D0C668377B07F00F07F1
:1001A000022F08D00068002837D0C668377B07F0D8
:1001B0000F07022FDBD180B3012502B11060C268A6
:1001C000167B06F00F06022E27D1012904D1016902
:1001D000CA68898D511813E0118840F603029142D4
:1001E0001CBF40F60406B14207BF01694A690169B4
:1001F0000A69498B93F822335118192212FB031113
:10020000406BFFF766FF20600A20C0462168B1FB03
:10021000F0F02060284601B0F0BD002020602846A4
:1002200001B0F0BDF0B581B0044603F03EF90546DB
:10023000002C1CBFA07A002833D0DFF8682694F980
:1002400009001368012606FA00F1DF070ED5DFF872
:10025000582613681F0609D5DFF850261130536859
:1002600006FA00F0C0430340536010600020A07203
:10027000207220606060C4E90400A061DFF81826E5
:1002800094F9090092F82033864092F822031E4325
:1002900082F8206310B1401E82F82203C8B200F039
:1002A00064F9284601B0BDE8F04003F023B900002E
:1002B0002DE9F04700241125DFF8F0654FF0010922
:1002C000DFF8D485E0B2032806DA08EB401101F527
:1002D0003077B87A012805D0641C032CF2D3BDE82E
:1002E000F08700BF97F90900113009FA00F0C14307
:1002F000316072681043706097F909A003F0D5F877
:1003000098F8941309FA0AFA4AEA010A88F894A3B9
:1003100003F0F0F898F8840302280DD107F11000DB
:1003200005F000FA00F0FF00012805D1B869C8B156
:1003300098F8841302290FD098F8210397F909102F
:1003400005FA01F1084388F82103002108F58260CD
:1003500003F041F9C0E700BF05F0E4F900F0FF0049
:100360000128E9D10220B872B6E730B581B004287F
:1003700020D1DFF8244504F58D60007DC046C8B16A
:100380000A20C046054604F58D6003F05AF845433F
:10039000B5F5967F0ED204F58D6003F05DF805206B
:1003A00005F0C6FB012084F89103042104F56E706A
:1003B00003F011F9002001B030BD70B5044603F020
:1003C00074F80546DFF8D06496F84C0320EA04047C
:1003D000D6F8280386F84C43002420B1B830007DBD
:1003E000C04600B10124D6F82C0320B1B830007DFE
:1003F000C046044319D196F84C03002808BF002CCE
:1004000013D1D6F8480380B190F828108A070CD58C
:10041000446A284603F06EF8D6F848030022022109
:10042000A0470020C6F8480370BD2846BDE87040CC
:1004300003F060B8F0B400290CBF01230023002AA8
:100440000CBF01250025002839D02C0004BF90F8EE
:100450004440002C33D000291CBF91F84440002CAC
:1004600012D0446B0E6C0769A4080969A4EB9604CA
:100470000026B94218BFFE68A41B04F18054B4F1F1
:10048000805F88BF012301D8190018D0BAB1D168A4
:100490000C7B04F00F04022C11D1516B046C126917
:1004A00089080069A1EB94010024904218BFD46828
:1004B000091B01F18051B1F1805F88BF012503EA7A
:1004C0000500F0BC7047F0B581B06FF002071E4622
:1004D0008DF80070346805462246FFF7ABFF10B177
:1004E00001208DF800009DF90000B84201BFE968C5
:1004F000087B00F00F0002280CD100E024684CB10A
:10050000226821462846FFF795FF0028F6D00220F2
:100510008DF800009DF90010B94204D1E86B10B1CC
:1005200004218DF800109DF90070012F06D1294695
:10053000304605F0FBFD384601B0F0BD022F09D171
:10054000226829463046002A08D005F0CCFD3846FE
:1005500001B0F0BD042F03D12946304605F0D6FD89
:10056000384601B0F0BD0020704730B581B0044678
:1005700002F09BFF0546C84890F8941321EA040452
:1005800080F8944390F89423110704D4082100F5CF
:100590006E7003F020F8284601B0BDE8304002F04C
:1005A000A9BF2DE9F04F064681B000203060DFF88A
:1005B000E8A2DAF85003002418B3C16801240A7BCA
:1005C00002F00F02022A1CD10A88192140F6030307
:1005D0009A421CBF40F60405AA4219BF026913697A
:1005E00002695369528B406B9A189AF8223311FBB7
:1005F0000321FFF76EFD05460A20C046B5FBF0F863
:1006000001E04FF0000800254FF0FF390027F8B255
:10061000032805DA0AEB401101F53072907A18B917
:100620007F1C032FF3D326E0107A0125022820D067
:10063000DAF8980301691923B0F81AC09AF822036E
:10064000614413FB00115069FFF743FD83460A2004
:10065000C046BBFBF0F04845E2D88146E0E7C8451C
:100660000DD9C8464146316045EA040001B0BDE8F5
:10067000F08F4FF0000931682C42F0D134B141467F
:10068000316045EA040001B0BDE8F08F05B149468C
:10069000316045EA040001B0BDE8F08F2DE9F04F6C
:1006A00081B0DFF800AC9AF88413022905D101B0BB
:1006B0001920BDE8F04F02F00BBF9AF8840301281F
:1006C0001CBF9AF88403042800F0898002F0EDFE34
:1006D0000090DAF850030024002518B3C168012502
:1006E0000A7B02F00F02022A1CD10A88192140F667
:1006F00003039A421CBF40F60406B24219BF0269C6
:10070000136902695369528B406B9A189AF8223325
:1007100011FB0321FFF7DDFC06460A20C046B6FBAD
:10072000F0F800E0A04600264FF0FF390027F8B2AD
:10073000032805DA0AEB401101F53072907A18B9F6
:100740007F1C022FF3D91FE0107A012602281AD04D
:10075000DAF8980301691923B0F81AC09AF822034D
:10076000614413FB00115069FFF7B3FC83460A2074
:10077000C046BBFBF0F04845E2D88146E0E744467E
:100780004C4508D906E0A1463542F8D10DB14446A2
:1007900001E006B14C46354317D064B1214601292A
:1007A00098BF01210AF58D6002F052FE0AF58D60B6
:1007B00002F050FE0DE00AF58D6002F04DFE0421BE
:1007C0000AF56E7002F007FF03E00AF58D6002F093
:1007D00043FE009801B0BDE8F04F02F08BBE01B0BF
:1007E000BDE8F08F30B585B000220146039201923A
:1007F000049202928C68487E40F60203628022884E
:10080000D21A09D041F21E03D21A05D041F6E6737E
:10081000D21A012A0FD91CE0258A4FF6FF322A404E
:100820002282002819BF4FF60F4002402D2060F3AE
:10083000091222820DE0238B4FF6FF321A402283E9
:10084000002819BF4FF60F4002402D2060F3091217
:1008500022830020487602AD009504AB01AA03A9CB
:10086000204601F024FE50B1039A4FF6FF71108824
:10087000884204D10299019801F08BFD03E00299AE
:10088000019801F0CCFD0448D0F8AC1309B10198EF
:10089000884705B030BD0000A019002000093D00C8
:1008A0000430044040210840000004400810044087
:1008B0002DE9F04F85B000270397DFF8E859D5F808
:1008C00050630297002E6CD0D5F86403002804BF53
:1008D000D5F86003002844D1012787F0010903AA55
:1008E000494602A8FFF738FC01005CD10446DFF856
:1008F000B809D0F80480B8F1000F18BF002C00F040
:10090000FA820298002840F0F682D5F86413039822
:10091000CDF8009005F556730190D5F8600305F504
:100920005472C047012800F0E781022840F0E382BA
:10093000D5F86013D5F86003B1F93040D0F81080D5
:1009400002F0B3FD4FF0FF3182468C424AD1D5F818
:10095000600300283AD00069404537D1D5F860637C
:100960008CE0D5F860030028B7D0D5F8601308698B
:1009700031698842B1D196F83300C106ADD5D5F8BA
:1009800064030028A9D10127D5F86003C16848880D
:100990000028F9D0D5F86003C16848880128F3D051
:1009A0009BE7022135E3002FA0D1029900299DD0B9
:1009B000022938BF012105F58D6002F049FD05F5DA
:1009C0008D6002F047FD05B0BDE8F08FD5F86403F7
:1009D00028B10069404508BFD5F864634ED0D5F80A
:1009E00050634BE0B5F930000021A04204BF2B69F1
:1009F000434504D1582010FB01F16E183EE0B5F9D3
:100A000088000121A04204BFAB6E4345F2D0B5F986
:100A1000E0000221A04204BFD5F8C0304345E9D030
:100A2000B5F938010321A04204BFD5F81831434578
:100A3000E0D0B5F990010421A04204BFD5F870318F
:100A40004345D7D0B5F9E8010521A04204BFD5F848
:100A5000C8314345CED0B5F940020621A04204BFBB
:100A6000D5F820324345C5D0B5F998020721A042F8
:100A700004BFD5F878224245BCD00026002E00F0F5
:100A8000398196F83300010640F13481D5F86003CE
:100A9000864272D1D5F8600300224FF00053FFF771
:100AA000FEFAD5F8640300224FF00053FFF7F7FA7F
:100AB000DFF8880904F036FED5F8600300224FF015
:100AC0008073FFF7ECFAD5F8640300224FF08073CF
:100AD000FFF7E5FA306995F84C13D5F85093C5F84F
:100AE000480341F0010185F84C13484600E00068D6
:100AF000002800F0FF80484511D00068002800F071
:100B0000F98048450BD00068002800F0F380484584
:100B100005D00068002800F0ED804845E7D10028A6
:100B200000F0E8800446266814B12069404503D0EF
:100B30003400F8D150460AE200224FF0805320469C
:100B4000FFF7ADFA00224FF080732046FFF7A7FAB7
:100B500095F84C13D9F8100041F0010185F84C13B9
:100B6000C5F84803214605F5547005F0F2FA214610
:100B700005F5567005F0CAFADAE7D5F8640386423F
:100B800064D1D5F8640300224FF00053FFF787FAD1
:100B9000DFF88C0904F0C6FDD5F8640300224FF09D
:100BA0008073FFF77CFA306995F84C13D5F85093B1
:100BB000C5F8480341F0010185F84C13484600E0B0
:100BC0000068002800F09680484511D00068002891
:100BD00000F0908048450BD00068002800F08A8023
:100BE000484505D00068002800F084804845E7D1DA
:100BF000002800F07F800446266814B12069404533
:100C000003D03400F8D15046A1E100224FF08053C8
:100C10002046FFF744FA00224FF080732046FFF78A
:100C20003EFA95F84C13D9F8100041F0010185F80F
:100C30004C13C5F84803214605F5547005F089FAB0
:100C4000214605F5567005F061FADAE7D5F850430C
:100C50000FE02468002C4DD0B4420ED02468002C44
:100C600048D0B44209D02468002C43D0B44204D008
:100C70002468002C3ED0B442EBD12768B346CDF8AF
:100C80000080002600E0276820690099884220D172
:100C900000224FF080532046FFF701FA00224FF068
:100CA00080732046FFF7FBF995F84C13DBF8100032
:100CB000761C41F00101C5F8480385F84C13214624
:100CC00005F5547005F045FA214605F5567005F016
:100CD0001DFA3C00D7D1002E1FBF95F884030128D0
:100CE00095F88403042805D0DFF8601805F56E70C8
:100CF00002F071FC50462AE1039800B10646B6F9AD
:100D00003040D6F810A002F0D0FB4FF0FF3106467D
:100D10008C4214D1D5F8600328B10069504508BF52
:100D2000D5F8604357D0D5F8640328B10069504521
:100D300008BFD5F864434ED0D5F850434BE0B5F921
:100D400030000021A04204BF2B69534504D1582034
:100D500010FB01F16C183EE0B5F988000121A042BA
:100D600004BFAB6E5345F2D0B5F9E0000221A042BA
:100D700004BFD5F8C0305345E9D0B5F93801032197
:100D8000A04204BFD5F818315345E0D0B5F9900121
:100D90000421A04204BFD5F870315345D7D0B5F92E
:100DA000E8010521A04204BFD5F8C8315345CED093
:100DB000B5F940020621A04204BFD5F820325345C0
:100DC000C5D0B5F998020721A04204BFD5F8782212
:100DD0005245BCD00024002C00F08B8094F83300E6
:100DE000010640F18680D5F86003844219D1D5F818
:100DF000600300224FF00053FFF751F9D5F8640368
:100E000000224FF00053FFF74AF9DFF8300604F0F4
:100E100089FCD5F8600300224FF08073FFF73FF99B
:100E20000EE0D5F8640384421CD1D5F86403002297
:100E30004FF00053FFF733F9DFF8E40604F072FCDB
:100E4000D5F8640300224FF08073FFF728F920697A
:100E500095F84C13C5F84803304641F0010185F878
:100E60004C1374E0D5F850032746044600E024688C
:100E7000002C3ED0BC420CD02468002C39D0BC429F
:100E800007D02468ACB3BC4203D024688CB3BC4206
:100E9000EDD1216951452CD100224FF080532046DD
:100EA000FFF7FDF800224FF080732046FFF7F7F8B8
:100EB00095F84C13386941F0010185F84C13C5F8D9
:100EC0004803214605F5547005F043F9214605F520
:100ED000567005F01BF995F8840301281CBF95F89E
:100EE0008403042805D0DFF8641605F56E7002F05F
:100EF00072FB30462BE0002F00F08F803069D5F870
:100F00009813884218BF4FF4806140F08280002C13
:100F10001CBF029800281FD0D5F86003002804BF2A
:100F2000D5F86403002817D102F0BFFA044695F8FB
:100F3000940300F0F70085F8940395F894030107F3
:100F400004D4082105F56E7002F045FB204602F03E
:100F5000D1FA05B0BDE8F08F02F0A7FA95F8941326
:100F600041F0080185F8941302F0C4FA96F83300B2
:100F7000C10605F5547004D505F0A3F8C5F864035F
:100F800003E005F09EF8C5F86003D6E90601DFF836
:100F90009428DFF8107AC0439060D368D6E9060140
:100FA0000343D360D6E906AB6FEA0B0BC2F800B07F
:100FB0005368D6E906010B435360D7F804A0F468E0
:100FC0005346180007D0387A010704D5D5F898039E
:100FD000324608219847204604F0A4FB208840F6BA
:100FE0000201401A08D041F21E01401A04D041F615
:100FF000E671401A01280AD8BAF1000F07D0387AF2
:10100000C10704D5D5F8980322460121D0474FF0F7
:10101000804105F56E7002F0DEFA05B0BDE8F08F94
:10102000F0B581B09F4ED6F86043DFF87C0904F03C
:1010300026FC0546DFF8D0090268076802F02002A6
:101040002A4007F4602718BF002C0CD01346C6F8BE
:10105000684300222046FFF722F84FF4804106F54E
:101060006E7002F0B8FA3D400DD096F821030021D1
:1010700040EA554506F5826086F8215301B0BDE887
:10108000F04002F0A8BA01B0F0BD2DE9F04381B004
:10109000DFF8109299F82103002400284CD099F829
:1010A00021030026C1073DD599F821231021B14025
:1010B0000A4218BF012402F0F8F999F8211311220D
:1010C000B240914389F8211302F014FA032E33DA67
:1010D00009EB461101F53072907A68B392F90980F4
:1010E000DFF82819002C01EB88010D681668576895
:1010F00004BF107A022803D1D2E90401C30009D445
:101100001046FFF78FF82CB10020009000224FF01E
:10111000007303E0009500224FF000634146304623
:10112000B84709E099F8210301268107BCD499F852
:10113000210302264107B7D499F8210338B109F5F4
:10114000826001B00021BDE8F04302F044BA01B072
:10115000BDE8F0830FF254122DE9F043D2E90034D8
:1011600085B04FF48040CDE900344FF0000804F022
:10117000D3FA00B3DFF89808D0F813100078C1F361
:10118000150102AA800841EAC0714648D0F8983398
:10119000986801F021FA4348DFF80838D0F898033E
:1011A0005B688268190006D0DFF8F847217ACC071F
:1011B00044BF012198476E464FF0020937683868EE
:1011C00020B9361DB9F10109F8D15CE03868D0E9E1
:1011D000060104F0A1FA3D6800210446CDE90201B0
:1011E00002F063F984467DB9604602F083F914F099
:1011F0000A0F1AD1002CE4D038682A4948F48048F4
:10120000C1F86803DDE700BFD5E90A23DDE9020183
:1012100010431943C5E90A01D5E90823DDE90201B4
:1012200010431943C5E90801DEE73868DFF8D8172D
:101230008A68D0E90601DFF8DC37DFF8CC471840D0
:101240008243A260386822461368D0E906018B43C6
:1012500013603A68DFF84C375B68180009D0DFF894
:101260004417087AC10604D50E48D0F89803102117
:1012700098473968DFF8A00748F0020804F046FFF5
:10128000002038609DE75FEA08011CBFDFF88C078B
:1012900002F0A1F9FFF70CF8FFF70AFB05B0BDE873
:1012A000F0830000A0190020D00C0020001D0020B9
:1012B000041D002030B581B0DFF86447B4F96C0339
:1012C000B4F96E13884217D102F0EFF8054694F88E
:1012D000940300F0F70084F8940394F89403010752
:1012E00004D4082104F56E7002F075F9284601B0A7
:1012F000BDE8304002F0FEB801B030BD0720FFF776
:101300005CB82DE9F0410746D7F8A8608846144636
:101310001D4606B1B047D7E9280104EA000215EAE4
:10132000010308BF002A00F08780DFF8F446B4F913
:1013300030000021404504BF2669BE4203D194F825
:10134000330005065CD4B4F988000121404504BF90
:10135000A66EBE4203D194F88B00050650D4B4F9B2
:10136000E0000221404504BFD4F8C060BE4203D172
:1013700094F8E300050643D4B4F93801032140454D
:1013800004BFD4F81861BE4203D194F83B010506AE
:1013900036D4B4F990010421404504BFD4F87061FB
:1013A000BE4203D194F89301050629D4B4F9E801AB
:1013B0000521404504BFD4F8C861BE4203D194F86A
:1013C000EB0105061CD4B4F940020621404504BFD8
:1013D000D4F82062BE4203D194F8430205060FD42C
:1013E000B4F998020721404504BFD4F87852BD42B1
:1013F00003D194F89B02050602D4C7E92C2312E01E
:10140000582010FB01F1C7E92C230C44D4E9082330
:10141000D7E92C0122EA000023EA0101C4E908010E
:10142000D7F8A820A2600020C7F8A80007F1500054
:10143000BDE8F04102F091B8BDE8F081010001047F
:10144000704700B581B002F0BAF8DFF8D425014644
:10145000D2F89803D2F8882301B05DF804EB104766
:10146000DFF8BC05D0F888130FF2B952914208BFDB
:10147000FFF714B9042100F56E7002F0ACB830B576
:1014800081B04FF0FF3004F047F90446DFF8905583
:10149000D5F888030FF28D51884232D10022DFF84F
:1014A000501C05F57D7002F015F8022085F88403C4
:1014B000D5F898138A6801F1380300E002465068B5
:1014C00090B198421EBF0246506800280CD0984246
:1014D0001EBF02465068002806D098421FBF024631
:1014E000506800289842E9D1507B10F00F0F02BFDE
:1014F000488F40F60901884203D0FEF7D9FEFFF776
:10150000D7F91248044208D005F56E7001B04FF0CB
:101510000051BDE8304002F05EB801B030BD0000BF
:101520000100012400B581B04FF0FF3004F0F4F861
:10153000800708D501B04FF40061DFF8E0045DF8E2
:1015400004EB02F048B801B000BD0000020000400A
:101550002DE9F041DFF8C874D7F85863002E00F089
:10156000AD800821F06840F6040240F6030301E074
:101570004068491E68B1CCB25CB104889C4218BF77
:101580009442F5D1326902F138011CC81CC11CC853
:101590001CC1D6E90A450022C6E90A22B068D0B1CA
:1015A00015F0E24310D024F00F0235F0E24308BFFB
:1015B000002A05D0B6F930103069D6F808C0E047E7
:1015C00004F0000405F0E2452246B6F93010306917
:1015D000B4682B46A04701F068FF0446B7F86E03D5
:1015E0006FF00201401CC0F30B00A7F86E0300204F
:1015F00086F83300318607F5567004F062FD204608
:1016000001F078FFB7F96E03B7F96C13884255D132
:10161000D7F8981300240520A046D7F82853D7F808
:101620002C6300291EBF91F8FC1000290720FEF74B
:10163000C4FE2DB195F8FC0000B92C6885F8FC803B
:101640003EB196F8FC0008B9D6F80080002086F874
:10165000FC00444538BF4446E4B9B7F96C03B7F918
:101660006E1388422AD101F020FF044697F89403B4
:1016700000F0F70087F8940397F89403010704D467
:10168000082107F56E7001F0A6FF2046BDE8F04185
:1016900001F030BF14F1010F10D001F0D0FEB4FB07
:1016A000F0F1012998BF012107F2AC4001F0D0FE12
:1016B00007F2AC40BDE8F04101F0CCBEBDE8F081DE
:1016C000D74A92F884130020022904BFD2F860138D
:1016D000002903D1D2F8641301B90120704770B515
:1016E0000446CF482568D0F89C6304F009F8864288
:1016F00031BF861B401E861B761C360BAE423CBF9C
:1017000075196E0840F6C410864288BF064604D894
:10171000B6F5967F38BF4FF49676266070BD30B52B
:101720000D4681B0BE4CA80712D5FFF711FFD4F8C3
:10173000580340B145F0020104F56E7001B0BDE8F8
:10174000304001F048BF01B0BDE83040FEF7A6BF11
:10175000680764D5012184F89613042004F0E8F9A1
:1017600003F0CEFFC4F89C03D4F8500398B1056988
:10177000D4F89803002818BFA8420AD095F828008A
:10178000410704D56B6A00220421284698470120AE
:101790006876C4F89853D4F898134A68DFF8B81BF1
:1017A00010780860022004F0C3F9102004F0D5F985
:1017B000012084F884037B49887810B90D2004F057
:1017C000CCF9D4F8980341688868002804BFC86839
:1017D000002806D0DFF8840B0021C161DFF8802BE0
:1017E00002600720DFF87C1B0860DFF8700B42699D
:1017F0000021416182698161426942F0402242F0E8
:10180000020242610FF22100C4F888031A2001F09D
:101810004DFE01B01920BDE8304001F047BE01B0D7
:1018200030BD0000081004402DE9F0410746880053
:1018300040F1B580DFF8E881D8F89803416848683E
:101840008E68CD68010018BF8047DFF8104B30006C
:1018500008BF002D0DD0E0690028FCD00021E16117
:10186000300018BFB04705B1A847DFF8FC0A03F005
:1018700059FF0020E061DFF8F41A216040F60A0504
:10188000A8F87053A8F8720398F87C1301F0F001DF
:1018900088F87C13C8F8740398F87D13384601F073
:1018A000F00141F0010188F87D13FEF79BFFD7F8A6
:1018B000088040F6040140F60302464600E0064672
:1018C000706828B10388AB421CBF93428B42F6D1AB
:1018D00096F80DC0524B03F55C700CF0F00C706084
:1018E00086F80DC0D3F8500328B1C0680088904234
:1018F00018BF88421CD0388FD0B1002197F845001E
:101900007987F96397F8441000F0F00040F0010087
:1019100001F0F00187F8450087F8441007F138001E
:10192000C3F8740393F87D1301F0F00183F87D137D
:10193000E0690028FCD00022E2614FEA030797F833
:1019400091030FF2E101C7F8881330B104F05CFA9B
:101950000028FBD004F069FA0EE0012004F057FCE7
:10196000012809D0707B00F0F00040F00100707396
:101970000FF23900C7F888030021E161C4F8008044
:10198000DFF8400C4368190009D0007AC10706D57A
:101990004246D7F898030121BDE8F0411847BDE859
:1019A000F08100003CA3020020000E00DFF8182C9C
:1019B000114200D1704710B5012004F028FC012825
:1019C0000DD1DFF8080C0FF25D01C0F88813DFF8C5
:1019D0008C190022CA6100F55C70086010BD0A20F5
:1019E000C0463221B1FBF0F1012998BF0121DFF897
:1019F000DC4B04F58D6001F02BFD04F58D60BDE836
:101A0000104001F027BD00000C1004409430044049
:101A100085030021FDBFFFFFF81C0020581D00209A
:101A2000A01900202DE9F04704460E4682B0DFF8E9
:101A30009C8B70042CD501F038FDD8F8687317B36F
:101A4000D7E90A2302F00A0413F0E04508BF002C8E
:101A500019D1D7E90A45D7E90A23A243AB43C7E91D
:101A60000A2301F047FDB86878B1002D08BF002CAB
:101A70000BD0B7F9301038692246BC682B4626F4E3
:101A80008046A047BBE201F035FD26F48046B6E271
:101A9000B00040F18280DFF8380BD0F88C1041F0B4
:101AA0008001C0F88C1098F8960328B1042003F048
:101AB000CEFF002088F8960301F0F7FC05460420CD
:101AC00004F0A5FBD8F8B423014691421DD1207E35
:101AD00000281CBFD8F89C03002816D0D8F8600353
:101AE00070B1C36840F60302198891421FBFC368F2
:101AF000188840F60401884208BF04F1140001D0A0
:101B000004F11000FFF7EBFD05E040F6C410206182
:101B10006061C8F8B413284601F0ECFCD8F89813BB
:101B20008A6801F1380300E00246506890B198429B
:101B30001EBF0246506800280CD098421EBF0246C5
:101B40005068002806D098421FBF024650680028FF
:101B50009842E9D1507B10F00F0F02BF488F40F63A
:101B6000090290420FD1256A00224FF000736FF4F2
:101B700080712046A847D8F8500310B1FEF78EFDBB
:101B800001E046F002062046E46900224FF080633F
:101B90000021A04726F0005631E2B00709D5FFF733
:101BA000D7FCD8F85803002840F0298226F0020616
:101BB00025E2700540F1B98001F077FC0546FFF79A
:101BC0007FFDD8F85043012840F0A980002C00F098
:101BD000A680042088F884030022DFF8F81908F5AD
:101BE0007D7001F077FC284601F084FC08F2AC40DF
:101BF00001F032FC03F084FDC8F8A003012088F84E
:101C00009603042003F094FF2069C8F8980390F825
:101C100028104A0703D5436A002204219847D8F8C0
:101C20009803DFF8385741688F684868D1F80C90FE
:101C3000002F08BFB9F1000F04D00021E961DFF8DF
:101C400020272A6008B1C046C046002F08BFB9F15E
:101C5000000F0ED0E8690028FCD00021E96107B12F
:101C6000B847B9F1000F18BFC847DFF8FC0603F00A
:101C700059FDD8F89803012140F603074176FEF795
:101C8000B1FDD8F8983340F60A0C40F6040E9A6875
:101C9000114600E00146486830B1B0F80090E145D7
:101CA0001CBFB945F145F5D191F80DC00020486041
:101CB0000CF0F00C4CF0010C81F80DC0E0680088CD
:101CC000B84218BF704503D10020C8F8A00315E042
:101CD000188F98B103F13800002444804460047BDD
:101CE00004F0F0040473447B04F0F00444F00104B5
:101CF00044734860487B00F0F00048730020E861BE
:101D00002A60DFF8C008446821000BD0007AC107C0
:101D100008D501211846A04726F480666FE12846C1
:101D200001F0E8FB26F4806669E1310560D598F89A
:101D3000960328B1042003F08AFE002088F8960359
:101D4000D8F8984304F10802136804F1380500E05C
:101D50000346586890B1A8421EBF03465868002841
:101D60000CD0A8421EBF03465868002806D0A842DF
:101D70001FBF034658680028A842E9D1587B10F0DD
:101D80000F0F02BF508E40F60902904207D1204645
:101D9000246A00224FF000736FF48071A047D8F8D6
:101DA000A00380B103F0ACFCD8F8A013814231BF8E
:101DB000401A401E401A401CD8F89813000BC86007
:101DC0000020C8F8A0030022C94908F57D7001F081
:101DD00081FB022188F88413D8F8580318B108F55C
:101DE0006E7001F0F8FBFEF759FC26F4006606E180
:101DF000300740F1FE8001F058FB0446FFF760FC1D
:101E0000002800F0EE8098F89403010700F1E980C3
:101E100098F89403010600F1E4806846FEF7C1FBE0
:101E200018B10098002800F0DC8098F82103002801
:101E300040F0D78000250127E8B2022805DC08EB36
:101E4000401101F53071887A18B96D1C032DF3D358
:101E50001BE08F7291F909A001F027FB814698F8E9
:101E6000940307FA0AFA20EA0A0A88F894A398F871
:101E70009413080703D5484601F03CFBE5E7082129
:101E800008F56E7001F0A7FBF5E7032088F88403DE
:101E900008F2AC4001F0E0FA204601F02BFBDFF83D
:101EA000BC44606900216161E068E1600022DFF804
:101EB000241B08F57D7001F00DFB03F021FCD8F820
:101EC0009C13814231BF401A401E401A401C4FF003
:101ED000FF32D8F88C13A2EB10328A4234BF4FF095
:101EE000FF3001EB1030C8F88C0398F8900330B144
:101EF000D8F8A403D8F88C13C002884230D2DFF897
:101F0000D0060268D10726D5DFF8CC0A0268110690
:101F100021D540F60900A8F870030021A8F8721333
:101F200098F87D0300F0F00040F0010088F87D0390
:101F300098F87C0300F0F00088F87C03C8F874136C
:101F40000020E06108F55C71216000BFB8F8720301
:101F500010F4406FFAD0002188F89073C8F88C1301
:101F600003F0EDFB0020DFF8FC130860DFF85446B7
:101F70006368180007D0207A810704D5D8F8980341
:101F8000002202219847022003F061FD102003F097
:101F900074FD98F8950320B9D8F89803503001F0F3
:101FA000DCFAA07810B90D2003F067FD98F89103D2
:101FB00028B1002188F89113052003F048FDDFF8CF
:101FC0007C0AC8F88803002188F88413B8F96E13D6
:101FD000B8F96C230220914208BF0720FEF7EDF903
:101FE00002E0204601F086FAFEF758FB26F00806CC
:101FF00005E0700003D5FEF751FB26F0804626B1C0
:10200000314608F56E7001F0E6FA02B0BDE8F087DF
:102010002DE9F04E81B005B4DFF8B0A581B09B4644
:102020000025DAF850430E4600E02468002C5BD00F
:10203000B4420ED02468002C56D0B44209D0246893
:10204000002C51D0B44204D02468002C4CD0B442AF
:10205000EBD1002C48D0206901992768884209D02B
:102060009DF80800002818BF3C46F2D1284604B06D
:10207000BDE8F08E01F019FAD4E90A2343F0805943
:10208000C4E90A29D4E9082343F08059C4E908299E
:1020900001F030FABBF1000F0CD121460AF5547063
:1020A00004F057F821460AF5567004F02FF86D1C1D
:1020B000D6E700BF01F0F9F9D4E90A2343F08079AB
:1020C000C4E90A29D4E9082343F08079C4E908293E
:1020D00001F010FA9AF84C13306941F001018AF8C6
:1020E0004C13CAF84803D8E7284604B0BDE8F08E80
:1020F000551100002DE9F04E1446032782B08246A8
:102100009B46002C14BF4FF080494FF000590E46FB
:1021100001F0CBF94FF0FF310090DFF8B0548E4260
:1021200014D1D5F8600328B10069504508BFD5F82F
:10213000606357D0D5F8640328B10069504508BFE3
:10214000D5F864634ED0D5F850634BE0B5F9300054
:102150000021B04204BF2B69534504D1582010FB25
:1021600001F16E183EE0B5F988000121B04204BFCC
:10217000AB6E5345F2D0B5F9E0000221B04204BF86
:10218000D5F8C0305345E9D0B5F938010321B04244
:1021900004BFD5F818315345E0D0B5F990010421BA
:1021A000B04204BFD5F870315345D7D0B5F9E80136
:1021B0000521B04204BFD5F8C8315345CED0B5F99A
:1021C00040020621B04204BFD5F820325345C5D0A5
:1021D000B5F998020721B04204BFD5F878225245DC
:1021E000BCD00026002E00F0808096F83300010657
:1021F0007AD50A9FD5F860138E422ED1D5F86003A8
:1022000000224B46FDF74BFFD5F8640300224B46F6
:10221000FDF745FF002C14BFDFF8080ADFF8080AB5
:1022200003F080FAF8B200283BD0D5F86003002212
:102230004FF08073FDF733FFD5F8640300224FF0B1
:102240008073FDF72CFF95F84C13306941F00101C4
:1022500085F84C13C5F8480323E0D5F864138E4283
:102260002BD1D5F8640300224B46FDF718FF002C54
:1022700014BFDFF8B809DFF8B80903F053FAF8B271
:1022800078B1D5F8640300224FF08073FDF707FFA3
:1022900095F84C13306941F0010185F84C13C5F8ED
:1022A0004803BBF1000F1DD0D5F85013FBB25A46BE
:1022B0005046FFF7ADFE832717E0FBB25A46314682
:1022C0005046FFF7A5FE78B195F8840301281CBF9E
:1022D00095F88403042805D0DFF8D81A05F56E7048
:1022E00001F079F9832700E00427009801F002F952
:1022F000384602B0BDE8F08E10B50C46B34991F8EF
:102300008423022A0BD103F00DFA04B1206000F0FF
:10231000FF00012801D1812010BD022010BD012045
:1023200010BDF0B581B004460D46164601F0BDF86B
:102330000746A648D0F898138C4218BF032404D14E
:1023400031462846FFF7D8FF0446384601F0D2F858
:10235000204601B0F0BD0000D0210840001004402C
:1023600051000706000004600100070601010E0489
:1023700030B5144681B00546502340F2FF3203F0D9
:10238000FDF924B1014655F82110890A216001B0F8
:1023900030BD002942D00A0E202A08BF10221AD0D0
:1023A000212A08BF202216D0A02A08BF302212D02E
:1023B0000AB940220FE0102A08BF50220BD0112A80
:1023C00008BF602207D0402A08BF702203D0502ADD
:1023D0000CBF802290228901090A42EA012141F0C2
:1023E0000F0100E0001D026812F1010F18BF8A42C0
:1023F0001CBF50F8042F12F1010F0ED08A421CBFEF
:1024000050F8042F12F1010F07D08A421EBF50F876
:10241000042F12F1010F8A42E4D1016070470029B4
:1024200044D00A0E202A08BF10221AD0212A08BF41
:10243000202216D0A02A08BF302212D00AB940228A
:102440000FE0102A08BF50220BD0112A08BF6022CB
:1024500007D0402A08BF702203D0502A0CBF802228
:1024600090228901090A42EA012141F00F0100E0AE
:10247000001D026812F1010F18BF8A421CBF50F8FC
:10248000042F12F1010F0ED08A421CBF50F8042F06
:1024900012F1010F07D08A421EBF50F8042F12F12B
:1024A000010F8A42E4D14FF0FF31016070472DE9FE
:1024B000F04381B01E46089DDFF83C3AD3F8008017
:1024C000038840F602074FEA586818F0010865D003
:1024D000BB4207D0B3F5C15F10D043F60607BB423D
:1024E00018D022E000F112030B604169116082698B
:1024F0003260C1692960C77B047C22E000F11203CD
:102500000B6041691160426A3260816A2960C77B51
:10251000047C16E000F11A030B60C169002711600A
:10252000026A3260416A29600AE000F11A030B6016
:10253000C1691160826A3260C16A296090F82470B2
:10254000047E306804F0070488B105234FF6FF725B
:1025500040F2037103F012F98146B9F1050F06DA72
:102560002146384603F04EF9316841F829002868C1
:1025700020B305234FF6FF7240F2037103F0FEF81B
:102580000646052E1ADAFF21384603F03BF9296882
:1025900041F82600404601B0BDE8F083BB4218BFB9
:1025A000B3F5C15F07BF00F11203406900F11A03E0
:1025B000C0690B601060002030602860404601B0A8
:1025C000BDE8F0833CA3020004000020A019002015
:1025D00040210840251500002DE9F0470E468AB03D
:1025E0000021174602910591039101910DF1040E0E
:1025F0008046CDF800E003AB05AA02A9FFF757FF1C
:1026000098F80F10832401F07F014D1EAD41ED437A
:10261000ED0FF10F75D140B3039800281CBF01984E
:1026200000281BD0029840F22B2A50230680DDF8A8
:102630000C9040F2FF325146484603F09FF8FF28C5
:102640001CBF4AEA862A49F820A001990598FFF79D
:10265000E6FE15203880039979600BE0029A4FF668
:10266000FF711088884200F0938002981021068044
:1026700039807E80002D00F08C800021079106912A
:102680000491089108A9009104AB06AA07A9404645
:10269000FFF70DFF079A4FF6FE71002811801CBF4F
:1026A0000498002813D040F22B280546502340F20E
:1026B000FF32414603F062F8FF281CBF48EA862833
:1026C00045F8208015213980049A7A6016E0069832
:1026D00000285DD040F22B280546502340F2FF32FF
:1026E000414603F04BF8FF281CBF48EA862845F80E
:1026F000208014213980C6F315067E60FF2848D15A
:1027000046E0002844D0039800281CBF0198002808
:102710001FD002984FF6FF7150230180DDF804802E
:1027200040F2FF322B21404603F028F8FF2804D066
:10273000B60246F02B0648F8206001990598FFF78D
:1027400028FE152038800199204679600AB0BDE83E
:10275000F087DDF81480502340F2FF322B214046F1
:1027600003F00CF8FF2804D0B10241F02B0148F827
:102770002010FF280CD002994FF6FF701422088019
:102780003A80C6F315067E6020460AB0BDE8F087A1
:10279000032420460AB0BDE8F0872DE9F043154632
:1027A00091B000220C460892019207920692DFF83F
:1027B00014891F46D8F80810002C18BF002D00F00F
:1027C00004812278D140CB0740F1FF8006460021EA
:1027D00028460020C046B5607460DFF8EC98D9F850
:1027E000AC0388B106A9009107AB01AA08A9284645
:1027F000FFF75DFE019850234FF6FF720B2102F0A8
:10280000BDFFFF2800F0E18000F04FFE054699F87B
:102810009503012800F3D680002840F0808003F063
:1028200064F8DFF8A808C8F8000002A800F097FED6
:10283000DFF89C48607802AADFF89818049009F540
:102840006E7000F094FE02AADFF88C1809F5826021
:1028500000F08DFE02A800F045FE207802AB5D4A34
:102860000390192109F57D7000F0F8FD02ABDFF847
:102870006C281A2109F24C4000F0F0FD00230022E0
:10288000DFF85C1809F58D6000F0BEFD0023002222
:10289000DFF8C41809F2AC4000F0B6FDDFF8BC0860
:1028A0000168C1F3814038B10023DFF8B428042166
:1028B00009F59E6003F0B9F8A078012804BF0D2047
:1028C00003F04BF909F5567003F0F0FB09F554706D
:1028D00003F0ECFB002089F88403C9F88C03002185
:1028E000072089F8901389F8911389F82003C9F813
:1028F0009C1300200521C9F8A003C9F8A41389F886
:1029000094034E49C9F888136368180007D0207AE9
:10291000410704D5D9F8980300220421984799F873
:1029200095033C4609EB8002C2F82863401C89F8F5
:102930009503284600F0DEFD3CB90FF2E84191E82E
:10294000BC5109A880E8BC5109AC20684FF4FA7169
:102950003060F160A069B062218A012070767183D5
:10296000E1693163606818B130616068002103E09B
:1029700040F6C410306101213176DFF8E81770614C
:102980007162F161E06800B101463162606900B1D5
:102990007062A06800B1F061C82106F1380003F050
:1029A000CBFC002106F1500000F0A5FD0023002221
:1029B000DFF8DC1806F1B80000F026FD304611B053
:1029C000BDE8F083284600F095FD002011B0BDE879
:1029D000F08300007F140000000004402DE9F04166
:1029E00000F063FDDFF8E04694F8841302291CBF71
:1029F00094F88413042907D1DFF89828146800F0AC
:102A000079FD2046BDE8F08100F074FDDFF85089C3
:102A100002F076FE10F50036A8FB0623D4F88003FA
:102A200041F1000708FB073301460020141843EB6F
:102A300001052C462046BDE8F08100001F1700006C
:102A40002DE9F04F83B082460F4615469B4600F0B5
:102A50002CFD0190DFF87096D9F828036FF001047F
:102A6000824508BFD9F82C0330B1B83000F0EBFC38
:102A700010B16FF00204ACE0FDF7E0FA060000F0E0
:102A8000C880DDE90C4809F2AC4000F0E5FCB9F87B
:102A90006C03202108EA0101401CC0F30B00A9F8D7
:102AA0006C03F760002086F83200C6F808B0B9F869
:102AB0006C23DFF8B008C6F810A032862040C6E9C3
:102AC0000601002286F83320C6E90822EA6832644B
:102AD000287C86F8440029687163287986F83800D4
:102AE000A968F1636869B064A969F164287F86F810
:102AF0005000697F86F85110287C20B9E86810B131
:102B0000012186F844102879002802BF387B00F0A4
:102B10000F00022804D1012086F83800B9687163DB
:102B2000082001E00F46401E7968002918BF0028E0
:102B3000F8D13A88D6E9060102F47C42B2F5305F5A
:102B40000AD196F8332040F0080042F0100286F8CF
:102B50003320C6E9060103E040F00202C6E906217F
:102B6000D9F84803504507D199F84C03C10744BF31
:102B700000F0FE0089F84C03DFF8EC0704686FF002
:102B800002080CB944461DE0D9F8642309F55670D3
:102B90000090D9F8601309F554733046A0470446F5
:102BA00044450FD0B9F96C03B6F93010884206D00D
:102BB000B9F86C03411EC1F30B01A9F86C1314F1B1
:102BC000020F0FD1B9F86C03411EC1F30B01A9F834
:102BD0006C1399F84C03C9F848A340F0040089F835
:102BE0004C0316E0B6F9304096F83300002140F06F
:102BF000800086F833008AF8FC10D9F85003B04200
:102C00001FBFF168087B00F00F00022808BFFDF726
:102C100045FD019800F06EFC204603B0BDE8F08F42
:102C20000000000001000204010001040100022470
:102C300001000124F0B506460F4681B014461D463A
:102C4000380003D50020002101B0F0BD00F0B5FC34
:102C5000DFF87434B3F930100022B94204BFD3F85E
:102C600010E0B64504D193F833105FEA016C60D4EC
:102C7000B3F988100122B94204BFD3F868E0B64521
:102C800004D193F88B105FEA016C52D4B3F9E010D1
:102C90000222B94204BFD3F8C0E0B64504D193F88C
:102CA000E3105FEA016C44D4B3F938110322B9424E
:102CB00004BFD3F818E1B64504D193F83B115FEA9D
:102CC000016C36D4B3F990110422B94204BFD3F891
:102CD00070E1B64504D193F893115FEA016C28D4F2
:102CE000B3F9E8110522B94204BFD3F8C8E1B645EB
:102CF00004D193F8EB115FEA016C1AD4B3F94012D6
:102D00000622B94204BFD3F820E2B64504D193F8B5
:102D100043125FEA016C0CD4B3F998120722B9424E
:102D200004BFD3F87872B7420BD193F89B120F0609
:102D300007D5582111FB02F29F1897F8332011068E
:102D400005D400F04AFC0220002101B0F0BDD7E913
:102D5000082344F00A0445F0E04522402B4008BF18
:102D6000002A0ED000F039FCD7E9080120402940A4
:102D7000C6E92C01D7E9082382438B43C7E908231E
:102D800013E0BA68DFF8E4158A4204D0D7F808C027
:102D9000C6F8A8C0B960C6E9284500F01EFC4FF08F
:102DA000FF3106F1500000F0D1FBD6E92C0101B053
:102DB000F0BD000002000040D0B582B0DDE906673A
:102DC0000446CDE90067FFF73BFE0146204602B00E
:102DD0000A224FF0E043BDE8D0402BE710B594083D
:102DE00082B004F001045308009403F0010302F0E0
:102DF0000102FFF77FF902B010BD10B5940882B050
:102E000004F001040094012302F00102FFF772F9BB
:102E100002B010BDF0B500BF02A191E8FC5080E8FF
:102E2000FC50F0BDFFFFFFFF0000000000000000AD
:102E3000000000003A013A0100000000000000001C
:102E4000000000000022FFF76CBA0022FFF769BA09
:102E500000B581B06A46DFF81C15FFF762FA8128D9
:102E600003BF0098000200166FF07F0001B000BDA4
:102E700070B50E461446832500F017FB052E36D894
:102E8000DFE806F0030F15351F28DFF8E424D2F839
:102E9000601321B1D2F860130A8E228028E08025C9
:102EA00026E0DFF8CC1491F82023228020E0DFF820
:102EB000C01491F88423022A0CBF01210021217043
:102EC00016E0DFF8AC14D1F828232260D1F82C13D7
:102ED00061600DE0DFF89824D2F8281301B1C968C9
:102EE0002160D2F82C1301B1C968616000E00325AC
:102EF00000F000FB284670BD940A005070B4DFF863
:102F00007034B3F9304000228C4204BF1E698642FF
:102F100003D193F83340250659D4B3F988400122F0
:102F20008C4204BF9E6E864203D193F88B402506E7
:102F30004DD4B3F9E04002228C4204BFD3F8C06004
:102F4000864203D193F8E340250640D4B3F93841D3
:102F500003228C4204BFD3F81861864203D193F850
:102F60003B41250633D4B3F9904104228C4204BF7F
:102F7000D3F87061864203D193F89341250626D495
:102F8000B3F9E84105228C4204BFD3F8C8618642F8
:102F900003D193F8EB41250619D4B3F94042062238
:102FA0008C4204BFD3F82062864203D193F8434297
:102FB00025060CD4B3F9984207228C4204BFD3F8FB
:102FC000781281420AD193F89B02010606D5582057
:102FD00010FB02F29818C06870BC7047002070BCEB
:102FE000704700002DE9F04F81B00E46834617462A
:102FF00096F90480346800F058FA334A6FF00109FA
:1030000000904FF0000C012392F820A303FA0CFE6D
:103010001AEA0E0F06D04FF0FF35A84518BFE0455D
:1030200000F006800CF1010CBCF1030FEED342E07E
:103030005FFA8CF00328F5DA02EB401505F53075E0
:10304000A87A0028EED12AEA0E0E82F820E3AB72AD
:1030500085F809C092F822030A21401C82F8220355
:10306000C5F800B02B723F486860298295F90900C5
:10307000401DA874B068686100207FB13978787805
:1030800095F90930490141EA80015B1D41EA0321BC
:103090004FF6FC700140DFF8E0020843A86104B17C
:1030A0006C60D2F8980310B92968C2F89813FDF73C
:1030B000F5FA95F90990009800F01CFA484601B01D
:1030C000BDE8F08FCC210840A0190020110000E0DD
:1030D0003CA30200431400008B10000021100000EC
:1030E00061140000F0B581B004460F46802500F061
:1030F000DCF9FFB20646032F27DADFF8743203EB60
:10310000471101F53077B87AF8B13968A1421CD17E
:1031100093F88403022812D197F90910D3F8980381
:103120000022491D0906090C41F0816141F00101AD
:10313000FFF7F7F805463846FDF774F805E038461E
:10314000FDF770F88125FDF7A9FA304600F0D2F9B5
:10315000284601B0F0BD0000B51200000400005088
:103160006B030000411400002DE9F04107460D46B5
:103170001646832400F099F98046092D00F28080DC
:10318000DFE805F005081114171D43556B70306812
:10319000386076E038690121797660303861786985
:1031A000603078616DE0306878836AE03168B985B5
:1031B00067E03068DFF8B811C1F8A40361E0306857
:1031C00050B900F072F9DFF8A81191F8942342F099
:1031D000800281F8942315E0012851D100F065F9AF
:1031E0000646634890F8941301F07F0180F8941329
:1031F00090F894130A0704D4082100F56E7000F0CB
:10320000EAF9304600F076F93BE0594991F8840339
:10321000002804BFD1F85003002811D131681920CB
:1032200000F05EF931681A2000F05AF929E0504F99
:1032300097F88403002804BFD7F85003002801D072
:1032400000241EE0316807F56E7000F0C8F931689F
:1032500007F5826000F0C3F913E03078444981F843
:1032600020030EE04548436819000AD0007A810621
:1032700007D53F48D0F8980332462021984700E010
:103280000324404600F036F92046BDE8F0810000F6
:10329000FD1200000430044030B5044683B0A0683D
:1032A0006A46FFF799F90546832804D1002269464A
:1032B0002046FFF736F8284603B030BD30B587B05A
:1032C000002204AD059203920292049200950FF23F
:1032D000B4012B4A0C680192806802AB03AA05A9CD
:1032E000FFF7E5F805994FF6FF720988914219D169
:1032F000002831D0029800281CBF0498002802D072
:1033000001AA2B2102E001AA2B210398FFF730F834
:10331000FF2821D0019807B060F3150444F0004461
:10332000204630BD4FF6FE72914212D1029800281D
:1033300004BF039800280FD001AA40F22B21FFF709
:1033400017F8FF2808D0019907B061F3150420464B
:1033500030BDA40D41EA8454204607B030BD0000C2
:1033600000093D00FFEFFF9FD00C00200313000079
:10337000A019002001000304010004063CA3020080
:10338000FFFF3F00FFFF3F00EFF31180202102E02D
:10339000EFF31180002181F31188704780F31188C9
:1033A000704702F0F9BF10B500F049FB00F001FDD5
:1033B00000F016F8DFF89C4304F10800A06602F064
:1033C00085F800F0CFFF01F047FC01F075FD01F03A
:1033D00038FA00F06AFA00F0A7FF0120207010BD53
:1033E00010B5DFF8744394F8080160B9012184F83E
:1033F000081100F099FF002104F59A7000F096FF83
:10340000DFF85813086010BDFEB5044613B901F08B
:1034100005F910E06D4600200026002785E8C10070
:10342000986802901D7820468DF800505B680193E3
:103430006B4601F0F3F82046FEBD00F0F9B90A2012
:10344000704701F0D1B8007D7047002181607AE0BB
:103450008160704701F0BAB801F07EB8F8B586B067
:1034600005460E4617461C0003D1002300F033FA30
:1034700008E000F012F820686B463A4600F004F8C5
:1034800000F029FA07B0F0BD019060683146049061
:10349000207A8DF80800284670476846DFF8C41285
:1034A000182203F065B800F046BA6DE700F029BBBA
:1034B000DFF8A40290F8F41001F0DCBB10B5FFF7C0
:1034C00063FF0446FFF76AFF601E8041C00F10BD16
:1034D00000F077BB70B501F082F86560266034E1DA
:1034E00000F05EBB002101604FF0FF32012342601B
:1034F0000372704752E7FEB5044668460023002574
:10350000002680E8680001278DF800706A46204692
:1035100001F0F6FA2046FEBD3EB5694600220023C2
:10352000002481E81C0001258DF80050DFF83022CE
:1035300001F0F6FA3EBD80B50090684601F009FB47
:1035400001BD01F0FABA01704160704780B501F029
:103550003CFA00B955E0002002BD01F099BA002103
:1035600001604160C1604FF0FF318160704778B504
:1035700085B005460E46140003D1002201F0CDFBB4
:1035800010E0A068062804D310F1010F18BF002036
:1035900008D100F00EFF20686A46314600F004F8BA
:1035A00001F0BBFB06B070BD019060680290E0685E
:1035B0000490A06803902846704700F0ABBB01F070
:1035C000A7BBDFF8940190F8F410012901D1012084
:1035D00070470020704701F002BC01F052BB062981
:1035E00002D311F1010F01D101F005BC704708B4FD
:1035F00000B501AB01F0A9FF5DF808FB01F0A5BF24
:1036000001604FF0FF3002BD30BF7047FCE738B5B6
:1036100003F00CF802F077FE02F044F9044604F0DF
:103620000C000C2802D1AFF3008037E060071DD4F6
:1036300000F0CEFE05460121012002F03DF90A21ED
:103640006943884212D2DFF86C41183D656104F18C
:103650000C0000F0BBFFAFF30080012002F0D9FAAC
:10366000AFF30080002084F820001BE0AFF300805F
:10367000200713D4DFF8400102F0F7FF0428F9D047
:10368000E10600D408B9012000E0002002F00AFEA3
:10369000DFF8280101210160006801E0FFF7B6FFB3
:1036A000AFF30080BDE8314002F0C4BFDFF8A800EE
:1036B00090F8AC20012180F8AC10DFF82C110A60E2
:1036C00090F81421012380F814314A60704710B536
:1036D000DFF81441606801F0D4FA206801F0EABA1A
:1036E000DFF80811C20744BF01230B60820744BF03
:1036F0004FF480730B60400744BF4FF480320A6080
:1037000070470021DFF8E420C30744BF116801F0CF
:103710000101830744BF116801F48071400744BF71
:10372000116801F48031080018BF0120C0B2704751
:1037300010B5DFF8BC20C30748BF1160840748BF3D
:103740005160400748BF916010BDBDE87040FFF771
:1037500025BE0000D0150020E80A0020D831002046
:103760008C0C0020A84100000446DFF8940090F87B
:10377000AC50012180F8AC1070476846DFF8841027
:10378000242202F0F5BE10B5DFF8701091F8AC00FD
:10379000012281F8AC20DFF894100C680CB122688B
:1037A0000A6001F0CEFB1CB12046BDE8104007E0E6
:1037B00010BD0000B80D0020004003402C2009403F
:1037C00010B5044604F1100001F0B7F9E06818B133
:1037D00004F10C0001F042FE214650220020BDE819
:1037E000104001F06EBE00006C3000200420094043
:1037F00018200940204601F0A4BB0000E80A002080
:10380000E80A00206C9C0200DFF8FC040178FDE768
:103810000000DFF8F80490F8F40070470146DFF884
:10382000EC2492F8F40082F8F41070477430002011
:10383000DFF8DC14D1E90023C0E900237047000061
:1038400000BFDFF8C814D1F8FC000047DFF8BC2443
:10385000D2F800110847DFF8B40490F814110122DF
:1038600080F8142190F8AC1080F8AC200320D5E744
:1038700010B504460320FFF7D1FF204601F03FBEFC
:1038800080B5DFF884040178012901D0FFF7BCFF7F
:10389000DFF8940401F020FEFFF77AFD002001F02C
:1038A000F0F9BDE8014001F01DBB38B5DFF85C441C
:1038B00004F18405287F68B901212977FFF764FDA9
:1038C000E16F2868C90800EBC1010839A1674FF012
:1038D000FF31A16631BDF8B5DFF83074D7F89CC070
:1038E00004460D465CF82500DFF8B064B0420CD108
:1038F00007F5D2700090204600F00BF840B1D7F8E1
:103900009C0050F82510B14201D10020F2BD2046A4
:10391000F2BD1CB504460BB9DFF88434049800905E
:10392000204600F00AF8010003D0204600F06EF8AF
:103930000024204616BD002168E0F8B5174604466D
:103940001E46069DDFF8F8233F2903DB0023009382
:103950000B460EE0E181DFF8B403D0F89C3053F859
:103960002100DFF83834984209D000240B46009437
:103970006C320021284601F07AFD0120F2BD084694
:1039800000F09DF8676070682060306910F1010FE9
:1039900008BFFF202073307A002100B10121307D63
:1039A00008B141F00201A1602946204600F003F869
:1039B00000B1801CF2BD38B50446B4F90E00217A7E
:1039C00005468A0702D5217B202907D2616800F0CD
:1039D000B7F8B4F90E004042E0810AE0DFF82C139A
:1039E000D1F88C00DFF8401440F82540284600F05C
:1039F000A7F8217B284600F0D3F8207AC10744BFFE
:103A0000284600F07EF80020A06032BD012900D1D8
:103A1000704710B5B0F90E40002C48BF64422046F4
:103A200000F04DF8DFF87413204600F089F8DFF855
:103A3000DC12D1F88C20002042F8240010BD70B5B3
:103A4000FFF7A2FCDFF8E413DFF8E4330B60DFF8E4
:103A5000E433DFF8E423DFF8E403121AC8688A606D
:103A6000DFF8DC4318601D680246A5420FD0002530
:103A700054F8256040F825606D1C0F2DF8DB0F20F1
:103A8000DFF8184342F82040401C3F28FADB5C680E
:103A9000DFF8B00324F47F4404195C600A6220223A
:103AA0009A764FF40070D860DFF85004026822F074
:103AB000404202600868BDE8704002F033BE10B5B5
:103AC0000F2811D9A0F110011038012200F01F00B9
:103AD00049098240DFF8184454F82100DFF8203407
:103AE00043F82120104010BD09D1DFF818140868F0
:103AF0000A6822F0020200F002000A6010BD0020F5
:103B000010BD0F280FD9A0F110011038012200F0CC
:103B10001F0049098240DFF8D83353F8210043F8E9
:103B200021201040704709D1DFF8D81308680A68CF
:103B300042F0020200F002000A6070470020704765
:103B4000DFF8C821D2F8883003EB800002688A428F
:103B500018BF0160704710B5DFF8B041A06F02F0E8
:103B6000B3FD0021A16610BD024670B5DFF8BC02AE
:103B7000836853600468946025462878BE2803D083
:103B800001200023136070BD00200029F9D015F832
:103B9000016FBE2EFBD064422919491E5B1AF1E762
:103BA000102805D3DFF86023104400F8101C70477C
:103BB000042804D3DFF8E423104400F8041C704701
:103BC0000000102803D31038DFF814140860704781
:103BD00010B50122DFF80C3483F86C200FF20D04CD
:103BE00014B1BDE8104001E010BD000018B5044656
:103BF000DFF8F413486801229FB00A7008B901AADF
:103C00004A60204600F014F80320FFF707FEDFF8B3
:103C1000DC030368A06BDFF8D82303F0FF030F2B4E
:103C2000009028BF7C3201F0FCF920B010BD0000EC
:103C3000F0B5DFF8D84004F1F405236F2E78014683
:103C400000221E700E6A00201E614F6A5F618E6A3C
:103C50009E61CF6ADF610E681E624F685F628E6888
:103C60009E62CF68DF620E691E634F695F638E6973
:103C70009E63CF69DF630E6B01F140075F641E64D2
:103C80004E6B9E648F6B04F18406DF64C96B19650B
:103C90001F78032F14D8DFE807F009070210B06B74
:103CA0005860C26A806A0BE0E86A06E0B06801F01A
:103CB000FF0150F82110596000E05860E26F306851
:103CC000D8609A60616F39B1002804E012F8014BA6
:103CD000401E01F8014BF9D1DFF810030268DFF84C
:103CE00014035A65017899654278DA654188196646
:103CF00042685A6681689966C268DA66016919671E
:103D000040695867F0BD0000D0150020E80A002087
:103D1000C80B0020DFF8CC1291F81401012281F8C1
:103D2000142170470000000057380000DFF8B4127B
:103D300091F8AC00012281F8AC207047000000002F
:103D4000EC6002002DE9F04100F03CFEDFF89452F7
:103D500095F8AC60012085F8AC0095F8147185F8F1
:103D600014010020FFF75AFD8046D5F88C00DFF8DB
:103D70007C120A6802F0FF0250F82250AC60FFF794
:103D800007FB286869688847FFF7FEFA4046FFF797
:103D900045FD07EB0620BDE8F0810000813A0200F6
:103DA000A841000000F0FF0000F087BF000A01F00A
:103DB000E3B8F8B5002101A8FFF7D6FE03980090FC
:103DC00004E0BE2101700099491C009100986845EB
:103DD000F7D305B000BD70B5049C8908059D069E0B
:103DE000491E40F82140491E40F82130491E40F844
:103DF0002120491E40F82160491E40F82150491EEB
:103E0000DFF8102840F82120491E4FF0FF3240F81B
:103E1000212000F019F800F017F8491E40F82100A1
:103E200000EB810070BD000079390200640B0020B6
:103E300000F8032008ED00E00000042000F8032053
:103E4000000000000000FA05491E40F82120491E2C
:103E500040F82120491E40F82120491E40F8212029
:103E6000491E40F82120491E40F82120491E40F8F3
:103E70002120491E40F82120491E40F82120491EDA
:103E800040F82120491E40F82120491E40F82120F9
:103E900070477FB504460D46A16A164619B1E06A1F
:103EA000BE2202F04FFCE16B33460291A06B0095FD
:103EB0000190A16A626BE06A091FFFF78CFF04B0F2
:103EC00070BD10B588B001A80FF2C0211C2202F00D
:103ED0004FFB0A24002103948DF81010009101ABD0
:103EE000DFF8D027DFF8D00700F0DBF808B010BD0E
:103EF00000E100E00146DFF8C007B6E034EF00E083
:103F000080E100E010E000E000E400E020B50246BF
:103F1000D2E91023002047F6906102F053FC0125FE
:103F2000A94228BF4FF0FF3020BD38B50C4602F043
:103F30007DFB050018BF0125DFF8A8080068811D7A
:103F4000201AB0F1004F05D8081BB0F1004F38BF60
:103F50008C4200D20C4621460120FFF7E9FBEDB26E
:103F60000DB9FFF79FBB31BD2DE9F84C0C46054656
:103F7000D5E910ABD5E91267AAFB04010BFB0411CC
:103F8000361828464F41340C44EA07410022FFF717
:103F9000CCFFC5E91467BDE8F18C000018ED00E026
:103FA00070B50546FFF7F0F96D690446B5F5802F49
:103FB00034BF04252D0CDFF81469F069451900F0B1
:103FC00051F829460120FFF7B3FB2321002002F01E
:103FD00011FD306840F0010030602046FFF7B5BBAE
:103FE00000EF00E0E80A0020540B002004ED00E0A0
:103FF000645C020028ED00E010B5044600F032F8E1
:10400000A069E169BDE81040084738B505460FF2E0
:104010004C00046844B10220FFF773FB20B102207A
:10402000FFF75EFB0120A0470FF23400046844B1A3
:104030000420FFF766FB20B10420FFF751FB0220AC
:10404000A0470120FFF75DFB30B100F00BF8A86935
:10405000E969BDE83440084731BD000000000000B8
:10406000000000000120FFF73BBBF8B504460D46F9
:1040700001F046FBD4E9106732463B4602F0A2FB52
:104080003DB1A6FB002306FB013307FB0033C4E967
:104090001223F2BD80B5FFF777F9FFF77FF9002013
:1040A00002BD2DE9F04387B005460F4690461C46F9
:1040B000FFF76AF9DFF8D467B16811B1FFF76EF95D
:1040C0002FE0B560FFF76AF90CB90FF2C004EF609A
:1040D000C5F81C8060684FF480310022A8616962D5
:1040E0002A62C5E91222217BA06801290CD16861EE
:1040F000A0680021277800236A69022F07BF904635
:104100009946984699460EE001460020DFF8C02700
:10411000002302F057FB012268619142EAD3C5E90E
:10412000100100202EE0C5E91489C5E91001C5E998
:10413000162301A80FF27001182202F019FA029555
:104140002078DFF890170091002801AB0CBFDFF852
:104150008827DFF88827142105F12800FFF7D9FB0D
:1041600004462846FFF796FF287C10B92846FFF73B
:1041700017FF2CB12946304600F0D9FB284601E054
:104180000020B06007B0BDE8F08300000000000030
:1041900000000000E8030000000000000000000034
:1041A000000000000000000000000000000000000F
:1041B0000100000000000000E0000000010000001D
:1041C00010B504460120A060002121610022E260B8
:1041D00004F1140000F0C0FB2146DFF810074AE2AA
:1041E000F8B50546DFF80807046984B09CB1666934
:1041F000077801210170A868012807D10021A96072
:104200002C61EE6000F06CFB002020E02869A042E9
:1042100003D100F065FB012019E0204601F06CF8A5
:10422000002102940391C4F824D03246694605F176
:10423000140000F03FF828694069B04203DA2869A9
:10424000314601F005F800F04BFB0020606205B03C
:10425000F0BD000070B50446DFF89426106940B345
:1042600015780123137009BBE16842699142BCBF14
:10427000E16800F0EDFF606904F11401884202D1A9
:104280000122A26012E0606904F114020168616118
:104290004A60866826617069E060FFF775F8044639
:1042A0002146304601F058F800F096FD284600F00F
:1042B00015BC70BD10B50346186800E00068984250
:1042C00007D0846864699442F8DABDE8104000F0D1
:1042D00027BB1846BDE8104000F013BB10B50446DC
:1042E00009B90FF22801FFF76BFF204610BD10B58A
:1042F000044601F09DF818B12146BDE81040EDE7F5
:1043000010BD0FF2080129E00000000000000000CD
:10431000806902F08BBC806902F08ABC806902F07F
:1043200089BC806902F08BBC02F07ABC10B50446EF
:104330000020A061DFF84C162160DFF84C26626097
:10434000DFF84806A060DFF83427E26004F11001CE
:10435000DFF82C0700F0EBFA204610BD0A68026077
:104360007047000018B5DFF8844794F8650085B001
:10437000E8B9012284F865200021204600F0ECFA1B
:1043800000F06AFC00F015F80520039004F5D273E4
:104390006A460FF2DD0104F1100000F045FDE06413
:1043A000FFF78FFDDFF81003FFF7B0FDA06506B043
:1043B00010BD6846DFF83817142202F0D9B838B5B6
:1043C000FEF7E2FF04460020FFF794FD05460EE0ED
:1043D00038B5FEF7D9FF04460020FFF78BFDDFF864
:1043E0000C174D6D2D1A886DA84238BF0025204648
:1043F000FEF7D4FF284632BD38B504460D462146A7
:10440000DFF8B402FFF7B0FDDFF8E00604654565AC
:1044100031BD2DE9F8430446DFF8D00607680D46A4
:104420004FF0FF39D7F804801BE03E463F68307DEF
:10443000012816D1012C04BFF168A94209D13069C5
:1044400000281DBF4118F16030623075F069B16914
:104450008847307D012804D1F068401B484598BF4B
:1044600081464745E1D14846BDE8F283000000009F
:104470002DE9F843FEF788FF06460120FFF73AFDD5
:10448000DFF8681601F15C020123137000245470F8
:104490004C6D8B688968051BE31A401A984203D259
:1044A00000201070304630E000F0D3FB4FF00009E0
:1044B00007E04C4421460120A5EB0905FFF7A9FFC1
:1044C00081464D45F5D2FEF75FFFDFF82076804646
:1044D00007F15C067078012804D121460020FFF71F
:1044E00098FF8146B86D19F1010F05D0B86DA9EBA1
:1044F0000505A84288BF28460119FFF77DFF012066
:10450000B07000213170BC604046BDE8F243FEF758
:1045100045BFDFF8D815C86C00F036BC38B5044686
:104520001D46A2606868A16100222061A86821463A
:10453000E0612275DFF8B40500F0F9F9287818B1C8
:104540002046BDE8324041E031BD38B565E18260CA
:10455000002281610261C36100210175704701463B
:10456000DFF88805CDE100F0F0B970B50446A06829
:10457000DFF8786506F15C052062A978012904BF9F
:104580002878002816D10120FFF7B4FCB268736DBB
:10459000B168821A5B1A93420CD3A26801231118E6
:1045A000E1602375746D201A82420ED21046BDE878
:1045B000704021E7FFF703FFA1680818E0600120C1
:1045C00020752978012908BF687070BD38B500F0E2
:1045D000F9F905462046FFF7C8FF25E1BCE7044688
:1045E0000D461646FEF7D0BE70B500F0EBF9064654
:1045F000207D0025012807D1FFF7E1FEE5682D1A8F
:10460000206AA84238BF002500F023FB284670BD71
:10461000007D7047A974000000F06CBA10B5044624
:104620000BB90FF20C03FFF779FF204610BD000015
:1046300000000000000000000000000070B504460B
:104640000D4616460022242100F0F5FE28B133461F
:104650002A462146BDE87040E0E770BD75E710B519
:1046600004460022A260002104F10C0000F074F95D
:104670002146DFF86007BDE8104058E138B500F08A
:10468000A1F90546207C022804D1204600F05DF9FE
:1046900000F092F9C8E010B5836884681A400C40B5
:1046A0008C4208BF0A4312B1816891438160104671
:1046B00010BD000013450000D81500202DE9F0437F
:1046C0001C4691B080460D46174614F1010F18BFE5
:1046D000002C0AD06B462246DFF8481708A8FFF7DF
:1046E00036FF08A90391022202E000210391032270
:1046F00000218DF81020069507970591DFF8F061ED
:1047000030690290FEF740FE81463A46294640460F
:10471000FFF7C1FF050004D04846FEF73FFE2846DC
:104720002DE024B94846FEF739FE002027E0347812
:104730000120307002986946416208F10C0000F0D7
:10474000E0F8029800F0E1FD039820B1FFF707FFC1
:104750000398FFF70AFF4846FEF720FEFFF74AF8E6
:10476000FEF712FE0446039818B1FFF7FCFE002086
:10477000039000F087F99DF8100000B1059811B082
:10478000BDE8F083F8B507460D46FEF7FDFD04468B
:10479000B8680543BD60F96807F10C00814202D199
:1047A000204600F052BAFEF7E0FFFE68F269384694
:1047B000B169FFF770FF706160B1304600F0C5F875
:1047C00001203074F06808B100210175B0682146FD
:1047D00000F0C2FD00F000FB2846BDE8F24000F00A
:1047E000B0BB00003020094010B5044609B90FF2F3
:1047F0000C01FFF734FF204610BD00000000000050
:1048000010B504460B460022142100F014FE18B126
:104810002146BDE81040E7E710BD0446FEF7B4FDB1
:104820000546204600F091F82846BDE83240FEF7E4
:10483000B5BD21681422002000F043FE0020206056
:1048400010BD78B5DFF88C46207889B0E0B9012634
:104850002670FEF792FF4FF44072059204F160015A
:104860000FF22C0200250491009203958DF8206030
:1048700000236A460FF23901201D00F0A6FD201D1D
:10488000DFF86812C1F8D8000AB070BD980C00209B
:1048900074692E73797362696F732E6B6E6C2E540C
:1048A00061736B2E49646C655461736B000000008A
:1048B00080B500F001F8FCE710B5DFF8B8462068D5
:1048C00080476168BDE81040084700001420094097
:1048D00040420F008C0C0020F93F00000B4000000C
:1048E000384600F02EBB2846FEF758BDA40C002029
:1048F000940B00200168814201D101207047002003
:1049000070470EE038B500F05DF825682968216031
:104910002A685460FFF76CBD40600060704700007B
:1049200000BF426808604A6011604160704738B556
:1049300000F007F82C606168696062681560656066
:1049400073E704460D46FEF71FBD0168426811601B
:104950004168006841607047DEE710B50446107892
:1049600020746182002104F11400FFF7F5FF00219B
:10497000A1600120E0602146DFF8CC08BDE81040CE
:10498000D5E7000011430000174300002343000057
:1049900000BF00F11401816100F11402426170470F
:1049A00038B500F00FF80546207C022803D100F04E
:1049B000CEF800F001F837E700202074A0682946FF
:1049C00000F0CABC0446FEF7DFBC70B50C468EB0E2
:1049D000054614F1010F18BF002C0AD06B46224681
:1049E000DFF8681805A8FFF7B2FD05A903910222B8
:1049F00002E00021039103228DF81020FEF7C4FC91
:104A00000646688A002831D11CB900F022F900203E
:104A100032E0DFF8E00804780121017000690290BB
:104A2000C0F824D000F071FC694605F11400FFF7CE
:104A300068FF9DF81000022805D10398FFF78FFD4D
:104A40000398FFF792FD00F004F9FEF7D3FEFEF79E
:104A50009BFC0446039818B1FFF785FD00200390E6
:104A600000F010F89DF8100030B104E0688A411E93
:104A7000698200F0EEF801200EB070BD1D43000009
:104A8000AC0C00200299002048622046FEF786BC4C
:104A900070B50646154890F8AC4000F022F805467F
:104AA000706906F11401884207D1307CC1074EBFFE
:104AB0000120708A401C70820DE07269106870617C
:104AC000416001201074D06808B100210175906820
:104AD000294600F041FCFFF706FF2046BDE8704084
:104AE0002FE2012180F8AC10FEF74EBCE80A00204E
:104AF000404E000000210022002380E80E00704795
:104B000010B504460AB90FF20C02FFF726FF204643
:104B100010BD0000000000000000000000000000C8
:104B200038B504460D46134600F083FC20B12A46F2
:104B30002146BDE83840E3E732BD38B50446FFF70B
:104B400027FFFEF721FC054600F001F86CE6204641
:104B5000FBE610B504462068FFF7EFFF21681C2232
:104B600069E60000B0FA80F0C0F11F0070472DE93F
:104B7000F843044604F12800C168DFF84058EF68A4
:104B8000D5F810802961EC608168AE680023A960C7
:104B900042680021017082602B700120FEF73EFE0A
:104BA0008146FEF7F5FBE169A06962699047FEF76F
:104BB000EBFB4846FEF732FE01202870C5F8108056
:104BC000EF60AE60BDE8F18338B5DFF820482068BB
:104BD000E568FFF7C7FF216901EBC00100F091F81C
:104BE00003D12368416A8B432360FFF7C0FF20682D
:104BF00030B1FFF7B7FF216901EBC0018D42EDD362
:104C000031BDF8B5DFF8E84704F58A752F69FEF77E
:104C1000BBFB06466868FFF7A5FF696901EBC000AA
:104C200087420FD294F8AC70012084F8AC00DFF812
:104C3000C40701F037FD0020287000F00AF838465C
:104C4000FFF7CBBD002028703046BDE8F240FEF7EC
:104C5000A5BB3046FEF7A2BB38B5DFF89C47207AEB
:104C600038B901212172002500F036F96D1C062D9E
:104C7000FAD331BD481E8041C00F7047FFF74AB8D4
:104C80000000002800D0704710B5FEF77DFBDFF86C
:104C9000604704F58A72516821B1FEF77FFBFFF788
:104CA000B0FF02E01170FEF779FB94F8AC0001212F
:104CB00084F8AC10BDE8104043E1002800D07047F4
:104CC00038B5DFF8F8466068C0B1FEF761FBFEF763
:104CD0005BFB25696068FFF745FF616901EBC00177
:104CE0008D420BD200F00DF803D16368416A8B430B
:104CF0006360FFF73CFF60680028ECD10020207063
:104D000031BD086802680A6051600A688A427047CB
:104D1000DFF8DC06D0F81C01704710B50446DFF858
:104D20006C3700F081F8606900B90024204610BD9E
:104D300038B540600060136841610361516881616A
:104D40009368C361D16811F1010F08BF05210162A9
:104D5000012303FA01F1416200F1280100240C70E3
:104D600013698B6012694A60DFF88426D2F8283113
:104D7000046A03EBC405CD6000F1080102F58670FA
:104D8000FFF7D5FD002032BD2DE9F0418046FEF74A
:104D9000FBFA044608F12406307920B12046BDE82C
:104DA000F041FEF7FBBA01203071DFF810763D7854
:104DB000387030694146FFF7A4FD796830680143D7
:104DC000796000F009F815B9BDE8F04119E7BDE8D0
:104DD000F0810000B40C00202046FEF7DFBA38B5A1
:104DE000FFF7AFFD216B0D432563FEF7D7FA204691
:104DF000BDE83240C8E738B50D46044615F1010F4D
:104E000008BF0525FEF7C0FA0121A94025626162AD
:104E1000DFF8DC25D2F8281101EBC5036363FFF747
:104E200004BD00007D46000010B504460AB90FF22B
:104E30001002FFF77DFF00B10024204610BD0000E6
:104E4000000000000000000000000000050000005D
:104E500000000000214600F034BB70B5DFF8D046FA
:104E60000020207101E000F091FA20680028FAD0BB
:104E70002068FFF777FE6169226901EBC00082427A
:104E80000ED2E56820610068E0600646314628469B
:104E900000F08CF806F11C0105F11C0002F0EEFA9E
:104EA00020790028DCD170BD10B5DFF84844207AA5
:104EB00008B1FFF7D2FF56E038B5DFF8E847207EAB
:104EC00038B901212176002500F006F86D1C062D69
:104ED000FAD331BD401600202268002102EBC50044
:104EE000FFF73ABD10B596B0FEF74EFADFF8404630
:104EF00001E000F04BFA20680028FAD02068FFF7A4
:104F000031FE616901EBC000206101460868E06084
:104F1000002020710220FEF781FCE168002000F0F3
:104F200045F8FEF735FAFEF72FFAFEF714FEE068B3
:104F300000F11C0107A802F0A1FA16B010BDFEF79F
:104F4000F5BE002800D0704710B5FEF71DFADFF857
:104F5000A00400F1AC04217A012902BF90F81401E9
:104F60000028FFF77AFF00202070BDE81040FEF710
:104F70000FBA0000E00A0020002800D0704710B5EA
:104F8000DFF86C0400F1AC04217A012902BF90F82B
:104F900014010028FFF761FF0020207010BD000001
:104FA00000BFDFF84C04D0F8BC007047BCB504006B
:104FB0000D4635D0E06ADFF8F0760178BE2905D0DD
:104FC0000022009223463A4600F02BF8E86A017866
:104FD000BE2907D0002000902B4607F16002002177
:104FE00000F045FAE06A01A9814222BFA26A801856
:104FF000884207D20091234607F1C0020021002019
:1050000000F035FAE869EA6A904222BFAB6AD2182A
:10501000824205D200902B4607F5947200F001F809
:10502000B3BD0021002022E290F84800012800D002
:10503000704710B5FEF7A8F90446DFF8B413D1F8AD
:10504000B800401EC1F8B80004D1FFF7C5FE00202B
:10505000FEF7FCFB2046BDE81040FEF79FB970B597
:10506000DFF84806046900F0A1F80646204600F083
:105070004CF9032084F820002046FFF7D5FFFFF706
:10508000E8FD64602460FFE72846BDE8704058E70B
:10509000F8B50446164630680D461F462061F16893
:1050A0006161B069002803BFDFF80406016821636D
:1050B0002063716909B94FF40071306948B3C21DAA
:1050C000D208D200891A4118C908C9004FF0FF3030
:1050D000E262A162206365637068DFF81453A06325
:1050E000B168E163F069206496F8201004F148008B
:1050F0000170012904D1D5F8B810491CC5F8B810C1
:105100000022C2603946204600F018F870B1801CB9
:10511000F2BDC91DC908206BC900A162082200F0B8
:10512000B7F9E0620028D6D10120F2BD04F10801F0
:1051300005F1A400FFF7FBFB0020F2BD70B50B46A4
:105140000446DFF87025DFF87015FEF7A2FEE06177
:1051500008B9012070BD012084F82000002161629F
:105160006069DFF88C12002808D5002201F1D00018
:10517000A261E0642146FFF7DAFB15E060690122D5
:105180008240A26101F1AC008169626901EBC20356
:10519000E36400F00BF80646204600F0D3F8FFF772
:1051A00058FD2846FFF7CDFE002070BD057801218F
:1051B0000170FEF7E9B8F8B50446002941D1DFF8DF
:1051C000EC743D7801203870FEF7DEF8064694F85E
:1051D000200001280FD1FFF7BAFCE06C0168814282
:1051E00003D17A68A06982437A60606A80B1C0683E
:1051F00008B1FFF7B8F994F82000022808D1606AD6
:1052000068B1FFF7A2FB606AC06808B1FFF7ABF9AD
:1052100094F82000032802D1FFF799FC02E0204611
:10522000FFF702FFFFF715FD2846FFF78AFE206B08
:1052300010F1010F04D0A26AE16ABDE8F84040E134
:10524000F1BD0129F3D1F1BDBC0C0020A149000042
:105250002DE9F84FDFF898B105460BF1AC0494F84E
:10526000008001200E462070FEF78EF8D5F814A0BD
:105270008146B24536D0002E03D500270BF1D00B66
:1052800004E0A0690127B74000EBC60B95F82000A9
:1052900001281CD12846FFF758FBE86C01688142C1
:1052A00003D16268A869824362602069A84207D17D
:1052B000C4F814B0DBF800002946FFF731FB03E027
:1052C00029465846FFF71DFB6068384360606E61F1
:1052D000AF61C5F84CB0002E44BF002060610121D1
:1052E00021724846FEF75AF84046FFF72AFE50461C
:1052F000BDE8F28F940B002038B5FFF763FB05463D
:10530000204600F002F8FFF78FBA2DE9F04104467D
:10531000D4F84C80DFF818522E68A769FFF715FB08
:10532000D8F80010414504BFBE432E60E868A04293
:1053300004BF00212961022084F820000121297185
:10534000BDE8F08138B5FFF73DFB0546294620460C
:1053500000F002F8FFF768BA2DE9F041DFF8D061FC
:10536000044688463768E06CA5692146FFF7C9FA0C
:105370002F433760012184F820100120307140460E
:10538000FEF70CF8BDE8F041FDF7FEBF80B5DFF891
:105390002C0320B9FDF7FCFFFFF78EFA09E0FDF7BB
:1053A000F7FF002001E00098401C009000980028C2
:1053B000F9D0BDE80140FDF7E7BF0000FC0B00207D
:1053C000DFF8FC12242201F0D3B810B504460AB964
:1053D000DFF8EC22FFF75CFE010003D02046FFF768
:1053E000EAFE0024204610BD00000000000C002052
:1053F000E80A0020C94B0000100C0020F8B500F0AE
:1054000011F8582100F017F8040009D03B46324645
:105410002946FFF7DAFF18B95822FFF71BFD0024D1
:105420002046F2BD05460E4617463B460022704711
:105430000B4600221C2100202AE038B5FFF7C2FAF3
:1054400000F007F8FFF74FFA20460021BDE834408E
:10545000B1E6054604F10800FFF777BA10B5044637
:105460002068FFF7EAFF21685822FFF7E4B90749EF
:1054700083B0884201D103B0704700B968460399F0
:10548000026043608160FEE7000000008C0C002099
:10549000F8B504000E461F4604BFDFF82802046872
:1054A00002B9082225682046A847050007D10096C2
:1054B0002346DFF8142200213846FFF7D8FF28469C
:1054C000F2BD08B97F480068436818477F49087AE9
:1054D00008B901220A72704738B5FFF773FA7B49A1
:1054E0004A680125082A05DA0B6843F82240521C55
:1054F0004A6000E00025FEF77BBF10B5044600F0CF
:1055000006F82046BDE8104000E00000FEE770B558
:10551000FFF758FA6D4D6E6807E02A68204602EBE7
:10552000860353F8041C761E8847012EF5DA70BDF9
:10553000980B002000F004F8002001F0C9FF16BD10
:10554000009401AB4FF0FF3170471CB5002400946C
:1055500001ABF2E7F0B500240025002B44BF5B420D
:10556000002902D54942521E2D25B1FBF3F60FF258
:105570007417641C03FB1611795C00F8011D314699
:105580000029F2D19442BEBF302100F8011D641CF5
:10559000F8DB290018BF00F8015DF0BD1368022B8D
:1055A00007D35B1E136002681AB1117001684A1CB0
:1055B000026070472DE9F04117462DED028B82B055
:1055C0000A683E681D4612F8010B0A6066285DD124
:1055D000287E012808D156F8041B0091084602F0E5
:1055E0001BF941EC180B06E0F01D20F0070000F15C
:1055F000080690ED008B51EC180B0022002302F0FE
:105600002FF908D281F0004141EC180B28690124E0
:10561000401E286100E0002451EC180B2C4A2D4B51
:1056200002F038F904D80FF2D000E86107212BE02E
:1056300002F04AF9804602F06BF902460B4651EC43
:10564000180B02F035FA0022234B02F0ABFA02F0FD
:1056500087FB014668690A230422FFF77BFF2E219E
:1056600000F8011C6A69401E2969121AEA608A1A48
:10567000E8610A234146FFF76DFF14B12D2100F8C0
:10568000011D6969E861091AE96003E0E9690870C8
:105690000120E8603E6002B00020BDEC028BBDE856
:1056A000F0810000AC0B0020C0170200940B00201A
:1056B000D43100205F500000A94E0000B94800001E
:1056C0006C9C0200D8310020DC890200C40C002050
:1056D0000100C0FFFFFFDF410088C340FDF761BE4E
:1056E000FDF761BE303132333435363738396162D7
:1056F0006364656600000000286572726F7229009D
:10570000044A1368D2F804C01946136860469942E7
:10571000F7D17047082009405C490A681040C2432D
:105720000A6070475A4A11680029FCD10023D361EE
:105730001060D0690028FCD0D1615068704755488E
:10574000016841F23002012321F0020141F40871A5
:105750000160514803210160C26043605021C16073
:10576000012242604FF4CA61C16042604FF4865129
:10577000C1604260012049490860704770B4044626
:10578000002518003AD013F003000AD054F8256021
:1057900016F1010F32D016408E422CD06D1C401EE7
:1057A000F4D19B0800F02A8054F8250010F1010F75
:1057B00024D0104088421ED06D1C54F8250010F1F2
:1057C000010F1BD01040884215D06D1C54F82500E5
:1057D00010F1010F12D0104088420CD06D1C54F80B
:1057E000250010F1010F09D01040884203D06D1C34
:1057F0005B1ED9D102E0E8B270BC7047FF2070BCDC
:10580000704700001E281DD8DFE800F0101C131C94
:105810001619161C1C1C191C161C1C191C1C1C1CE3
:105820001C1C1C1C1C1C1C1C1C1C190040F20252C1
:1058300009E04FF4817206E04FF2011203E041F2F9
:10584000011200E00022FF2909D14FF6FF3002408B
:1058500042F0C00240F2037040EA02407047080084
:1058600008BF42F0300205D0C8074CBF42F010021A
:1058700042F0200240F2037040EA024070470849BB
:105880000A681040C2430A607047000010100440CC
:1058900000100440000004605460044000410440D3
:1058A00008100440DFF8C00780687047DFF8B817B9
:1058B000084490F84A01704702460020022904D1AA
:1058C000012A06D140F2EE207047012A08BF4FF4AA
:1058D0007A707047DFF8901791F8410120B1D1F844
:1058E0007001002818BF004770472DE9F841DFF824
:1058F000784704F23915687A83B0002840F0918027
:105900000121697204F5B87600F0EDFC3071DFF822
:105910005C77387B2872796831604FF0A0467068F8
:10592000C0F38140A8B9386998B1D6F808800A2038
:10593000C0466421C8F3066211FB02F200230FF295
:105940006171B2FBF0F204F19400FDF75DFD00F02F
:1059500051FC6846FDF779FD002001908DF80000AC
:10596000002202926B460FF28D5104F10C00FDF7FC
:105970004BFD6846FDF769FD002001908DF80000A1
:1059800002906B460822DFF8E81604F15000FDF79C
:105990003BFD00230FF2E542322104F1D800FDF770
:1059A0005DFDDFF8D0860020C8F800000023DFF896
:1059B000C8262C2104F1F400FDF750FD7068797BB6
:1059C000C0F3815021B1032802D10120287004E0E6
:1059D000032818BF022800D088B9D8F8000040F08A
:1059E0004000C8F80000FDF760FDA16841F0040127
:1059F000A160297B491C2973FDF77CFD03E0012888
:105A000008BF00F006FC306840070AD4FDF74DFDE2
:105A1000A16841F00101A160A97A491CA972FDF7B2
:105A200069FD002004B0BDE8F08138B5002408B15C
:105A3000150002D16FF0020407E08160C2600361CB
:105A40000146DFF8240600F061FB204632BD10B5A8
:105A50000446FDF72AFDDFF810160A1992F84331C3
:105A60005B1E82F84331DBB233B98A68012303FA43
:105A700004F422EA04048C606BE0F8B50546FDF7F7
:105A800014FD0446DFF8E015481990F84A21521E2B
:105A900080F84A21D2B2EAB9DFF8E06506EB85006A
:105AA0004788B7F5806F1CBF40F20140874206D09F
:105AB00040F20242974218BFB7F5816F0FD13846C6
:105AC00000F0FDFB16F8250000F03F001A28B8BFD3
:105AD000FFF7D3FF2046FDF70DFD0020F2BD16F8BD
