:1000000000000420A5AC0200592F0200592F020065
:10001000592F0200592F0200592F0200592F0200B8
:10002000592F0200592F0200592F0200592F0200A8
:10003000592F0200592F02001D2F0200DFF850181F
:1000400091F833000022030603D458204243881855
:10005000704791F88B0001220306F6D591F8E30072
:1000600002220306F1D591F83B0103220306ECD5E9
:1000700091F8930104220306E7D591F8EB010522DC
:100080000306E2D591F8430206220306DDD591F876
:100090009B0207220306D8D5002070472DE9704344
:1000A000064614461D4603F062F96EB1D6E90A23EE
:1000B00022432B43C6E90A23D6E9088948EA040407
:1000C00049EA0505C6E90845BDE8704303F074B97F
:1000D0002DE9F04707460E4603F049F9DFF8B0472F
:1000E00094F8841302291CBF94F88413042916D0B1
:1000F00003F062F9DFF89CA705F058FA10F5003814
:10010000AAFB0823D4F8800341F100090AFB093354
:1001100001460020141843EB01052C4604E0DFF8EB
:1001200078170C6803F048F9BC4231BF381B781EC1
:10013000001B401C800806F57A71814238BFB0F17F
:10014000405F05D2801B012803D80120BDE8F0875D
:100150000020BDE8F087F0B504460025DFF8303711
:1001600081B0D3F85003012924D100E000680028B1
:1001700052D0C668377B07F00F07022F1AD00068ED
:10018000002849D0C668377B07F00F07022F11D02F
:100190000068002840D0C668377B07F00F07022FA1
:1001A00008D00068002837D0C668377B07F00F07F3
:1001B000022FDBD180B3012502B11060C268167B2B
:1001C00006F00F06022E27D1012904D10169CA6861
:1001D000898D511813E0118840F6030291421CBF2B
:1001E00040F60406B14207BF01694A6901690A691C
:1001F000498B561893F82213192212FB0161406BA8
:10020000FFF766FF20600A20C0462168B1FBF0F0CE
:100210002060284601B0F0BD00202060284601B0D3
:10022000F0BDF0B581B0044603F0A1F80546002CFE
:100230001CBFA07A002833D0DFF8603694F909009B
:100240001E68012202FA00F1F7070ED5DFF85036DA
:100250001E68370609D5DFF84C3611305E6802FAA1
:1002600000F0C04306405E6018600020A07220725B
:1002700020606060C4E90400A061DFF8143694F9DE
:10028000090093F82063824093F82203324383F8F5
:10029000202310B1401E83F82203C8B200F061F998
:1002A000284601B0BDE8F04003F086B82DE9F047DC
:1002B00000261124DFF8EC554FF00108DFF8D09547
:1002C000F0B2032848DA09EB401000F53077B97A2C
:1002D000012941D197F90900113008FA00F0C14312
:1002E00029606A681043686097F909A003F03FF835
:1002F00099F8941308FA0AFA4AEA010A89F894A3C9
:1003000003F05AF899F88403022817D107F1100076
:1003100005F05EF900F0FF0001280FD1B86948B17F
:1003200099F88413022909D105F052F900F0FF0071
:10033000012803D10220B8720EE000BF99F8210312
:1003400097F9091004FA01F1084389F82103002103
:1003500009F5826003F0A2F8761C032EB0D3BDE845
:10036000F08730B581B0042820D1DFF8244504F5AA
:100370008D60007DC046C8B10A20C046054604F520
:100380008D6002F0C0FF4543B5F5967F0ED204F5AF
:100390008D6002F0C3FF052005F01FFB012084F8EB
:1003A0009103042104F56E7003F078F8002001B089
:1003B00030BD70B5044602F0DAFF0546DFF8D064C0
:1003C00096F84C0320EA0404D6F8280386F84C4338
:1003D000002420B1B830007DC04600B10124D6F819
:1003E0002C0320B1B830007DC046044319D196F8E3
:1003F0004C03002808BF002C13D1D6F8480380B165
:1004000090F828108A070CD5446A284602F0D4FFD9
:10041000D6F8480300220221A0470020C6F848036E
:1004200070BD2846BDE8704002F0C6BFF0B4002998
:100430000CBF01230023002A0CBF01250025002842
:1004400039D02C0004BF90F84440002C33D0002950
:100450001CBF91F84440002C12D0446B0E6C07690D
:10046000A4080969A4EB96040026B94218BFFE68E7
:10047000A41B04F18054B4F1805F88BF012301D82C
:10048000190018D0BAB1D1680C7B04F00F04022C0B
:1004900011D1516B046C126989080069A1EB9401B8
:1004A0000024904218BFD468091B01F18051B1F1BA
:1004B000805F88BF01252B40D8B2F0BC7047F0B5F3
:1004C00081B06FF002071E468DF800703468054653
:1004D0002246FFF7ABFF10B101208DF800009DF917
:1004E0000000B84201BFE968087B00F00F00022855
:1004F0000CD100E024684CB1226821462846FFF761
:1005000095FF0028F6D002208DF800009DF900101C
:10051000B94204D1E86B10B104218DF800109DF9A7
:100520000070012F06D12946304605F04FFD3846B0
:1005300001B0F0BD022F09D1226829463046002AB9
:1005400008D005F020FD384601B0F0BD042F03D1DE
:100550002946304605F02AFD384601B0F0BD00209E
:10056000704730B581B0044602F001FF0546C84827
:1005700090F8941321EA040480F8944390F89423AB
:10058000110704D4082100F56E7002F087FF284699
:1005900001B0BDE8304002F00FBF2DE9F04F064634
:1005A00081B000203060DFF8E892D9F850030024D1
:1005B00018B3C16801240A7B02F00F02022A1CD181
:1005C0000A88192140F603039A421CBF40F604052D
:1005D000AA4219BF0269136902695369528B406BC1
:1005E0009A1899F8223311FB0321FFF771FD054694
:1005F0000A20C046B5FBF0F801E04FF000080025E6
:100600004FF0FF3A0027F8B203281FDA09EB401138
:1006100001F53072907AC8B1107A0125022826D0EF
:10062000D9F8980399F822334FF0190C0169408BDF
:1006300009181CFB03115069FFF74AFD83460A2085
:10064000C046BBFBF0F0504598BF82467F1C032F8D
:10065000D9D3E3B230682B420CD0D0450BD9D04669
:10066000404630602C43E0B201B0BDE8F08F4FF05F
:10067000000AEEE734B1404630602C43E0B201B0EE
:10068000BDE8F08F05B1504630602C43E0B201B0B8
:10069000BDE8F08F2DE9F04F81B0DFF8F4A19AF8B2
:1006A0008413022905D101B01920BDE8F04F02F0F2
:1006B00071BE9AF8840301281CBF9AF884030428A9
:1006C00000F0888002F053FE0090DAF85003002416
:1006D000002518B3C16801250A7B02F00F02022A27
:1006E0001CD10A88192140F603039A421CBF40F628
:1006F0000406B24219BF0269136902695369528B39
:10070000406B9A189AF8223311FB0321FFF7E0FCA3
:1007100006460A20C046B6FBF0F800E0A0460026D8
:100720004FF0FF390027F8B203281FDA0AEB401117
:1007300001F53072907AC8B1107A012602281ED0D5
:10074000DAF898039AF822334FF0190C0169408BBC
:1007500009181CFB03115069FFF7BAFC83460A20F5
:10076000C046BBFBF0F0484598BF81467F1C022F76
:10077000D9D9354205D044464C4507D905E0A146B4
:10078000F7E70DB1444601E006B14C46354317D0BA
:1007900064B12146012998BF01210AF58D6002F05C
:1007A000B9FD0AF58D6002F0B7FD0DE00AF58D6028
:1007B00002F0B4FD04210AF56E7002F06FFE03E052
:1007C0000AF58D6002F0AAFD009801B0BDE8F04F77
:1007D00002F0F2BD01B0BDE8F08F30B585B0002267
:1007E000014603920192049202928C68487E40F680
:1007F0000205628023885B1B09D041F21E055B1B4A
:1008000005D041F6E6755B1B012B0FD91CE0238A4E
:100810004FF6FF3213402382002819BF4FF60F40D6
:1008200003402D2060F3091323820DE0238B4FF644
:10083000FF3213402383002819BF4FF60F400340B7
:100840002D2060F3091323830020487602AD009524
:1008500004AB01AA03A9204601F083FD50B103981F
:100860004FF6FF720188914204D10299019801F07C
:10087000EAFC03E00299019801F02BFD0448D0F84E
:10088000AC1309B10198884705B030BD00000000E5
:10089000C019002000093D000430044040210840F8
:1008A00000000440081004402DE9F04F85B00026F8
:1008B0000396DFF83889D8F850530296002D6AD095
:1008C000D8F86403002804BFD8F86003002841D199
:1008D000012686F0010703AAF9B202A8FFF73BFC44
:1008E00004005AD1DFF80809D0F80490B9F1000FDC
:1008F00018BF002C00F083820298002840F07F820D
:10090000D8F86413039808F5567308F554720190EB
:100910000097D8F86003C847012800F07B810228BF
:1009200040F06D82D8F86003D8F86013B0F9304019
:100930000D6902F01CFD4FF0FF3182468C424CD114
:10094000D8F8600300283CD00069A84239D1D8F813
:10095000606390E0D8F860030028BAD0D8F860034C
:10096000016928698142B4D195F83310CA06B0D51F
:10097000D8F864030028ACD15FF00106D8F8600312
:10098000C16848880028F9D0D8F86003C168488851
:100990000128F3D09DE70221BDE2002EA2D10298EA
:1009A00000289FD00146022938BF012108F58D603B
:1009B00002F0B0FC08F58D6002F0AEFC05B0BDE8B9
:1009C000F08FD8F8640328B10069A84208BFD8F8AE
:1009D000646350D0D8F850634DE0B8F9300000217E
:1009E000A04204BFD8F81000A8423FD0B8F9880050
:1009F0000121A04204BFD8F86820AA4236D0B8F935
:100A0000E0000221A04204BFD8F8C000A8422DD0C7
:100A1000B8F938010321A04204BFD8F81821AA422E
:100A200024D0B8F990010421A04204BFD8F8700185
:100A3000A8421BD0B8F9E8010521A04204BFD8F8AC
:100A4000C821AA4212D0B8F940020621A04204BF30
:100A5000D8F82002A84209D0B8F998020721A0428C
:100A600004BFD8F87822AA4240F0D280582010FB68
:100A700001F108EB0106002E00F0CA8096F8330061
:100A8000010640F1C580D8F8600386421CBFD8F843
:100A900064138E4258D0D8F8504312E02468002CDA
:100AA00000F0B680B44211D02468002C00F0B08071
:100AB000B4420BD02468002C00F0AA80B44205D0C8
:100AC0002468002C00F0A480B442E7D12768B34624
:100AD0000095002600E0276820690099884220D10F
:100AE00000224FF080532046FFF7D8FA00224FF043
:100AF00080732046FFF7D2FA98F84C13DBF8100009
:100B0000761C41F00101C8F8480388F84C132146CF
:100B100008F5547005F06DFA214608F5567005F099
:100B200045FA3C00D7D1002E1FBF98F88403012856
:100B300098F8840304286BD0DFF80C1908F56E7060
:100B400002F0ACFC504686E1D8F8600300224FF07A
:100B50000053FFF7A3FAD8F8640300224FF00053C4
:100B6000FFF79CFADFF8E40804F032FDD8F86003E0
:100B700000224FF08073FFF791FAD8F86403002247
:100B80004FF08073FFF78AFA98F84C133069D8F861
:100B9000506341F00101C8F8480388F84C1334460B
:100BA00000E02468A4B3B4420BD0246884B3B442F8
:100BB00007D0246864B3B44203D0246844B3B44279
:100BC000EFD12CB327680CB32069A8421ED10022B4
:100BD0004FF080532046FFF761FA00224FF08073F8
:100BE0002046FFF75BFA98F84C13306941F0010199
:100BF00088F84C13C8F84803214608F5547005F0EE
:100C0000F8F9214608F5567005F0D0F93C00D9D125
:100C1000504620E1039800B10546B5F930402F69F0
:100C200002F0A5FB4FF0FF3106468C4214D1D8F8F4
:100C3000600328B10069B84208BFD8F8604359D0B2
:100C4000D8F8640328B10069B84208BFD8F86443F3
:100C500050D0D8F850434DE0B8F930000021A04200
:100C600004BFD8F81000B8423FD0B8F9880001217D
:100C7000A04204BFD8F86820BA4236D0B8F9E000E4
:100C80000221A04204BFD8F8C000B8422DD0B8F964
:100C900038010321A04204BFD8F81821BA4224D059
:100CA000B8F990010421A04204BFD8F87001B842FD
:100CB0001BD0B8F9E8010521A04204BFD8F8C8212B
:100CC000BA4212D0B8F940020621A04204BFD8F8B7
:100CD0002002B84209D0B8F998020721A04204BF07
:100CE000D8F87822BA4240F08880582010FB01F1F1
:100CF00008EB0104002C00F0808094F8330001061A
:100D00007BD5D8F8600384421CBFD8F864138C42AA
:100D10004AD0D8F850032546044600E02468002C49
:100D20006BD0AC420ED02468002C66D0AC4209D007
:100D30002468002C61D0AC4204D02468002C5CD024
:100D4000AC42EBD12169B94257D100224FF0805318
:100D50002046FFF7A3F900224FF080732046FFF7EB
:100D60009DF998F84C13286941F0010188F84C135B
:100D7000C8F84803214608F5547005F03AF92146B1
:100D800008F5567005F012F998F8840301281CBF85
:100D900098F88403042830D0DFF8AC1608F56E709C
:100DA00002F07CFB304656E0D8F8600300224FF09A
:100DB0000053FFF773F9D8F8640300224FF0005393
:100DC000FFF76CF9DFF8840604F002FCD8F8600342
:100DD00000224FF08073FFF761F9D8F86403002216
:100DE0004FF08073FFF75AF998F84C13206941F0DF
:100DF000010188F84C13C8F8480330462BE0002E58
:100E000000F08D802869D8F89813884218BF4FF4F5
:100E1000806140F08080002C1CBF029800281FD009
:100E2000D8F86003002804BFD8F86403002817D15D
:100E300002F09DFA044698F8940300F0F70088F851
:100E4000940398F89403010704D4082108F56E7000
:100E500002F024FB204602F0AFFA05B0BDE8F08FA7
:100E600002F085FA98F8941341F0080188F8941379
:100E700002F0A2FA95F83300C10608F5547004D5C3
:100E800005F06FF8C8F8640303E005F06AF8C8F8E5
:100E90006003D5E90601DFF89048DFF8646AC043D3
:100EA000A060E268D5E906010243E260D5E90623C5
:100EB000DB432360D4F804C0D5E9060141EA0C0CF9
:100EC000C4F804C07768EC683B46180007D0307A55
:100ED000010704D5D8F898032A46082198472046E8
:100EE00004F076FB208840F60201401A08D041F257
:100EF0001E01401A04D041F6E671401A012808D8B4
:100F00003FB1307AC10704D5D8F8980322460121B1
:100F1000B8474FF0804108F56E7002F0BFFA05B097
:100F2000BDE8F08FF0B581B0DFF8C062D6F860534D
:100F3000DFF86C0904F0F9FB0446DFF8C809026821
:100F4000076802F02002224007F4602718BF002D36
:100F50000CD01346C6F8685300222846FFF79EF8C7
:100F60004FF4804106F56E7002F098FA3C400DD0C7
:100F700096F82103002140EA544406F5826086F881
:100F8000214301B0BDE8F04002F088BA01B0F0BDE5
:100F90002DE9F04381B0DFF8549299F82103002441
:100FA00000284CD099F821030026C1073DD599F8B7
:100FB00021031021B140084218BF012402F0D7F9E3
:100FC00099F821131122B240914389F8211302F0BC
:100FD000F3F9032E33DA09EB461101F53072907AFA
:100FE00068B392F90980DFF82019002C01EB880121
:100FF0000D681668576804BF107A022803D1D2E939
:101000000401C30009D41046FFF70BF92CB10020EE
:10101000009000224FF0007303E0009500224FF093
:10102000006341463046B84709E099F8210301269C
:101030008107BCD499F8210302264107B7D499F857
:10104000210338B109F5826001B00021BDE8F04309
:1010500002F024BA01B0BDE8F0830FF240122DE98E
:10106000F043D2E9003485B04FF48040CDE900343C
:101070004FF0000804F0A6FA00B3DFF89008D0F8AB
:1010800013100078C1F3150102AA800841EAC0716B
:10109000DFF85801D0F89833986801F0F5F9DFF8D7
:1010A0004C01DFF85C18D0F898034B6882681C008C
:1010B00004D00C7AE10744BF012198476E464FF0F7
:1010C000020937683868002856D03868D0E9060128
:1010D00004F078FA3D6800210446CDE9020102F0EF
:1010E00046F984467DB1D5E90A23DDE902011043C2
:1010F0001943C5E90A01D5E90823DDE902011043D6
:101100001943C5E90801604602F056F914F00A0FC8
:101110002BD03868DFF8EC178A68D0E90601DFF8D1
:10112000F037DFF8E04718408243A2603868224673
:101130001368D0E906018B4313603A68DFF8C007F3
:101140004368190007D0017AC80604D5274CD4F8A3
:101150009803102198473968DFF8B80748F002086B
:1011600004F024FF0020386006E02CB138681F49E5
:1011700048F48048C1F86803361DB9F10109A0D1CF
:101180005FEA08011CBFDFF8900702F087F9FFF75C
:101190008DF8FFF789FB05B0BDE8F083201D002026
:1011A000241D002030B581B0104CB4F96C03B4F9A3
:1011B0006E13884217D102F0DAF8054694F89403CA
:1011C00000F0F70084F8940394F89403010704D422
:1011D000082104F56E7002F061F9284601B0BDE8FF
:1011E000304002F0E9B801B030BD0000C019002065
:1011F000D00C00200720FFF7DCB82DE9F0410746AE
:10120000D7F8A860884614461D4606B1B047D7E90E
:10121000280104EA000215EA010308BF002A00F0D1
:101220008E80DFF8E01CB1F930000026404504BF95
:101230000869B84204D191F833005FEA006C64D4C5
:10124000B1F988000126404504BFD1F868C0BC450B
:1012500004D191F88B005FEA006C56D4B1F9E0003C
:101260000226404504BFD1F8C000B84204D191F82D
:10127000E3005FEA006C48D4B1F938010326404529
:1012800004BFD1F818C1BC4504D191F83B015FEA15
:10129000006C3AD4B1F990010426404504BFD1F85E
:1012A0007001B84204D191F893015FEA006C2CD42C
:1012B000B1F9E8010526404504BFD1F8C8C1BC45D5
:1012C00004D191F8EB015FEA006C1ED4B1F9400241
:1012D0000626404504BFD1F82002B84204D191F857
:1012E00043025FEA006C10D4B1F99802072640452A
:1012F00004BFD1F878C2BC4504D191F89B025FEAE3
:10130000006C02D4C7E92C2310E0582010FB06F62D
:10131000C7E92C238819D0E9084524EA020225EA06
:101320000303C0E90823D7F8A81081600020C7F89C
:10133000A80007F15000BDE8F04102F071B8BDE827
:10134000F081704700B581B002F09CF8DFF88C2C7A
:101350000146D2F89803D2F8882301B05DF804EB77
:101360001047DFF8780CD0F888130FF2B152914291
:1013700008BFFFF78FB9042100F56E7002F08EB838
:1013800030B581B04FF0FF3004F01CF90446DFF8AF
:10139000745BD5F888030FF28551884232D1002260
:1013A000DFF83C1C05F57D7001F0F6FF022085F8A2
:1013B0008403D5F898138A6801F1380300E00246E7
:1013C000506890B198421EBF0246506800280CD069
:1013D00098421EBF02465068002806D098421FBFA0
:1013E0000246506800289842E9D1507B10F00F0F58
:1013F00002BF488F40F60901884203D0FEF756FF2E
:10140000FFF752FA1048044208D005F56E7001B09B
:101410004FF00051BDE8304002F040B801B030BD9F
:1014200000B581B04FF0FF3004F0CCF8800708D54C
:1014300001B04FF40061DFF8E0045DF804EB02F066
:101440002DB801B000BD0000020000400100010401
:101450002DE9F041DFF8847BD7F85863002E00F0C7
:10146000AD800821F06840F6040240F6030301E075
:101470004068491E68B1CCB25CB104889C4218BF78
:101480009442F5D1316901F138021AC81AC21AC85A
:101490001AC2D6E90A450022C6E90A22B068D0B1CC
:1014A00015F0E24310D024F00F0235F0E24308BFFC
:1014B000002A05D0B6F930103069D6F808C0E047E8
:1014C00004F0000405F0E2452246B6F93010306918
:1014D000B4682B46A04701F04AFF0446B7F86E03F4
:1014E0006FF00201401CC0F30B00A7F86E03002050
:1014F00086F83300318607F5567004F032FD204639
:1015000001F05AFFB7F96E03B7F96C13884255D151
:10151000D7F8981300250520A846D7F82863D7F8F0
:101520002C4300291EBF91F8FC1000290720FEF76C
:1015300040FF2EB196F8FC0000B9356886F8FC80B3
:101540003CB194F8FC0008B9D4F80080002084F87D
:10155000FC00454538BF4546E5B9B7F96C03B7F916
:101560006E1388422AD101F002FF044697F89403D3
:1015700000F0F70087F8940397F89403010704D468
:10158000082107F56E7001F089FF2046BDE8F041A3
:1015900001F012BF15F1010F10D001F0B2FEB5FB42
:1015A000F0F1012998BF012107F2AC4001F0B2FE31
:1015B00007F2AC40BDE8F04101F0AEBEBDE8F081FD
:1015C000DFF8182A92F884130020022904BFD2F809
:1015D0006013002903D1D2F8641301B901207047C8
:1015E00070B50446DFF8F4092568D0F89C6303F071
:1015F000DDFF864231BF861B401E861B761C360BE4
:10160000AE423CBF75196E0840F6C410864288BFD2
:10161000064604D8B6F5967F38BF4FF49676266016
:1016200070BD30B50D4681B0DFF8D848A80712D597
:10163000FFF70EFFD4F8580340B145F0020104F55E
:101640006E7001B0BDE8304001F028BF01B0BDE8C8
:101650003040FFF71FB8680764D5012184F896135E
:10166000042004F0BAF903F0A1FFC4F89C03D4F8F5
:10167000500398B10569D4F89803002818BFA84210
:101680000AD095F82800410704D56B6A002204218E
:101690002846984701206876C4F89853D4F89803F0
:1016A0004168DFF8680B0A780260022004F095F9BF
:1016B000102004F0A7F9012084F884039049887869
:1016C00010B90D2004F09EF9D4F898034168886899
:1016D000002804BFC868002806D0DFF8340B0021BA
:1016E000C161DFF8302B02600720DFF82C1B086097
:1016F000DFF81C0B42690021416182698161426906
:1017000042F0402242F0020242610FF22100C4F88E
:1017100088031A2001F02CFE01B01920BDE83040EA
:1017200001F026BE01B030BD081004402DE9F043A1
:10173000044681B0880040F1B080DFF8C887D8F84F
:101740009803416848688E68CF68010018BF8047D9
:10175000DFF8BC5A300001D138000ED0E86900280B
:10176000FCD00021E961300018BFB047380018BF35
:10177000B847DFF8A80A03F02BFF0020E861DFF884
:10178000A01A296040F60A09A8F87093A8F8720315
:1017900098F87C1301F0F00188F87C13C8F8740302
:1017A00098F87D13204601F0F00141F0010188F81E
:1017B0007D13FFF712F8A66840F6040140F6030215
:1017C000374600E00746786828B103884B451CBFC0
:1017D00093428B42F6D17B7B08F55C70786003F016
:1017E000F0037B73D8F8500328B1C068008890429A
:1017F00018BF88421CD0208FD0B100216187E163DF
:1018000094F8450094F8441000F0F00040F0010016
:1018100001F0F00184F8450084F8441004F1380028
:10182000C8F8740398F87D1301F0F00188F87D136F
:10183000E8690028FCD00021E96198F891030FF2D3
:10184000DD02C8F8882330B104F031FA0028FBD05B
:1018500004F03EFA0EE0012004F029FC012809D032
:10186000787B00F0F00040F0010078730FF2350053
:10187000C8F888030021E9612E60DFF8FC0B43689B
:1018800019000AD0007AC10707D53246D8F8980364
:1018900001B00121BDE8F043184701B0BDE8F08375
:1018A00020000E00DFF8D42B114200D1704710B594
:1018B000012004F0FCFB01280DD1DFF820070FF216
:1018C0005D01C0F88813DFF848190022CA6100F5ED
:1018D0005C70086010BD0A20C0463221B1FBF0F1F7
:1018E000012998BF0121DFF8F44604F58D6001F06D
:1018F00011FD04F58D60BDE8104001F00DBD000044
:10190000CCAC02000C10044094300440850300214C
:10191000FDBFFFFF181D0020781D00202DE9F047B6
:101920000446884682B0DFF8DC955FEA48402CD553
:1019300001F01DFDD9F8686316B3D6E90A2302F059
:101940000A0413F0E04508BF002C19D1D6E90A4576
:10195000D6E90A23A243AB43C6E90A2301F02CFDD2
:10196000B06878B1002D08BF002C0BD0B6F930104C
:1019700030692246B4682B4628F48048A047B5E277
:1019800001F01AFD28F48048B0E25FEA880040F1D7
:101990008280DFF8EC0AD0F88C1041F08001C0F8AA
:1019A0008C1099F8960328B1042003F0A6FF0020BC
:1019B00089F8960301F0DBFC0546042004F077FB70
:1019C000D9F8B423014691421DD1207E00281CBFC6
:1019D000D9F89C03002816D0D9F8600370B1C1680B
:1019E00040F603030A889A421FBFC068018840F688
:1019F0000402914208BF04F1140001D004F1100068
:101A0000FFF7EEFD05E040F6C41020616061C9F803
:101A1000B413284601F0D0FCD9F898138A6801F174
:101A2000380300E00246506890B198421EBF02465B
:101A3000506800280CD098421EBF0246506800280B
:101A400006D098421FBF0246506800289842E9D14C
:101A5000507B10F00F0F02BF488F40F609029042F2
:101A60000FD1256A00224FF000736FF48071204679
:101A7000A847D9F8500310B1FEF70CFE01E048F07A
:101A800002082046E46900224FF080630021A0474D
:101A900028F000582AE25FEA887009D5FFF7D8FCE1
:101AA000D9F85803002840F0218228F002081DE2EE
:101AB0005FEA485040F1B18001F059FC0546FFF75C
:101AC0007FFDD9F85043012840F0A180002C00F0A0
:101AD0009E80042089F884030022DFF8A81909F504
:101AE0007D7001F059FC284601F066FC09F2AC401B
:101AF00001F014FC03F05AFDC9F8A003012089F895
:101B00009603042003F069FF2069C9F8980390F850
:101B100028104A0703D5436A002204219847D9F8C0
:101B20009803DFF8EC5641688E684868CF68002E4D
:101B300008BF002F04D00021E961DFF8D8262A6011
:101B400008B1C046C046002E08BF002F0CD0E8697F
:101B50000028FCD00021E96106B1B04707B1B847C1
:101B6000DFF8B80603F034FDD9F89803012140F6F8
:101B70000A064176FEF731FED9F8983340F6040C98
:101B800040F6030E9A68114600E00146486828B105
:101B90000788B7421CBF77456745F6D100204860EB
:101BA0004E7B06F0F00646F001064E73E0680088B2
:101BB000704518BF604503D10020C9F8A00315E0A7
:101BC000188F98B103F13800002444804460047BEE
:101BD00004F0F0040473447B04F0F00444F00104C6
:101BE00044734860487B00F0F00048730020E861CF
:101BF0002A60DFF88408446821000BD0007AC1070E
:101C000008D501211846A04728F480686EE12846CF
:101C100001F0D2FB28F4806868E15FEA085160D5E2
:101C200099F8960328B1042003F067FE002089F894
:101C30009603D9F8984304F108010B6804F13805BC
:101C400000E00346586890B1A8421EBF034658689A
:101C500000280CD0A8421EBF03465868002806D0B2
:101C6000A8421FBF034658680028A842E9D1587B04
:101C700010F00F0F02BF488E40F60902904207D1C4
:101C80002046246A00224FF000736FF48071A04751
:101C9000D9F8A00380B103F089FCD9F8A0138142E0
:101CA00031BF401A401E401A401CD9F89813000B4F
:101CB000C8600020C9F8A0030022C94909F57D7059
:101CC00001F06AFB022189F88413D9F8580318B18E
:101CD00009F56E7001F0E2FBFEF7DCFC28F4006809
:101CE00004E15FEA087040F1FA8001F040FB05462C
:101CF000FFF766FC002800F0EA8099F894030107DA
:101D000000F1E58099F89403010600F1E08068464F
:101D1000FEF743FC18B10098002800F0D88099F82D
:101D20002103002840F0D38000270126F8B20228C2
:101D30001FDC09EB401101F53071887AC8B18E7251
:101D400091F909A001F013FB044699F8940306FAEF
:101D50000AFA20EA0A0A89F894A399F89413080762
:101D600004D4082109F56E7001F098FB204601F0BB
:101D700023FB7F1C032FD9D3032089F8840309F2A6
:101D8000AC4001F0CBFA284601F016FBDFF88044A6
:101D9000606900216161E068E1600022DFF8E41A17
:101DA00009F57D7001F0F8FA03F000FCD9F89C13F6
:101DB000814231BF401A401E401A401C4FF0FF3292
:101DC000D9F88C13A2EB10328A4234BF4FF0FF30A7
:101DD00001EB1030C9F88C0399F8900330B1D9F8B1
:101DE000A403D9F88C13C00288422FD2DFF89006E2
:101DF0000268D10725D5DFF8EC0A0268110620D564
:101E000040F60900A9F870030021A9F8721399F8A7
:101E10007D0300F0F00040F0010089F87D0399F89F
:101E20007C0300F0F00089F87C03C9F874130020EB
:101E3000E06109F55C712160B9F8720310F4406F3C
:101E4000FAD0002189F89063C9F88C1303F0CDFB18
:101E50000020DFF8C4130860DFF81C466368180030
:101E600007D0207A810704D5D9F8980300220221EF
:101E70009847022003F041FD102003F054FD99F82B
:101E8000950320B9D9F89803503001F0C9FAA07829
:101E900010B90D2003F047FD99F8910328B10021F6
:101EA00089F89113052003F028FDDFF83C0AC9F8F2
:101EB0008803002189F88413B9F96E13B9F96C23EA
:101EC0000220914208BF0720FEF773FA02E028467D
:101ED00001F072FAFEF7DEFB28F0080806E05FEA80
:101EE000480003D5FEF7D6FB28F08048B8F1000F74
:101EF00004D0414609F56E7001F0D0FA02B0BDE899
:101F0000F0870000C01900202DE9F04E81B005B423
:101F1000DFF8D8A981B09B460025DAF850430E4679
:101F200000E02468002C55D0B4420ED02468002C68
:101F300050D0B44209D02468002C4BD0B44204D015
:101F40002468002C46D0B442EBD1002C42D020694A
:101F500001992768884237D101F009FAD4E90A23A8
:101F600043F08059C4E90A29D4E9082343F0805991
:101F7000C4E9082901F020FABBF1000F18D001F0E4
:101F8000F6F9D4E90A2343F08079C4E90A29D4E9AF
:101F9000082343F08079C4E9082901F00DFA9AF882
:101FA0004C13306941F001018AF84C13CAF8480318
:101FB00021460AF5547004F01CF821460AF55670C3
:101FC00003F0F4FF15F101059DF80800002818BF83
:101FD0003C46BAD1284604B0BDE8F08EC0190020B6
:101FE0005B1000002DE9F04E81461746032582B0B4
:101FF0009B46380014BF4FF0804A4FF0005A0E46FF
:1020000001F0B5F94FF0FF310090DFF8E0488E4263
:1020100038D1D4F8600348B30069484526D1D4F8D4
:102020006063002E00F0BA8096F83300010640F19C
:10203000B4800A9DD4F8600386421CBFD4F86413B0
:102040008E4240F09380D4F8600300225346FEF79E
:1020500025F8D4F8640300225346FEF71FF8002F3A
:1020600014BFDFF88C08DFF88C0859E0D4F864035B
:1020700028B10069484508BFD4F86463D1D0D4F8CA
:102080005063CEE7B4F930000021B04204BF2069AC
:10209000484503D1582041436618C2E7B4F9880087
:1020A0000121B04204BFA26E4A45F3D0B4F9E0006A
:1020B0000221B04204BFD4F8C0004845EAD0B4F9C8
:1020C00038010321B04204BFD4F818214A45E1D0B9
:1020D000B4F990010421B04204BFD4F8700148451E
:1020E000D8D0B4F9E8010521B04204BFD4F8C82122
:1020F0004A45CFD0B4F940020621B04204BFD4F81B
:1021000020024845C6D0B4F998020721B04204BF66
:10211000D4F878224A4541D158204143661880E7D7
:1021200003F056FAB5B1D4F8600300224FF0807383
:10213000FDF7B4FFD4F8640300224FF08073FDF77D
:10214000ADFF94F84C13306941F0010184F84C1351
:10215000C4F84803BBF1000F1DD0D4F850132B4630
:102160005A464846FFF7D0FE832517E02B465A46CD
:1021700031464846FFF7C8FE78B194F88403012839
:102180001CBF94F88403042805D0DFF8C81A04F5AE
:102190006E7001F083F9832500E00425009801F0BA
:1021A0000BF9284602B0BDE8F08E10B50C46DFF8FA
:1021B0003C1791F88423022A0BD103F009FA04B1E9
:1021C000206000F0FF00012801D1812010BD022015
:1021D00010BD012010BDF0B581B004460D46164675
:1021E00001F0C5F80746DFF80407D0F898138C42D1
:1021F00018BF032404D131462846FFF7D6FF044612
:10220000384601F0D9F8204601B0F0BDD021084091
:10221000001004405100070600000460010007069A
:1022200001010E0430B5144681B00546502340F23A
:10223000FF3203F0F9F924B1014655F82110890A5B
:10224000216001B030BD002942D00A0E202A08BF0B
:1022500010221AD0212A08BF202216D0A02A08BF97
:10226000302212D00AB940220FE0102A08BF5022B3
:102270000BD0112A08BF602207D0402A08BF702265
:1022800003D0502A0CBF802290228901090A42EA19
:10229000012141F00F0100E0001D026812F1010F61
:1022A00018BF8A421CBF50F8042F12F1010F0ED044
:1022B0008A421CBF50F8042F12F1010F07D08A4246
:1022C0001EBF50F8042F12F1010F8A42E4D10160C1
:1022D0007047002944D00A0E202A08BF10221AD0C5
:1022E000212A08BF202216D0A02A08BF302212D0EF
:1022F0000AB940220FE0102A08BF50220BD0112A41
:1023000008BF602207D0402A08BF702203D0502A9D
:102310000CBF802290228901090A42EA012141F082
:102320000F0100E0001D026812F1010F18BF8A4280
:102330001CBF50F8042F12F1010F0ED08A421CBFAF
:1023400050F8042F12F1010F07D08A421EBF50F837
:10235000042F12F1010F8A42E4D14FF0FF310160E6
:1023600070472DE9F04381B01E46089DDFF8283AFA
:10237000D3F80080038840F602074FEA586818F047
:10238000010865D0BB4207D0B3F5C15F10D043F65A
:102390000607BB4218D022E000F112030B6041692E
:1023A000116082693260C1692960C77B047C22E0C8
:1023B00000F112030B6041691160426A3260816A68
:1023C0002960C77B047C16E000F11A030B60C16929
:1023D00000271160026A3260416A29600AE000F158
:1023E0001A030B60C1691160826A3260C16A296098
:1023F00090F82470047E306804F0070488B1052347
:102400004FF6FF7240F2037103F00EF98146B9F105
:10241000050F06DA2146384603F04AF9316841F8DB
:102420002900286820B305234FF6FF7240F203719C
:1024300003F0FAF80646052E1ADAFF21384603F0B3
:1024400037F9296841F82600404601B0BDE8F0831D
:10245000BB4218BFB3F5C15F07BF00F1120340696B
:1024600000F11A03C0690B60106000203060286022
:10247000404601B0BDE8F083CCAC0200040000206F
:1024800040210840211400002DE9F0470E468AB093
:102490000021174602910591039101910DF1040E5F
:1024A0008046CDF800E003AB05AA02A9FFF759FF6B
:1024B00098F80F10832401F07F014D1EAD41ED43CC
:1024C000ED0FF10F75D140B3039800281CBF0198A0
:1024D00000281BD0029840F22B2A50230680DDF8FA
:1024E0000C9040F2FF325146484603F09DF8FF2819
:1024F0001CBF4AEA862A49F820A001990598FFF7EF
:10250000E8FE15203880039979600BE002984FF6B9
:10251000FF720188914200F093800298102106809A
:1025200039807E80002D00F08C800021079106917B
:102530000491089108A9009104AB06AA07A9404696
:10254000FFF70FFF079A4FF6FE71002811801CBF9E
:102550000498002813D040F22B280546502340F25F
:10256000FF32414603F060F8FF281CBF48EA862886
:1025700045F8208015213980049A7A6016E0069883
:1025800000285DD040F22B280546502340F2FF3250
:10259000414603F049F8FF281CBF48EA862845F861
:1025A000208014213980C6F315067E60FF2848D1AB
:1025B00046E0002844D0039800281CBF019800285A
:1025C0001FD002984FF6FF7150230180DDF8048080
:1025D00040F2FF322B21404603F026F8FF2804D0BA
:1025E000B60246F02B0648F8206001990598FFF7DF
:1025F0002AFE152038800199204679600AB0BDE88E
:10260000F087DDF81480502340F2FF322B21404642
:1026100003F00AF8FF2804D0B10241F02B0148F87A
:102620002010FF280CD002994FF6FF70142208806A
:102630003A80C6F315067E6020460AB0BDE8F087F2
:10264000032420460AB0BDE8F0872DE9F043144684
:1026500091B000220D460892019207920692DFF88F
:1026600008891E46D8F80810002D18BF002C00F06D
:1026700004812A78D140CB0740F1FF800746002132
:1026800020460020C0467D60BC60DFF86052D5F86F
:10269000AC0388B106A9009107AB01AA08A920469E
:1026A000FFF75FFE019850234FF6FF720B2102F0F7
:1026B000BBFFFF2800F0E18000F059FE814695F84D
:1026C0009503012800F3D680002840F0808003F0B5
:1026D00062F8DFF89808C8F8000002A800F0A2FE2F
:1026E000DFF88C48607802AADFF88818049005F5B6
:1026F0006E7000F09FFE02AADFF87C1805F582607C
:1027000000F098FE02A800F04FFE207802AB5D4A70
:102710000390192105F57D7000F002FE02ABDFF891
:102720005C281A2105F24C4000F0FAFD002300223B
:10273000DFF84C1805F58D6000F0C8FD002300227D
:10274000DFF8B41805F2AC4000F0C0FDDFF8AC08CB
:102750000168C1F3814038B10023DFF8A4280421C7
:1027600005F59E6003F0B7F8A078012804BF0D209E
:1027700003F048F905F5567003F0E8FB05F55470D1
:1027800003F0E4FB002085F88403C5F88C030021E6
:10279000072085F8901385F8911385F82003C5F874
:1027A0009C1300200521C5F8A003C5F8A41385F8E3
:1027B00094034D49C5F888136368180007D0207A40
:1027C000410704D5D5F8980300220421984795F8CD
:1027D0009503344605EB8002C2F82873401C85F847
:1027E0009503484600F0E8FD3CB90FF2D84191E866
:1027F0007C5109A880E87C5109AC20684FF4FA713B
:102800003860F960A069B862218A012078767983FE
:10281000E1693963606818B138616068002103E0DC
:1028200040F6C410386101213976DFF8D817786195
:102830007962F961E06800B101463962606900B10E
:102840007862A06800B1F861C82107F1380003F090
:10285000C3FC002107F1500000F0AFFD002300226F
:10286000DFF8CC1807F1B80000F030FD384611B0A1
:10287000BDE8F083484600F09FFD002011B0BDE8A0
:10288000F0830000811300002DE9F04200F06FFD9D
:10289000164C94F8841302291CBF94F8841304295D
:1028A00007D1DFF89028146800F086FD2046BDE8C7
:1028B000F08200F081FDDFF8646902F077FE10F528
:1028C0000032A6FB0279D4F8800341F1000306FB35
:1028D0000399014600203C1849EB01052C4620468F
:1028E000BDE8F0820000044023160000C01900205B
:1028F00001000204010001042DE9F04F83B082467B
:102900000F4615469B4600F032FD0190DFF8148912
:10291000D8F828036FF00104824508BFD8F82C03CB
:1029200030B1B83000F0F1FC10B16FF00204ABE050
:10293000FDF784FB060000F0C780DDE90C4908F2D2
:10294000AC4000F0EBFCB8F86C03202109EA01016F
:10295000401CC0F30B00A8F86C03F760002086F859
:102960003200C6F808B0B8F86C23DFF8B408C6F82F
:1029700010A032862040C6E906014FF0000C86F810
:1029800033C0C6E908CCEC6834642A7C86F844205D
:102990002B6873632A7986F83820AB68F3636A6919
:1029A000B264AB69F3642A7F86F850206B7F86F8A7
:1029B00051302A7C22B9EA6812B1012386F84430EA
:1029C0002A79002A02BF3A7B02F00F02022A04D1C0
:1029D000012286F83820BB687363082301E017469C
:1029E0005B1E7A68002A18BF002BF8D13A8802F4DF
:1029F0007C42B2F5305F0AD196F8332040F00800EF
:102A000042F0100286F83320C6E9060103E040F0E8
:102A10000202C6E90621D8F84803504507D198F8C4
:102A20004C03C10744BF00F0FE0088F84C03DFF8F8
:102A3000F80704686FF002090CB94C461DE0D8F89D
:102A4000642308F556700090D8F8601308F55473A5
:102A50003046A04704464C450FD0B8F96C03B6F990
:102A60003010884206D0B8F86C03411EC1F30B0148
:102A7000A8F86C1314F1020F0FD1B8F86C03411EC3
:102A8000C1F30B01A8F86C1398F84C03C8F848A3DD
:102A900040F0040088F84C0316E0B6F9304096F890
:102AA0003300002140F0800086F833008AF8FC10E3
:102AB000D8F85003B0421FBFF168087B00F00F0048
:102AC000022808BFFDF7E6FD019800F075FC2046DE
:102AD00003B0BDE8F08FF0B506460F4681B014464E
:102AE0001D46380003D50020002101B0F0BD00F0E4
:102AF000C7FCDFF83027B2F930100023B94204BF19
:102B00001169B14204D192F833105FEA016C60D4CC
:102B1000B2F988100123B94204BFD2F868C0B445A5
:102B200004D192F88B105FEA016C52D4B2F9E01034
:102B30000223B94204BFD2F8C010B14204D192F8C6
:102B4000E3105FEA016C44D4B2F938110323B942AF
:102B500004BFD2F818C1B44504D192F83B115FEA22
:102B6000016C36D4B2F990110423B94204BFD2F8F3
:102B70007011B14204D192F893115FEA016C28D42C
:102B8000B2F9E8110523B94204BFD2F8C8C1B4456F
:102B900004D192F8EB115FEA016C1AD4B2F9401239
:102BA0000623B94204BFD2F82012B14204D192F8F0
:102BB00043125FEA016C0CD4B2F998120723B942B0
:102BC00004BFD2F87872B7420BD192F89B120F066D
:102BD00007D5582111FB03F3D71897F833201106B6
:102BE00005D400F05DFC0220002101B0F0BDD7E962
:102BF000082344F00A0445F0E04522402B4008BF7A
:102C0000002A0ED000F04CFCD7E9080120402940F2
:102C1000C6E92C01D7E9082382438B43C7E908237F
:102C200013E0BA68DFF804168A4204D0D7F808C067
:102C3000C6F8A8C0B960C6E9284500F031FC4FF0DD
:102C4000FF3106F1500000F0E3FBD6E92C0101B0A2
:102C5000F0BD000002000040D0B582B0DDE906679B
:102C60000446CDE90067FFF747FE0146204602B063
:102C70000A224FF0E043BDE8D0402CE700B59308AE
:102C800081B003F001030093530803F0010302F045
:102C90000102FFF7A7F901B000BD00B5930881B0AC
:102CA00003F001030093012302F00102FFF79AF9F8
:102CB00001B000BDF0B500BF02A191E8FC5080E872
:102CC000FC50F0BDFFFFFFFF00000000000000000F
:102CD000000000003A013A0100000000000000007E
:102CE000000000000022FFF776BA0022FFF773BA57
:102CF00000B581B06A46DFF83C15FFF76CFA812811
:102D000003BF0098000200166FF07F0001B000BD05
:102D100070B50E461546832400F029FB052E36D8E3
:102D2000DFE806F0030F15351F28DFF80425D2F879
:102D3000601321B1D2F860130A8E2A8028E0802423
:102D400026E0DFF8EC1491F820232A8020E0DFF859
:102D5000E01491F88423022A0CBF0121002129707C
:102D600016E0DFF8CC14D1F828232A60D1F82C1310
:102D700069600DE0DFF8B824D2F8281301B1C96802
:102D80002960D2F82C1301B1C968696000E00324FE
:102D900000F012FB204670BD940A005030B4DFF8FA
:102DA0009044B4F9302000238A4204BF2269824251
:102DB00003D194F83320150659D4B4F9882001239F
:102DC0008A4204BFA56E854203D194F88B20150674
:102DD0004DD4B4F9E02002238A4204BFD4F8C020C5
:102DE000824203D194F8E320150640D4B4F9382187
:102DF00003238A4204BFD4F81851854203D194F8C2
:102E00003B21150633D4B4F9902104238A4204BF30
:102E1000D4F87021824203D194F89321150626D468
:102E2000B4F9E82105238A4204BFD4F8C851854289
:102E300003D194F8EB21150619D4B4F940220623E6
:102E40008A4204BFD4F82022824203D194F843225C
:102E500015060CD4B4F9982207238A4204BFD4F88B
:102E6000781281420AD194F89B02010606D55820B7
:102E700010FB03F3E018C06830BC7047002030BC82
:102E8000704700002DE9F04F81B00E46834617468B
:102E900096F90480346800F06AFADFF888236FF04E
:102EA000010900904FF0000C5FF0010392F820A39D
:102EB00003FA0CFE1AEA0E0F50D04FF0FF35A8456A
:102EC00018BFE0454AD15FFA8CF0032846DA02EBDE
:102ED000401505F53075A87A00283FD12AEA0E0E74
:102EE00082F820E3AB7285F809C092F822030A2128
:102EF000401C82F82203C5F800B02B72414868607C
:102F0000298295F909000023401DA874B068686102
:102F10007FB13B7878784FF6FC715B0143EA800320
:102F200095F90900401D43EA0023DFF80C030B402C
:102F30000343AB6104B16C60D2F8980310B92968FF
:102F4000C2F89813FDF7A6FB95F90990009800F0D8
:102F500033FA484601B0BDE8F08F00BF0CF1010C18
:102F6000BCF1030FA4D3F1E7CC210840110000E02D
:102F7000CCAC020045130000910F0000250F0000AB
:102F800063130000F0B581B006460F46802400F0C0
:102F9000EEF9FFB20546032F27DADFF8943203EB90
:102FA000471101F53077B87AF8B13968B1421CD1D0
:102FB00093F88403022812D197F90910D3F89803E3
:102FC0000022491D0906090C41F0816141F001010F
:102FD000FFF701F904463846FDF723F905E03846C6
:102FE000FDF71FF98124FDF755FB284600F0E4F9B1
:102FF000204601B0F0BD0000A51100000400005003
:1030000063030000431300002DE9F04107460D461D
:103010001646832400F0ABF98046092D00F281802A
:10302000DFE805F005081114171D44566C7130686F
:10303000386077E0386901217976603038617869E5
:10304000603078616EE0306878836BE03168B98514
:1030500068E03068DFF8D811C1F8A40362E0306896
:1030600050B900F084F9DFF8C81191F8942342F0C8
:10307000800281F8942316E0012852D100F077F9FC
:103080000646DFF8AC0190F8941301F07F0180F858
:10309000941390F894130A0704D4082100F56E7075
:1030A00000F0FCF9304600F087F93BE0604991F808
:1030B0008403002804BFD1F85003002811D13168DF
:1030C000192000F06FF931681A2000F06BF929E03F
:1030D000574F97F88403002804BFD7F850030028FF
:1030E00001D000241EE0316807F56E7000F0DAF9B7
:1030F000316807F5826000F0D5F913E030784C496B
:1031000081F820030EE04D48436819000AD0007A88
:10311000810607D54648D0F89803324620219847C3
:1031200000E00324404600F047F92046BDE8F08166
:10313000F51100000430044030B5044683B0A068A7
:103140006A46FFF7A1F90546832804D100226946A3
:103150002046FFF740F8284603B030BD30B587B0B1
:10316000002204AD059203920292049200950FF2A0
:10317000D801334A0C680192806802AB03AA05A902
:10318000FFF7EFF805994FF6FF72098891421CD1BD
:1031900000283FD0029800281CBF0498002802D0C5
:1031A00001AA2B2102E001AA2B210398FFF73AF88C
:1031B000FF282FD0019923480440C1F315010C4387
:1031C00044F00044204607B030BD4FF6FE729142F5
:1031D0001DD1029860B101AA40F22B21FFF722F81D
:1031E000FF2817D0019907B061F31504204630BDC0
:1031F000039878B101AA40F22B21FFF713F8FF28BA
:1032000008D0019807B060F31504204630BDA40D26
:1032100041EA8454204607B030BD000000093D005B
:10322000FFEFFF9FC0190020D00C0020FB11000011
:10323000C01900200100030401000406CCAC020008
:10324000FFFF3F000000C07FFFFF3F00EFF3118052
:10325000202102E0EFF31180002181F311887047F3
:1032600080F31188704702F0E7BF10B500F03EFB15
:1032700000F0F7FC00F016F8DFF8984304F10800BE
:10328000A06602F081F800F0C3FF01F045FC01F0F8
:1032900072FD01F034FA00F05EFA00F09BFF0120AD
:1032A000207010BD10B5DFF8704394F8080160B9C4
:1032B000012184F8081100F08DFF002104F59A70B7
:1032C00000F08AFFDFF85413086010BDFEB5044615
:1032D00013B901F0F7F810E06D4600200026002732
:1032E00085E8C100986802901D788DF800505868F4
:1032F0006B460190204601F0E5F82046FEBD00F047
:10330000EFB90A20704701F0C1B8007D7047002175
:1033100081607AE08160704701F0AAB801F06DB871
:10332000F8B586B005460E4617461C0003D10023AB
:1033300000F027FA08E000F009F820686B463A46EA
:1033400000F00AF800F01DFA07B0F0BD6846DFF89B
:10335000D412182203F05AB80190606831460490E4
:10336000207A8DF808002846704700F03BBA6DE7D8
:1033700000F01CBBDFF8A00290F8F41001F0DABBFB
:1033800010B5FFF763FF0446FFF76AFF601E804138
:10339000C00F10BD00F06DBB70B501F072F8656034
:1033A000266032E100F054BB002101604FF0FF3293
:1033B000012342600372704752E7FEB50446684637
:1033C00000230025002680E8680001278DF80070A2
:1033D0006A46204601F0F4FA2046FEBD3EB5694635
:1033E00000220023002481E81C0001258DF80050F4
:1033F000DFF82C2201F0F4FA3EBD80B5009068465B
:1034000001F007FB01BD01F0F8BA0170416070479F
:1034100080B501F03AFA08B900F049B9002002BDC0
:1034200001F092BA002101604160C1604FF0FF31AC
:103430008160704778B585B005460E46140003D10B
:10344000002201F0CAFB10E0A068062804D310F1A6
:10345000010F18BF002008D100F001FF20686A4664
:10346000314600F004F801F0B8FB06B070BD0190E1
:1034700060680290E0680490A06803902846704756
:1034800000F0A0BB01F0A4BBDFF88C0190F8F410B1
:10349000012901D1012070470020704701F0FFBBD6
:1034A00001F04FBB062902D311F1010F01D101F048
:1034B00005BC704708B400B501AB01F09CFF5DF896
:1034C00008FB01F098BF000030BF7047FCE738B53B
:1034D00002F0FAFF02F067FE02F03AF9044604F047
:1034E0000C000C2802D1AFF3008037E060071DD438
:1034F00000F0C4FE05460121012002F033F90A2143
:103500006943884212D2DFF85841183D656104F1E1
:103510000C0000F0ADFFAFF30080012002F0CEFA06
:10352000AFF30080002084F820001BE0AFF30080A0
:10353000200713D4DFF82C0102F0E7FF0428F9D0AC
:10354000E10600D408B9012000E0002002F0FAFDF5
:10355000DFF8140101210160006801E0FFF7B6FF08
:10356000AFF30080BDE8314002F0B2BFDFF8A80041
:1035700090F8AC10012280F8AC20DFF8182111601F
:1035800090F81411012380F814315160704710B580
:10359000DFF80041606801F0D4FA206801F0EABA6F
:1035A000DFF8F410C20744BF01230B60820744BF59
:1035B0004FF480730B60400744BF4FF480320A60C1
:1035C00070470021DFF8D020C30744BF116801F025
:1035D0000101830744BF116801F48071400744BFB3
:1035E000116801F48031080018BF0120C0B2704793
:1035F00010B5DFF8A820C30748BF1160840748BF93
:103600005160400748BF916010BDBDE87040FFF7B2
:1036100027BE0000F0150020E80A0020DC31002061
:103620008C0C0020584000006846DFF888102422E7
:1036300002F0ECBE10B5DFF8701091F8AC0001227A
:1036400081F8AC20DFF894100C680CB122680A6095
:1036500001F0D7FB1CB12046BDE8104006E010BDCC
:10366000B00D0020004003402C20094010B5044656
:1036700004F1100001F0C1F9E06818B104F10C0088
:1036800001F048FE214650220020BDE8104001F024
:1036900076BE000070300020042009401820094048
:1036A000204601F0AEBB0000E80A002001604FF0A8
:1036B000FF3002BD54A50200DFF8FC040178FDE7ED
:1036C000DFF8F80490F8F40070470146DFF8EC24C6
:1036D00092F8F40082F8F41070470000783000206F
:1036E000DFF8DC14D1E90023C0E900237047DFF8DC
:1036F000CC04D0F8FC100847DFF8C014D1F8002142
:103700001047DFF8B80490F81411012280F8142152
:1037100090F8AC1080F8AC200320D6E710B5044632
:103720000320FFF7D2FF204601F047BE80B5DFF847
:1037300088040178012901D0FFF7BEFFDFF8980463
:1037400001F028FEFFF786FD002001F0FAF9BDE840
:10375000014001F027BB38B5DFF8604404F184056F
:10376000287F68B901212977FFF770FDE16F28688C
:10377000C90800EBC1010839A1674FF0FF31A1660C
:1037800031BDF8B50446DFF83464D6F89C000D4628
:10379000DFF85C7450F82510B9420DD106F5D270EF
:1037A00000902946204600F00BF840B1D6F89C0066
:1037B00050F82510B94201D10020F2BD2046F2BDDB
:1037C0001CB504460BB9DFF88834049800902046F5
:1037D00000F00AF8010003D0204600F06EF8002443
:1037E000204616BD002168E0F8B5174605461E467E
:1037F000069CDFF800243F2903DB002300930B46DF
:103800000EE0E981DFF8B403D0F89C3053F82100D2
:10381000DFF8DC33984209D0002300930B466C326A
:103820000021204601F082FD0120F2BD084600F093
:103830009DF86F6070682860306910F1010F08BF53
:10384000FF202873307A002100B10121307D08B1BA
:1038500041F00201A9602146284600F003F800B1BA
:10386000801CF2BD38B50446B4F90E00217A054635
:103870008A0702D5217B202907D2616800F0B8F8B9
:10388000B4F90E004042E0810AE0DFF83013D1F8CD
:103890008C00DFF8441440F82540284600F0A8F8D2
:1038A000217B284600F0D4F8207AC10744BF28467F
:1038B00000F07CF80020A06032BD012900D17047E3
:1038C00010B5B0F90E40002C48BF6442204600F00D
:1038D0004DF8DFF81C13204600F08AF8DFF8DC1200
:1038E000D1F88C20002042F8240010BD70B5FFF7FD
:1038F000ADFCDFF8E833DFF8E8031B1ADFF8E41368
:103900008B60DFF8E433C868DFF8E0230A601860F2
:103910001D68DFF8DC430246A5420FD0002554F8AD
:10392000256040F825606D1C0F2DF8DB0F20DFF8B7
:10393000C04242F82040401C3F28FADB5C68DFF8B8
:10394000B40324F47F4404195C600A6220229A764E
:103950004FF40070D860DFF84C04026822F0404257
:1039600002600868BDE8704002F032BE0F2813D92B
:10397000A0F110014909A0F11002DFF8240450F869
:103980002100012302F01F0203FA02F2DFF81834CB
:10399000104043F82120704706D1DFF8181408685A
:1039A0000A6822F002021FE0002070470F2811D998
:1039B000A0F11002012302F01F02A0F1100103FA8E
:1039C00002F24909DFF8D83353F8210043F82120E7
:1039D0001040704706D1DFF8DC1308680A6842F02F
:1039E000020201E00020704700F002000A60704708
:1039F000DFF8C821D2F8883003EB800002688A42E1
:103A000018BF0160704710B5DFF8B041A06F02F039
:103A1000B1FD0021A16610BD024670B5DFF8C402F9
:103A2000836853600468946025462878BE2803D0D4
:103A300001200023136070BD00200029F9D015F883
:103A4000016FBE2EFBD064422919491E5B1AF1E7B3
:103A5000102805D3DFF86023104400F8101C7047CD
:103A6000042804D3DFF8E423104400F8041C704752
:103A70000000102803D31038DFF8141408607047D2
:103A800010B50122DFF80C3483F86C200FF20D041E
:103A900014B1BDE8104001E010BD000018B50446A7
:103AA000DFF8F413486801229FB00A7008B901AA30
:103AB0004A60204600F014F80320FFF706FEDFF806
:103AC000DC030368A06BDFF8D82303F0FF030F2BA0
:103AD000009028BF7C3201F004FA20B010BD000035
:103AE000F0B5DFF8D84004F1F405226F2E780146D6
:103AF000002316700E6A002016614F6A57618E6AA5
:103B00009661CF6AD7610E6816624F6857628E68F9
:103B10009662CF68D7620E6916634F6957638E69E4
:103B20009663CF69D7630E6B01F140075764166443
:103B30004E6B96648F6B04F18406D764C96B116574
:103B40001778032F14D8DFE807F009070210B06BCD
:103B50005060C36A806A0BE0E86A06E0B06801F072
:103B6000FF0150F82110516000E05060E36F3068B1
:103B7000D0609360616F39B1002804E013F8014B05
:103B8000401E01F8014BF9D1DFF810030168DFF89E
:103B900014035165037893654178D16543881366B2
:103BA0004168516683689366C168D166036913678B
:103BB00040695067F0BD0000F0150020E80A0020C1
:103BC000C80B0020DFF8CC1291F81401012281F813
:103BD000142170470000000003370000DFF8B41222
:103BE00091F8AC00012281F8AC2070470000000081
:103BF000592F0200C46102002DE9F04100F042FE9D
:103C0000DFF8907297F8AC50012087F8AC0097F875
:103C1000146187F814010020FFF757FD8046D7F89C
:103C20008C00DFF878120A6802F0FF0250F8227068
:103C3000BC60FFF70FFB386879688847FFF706FB21
:103C40004046FFF742FD06EB0520BDE8F08100008D
:103C50005840000000F0FF0000F08FBF000A01F0A4
:103C6000EBB8F8B5002101A8FFF7D6FE0398009045
:103C700004E0BE2101700099491C0091009868453C
:103C8000F7D305B000BD70B5049C8908059D069E5C
:103C9000491E40F82140491E40F82130491E40F895
:103CA0002120491E40F82160491E40F82150491E3C
:103CB000DFF8082840F82120491E4FF0FF3240F875
:103CC000212000F019F800F017F8491E40F82100F3
:103CD00000EB810070BD0000512E020000000420A6
:103CE00000F80320640B002008ED00E000F803203A
:103CF000000000000000FA05491E40F82120491E7E
:103D000040F82120491E40F82120491E40F821207A
:103D1000491E40F82120491E40F82120491E40F844
:103D20002120491E40F82120491E40F82120491E2B
:103D300040F82120491E40F82120491E40F821204A
:103D400070477FB504460D46A16A164619B1E06A70
:103D5000BE2202F055FCE16B33460291A06B009548
:103D60000190A16A626BE06A091FFFF78CFF04B043
:103D700070BD10B588B001A80FF2C0211C2202F05E
:103D800045FB0A24002103948DF81010009101AB2B
:103D9000DFF8C827DFF8C80700F0DBF808B010BD6F
:103DA00000E100E034EF00E080E100E00146DFF8F0
:103DB000B007B2E010E000E000E400E020B5024609
:103DC000D2E91023002047F6906102F02FFC012574
:103DD000A94228BF4FF0FF3020BD38B50C4602F095
:103DE00073FB050018BF0125DFF8B4080068811DCA
:103DF000201AB0F1004F05D8081BB0F1004F38BFB2
:103E00008C4200D20C4621460120FFF7F1FBEDB2B7
:103E10000DB9FFF7A7BB31BD2DE9F84C0C4605469F
:103E2000D5E910ABD5E91267AAFB04010BFB04111D
:103E3000361828464F41340C44EA07410022FFF768
:103E4000CCFFC5E91467BDE8F18C000018ED00E077
:103E500070B500F017FD64690546B4F5802F34BFD6
:103E60000424240CDFF82069F069041900F052F8EA
:103E700021460120FFF7BCFB2321002002F0EEFCCD
:103E8000306840F0010030602846FFF7BEBB0000FC
:103E900000EF00E0E80A0020540B002004ED00E0F1
:103EA000205E020028ED00E010B5044600F032F874
:103EB000A069E169BDE81040084738B505460FF232
:103EC0004C00046844B10220FFF77BFB20B10220C4
:103ED000FFF766FB0120A0470FF23400046844B1ED
:103EE0000420FFF76EFB20B10420FFF759FB0220EE
:103EF000A0470120FFF765FB30B100F00BF8A8697F
:103F0000E969BDE83440084731BD00000000000009
:103F1000000000000120FFF743BBF8B504460D4642
:103F200001F044FBD4E9106732463B4602F07EFBC9
:103F30003DB1A6FB002306FB013307FB0033C4E9B8
:103F40001223F2BD80B5FFF781F9FFF789F9002050
:103F500002BD2DE9F84187B005460F4690461C4644
:103F6000FFF774F9DFF8E067B16811B1FFF778F98E
:103F700030E0B560FFF774F90CB90FF2C004EF60E0
:103F8000C5F81C8060684FF480316962A861002028
:103F9000286200220023C5E91223217BA0680129A1
:103FA0000CD16861A0680021C5E9100122780021C8
:103FB0006869022A0CBF024600220DE0014600207B
:103FC000DFF8C82702F032FB012268619142EBD38F
:103FD000C5E9100100202CE0C5E91421C5E916014E
:103FE00001A80FF27401182202F010FA029520784D
:103FF000DFF89C170091002801AB0CBFDFF8942775
:10400000DFF89427142105F12800FFF7D9FB0446B7
:104010002846FFF797FF287C10B92846FFF718FFBE
:104020002CB12946304600F0DEFB284601E0002096
:10403000B06008B0BDE8F0810000000000000000A2
:1040400000000000E8030000000000000000000085
:104050000000000000000000000000000000000060
:104060000100000000000000E0000000010000006E
:1040700010B504460120A060002121610022E26009
:1040800004F1140000F0C4FB2146DFF8180746E2F3
:10409000F8B50646DFF81007046984B09CB165697D
:1040A000077801210170B068012807D10021B160B3
:1040B0003461F56000F072FB002020E03069A0421E
:1040C00003D100F06BFB012019E0204601F076F8E7
:1040D000002102940391C4F824D02A46694606F1CF
:1040E000140000F03FF830694069A84203DA3069F3
:1040F000294601F00FF800F051FB0020606205B086
:10410000F0BD000070B50546DFF89C26106938B395
:1041100014780123137009BBE96842699142BCBF5E
:10412000E96800F0F7FF686905F11401884202D1DF
:104130000122AA6012E0686905F114020168696150
:104140004A6086682E617069E860FFF77FF805466F
:104150002946304601F062F800F0DBFC00F019BCA3
:1041600070BD000010B50346186800E00068984272
:1041700007D0846864699442F8DABDE8104000F022
:104180002BBB1846BDE8104000F017BB10B5044625
:1041900009B90FF22401FFF76BFF204610BD10B5DF
:1041A000044601F0A1F818B12146BDE81040EDE742
:1041B00010BD0FF2040127E000000000806902F04A
:1041C00064BC806902F063BC806902F062BC8069F3
:1041D00002F064BC02F053BC10B504460020A0619C
:1041E000DFF858162160DFF858266260DFF85406C1
:1041F000A060DFF85426E26004F11001DFF84C06FD
:1042000000F0F1FA204610BD0A6802607047000015
:1042100018B5DFF8984794F8650085B0E8B9012231
:1042200084F865200021204600F0F2FA00F074FCCA
:1042300000F015F80520039004F5D2736A460FF2DA
:10424000DD0104F1100000F04FFDE064FFF791FD87
:10425000DFF80C03FFF7B2FDA06506B010BD68469D
:10426000DFF84C17142202F0D1B838B5FEF7EEFF94
:1042700004460020FFF79AFD05460FE038B5FEF72B
:10428000E5FF04460020FFF791FD0546DFF81C0717
:10429000416D806D4D1BA84238BF00252046FEF7BA
:1042A000DFFF284632BD38B504460D462146DFF80B
:1042B000B002FFF7B1FDDFF8F4060465456531BDD6
:1042C0002DE9F8430446DFF8E40607680D464FF091
:1042D000FF39D7F804801BE03E463F68307D012857
:1042E00016D1012C04BFF168A94209D13069002818
:1042F0001DBF4118F16030623075F069B1698847BF
:10430000307D012804D1F068401B484598BF8146A4
:104310004745E1D14846BDE8F28300002DE9F84366
:10432000FEF794FF80460120FFF740FDDFF87C5642
:1043300005F15C0601213170002272706F6DAA6870
:10434000A968C41BBA1A401A904202D200203070E9
:104350002BE000F06BF94FF0000907E04F443946BD
:104360000120A4EB0904FFF7ABFF81464C45F5D2D1
:10437000FEF76CFF80467078012804D13946002092
:10438000FFF79EFF8146A86D19F1010F05D0A86DBA
:10439000A9EB0404A04288BF2046C119FFF783FFA0
:1043A00001200021B0703170AF604046BDE8F2439B
:1043B000FEF756BFDFF8F405C06C00F045BC38B519
:1043C00004461D46A2606868A16100222061A868B9
:1043D0002146E0612275DFF8D40500F004FA287860
:1043E00018B12046BDE8324042E031BD38B572E137
:1043F0008260002281610261C36100210175704702
:104400000146DFF8A80500F0D8B900F0FAB970B598
:104410000446A068DFF8946506F15C052062A9787F
:10442000012904BF2878002816D10120FFF7BEFC1F
:10443000B1680246736DB068511A1B1A8B420BD3D8
:10444000A06801238118E1602375746DA21A90425F
:104450000DD2BDE8704026E7FFF707FFA1680818F6
:10446000E060012020752978012908BF687070BDBF
:1044700038B500F007FA05462046FFF7C8FF31E1DE
:10448000BBE704460D461646FEF7E0BE70B500F0E9
:10449000F9F90646207D0025012808D1FFF7E5FE41
:1044A0000546E068216A451BA94238BF002500F097
:1044B00074FA284670BD007D704700000973000043
:1044C00000F078BA10B504460BB90FF20C03FFF7F1
:1044D00076FF204610BD0000000000000000000034
:1044E0000000000070B504460D4616460022242147
:1044F00000F0FDFE28B133462A462146BDE8704053
:10450000E0E770BD72E710B504460022A26000210A
:1045100004F10C0000F07CF92146DFF87807BDE8D3
:10452000104060E138B500F0ADF90546207C022866
:1045300004D1204600F065F900F09EF9D2E010B5F4
:10454000836884681A400C408C4208BF0A4312B149
:10455000816891438160104610BD0000B5430000A2
:10456000F81500202DE9F0431C4691B081460D4618
:10457000174614F1010F18BF002C0CD06B462246D1
:10458000DFF8341708A8FFF733FF08A902220391C8
:104590008DF8102004E00020032103908DF8101006
:1045A0000021069507970591DFF8FC6130690290BC
:1045B000FEF74CFE80463A4629464846FFF7BFFFC5
:1045C000050003D000F032F828462BE01CB900F0BB
:1045D0002DF8002026E034780120307002986946DA
:1045E000416209F10C0000F0E8F8029800F0EFFDDC
:1045F000039820B1FFF704FF0398FFF708FF00F0CE
:1046000015F8FFF74DF8FEF721FE0446039818B1A0
:10461000FFF7FBFE0020039000F090F99DF81000DA
:1046200000B1059811B0BDE8F08300004046FEF7E8
:1046300017BEF8B505460E46FEF708FE0446A86804
:104640000643AE60E96805F10C00814202D12046C4
:1046500000F05BBADFF8540390F8AC6000F01CF88F
:10466000EF68FA692846B969FFF769FF786160B1B8
:10467000384600F0C6F801203874F86808B1002107
:104680000175B868214600F0C9FD00F005FB304611
:10469000BDE8F24000F0B5BB012180F8AC107047D6
:1046A0003020094010B5044609B90FF20C01FFF79C
:1046B0002AFF204610BD00000000000010B504468F
:1046C0000B460022142100F012FE18B12146BDE86D
:1046D0001040E7E710BD0446FEF7B8FD054620464A
:1046E00000F08FF82846BDE83240FEF7B9BD2168DA
:1046F0001422002000F043FE0020206010BD78B599
:10470000DFF89046207889B0E0B901252570FEF7E2
:104710008BFF4FF44072059204F160010FF22C02FE
:1047200000260491009203968DF8205000236A46DB
:104730000FF23901201D00F0A8FD201DDFF86C12DA
:10474000C1F8D8000AB070BD980C002074692E73AF
:10475000797362696F732E6B6E6C2E5461736B2E5E
:1047600049646C655461736B0000000080B500F013
:1047700001F8FCE710B5DFF8BC46206880476068A8
:10478000BDE81040004700001420094040420F00DF
:104790008C0C0020A93E0000BB3E0000384600F013
:1047A00030BB0000A40C0020940B00200168814263
:1047B00001D101207047002070470EE038B500F0AD
:1047C00061F82568296821602A685460FFF767BD91
:1047D000406000607047000000BF426808604A60A7
:1047E00011604160704738B500F007F82C606168CF
:1047F000696062681560656075E704460D46FEF7FE
:1048000025BD0168426811604168006841607047D9
:10481000DEE710B50446107820746182002104F1AF
:104820001400FFF7F5FF0021A1600120E0602146A0
:10483000DFF8D808BDE81040D5E70000BD41000012
:10484000C3410000CF410000C9410000AC0C002072
:1048500000BF00F11401816100F114024261704750
:1048600038B500F00FF80546207C022803D100F08F
:10487000CEF800F001F835E700202074A068294642
:1048800000F0CCBC0446FEF7E1BC70B50C468EB01F
:10489000054614F1010F18BF002C0AD06B462246C2
:1048A000DFF86C1805A8FFF7A3FD05A90391022204
:1048B00002E00021039103228DF81020FEF7C6FCD0
:1048C0000646688A002831D11CB900F066F800203D
:1048D00032E0DFF8E40804780121017000690290F9
:1048E000C0F824D000F073FC694605F11400FFF70E
:1048F00064FF9DF81000022805D10398FFF780FDA2
:104900000398FFF784FD00F048F8FEF7C9FEFEF7B4
:104910009DFC0446039818B1FFF777FD0020039033
:1049200000F00CF89DF8100030B104E0688A411ED8
:10493000698200F032F801200EB070BD02990020AB
:1049400048622046FEF78CBC70B50546174890F8C3
:10495000AC4000F025F80646686905F1140188426C
:1049600007D1287CC1074EBF0120688A401C68829D
:104970000DE06A6910686861416001201074D068B8
:1049800008B1002101759068314600F047FC00F045
:1049900004F82046BDE8704033E23046FEF760BCC4
:1049A000012180F8AC10FEF751BC0000E80A00209D
:1049B000004D000000210022002380E80E00704717
:1049C00010B504460AB90FF20C02FFF722FF204689
:1049D00010BD00000000000000000000000000000A
:1049E00038B504460D46134600F07FFC20B12A4638
:1049F0002146BDE83840E3E732BD38B50446FFF74D
:104A000027FFFEF723FC054600F001F86AE6204682
:104A1000F7E610B504462068FFF7EFFF21681C2277
:104A200067E60000B0FA80F0C0F11F0070472DE982
:104A3000F843044604F12800C168DFF84058EF68E5
:104A4000D5F810802961EC608168AE680023A96008
:104A500042680021017082602B700120FEF735FE54
:104A60008146FEF7F7FBE169A06962699047FEF7AE
:104A7000EDFB4846FEF729FE01202870C5F810809E
:104A8000EF60AE60BDE8F18338B5DFF81C48206800
:104A9000E568FFF7C7FF216901EBC00100F091F85D
:104AA00003D12168426A91432160FFF7C0FF20686B
:104AB00030B1FFF7B7FF216901EBC0018D42EDD3A3
:104AC00031BDF8B5DFF8E46706F58A742769FEF7AB
:104AD000BDFB05466068FFF7A5FF616901EBC000FB
:104AE00087420FD296F8AC70012086F8AC00DFF850
:104AF000C00701F02DFD0020207000F00AF83846B4
:104B0000FFF7C6BD002020702846BDE8F240FEF742
:104B1000A7BB2846FEF7A4BB38B5DFF80C48207ABF
:104B200038B901212172002500F036F96D1C062DDF
:104B3000FAD331BD481E8041C00F7047FFF742B81D
:104B40000000002800D0704710B5FEF77FFBDFF8AB
:104B50005C4704F58A72516821B1FEF781FBFFF7CB
:104B6000B0FF02E01170FEF77BFB94F8AC0001216E
:104B700084F8AC10BDE8104043E1002800D0704735
:104B800038B5DFF8F8466068C0B1FEF763FBFEF7A2
:104B90005DFB25696068FFF745FF616901EBC001B6
:104BA0008D420BD200F00DF803D16168426A914347
:104BB0006160FFF73CFF60680028ECD100202070A6
:104BC00031BD086802680A6051600A688A4270470D
:104BD000DFF8D806D0F81C01704710B50446DFF89E
:104BE000683700F081F8606900B90024204610BDE4
:104BF00038B54060006013684161036151688161AC
:104C00009368C361D16811F1010F08BF05210162EA
:104C1000012303FA01F1416200F1280100240C7024
:104C200013698B6012694A60DFF88026D2F8283158
:104C3000046A03EBC405CD6000F1080102F586703B
:104C4000FFF7D1FD002032BD2DE9F0418046FEF78F
:104C5000FDFA044608F12405287920B12046BDE874
:104C6000F041FEF7FDBA01202871DFF810763E789A
:104C7000387028694146FFF7A0FD7968286801432C
:104C8000796000F009F816B9BDE8F04119E7BDE810
:104C9000F0810000B40C00202046FEF7E1BA38B5E0
:104CA000FFF7ABFD216B0D432563FEF7D9FA2046D4
:104CB000BDE83240C8E700002545000038B50D4684
:104CC000044615F1010F08BF0525FEF7BFFA0121C3
:104CD000A94025626162DFF8D425D2F8281101EBE2
:104CE000C5036363FFF7FFBC10B504460AB90FF2B2
:104CF0001002FFF77DFF00B10024204610BD000028
:104D0000000000000000000000000000050000009E
:104D100000000000214600F032BB70B5DFF8CC4641
:104D20000020207101E000F092FA20680028FAD0FB
:104D30002068FFF777FE6169226901EBC0008242BB
:104D40000DD2E568206106682846E660314600F02D
:104D50008DF806F11C0105F11C0002F0BFFA207964
:104D60000028DDD170BD10B5DFF84C44207A08B1C1
:104D7000FFF7D3FF57E038B5DFF8D447207E38B9C6
:104D800001212176002500F007F86D1C062DFAD3CD
:104D900031BD0000601600202268002102EBC50032
:104DA000FFF736BD38B596B0FEF750FADFF83C464F
:104DB00001E000F04CFA20680028FAD02068FFF7E4
:104DC00031FE616901EBC000206101460D680020E1
:104DD000E56020710220FEF778FC2946002000F0F3
:104DE00045F8FEF737FAFEF731FAFEF70CFEE068F9
:104DF00000F11C0107A802F071FA17B030BDFEF7F0
:104E0000EDBE002800D0704710B5FEF71FFADFF89E
:104E10009C0400F1AC04217A012902BF90F814012E
:104E20000028FFF77AFF00202070BDE81040FEF751
:104E300011BA0000E00A0020002800D0704710B529
:104E4000DFF8680400F1AC04217A012902BF90F870
:104E500014010028FFF761FF0020207010BD000042
:104E600000BFDFF84804D0F8BC007047BCB50400B0
:104E70000F4635D0E06ADFF8DC560178BE2905D050
:104E80000022009223462A4600F02BF8F86A0178A7
:104E9000BE2907D0002000903B4605F160020021AA
:104EA00000F044FAE06A01A9814222BFA26A801898
:104EB000884207D20091234605F1C002002100205C
:104EC00000F034FAF869FA6A904222BFBB6AD2183D
:104ED000824205D200903B4605F5947200F001F83D
:104EE000B3BD0021002021E290F84800012800D045
:104EF000704710B5FEF7AAF90446DFF8B013D1F8F1
:104F0000B800401EC1F8B80004D1FFF7C5FE00206C
:104F1000FEF7F2FB2046BDE81040FEF7A1B970B5E0
:104F2000DFF83406046900F0A1F80646204600F0D8
:104F30004EF9032084F820002046FFF7D5FFFFF745
:104F40002CFD64602460FFE72846BDE8704058E708
:104F5000F8B50446174638680E461D462061F968C4
:104F60006161B869002803BFDFF8F00501682163BB
:104F70002063796909B94FF40071386948B3C21DDB
:104F8000D208D200891A4118C908C9004FF0FF3071
:104F9000E262A162206366637868DFF81063A06351
:104FA000B968E163F869206497F8201004F14800BB
:104FB0000170012904D1D6F8B810491CC6F8B81000
:104FC0000022C2602946204600F018F870B1801C0B
:104FD000F2BDC91DC908206BC900A162082200F0FA
:104FE000B5F9E0620028D6D10120F2BD04F1080134
:104FF00006F1A400FFF7F7FB0020F2BD70B50B46E9
:105000000446DFF85C25DFF85C15FEF79AFEE061E8
:1050100008B9012070BD012084F8200000216162E0
:105020006069DFF88812002808D5002201F1D0005D
:10503000A261E0642146FFF7D6FB15E0606901221A
:105040008240A26101F1AC008169626901EBC20397
:10505000E36400F00BF80646204600F0D5F8FFF7B1
:105060009CFC2846FFF7CDFE002070BD057801218D
:105070000170FEF7EBB8F8B50446002941D1DFF81E
:10508000D8743D7801203870FEF7E0F8064694F8B1
:10509000200001280FD1FFF7BAFCE06C01688142C3
:1050A00003D17A68A06982437A60606A80B1C0687F
:1050B00008B1FFF7AAF994F82000022808D1606A25
:1050C00068B1FFF79EFB606AC06808B1FFF79DF901
:1050D00094F82000032802D1FFF799FC02E0204653
:1050E000FFF702FFFFF759FC2846FFF78AFE206B07
:1050F00010F1010F04D0A26AE16ABDE8F8403EE178
:10510000F1BD0129F3D1F1BD00000000BC0C00206D
:10511000614800002DE9F84FDFF890B105460BF12A
:10512000AC0494F8008001200E462070FEF78EF843
:10513000D5F814A08146B24536D0002E03D50027FD
:105140000BF1D00B04E0A0690127B74000EBC60BC0
:1051500095F8200001281CD12846FFF752FBE86C87
:105160000168814203D16268A86982436260206954
:10517000A84207D1C4F814B0DBF800002946FFF7B5
:105180002BFB03E029465846FFF717FB60683843BE
:1051900060606E61AF61C5F84CB0002E44BF002066
:1051A0006061012121724846FEF75AF84046FFF738
:1051B00028FE5046BDE8F28F940B002038B5FFF76B
:1051C00061FB0546204600F002F8FFF78BBA2DE997
:1051D000F0410446D4F84C80DFF810522E68A769DD
:1051E000FFF70FFBD8F80010414504BFBE432E6007
:1051F000E868A04204BF00212961022084F8200051
:1052000001212971BDE8F08138B5FFF73BFB054668
:105210002946204600F002F8FFF764BA2DE9F04174
:10522000DFF8C861044688463768E06CA569214606
:10523000FFF7C3FA2F433760012184F820100120C3
:105240003071FFF7F3F9BDE8F041FDF7FFBF80B51E
:10525000DFF8140320B9FDF7FDFFFFF78BFA09E033
:10526000FDF7F8FF002001E00098401C0090009836
:105270000028F9D0BDE80140FDF7E8BFFC0B002095
:10528000DFF8E812242201F0C1B810B504460AB9CB
:10529000DFF8D822FFF75CFE010003D02046FFF7BD
:1052A000EAFE0024204610BD000C0020E80A002081
:1052B000894A0000F8B500F011F8582100F017F8FD
:1052C000040009D03B4632462946FFF7DEFF18B9F5
:1052D0005822FFF71FFD00242046F2BD05460E466A
:1052E00017463B46002270470B4600221C21002037
:1052F0002CE038B5FFF7C6FA00F007F8FFF709FC15
:1053000020460021BDE83440B5E6054604F108001A
:10531000FFF777BA10B504462068FFF7EAFF216867
:105320005822FFF7E6B90000100C0020064983B0B0
:10533000884201D103B0704700B968460399026002
:1053400043608160FEE700008C0C0020F8B504008B
:105350000E461F4604BFDFF81802046802B908228F
:1053600025682046A847050007D100962346DFF8A8
:10537000042200213846FFF7D9FF2846F2BD08B9BC
:105380007B480068436818477B49087A08B90122BE
:105390000A72704738B5FFF775FA77494A680125F0
:1053A000082A05DA0B6843F82240521C4A6000E0E4
:1053B0000025FEF774BF10B5044600F006F820463D
:1053C000BDE8104000E00000FEE770B5FFF75AFAB4
:1053D000694D6E6807E02968204601EB860252F8A5
:1053E000043C761E9847012EF5DA70BD980B00201C
:1053F00001F0A0FF0EBD0EB50023009302ABF7E74E
:10540000F0B500240025002B44BF5B42002902D5E3
:105410004942521E2D25B1FBF3F60FF27417641C9E
:1054200003FB1611795C00F8011D31460029F2D109
:105430009442BEBF302100F8011D641CF8DB290036
:1054400018BF00F8015DF0BD1368022B07D35B1E87
:10545000136002681AB1117001684A1C026070473B
:105460002DE9F04117462DED028B82B00A683D68A8
:105470001E4612F8010B0A6066285DD1307E0128B5
:1054800008D155F8041B0091084602F0F5F841ECEC
:10549000180B06E0E81D20F0070000F1080590ED6C
:1054A000008B51EC180B0022002302F009F908D2FE
:1054B00081F0004141EC180B30690124401E30613D
:1054C00000E0002451EC180B2C4A2D4B02F012F98D
:1054D00004D80FF2D000F06107212BE002F024F98C
:1054E000804602F047F902460B4651EC180B02F0D9
:1054F00011FA0022234B02F087FA02F061FB014609
:1055000070690A230422FFF77BFF2E2100F8011C9B
:105510007269401E3169121AF2608A1AF0610A2318
:105520004146FFF76DFF14B12D2100F8011D71698F
:10553000F061091AF16003E0F16908700120F06080
:105540003D6002B00020BDEC028BBDE8F0810000A0
:10555000AC0B002058040200940B0020D83100202E
:105560001F4F0000674D00007547000054A5020062
:10557000DC310020D88F0200C40C00200100C0FFE5
:10558000FFFFDF410088C340FDF76DBEFDF76DBE34
:1055900030313233343536373839616263646566A9
:1055A00000000000286572726F72290010B5044A6D
:1055B00013685468204614681946A342F8D110BDF8
:1055C000082009405C490A681040C2430A607047DD
:1055D0005A4A11680029FCD10023D3611060D069B8
:1055E0000028FCD0D161506870475548016841F2ED
:1055F0003002012321F0020141F408710160514899
:1056000003210160C26043605021C16001224260F9
:105610004FF4CA61C16042604FF48651C16042607C
:10562000012049490860704770B4054600201C00FD
:105630003AD013F003040AD055F8206016F1010F98
:1056400032D016408E422CD0401C641EF4D19B08F0
:1056500000F02A8055F8204014F1010F24D01440A6
:105660008C421ED0401C55F8204014F1010F1BD075
:1056700014408C4215D0401C55F8204014F1010F05
:1056800012D014408C420CD0401C55F8204014F12C
:10569000010F09D014408C4203D0401C5B1ED9D1AD
:1056A00002E0C0B270BC7047FF2070BC70470000C1
:1056B0001E281DD8DFE800F0101C131C1619161C3C
:1056C0001C1C191C161C1C191C1C1C1C1C1C1C1C26
:1056D0001C1C1C1C1C1C190040F2025209E04FF457
:1056E000817206E04FF2011203E041F2011200E084
:1056F0000022FF2909D14FF6FF30024042F0C002DC
:1057000040F2037040EA02407047080008BF42F0D0
:10571000300205D0C8074CBF42F0100242F0200210
:1057200040F2037040EA0240704708490A6810409E
:10573000C2430A607047000010100440001004408B
:10574000000004605460044000410440081004401C
:10575000DFF8B40780687047DFF8AC17084490F8AA
:105760004A01704702460020022904D1012A06D1CD
:1057700040F2EE207047012A08BF4FF47A7070475C
:10578000DFF8841791F8410120B1D1F870010028A9
:1057900018BF004770472DE9F841DFF86C4704F265
:1057A0003915687A83B0002840F091800121697230
:1057B00004F5B87600F0E7FC3071DFF85077387BFD
:1057C0002872796831604FF0A0467068C0F381405C
:1057D000A8B9386998B1D6F808800A20C046642173
:1057E000C8F3066211FB02F200230FF25571B2FBFF
:1057F000F0F204F19400FDF769FD00F04BFC6846FF
:10580000FDF785FD002001908DF800000022029236
:105810006B460FF2855104F10C00FDF757FD684609
:10582000FDF775FD002001908DF8000002906B4699
:105830000822DFF8DC1604F15000FDF747FD0023D5
:105840000FF2DD42322104F1D800FDF769FDDFF8E7
:10585000C4860020C8F800000023DFF8BC262C21F5
:1058600004F1F400FDF75CFD7168787BC1F38151B0
:1058700020B1032902D10120287004E0032918BFB8
:10588000022900D089B9D8F8000040F04000C8F8DB
:105890000000FDF76CFDA16841F00401A160297BC7
:1058A000491C2973FDF788FD03E0012908BF00F0BA
:1058B00000FC306840070AD4FDF759FDA16841F0AB
:1058C0000101A160A97A491CA972FDF775FD0020AC
:1058D00004B0BDE8F08138B5002408B1150002D14C
:1058E0006FF0020407E08160C26003610146DFF8E7
:1058F000180600F05BFB204632BD10B50446FDF7EC
:1059000036FDDFF804160A1992F843315B1E82F85F
:105910004331DBB233B98A68012303FA04F422EA83
:1059200004048C606AE070B50546FDF720FD04466E
:10593000DFF8D415481990F84A21521E80F84A2100
:10594000D2B29ABBDFF8D40500EB85025688B6F5D3
:10595000806F1CBF40F20142964206D040F20243E3
:105960009E4218BFB6F5816F03D1304600F0F7FBB9
:105970001CE010F8255028061DD5304602F06AF9C3
:10598000304602F07AF9304602F08BF90120DFF858
:1059900090150860DFF88C0501688907FCD505F0D3
:1059A0003F051A2DBCBF2846FFF7BDFF2046FDF777
:1059B00003FD002070BD680606D501EB8601D1F815
:1059C000642100209047EAE7304602F029F930468A
:1059D00002F06AF90228FAD1E1E710B50446FDF7B2
:1059E000C6FCDFF824158A680123A3401A438A60A5
:1059F000214491F84321521C81F84321FDF7DCFC3E
:105A0000002010BD2DE9F0410646FDF7B0FC04462C
:105A1000DFF8F454A81990F84A114A1C80F84A217A
:105A2000E9B9DFF8F88418F8260000F03F001A28DA
:105A3000B8BFFFF7E7FF08EB86004788B7F5806F30
:105A40001CBF40F20140874206D040F202418F4223
:105A500018BFB7F5816F08D1384600F075FB2046B6
:105A6000FDF7AAFC0020BDE8F08118F82600010629
:105A700012D5384602F0EBF8384602F0EEF8384618
:105A800002F00CF90120DFF898140860DFF89404A4
:105A900001688907FCD5E2E7400606D505EB8701DA
:105AA000D1F8642101209047D9E7384602F0A2F8E6
:105AB000384602F016F90128FAD1D0E72DE9F84F5F
:105AC00000250026AB46012818BF6FF0010840F002
:105AD000CC80DFF8349409F59A74206801282CD121
