:10000000008000203D9F0200C5330200C53302007E
:10001000C5330200C5330200C5330200C5330200F8
:10002000C5330200C5330200C5330200C5330200E8
:10003000C5330200C533020091330200DFF8041813
:1000400091F833000022030603D458204243881855
:10005000704791F88B0001220306F6D591F8E30072
:1000600002220306F1D591F83B0103220306ECD5E9
:1000700091F8930104220306E7D591F8EB010522DC
:100080000306E2D591F8430206220306DDD591F876
:100090009B0207220306D8D5002070472DE9704344
:1000A000064614461D4603F0DAF86EB1D6E90A2377
:1000B00022432B43C6E90A23D6E9088948EA040407
:1000C00049EA0505C6E90845BDE8704303F0ECB808
:1000D00030B581B004460D4602F074FBA04231BF3A
:1000E000241A641E241A641CA40805F57A70A04220
:1000F00038BFB4F1405F06D2641B012C98BF0124C5
:10010000204601B030BD002001B030BDF0B5DFF8B1
:10011000343704460025D3F85003012981B024D197
:1001200000E00068002852D0C668377B07F00F0750
:10013000022F1AD00068002849D0C668377B07F024
:100140000F07022F11D00068002840D0C668377B07
:1001500007F00F07022F08D00068002837D0C668C4
:10016000377B07F00F07022FDBD180B3012502B1E7
:100170001060C268167B06F00F06022E27D10129F7
:1001800004D10169CA68898D511813E0118840F6BD
:10019000030291421CBF40F60406B14207BF016949
:1001A0004A6901690A69498B561893F82213192282
:1001B00012FB0161406BFFF78BFF20600A20C046F5
:1001C0002168B1FBF0F0206001B02846F0BD0020AE
:1001D000206001B02846F0BDF0B581B0044603F0C0
:1001E0003EF80546002C1CBFA07A002833D0DFF86B
:1001F000583694F909001E680122F70702FA00F147
:100200000ED5DFF848361E68370609D5DFF84036C8
:100210005E68113002FA00F0C04306405E6018606C
:100220000020A072207220606060C4E90400DFF842
:100230001436A06194F9090093F820638240324398
:1002400093F8220383F8202310B1401E83F8220381
:10025000C8B200F062F9284601B0BDE8F04003F0F2
:1002600023B800002DE9F04700261124DFF8E055FF
:10027000DFF8D0954FF00108F0B2032848DA09EB17
:10028000401000F53077B97A012941D197F909007A
:10029000113008FA00F0C14329606A6810436860B1
:1002A00097F9090008FA00FA02F0D9FF99F89413B7
:1002B0004AEA010A89F894A302F0F6FF99F8840348
:1002C000022817D107F1100005F0C0F800F0FF0078
:1002D00001280FD1B86948B199F88413022909D1CE
:1002E00005F0B4F800F0FF00012803D10220B87235
:1002F0000EE000BF99F8210397F9091004FA01F103
:10030000084389F82103002109F5826003F03EF8D3
:10031000761C032EB0D3BDE8F08730B5042881B039
:1003200020D1DFF8204504F58D60007DC046C8B1BE
:100330000A20C046054604F58D6002F05CFF454387
:10034000B5F5967F0ED204F58D6002F05FFF0520B3
:1003500005F0E5FA012084F89103042104F56E709C
:1003600003F014F8002001B030BD70B5044602F06F
:1003700076FFDFF8D064054696F84C0320EA0404C3
:1003800086F84C430024D6F8280320B1B830007D0D
:10039000C04600B10124D6F82C0320B1B830007D4E
:1003A000C046044319D196F84C03002808BF002C1E
:1003B00013D1D6F8480380B190F828108A070CD5DD
:1003C000446A284602F070FFD6F848030022022152
:1003D000A0470020C6F8480370BD2846BDE870401D
:1003E00002F062BFF0B400290CBF01230023002AF1
:1003F0000CBF01250025002839D02C0004BF90F83F
:100400004440002C33D000291CBF91F84440002CFC
:1004100012D0446B0E6C07690969A408A4EB96041A
:100420000026B94218BFFE68A41B04F18054B4F141
:10043000805F88BF012301D8190018D0BAB1D168F4
:100440000C7B04F00F04022C11D1516B046C126967
:1004500000698908A1EB94010024904218BFD46878
:10046000091B01F18051B1F1805F88BF01252B404C
:10047000F0BCD8B27047F0B581B01E466FF00207ED
:100480008DF80070054634682246FFF7ABFF10B1C7
:1004900001208DF800009DF90000B84201BFE96815
:1004A000087B00F00F0002280CD100E024684CB15A
:1004B000226821462846FFF795FF0028F6D0022043
:1004C0008DF800009DF90010B94204D1E86B10B11D
:1004D00004218DF800109DF90070012F06D12946E6
:1004E000304605F019FD384601B0F0BD022F09D1A4
:1004F0002268002A2946304608D005F0EAFC384632
:1005000001B0F0BD042F03D12946304605F0F4FCBC
:10051000384601B0F0BD0020704730B581B00446C8
:1005200002F09DFE0546C74890F8941321EA0404A2
:1005300080F8944390F89423110704D4082100F51F
:100540006E7002F023FF284601B0BDE8304002F093
:10055000ABBE2DE9F04F064681B00020306000248C
:10056000DFF8E092D9F8500318B3C1680A7B012480
:1005700002F00F02022A1CD10A88192140F6030357
:100580009A421CBF40F60405AA4219BF02691369CA
:1005900002695369528B406B9A1899F8223311FB08
:1005A0000321FFF795FD05460A20C046B5FBF0F88C
:1005B00001E04FF0000800254FF0FF3A0027F8B2A5
:1005C00003281EDA09EB401101F53072907AC0B1B0
:1005D000107A0125022825D0D9F898030169408BAB
:1005E00099F822330918192010FB03115069FFF7FD
:1005F0006FFD83460A20C046BBFBF0F0504598BF14
:1006000082467F1C032FDAD3E3B230682B420CD032
:10061000D0450BD9D046404630602C43E0B201B003
:10062000BDE8F08F4FF0000AEEE734B1404630608D
:100630002C43E0B201B0BDE8F08F05B15046306008
:100640002C43E0B201B0BDE8F08F2DE9F04FDFF8A8
:10065000F4A181B09AF88413022905D101B0BDE854
:10066000F04F192002F00EBE9AF8840301281CBF37
:100670009AF88403042800F0878002F0F0FD0090CF
:100680000024DAF85003002518B3C1680A7B01255D
:1006900002F00F02022A1CD10A88192140F6030336
:1006A0009A421CBF40F60406B24219BF02691369A0
:1006B00002695369528B406B9A189AF8223311FBE6
:1006C0000321FFF705FD06460A20C046B6FBF0F8F9
:1006D00000E0A04600264FF0FF390027F8B20328BB
:1006E0001EDA0AEB401101F53072907AC0B1107A2F
:1006F000012602281DD0DAF898030169408B9AF888
:1007000022330918192010FB03115069FFF7E0FC90
:1007100083460A20C046BBFBF0F0484598BF81469F
:100720007F1C022FDAD9354205D044464C4507D903
:1007300005E0A146F7E70DB1444601E006B14C469D
:10074000354317D064B12146012998BF01210AF52C
:100750008D6002F057FD0AF58D6002F055FD0DE049
:100760000AF58D6002F052FD04210AF56E7002F068
:100770000DFE03E00AF58D6002F048FD009801B01F
:10078000BDE8F04F02F090BD01B0BDE8F08F30B58C
:1007900085B001460022039201920492029240F633
:1007A00002058C68487E628023885B1B09D041F279
:1007B0001E055B1B05D041F6E6755B1B012B0FD9AF
:1007C0001CE0238A4FF6FF3213402382002819BF12
:1007D0004FF60F4003402D2060F3091323820DE0F4
:1007E000238B4FF6FF3213402383002819BF4FF6A7
:1007F0000F4003402D2060F3091323830020487627
:1008000002AD009504AB01AA03A9204601F093FDB7
:1008100050B1039801884FF6FF72914204D10299BA
:10082000019801F0FAFC03E00299019801F03BFD08
:100830000448D0F8AC1309B10198884705B030BD21
:100840000000000070190020402108400000044012
:10085000081004402DE9F04784B00026DFF83889FD
:100860000396D8F850530296002D6AD0D8F8640346
:10087000002804BFD8F86003002841D1012686F083
:10088000010703AAF9B202A8FFF740FC04005AD1FD
:10089000DFF80809D0F80490B9F1000F18BF002C58
:1008A00000F082820298002840F07E82D8F864131B
:1008B00003980190009708F55673D8F8600308F57F
:1008C0005472C847012800F07A81022840F06C82F7
:1008D000D8F86003D8F86013B0F930400D6902F021
:1008E000BEFC4FF0FF318C4282464CD1D8F86003F9
:1008F00000283CD00069A84239D1D8F8606390E064
:10090000D8F860030028BAD0D8F8600301692869D4
:100910008142B4D195F83310CA06B0D5D8F8640333
:100920000028ACD15FF00106D8F86003C1684888A0
:100930000028F9D0D8F86003C16848880128F3D0AE
:100940009DE70221BCE2002EA2D1029800289FD090
:100950000146022938BF012108F58D6002F052FCE2
:1009600008F58D6002F050FC04B0BDE8F087D8F8BF
:10097000640328B10069A84208BFD8F8646350D066
:10098000D8F850634DE0B8F930000021A04204BF10
:10099000D8F81000A8423FD0B8F988000121A04241
:1009A00004BFD8F86820AA4236D0B8F9E000022186
:1009B000A04204BFD8F8C000A8422DD0B8F9380131
:1009C0000321A04204BFD8F81821AA4224D0B8F9C4
:1009D00090010421A04204BFD8F87001A8421BD0A6
:1009E000B8F9E8010521A04204BFD8F8C821AA42FD
:1009F00012D0B8F940020621A04204BFD8F8200264
:100A0000A84209D0B8F998020721A04204BFD8F83B
:100A10007822AA4240F0D180582010FB01F108EB67
:100A20000106002E00F0C98096F83300010640F15F
:100A3000C480D8F8600386421CBFD8F864138E4285
:100A400057D0D8F8504312E02468002C00F0B5804D
:100A5000B44211D02468002C00F0AF80B4420BD017
:100A60002468002C00F0A980B44205D02468002C32
:100A700000F0A380B442E7D12768009535460026F0
:100A800000E027682069009988421FD100224FF0BA
:100A900080532046FFF702FB00224FF08073204670
:100AA000FFF7FCFA98F84C132869C8F8480341F09E
:100AB000010188F84C1308F55470214605F03FFAFF
:100AC000214608F5567005F017FA761C3C00D8D17F
:100AD000002E1FBF98F88403012898F88403042887
:100AE0006BD0DFF8FC1808F56E7002F04FFC504632
:100AF00086E1D8F8600300224FF00053FFF7CEFAEA
:100B0000D8F8640300224FF00053FFF7C7FADFF86C
:100B1000D40804F09BFCD8F8600300224FF08073E7
:100B2000FFF7BCFAD8F8640300224FF08073FFF798
:100B3000B5FA98F84C133069D8F85063C8F84803F0
:100B400041F0010188F84C13344600E02468A4B356
:100B5000B4420BD0246884B3B44207D0246864B391
:100B6000B44203D0246844B3B442EFD12CB3276815
:100B70000CB32069A8421ED100224FF080532046BA
:100B8000FFF78CFA00224FF080732046FFF786FAB9
:100B900098F84C133069C8F8480341F0010188F80F
:100BA0004C1308F55470214605F0C9F9214608F5A3
:100BB000567005F0A1F93C00D9D1504620E10398C8
:100BC00000B10546B5F930402F6902F048FB4FF0FF
:100BD000FF318C42064614D1D8F8600328B1006971
:100BE000B84208BFD8F8604359D0D8F8640328B198
:100BF0000069B84208BFD8F8644350D0D8F85043D1
:100C00004DE0B8F930000021A04204BFD8F8100030
:100C1000B8423FD0B8F988000121A04204BFD8F8FB
:100C20006820BA4236D0B8F9E0000221A04204BFE1
:100C3000D8F8C000B8422DD0B8F938010321A0423D
:100C400004BFD8F81821BA4224D0B8F99001042181
:100C5000A04204BFD8F87001B8421BD0B8F9E8012F
:100C60000521A04204BFD8F8C821BA4212D0B8F971
:100C700040020621A04204BFD8F82002B84209D0A1
:100C8000B8F998020721A04204BFD8F87822BA42E6
:100C900040F08880582010FB01F108EB0104002C83
:100CA00000F0808094F8330001067BD5D8F860030B
:100CB00084421CBFD8F864138C424AD0D8F8500341
:100CC0002546044600E02468002C6BD0AC420ED0D0
:100CD0002468002C66D0AC4209D02468002C61D076
:100CE000AC4204D02468002C5CD0AC42EBD121692A
:100CF000B94257D100224FF080532046FFF7CEF97A
:100D000000224FF080732046FFF7C8F998F84C1383
:100D10002869C8F8480341F0010188F84C1308F528
:100D20005470214605F00BF9214608F5567005F080
:100D3000E3F898F8840301281CBF98F8840304287A
:100D400030D0DFF89C1608F56E7002F01FFB3046BD
:100D500056E0D8F8600300224FF00053FFF79EF9E9
:100D6000D8F8640300224FF00053FFF797F9DFF83B
:100D7000740604F06BFBD8F8600300224FF0807318
:100D8000FFF78CF9D8F8640300224FF08073FFF767
:100D900085F998F84C132069C8F8480341F001011F
:100DA00088F84C1330462BE0002E00F08D80286927
:100DB000D8F89813884218BF4FF4806140F08080C3
:100DC000002C1CBF029800281FD0D8F86003002810
:100DD00004BFD8F86403002817D102F040FA044693
:100DE00098F8940300F0F70088F8940398F89403B7
:100DF000010704D4082108F56E7002F0C7FA2046F6
:100E000002F052FA04B0BDE8F08702F028FA98F830
:100E1000941341F0080188F8941302F045FA95F80C
:100E20003300C10608F5547004D505F040F8C8F841
:100E3000640303E005F03BF8C8F86003D5E9060158
:100E4000DFF88848DFF8046AC043A060E268D5E9AB
:100E500006010243E260D5E90623DB432360D4F8B0
:100E600004C0D5E9060141EA0C0CC4F804C0776857
:100E7000EC683B46180007D0307A010704D5D8F853
:100E800098032A4608219847204604F0DFFA208874
:100E900040F60201401A08D041F21E01401A04D067
:100EA00041F6E671401A012808D83FB1307AC107EF
:100EB00004D5D8F8980322460121B8474FF0804165
:100EC00008F56E7002F062FA04B0BDE8F087F0B584
:100ED000DFF8C462DFF8780981B0D6F8605304F017
:100EE00062FB0446DFF8C8090268076802F02002C6
:100EF00007F46027224018BF002D0CD01346C6F817
:100F0000685300222846FFF7C9F84FF4804106F5E0
:100F10006E7002F03BFA3C400DD096F8210340EA97
:100F2000544486F8214306F5826001B0BDE8F040E4
:100F3000002102F02BBA01B0F0BD2DE9F043DFF83B
:100F4000589281B099F82103002400284CD099F8D8
:100F500021030026C1073DD599F821031021B14096
:100F6000084218BF012402F07AF999F821131122DE
:100F7000B240914389F8211302F096F9032E33DA37
:100F800009EB461101F53072907A68B392F9098045
:100F9000DFF8201901EB8801002C0D6816685768EE
:100FA00004BF107A022803D1D2E90401C30009D496
:100FB0001046FFF711F92CB10020009000224FF0ED
:100FC000007303E0009500224FF000634146304675
:100FD000B84709E099F8210301268107BCD499F8A4
:100FE000210302264107B7D499F8210338B109F546
:100FF000826001B0BDE8F043002102F0C7B901B042
:10100000BDE8F0832DE9F0430FF23C1285B0D2E940
:101010000034CDE900344FF4804004F011FA4FF071
:10102000000800B3DFF89008D0F813100078C1F37F
:101030001501800841EAC071DFF85C01D0F89833EF
:10104000986802AA01F008FADFF84C01DFF8FC17F3
:10105000D0F898034B6882681C0004D00C7AE10732
:1010600044BF012198476E464FF00209376838683F
:10107000002856D03868D0E9060104F0E1F93D684F
:101080000021CDE90201044602F0E9F884467DB171
:10109000D5E90A23DDE9020110431943C5E90A0134
:1010A000D5E90823DDE9020110431943C5E9080128
:1010B000604602F0F9F814F00A0F2BD03868DFF818
:1010C000F017DFF8F8378A68DFF8E447D0E906015F
:1010D00018408243A260224638681368D0E90601AE
:1010E0008B4313603A68DFF864074368190007D040
:1010F000017AC80604D5284CD4F8980310219847E3
:101100003968DFF8BC0704F0F7FE0020386048F0CB
:10111000020806E02CB138681F49C1F8680348F49A
:101120008048361DB9F10109A0D15FEA08011CBF52
:10113000DFF8900702F02AF9FFF794F8FFF78AFB2F
:1011400005B0BDE8F0830000D01C0020D41C0020B6
:1011500030B5114C81B0B4F96C03B4F96E13884208
:1011600017D102F07CF8054694F8940300F0F700DC
:1011700084F8940394F89403010704D4082104F537
:101180006E7002F003F9284601B0BDE8304002F06D
:101190008BB801B030BD000070190020840C002015
:1011A0000720FFF7E2B82DE9F04107468846D7F857
:1011B000A86014461D4606B1B047D7E9280104EAE5
:1011C000000215EA010308BF002A00F08580DFF85D
:1011D000FC16B1F930000026404504BF0869B8424A
:1011E00003D191F8330000065CD4B1F988000126E0
:1011F000404504BF886EB84203D191F88B000006C9
:1012000050D4B1F9E0000226404504BFD1F8C00037
:10121000B84203D191F8E300000643D4B1F9380194
:101220000326404504BFD1F81801B84203D191F814
:101230003B01000636D4B1F990010426404504BFB5
:10124000D1F87001B84203D191F89301000629D476
:10125000B1F9E8010526404504BFD1F8C801B842FC
:1012600003D191F8EB0100061CD4B1F94002062627
:10127000404504BFD1F82002B84203D191F843029F
:1012800000060FD4B1F998020726404504BFD1F8F3
:101290007802B84203D191F89B02000602D4C7E954
:1012A0002C2310E0582010FB06F6C7E92C238819E0
:1012B000D0E9084524EA020225EA0303C0E908232D
:1012C000D7F8A81081600020C7F8A80007F15000E7
:1012D000BDE8F04102F01CB8BDE8F081704700B5F0
:1012E00081B002F047F8DFF8F42B0146D2F89803FA
:1012F000D2F8882301B05DF804EB1047DFF8DC0B6F
:101300000FF2CD52D0F88813914208BFFFF79DB974
:10131000042100F56E7002F039B830B581B04FF09D
:10132000FF3004F08DF8DFF8A4550FF2A551044604
:10133000D5F88803884232D10022DFF8A41B05F5D6
:101340007D7001F0A1FF022085F88403D5F8981381
:101350008A6801F1380300E00246506890B1984273
:101360001EBF0246506800280CD098421EBF02469D
:101370005068002806D098421FBF024650680028D7
:101380009842E9D1507B10F00F0F02BF488F40F612
:101390000901884203D0FEF765FFFFF75BFA1048AA
:1013A000044208D005F56E7001B0BDE830404FF042
:1013B000005101F0EBBF01B030BD00B581B04FF07E
:1013C000FF3004F03DF8800708D501B05DF804EB6C
:1013D0004FF40061DFF8EC0401F0D8BF01B000BDAC
:1013E00002000040010001042DE9F041DFF8EC7A31
:1013F000D7F85863002E00F0AD80F068082140F661
:10140000040240F6030301E04068491E68B1CCB213
:101410005CB104889C4218BF9442F5D1316901F156
:1014200038021AC81AC21AC81AC2D6E90A450022D6
:10143000C6E90A22B068D0B115F0E24310D024F01A
:101440000F0235F0E24308BF002A05D0B6F930108C
:101450003069D6F808C0E04704F0000405F0E24522
:10146000B6F9301030692246B4682B46A04701F027
:10147000F6FE0446B7F86E03401CC0F30B00A7F855
:101480006E036FF00201002086F83300318607F505
:10149000567004F00CFD204601F006FFB7F96E030C
:1014A000B7F96C13884255D1D7F89813D7F8286349
:1014B000D7F82C4300250520A84600291EBF91F827
:1014C000FC1000290720FEF750FF2EB196F8FC0013
:1014D00000B9356886F8FC803CB194F8FC0008B986
:1014E000D4F80080002084F8FC00454538BF45460C
:1014F000E5B9B7F96C03B7F96E1388422AD101F048
:10150000AEFE044697F8940300F0F70087F89403C2
:1015100097F89403010704D4082107F56E7001F0D1
:1015200035FF2046BDE8F04101F0BEBE15F1010FC8
:1015300010D001F05EFEB5FBF0F1012998BF01214A
:1015400007F2AC4001F05EFE07F2AC40BDE8F041AE
:1015500001F05ABEBDE8F081DFF8802992F88413CB
:101560000020022904BFD2F86013002903D1D2F869
:10157000641301B90120704770B5DFF8601C0446A0
:10158000DFF85809D0F89C6308682568026B90471B
:10159000864231BF861B401E861B761C360BAE4230
:1015A0003CBF75196E0840F6C410864288BF0646D7
:1015B00004D8B6F5967F38BF4FF49676266070BD96
:1015C00030B50D46A80781B0C04C12D5FFF70CFF0F
:1015D000D4F8580340B145F0020104F56E7001B033
:1015E000BDE8304001F0D2BE01B0BDE83040FFF7A9
:1015F0002CB8680767D5012184F89613042004F0FD
:101600008EF9DFF8D80B01680A6B9047C4F89C0389
:10161000D4F8500398B10569D4F89803002818BF8E
:10162000A8420AD095F82800410704D56B6A002229
:1016300004212846984701206876C4F89853D4F8C6
:1016400098034168DFF8980B0A780260022004F0E2
:1016500066F9102004F078F9012084F884037B49AE
:10166000887810B90D2004F06FF9D4F89803416818
:101670008868002804BFC868002806D0DFF8640B1B
:10168000DFF8642B0021C16102600720DFF85C1BDA
:1016900008600021DFF84C0B426941618269816179
:1016A000426942F0402242F0020242610FF2210000
:1016B000C4F888031A2001F0D3FD01B0BDE8304022
:1016C000192001F0CDBD01B030BD0000081004406C
:1016D0002DE9F0430446880085B040F1B480DFF87E
:1016E000EC81D8F89803416848688E68CF6801009B
:1016F00018BF80473000DFF8EC5A01D138000ED017
:10170000E8690028FCD00021E961300018BFB0472B
:10171000380018BFB847DFF8D80A03F097FE00205A
:10172000E86140F60A09DFF8CC1A2960A8F870933E
:10173000A8F8720398F87C1301F0F00188F87C1384
:10174000C8F87403204698F87D1301F0F00141F0C9
:10175000010188F87D13FFF71AF8A668374640F6AE
:10176000040140F6030200E00746786828B10388C8
:101770004B451CBF93428B42F6D17B7B08F55C70D6
:10178000786003F0F0037B73D8F8500328B1C06889
:101790000088904218BF88421CD0208FD0B1002111
:1017A0006187E16394F8450094F8441000F0F0007C
:1017B00040F0010084F8450001F0F00184F8441085
:1017C00004F13800C8F8740398F87D1301F0F001B3
:1017D00088F87D136946304603F0EBFE684603F057
:1017E0004EFFE8690028FCD00021C5F81C100FF25C
:1017F000E10298F89103C8F8882330B104F0F9F9B0
:101800000028FBD004F006FA0EE0012004F0E3FB10
:10181000012809D0787B00F0F00040F001007873D7
:101820000FF23100C8F888030021E9612E602648D4
:101830004368190007D0007AC10704D5D8F8980387
:1018400032460121984705B0BDE8F083649F02004D
:1018500020000E00DFF8F42B114200D1704710B5C4
:10186000012004F0B8FB01280DD1DFF870060FF25B
:101870006101C0F888130022DFF86819CA6100F519
:101880005C70086010BD0A20C0463221B1FBF0F147
:10189000012998BF0121DFF8444604F58D6001F06D
:1018A000B1FC04F58D60BDE8104001F0ADBC000056
:1018B0000C1004409430044085030021FDBFFFFF5D
:1018C000C81C0020281D0020649F02007019002001
:1018D0002DE9F047044688465FEA484086B0DFF8C5
:1018E000FC952CD501F0BBFCD9F8686316B3D6E99A
:1018F0000A2302F00A0413F0E04508BF002C19D1B6
:10190000D6E90A45D6E90A23A243AB43C6E90A232E
:1019100001F0CAFCB06878B1002D08BF002C0BD0D4
:10192000B6F9301030692246B4682B46A04728F437
:101930008048C7E201F0B8FC28F48048C2E25FEAC0
:10194000880040F18280DFF8080BD0F88C1041F05D
:101950008001C0F88C1099F8960328B1042003F098
:1019600078FF002089F8960301F079FC05460420F1
:1019700004F031FBD9F8B423014691421DD1207EF9
:1019800000281CBFD9F89C03002816D0D9F86003A2
:1019900070B1C1680A8840F603039A421FBFC0684D
:1019A000018840F60402914208BF04F1140001D0FE
:1019B00004F11000FFF7E0FD05E040F6C4102061DF
:1019C0006061C9F8B413284601F06EFCD9F8981389
:1019D0008A6801F1380300E00246506890B19842ED
:1019E0001EBF0246506800280CD098421EBF024617
:1019F0005068002806D098421FBF02465068002851
:101A00009842E9D1507B10F00F0F02BF488F40F68B
:101A1000090290420FD1256A00224FF000736FF443
:101A200080712046A847D9F8500310B1FEF70DFE8B
:101A300001E048F002082046E46900224FF080638C
:101A40000021A04728F000583CE25FEA887009D5E1
:101A5000FFF7CAFCD9F85803002840F0338228F079
:101A600002082FE25FEA485040F1BD8001F0F7FB29
:101A70000546FFF771FDD9F85043012840F0AD80CD
:101A8000002C00F0AA80042089F884030022DFF8EB
:101A9000C41909F57D7001F0F7FB284601F004FC3C
:101AA00009F2AC4001F0B2FBDFF8300701680A6BC5
:101AB0009047C9F8A003012089F89603042003F099
:101AC0002EFF2069C9F8980390F828104A0703D51B
:101AD000436A002204219847D9F89803DFF8045795
:101AE00041688E684868CF68002E08BF002F04D078
:101AF0000021E961DFF8F0262A6008B1C046C0463F
:101B0000002E08BF002F0CD0E8690028FCD000216F
:101B1000E96106B1B04707B1B847DFF8D40603F072
:101B200095FCD9F8980301214176FEF730FED9F8EB
:101B300098138E68324640F60A0E40F6040340F6CB
:101B4000030C00E00246506828B1078877451CBFA7
:101B500067459F42F6D100205060507B00F0F000B6
:101B600040F001005073E0680088604518BF98425B
:101B700003D10020C9F8A00315E0088F98B101F146
:101B80003800002141804160017B01F0F0010173C8
:101B9000417B01F0F00141F0010141735060507B45
:101BA00000F0F00050736946304603F002FD6846CD
:101BB00003F065FD0020E8612E60DFF8040C436847
:101BC00019000DD0007AC1070AD5D9F8980332461A
:101BD0000121984728F4806874E1284601F064FBED
:101BE00028F480686EE15FEA085163D599F896039E
:101BF00028B1042003F02DFE002089F89603D9F8BF
:101C0000984304F1080104F138050B6800E003462D
:101C1000586890B1A8421EBF0346586800280CD0EF
:101C2000A8421EBF03465868002806D0A8421FBF1E
:101C3000034658680028A842E9D1587B10F00F0FDE
:101C400002BF488E40F60902904207D12046246A1E
:101C500000224FF000736FF48071A047D9F8A00301
:101C600098B1DFF878150868026B9047D9F8A0138F
:101C7000814231BF401A401E401A401CD9F89813C7
:101C8000000BC8600020C9F8A0030022944909F5A0
:101C90007D7001F0F9FA022189F88413D9F858030C
:101CA00018B109F56E7001F071FBFEF7CEFC28F457
:101CB000006807E15FEA087040F1FD8001F0CFFAAB
:101CC0000546FFF749FC002800F0ED8099F89403E1
:101CD000010700F1E88099F89403010600F1E38020
:101CE0006846FEF736FC18B10098002800F0DB804B
:101CF00099F82103002840F0D68000270126F8B289
:101D000002281FDC09EB401101F53071887AC8B157
:101D10008E7291F9090006FA00FA01F0A0FA044661
:101D200099F8940320EA0A0A89F894A399F894137D
:101D3000080704D4082109F56E7001F027FB20463E
:101D400001F0B2FA7F1C032FD9D3032089F8840352
:101D500009F2AC4001F05AFA284601F0A5FADFF882
:101D600084446069002161610022E068E16009F556
:101D70007D70DFF8B41A01F087FADFF860040168BB
:101D80000A6B9047D9F89C13814231BF401A401E1C
:101D9000401A401CD9F88C134FF0FF32A2EB1032DE
:101DA0008A4234BF4FF0FF3001EB1030C9F88C038A
:101DB00099F8900330B1D9F8A403D9F88C13C00274
:101DC00088422FD2DFF888060268D10725D5DFF8D0
:101DD0005C0A0268110620D540F60900A9F87003D4
:101DE0000021A9F8721399F87D0300F0F00040F08B
:101DF000010089F87D0399F87C0300F0F00089F870
:101E00007C03C9F874130020E06109F55C7121605E
:101E1000B9F8720310F4406FFAD0002189F890638A
:101E2000C9F88C1303F01FFBDFF8C013DFF89049EB
:101E3000002008606368180007D0207A810704D565
:101E4000D9F89803002202219847022003F001FDEF
:101E5000102003F014FD99F8950320B9D9F89803E0
:101E6000503001F055FAA07810B90D2003F007FDAD
:101E700099F8910328B1002189F89113052003F006
:101E8000E8FCDFF8AC09C9F88803002189F884135D
:101E90000220B9F96E13B9F96C23914208BF0720EB
:101EA000FEF763FA02E0284601F0FEF9FEF7CDFBEB
:101EB00028F0080806E05FEA480003D5FEF7C5FBF6
:101EC00028F08048B8F1000F04D0414609F56E7043
:101ED00001F05CFA06B0BDE8F08700007019002040
:101EE000051000002DE9F54CDFF848A9DAF8504359
:101EF00081B09B4600250E4600E02468002C55D09A
:101F0000B4420ED02468002C50D0B44209D02468CA
:101F1000002C4BD0B44204D02468002C46D0B442EC
:101F2000EBD1002C42D0206901992768884237D133
:101F300001F095F9D4E90A2343F08051C4E90A215C
:101F4000D4E9082343F08051C4E9082101F0ACF939
:101F5000BBF1000F18D001F082F9D4E90A2343F055
:101F60008071C4E90A21D4E9082343F08071C4E9EF
:101F7000082101F099F99AF84C133069CAF848031E
:101F800041F001018AF84C1321460AF5547003F020
:101F9000D6FF21460AF5567003F0AEFF15F1010594
:101FA0009DF80800002818BF3C46BAD1284603B067
:101FB000BDE8F08C2DE9F04E81461746032582B02E
:101FC0009B46380014BF4FF0804A4FF0005A0E462F
:101FD00001F045F94FF0FF318E420090DFF8544890
:101FE00038D1D4F8600348B30069484526D1D4F805
:101FF0006063002E00F0BA8096F83300010640F1CD
:10200000B4800A9DD4F8600386421CBFD4F86413E0
:102010008E4240F09380D4F8600300225346FEF7CE
:102020003DF8D4F8640300225346FEF737F8002F3A
:1020300014BFDFF8E409DFF8E40959E0D4F86403D9
:1020400028B10069484508BFD4F86463D1D0D4F8FA
:102050005063CEE7B4F930000021B04204BF2069DC
:10206000484503D1582041436618C2E7B4F98800B7
:102070000121B04204BFA26E4A45F3D0B4F9E0009A
:102080000221B04204BFD4F8C0004845EAD0B4F9F8
:1020900038010321B04204BFD4F818214A45E1D0E9
:1020A000B4F990010421B04204BFD4F8700148454E
:1020B000D8D0B4F9E8010521B04204BFD4F8C82152
:1020C0004A45CFD0B4F940020621B04204BFD4F84B
:1020D00020024845C6D0B4F998020721B04204BF97
:1020E000D4F878224A4541D158204143661880E708
:1020F00003F0ACF9B5B1D4F8600300224FF080735F
:10210000FDF7CCFFD4F8640300224FF08073FDF795
:10211000C5FF94F84C133069C4F8480341F001013D
:1021200084F84C13BBF1000F1DD0D4F850132B468C
:102130005A464846FFF7D6FE832517E02B465A46F7
:1021400031464846FFF7CEFE78B194F88403012863
:102150001CBF94F88403042805D0DFF8301A04F576
:102160006E7001F013F9832500E00425009801F05A
:102170009BF8284602B0BDE8F08E10B50C46DFF89B
:10218000B41691F88423022A0BD103F05FF904B14D
:10219000206000F0FF00012801D1812010BD022045
:1021A00010BD012010BDF0B581B004460D461646A5
:1021B00001F055F80746DFF87C06D0F898138C42FA
:1021C00018BF032404D131462846FFF7D6FF044642
:1021D000384601F069F8204601B0F0BD8C010010CE
:1021E000D0210840001004405100070600000460A0
:1021F0000100070601010E0430B5144681B0054602
:10220000502340F2FF3203F04DF924B1014655F856
:102210002110890A216001B030BD002942D00A0E88
:10222000202A08BF10221AD0212A08BF202216D047
:10223000A02A08BF302212D00AB940220FE0102A8B
:1022400008BF50220BD0112A08BF602207D0402AB5
:1022500008BF702203D0502A0CBF8022902289012F
:10226000090A42EA012141F00F0100E0001D026865
:1022700012F1010F18BF8A421CBF50F8042F12F14F
:10228000010F0ED08A421CBF50F8042F12F1010F2B
:1022900007D08A421EBF50F8042F12F1010F8A4264
:1022A000E4D101607047002944D00A0E202A08BFFB
:1022B00010221AD0212A08BF202216D0A02A08BF37
:1022C000302212D00AB940220FE0102A08BF502253
:1022D0000BD0112A08BF602207D0402A08BF702205
:1022E00003D0502A0CBF802290228901090A42EAB9
:1022F000012141F00F0100E0001D026812F1010F01
:1023000018BF8A421CBF50F8042F12F1010F0ED0E3
:102310008A421CBF50F8042F12F1010F07D08A42E5
:102320001EBF50F8042F12F1010F8A42E4D14FF082
:10233000FF31016070472DE9F04381B01E46089DD2
:10234000DFF88C39D3F800804FEA586313F00108A6
:10235000038840F6020765D0BB4207D0B3F5C15FE2
:1023600010D043F60607BB4218D022E000F112035A
:102370000B604169116082693260C1692960C77B65
:10238000047C22E000F112030B6041691160426A93
:102390003260816A2960C77B047C16E000F11A0371
:1023A0000B600027C1691160026A3260416A2960CE
:1023B0000AE000F11A030B60C1691160826A3260A1
:1023C000C16A296090F82470047E306804F0070424
:1023D00088B105234FF6FF7240F2037103F062F8F3
:1023E0008146B9F1050F06DA2146384603F09EF81A
:1023F000316841F82900286820B305234FF6FF72A1
:1024000040F2037103F04EF80646052E1ADAFF215A
:10241000384603F08BF8296841F82600404601B0A1
:10242000BDE8F083BB4218BFB3F5C15F07BF00F141
:102430001203406900F11A03C0690B6010600020AC
:1024400030602860404601B0BDE8F0830400002001
:1024500040210840BB1300002DE9F04186B015462D
:102460000C460022029204920392019201A900916B
:1024700003AB04AA02A9FFF75EFF8326E20F33D164
:1024800048B3039800281CBF019800281DD002986B
:10249000048040F22B28039F502340F2FF32414634
:1024A000384602F0FFFFFF281CBF48EA842147F8A6
:1024B000201001990498FFF7F6FE15202880304679
:1024C0000399696006B0BDE8F081029801884FF673
:1024D000FF7291424DD002980480102129806C80B7
:1024E000304606B0BDE8F081002842D003980028AD
:1024F0001CBF019800281ED002984FF6FF71018082
:102500005023019F40F2FF322B21384602F0CAFFD0
:10251000FF2804D0A40244F02B0447F8204001997E
:102520000498FFF77AFE15202880304601996960EB
:1025300006B0BDE8F081049F502340F2FF322B210A
:10254000384602F0AFFFFF2804D0A10241F02B0172
:1025500047F82010FF280CD002994FF6FF70088032
:1025600014222A80C4F315046C60304606B0BDE81E
:10257000F0810326304606B0BDE8F0812DE9F04336
:1025800091B014460022DFF8188908920D46019296
:10259000079206921E46D8F80810002D18BF002C8E
:1025A00000F009812A78D140CB0740F10481074629
:1025B000002120460020C0467D60BC60DFF87452D8
:1025C000D5F8AC0388B106A9009107AB01AA08A908
:1025D0002046FFF7B0FE019850234FF6FF720B2103
:1025E00002F060FFFF2800F0E68000F038FE814630
:1025F00095F89503022880F2DB80002840F0858062
:1026000003F075F8DFF89C086D4C016841F0020199
:102610000160DFF89408C8F8000002A800F07AFE14
:102620006078DFF88818049002AA05F56E7000F053
:1026300079FE02AADFF8781805F5826000F072FED4
:1026400002A800F029FE2078774A039002AB1921F6
:1026500005F57D7000F0DCFD02ABDFF858281A218B
:1026600005F24C4000F0D4FD00230022DFF84818AA
:1026700005F58D6000F0A2FD00230022DFF8B01800
:1026800005F2AC4000F09AFDDFF8A8080168C1F33C
:10269000814038B10023DFF8A028042105F59E60B1
:1026A00003F0C5F8A078012804BF0D2003F04CF911
:1026B00005F5567003F0F0FB05F5547003F0ECFBE4
:1026C000002085F88403C5F88C030021072085F8D5
:1026D000901385F8911385F82003C5F89C1300200A
:1026E0000521C5F8A003C5F8A41385F89403504943
:1026F000C5F888136368180007D0207A410704D50D
:10270000D5F8980300220421984795F8950305EB26
:102710008002401CC2F8287385F895033446484669
:1027200000F0C2FD3CB90FF2D44191E87C5109A8F8
:1027300080E87C5109AC206838604FF4FA71F96088
:10274000A069B8620120218A79837876E1693963CA
:10275000606818B138610021606803E040F6C41079
:102760003861012139767861DFF8D0177962F96133
:10277000E06800B101463962606900B17862A06822
:1027800000B1F861C82107F1380003F0B1FC002165
:1027900007F1500000F089FD00230022DFF8C41883
:1027A00007F1B80000F00AFD384611B0BDE8F0832B
:1027B000484600F079FD002011B0BDE8F08300002C
:1027C000649F02002DE9F04D00F049FD194C94F88A
:1027D000841302291CBF94F88413042907D1DFF85D
:1027E0002C29146800F060FD2046BDE8F08D00F053
:1027F0005BFDDFF81C09DFF81C8901680A6B904754
:1028000010F50036D4F8800341F1000A0146A8FB18
:10281000067B002008FB0ABB3C184BEB01052C464D
:102820002046BDE8F08D00001B13000000000440AE
:10283000C1150000701900202DE9F04F83B08246C9
:102840000F4615469B4600F00AFD01906FF001040B
:10285000DFF8C888D8F82803824508BFD8F82C03C9
:1028600030B1B83000F0C9FC10B16FF00204ABE039
:10287000FDF7E4FB060000F0C780DDE90C4908F233
:10288000AC4000F0C3FCB8F86C03401CC0F30B0074
:10289000A8F86C03F760002086F83200C6F808B08C
:1028A0002021B8F86C23DFF870083286C6F810A033
:1028B000204009EA0101C6E906014FF0000C86F844
:1028C00033C0C6E908CCEC6834642A7C86F844201E
:1028D0002B6873632A7986F83820AB68F3636A69DA
:1028E000B264AB69F3642A7F86F850206B7F86F868
:1028F00051302A7C22B9EA6812B1012386F84430AB
:102900002A79002A02BF3A7B02F00F02022A04D180
:10291000012286F83820BB687363082301E017465C
:102920005B1E7A68002A18BF002BF8D13A8802F49F
:102930007C42B2F5305F0AD196F8332042F01002A3
:1029400086F8332040F00800C6E9060103E040F0B5
:102950000202C6E90621D8F84803504507D198F885
:102960004C03C10744BF00F0FE0088F84C03DFF8B9
:10297000B00704686FF002050CB92C461DE0D8F8CA
:10298000642308F55670009008F55473D8F8601366
:102990003046A0470446AC420FD0B8F96C03B6F9F4
:1029A0003010884206D0B8F86C03411EC1F30B0109
:1029B000A8F86C1314F1020F0FD1B8F86C03411E84
:1029C000C1F30B01A8F86C13C8F848A398F84C039E
:1029D00040F0040088F84C0316E0B6F9304096F851
:1029E000330040F0800086F8330000218AF8FC10A4
:1029F000D8F85003B0421FBFF168087B00F00F0009
:102A0000022808BFFDF721FE019800F04DFC20468A
:102A100003B0BDE8F08F00000100020401000104D2
:102A2000F0B506460F46380081B014461D4603D562
:102A30000020002101B0F0BD00F09AFCDFF8DC2698
:102A4000B2F930100023B94204BF1169B14203D179
:102A500092F83310090659D4B2F988100123B9420B
:102A600004BF916EB14203D192F88B1009064DD488
:102A7000B2F9E0100223B94204BFD2F8C010B1424B
:102A800003D192F8E310090640D4B2F938110323B8
:102A9000B94204BFD2F81811B14203D192F83B11E8
:102AA000090633D4B2F990110423B94204BFD2F815
:102AB0007011B14203D192F89311090626D4B2F9EC
:102AC000E8110523B94204BFD2F8C811B14203D1BD
:102AD00092F8EB11090619D4B2F940120623B94253
:102AE00004BFD2F82012B14203D192F84312090672
:102AF0000CD4B2F998120723B94204BFD2F8787205
:102B0000B7420BD192F89B120F0607D5582111FB43
:102B100003F3D71897F83320110605D400F038FCDA
:102B20000220002101B0F0BDD7E9082344F00A04D7
:102B300045F0E04522402B4008BF002A0ED000F0AF
:102B400027FCD7E9080120402940C6E92C01D7E934
:102B5000082382438B43C7E9082313E0BA68DFF8F0
:102B6000C4158A4204D0D7F808C0C6F8A8C0B96016
:102B7000C6E9284500F00CFC4FF0FF3106F150008B
:102B800000F0BEFBD6E92C0101B0F0BD0200004010
:102B9000D0B582B00446DDE90667CDE90067FFF7EE
:102BA0004BFE0146204602B0BDE8D0400A224FF05D
:102BB000E04335E700B581B0930803F001030093CB
:102BC000530803F0010302F00102FFF7F3F901B02B
:102BD00000BD00B581B0930803F00103009302F03B
:102BE00001020123FFF7E6F901B000BDF0B500BF17
:102BF00002A191E8FC5080E8FC50F0BDFFFFFFFF10
:102C00000000000000000000000000003A013A014E
:102C10000000000000000000000000000022FFF79C
:102C2000C2BA0022FFF7BFBA00B581B06A46DFF82A
:102C3000F814FFF7B8FA812803BF009800020016C5
:102C40006FF07F0001B000BD70B50E46154600F074
:102C500006FB8324052E36D8DFE806F0030F153572
:102C60001F28DFF8B824D2F8601321B1D2F860131E
:102C70000A8E2A8028E0802426E0DFF8A01491F84C
:102C800020232A8020E0DFF8941491F88423022A7C
:102C90000CBF01210021297016E0DFF88014D1F863
:102CA00028232A60D1F82C1369600DE0DFF86C242A
:102CB000D2F8281301B1C9682960D2F82C1301B1E8
:102CC000C968696000E0032400F0EEFA204670BD98
:102CD0009412005030B4DFF84444B4F9302000239B
:102CE0008A4204BF2269824203D194F83320150638
:102CF00059D4B4F9882001238A4204BFA56E8542C5
:102D000003D194F88B2015064DD4B4F9E0200223AA
:102D10008A4204BFD4F8C020824203D194F8E32051
:102D2000150640D4B4F9382103238A4204BFD4F8ED
:102D30001851854203D194F83B21150633D4B4F9D8
:102D4000902104238A4204BFD4F87021824203D127
:102D500094F89321150626D4B4F9E82105238A4274
:102D600004BFD4F8C851854203D194F8EB2115066D
:102D700019D4B4F9402206238A4204BFD4F8202291
:102D8000824203D194F8432215060CD4B4F9982258
:102D900007238A4204BFD4F8781281420AD194F8FA
:102DA0009B02010606D5582010FB03F3E018C0680B
:102DB00030BC704730BC0020704700002DE9F04B5C
:102DC0000E4682B096F9048034688346174600F0B8
:102DD00046FADFF8482392F8201300906FF00109BB
:102DE0004FF0000C5FF0010303FA0CFE11EA0E0F26
:102DF00050D04FF0FF35A84518BFE0454AD15FFAE3
:102E00008CF0032846DA02EB401505F53075A87AF8
:102E100000283FD121EA0E0082F82003AB7285F82A
:102E200009C00A2192F82203401C82F82203C5F847
:102E300000B02B72002341486860298295F909008F
:102E4000401DA874B06868617FB13B7878785B01F9
:102E500043EA800395F90900401D43EA00234FF639
:102E6000FC710B40DFF8C4020343AB6104B16C603A
:102E7000D2F8980310B92968C2F89813FDF7E5FB5A
:102E800095F90990009800F00FFA484602B0BDE8A5
:102E9000F08B00BF0CF1010CBCF1030FA4D3F1E7E0
:102EA000CC21084000200940110000E0DF120000A2
:102EB0003B0F0000CF0E0000FD120000F0B581B006
:102EC00006460F46802400F0CAF9FFB2032F0546DC
:102ED00027DADFF8483203EB471101F53077B87A8B
:102EE000F8B13968B1421CD193F88403022812D199
:102EF00097F90910D3F89803491D0906090C41F008
:102F00008161002241F00101FFF74DF90446384686
:102F1000FDF762F905E03846FDF75EF9FDF795FB30
:102F20008124284600F0C0F9204601B0F0BD000021
:102F300051110000B44F00501B030000DD120000CF
:102F40002DE9F04107460D461646832400F087F927
:102F5000092D804600F27E80DFE805F00508111497
:102F6000171C4153696E3068386074E0386960300E
:102F70003861012178697976603078616BE030687A
:102F8000788368E03168B98565E030686349C1F8E5
:102F9000A40360E0306848B900F061F95F4991F836
:102FA000942342F0800281F8942315E0012851D146
:102FB00000F055F90646594890F8941301F07F0146
:102FC00080F8941390F894130A0704D4082100F5AC
:102FD0006E7000F0DBF9304600F066F93BE04F49D7
:102FE00091F88403002804BFD1F85003002811D1C0
:102FF0003168192000F04EF931681A2000F04AF9C2
:1030000029E0464F97F88403002804BFD7F85003FF
:10301000002801D000241EE0316807F56E7000F032
:10302000B9F9316807F5826000F0B4F913E030783F
:103030003A4981F820030EE03348436819000AD06A
:10304000007A810607D53548D0F89803324620210A
:10305000984700E00324404600F026F92046BDE8EA
:10306000F0810000A111000030B5044683B0A068D3
:103070006A46FFF7F1F98328054604D10022694624
:103080002046FFF790F8284603B030BD30B587B032
:103090000022059204920392029202AD0FF298016F
:1030A000234A0C680192009503AB806804AA05A925
:1030B000FFF741F9059909884FF6FF7291421BD13C
:1030C000E8B1039800281CBF0298002802D001AA8A
:1030D0002B2102E0049801AA2B21FFF78DF8FF288D
:1030E0000DD0019913480440C1F315010C4344F07D
:1030F0000044204607B030BDA40D41EA8454204668
:1031000007B030BD00000000649F0200043004409E
:103110008C01001000093D00FFEFFF9F7019002097
:10312000840C0020A7110000010003040100040624
:10313000FFFF3F000000C07FFFFF3F00EFF3118063
:10314000202102E0EFF31180002181F31188704704
:1031500080F31188704702F0E9BF10B500F094FCCD
:1031600000F053FE00F016F8DFF8704304F1080099
:10317000A06602F057F800F0A7FF01F01DFC01F077
:1031800048FD01F012FA00F0B5FB00F077FF0120D6
:10319000207010BD10B5DFF8484394F8080160B9FD
:1031A000012184F8081100F069FF002104F59A70EC
:1031B00000F066FFDFF82C13086010BDFEB5044672
:1031C00013B901F0DCF810E06D460020002600275E
:1031D00085E8C100986802901D788DF80050586805
:1031E00001906B46204601F0CAF82046FEBD00F073
:1031F000DBB90A20704701F0A9B8007D70470021B3
:1032000081607AE08160704701F092B801F055B8B2
:10321000F8B51C0086B005460E46174603D10023BC
:1032200000F07EFB0BE000F012F8206801906B4686
:10323000606804903A4600F004F800F071FB07B0B3
:10324000F0BD207A8DF80800314628467047684660
:10325000DFF89812182203F05BB800F092BB6DE71C
:1032600000F065BCDFF8780290F8F41001F0B2BB12
:1032700010B5FFF763FF0446FFF76AFF601E804149
:10328000C00F10BD00F0BABC70B501F05AF865600F
:1032900026601FE100F0A2BC002101604FF0FF3268
:1032A000012342600372704752E7FEB50446684648
:1032B00000230025002680E8680001278DF80070B3
:1032C0006A46204601F0CAFA2046FEBD3EB5694670
:1032D00000220023002481E81C0001258DF8005005
:1032E000DFF8042201F0CAFA3EBD80B500906846BE
:1032F00001F0DDFA01BD01F0CEBA01704160704706
:1033000080B501F010FA08B900F035B9002002BD0F
:1033100001F068BA002101604160C1604FF0FF31E7
:103320008160704778B5140085B005460E4603D11C
:10333000002201F0A0FB13E0A068062804D310F1DE
:10334000010F18BF00200BD100F0E4FE20680190AF
:103350006A4660680290314600F004F801F08BFB89
:1033600006B070BDE0680490A068039028467047DE
:1033700000F002BD01F07BBBDFF8640190F8F410AF
:10338000012901D1012070470020704701F0D5BB11
:1033900001F027BB062902D311F1010F01D101F081
:1033A000D8BB704708B400B501AB01F072FF5DF8FF
:1033B00008FB01F06EBF000030BF7047FCE738B576
:1033C00003F004F802F073FE02F06EF9044604F014
:1033D0000C000C2802D1AFF300803AE060071DD446
:1033E00000F0A9FE05460121012002F067F90A213B
:1033F0006943884212D2DFF83041183D656104F11B
:103400000C0000F095FFAFF30080012002F0EEFA0F
:10341000AFF30080002084F820001EE0AFF30080AE
:10342000200716D4DFF80411DFF804010A68936856
:1034300098470428F6D0E10600D408B9012000E03E
:10344000002002F01AFEDFF8EC00012101600068A4
:1034500001E0FFF7B3FFAFF30080BDE8314002F0B9
:10346000B9BFDFF87C0090F8AC10012280F8AC20E6
:103470000123DFF8E820116090F8141180F814316E
:103480005160704710B5DFF8D440606801F0A9FAC8
:10349000206801F0BEBA0000DFF8C410C20744BFC4
:1034A00001230B60820744BF4FF480730B60400719
:1034B00044BF4FF480320A60704710B5DFF8A42093
:1034C000C30748BF1160840748BF5160400748BF29
:1034D000916010BDBDE87040FFF73ABEA015002016
:1034E0009C0A0020282C0020400C0020303E0000C8
:1034F0006846DFF88810242202F00ABF10B5DFF812
:10350000701091F8AC00012281F8AC20DFF8941023
:103510000C680CB122680A6001F0C1FB1CB12046A6
:10352000BDE8104008E010BD640D0020D801001077
:10353000004003402C20094010B5044604F110005F
:1035400001F0A9F9E06818B104F10C0001F030FEB7
:103550002146BDE81040502201F0A7B8E02A002023
:103560000420094018200940204601F098BB0000C3
:103570009C0A002001604FF0FF3002BD90960200CF
:10358000DFF8BC070178FDE7DFF8B80790F8F40032
:103590007047DFF8B027014692F8F40082F8F41083
:1035A00070470000E82A0020DFF89017D1E90023D7
:1035B000C0E900237047DFF88C07D0F8FC100847FB
:1035C000DFF88017D1F800211047DFF8780790F86E
:1035D0001411012280F8142190F8AC1080F8AC206E
:1035E0000320D6E710B504460320FFF7D2FF20469C
:1035F00001F031BE80B5DFF848070178012901D01C
:10360000FFF7BEFFDFF8440701F012FEFFF79AFD57
:10361000002001F0E6F9BDE8014001F011BB10B552
:1036200088B001A80FF2B0211C2202F071FE022224
:1036300000218DF804200A248DF8101000910394C5
:1036400001ABDFF80427DFF8080700F0D1F808B075
:1036500010BD0146DFF8F806AEE020B502460020B6
:10366000D2E9102347F6906102F0BCFE0125A94281
:1036700028BF4FF0FF3020BD38B50C4602F0A6FE43
:10368000050018BF0125DFF8D0060068811D201A4B
:10369000B0F1004F05D8081BB0F1004F38BF8C4285
:1036A00000D20C4621460120FFF707FFEDB20DB90D
:1036B000FFF7D3BE31BD2DE9F84C05460C46D5E9E0
:1036C00010ABD5E91267AAFB04010BFB04113618F5
:1036D0004F41340C002244EA07412846FFF7CCFF53
:1036E000C5E91467BDE8F18C38B50546FFF726FD3E
:1036F0006D690446B5F5802F34BF04252D0CDFF825
:103700005806006845190120FFF7C6FE294601202A
:10371000FFF7D3FEDFF8482613681D682321002039
:10372000A847DFF8401601200860204600F031BFAE
:10373000DFF8200601680A6B1047000010B5044648
:103740000120FFF7A9FEA069E169BDE81040084724
:103750002DE9F04707460120FFF79EFED7E9160145
:10376000D7E91025002610EB02084D414FEA18401A
:1037700040EA054AD7E914494FF0FF304FF6FF7190
:1037800008EA000205EA0103204009EA01018B4230
:1037900002D82CBF82420126324651463846FFF7F6
:1037A0006BFFD7E91601C7E91401C7E91685B869A7
:1037B000F969BDE8F0470847F8B504460D46FFF73C
:1037C000B7FFD4E9106732463B4602F00BFE3DB12D
:1037D000A6FB002306FB013307FB0033C4E91223D9
:1037E000F2BD80B5FFF7AAFCFFF7B2FC002002BDD6
:1037F0002DE9F84187B005460F4690461C46FFF775
:103800009DFCDFF85865B16811B1FFF7A1FC30E00D
:10381000B560FFF79DFC0CB90FF2BC04EF60C5F872
:103820001C804FF480316068A861696200202862C2
:1038300000220023C5E91223217BA06801290CD1B5
:1038400068610021A068C5E910012278686900213B
:10385000022A0CBF024600220DE001460020DFF8DC
:10386000782302F0BFFD012291426861EBD3C5E9E4
:10387000100100202CE0C5E91421C5E91601182229
:1038800001A8DFF8E41402F043FD029501AB2078B3
:10389000DFF8D814009100280CBFDFF8D424DFF83B
:1038A000D424142105F1280000F059F804462846D4
:1038B000FFF797FF287C10B92846FFF715FF2CB1BA
:1038C0002946304600F0DBFE284601E00020B060CB
:1038D00008B0BDE8F081000000000000000000001A
:1038E000E8030000000000000000000000000000ED
:1038F0000000000038B5DFF84C4404F18405287F4F
:1039000068B901212977FFF719FCE16F2868C90818
:1039100000EBC1010839A1674FF0FF31A16631BD4D
:10392000F8B5DFF82064DFF874740446D6F89C001C
:103930000D4650F82510B9420DD106F5D270009011
:103940002946204600F00BF840B1D6F89C0050F80C
:103950002510B94201D10020F2BD2046F2BD1CB5B0
:1039600004460BB9DFF8003404980090204600F0BC
:103970000AF8010003D0204600F06DF8002420462C
:1039800016BD002167E0F8B51746069CDFF86824ED
:10399000362905461E4602DB002300930DE0DFF8C2
:1039A000A403E981D0F89C3053F82100DFF8EC3310
:1039B000984209D0002300936C320B460021204628
:1039C00001F002FC0120F2BD084600F093F86F60A0
:1039D00070682860306910F1010F08BFFF2028735C
:1039E0000021307A00B10121307D08B141F002019F
:1039F000A9602846214600F003F800B1801CF2BD02
:103A000038B50446217AB4F90E008A07054602D576
:103A1000217B202907D2616800F0ACF8B4F90E00D0
:103A20004042E0810AE0DFF81C13D1F88C00DFF897
:103A30006C1440F82540284600F09CF8217B28466D
:103A400000F0CCF8207AC10744BF284600F06FF898
:103A50000020A06032BD012900D1704710B5B0F937
:103A60000E40002C48BF6442204600F043F8DFF8C7
:103A70002C13204600F07EF8DFF8C812D1F88C2015
:103A8000002042F8240010BD70B5FFF757FBDFF8A7
:103A90001034DFF81004DFF81014DFF81024DFF81A
:103AA00010440A601B1A8B60DFF80834C86818607D
:103AB00002461D68A5420FD0002554F8256040F845
:103AC00025606D1C0F2DF8DB0F20DFF8D04242F887
:103AD0002040401C3628FADB5C68DFF8480424F4F8
:103AE0007F4404195C600A62202199764FF40070CB
:103AF000D86070BD0F2810D9A0F110014909A0F1BC
:103B00001002DFF82404012302F01F0250F8210004
:103B100003FA02F2DFF8143424E006D1DFF884144B
:103B200008680A6822F0020220E0002070470F288F
:103B30000ED9A0F11002012302F01F0203FA02F2D3
:103B4000A0F11001DFF8E033490953F8210009E042
:103B500006D1DFF8501408680A6842F0020205E056
:103B60000020704743F821201040704700F0020009
:103B70000A607047DFF8CC21D2F8883003EB800070
:103B800002688A4218BF0160704710B5DFF8B4417F
:103B9000A06F02F04FFD0021A16610BD70B5024676
:103BA000DFF804038368536004689460254628782E
:103BB000BE2803D001200023136070BD002000291F
:103BC000F9D015F8016FBE2EFBD064422919491EA9
:103BD0005B1AF1E70000000040420F00102805D3F7
:103BE000DFF87C24104400F8101C7047042804D32C
:103BF000DFF8BC24104400F8041C7047102803D3DD
:103C0000DFF8BC1410380860704710B54D4B0FF248
:103C10001504012283F86C2014B1BDE8104001E0C6
:103C200010BD000018B50446DFF890144868012262
:103C30009FB00A7008B901AA4A60204600F014F843
:103C40000320FFF7A6FCDFF87C04DFF8D424036828
:103C5000A06B009003F0FF030F2B28BF7C3201F014
:103C60008EF820B010BD0000F0B5364C226F04F184
:103C7000F40501462E78167000230E6A16610020A6
:103C80004F6A57618E6A9661CF6AD7610E68166275
:103C90004F6857628E689662CF68D7620E69166366
:103CA0004F6957638E699663CF69D76301F1400707
:103CB0000E6B166457644E6B966404F184068F6B2A
:103CC000D764C96B11651778032F14D8DFE807F0A4
:103CD00009070210B06B5060C36A806A0BE0E86AA3
:103CE00006E0B06801F0FF0150F82110516000E0DB
:103CF0005060E36F3068D0609360616F39B1002825
:103D000004E013F8014B01F8014B401EF9D1DFF834
:103D1000B4030168DFF8C004516503789365417806
:103D2000D165438813664168516683689366C168AC
:103D3000D1660369136740695067F0BD7C0B0020B2
:103D4000A01500209C0A002075420000CB35000021
:103D5000A81500208C010010302009404C0C0020D8
:103D60008401001080022443303E0000400C0020FB
:103D7000513700003D370000DFF8FC1391F81401C3
:103D8000012281F814217047DFF8EC1391F8AC00A0
:103D9000012281F8AC20704700000000C53302000A
:103DA0002DE9F04100F0BCFCDFF8CC7397F8AC5083
:103DB000012087F8AC0097F8146187F814010020FF
:103DC000FFF7E7FB8046D7F88C00DFF8F8120A68A7
:103DD00002F0FF0250F82270BC60FFF7B3F93868B8
:103DE00079688847FFF7AAF94046FFF7D2FB06EB50
:103DF0000520BDE8F08100000C54020000F0FF0037
:103E000000F00ABE000A00F065BFF8B5002101A865
:103E1000FFF7C4FE0398009004E0BE2101700099F2
:103E2000491C009100986845F7D305B000BD00001B
:103E30000000000000000000010000000000000081
:103E4000E00000000100000070B5049C059D069E86
:103E50008908491E40F82140491E40F82130491E7A
:103E600040F82120491E40F82160491E40F82150A9
:103E7000491EDFF8BC2740F82120491E4FF0FF32D1
:103E800040F8212000F018F800F016F8491E40F81C
:103E9000212000EB810070BD00000000D132020043
:103EA00000800020007C0020180B0020007C0020F7
:103EB0000000000008ED00E0491E40F82120491EE6
:103EC00040F82120491E40F8212070477FB5044664
:103ED0000D46A16A164619B1E06ABE2202F0CEFB79
:103EE000E16B02913346A06B01900095A16A626B71
:103EF000E06A091FFFF7A8FF04B070BD10B50446C3
:103F00000120A060002121610022E26004F1140080
:103F100000F0CAFB2146BDE81040DFF8200700F0A2
:103F2000AEBB00000000FA0500E100E080E100E027
:103F3000F8B50646DFF80807046984B09CB16569E6
:103F4000077801210170B068012807D10021B16014
:103F50003461F56000F06EFB002020E03069A04283
:103F600003D100F067FB012019E0204601F074F84E
:103F7000002102940391C4F824D02A46694606F130
:103F8000140000F040F830694069A84203DA306953
:103F9000294601F00DF800F04DFB0020606205B0ED
:103FA000F0BD000010E000E070B5DFF89426054693
:103FB000106938B314780123137009BBE9684269AA
:103FC0009142BCBFE96800F0F3FF686905F1140194
:103FD000884202D10122AA6012E068690168696121
:103FE00005F114024A6086682E617069E860FFF787
:103FF000A5F805462946304601F05EF800F0D9FCE8
:1040000000F015BC70BD10B50346186800E00068EC
:10401000984207D0846864699442F8DABDE8104099
:1040200000F026BBBDE81040184600F012BB10B5EA
:10403000044609B90FF22401FFF760FF204610BDC6
:1040400010B5044601F09EF818B12146BDE81040B5
:10405000EDE710BD0FF204012CE0000000000000AD
:1040600000E400E0806902F028BC806902F027BC0F
:10407000806902F026BC806902F028BC02F017BCFF
:1040800010B504460020A061DFF84C16DFF84C267E
:10409000DFF84C0621606260A06004F11001DFF8D7
:1040A0004426DFF84406E26000F0E9FA204610BD3D
:1040B00018ED00E00A68026070470000080B00205D
:1040C00000EF00E004ED00E018B52B4C94F865001B
:1040D00085B0E8B9012284F865200021204600F06F
:1040E000E3FA00F069FC00F015F80520039004F5F0
:1040F000D2736A460FF2E50104F1100000F042FDB0
:10410000E064FFF78CFADFF84007FFF7A6FAA06536
:1041100006B010BD6846DFF83417142202F0F8B874
:104120006850020038B5FFF709F804460020FFF791
:1041300090FA05460EE038B5FFF700F80446002077
:10414000FFF787FA05460C48416D806D4D1BA8426C
:1041500038BF00252046FEF7FBFF284632BD38B5A4
:1041600004460D462146DFF8E006FFF7A4FA0248B0
:104170000465456531BD00009C0A00202DE9F84327
:104180000446DFF83C070768D7F804800D464FF077
:10419000FF391BE03E463F68307D012816D1012CD7
:1041A00004BFF168A94209D1306900281DBF411838
:1041B000F16030623075F069B1698847307D01285F
:1041C00004D1F068401B484598BF81464745E1D17E
:1041D0004846BDE8F283000028ED00E02DE9F843F1
:1041E000FEF7ACFF80460120FFF733FADFF8D05628
:1041F00005F15C0601213170002272706F6DAA68B2
:10420000A968C41B401ABA1A904202D2002030702A
:104210002BE000F063F94FF0000907E04F44394606
:104220000120FFF7ABFFA4EB090481464C45F5D212
:10423000FEF784FF80467078012804D139460020BB
:10424000FFF79CFF8146A86D19F1010F05D0A86DFD
:10425000A9EB0404A04288BF2046C119FFF77FFFE5
:1042600001200021B0703170AF604046BDE8F243DC
:10427000FEF76EBFDFF84806C06C00F032BC38B500
:1042800004461D46A260002268682061A1612146A3
:10429000A868E0612275DFF8280600F0F0F92878B8
:1042A00018B12046BDE8324042E031BD38B568E182
:1042B0008260816100220261C36100210175704743
:1042C0000146DFF8FC05C4E100F0E7B970B504462B
:1042D000DFF8EC65A068206206F15C05A978012989
:1042E00004BF2878002816D10120FFF7B2F9B16881
:1042F000736D0246B0681B1A511A8B420BD3A0682B
:104300008118E16001232375746DA21A90420DD2C9
:10431000BDE8704023E7FFF705FFA1680818E060DB
:10432000012020752978012908BF687070BD000040
:1043300038B500F0F5F905462046FFF7C7FF27E13D
:10434000BBE704460D461646FEF7F8BE70B500F012
:10435000E7F90646207D0025012808D1FFF7E2FE97
:104360000546E068216A451BA94238BF002500F0D8
:1043700062FA284670BD007D704700F069BA10B53A
:1043800004460BB90FF20C03FFF779FF204610BD6E
:10439000000000000000000000000000000000001D
:1043A00070B504460D4616460022242100F0EDFEAD
:1043B00028B133462A462146BDE87040DFE770BD8C
:1043C00074E710B504460022A260002104F10C003D
:1043D00000F06AF92146BDE81040DFF854074EE1CD
:1043E00038B500F09DF90546207C022804D120460E
:1043F00000F053F900F08EF9CAE010B583688468C4
:104400001A400C408C4208BF0A4312B181689143A4
:104410008160104610BD2DE9F0431C4691B08146E5
:104420000D46174614F1010F18BF002C0CD06B4637
:104430002246DFF8481708A8FFF73AFF08A902222A
:1044400003918DF8102004E00020032103908DF8E3
:1044500010100021DFF8E861069507970591306993
:104460000290FEF76BFE80463A4629464846FFF723
:10447000C4FF050003D000F031F828462BE01CB93A
:1044800000F02CF8002026E03478012030706946D6
:104490000298416209F10C0000F0DBF8029800F08C
:1044A000E4FD039820B1FFF70BFF0398FFF70EFF21
:1044B00000F014F8FFF758F8FEF740FE04460398A2
:1044C00018B1FFF701FF0020039000F085F99DF877
:1044D000100000B1059811B0BDE8F0834046FEF72A
:1044E00037BEF8B505460E46FEF728FE0446A86816
:1044F0000643AE6005F10C00E968814202D1204616
:1045000000F053BADFF8B80390F8AC6000F01CF884
:104510002846EF68FA69B969FFF76FFF786160B103
:10452000384600F0BAF801203874F86808B1002164
:1045300001752146B86800F0BFFD00F0FBFA304677
:10454000BDE8F24000F0ABBB012180F8AC10704731
:1045500010B5044609B90FF20C01FFF732FF2046EF
:1045600010BD00000000000010B504460B460022FC
:10457000142100F00AFE18B12146BDE81040E7E71B
:1045800010BD0446FEF7DAFD0546204600F085F82A
:104590002846BDE83240FEF7DBBD2168142200202A
:1045A00000F03BFE0020206010BD78B5DFF88046AB
:1045B000207889B0E0B901252570FEF799FF4FF406
:1045C0004072059204F160010FF2280204910092FA
:1045D000002603968DF8205000236A460FF235011D
:1045E000201D00F0A0FDDFF89815201DC1F8D800AF
:1045F0000AB070BD74692E73797362696F732E6B24
:104600006E6C2E5461736B2E49646C655461736BD0
:104610000000000080B500F001F8FCE710B5DFF8FD
:10462000B046206880476068BDE810400047000041
:104630001D710000384600F032BB0000580C00200D
:10464000480B00200168814201D101207047002001
:1046500070470EE038B500F063F8256829682160DE
:104660002A685460FFF777BD406000607047000023
:1046700000BF426808604A6011604160704738B509
:1046800000F007F82C606168696062681560656019
:104690007FE704460D46FEF751BD01684268116090
:1046A0004168006841607047DEE7002000F0B5BD5A
:1046B00010B5044610782074618204F114000021C2
:1046C000FFF7F2FF0021A16001202146E060BDE874
:1046D0001040DFF8D408D2E7654000006B400000CE
:1046E0007740000071400000600C002000BF00F126
:1046F0001401816100F114024261704738B500F085
:104700000FF80546207C022803D100F0CEF800F017
:1047100001F83DE7002020742946A06800F0CCBCD9
:104720000446FEF70BBD70B50C468EB0054614F17D
:10473000010F18BF002C0AD06B462246DFF86C1818
:1047400005A8FFF7B5FD05A90391022202E00021AB
:10475000039103228DF81020FEF7F0FC0646688ACC
:10476000002831D11CB900F066F8002032E0DFF8F3
:10477000E40804780121017000690290C0F824D097
:1047800000F073FC694605F11400FFF762FF9DF825
:104790001000022805D10398FFF792FD0398FFF758
:1047A00095FD00F048F8FEF7DFFEFEF7C7FC044673
:1047B000039818B1FFF788FD0020039000F00CF873
:1047C0009DF8100030B104E0688A411E698200F053
:1047D00032F801200EB070BD0020029948622046D8
:1047E000FEF7B6BC70B50546354890F8AC4000F011
:1047F00025F80646686905F11401884207D1287C2E
:10480000C1074EBF0120688A401C68820DE06A69BA
:1048100010686861416001201074D06808B10021FF
:1048200001753146906800F047FC00F004F820461E
:10483000BDE8704033E23046FEF78ABC012180F8C3
:10484000AC10FEF77BBC0000A81500209C4B0000BC
:1048500000210022002380E80E00704710B50446B6
:104860000AB90FF20C02FFF723FF204610BD00002B
:1048700000000000000000000000000038B5044601
:104880000D46134600F07FFC20B12A462146BDE8C4
:104890003840E3E732BD38B50446FFF727FFFEF79F
:1048A0004DFC054600F001F872E62046F5E610B52D
:1048B00004462068FFF7EFFF21681C226FE6000026
:1048C0009C0A0020B0FA80F0C0F11F0070472DE96B
:1048D000F843044604F12800DFF83C58C168D5F8D5
:1048E0001080EF68AE682961EC6000238168A960E0
:1048F00000214268826001702B700120FEF749FEA2
:104900008146FEF71FFCE169A06962699047FEF7E6
:1049100015FC4846FEF73DFE01202870C5F81080C2
:10492000EF60AE60BDE8F18338B5DFF81C48E5689C
:104930002068FFF7C7FF216901EBC00100F090F884
:1049400003D12168426A91432160FFF7C0FF2068CC
:1049500030B1FFF7B7FF216901EBC0018D42EDD304
:1049600031BDF8B5DFF8186206F58A742769FEF7DD
:10497000E5FB05466068FFF7A5FF616901EBC00034
:1049800087420FD296F8AC70012086F8AC00DFF8B1
:10499000BC0701F03FFE0020207000F00AF8384606
:1049A000FFF7CEBD002020702846BDE8F240FEF79C
:1049B000CFBB2846FEF7CCBB38B5DFF80848207AD5
:1049C00038B901212172002500F034F96D1C062D43
:1049D000FAD331BD481E8041C00F7047FFF7CCB9F4
:1049E0000000002800D0704710B5FEF7A7FB644C0C
:1049F00004F58A72516821B1FEF7AAFBFFF7B1FFF7
:104A000002E01170FEF7A4FB94F8AC00012184F8D9
:104A1000AC10BDE8104042E1002800D0704738B526
:104A2000DFF8F4466068C0B1FEF78CFBFEF786FB4A
:104A300025696068FFF746FF616901EBC0018D429F
:104A40000BD200F00DF803D16168426A91436160B6
:104A5000FFF73DFF60680028ECD10020207031BDD9
:104A6000086802680A6051600A688A4270474448D0
:104A7000D0F81C01704710B50446DFF8683700F025
:104A800081F8606900B90024204610BD38B5406047
:104A90000060136841610361516881619368C3617B
:104AA000D16811F1010F08BF05210162012303FA4A
:104AB00001F14162002400F128010C7013698B6040
:104AC00012694A602E4A046AD2F8283103EBC40501
:104AD000CD6000F1080102F58670FFF7D0FD0020DF
:104AE00032BD2DE9F0418046FEF728FB08F1240590
:104AF0000446287920B12046BDE8F041FEF728BBE6
:104B00000120DFF81476287141463E783870286914
:104B1000FFF79FFD796828680143796000F00AF883
:104B200016B9BDE8F0411CE7BDE8F08100000000C7
:104B3000680C00202046FEF70BBB38B5FFF7A9FD37
:104B4000216B0D432563FEF703FB2046BDE8324091
:104B5000C7E738B50D46044615F1010F08BF052516
:104B6000FEF7ECFA0121A94061622562044AD2F8FD
:104B7000281101EBC5036363FFF70BBDE1430000A0
:104B80009C0A002010B504460AB90FF21002FFF784
:104B90007DFF00B10024204610BD00000000000091
:104BA0000000000000000000050000000000000000
:104BB000214600F032BB70B5DFF8CC4600202071F2
:104BC00001E000F092FA20680028FAD02068FFF790
:104BD00079FE6169226901EBC00082420DD2E5686D
:104BE00020610668E6603146284600F08DF806F13F
:104BF0001C0105F11C0002F089FA20790028DDD1A2
:104C000070BD10B5DFF84C44207A08B1FFF7D3FF30
:104C100057E038B5DFF8C847207E38B90121217642
:104C2000002500F007F86D1C062DFAD331BD0000F9
:104C3000101600202268002102EBC500FFF734BDEA
:104C400038B596B0FEF77AFADFF83C4601E000F09E
:104C50004CFA20680028FAD02068FFF733FE61691B
:104C600001EBC0000146206100200D68E560207165
:104C70000220FEF78EFC2946002000F045F8FEF7E2
:104C800061FAFEF75BFAFEF780FFE06800F11C01B5
:104C900007A802F03BFA17B030BDFFF775B800283F
:104CA00000D0704710B5FEF749FADFF8380700F179
:104CB000AC04217A012902BF90F814010028FFF703
:104CC0007AFF00202070BDE81040FEF73BBA0000DC
:104CD000940A0020002800D0704710B5DFF80407C0
:104CE00000F1AC04217A012902BF90F814010028D8
:104CF000FFF761FF0020207010BD000000BFDFF84B
:104D0000E406D0F8BC007047BCB504000F4635D0AF
:104D1000E06ADFF8D4560178BE2905D0002200925F
:104D200023462A4600F02BF8F86A0178BE2907D0FE
:104D3000002000903B4605F16002002100F044FA9B
:104D4000E06A01A9814222BFA26A8018884207D284
:104D50000091234605F1C0020021002000F034FA42
:104D6000F869FA6A904222BFBB6AD218824205D221
:104D700000903B4605F5947200F001F8B3BD0021A8
:104D8000002021E290F84800012800D0704710B5BB
:104D9000FEF7D4F9DFF84C160446D1F8B800401EEF
:104DA000C1F8B80004D1FFF7C5FE0020FEF708FCEB
:104DB0002046BDE81040FEF7CBB970B5DFF82C06F1
:104DC0000469057801210170FEF7B8F9064620460E
:104DD00000F04BF9032084F820002046FFF7D2FFB3
:104DE000FFF729FD64602460FFE72846BDE87040B6
:104DF00055E7F8B517460446386820610E46F9684D
:104E000061611D46B869002803BFDFF8E405016849
:104E100021632063796909B94FF40071386948B397
:104E2000C21DD208D200891A4118C908C9004FF022
:104E3000FF30E262A162206366637868DFF8A465F0
:104E4000A063B968E163F869206404F1480097F849
:104E500020100170012904D1D6F8B810491CC6F8F9
:104E6000B8100022C2602946204600F018F870B140
:104E7000801CF2BDC91DC908C900A1620822206BAF
:104E800000F0B2F90028E062D6D10120F2BD04F1B1
:104E9000080106F1A400FFF7F2FB0020F2BD70B597
:104EA0000B460446DFF84C25DFF84C15FFF70EF8EB
:104EB000E06108B9012070BD012084F820000021C4
:104EC00061626069DFF81C15002808D5002201F135
:104ED000D000A261E0642146FFF7D1FB18E06069D1
:104EE0000122824001F1AC00A2618169626901EB9B
:104EF000C203E364012105780170FEF71FF906463D
:104F0000204600F0CFF8FFF796FC2846FFF7C7FED3
:104F1000002070BDF8B50029044641D1DFF8CC74FB
:104F20003D7801203870FEF709F9064694F8200014
:104F300001280FD1FFF7B9FCE06C0168814203D171
:104F40007A68A06982437A60606A80B1C06808B1FB
:104F5000FFF7BAF994F82000022808D1606A68B116
:104F6000FFF79BFB606AC06808B1FFF7ADF994F8E2
:104F70002000032802D1FFF798FC02E02046FFF74B
:104F800001FFFFF758FC2846FFF789FE206B10F160
:104F9000010F04D0A26AE16ABDE8F8403DE1F1BD2D
:104FA0000129F3D1F1BD0000700C0020FD46000086
:104FB0002DE9F84FDFF82CB40BF1AC04054694F85A
:104FC0000080012020700E46FEF7B8F8D5F814A036
:104FD000B245814636D0002E03D500270BF1D00B09
:104FE00004E0A0690127B74000EBC60B95F820004C
:104FF00001281CD12846FFF750FBE86C016881426C
:1050000003D16268A869824362602069A84207D11F
:10501000C4F814B02946DBF80000FFF729FB03E0D1
:1050200029465846FFF715FB6068384360606E619B
:10503000AF61C5F84CB0002E44BF00206061012173
:1050400021724846FEF784F84046FFF728FE504696
:10505000BDE8F28F480B002038B5FFF761FB05462D
:10506000204600F002F8FFF793BA2DE9F04104461C
:10507000DFF81452D4F84C802E68A769FFF70DFBB7
:10508000D8F80010414504BFBE432E60E868A04236
:1050900004BF00212961022084F820000121297128
:1050A000BDE8F08138B5FFF73BFB054629462046B1
:1050B00000F002F8FFF76CBA2DE9F041DFF8C861A3
:1050C000376804468846A569E06C2146FFF7C1FAB7
:1050D0002F433760012184F8201001203071FFF741
:1050E000FDF9BDE8F041FEF729B880B5DFF80C0303
:1050F00020B9FEF727F8FFF791FA09E0FEF722F84A
:10510000002001E00098401C009000980028F9D091
:10511000BDE80140FEF712B8B00B0020DFF8E01246
:10512000242201F0F5B810B504460AB9DFF8D02200
:10513000FFF75FFE010003D02046FFF7EBFE0024DF
:10514000204610BD00000000B40B002029490000DB
:10515000F8B500F011F8582100F017F8040009D054
:105160003B4632462946FFF7DEFF18B95822FFF7C3
:105170001FFD00242046F2BD05460E4617463B465D
:10518000002270470B4600221C2100202CE038B57D
:10519000FFF7C6FA00F007F8FFF70BFC2046BDE862
:1051A00034400021B6E6054604F10800FFF775BA61
:1051B00010B504462068FFF7EAFF21685822FFF780
:1051C000EEB90000C40B00200649884283B001D12B
:1051D00003B0704700B9684603990260436081607C
:1051E000FEE70000400C0020F8B504000E461F4604
:1051F00004BFDFF81002046802B9082225682046BF
:10520000A847050007D100962346DFF8FC210021BE
:105210003846FFF7D9FF2846F2BD08B9794800683B
:10522000436818477949087A08B901220A72704719
:1052300038B5FFF775FA75494A680125082A05DA75
:105240000B6843F82240521C4A6000E00025FEF73C
:1052500082BF10B5044600F006F82046BDE81040B5
:1052600000E00000FEE770B5FFF75AFA674D6E6880
:1052700007E0296801EB8602204652F8043C984773
:10528000761E012EF5DA70BD4C0B002001F05CFF9C
:105290000EBD0EB50023009302ABF7E7F0B5002476
:1052A0000025002B44BF5B42002902D54942521E13
:1052B0002D25B1FBF3F60FF26C1703FB1611641CDE
:1052C000795C00F8011D31460029F2D19442BEBF3D
:1052D000302100F8011D641CF8DB290018BF00F81C
:1052E000015DF0BD1368022B07D35B1E13600268DB
:1052F0001AB1117001684A1C026070472DE9FC4721
:1053000092460A68DAF8007012F8010B0A60662803
:105310001E465BD1347E012C06D157F8040B02F0F7
:10532000B3F80446884606E0F81D20F0070000F1B7
:105330000807D0E90048204641460022002302F039
:10534000C7F806D23069401E88F000480125306158
:1053500000E00025204641462D4A2E4B02F0D2F8AF
:1053600004D80FF2D400F06107212DE002F0E4F838
:1053700004220092814602F007F902460B462046BD
:10538000414602F0D3F90022234B02F049FA02F021
:1053900025FB0146009A70690A23FFF77FFF2E2143
:1053A00000F8011C401E72693169F061121AF26046
:1053B0000A238A1A4946FFF771FF15B12D2100F81B
:1053C000011DF0617169091AF16003E0F16908706B
:1053D0000120F060CAF800700020BDE8F6870000E8
:1053E000600B00209C0A00209CF70100480B002065
:1053F000242C0020BB4D0000034C00001D46000083
:1054000090960200282C00203C830200780C00209B
:105410000100C0FFFFFFDF410088C340FDF79BBED6
:10542000FDF79BBE3031323334353637383961625F
:105430006364656600000000286572726F7229005F
:1054400091490A681040C2430A6070478F4A116848
:105450000029FCD10023D3611060D0690028FCD062
:10546000D161506870478A48016821F0020141F417
:105470000871016003218748016041F23002C26077
:10548000012343605021C160012242604FF4CA6190
:10549000C16042604FF48651C160426001207E4984
:1054A0000860704770B4054600201C003AD013F025
:1054B00003040AD055F8206016F1010F32D01640CF
:1054C0008E422CD0401C641EF4D19B0800F02A8030
:1054D00055F8204014F1010F24D014408C421ED006
:1054E000401C55F8204014F1010F1BD014408C4291
:1054F00015D0401C55F8204014F1010F12D0144073
:105500008C420CD0401C55F8204014F1010F09D0FA
:1055100014408C4203D0401C5B1ED9D102E070BC09
:10552000C0B2704770BCFF20704700001E281DD815
:10553000DFE800F0101C131C1619161C1C1C191C8B
:10554000161C1C191C1C1C1C1C1C1C1C1C1C1C1CA4
:105550001C1C190040F2025209E04FF4817206E06F
:105560004FF2011203E041F2011200E00022FF2994
:1055700009D14FF6FF30024042F0C00240F2037002
:1055800040EA02407047080008BF42F0300205D0F0
:10559000C8074CBF42F0100242F0200240F20370F4
:1055A00040EA024070473D490A681040C2430A6021
:1055B000704710B4028840F602039A4218BFB2F551
:1055C000C15F04D043F607039A4202D004E0C07BD7
:1055D00003E090F8240000E00020314AD2F888323D
:1055E0000B6010F07F0F94688B68CC6005D1146855
:1055F000030654BFD36813693AE0546802281ED0EA
:10560000042820D0052822D0062822D00A2824D019
:105610000C2824D00F2826D01E2826D0822810D06F
:10562000842812D0852812D0862814D08A2814D035
:105630008C2816D08F2816D09E2816D017E05369D4
:1056400016E0936914E0136A12E0D36910E0536A1C
:105650000EE0D36A0CE0936A0AE0136B08E0936BE8
:1056600006E0536B04E0D36B02E0136C00E0FF2014
:1056700008744C6000208B60487410BC7047014671
:105680001422084800F034BE1010044000100440FA
:1056900000000460546004400041044008100440CD
:1056A000C410005080020021DFF8A0078068704716
:1056B000DFF89817084490F84A0170470246002026
:1056C000022904D1012A06D140F2EE207047012AB6
:1056D00008BF4FF47A707047DFF8701791F84101F6
:1056E00020B1D1F86C01002818BF004770472DE9A0
:1056F000F841DFF8584704F2391583B0687A00287A
:1057000040F091800121697204F5B67600F0BBFC8F
:105710003071DFF83C77387B287279683160DFF8C8
:105720003467B068C0F38140A8B9386998B1D6F839
:1057300000800A20C046C8F30662642111FB02F211
:10574000B2FBF0F200230FF2457104F19400FDF773
:1057500035FD00F033FC6846FDF751FD0020019057
:105760008DF80000002202926B460FF27151DFF8B3
:10577000E88604F10C00FDF721FD6846FDF73FFDCA
:10578000002001908DF8000002906B460822DFF89F
:10579000CC1604F15000FDF711FD00230FF2C542B5
:1057A000322104F1D800FDF733FD0020C8F80000D5
:1057B0000023DFF8AC262C2104F1F400FDF728FDCE
:1057C000B168787BC1F3815120B1032902D1012056
:1057D000287004E0032918BF022900D089B9D8F83D
:1057E000000040F04000C8F80000FDF738FDA16857
:1057F00041F00401A160297B491C2973FDF754FD88
:1058000003E0012908BF00F0EAFB706840070AD4F2
:10581000FDF725FDA16841F00101A160A97A491CAD
:10582000A972FDF741FD002004B0BDE8F08138B554
:10583000002408B1150002D16FF0020407E0816076
:10584000C26003610146DFF8040600F055FB204604
:1058500032BD10B50446FDF702FDDFF8F0150A1958
:1058600092F843315B1E82F84331DBB233B98A6868
:10587000012303FA04F422EA04048C6060E0F8B522
:105880000546FDF7ECFC0446DFF8C015481990F812
:105890004A21521E80F84A21D2B232BBDFF8C40539
:1058A00000EB850210F825505688280622D5DFF82F
:1058B000B87539680A6A3046904739688A6A30464E
:1058C000904739680A6B30469047DFF8A0150120F1
:1058D0000860DFF89C0501688907FCD505F03F05E5
:1058E000132DBCBF2846FFF7CAFF2046FDF7DCFC9E
:1058F0000020F2BD680606D501EB86010020D1F834
:1059000060219047EAE7DFF860150B689A69304636
:105910009047304602F07AF80228FAD1DEE710B557
:105920000446FDF79CFCDFF824158A680123A34098
:105930001A438A60214491F84321521C81F8432183
:10594000FDF7B2FC002010BD2DE9F0410646FDF741
:1059500086FC0446DFF8F454A81990F84A114A1C52
:1059600080F84A2139BBDFF8FC8418F8260000F0E3
:105970003F001328B8BFFFF7E7FF08EB8600478812
:1059800018F8260001061CD5DFF8DC542A68D16916
:10599000384688472A68516A384688472A68D16A53
:1059A00038468847DFF8C42401201060DFF8C004BF
:1059B00001688907FCD52046FDF776FC0020BDE88C
:1059C000F081400606D505EB87010120D1F8602162
:1059D0009047F0E7DFF890140B685A693846904713
:1059E000384602F030F80128FAD1E4E72DE9F84F03
:1059F00000250026AB46012818BF6FF0010840F0D3
:105A0000D580DFF8489409F59A74206801282CD1D4
:105A100002212160FDF725FD012000F062F95FEA17
:105A2000000825D109F5AA7A9AF8060008B14FF0C6
:105A3000010B9AF8050008B14BF0020B9AF804002C
:105A400008B14BF0040B012000F0C5FA01281CBF7F
:105A50002079012803D1002000F086F9012599F86A
:105A60000800C10709D5012611E06FF004089DE088
:105A700001202060FDF706FD98E0DFF8EC13DFF869
:105A8000F8030A6A916888470746042FF5D0304624
:105A900000F0EEFA5EB9012F07D1DFF8CC23DFF872
:105AA000D803136A5A680121904700F08CFADFF896
:105AB000B8130A685369584698479AF8000018B115
:105AC0004FF4806000F0DBFAE07F18B14FF48160A2
:105AD00000F0D5FADFF89413DFF8A0330120086056
