:100000000040012025600200192502001925020088
:1000100019250200192502001925020019250200E0
:1000200019250200192502001925020019250200D0
:100030001925020019250200D924020070B50446D2
:100040000D4603F040FA2968002649B111B10A694A
:10005000A24203D009680029F8D101E00E46F9E771
:1000600003F056FA304670BDDFF8081891F83300F7
:100070000022030603D4582042438818704791F8A1
:100080008B0001220306F6D591F8E3000222030655
:10009000F1D591F83B0103220306ECD591F89301C9
:1000A00004220306E7D591F8EB0105220306E2D509
:1000B00091F8430206220306DDD591F89B02072240
:1000C0000306D8D5002070472DE970430646144634
:1000D0001D4603F0F8F96EB1D6E90A2322432B43FB
:1000E000C6E90A23D6E9088948EA040449EA05056D
:1000F000C6E90845BDE8704303F00ABA30B581B0DF
:1001000004460D4602F0D4FCA04231BF241A641EFE
:10011000241A641CA40805F57A70A04238BFB4F113
:10012000405F06D2641B012C98BF0124204601B019
:1001300030BD002001B030BDF0B5DFF838370446DF
:100140000025D3F85003012981B024D100E00068D4
:10015000002852D0C668377B07F00F07022F1AD04D
:100160000068002849D0C668377B07F00F07022FC8
:1001700011D00068002840D0C668377B07F00F0711
:10018000022F08D00068002837D0C668377B07F0F8
:100190000F07022FDBD180B3012502B11060C268C6
:1001A000167B06F00F06022E27D1012904D1016922
:1001B000CA68898D511813E0118840F603029142F4
:1001C0001CBF40F60406B14207BF01694A690169D4
:1001D0000A69498B93F822335118192212FB031133
:1001E000406BFFF78BFF20600A20C0462168B1FBFF
:1001F000F0F0206001B02846F0BD0020206001B082
:100200002846F0BDF0B581B0044603F05CF9054620
:10021000002C1CBFA07A002833D0DFF85C3694F99C
:1002200009001E680122F70702FA00F10ED5DFF877
:100230004C361E68370609D5DFF844365E68113043
:1002400002FA00F0C04306405E6018600020A07211
:10025000207220606060C4E90400DFF81836A061F5
:1002600094F9090093F820638240324393F8220303
:1002700083F8202310B1401E83F82203C8B200F097
:1002800064F9284601B0BDE8F04003F041B9000030
:100290002DE9F04700261124DFF8E455DFF8D49566
:1002A0004FF00108F0B2032806DA09EB401000F520
:1002B0003077B97A012905D0761C032EF2D3BDE838
:1002C000F08700BF97F90900113008FA00F0C14328
:1002D00029606A681043686097F9090008FA00FA13
:1002E00003F0F1F899F894134AEA010A89F894A303
:1002F00003F00EF999F8840302280DD107F11000DC
:1003000005F02AFF00F0FF00012805D1B869C8B147
:1003100099F8841302290FD099F8210397F909104D
:1003200004FA01F1084389F82103002109F58260EC
:1003300003F061F9C0E700BF05F00EFF00F0FF0019
:100340000128E9D10220B872B6E730B5042881B09F
:1003500020D1DFF8204504F58D60007DC046C8B18E
:100360000A20C046054604F58D6003F078F8454341
:10037000B5F5967F0ED204F58D6003F07BF805206D
:1003800006F0E5F8012084F89103042104F56E706D
:1003900003F031F9002001B030BD70B5044603F020
:1003A00092F8DFF8D064054696F84C0320EA04047E
:1003B00086F84C430024D6F8280320B1B830007DDD
:1003C000C04600B10124D6F82C0320B1B830007D1E
:1003D000C046044319D196F84C03002808BF002CEE
:1003E00013D1D6F8480380B190F828108A070CD5AD
:1003F000446A284603F08CF8D6F84803002202210C
:10040000A0470020C6F8480370BD2846BDE87040EC
:1004100003F07EB8F0B400290CBF01230023002AAA
:100420000CBF01250025002839D02C0004BF90F80E
:100430004440002C33D000291CBF91F84440002CCC
:1004400012D0446B0E6C07690969A408A4EB9604EA
:100450000026B94218BFFE68A41B04F18054B4F111
:10046000805F88BF012301D8190018D0BAB1D168C4
:100470000C7B04F00F04022C11D1516B046C126937
:1004800000698908A1EB94010024904218BFD46848
:10049000091B01F18051B1F1805F88BF01252B401C
:1004A000F0BCD8B27047F0B581B01E466FF00207BD
:1004B0008DF80070054634682246FFF7ABFF10B197
:1004C00001208DF800009DF90000B84201BFE968E5
:1004D000087B00F00F0002280CD100E024684CB12A
:1004E000226821462846FFF795FF0028F6D0022013
:1004F0008DF800009DF90010B94204D1E86B10B1ED
:1005000004218DF800109DF90070012F06D12946B5
:10051000304606F01BFB384601B0F0BD022F09D172
:100520002268002A2946304608D006F0ECFA384600
:1005300001B0F0BD042F03D12946304606F0F6FA8B
:10054000384601B0F0BD0020704730B581B0044698
:1005500002F0B9FF0546C74890F8941321EA040455
:1005600080F8944390F89423110704D4082100F5EF
:100570006E7003F040F8284601B0BDE8304002F04C
:10058000C7BF2DE9F04F064681B00020306000243F
:10059000DFF8E092D9F8500318B3C1680A7B012450
:1005A00002F00F02022A1CD10A88192140F6030327
:1005B0009A421CBF40F60405AA4219BF026913699A
:1005C00002695369528B406B9A1899F8223311FBD8
:1005D0000321FFF793FD05460A20C046B5FBF0F85E
:1005E00001E04FF0000800254FF0FF3A0027F8B275
:1005F000032805DA09EB401101F53072907A18B939
:100600007F1C032FF3D325E0107A012502281FD089
:10061000D9F898030169408B99F8223309181920F9
:1006200010FB03115069FFF769FD83460A20C0469D
:10063000BBFBF0F05045E3D88246E1E7D0450ED948
:10064000D046404630602C43E0B201B0BDE8F08FA8
:100650004FF0000AE3B230682B42EFD134B140468C
:1006600030602C43E0B201B0BDE8F08F05B15046D8
:1006700030602C43E0B201B0BDE8F08F2DE9F04FBF
:10068000DFF8E49B81B099F88413022905D101B009
:10069000BDE8F04F192002F029BF99F88403012822
:1006A0001CBF99F88403042800F0888002F00BFF37
:1006B00000900024D9F85003002518B3C1680A7BC4
:1006C000012502F00F02022A1CD10A88192140F6E6
:1006D00003039A421CBF40F60406B24219BF0269E6
:1006E000136902695369528B406B9A1899F8223347
:1006F00011FB0321FFF702FD06460A20C046B6FBA8
:10070000F0F800E0A04600264FF0FF3A0027F8B2CC
:10071000032805DA09EB401101F53072907A18B917
:100720007F1C022FF3D91EE0107A0126022819D06F
:10073000D9F898030169408B99F8223309181920D8
:1007400010FB03115069FFF7D9FC83460A20C0460D
:10075000BBFBF0F05045E3D88246E1E74446544500
:1007600008D906E0A2463542F8D10DB1444601E071
:1007700006B15446354317D064B12146012998BFCC
:10078000012109F58D6002F071FE09F58D6002F01E
:100790006FFE0DE009F58D6002F06CFE042109F595
:1007A0006E7002F028FF03E009F58D6002F062FE32
:1007B000009801B0BDE8F04F02F0AABE01B0BDE85C
:1007C000F08F70B586B00146002203920192049228
:1007D000029240F602058C68487E628023885B1B8B
:1007E00009D041F21E055B1B05D041F6E6755B1B87
:1007F000012B0FD91CE0268A4FF6FF3232402282AD
:10080000002819BF4FF60F4002402D2060F3091257
:1008100022820DE0238B4FF6FF321A4022830028FC
:1008200019BF4FF60F4002402D2060F309122283BA
:100830000020487602AD009504AB01AA03A920462A
:1008400001F00EFE50B1039801884FF6FF729142FD
:1008500004D10299019801F075FD03E00299019815
:1008600001F0B6FD0348D0F8AC1309B101988847F0
:1008700006B070BD782900204021084000000440E7
:10088000081004402DE9F04F85B00027DFF8D85953
:100890000397D5F850630297002E6ED0D5F8640305
:1008A000002804BFD5F86003002845D1012787F050
:1008B000010903AA5FFA89F102A8FFF73DFC0100D4
:1008C0005DD10446DFF8A409D0F80480B8F1000F28
:1008D00018BF002C00F0F4820298002840F0F0824B
:1008E000D5F8641303980190CDF8009005F5567380
:1008F000D5F8600305F55472C047012800F0E28185
:10090000022840F0DD82D5F86003D5F86013B0F915
:100910003040D1F8108002F0D6FD4FF0FF318C420C
:1009200082464BD1D5F8600300283BD00069404592
:1009300038D1D5F860638CE0D5F860030028B6D0D4
:10094000D5F86003016930698142B0D196F833105F
:10095000CA06ACD5D5F864030028A8D15FF001071A
:10096000D5F86003C16848880028F9D0D5F860033D
:10097000C16848880128F3D099E702212FE3002FAE
:100980009FD1029900299CD0022938BF012105F589
:100990008D6002F06BFD05F58D6002F069FD05B01C
:1009A000BDE8F08FD5F8640328B10069404508BF61
:1009B000D5F864634DD0D5F850634AE0B5F93000FE
:1009C0000021A04204BF2B69434503D15820414375
:1009D0006E183EE0B5F988000121A04204BFAB6E5D
:1009E0004345F3D0B5F9E0000221A04204BFD5F899
:1009F000C0304345EAD0B5F938010321A04204BF15
:100A0000D5F818314345E1D0B5F990010421A04251
:100A100004BFD5F870314345D8D0B5F9E8010521B8
:100A2000A04204BFD5F8C8314345CFD0B5F9400244
:100A30000621A04204BFD5F820324345C6D0B5F9FF
:100A400098020721A04204BFD5F878224245BDD0C4
:100A50000026002E00F0348196F83300010640F1A4
:100A60002F81D5F86003864270D1D5F8600300224B
:100A70004FF00053FFF728FBD5F8640300224FF036
:100A80000053FFF721FBDFF8780905F065FBD5F887
:100A9000600300224FF08073FFF716FBD5F8640364
:100AA00000224FF08073FFF70FFB95F84C1330696D
:100AB000D5F85073C5F8480341F0010185F84C138F
:100AC0003C4600E02468002C00F0FA80BC4211D0C3
:100AD0002468002C00F0F480BC420BD02468002C69
:100AE00000F0EE80BC4205D02468002C00F0E880C5
:100AF000BC42E7D1002C00F0E380266814B12069E5
:100B0000404503D03400F8D1504605E200224FF0B2
:100B100080532046FFF7D8FA00224FF0807320461A
:100B2000FFF7D2FA95F84C133869C5F8480341F03D
:100B3000010185F84C1305F55470214606F019F8AB
:100B4000214605F5567005F0F1FFDBE7D5F86403A3
:100B5000864261D1D5F8640300224FF00053FFF7BD
:100B6000B3FADFF8800905F0F7FAD5F8640300223C
:100B70004FF08073FFF7A8FA95F84C133069D5F859
:100B80005073C5F8480341F0010185F84C133C4609
:100B900000E02468002C00F09380BC4211D024684F
:100BA000002C00F08D80BC420BD02468002C00F09B
:100BB0008780BC4205D02468002C00F08180BC42B4
:100BC000E7D1002C7CD0266814B12069404503D0C1
:100BD0003400F8D150469FE100224FF08053204668
:100BE000FFF772FA00224FF080732046FFF76CFA8D
:100BF00095F84C133869C5F8480341F0010185F8B0
:100C00004C1305F55470214605F0B3FF214605F558
:100C1000567005F08BFFDBE7D5F850430FE02468F2
:100C2000002C4DD0B4420ED02468002C48D0B442E1
:100C300009D02468002C43D0B44204D02468002C8E
:100C40003ED0B442EBD12768CDF80080B3460026F1
:100C500000E0276820690099884220D100224FF0E7
:100C600080532046FFF730FA00224FF08073204671
:100C7000FFF72AFA95F84C13DBF81000C5F8480383
:100C800041F0010185F84C1305F55470214605F03B
:100C900070FF214605F5567005F048FF761C3C00B4
:100CA000D7D1002E1FBF95F88403012895F884033F
:100CB000042805D0DFF8581805F56E7002F09BFC8B
:100CC000504629E1039800B10646B6F93040D6F8FF
:100CD00010A002F0F8FB4FF0FF318C42064614D111
:100CE000D5F8600328B10069504508BFD5F86043C6
:100CF00056D0D5F8640328B10069504508BFD5F82F
:100D000064434DD0D5F850434AE0B5F93000002196
:100D1000A04204BF2B69534503D1582041436C18AE
:100D20003EE0B5F988000121A04204BFAB6E5345F7
:100D3000F3D0B5F9E0000221A04204BFD5F8C030DD
:100D40005345EAD0B5F938010321A04204BFD5F8D4
:100D500018315345E1D0B5F990010421A04204BFF8
:100D6000D5F870315345D8D0B5F9E8010521A04236
:100D700004BFD5F8C8315345CFD0B5F9400206219C
:100D8000A04204BFD5F820325345C6D0B5F9980229
:100D90000721A04204BFD5F878225245BDD00024D7
:100DA000002C00F08B8094F83300010640F186801F
:100DB000D5F86003844219D1D5F8600300224FF0C2
:100DC0000053FFF781F9D5F8640300224FF0005378
:100DD000FFF77AF9DFF8280605F0BEF9D5F86003C9
:100DE00000224FF08073FFF76FF90EE0D5F864032F
:100DF00084421CD1D5F8640300224FF00053FFF762
:100E000063F9DFF8E00605F0A7F9D5F864030022DE
:100E10004FF08073FFF758F9206995F84C13C5F827
:100E2000480341F0010185F84C13304674E0D5F8D1
:100E300050032746044600E02468002C3ED0BC4204
:100E40000CD02468002C39D0BC4207D02468ACB345
:100E5000BC4203D024688CB3BC42EDD1216951451A
:100E60002CD100224FF080532046FFF72DF90022AD
:100E70004FF080732046FFF727F995F84C13386937
:100E8000C5F8480341F0010185F84C1305F554708D
:100E9000214605F06EFE214605F5567005F046FE2A
:100EA00095F8840301281CBF95F88403042805D015
:100EB000DFF85C1605F56E7002F09DFB30462BE006
:100EC000002F00F090803069D5F89813884218BF41
:100ED0004FF4806140F08380002C1CBF02980028F2
:100EE0001FD0D5F86003002804BFD5F8640300289C
:100EF00017D102F0E8FA044695F8940300F0F700E1
:100F000085F8940395F89403010704D4082105F5A6
:100F10006E7002F070FB204602F0FAFA05B0BDE8F0
:100F2000F08F02F0D0FA95F8941341F0080185F89B
:100F3000941302F0EDFA96F83300C10605F55470EB
:100F400004D505F0CEFDC5F8640303E005F0C9FD46
:100F5000C5F86003D6E90601DFF89848DFF80C7A97
:100F6000C043A060E268D6E906010243E260D6E928
:100F70000623DB432360D4F804C0D6E9060141EA26
:100F80000C0CC4F804C0D7F804A0F4685346180049
:100F900007D0387A010704D5D5F8980332460821DE
:100FA0009847204605F0D8F8208840F60201401AFC
:100FB00008D041F21E01401A04D041F6E671401AF1
:100FC00001280AD8BAF1000F07D0387AC10704D532
:100FD000D5F8980322460121D0474FF0804105F50E
:100FE0006E7002F008FB05B0BDE8F08FF0B59E4EC4
:100FF000DFF87C0981B0D6F8605305F05AF9044651
:10100000DFF8CC090268076802F0200207F46027C5
:10101000224018BF002D0CD01346C6F8685300229A
:101020002846FFF751F84FF4804106F56E7002F044
:10103000E2FA3C400DD096F8210340EA544486F889
:10104000214306F5826001B0BDE8F040002102F0C6
:10105000D2BA01B0F0BD2DE9F043DFF80C9281B0B7
:1010600099F82103002400284CD099F82103002688
:10107000C1073DD599F821031021B140084218BF9E
:10108000012402F020FA99F821131122B240914371
:1010900089F8211302F03CFA032E33DA09EB4611EA
:1010A00001F53072907A68B392F90980DFF824195B
:1010B00001EB8801002C0D681668576804BF107A90
:1010C000022803D1D2E90401C30009D41046FFF776
:1010D00099F82CB10020009000224FF0007303E03B
:1010E000009500224FF0006341463046B84709E0C2
:1010F00099F8210301268107BCD499F8210302261F
:101100004107B7D499F8210338B109F5826001B0DD
:10111000BDE8F043002102F06EBA01B0BDE8F083F3
:101120002DE9F0430FF2481285B0D2E90034CDE941
:1011300000344FF4804005F009F84FF00008F0B19A
:10114000DFF89408D0F813100078C1F31501800877
:1011500041EAC0714448D0F89833986802AA01F077
:1011600015FA4148DFF80418D0F898034B688268F4
:101170001C0004D00C7AE10744BF012198476E4659
:101180004FF002093768386820B9361DB9F10109F6
:10119000F8D15AE03868D0E9060104F0D7FF3D687D
:1011A0000021CDE90201044602F08DF984467DB9A3
:1011B000604602F0ADF914F00A0F1AD1002CE4D009
:1011C00038682949C1F8680348F48048DDE700BF62
:1011D000D5E90A23DDE9020110431943C5E90A01F3
:1011E000D5E90823DDE9020110431943C5E90801E7
:1011F000DEE73868DFF8D817DFF8E0378A68DFF80D
:10120000D047D0E9060118408243A26022463868E0
:101210001368D0E906018B4313603A68DFF84C0786
:101220004368190007D0017AC80604D50E4CD4F8DB
:101230009803102198473968DFF8A40705F076FC79
:101240000020386048F002089FE75FEA08011CBFF1
:10125000DFF8900702F0CFF9FFF71AF8FFF712FB5B
:1012600005B0BDE8F083000078290020AC1D002007
:10127000D82C0020DC2C002030B5DFF86C4781B082
:10128000B4F96C03B4F96E13884217D102F01BF95C
:10129000054694F8940300F0F70084F8940394F85A
:1012A0009403010704D4082104F56E7002F0A3F939
:1012B000284601B0BDE8304002F02AB901B030BD87
:1012C0000720FFF76AB82DE9F04107468846D7F8AE
:1012D000A86014461D4606B1B047D7E9280104EAC4
:1012E000000215EA010308BF002A00F08680DFF83B
:1012F000F816B1F930000024404504BF0E69BE4223
:1013000003D191F8330005065CD4B1F988000124BB
:10131000404504BF8E6EBE4203D191F88B00050696
:1013200050D4B1F9E0000224404504BFD1F8C060B8
:10133000BE4203D191F8E300050643D4B1F9380168
:101340000324404504BFD1F81861BE4203D191F88F
:101350003B01050636D4B1F990010424404504BF91
:10136000D1F87061BE4203D191F89301050629D4EA
:10137000B1F9E8010524404504BFD1F8C861BE4277
:1013800003D191F8EB0105061CD4B1F94002062403
:10139000404504BFD1F82062BE4203D191F8430218
:1013A00005060FD4B1F998020724404504BFD1F8CF
:1013B0007852BD4203D191F89B02050602D4C7E9D9
:1013C0002C2311E05820C7E92C2344430819D7E9FE
:1013D0002C45D0E9082322EA040423EA0505C0E9E4
:1013E0000845D7F8A81081600020C7F8A80007F1C9
:1013F0005000BDE8F04102F0BEB8BDE8F081000049
:1014000001000104704700B581B002F0E8F8DFF890
:10141000D8250146D2F89803D2F8882301B05DF8A8
:1014200004EB1047DFF8C0050FF2C152D0F8881363
:10143000914208BFFFF722B9042100F56E7002F057
:10144000DAB830B581B04FF0FF3004F07FFEDFF83E
:1014500098550FF299510446D5F88803884232D145
:101460000022DFF8881B05F57D7002F041F80220AC
:1014700085F88403D5F898138A6801F1380300E0F1
:101480000246506890B198421EBF0246506800283C
:101490000CD098421EBF02465068002806D09842E1
:1014A0001FBF0246506800289842E9D1507B10F0D7
:1014B0000F0F02BF488F40F60901884203D0FEF7A4
:1014C000E7FEFFF7DFF91248044208D005F56E7019
:1014D00001B0BDE830404FF0005102F08CB801B0CF
:1014E00030BD00000100012400B581B04FF0FF3095
:1014F00004F02CFE800708D501B05DF804EB4FF432
:101500000061DFF8E00402F076B801B000BD000031
:10151000020000402DE9F041DFF8CC74D7F85863A1
:10152000002E00F0AD80F068082140F6040240F67D
:10153000030301E04068491E68B1CCB25CB1048885
:101540009C4218BF9442F5D1316901F138021AC8A2
:101550001AC21AC81AC2D6E90A450022C6E90A22E6
:10156000B068D0B115F0E24310D024F00F0235F08E
:10157000E24308BF002A05D0B6F930103069D6F82A
:1015800008C0E04704F0000405F0E245B6F9301069
:1015900030692246B4682B46A04701F094FF044608
:1015A000B7F86E03401CC0F30B00A7F86E036FF092
:1015B0000201002086F83300318607F5567005F0E9
:1015C00090FA204601F0A4FFB7F96E03B7F96C1347
:1015D000884255D1D7F89813D7F82863D7F82C4309
:1015E00000250520A84600291EBF91F8FC100029FF
:1015F0000720FEF7D2FE2EB196F8FC0000B9356840
:1016000086F8FC803CB194F8FC0008B9D4F800805E
:10161000002084F8FC00454538BF4546E5B9B7F9D8
:101620006C03B7F96E1388422AD101F04CFF0446CF
:1016300097F8940300F0F70087F8940397F8940361
:10164000010704D4082107F56E7001F0D4FF20468D
:10165000BDE8F04101F05CBF15F1010F10D001F0C1
:10166000FCFEB5FBF0F1012998BF012107F2AC4067
:1016700001F0FCFE07F2AC40BDE8F04101F0F8BE1D
:10168000BDE8F081D84A92F884130020022904BFF3
:10169000D2F86013002903D1D2F8641301B90120F4
:1016A000704770B5DFF8801C0446CF48D0F89C63C3
:1016B00008682568026B9047864231BF861B401E32
:1016C000861B761C360BAE423CBF75196E0840F681
:1016D000C410864288BF064604D8B6F5967F38BF48
:1016E0004FF49676266070BD30B50D46A80781B0E0
:1016F000BD4C12D5FFF70EFFD4F8580340B145F0AA
:10170000020104F56E7001B0BDE8304001F073BF16
:1017100001B0BDE83040FEF7B1BF680767D50121D1
:1017200084F89613042004F012FFDFF8FC0B016824
:101730000A6B9047C4F89C03D4F8500398B105692C
:10174000D4F89803002818BFA8420AD095F82800BA
:10175000410704D56B6A00220421284698470120DE
:101760006876C4F89853D4F898034168DFF8BC0B46
:101770000A780260022004F0EAFE102004F0FCFE69
:10178000012084F884037949887810B90D2004F089
:10179000F3FED4F8980341688868002804BFC8683D
:1017A000002806D0DFF8880BDFF8882B0021C16104
:1017B00002600720DFF8801B08600021DFF8700B53
:1017C0004269416182698161426942F0402242F08E
:1017D000020242610FF22100C4F888031A2001F0CE
:1017E00073FE01B0BDE83040192001F06DBE01B0BC
:1017F00030BD0000081004402DE9F0430446880085
:1018000081B040F1B080DFF8E081D8F898034168FA
:1018100048688E68CF68010018BF80473000DFF845
:10182000105B01D138000ED0E8690028FCD00021FF
:10183000E961300018BFB047380018BFB847DFF87B
:10184000FC0A04F089FC0020E86140F60A09DFF890
:10185000F01A2960A8F87093A8F8720398F87C131E
:1018600001F0F00188F87C13C8F87403204698F85A
:101870007D1301F0F00141F0010188F87D13FEF7BE
:10188000A0FFA668374640F6040140F6030200E0D8
:101890000746786828B103884B451CBF93428B42AA
:1018A000F6D17B7B08F55C70786003F0F0037B7306
:1018B000D8F8500328B1C0680088904218BF884209
:1018C0001CD0208FD0B100216187E16394F84500DE
:1018D00094F8441000F0F00040F0010084F8450056
:1018E00001F0F00184F8441004F13800C8F87403E2
:1018F00098F87D1301F0F00188F87D13E86900285D
:10190000FCD00021E9610FF2E50298F89103C8F8D4
:10191000882330B104F084FF0028FBD004F091FF4D
:101920000EE0012005F061F9012809D0787B00F074
:10193000F00040F0010078730FF23900C8F8880316
:101940000021E9612E60DFF8340C436819000AD0E9
:10195000007AC10707D5D8F89803324601B0BDE830
:10196000F0430121184701B0BDE8F0834C6002004C
:1019700020000E00DFF8002C114200D1704710B596
:10198000012005F032F901280DD1DFF8F40B0FF238
:101990005D01C0F888130022DFF89419CA6100F5D0
:1019A0005C70086010BD0A20C0463221B1FBF0F126
:1019B000012998BF0121DFF8C84B04F58D6001F0C3
:1019C00055FD04F58D60BDE8104001F051BD0000EB
:1019D0000C1004409430044085030021FDBFFFFF3C
:1019E000D02C0020302D0020782900202DE9F04750
:1019F000044688465FEA484082B0DFF8849B2CD5D5
:101A000001F061FDD9F8686316B3D6E90A2302F044
:101A10000A0413F0E04508BF002C19D1D6E90A45A5
:101A2000D6E90A23A243AB43C6E90A2301F070FDBD
:101A3000B06878B1002D08BF002C0BD0B6F930107B
:101A400030692246B4682B46A04728F48048C1E29A
:101A500001F05EFD28F48048BCE25FEA880040F1B6
:101A60008280DFF8200BD0F88C1041F08001C0F8A4
:101A70008C1099F8960328B1042004F002FD002090
:101A800089F8960301F01FFD0546042005F0ADF826
:101A9000D9F8B423014691421DD1207E00281CBFF5
:101AA000D9F89C03002816D0D9F8600370B1C1683A
:101AB0000A8840F603039A421FBFC068018840F6B7
:101AC0000402914208BF04F1140001D004F1100097
:101AD000FFF7E7FD05E040F6C41020616061C9F83A
:101AE000B413284601F014FDD9F898138A6801F15F
:101AF000380300E00246506890B198421EBF02468B
:101B0000506800280CD098421EBF0246506800283A
:101B100006D098421FBF0246506800289842E9D17B
:101B2000507B10F00F0F02BF488F40F60902904221
:101B30000FD1256A00224FF000736FF480712046A8
:101B4000A847D9F8500310B1FEF798FD01E048F01E
:101B500002082046E46900224FF080630021A0477C
:101B600028F0005836E25FEA887009D5FFF7D2FC0A
:101B7000D9F85803002840F02D8228F0020829E205
:101B80005FEA485040F1B48001F09DFC0546FFF744
:101B900079FDD9F85043012840F0A480002C00F0D2
:101BA000A180042089F884030022DFF8DC1909F5FC
:101BB0007D7001F09DFC284601F0AAFC09F2AC40C2
:101BC00001F058FCDFF8600701680A6B9047C9F81C
:101BD000A003012089F89603042004F0B8FC2069D2
:101BE000C9F8980390F828104A0703D5436A0022E1
:101BF00004219847D9F89803DFF8345741688E6874
:101C00004868CF68002E08BF002F04D00021E9618A
:101C1000DFF820272A6008B1C046C046002E08BF62
:101C2000002F0CD0E8690028FCD00021E96106B142
:101C3000B04707B1B847DFF8040704F08DFAD9F8C8
:101C400098030121417640F60A06FEF7BAFDD9F85D
:101C500098339A68114640F6040C40F6030E00E0F3
:101C60000146486828B10788B7421CBF77456745D9
:101C7000F6D1002048604E7B06F0F00646F00106E3
:101C80004E73E0680088704518BF604503D100209E
:101C9000C9F8A00315E0188F98B103F138000024AB
:101CA00044804460047B04F0F0040473447B04F03B
:101CB000F00444F0010444734860487B00F0F000F5
:101CC00048730020E8612A60DFF8B008446821000A
:101CD0000BD0007AC10708D501211846A04728F487
:101CE000806877E1284601F013FC28F4806871E1F0
:101CF0005FEA085163D599F8960328B1042004F0EF
:101D0000C0FB002089F89603D9F8984304F1080134
:101D100004F138050B6800E00346586890B1A8420A
:101D20001EBF0346586800280CD0A8421EBF0346B9
:101D30005868002806D0A8421FBF034658680028EC
:101D4000A842E9D1587B10F00F0F02BF488E40F631
:101D50000902904207D12046246A00224FF0007306
:101D60006FF48071A047D9F8A00398B1DFF8B815D7
:101D70000868026B9047D9F8A013814231BF401A1E
:101D8000401E401A401CD9F89813000BC860002070
:101D9000C9F8A0030022954909F57D7001F0A8FB60
:101DA000022189F88413D9F8580318B109F56E7027
:101DB00001F021FCFEF762FC28F400680AE15FEA0A
:101DC000087040F1008101F07EFB0546FFF75AFCE8
:101DD000002800F0F08099F89403010700F1EB80EF
:101DE00099F89403010600F1E6806846FEF7C9FB06
:101DF00018B10098002800F0DE8099F8210300282F
:101E000040F0D98000270126F8B2022805DC09EB52
:101E1000401101F53071887A18B97F1C032FF3D374
:101E20001BE08E7291F9090006FA00FA01F04BFBF3
:101E3000044699F8940320EA0A0A89F894A399F8C9
:101E40009413080703D5204601F062FBE5E708215B
:101E500009F56E7001F0CFFBF5E7032089F88403E4
:101E600009F2AC4001F006FB284601F051FBDFF817
:101E7000C0446069002161610022E068E16009F509
:101E80007D70DFF8D01A01F033FBDFF89C040168A5
:101E90000A6B9047D9F89C13814231BF401A401E0B
:101EA000401A401CD9F88C134FF0FF32A2EB1032CD
:101EB0008A4234BF4FF0FF3001EB1030C9F88C0379
:101EC00099F8900330B1D9F8A403D9F88C13C00263
:101ED00088422FD2DFF8AC060268D10725D5DFF89B
:101EE000CC0B0268110620D540F60900A9F8700352
:101EF0000021A9F8721399F87D0300F0F00040F07A
:101F0000010089F87D0399F87C0300F0F00089F85E
:101F10007C03C9F874130020E06109F55C7121604D
:101F2000B9F8720310F4406FFAD0002189F8906379
:101F3000C9F88C1304F01DF9DFF8FC13DFF83C46F8
:101F4000002008606368180007D0207A810704D554
:101F5000D9F89803002202219847022004F091FA50
:101F6000102004F0A4FA99F8950320B9D9F8980341
:101F7000503001F000FBA07810B90D2004F097FA62
:101F800099F8910328B1002189F89113052004F0F4
:101F900078FADFF8800BC9F88803002189F88413E8
:101FA0000220B9F96E13B9F96C23914208BF0720DA
:101FB000FEF7F3F902E0284601F0AAFAFEF75EFB0D
:101FC00028F0080806E05FEA480003D5FEF756FB54
:101FD00028F08048B8F1000F04D0414609F56E7032
:101FE00001F009FB02B0BDE8F087000021110000FC
:101FF0002DE9F54CDFF888A5DAF8504381B09B460F
:1020000000250E4600E02468002C5BD0B4420ED0C0
:102010002468002C56D0B44209D02468002C51D03A
:10202000B44204D02468002C4CD0B442EBD1002C34
:1020300048D0206901992768884209D09DF8080096
:10204000002818BF3C46F2D1284603B0BDE8F08C0A
:1020500001F039FAD4E90A2343F08051C4E90A2196
:10206000D4E9082343F08051C4E9082101F050FA73
:10207000BBF1000F0CD121460AF5547004F079FD34
:1020800021460AF5567004F051FD6D1CD6E700BFDD
:1020900001F019FAD4E90A2343F08071C4E90A2156
:1020A000D4E9082343F08071C4E9082101F030FA33
:1020B0009AF84C133069CAF8480341F001018AF8D4
:1020C0004C13D8E7284603B0BDE8F08C2DE9F04E5C
:1020D00081461746032582B09B46380014BF4FF057
:1020E000804A4FF0005A0E4601F0EDF94FF0FF31F3
:1020F0008E420090DFF8884414D1D4F8600328B1F0
:102100000069484508BFD4F8606356D0D4F864032A
:1021100028B10069484508BFD4F864634DD0D4F8AD
:1021200050634AE0B4F930000021B04204BF236993
:102130004B4503D15820414366183EE0B4F988006E
:102140000121B04204BFA36E4B45F3D0B4F9E000C7
:102150000221B04204BFD4F8C0304B45EAD0B4F9F4
:1021600038010321B04204BFD4F818314B45E1D007
:10217000B4F990010421B04204BFD4F870314B454A
:10218000D8D0B4F9E8010521B04204BFD4F8C83171
:102190004B45CFD0B4F940020621B04204BFD4F879
:1021A00020324B45C6D0B4F998020721B04204BF93
:1021B000D4F878224A45BDD00026002E7DD096F86E
:1021C0003300010678D50A9DD4F860138E422DD1D4
:1021D000D4F8600300225346FDF776FFD4F8640379
:1021E00000225346FDF770FF002F14BFDFF8080BE5
:1021F000DFF8080B03F0B0FF002D3AD0D4F86003ED
:1022000000224FF08073FDF75FFFD4F864030022D3
:102210004FF08073FDF758FF94F84C133069C4F801
:10222000480341F0010184F84C1322E0D4F8641310
:102230008E422AD1D4F8640300225346FDF744FFAE
:10224000002F14BFDFF8B80ADFF8B80A03F084FFE4
:102250007DB1D4F8640300224FF08073FDF734FFA2
:1022600094F84C133069C4F8480341F0010184F834
:102270004C13BBF1000F1DD0D4F850132B465A4617
:102280004846FFF7B5FE832517E02B465A463146F0
:102290004846FFF7ADFE78B194F8840301281CBFCF
:1022A00094F88403042805D0DFF8C81B04F56E7089
:1022B00001F0A1F9832500E00425009801F028F938
:1022C000284602B0BDE8F08E10B50C46AC4991F836
:1022D0008423022A0BD103F03FFF04B1206000F0F9
:1022E000FF00012801D1812010BD022010BD012076
:1022F00010BDF0B581B004460D46164601F0E3F876
:1023000007469F48D0F898138C4218BF032404D185
:1023100031462846FFF7D8FF0446384601F0F8F862
:10232000204601B0F0BD00008C010010D021084013
:102330000010044051000706000004600100070679
:1023400001010E04002942D00A0E202A08BF1022E3
:102350001AD0212A08BF202216D0A02A08BF302276
:1023600012D00AB940220FE0102A08BF50220BD029
:10237000112A08BF602207D0402A08BF702203D06C
:10238000502A0CBF802290228901090A42EA0121C9
:1023900041F00F0100E0001D026812F1010F18BFAB
:1023A0008A421CBF50F8042F12F1010F0ED08A424E
:1023B0001CBF50F8042F12F1010F07D08A421EBF34
:1023C00050F8042F12F1010F8A42E4D101607047E6
:1023D000002944D00A0E202A08BF10221AD0212A30
:1023E00008BF202216D0A02A08BF302212D00AB976
:1023F00040220FE0102A08BF50220BD0112A08BF3C
:10240000602207D0402A08BF702203D0502A0CBF98
:10241000802290228901090A42EA012141F00F013C
:1024200000E0001D026812F1010F18BF8A421CBFB4
:1024300050F8042F12F1010F0ED08A421CBF50F841
:10244000042F12F1010F07D08A421EBF50F8042F4B
:1024500012F1010F8A42E4D14FF0FF310160704761
:102460002DE9F04381B01E46089DDFF84C3BD3F8C0
:1024700000804FEA586313F00108038840F6020712
:1024800065D0BB4207D0B3F5C15F10D043F6060755
:10249000BB4218D022E000F112030B6041691160C9
:1024A00082693260C1692960C77B047C22E000F147
:1024B00012030B6041691160426A3260816A2960CF
:1024C000C77B047C16E000F11A030B600027C1698A
:1024D0001160026A3260416A29600AE000F11A0361
:1024E0000B60C1691160826A3260C16A296090F82C
:1024F0002470047E306804F0070488B105234FF689
:10250000FF7240F2037103F053FE8146B9F1050FEB
:1025100006DA2146384603F08FFE316841F829007B
:10252000286820B305234FF6FF7240F2037103F0D1
:102530003FFE0646052E1ADAFF21384603F07CFEE0
:10254000296841F82600404601B0BDE8F083BB424F
:1025500018BFB3F5C15F07BF00F11203406900F176
:102560001A03C0690B60106000203060286040468C
:1025700001B0BDE8F0830000040000204C600200C0
:102580007829002040210840E91400002DE9F0419D
:1025900086B015460C4600220292049203920192E4
:1025A00001A9009103AB04AA02A9FFF759FF8326F2
:1025B000E20F33D148B3039800281CBF01980028CC
:1025C0001DD00298048040F22B28039F502340F234
:1025D000FF324146384603F0EBFDFF281CBF48EAB6
:1025E000842147F8201001990498FFF7F1FE152087
:1025F000288030460399696006B0BDE8F0810298F2
:1026000001884FF6FF7291424DD00298048010214C
:1026100029806C80304606B0BDE8F081002842D0A9
:10262000039800281CBF019800281ED002984FF67E
:10263000FF7101805023019F40F2FF322B21384669
:1026400003F0B6FDFF2804D0A40244F02B0447F8A1
:10265000204001990498FFF775FE15202880304628
:102660000199696006B0BDE8F081049F502340F2F3
:10267000FF322B21384603F09BFDFF2804D0A10236
:1026800041F02B0147F82010FF280CD002994FF69B
:10269000FF70088014222A80C4F315046C60304651
:1026A00006B0BDE8F0810326304606B0BDE8F081F3
:1026B0002DE9F04391B00D460021DFF8E48908913F
:1026C0000191079106910646D8F8089014461F46D6
:1026D00004F018FB1C2803D004F014FB1B2826D19F
:1026E000208843F60701884212D194F8240002287A
:1026F0001DDD2069DFF88C2A20F06041914216D060
:1027000020F06040DFF8801A884240F01F810EE020
:1027100040F60202904203D1E07B022807DD15E17A
:10272000B0F5C15F03D1E07B022800F30F81002DDB
:1027300018BF002C00F00A81287829FA00F0C107A0
:1027400040F10481002120460020C0467560B4603D
:10275000DFF8385AD5F8AC0388B106A9009107AB69
:1027600001AA08A92046FFF77BFE019850234FF6E7
:10277000FF720B2103F01CFDFF2800F0E78000F042
:10278000A2FE814695F89503022880F2DC8000289D
:1027900040F0868003F0C3FDDFF8F409DFF8F44968
:1027A000016841F002010160DFF8EC09C8F800009F
:1027B00002A800F0E2FE6078DFF8E019049002AAB7
:1027C00005F56E7000F0E1FE02AADFF8D41905F5F8
:1027D000826000F0DAFE02A800F092FE20785D4AE6
:1027E000039002AB192105F57D7000F045FE02ABA8
:1027F000DFF8B0291A2105F24C4000F03DFE00231D
:102800000022DFF8A41905F58D6000F009FE002311
:102810000022DFF80C1A05F2AC4000F001FEDFF8F0
:10282000040A0168C1F3814038B10023DFF8F829B8
:10283000042105F59E6003F012FEA078012804BF74
:102840000D2003F099FE05F5567004F03FF905F5EB
:10285000547004F03BF9002085F88403C5F88C031C
:102860000021072085F8901385F8911385F820033F
:10287000C5F89C1300200521C5F8A003C5F8A413D2
:1028800085F89403A349C5F888136368180007D036
:10289000207A410704D5D5F89803002204219847EF
:1028A00095F8950305EB8002401CC2F8286385F873
:1028B00095033C46484600F02BFE3CB90FF22461DC
:1028C00091E8BC5109A880E8BC5109AC206830608F
:1028D0004FF4FA71F160A069B0620120218A71831E
:1028E0007076E1693163606818B130610021606819
:1028F00003E040F6C4103061012131767061DFF8E9
:102900002C197162F161E06800B1014631626069C1
:1029100000B17062A06800B1F061C82106F1380012
:1029200004F06EFA002106F1500000F0F2FD0023E1
:102930000022DFF8201A06F1B80000F071FD3046E1
:1029400011B0BDE8F083484600F0E2FD002011B070
:10295000BDE8F08343140000F0B5DFF8304894F888
:102960009513002981B000F09E80B4F96C13B4F97E
:102970006E23914205461BD004F55471FDF75EFBB2
:1029800068B9D4F8600328B10069A84208BFD4F838
:10299000600304D004F556712846FDF74FFB38B1AB
:1029A000B0F930100A224FF0E043284600F0ACF9AD
:1029B00000F089FD0646D4F82803854207BF0021B0
:1029C000C4F828130020C4F82C0394F89503401E83
:1029D00084F89503C0B2002850D1C4F8985394F8F5
:1029E0008403022820D100F06EFD074694F894037A
:1029F00000F0F70084F8940394F89403010704D4DA
:102A0000082104F56E7000F0F6FD384600F080FDF8
:102A1000304600F07DFD4FF0FF3105F1500000F031
:102A2000A3FD00F050FD064604F56E7000F0D3FDE6
:102A300004F57D7000F045FD04F5826000F0CBFDEB
:102A400004F24C4000F03DFD04F58D6000F001FD06
:102A500004F2AC4000F0FDFCD4F8B01311B104F264
:102A60000450884704F59E6003F0BBFEDFF824079E
:102A70008178012904BF0D2003F019FDD4F89803D3
:102A8000A84204BF0021C4F89813304600F040FD6E
:102A900005F1500000F063FD05F1B80001B0BDE89C
:102AA000F04000F0D6BC01B0F0BD000000000440D2
:102AB0002DE9F04D00F007FDDFF8D04694F88413BF
:102AC00002291CBF94F88413042907D1DFF8AC282D
:102AD000146800F01DFD2046BDE8F08D00F018FDE3
:102AE000DFF89C08DFF89C8801680A6B904710F5B6
:102AF0000036D4F8800341F1000A0146A8FB067BAA
:102B0000002008FB0ABB3C184BEB01052C46204675
:102B1000BDE8F08DE91600002DE9F04F83B0824644
:102B20000F4615469B4600F0CEFC01906FF0010465
:102B3000DFF85886D8F82803824508BFD8F82C0358
:102B400030B1B83000F08DFC10B16FF00204ABE092
:102B5000FDF78AFA060000F0C780DDE90C4908F2AB
:102B6000AC4000F087FCB8F86C03401CC0F30B00CD
:102B7000A8F86C03F760002086F83200C6F808B0A9
:102B80002021B8F86C23DFF800083286C6F810A0C0
:102B9000204009EA0101C6E906014FF0000C86F861
:102BA00033C0C6E908CCEC6834642A7C86F844203B
:102BB0002B6873632A7986F83820AB68F3636A69F7
:102BC000B264AB69F3642A7F86F850206B7F86F885
:102BD00051302A7C22B9EA6812B1012386F84430C8
:102BE0002A79002A02BF3A7B02F00F02022A04D19E
:102BF000012286F83820BB687363082301E017467A
:102C00005B1E7A68002A18BF002BF8D13A8802F4BC
:102C10007C42B2F5305F0AD196F8332042F01002C0
:102C200086F8332040F00800C6E9060103E040F0D2
:102C30000202C6E90621D8F84803504507D198F8A2
:102C40004C03C10744BF00F0FE0088F84C03DFF8D6
:102C50003C0704686FF002050CB92C461DE0D8F85B
:102C6000642308F55670009008F55473D8F8601383
:102C70003046A0470446AC420FD0B8F96C03B6F911
:102C80003010884206D0B8F86C03411EC1F30B0126
:102C9000A8F86C1314F1020F0FD1B8F86C03411EA1
:102CA000C1F30B01A8F86C13C8F848A398F84C03BB
:102CB00040F0040088F84C0316E0B6F9304096F86E
:102CC000330040F0800086F8330000218AF8FC10C1
:102CD000D8F85003B0421FBFF168087B00F00F0026
:102CE000022808BFFDF7CAFC019800F011FC20463D
:102CF00003B0BDE8F08F00000100020401000104F0
:102D00000100022401000124F0B506460F463800F8
:102D100081B014461D4603D50020002101B0F0BD4E
:102D200000F05BFCDFF86424B2F930100023B942F4
:102D300004BF1169B14203D192F83310090659D486
:102D4000B2F988100123B94204BF916EB14203D198
:102D500092F88B1009064DD4B2F9E0100223B94263
:102D600004BFD2F8C010B14203D192F8E3100906B3
:102D700040D4B2F938110323B94204BFD2F8181174
:102D8000B14203D192F83B11090633D4B2F9901144
:102D90000423B94204BFD2F87011B14203D192F8B2
:102DA0009311090626D4B2F9E8110523B94204BFEC
:102DB000D2F8C811B14203D192F8EB11090619D427
:102DC000B2F940120623B94204BFD2F82012B14230
:102DD00003D192F8431209060CD4B2F998120723D2
:102DE000B94204BFD2F87872B7420AD192F89B1266
:102DF0000F0606D558214B43D71897F833201106F4
:102E000005D400F0FAFB0220002101B0F0BDD7E9A3
:102E1000082344F00A0445F0E04522402B4008BF57
:102E2000002A0ED000F0E9FBD7E908012040294034
:102E3000C6E92C01D7E9082382438B43C7E908235D
:102E400013E0BA68DFF848158A4204D0D7F808C002
:102E5000C6F8A8C0B960C6E9284500F0CEFB4FF01F
:102E6000FF3106F1500000F07FFBD6E92C0101B0E4
:102E7000F0BD000002000040D0B582B00446DDE99C
:102E80000667CDE90067FFF747FE0146204602B01E
:102E9000BDE8D0400A224FF0E04335E700B581B0ED
:102EA000930803F001030093530803F0010302F0B9
:102EB0000102FFF70BF901B000BD00B581B0930826
:102EC00003F00103009302F001020123FFF7FEF873
:102ED00001B000BDF0B500BF02A191E8FC5080E850
:102EE000FC50F0BDFFFFFFFF0000000000000000ED
:102EF000000000003A013A0100000000000000005C
:102F0000000000000022FFF7F4B90022FFF7F1B93A
:102F100000B581B06A46DFF88014FFF7EAF981282E
:102F200003BF0098000200166FF07F0001B000BDE3
:102F300070B50E46154600F0C6FA8324052E36D825
:102F4000DFE806F0030F15351F28DFF84824D2F814
:102F5000601321B1D2F860130A8E2A8028E0802401
:102F600026E0DFF8301491F820232A8020E0DFF8F3
:102F7000241491F88423022A0CBF01210021297016
:102F800016E0DFF81014D1F828232A60D1F82C13AA
:102F900069600DE0DFF8FC23D2F8281301B1C9689D
:102FA0002960D2F82C1301B1C968696000E00324DC
:102FB00000F0AEFA204670BD9412005070B4DFF8F5
:102FC000D423B2F9304000238C4204BF16698642F4
:102FD00003D192F83340250659D4B2F98840012331
:102FE0008C4204BF966E864203D192F88B40250630
:102FF0004DD4B2F9E04002238C4204BFD2F8C06045
:10300000864203D192F8E340250640D4B2F9384114
:1030100003238C4204BFD2F81861864203D192F890
:103020003B41250633D4B2F9904104238C4204BFBE
:10303000D2F87061864203D192F89341250626D4D6
:10304000B2F9E84105238C4204BFD2F8C861864238
:1030500003D192F8EB41250619D4B2F94042062378
:103060008C4204BFD2F82062864203D192F84342D8
:1030700025060CD4B2F9984207238C4204BFD2F83B
:103080007812814209D192F89B02010605D5582099
:103090004343D018C06870BC704770BC00207047B4
:1030A000CC2108402DE9F04B0E4682B096F9048001
:1030B00034688346174600F006FA344A92F8201323
:1030C00000906FF001094FF0000C012303FA0CFE91
:1030D00011EA0E0F06D04FF0FF35A84518BFE045A6
:1030E00000F006800CF1010CBCF1030FEED342E0BE
:1030F0005FFA8CF00328F5DA02EB401505F5307520
:10310000A87A0028EED121EA0E0082F82003AB72E3
:1031100085F809C00A2192F82203401C82F8220394
:10312000C5F800B02B7241486860298295F9090002
:10313000401DA874B068686100207FB13978787844
:1031400095F90930490141EA80015B1D41EA0321FB
:103150004FF6FC700140DFF844020843A86104B157
:103160006C60D2F8980310B92968C2F89813FDF77B
:1031700085FA95F90990009800F0CAF9484602B01E
:10318000BDE8F08B0F0000010F000005782900203A
:10319000002009404C600200110000E0071400000C
:1031A00057100000ED0F000025140000F0B581B0AD
:1031B00006460F46802400F086F9FFB2032F05462D
:1031C00027DADFF8D03103EB471101F53077B87A11
:1031D000F8B13968B1421CD193F88403022812D1A6
:1031E00097F90910D3F89803491D0906090C41F015
:1031F0008161002241F00101FFF77BF80446384667
:10320000FDF700F805E03846FCF7FCFFFDF736FA5D
:103210008124284600F07CF9204601B0F0BD000072
:1032200079120000B44F00504B0300000514000059
:103230002DE9F04107460D461646832400F043F978
:10324000092D804600F27E80DFE805F005081114A4
:10325000171C4153696E3068386074E0386960301B
:103260003861012178697976603078616BE0306887
:10327000788368E03168B98565E030684549C1F810
:10328000A40360E0306848B900F01DF9414991F8A5
:10329000942342F0800281F8942315E0012851D153
:1032A00000F011F906463B4890F8941301F07F01B5
:1032B00080F8941390F894130A0704D4082100F5B9
:1032C0006E7000F098F9304600F022F93BE0314989
:1032D00091F88403002804BFD1F85003002811D1CD
:1032E0003168192000F00AF931681A2000F006F957
:1032F00029E0284F97F88403002804BFD7F850032B
:10330000002801D000241EE0316807F56E7000F03F
:1033100076F9316807F5826000F071F913E03078D2
:103320001C4981F820030EE01D48436819000AD0AB
:10333000007A810607D51748D0F898033246202135
:10334000984700E00324404600F0E2F82046BDE83C
:10335000F0810000C112000030B5044683B0A068BF
:103360006A46FFF713F98328054604D1002269460F
:103370002046FEF7BEFF284603B030BD04300440AF
:103380008C01001000093D00FFEFFF9FAC1D0020E5
:10339000C712000078290020010003040100040680
:1033A0004C600200EFF31180202102E0EFF3118066
:1033B000002181F31188704780F31188704710B5A0
:1033C00001F028F801F0F4F900F016F8DFF85C4697
:1033D00004F10800A06602F0A7FD01F09FFB02F0D7
:1033E0005FF902F099FA01F013FE00F049FF01F0D5
:1033F00079FB0120207010BD10B5DFF8344694F839
:10340000080160B9012184F8081101F06BFB00216B
:1034100004F59A7001F068FBDFF81816086010BD1B
:10342000FEB5044613B901F0DBFC10E06D46002048
:103430000026002785E8C100986802901D788DF865
:103440000050586801906B46204601F0C9FC2046A8
:10345000FEBD01F0E5BC00F025BD0A20704701F07B
:10346000A9BC007D7047002181607AE081607047CF
:1034700001F092BC01F055BCF8B51C0086B00546C1
:103480000E46174603D1002300F010FF0BE000F0BA
:1034900012F8206801906B46606804903A4600F08C
:1034A00004F800F003FF07B0F0BD207A8DF80800A3
:1034B0003146284670476846DFF8C815182203F0E1
:1034C000C1BC00F024BF6DE701F002B8DFF8600571
:1034D00090F8F41002F0F2B810B5FFF763FF04465D
:1034E000FFF76AFF601E8041C00F10BD01F056B8A3
:1034F00070B501F05AFC6560266079E101F03EB8D4
:10350000002101604FF0FF320123426003727047D7
:1035100052E7FEB50446684600230025002680E8F1
:10352000680001278DF800706A46204602F00CF80A
:103530002046FEBD3EB5694600220023002481E8F6
:103540001C0001258DF80050DFF8EC2402F00CF887
:103550003EBD80B50090684602F01FF801BD02F044
:1035600010B801704160704780B501F04EFF00B99E
:103570005AE0002002BD01F0A9BF002101604160B6
:10358000C1604FF0FF318160704778B5140085B09D
:1035900005460E4603D1002202F0E3F813E0A068CE
:1035A000062804D310F1010F18BF00200BD101F041
:1035B000DCFA206801906A4660680290314600F0AB
:1035C00004F802F0CEF806B070BDE0680490A06880
:1035D00003902846704702F069B901F0A1B802F0E3
:1035E000BBB8DFF84C0490F8F410012901D1012098
:1035F00070470020704702F016B902F066B806293D
:1036000002D311F1010F01D102F019B9704708B4CA
:1036100000B501AB02F0BFFC5DF808FB02F0BBBCDB
:1036200003F062FC162101604FF0FF3002BD000084
:1036300030BF7047FCE738B503F060FC03F041FB96
:1036400002F04AFE044604F00C000C2802D1AFF34D
:1036500000803AE060071DD401F096FA054601218A
:10366000012002F043FE0A216943884212D2DFF8AA
:10367000F845183D656104F10C0001F08DFBAFF3D6
:103680000080012002F0CAFFAFF30080002084F820
:1036900020001EE0AFF30080200716D4DFF8CC1521
:1036A000DFF8CC050A68936898470428F6D0E1064D
:1036B00000D408B9012000E0002003F0E8FADFF8A8
:1036C000B40501210160006801E0FFF7B3FFAFF32B
:1036D0000080BDE8314003F015BCDFF8540390F8DA
:1036E000AC10012280F8AC200123DFF8C82511605E
:1036F00090F8141180F814315160704710B5DFF85C
:10370000B445606801F0E1FF206801F0F7BF0000F8
:10371000DFF8A415C20744BF01230B60820744BF32
:103720004FF480730B60400744BF4FF480320A604F
:10373000704710B5DFF88425C30748BF11608407C0
:1037400048BF5160400748BF916010BD2DE9FF415F
:1037500002280D460DD0012804D003F0C5FB00F06F
:103760007BFB42E0684600F0F8FB019A02980023D8
:1037700037E0FFF717FEDFF848450646207878B1B6
:1037800000234FF0FF320FF27101201D01F0B8FA53
:103790004FF0FF306061201D01F0CCFA0020207056
:1037A00000F032F88046E46A01F0B9FEDFF82065E7
:1037B000DFF82005B8FBF6F206FB128800FB048850
:1037C0003046B8FBF0F00023002112184B414AF2BA
:1037D000C5776743D21906FB10864B4142F2107041
:1037E0007043C5E90023A860002004B0BDE8F08163
:1037F000BDE87040FFF7E0BD10B5FFF7D3FD04460C
:1038000000F002F802F05AB980B501F0B4F9DFF81F
:10381000B0148A6A904202D2CB6A5B1CCB62886287
:1038200002BD0CB42DE9F84FDFF804A205469AF862
:10383000F400002684B00F4602280CBF4FF00108A8
:10384000B0469AF8AC00DFF80C4501218AF8AC10BC
:103850000090206838B90AF5A87B0021584601F08D
:103860003BF8C4F800B0009802F09DF8B9050EA826
:1038700003D546680EB90AF5BC76280000950AD033
:1038800003F048FB8346B8050AD571680129A4BF37
:10389000B068012804DA03F027FB1621016078E004
:1038A0000020B8F1000F019003D0206801F034F837
:1038B0008146009800F0D2F8050008D007F4206097
:1038C000B0F5206F09D103F00FFB112159E0B805C5
:1038D00003D403F009FB022153E001AB00220821CD
:1038E00000F05AF95FEA000A48D045BB01AB00225C
:1038F000242100F051F905003CD00120E8610BF1D2
:10390000010BB168696101AB7068286100225946FA
:1039100000F042F9286258B3009903F023FB716864
:10392000B06801AB002201F0D7FCA860D8B100213B
:103930006960606800B145602860656002E0E86920
:10394000401CE861B8F1000F03D02068494600F040
:10395000FBFFBF1307F00107CAF80050BF03CAF806
:103960000470504617E0296A11B15A4602F0D7FA9E
:1039700000F0A8F90822514600F0A6F903F0B4FAC5
:103980000C21B8F1000F016003D02068494600F017
:10399000DBFF4FF0FF3005B0BDE8F00F5DF80CFB2A
:1039A00070B500F017F804D203F09EFA7A21016096
:1039B0000EE04068420448BF0023A0681A4601F0A8
:1039C000DFFB08B1656903E003F08EFA0B210160AB
:1039D000284670BD046866694FF0FF33B2421D4649
:1039E000704738B500F01BF806D200F014F80FD17C
:1039F00003F07AFA7A210AE000F020F801F0E8FBFF
:103A000038B900F008F803D103F06EFA0B21016019
:103A100021E0002032BD94F8F400022870470368CA
:103A2000034C5D699542704700000000A825002006
:103A3000701B0020143A0020141D0020406842042E
:103A400003D494F8F400022801D0002201E04FF0E2
:103A5000FF32986870474FF0FF3032BD38B50546E9
:103A6000DFF8F002446800E024683CB1206A29468F
:103A700003F084FA0028F7D1204632BD002032BD81
:103A800000000000D447000080B5DFF8D8134FF4E1
:103A900000728A60142203F0D5F9002002BD0029CB
:103AA00018BF012901D0162070470161002070471E
:103AB00009684A1E052A01D316207047F6E04160C6
:103AC0008260002070472DE9F0438FB081460C469C
:103AD000174600269846099600F056F8C9F8006087
:103AE00009AB0022502100F057F805003ED0DFF866
:103AF00074034FF40071816004B904462068039098
:103B000060680490606800280CBFE1680021A2682A
:103B100001978918059102954FF0FF31CDF81C806F
:103B20000391206900B1012028636F63EE62AE63E8
:103B3000EE6305F148002168A9606E64002101F080
:103B400019FC0CA800F090F98DF830000CAA05F1D2
:103B5000100001F0F9FC09AA69460FF2411002F0C9
:103B600081F9E86020B9284600F086F80C2007E0CB
:103B70004763C9F800502168E86802F09FF8002008
:103B80000FB0BDE8F083000068460249242203F02C
:103B900059B900BF805B0200002002F0A7B938B518
:103BA000DFF8DC522969CC6B20646946012000F003
:103BB00023F802E0012100F04DF8606C0028F9D1F3
:103BC000204600F089F8206B20B904F1100001F0C4
:103BD0007DFC09E0287801212970DFF8C4120A6809
:103BE00022600C6001F0DFFE00F001F831BDE068FA
:103BF0004FF0FF3102F062B880B5DFF8EC21D2F867
:103C0000BC30DA6B002818BF012801D0162002BD95
:103C1000936B0B60906328B9D06B18B14FF0FF30F5
:103C2000FFF7BDFF002002BD10B5DFF8BC1191F811
:103C3000AC00012281F8AC20DFF864120C680CB1F2
:103C400022680A6001F0AFFE1CB12046BDE81040BA
:103C500012E010BD024613681069586411B19068F3
:103C60005168084770470000381E0020D801001036
:103C7000004003402C20094010B5044604F1100018
:103C800001F07FFCE06818B104F10C0002F015F9B6
:103C90002146BDE81040502201F079BB80B5CA68CA
:103CA000496B106C8847BDE8024078E7016000204E
:103CB00070470000B0380020042009401820094057
:103CC000201D002024222946002002F028B90000EF
:103CD000A0860100E00601002DE9F843DFF8089115
:103CE000044699F8AC00012189F8AC1004F14801B0
:103CF000A26C8A4203D1BDE8F24301F054BE01F048
:103D000052FE09F5C4794FF0FF31484601F07DFBC2
:103D1000A66C14E03746D7F81080BD683668384680
:103D200001F021FB404601F01EFB296800291EBF5F
:103D3000F868002888471C224146FFF7C5FF04F1B8
:103D400048008642E6D14846BDE8F24301F0BEBBDA
:103D500000000000B8380020204601F024BE0446D0
:103D6000002101F052BB2DE97F430E461446B26894
:103D7000DFF89C57AA4203D26946FFF7E7FC10B16F
:103D80004FF0FF302CE0D6E90023DDE90001DDE94A
:103D90000089101A63EB01014B450ADB01DC424547
:103DA00007D3B268029B002908BF002803D19342C1
:103DB00001DB002112E0D21A44BFAA18401E02F211
:103DC000E7324FF47A7192FBF1F109310A22DFF800
:103DD0004437B1FBF2F103FB0011491C21600020C4
:103DE00004B0BDE870830000701B002080B5114650
:103DF000B1F5803F01D3FFF713BC002201F0A4FB13
:103E0000002002BD80B501F061FB002002BD38B585
:103E10000D46FFF7A4FFA0B96A4629460120FFF727
:103E2000A2FF18B103F060F8162107E000992046C0
:103E300001F0EBFA28B903F057F891210160FFF780
:103E40000ABE002032BD80B500F002F8002002BD9D
:103E50004FF0FF3101F0D9BA162101604FF0FF3069
:103E600070470000501D002000210022002380E840
:103E70000E0001207047DFF864080178FDE70000BC
:103E80001C1C0020DFF85C0890F8F4007047DFF895
:103E90005428014692F8F40082F8F41070470000AC
:103EA000C0380020DFF83818D1E90023C0E900232A
:103EB0007047000000BFDFF82C08D0F8FC1008475E
:103EC000DFF82018D1F800211047DFF8180890F823
:103ED0001411012280F8142190F8AC1080F8AC2065
:103EE0000320D4E710B504460320FFF7D0FF204697
:103EF00002F033B880B5DFF8E4070178012901D07A
:103F0000FFF7B9FFDFF8E40702F014F8FFF74EFA05
:103F1000002001F0DAFBBDE8014001F015BD10B54D
:103F200088B001A80FF23C311C2202F08BFF022264
:103F300000218DF804200A248DF8101000910394BC
:103F400001ABDFF8A427DFF8AC0700F017F908B0E1
:103F500010BD0146DFF89C07F4E07FB501F052FA8E
:103F60000546684600F025F8DFF88417DFF8A065FD
:103F700048682060019B88680A681B1AD218626032
:103F80000298CB681B18B34203D3DFF87007521CAA
:103F9000C318A360626008698218626009688A4277
:103FA00002D22068401C206001F077FB002004B0A2
:103FB00070BD1CB50446DFF8400701680A6B9047E6
:103FC0000191009000200199616020600099090C26
:103FD0000091009ADFF83815A1FB0201000C40EABD
:103FE0000140A06013BD20B502460020D2E9102395
:103FF00047F6906102F0D6FF0125A94228BF4FF095
:10400000FF3020BD38B50C4602F078FF050018BF20
:104010000125DFF8EC060068811D201AB0F1004F81
:1040200005D8081BB0F1004F38BF8C4200D20C46B7
:1040300021460120FFF77DFBEDB20DB9FFF749BB2B
:1040400031BD2DE9F84C05460C46D5E910ABD5E954
:104050001267AAFB04010BFB041136184F41340C04
:10406000002244EA07412846FFF7CCFFC5E9146760
:10407000BDE8F18C38B50546FFF794F96D69044643
:10408000B5F5802F34BF04252D0CDFF874060068C9
:1040900045190120FFF73CFB29460120FFF749FBAA
:1040A000DFF8642613681D6823210020A847DFF885
:1040B0005C1601200860204600F09EBFDFF838063D
:1040C00001680A6B1047000010B504460120FFF795
:1040D0001FFBA069E169BDE8104008472DE9F047E2
:1040E00007460120FFF714FBD7E91601D7E9102591
:1040F000002610EB02084D414FEA184040EA054AFD
:10410000D7E914494FF0FF304FF6FF7108EA00027B
:1041100005EA0103204009EA01018B4202D82CBFC5
:1041200082420126324651463846FFF76BFFD7E9F7
:104130001601C7E91401C7E91685B869F969BDE830
:10414000F0470847F8B504460D46FFF7B7FFD4E936
:10415000106732463B4602F025FF3DB1A6FB002327
:1041600006FB013307FB0033C4E91223F2BD80B51F
:10417000FFF718F9FFF720F9002002BD2DE9F841FB
:1041800087B005460F4690461C46FFF70BF9DFF84F
:104190007465B16811B1FFF70FF930E0B560FFF752
:1041A0000BF90CB90FF2BC04EF60C5F81C804FF49A
:1041B00080316068A86169620020286200220023C3
:1041C000C5E91223217BA06801290CD16861002177
:1041D000A068C5E91001227868690021022A0CBF95
:1041E000024600220DE001460020DFF88C2302F099
:1041F000D9FE012291426861EBD3C5E9100100208C
:104200002CE0C5E91421C5E91601182201A8DFF840
:10421000001502F017FE029501AB2078DFF8F414C8
:10422000009100280CBFDFF8F024DFF8F0241421FF
:1042300005F1280000F059F804462846FFF797FFDB
:10424000287C10B92846FFF715FF2CB129463046C7
:1042500001F07BF8284601E00020B06008B0BDE81E
:10426000F08100000000000000000000E8030000F2
:10427000000000000000000000000000000000003E
:1042800038B5DFF8604404F18405287F68B901215E
:104290002977FFF787F8E16F2868C90800EBC101AB
:1042A0000839A1674FF0FF31A16631BDF8B5DFF8DD
:1042B0003464DFF890740446D6F89C000D4650F83C
:1042C0002510B9420DD106F5D2700090294620463E
:1042D00000F00BF840B1D6F89C0050F82510B94218
:1042E00001D10020F2BD2046F2BD1CB504460BB939
:1042F000DFF81C3404980090204600F00AF8010012
:1043000003D0204600F06DF80024204616BD0021A1
:1043100067E0F8B51746069CDFF82C2436290546D9
:104320001E4602DB002300930DE0DFF8B803E981AD
:10433000D0F89C3053F82100DFF80834984209D0B7
:10434000002300936C320B460021204601F0BEFD95
:104350000120F2BD084600F099F86F60706828608F
:10436000306910F1010F08BFFF2028730021307A57
:1043700000B10121307D08B141F00201A960284659
:10438000214600F003F800B1801CF2BD38B50446A8
:10439000217AB4F90E008A07054602D5217B20292F
:1043A00007D2616800F0B8F8B4F90E004042E0812D
:1043B0000AE0DFF83013D1F88C00DFF8841440F8FD
:1043C0002540284600F0A8F8217B284600F0D6F8C2
:1043D000207AC10744BF284600F07AF80020A06088
:1043E00032BD012900D1704710B5B0F90E40002C44
:1043F00048BF6442204600F049F8DFF848132046E1
:1044000000F08AF8DFF8DC12D1F88C20002042F8A6
:10441000240010BD70B5FEF7C5FFDFF82834DFF8C3
:104420002804DFF82814DFF82824DFF828440A607D
:104430001B1A8B60DFF82034C868186002461D68BC
:10444000A5420FD0002554F8256040F825606D1C6A
:104450000F2DF8DB0F20DFF8EC4242F82040401C23
:104460003628FADB5C68DFF8F40324F47F4404198F
:104470005C600A62202199764FF40070D860DFF802
:104480009004016821F04041016070BD10B50F2813
:1044900011D9A0F110011038012200F01F00DFF83F
:1044A000C033DFF870444909824053F8210044F8D2
:1044B0002120104010BD09D1DFF8881408680A686F
:1044C00022F0020200F002000A6010BD002010BDC0
:1044D0000F280FD9A0F110011038012200F01F00A1
:1044E000DFF87C334909824053F8210043F821204A
:1044F0001040704709D1DFF84C1408680A6842F090
:10450000020200F002000A607047002070470000BD
:1045100000CA9A3BA0860100DFF8C821D2F8883093
:1045200003EB800002688A4218BF0160704710B533
:10453000DFF8B041A06F02F05DFE0021A16610BD62
:1045400070B50246DFF80403836853600468946022
:1045500025462878BE2803D001200023136070BDB3
:1045600000200029F9D015F8016FBE2EFBD064425F
:104570002919491E5B1AF1E740420F00102805D3A4
:10458000DFF87024104400F8101C7047042804D38E
:10459000DFF8C424104400F8041C7047102803D32B
:1045A000DFF8181510380860704710B54D4B0FF242
:1045B0001504012283F86C2014B1BDE8104001E01D
:1045C00010BD000018B50446DFF8F4144868012255
:1045D0009FB00A7008B901AA4A60204600F014F89A
:1045E0000320FFF754FCDFF8DC04DFF8DC24036869
:1045F000A06B009003F0FF030F2B28BF7C3201F06B
:1046000044FA20B010BD0000F0B5364C226F04F122
:10461000F40501462E78167000230E6A16610020FC
:104620004F6A57618E6A9661CF6AD7610E681662CB
:104630004F6857628E689662CF68D7620E691663BC
:104640004F6957638E699663CF69D76301F140075D
:104650000E6B166457644E6B966404F184068F6B80
:10466000D764C96B11651778032F14D8DFE807F0FA
:1046700009070210B06B5060C36A806A0BE0E86AF9
:1046800006E0B06801F0FF0150F82110516000E031
:104690005060E36F3068D0609360616F39B100287B
:1046A00004E013F8014B01F8014B401EF9D1DFF88B
:1046B00014040168DFF8F8045165037893654178C4
:1046C000D165438813664168516683689366C16803
:1046D000D1660369136740695067F0BDA8250020C3
:1046E000501C0020701B0020C54C0000CB3E000079
:1046F000C4380020B02500208C010010003665C4AD
:1047000030200940641D00208401001080022443F1
:10471000D4470000141D0020DD400000C940000007
:10472000DFF8F41391F81401012281F81421704785
:10473000DFF8E41391F8AC00012281F8AC20704757
:104740000000000019250200343502002DE9F04177
:1047500000F058FEDFF8C07397F8AC50012087F8DE
:10476000AC0097F8146187F814010020FFF78FFB65
:104770008046D7F88C00DFF84C130A6802F0FF027D
:1047800050F82270BC60FEF711FE386879688847DF
:10479000FEF708FE4046FFF77AFB06EB0520BDE872
:1047A000F08100F0FF0000F0ACBF000A01F016B984
:1047B000F8B5002101A8FFF7C3FE0398009004E0BC
:1047C000BE2101700099491C009100986845F7D3FB
:1047D00005B000BD00000000000000000100000066
:1047E00000000000E00000000100000070B5049C23
:1047F000059D069E8908491E40F82140491E40F843
:104800002130491E40F82120491E40F82160491EF0
:1048100040F82150491EDFF8642940F82120491E44
:104820004FF0FF3240F8212000F01CF800F01AF899
:10483000491E40F8212000EB810070BD00000000FF
:10484000F523020000400120003C0120EC1B002069
:10485000003C01200000000008ED00E00000FA0527
:1048600000E100E0491E40F82120491E40F82120C7
:10487000491E40F82120491E40F82120491E40F8D9
:104880002120491E40F82120491E40F82120491EC0
:1048900040F82120491E40F82120491E40F82120DF
:1048A000491E40F8212070477FB504460D46A16A95
:1048B000164619B1E06ABE2202F0C8FCE16B029113
:1048C0003346A06B01900095A16A626BE06A091FF4
:1048D000FFF78CFF04B070BD10B5044609B90FF2A4
:1048E000740100F002F8204610BD10B50446002205
:1048F000012104F10C0000F027FE0021A1602146F7
:10490000BDE81040DFF8140900F01FBD00000000F2
:1049100034EF00E080E100E038B504467E4DA06849
:10492000D5F8BC2090420AD04FF0FF3104F10C00C2
:1049300000F06BFDD5F8BC00A060002032BD012066
:1049400032BD000010E000E019B981600C3000F0C9
:10495000BDBD70470000000010B504460120A060F6
:10496000002121610022E26004F1140000F002FD48
:104970002146BDE81040DFF8140900F0E6BC000055
:10498000F8B50646DFF80809046984B09CB165698A
:10499000077801210170B068012807D10021B160BA
:1049A0003461F56000F03FFC002020E03069A04257
:1049B00003D100F038FC012019E0204601F0D2F9C3
:1049C000002102940391C4F824D02A46694606F1D6
:1049D000140000F043F830694069A84203DA3069F6
:1049E000294601F06BF900F01EFC0020606205B062
:1049F000F0BD000000E400E070B5DFF89428054643
:104A0000106938B314780123137009BBE96842694F
:104A10009142BCBFE96801F051F9686905F11401E0
:104A2000884202D10122AA6012E0686901686961C6
:104A300005F114024A6086682E617069E860FEF72D
:104A4000B1FC05462946304601F0BCF900F025FED0
:104A500000F061BD70BD000018ED00E010B5034628
:104A6000186800E00068984207D08468646994423E
:104A7000F8DABDE8104000F061BCBDE8104018460F
:104A800000F04EBC10B5044609B90FF22C01FFF737
:104A900063FF204610BD10B500F0A2FA00F002FF3F
:104AA00018B12146BDE81040ECE710BD0FF2080137
:104AB0000A680260704700000000000000EF00E09C
:104AC000DC1B002004ED00E05C330200806902F092
:104AD000CFBC806902F0CEBC806902F0CDBC806999
:104AE00002F0CFBC02F0BEBC10B504460020A061AD
:104AF000DFF8CC18DFF8CC28DFF8CC082160626042
:104B0000A06004F11001DFF8C428DFF8B009E2600A
:104B100000F01BFC204610BD701B002018B5DFF80C
:104B2000104A94F8650085B0E8B9012284F8652040
:104B30000021204600F01EFC00F0B2FD00F015F848
:104B40000520039004F5D2736A460FF2E10104F1E7
:104B5000100000F08DFEE064FFF7E1F9DFF8D40902
:104B6000FFF741FAA06506B010BD6846DFF8C81926
:104B7000142202F067B938B5FEF714FC0446002091
:104B8000FFF7E7F905460EE038B5FEF70BFC0446E3
:104B90000020FFF7DEF9DFF898194D6D2D1A886DAA
:104BA000A84238BF00252046FEF706FC284632BD45
:104BB00028ED00E038B504460D462146DFF87409BB
:104BC000FFF73FFADFF868090465456531BD2DE957
:104BD000F8430446DFF858090768D7F804800D4603
:104BE0004FF0FF391BE03E463F68307D012816D16B
:104BF000012C04BFF168A94209D1306900281DBF0A
:104C00004118F16030623075F069B1698847307DD4
:104C1000012804D1F068401B484598BF81464745AC
:104C2000E1D14846BDE8F283000000002DE9F843D9
:104C3000FEF7B8FB80460120FFF78BF9DFF8F0584C
:104C400005F15C0601213170002272706F6DAA6857
:104C5000A968C41B401ABA1A904202D200203070D0
:104C60002BE000F06BF94FF0000907E04F443946A4
:104C70000120FFF7ACFFA4EB090481464C45F5D2B7
:104C8000FEF790FB80467078012804D13946002059
:104C9000FFF79DFF8146A86D19F1010F05D0A86DA2
:104CA000A9EB0404A04288BF2046C119FFF782FF88
:104CB00001200021B0703170AF604046BDE8F24382
:104CC000FEF77ABBDFF86808C06C00F081BD38B52C
:104CD00004461D46A260002268682061A161214649
:104CE000A868E0612275DFF8480800F02EFB2878FC
:104CF00018B12046BDE832404EE031BD38B573E111
:104D00008260816100220261C36102750146DFF8A1
:104D1000200800F01ABB000082608161002202615D
:104D2000C3610021017570470146DFF80408F7E20E
:104D300000F019BB70B50446DFF8F467A068206284
:104D400006F15C05A978012904BF2878002816D14E
:104D50000120FFF7FEF8B168736D0246B0681B1AB8
:104D6000511A8B420BD3A0688118E160012323758F
:104D7000746DA21A90420DD2BDE870401AE7FFF799
:104D8000FAFEA1680818E060012020752978012941
:104D900008BF687070BD000038B500F033FB0546F1
:104DA0002046FFF7C7FF26E1BBE704460D4616463F
:104DB000FEF7F8BA70B500F025FB0646207D002509
:104DC000012807D1FFF7D7FEE5682D1A206AA8420F
:104DD00038BF002500F0A3FB284670BD00F0AEBB35
:104DE00010B504460BB90FF20C03FFF770FF204615
:104DF00010BD0000000000000000000000000000E6
:104E000070B504460D4616460022242100F04BFDE5
:104E100028B133462A462146BDE87040E0E770BD20
:104E20006CE710B504460022A260002104F10C00DA
:104E300000F0A0FA2146BDE81040DFF8E00984E266
:104E400038B500F0DFFA0546207C022804D1204660
:104E500000F089FA00F0D0FACDE010B583688468DC
:104E60001A400C408C4208BF0A4312B1816891433A
:104E70008160104610BD2DE9F0431C4691B081467B
:104E80000D46174614F1010F18BF002C0CD06B46CD
:104E90002246DFF8D81908A8FFF73EFF08A902222A
:104EA00003918DF8102004E00020032103908DF879
:104EB00010100021DFF8D863069507970591306937
:104EC0000290FEF76FFA80463A4629464846FFF7B9
:104ED000C4FF050003D000F031F828462BE01CB9D0
:104EE00000F02CF8002026E034780120307069466C
:104EF0000298416209F10C0000F012FA029800F0E9
:104F00003AFF039820B1FFF70FFF0398FFF712FF56
:104F100000F014F8FEF720FFFEF744FA0446039869
:104F200018B1FFF705FF0020039000F0C9FA9DF8C3
:104F3000100000B1059811B0BDE8F0834046FEF7BF
:104F40003BBAF8B505460E46FEF72CFA0446A868AB
:104F50000643AE6005F10C00E968814202D12046AB
:104F600000F097BBDFF8C80590F8AC6000F01CF8C3
:104F70002846EF68FA69B969FFF76FFF786160B199
:104F8000384600F0F0F901203874F86808B10021C3
:104F900001752146B86800F015FF00F041FC30466D
:104FA000BDE8F24000F0FFBC012180F8AC10704772
:104FB00010B5044609B90FF20C01FFF732FF204685
:104FC00010BD00000000000010B500F009F8142129
:104FD00000F069FC18B12146BDE81040E8E710BDBB
:104FE00004460B46002270470446FEF7DBF90546EF
:104FF000204600F0B8F92846BDE83240FEF7DCB99B
:1050000021681422002000F08AFF0020206010BDDB
:1050100078B5DFF82449207889B0E0B901252570FA
:10502000FEF7B2FD4FF44072059204F160010FF2F9
:105030002C0204910092002603968DF82050002344
:105040006A460FF23901201D00F0F6FEDFF8E01489
:10505000201DC1F8D8000AB070BD000074692E731D
:10506000797362696F732E6B6E6C2E5461736B2E45
:1050700049646C655461736B0000000080B500F0FA
:1050800001F8FCE710B5DFF85049206880476168F7
:10509000BDE810400847FEB51E46054670696861C8
:1050A0000F463468EF6011460022AC602961A961A7
:1050B000EA61083758B9FF1DFF08089BFF007943D4
:1050C000204600F013FFE86108B90120FEBD002171
:1050D00005F1280000F04EF9002105F1200000F054
:1050E00049F93946284600F0BCF8684600F01AF83D
:1050F000746801946A46B068029005F1300000F0CF
:1051000023FAF06801906A463069029005F14C007C
:10511000296900F019FA2946DFF8F40800F015F9BA
:105120000020FEBD00210022002380E80E00704711
:1051300010B5012904461FD0E16941B1E268206938
:105140000F32D208D2004243A06800F0E8FE04F11A
:105150002801E16204F12800A06204F120016162EB
:1051600004F12000206204F14C0000F00AFA04F17E
:105170003000BDE8104004E210BD0000397E0000A0
:1051800070B500F01FF8E0B104F1200000F0C9F89C
:105190000646E26806F10801284601F043FEFEF7E4
:1051A00001F90546314604F1280000F0B9F8A0697C
:1051B000401CA06100F071FA04F14C0000F086F987
:1051C000012070BD04460D46114604F130001CE17B
:1051D000F8B500F040F8F8B1FEF7E4F800F026F872
:1051E00003D1FEF7E9F80020F2BD00F029F800F045
:1051F0002CF8DFF83C0390F8AC7000F093F9064609
:10520000294604F1200000F08BF800F009F800F0C6
:1052100086F900F008F80120F2BD0000701D0020A2
:1052200004F1300052E1384600F0BDBBA56A2968A0
:10523000A16204F128024A6004F128018D427047FE
:10524000A169491EA161FEF7B7B8E268314605F1D0
:10525000080001F0E7BD04460E46114604F14C007B
:10526000D3E0F8B505460E466C6904B9EC69002731
:1052700006E0214605F1280000F067F834447F1C61
:1052800028698742F5D30020F2BD0000781D002078
:105290001C1C00201CB504460BB90FF22003049817
:1052A00000902046FFF7F7FE010003D02046FFF7ED
:1052B0003FFF0024204616BD000000000000000053
:1052C00000000000000000000000000000000000DE
:1052D00000000000000000002DE9FC4100F013F880
:1052E000682100F0E0FA04000AD0009743463246F5
:1052F0002946FFF7CFFF18B9682200F0CFFA002443
:105300002046BDE8F68105460E4690461F4600221F
:1053100070470168814201D1012070470020704729
:105320000DE038B500F06EF82568296821602A681C
:105330005460FFF739BC40600060704700BF4268AE
:1053400008604A6011604160704738B500F007F8A6
:105350002C60616869606268156065604CE60446AF
:105360000D46FEF71FB80168426811604168006889
:1053700041607047DFE710B5FFF732FE082100F00B
:1053800092FA18B12146BDE81040F3E710BD0020A5
:1053900000F0C5BD10B5044610782074618204F198
:1053A00014000021FFF7E6FF0021A1600120214643
:1053B000E060BDE81040DFF8FC08C6E70000000030
:1053C000CD4A0000D34A0000DF4A0000D94A00005D
:1053D00000BF00F11401816100F1140242617047C5
:1053E00038B500F00FF80546207C022803D100F004
:1053F000D2F800F001F8FEE5002020742946A068EC
:1054000000F0E0BC0446FDF7CDBF70B50C468EB091
:10541000054614F1010F18BF002C0AD06B46224636
:10542000DFF8941805A8FFF777FC05A9039102227D
:1054300002E00021039103228DF81020FDF7B2FF56
:105440000646688A002831D11CB900F068F80020AF
:1054500032E0DFF80C090478012101700069029044
:10546000C0F824D000F087FC694605F11400FFF76E
:1054700057FF9DF81000022805D10398FFF754FC50
:105480000398FFF757FC00F04AF8FEF765FCFDF7BC
:1054900089FF0446039818B1FFF74AFC00200390E7
:1054A00000F00EF89DF8100030B104E0688A411E4B
:1054B000698200F034F801200EB070BD801D00201C
:1054C0000020029948622046FDF776BF70B5054678
:1054D000174890F8AC4000F025F80646686905F1D9
:1054E0001401884207D1287CC1074EBF0120688A79
:1054F000401C68820DE06A691068686141600120A3
:105500001074D06808B1002101753146906800F030
:1055100059FC00F004F82046BDE8704043E23046F4
:10552000FDF74ABF012180F8AC10FDF73BBF00003A
:10553000701B0020B02500208858000000210022A8
:10554000002380E80E00704710B504460AB90FF238
:105550000C02FFF71FFF204610BD000000000000F6
:10556000000000000000000038B504460D46134658
:1055700000F097F920B12A462146BDE83840E3E71C
:1055800032BD38B50446FFF723FFFDF70BFF054694
:1055900000F001F82FE52046E5E610B50446206846
:1055A000FFF7EFFF21681C222CE50000B0FA80F025
:1055B000C0F11F0070472DE9F843044604F12800AC
:1055C000DFF86058C168D5F81080EF68AE682961CF
:1055D000EC6000238168A96000214268826001704C
:1055E0002B700120FEF753FC8146FDF7DFFEE169D9
:1055F000A06962699047FDF7D5FE4846FEF747FC73
:1056000001202870C5F81080EF60AE60BDE8F1831E
:1056100038B5DFF82048E5682068FFF7C7FF216943
:1056200001EBC00100F091F803D12168426A914377
:105630002160FFF7C0FF206830B1FFF7B7FF216995
:1056400001EBC0018D42EDD331BDF8B5DFF808683C
:1056500006F58A742769FDF7A5FE05466068FFF721
:10566000A5FF616901EBC00087420FD296F8AC70CC
:10567000012086F8AC00DFF8E40701F0ABFD002064
:10568000207000F00AF83846FFF78ABC002020702E
:105690002846BDE8F240FDF78FBE2846FDF78CBED8
:1056A00038B5DFF8BC47207A38B9012121720025CE
:1056B00000F044F96D1C062DFAD331BD481E80411F
:1056C000C00F7047FFF72CB80000002800D07047CB
:1056D00010B5FDF767FEDFF8804704F58A72516860
:1056E00021B1FDF769FEFFF7B0FF02E01170FDF791
:1056F00063FE94F8AC00012184F8AC10BDE81040C2
:1057000051E1002800D0704738B5DFF818476068CD
:10571000C0B1FDF74BFEFDF745FE25696068FFF758
:1057200045FF616901EBC0018D420BD200F00DF81D
:1057300003D16168426A91436160FFF73CFF606892
:105740000028ECD10020207031BD086802680A6092
:1057500051600A688A427047DFF8FC06D0F81C01E5
:10576000704710B50446DFF8803700F081F86069B3
:1057700000B90024204610BD38B5406000601368B1
:1057800041610361516881619368C361D16811F11E
:10579000010F08BF05210162012303FA01F14162F3
:1057A000002400F128010C7013698B6012694A60B3
:1057B000DFF8A426046AD2F8283103EBC405CD60D3
:1057C00000F1080102F58670FFF7BFFD002032BD31
:1057D0002DE9F0418046FDF7E5FD08F1240504467A
:1057E000287920B12046BDE8F041FDF7E5BD012054
:1057F000DFF83076287141463E7838702869FFF727
:105800008FFD796828680143796000F009F816B9BE
:10581000BDE8F04119E7BDE8F0810000881D0020D7
:105820002046FDF7C9BD38B5FFF799FD216B0D4343
:105830002563FDF7C1FD2046BDE83240C8E738B515
:105840000D46044615F1010F08BF0525FDF7AAFD19
:105850000121A94061622562DFF8FC25D2F82811F8
:1058600001EBC5036363FFF7C7BB0000414E0000B7
:1058700010B504460AB90FF21002FFF77DFF00B120
:105880000024204610BD00000000000000000000C1
:10589000000000000500000000000000214600F0AC
:1058A0003EBB00221C21002000F020BB38B5FFF7D2
:1058B000A9FD00F0FDFAFFF79EBB70B5DFF8CC46FE
:1058C0000020207101E000F096FA20680028FAD04C
:1058D0002068FFF76BFE6169226901EBC00082421C
:1058E0000ED2E56820610068E06006463146284631
:1058F00000F090F806F11C0105F11C0002F090FA8E
:1059000020790028DCD170BD10B5DFF85444207A2E
:1059100008B1FFF7D2FF58E038B5DFF8D447207E52
:1059200038B901212176002500F008F86D1C062DFC
:10593000FAD331BD000000001826002022680021A3
:1059400002EBC500FFF716BD10B596B0FDF72AFDB6
:10595000DFF8384601E000F04EFA20680028FAD05F
:105960002068FFF723FE616901EBC000206101465A
:105970000868E060002020710220FEF788FAE168E4
:10598000002000F047F8FDF711FDFDF70BFDFEF7D5
:10599000CEFDE06800F11C0107A802F041FA16B044
:1059A00010BDFEF7C5BE002800D0704710B5FDF74A
:1059B000F9FCDFF8A40400F1AC04217A012902BF4C
:1059C00090F814010028FFF778FF00202070BDE850
:1059D0001040FDF7EBBC0000681B0020002800D041
:1059E000704710B5DFF8700400F1AC04217A01298A
:1059F00002BF90F814010028FFF75FFF002020701D
:105A000010BD000000BFDFF85004D0F8BC007047A4
:105A1000901D0020BCB504000F4635D0E06ADFF8C9
:105A2000D4560178BE2905D00022009223462A468A
:105A300000F02BF8F86A0178BE2907D0002000900A
:105A40003B4605F16002002100F040FAE06A01A93E
:105A5000814222BFA26A8018884207D20091234661
:105A600005F1C0020021002000F030FAF869FA6A5E
:105A7000904222BFBB6AD218824205D200903B46B8
:105A800005F5947200F001F8B3BD002100201DE27D
:105A900090F84800012800D0704710B5FDF782FC4F
:105AA000DFF8B4130446D1F8B800401EC1F8B800BE
:105AB00004D1FFF7B5FE0020FEF702FA2046BDE84C
:105AC0001040FDF779BC70B5DFF82C060469057845
:105AD00001210170FDF766FC0646204600F04BF9F7
