:1000000000400120957E0200A53F0200A53F0200AE
:10001000A53F0200A53F0200A53F0200A53F020048
:10002000A53F0200A53F0200A53F0200A53F020038
:10003000A53F0200A53F0200653F020070B50446DF
:100040000E4603F04EFA3168002549B111B10A6934
:10005000A24203D009680029F8D101E00D46F9E772
:1000600003F064FA284670BDDFF8082892F83300E0
:100070000021030604D4582010FB01F150187047EA
:1000800092F88B0001210306F5D592F8E3000221D6
:100090000306F0D592F83B0103210306EBD592F855
:1000A000930104210306E6D592F8EB01052103062E
:1000B000E1D592F8430206210306DCD592F89B02B3
:1000C00007210306D7D5002070472DE97043064667
:1000D00014461D4603F005FA6EB1D6E90A23224301
:1000E0002B43C6E90A23D6E9088948EA040449EA09
:1000F0000505C6E90845BDE8704303F017BA30B5F9
:1001000081B004460D4602F0DDFCA04231BF241A46
:10011000641E241A641CA40805F57A70A04238BF36
:10012000B4F1405F06D2641B012C98BF0124204625
:1001300001B030BD002001B030BDF0B5DFF834377C
:1001400004460025D3F85003012981B024D100E0F2
:100150000068002852D0C668377B07F00F07022FCF
:100160001AD00068002849D0C668377B07F00F070F
:10017000022F11D00068002840D0C668377B07F0F6
:100180000F07022F08D00068002837D0C668377BD9
:1001900007F00F07022FDBD180B3012502B11060F9
:1001A000C268167B06F00F06022E27D1012904D162
:1001B0000169CA68898D511813E0118840F603025D
:1001C00091421CBF40F60406B14207BF01694A696B
:1001D00001690A69498B93F822335118192212FBDD
:1001E0000311406BFFF78BFF20600A20C046216897
:1001F000B1FBF0F0206001B02846F0BD0020206087
:1002000001B02846F0BDF0B581B0044603F069F9AD
:100210000546002C1CBFA07A002833D0DFF85826F2
:1002200094F9090013680126DF0706FA00F10ED5DC
:10023000DFF8482613681F0609D5DFF844265368FF
:10024000113006FA00F0C0430340536010600020F4
:10025000A072207220606060C4E90400DFF81426F8
:10026000A06194F9090092F8203386401E4392F869
:10027000220382F8206310B1401E82F82203C8B224
:1002800000F063F9284601B0BDE8F04003F04EB934
:100290002DE9F04700241125DFF8E465DFF8D48567
:1002A0004FF00109E0B2032806DA08EB401101F52E
:1002B0003077B87A012805D0641C032CF2D3BDE84E
:1002C000F08700BF97F90900113009FA00F0C14327
:1002D000316072681043706097F9090009FA00FAFA
:1002E00003F0FFF898F894134AEA010A88F894A3F7
:1002F00003F01CF998F8840302280DD107F11000CF
:1003000005F08CFF00F0FF00012805D1B869C8B1E5
:1003100098F8841302290FD098F8210397F909104F
:1003200005FA01F1084388F82103002108F58260ED
:1003300003F06FF9C0E700BF05F070FF00F0FF00A9
:100340000128E9D10220B872B6E730B5042881B09F
:1003500020D1DFF8204504F58D60007DC046C8B18E
:100360000A20C046054604F58D6003F086F8454333
:10037000B5F5967F0ED204F58D6003F089F805205F
:1003800006F047F9012084F89103042104F56E700A
:1003900003F03FF9002001B030BD70B5044603F012
:1003A000A0F8DFF8D064054696F84C0320EA040470
:1003B00086F84C430024D6F8280320B1B830007DDD
:1003C000C04600B10124D6F82C0320B1B830007D1E
:1003D000C046044319D196F84C03002808BF002CEE
:1003E00013D1D6F8480380B190F828108A070CD5AD
:1003F000446A284603F09AF8D6F8480300220221FE
:10040000A0470020C6F8480370BD2846BDE87040EC
:1004100003F08CB8F0B400290CBF01230023002A9C
:100420000CBF01250025002839D02C0004BF90F80E
:100430004440002C33D000291CBF91F84440002CCC
:1004400012D0446B0E6C07690969A408A4EB9604EA
:100450000026B94218BFFE68A41B04F18054B4F111
:10046000805F88BF012301D8190018D0BAB1D168C4
:100470000C7B04F00F04022C11D1516B046C126937
:1004800000698908A1EB94010024904218BFD46848
:10049000091B01F18051B1F1805F88BF012503EA9A
:1004A0000500F0BC7047F0B581B01E466FF0020742
:1004B0008DF80070054634682246FFF7ABFF10B197
:1004C00001208DF800009DF90000B84201BFE968E5
:1004D000087B00F00F0002280CD100E024684CB12A
:1004E000226821462846FFF795FF0028F6D0022013
:1004F0008DF800009DF90010B94204D1E86B10B1ED
:1005000004218DF800109DF90070012F06D12946B5
:10051000304606F07DFB384601B0F0BD022F09D110
:100520002268002A2946304608D006F04EFB38469D
:1005300001B0F0BD042F03D12946304606F058FB28
:10054000384601B0F0BD0020704730B581B0044698
:1005500002F0C7FF0546C74890F8941321EA040447
:1005600080F8944390F89423110704D4082100F5EF
:100570006E7003F04EF8284601B0BDE8304002F03E
:10058000D5BF2DE9F04F064681B000203060002431
:10059000DFF8E0A2DAF8500318B3C1680A7B01243F
:1005A00002F00F02022A1CD10A88192140F6030327
:1005B0009A421CBF40F60405AA4219BF026913699A
:1005C00002695369528B406B9A189AF8223311FBD7
:1005D0000321FFF794FD05460A20C046B5FBF0F85D
:1005E00001E04FF0000800254FF0FF390027F8B276
:1005F000032805DA0AEB401101F53072907A18B938
:100600007F1C032FF3D325E0107A012502281FD089
:10061000DAF898030169408B01449AF82203192300
:1006200013FB00115069FFF76AFD83460A20C0469C
:10063000BBFBF0F04845E3D88146E1E7C8450DD95A
:10064000C8464146316045EA040001B0BDE8F08F7C
:100650004FF0000931682C42F0D134B1414631608D
:1006600045EA040001B0BDE8F08F05B149463160AC
:1006700045EA040001B0BDE8F08F2DE9F04FDFF846
:10068000F4AB81B09AF88413022905D101B0BDE81A
:10069000F04F192002F038BF9AF8840301281CBFDC
:1006A0009AF88403042800F0888002F01AFF009072
:1006B0000024DAF85003002518B3C1680A7B01252D
:1006C00002F00F02022A1CD10A88192140F6030306
:1006D0009A421CBF40F60406B24219BF0269136970
:1006E00002695369528B406B9A189AF8223311FBB6
:1006F0000321FFF704FD06460A20C046B6FBF0F8CA
:1007000000E0A04600264FF0FF390027F8B203288A
:1007100005DA0AEB401101F53072907A18B97F1CA6
:10072000022FF3D91EE0107A0126022819D0DAF838
:1007300098030169408B01449AF82203192313FBA3
:1007400000115069FFF7DBFC83460A20C046BBFB63
:10075000F0F04845E3D88146E1E744464C4508D9E6
:1007600006E0A1463542F8D10DB1444601E006B19C
:100770004C46354317D064B12146012998BF012169
:100780000AF58D6002F080FE0AF58D6002F07EFEB3
:100790000DE00AF58D6002F07BFE04210AF56E7013
:1007A00002F037FF03E00AF58D6002F071FE009859
:1007B00001B0BDE8F04F02F0B9BE01B0BDE8F08F66
:1007C00030B585B001460022039201920492029254
:1007D00040F602038C68487E62802288D21A09D0D3
:1007E00041F21E03D21A05D041F6E673D21A012A4D
:1007F0000FD91CE0258A4FF6FF322A4022820028BA
:1008000019BF4FF60F4002402D2060F309122282DB
:100810000DE0238B4FF6FF321A402283002819BFC8
:100820004FF60F4002402D2060F309122283002072
:10083000487602AD009504AB01AA03A9204601F059
:1008400019FE50B1039A10884FF6FF71884204D107
:100850000299019801F080FD03E00299019801F0EE
:10086000C1FD0448D0F8AC1309B10198884705B020
:1008700030BD0000882900204021084000000440CD
:10088000081004402DE9F04F85B00027DFF8E45947
:100890000397D5F850630297002E6CD0D5F8640307
:1008A000002804BFD5F86003002844D1012787F051
:1008B000010903AA494602A8FFF73FFC01005CD1E9
:1008C0000446DFF8B409D0F80480B8F1000F18BF6F
:1008D000002C00F0F7820298002840F0F382D5F84F
:1008E000641303980190CDF8009005F55673D5F880
:1008F000600305F55472C047012800F0E481022826
:1009000040F0E082D5F86013D5F86003B1F93040CB
:10091000D0F8108002F0E5FD4FF0FF318C428246A6
:100920004AD1D5F8600300283AD00069404537D154
:10093000D5F860638CE0D5F860030028B7D0D5F80F
:100940006013086931698842B1D196F83300C10655
:10095000ADD5D5F864030028A9D10127D5F86003E7
:10096000C16848880028F9D0D5F86003C168488874
:100970000128F3D09BE7022132E3002FA0D1029996
:1009800000299DD0022938BF012105F58D6002F0B4
:100990007BFD05F58D6002F079FD05B0BDE8F08FB7
:1009A000D5F8640328B10069404508BFD5F86463F1
:1009B0004ED0D5F850634BE0B5F930000021A0428D
:1009C00004BF2B69434504D1582010FB01F16E1878
:1009D0003EE0B5F988000121A04204BFAB6E43455B
:1009E000F2D0B5F9E0000221A04204BFD5F8C03032
:1009F0004345E9D0B5F938010321A04204BFD5F839
:100A000018314345E0D0B5F990010421A04204BF5C
:100A1000D5F870314345D7D0B5F9E8010521A0429A
:100A200004BFD5F8C8314345CED0B5F94002062100
:100A3000A04204BFD5F820324345C5D0B5F998028D
:100A40000721A04204BFD5F878224245BCD0002639
:100A5000002E00F0368196F83300010640F1318116
:100A6000D5F86003864271D1D5F8600300224FF0BB
:100A70000053FFF72AFBD5F8640300224FF0005320
:100A8000FFF723FBDFF8880905F0C8FBD5F8600302
:100A900000224FF08073FFF718FBD5F864030022A3
:100AA0004FF08073FFF711FB306995F84C13D5F8C0
:100AB0005073C5F8480341F0010185F84C133846DE
:100AC00000E00068002800F0FC80B84211D0006807
:100AD000002800F0F680B8420BD00068002800F033
:100AE000F080B84205D00068002800F0EA80B842E3
:100AF000E7D1002800F0E5800446266814B120699B
:100B0000404503D03400F8D1504607E200224FF0B0
:100B100080532046FFF7D9FA00224FF08073204619
:100B2000FFF7D3FA95F84C133869C5F8480341F03C
:100B3000010185F84C1305F55470214606F07BF849
:100B4000214605F5567006F053F8DBE7D5F8640347
:100B5000864262D1D5F8640300224FF00053FFF7BC
:100B6000B4FADFF8F00805F059FBD5F86403002269
:100B70004FF08073FFF7A9FA306995F84C13D5F858
:100B80005073C5F8480341F0010185F84C1338460D
:100B900000E00068002800F09480B84211D000689E
:100BA000002800F08E80B8420BD00068002800F0CA
:100BB0008880B84205D00068002800F08280B842E2
:100BC000E7D100287DD00446266814B1206940454D
:100BD00003D03400F8D15046A0E100224FF08053FA
:100BE0002046FFF772FA00224FF080732046FFF78D
:100BF0006CFA95F84C133869C5F8480341F00101C7
:100C000085F84C1305F55470214606F014F821467A
:100C100005F5567005F0ECFFDBE7D5F850430FE023
:100C20002468002C4DD0B4420ED02468002C48D04B
:100C3000B44209D02468002C43D0B44204D02468C4
:100C4000002C3ED0B442EBD12768CDF80080B346EB
:100C5000002600E0276820690099884220D1002200
:100C60004FF080532046FFF730FA00224FF0807398
:100C70002046FFF72AFA95F84C13DBF81000C5F868
:100C8000480341F0010185F84C1305F554702146E5
:100C900005F0D1FF214605F5567005F0A9FF761C39
:100CA0003C00D7D1002E1FBF95F88403012895F88A
:100CB0008403042805D0DFF8681805F56E7002F08B
:100CC000A8FC50462AE1039800B10646B6F9304028
:100CD000D6F810A002F005FC4FF0FF318C4206461A
:100CE00014D1D5F8600328B10069504508BFD5F884
:100CF000604357D0D5F8640328B10069504508BF58
:100D0000D5F864434ED0D5F850434BE0B5F93000E8
:100D10000021A04204BF2B69534504D1582010FB89
:100D200001F16C183EE0B5F988000121A04204BF32
:100D3000AB6E5345F2D0B5F9E0000221A04204BFEA
:100D4000D5F8C0305345E9D0B5F938010321A042A8
:100D500004BFD5F818315345E0D0B5F9900104210E
:100D6000A04204BFD5F870315345D7D0B5F9E8019A
:100D70000521A04204BFD5F8C8315345CED0B5F9FE
:100D800040020621A04204BFD5F820325345C5D009
:100D9000B5F998020721A04204BFD5F87822524540
:100DA000BCD00024002C00F08B8094F833000106A6
:100DB00040F18680D5F86003844219D1D5F86003EC
:100DC00000224FF00053FFF780F9D5F864030022AA
:100DD0004FF00053FFF779F9DFF8340605F01EFAFB
:100DE000D5F8600300224FF08073FFF76EF90EE034
:100DF000D5F8640384421CD1D5F8640300224FF077
:100E00000053FFF762F9DFF84C0605F007FAD5F852
:100E1000640300224FF08073FFF757F9206995F8BB
:100E20004C13C5F8480341F0010185F84C133046D6
:100E300074E0D5F850032746044600E02468002CEF
:100E40003ED0BC420CD02468002C39D0BC4207D024
:100E50002468ACB3BC4203D024688CB3BC42EDD14F
:100E6000216951452CD100224FF080532046FFF7D5
:100E70002CF900224FF080732046FFF726F995F8F1
:100E80004C133869C5F8480341F0010185F84C134B
:100E900005F55470214605F0CEFE214605F5567045
:100EA00005F0A6FE95F8840301281CBF95F884037D
:100EB000042805D0DFF8681605F56E7002F0A9FB6E
:100EC00030462BE0002F00F08F803069D5F8981362
:100ED000884218BF4FF4806140F08280002C1CBF14
:100EE000029800281FD0D5F86003002804BFD5F869
:100EF0006403002817D102F0F4FA044695F894032D
:100F000000F0F70085F8940395F89403010704D4E2
:100F1000082105F56E7002F07CFB204602F006FB0E
:100F200005B0BDE8F08F02F0DCFA95F8941341F0BB
:100F3000080185F8941302F0F9FA96F83300C10617
:100F400005F5547004D505F02EFEC5F8640303E0E2
:100F500005F029FEC5F86003D6E90601DFF8A428EC
:100F6000DFF8207AC0439060D368D6E906010343D6
:100F7000D360D6E906AB6FEA0B0BC2F800B053683A
:100F8000D6E906010B435360D7F804A0F468534632
:100F9000180007D0387A010704D5D5F898033246EF
:100FA00008219847204605F039F9208840F60201CB
:100FB000401A08D041F21E01401A04D041F6E671F1
:100FC000401A01280AD8BAF1000F07D0387AC107B1
:100FD00004D5D5F8980322460121D0474FF080412F
:100FE00005F56E7002F015FB05B0BDE8F08FF0B5A9
:100FF000A04EDFF8140881B0D6F8604305F0BBF9C5
:101000000546DFF8E0090268076802F0200207F4ED
:1010100060272A4018BF002C0CD01346C6F868433E
:1010200000222046FFF751F84FF4804106F56E701C
:1010300002F0EFFA3D400DD096F8210340EA554505
:1010400086F8215306F5826001B0BDE8F04000212A
:1010500002F0DFBA01B0F0BD2DE9F043DFF81492E1
:1010600081B099F82103002400284CD099F821037D
:101070000026C1073DD599F821231021B1400A422D
:1010800018BF012402F02DFA99F821131122B24061
:10109000914389F8211302F049FA032E33DA09EB60
:1010A000461101F53072907A68B392F90980DFF841
:1010B000381901EB8801002C0D681668576804BFC9
:1010C000107A022803D1D2E90401C30009D41046E2
:1010D000FFF799F82CB10020009000224FF0007328
:1010E00003E0009500224FF0006341463046B847C8
:1010F00009E099F8210301268107BCD499F821035E
:1011000002264107B7D499F8210338B109F5826066
:1011100001B0BDE8F043002102F07BBA01B0BDE8A8
:10112000F08300002DE9F0430FF2501285B0D2E9B0
:101130000034CDE900344FF4804005F069F84FF0F9
:10114000000800B3DFF8A408D0F813100078C1F34A
:101150001501800841EAC0714648D0F89833986874
:1011600002AA01F01DFA4348DFF81838D0F89803B6
:101170005B688268190006D0DFF80848217ACC073E
:1011800044BF012198476E464FF00209376838681E
:1011900020B9361DB9F10109F8D15CE03868D0E911
:1011A000060105F035F83D680021CDE9020104464D
:1011B00002F097F984467DB9604602F0B7F914F061
:1011C0000A0F1AD1002CE4D038682A49C1F8680304
:1011D00048F48048DDE700BFD5E90A23DDE90201D4
:1011E00010431943C5E90A01D5E90823DDE90201E5
:1011F00010431943C5E90801DEE73868DFF8E41752
:10120000DFF8EC378A68DFF8DC47D0E906011840E0
:101210008243A260224638681368D0E906018B43F6
:1012200013603A68DFF85C375B68180009D0DFF8B4
:101230005417087AC10604D50E48D0F89803102137
:1012400098473968DFF8AC0705F0D2FC0020386019
:1012500048F002089DE75FEA08011CBFDFF8980725
:1012600002F0D7F9FFF714F8FFF70CFB05B0BDE863
:10127000F083000088290020B81D0020E82C002001
:10128000EC2C002030B5DFF8744781B0B4F96C0362
:10129000B4F96E13884217D102F023F9054694F889
:1012A000940300F0F70084F8940394F89403010782
:1012B00004D4082104F56E7002F0ABF9284601B0A1
:1012C000BDE8304002F032B901B030BD0720FFF771
:1012D00064B82DE9F04107468846D7F8A86014465F
:1012E0001D4606B1B047D7E9280104EA000215EA15
:1012F000010308BF002A00F08780DFF80047B4F937
:1013000030000021404504BF2669BE4203D194F855
:10131000330005065CD4B4F988000121404504BFC0
:10132000A66EBE4203D194F88B00050650D4B4F9E2
:10133000E0000221404504BFD4F8C060BE4203D1A2
:1013400094F8E300050643D4B4F93801032140457D
:1013500004BFD4F81861BE4203D194F83B010506DE
:1013600036D4B4F990010421404504BFD4F870612B
:10137000BE4203D194F89301050629D4B4F9E801DB
:101380000521404504BFD4F8C861BE4203D194F89A
:10139000EB0105061CD4B4F940020621404504BF08
:1013A000D4F82062BE4203D194F8430205060FD45C
:1013B000B4F998020721404504BFD4F87852BD42E1
:1013C00003D194F89B02050602D4C7E92C2312E04E
:1013D0005820C7E92C2310FB01F10C44D7E92C015C
:1013E000D4E9082322EA000023EA0101C4E9080144
:1013F000D7F8A820A2600020C7F8A80007F1500085
:10140000BDE8F04102F0C5B8BDE8F0810000000081
:1014100001000104704700B581B002F0EEF8DFF87A
:10142000DC250146D2F89803D2F8882301B05DF894
:1014300004EB1047DFF8C4050FF2C552D0F888134B
:10144000914208BFFFF719B9042100F56E7002F050
:10145000E0B800000100012430B581B04FF0FF304A
:1014600004F0D6FEDFF894550FF295510446D5F8F6
:101470008803884232D10022DFF87C1B05F57D709D
:1014800002F044F8022085F88403D5F898138A689E
:1014900001F1380300E00246506890B198421EBF47
:1014A0000246506800280CD098421EBF0246506881
:1014B000002806D098421FBF024650680028984274
:1014C000E9D1507B10F00F0F02BF488F40F60901A1
:1014D000884203D0FEF7DCFEFFF7D4F9104804423F
:1014E00008D005F56E7001B0BDE830404FF00051F6
:1014F00002F08FB801B030BD00B581B04FF0FF30C1
:1015000004F086FE800708D501B05DF804EB4FF4C7
:101510000061DFF8E40402F07CB801B000BD000017
:10152000020000402DE9F041DFF8D074D7F858638D
:10153000002E00F0AD80F068082140F6040240F66D
:10154000030301E04068491E68B1CCB25CB1048875
:101550009C4218BF9442F5D1326902F138011CC88F
:101560001CC11CC81CC1D6E90A450022C6E90A22D2
:10157000B068D0B115F0E24310D024F00F0235F07E
:10158000E24308BF002A05D0B6F930103069D6F81A
:1015900008C0E04704F0000405F0E245B6F9301059
:1015A00030692246B4682B46A04701F09AFF0446F2
:1015B000B7F86E03401CC0F30B00A7F86E036FF082
:1015C0000201002086F83300318607F5567005F0D9
:1015D000EAFA204601F0AAFFB7F96E03B7F96C13D7
:1015E000884255D1D7F89813D7F82853D7F82C63E9
:1015F00000240520A04600291EBF91F8FC100029F8
:101600000720FEF7CAFE2DB195F8FC0000B92C6842
:1016100085F8FC803EB196F8FC0008B9D6F8008049
:10162000002086F8FC00444538BF4446E4B9B7F9C9
:101630006C03B7F96E1388422AD101F052FF0446B9
:1016400097F8940300F0F70087F8940397F8940351
:10165000010704D4082107F56E7001F0DAFF204677
:10166000BDE8F04101F062BF14F1010F10D001F0AC
:1016700002FFB4FBF0F1012998BF012107F2AC4051
:1016800001F002FF07F2AC40BDE8F04101F0FEBE00
:10169000BDE8F081D94A92F884130020022904BFE2
:1016A000D2F86013002903D1D2F8641301B90120E4
:1016B000704770B5DFF8841C0A680446CF48D0F83C
:1016C0009C632568106B8047864231BF861B401E95
:1016D000861B761C360BAE423CBF75196E0840F671
:1016E000C410864288BF064604D8B6F5967F38BF38
:1016F0004FF49676266070BD30B50D46A80781B0D0
:10170000BE4C12D5FFF70EFFD4F8580340B145F098
:10171000020104F56E7001B0BDE8304001F079BF00
:1017200001B0BDE83040FEF7A8BF680767D50121CA
:1017300084F89613042004F06CFFDFF8001C0A689C
:10174000106B8047C4F89C03D4F8500398B1056926
:10175000D4F89803002818BFA8420AD095F82800AA
:10176000410704D56B6A00220421284698470120CE
:101770006876C4F89853D4F898134A68DFF8C01B09
:1017800010780860022004F044FF102004F056FF97
:10179000012084F884037B49887810B90D2004F077
:1017A0004DFFD4F8980341688868002804BFC868D2
:1017B000002806D0DFF88C0BDFF88C2B0021C161EC
:1017C00002600720DFF8841B08600021DFF8740B3B
:1017D0004269416182698161426942F0402242F07E
:1017E000020242610FF22500C4F888031A2001F0BA
:1017F00079FE01B0BDE83040192001F073BE01B0A0
:1018000030BD00000810044020000E002DE9F0411A
:101810000746880040F1B380DFF8E081D8F89803EC
:10182000416848688E68CD68010018BF8047DFF8BE
:10183000144B300008BF002D0DD0E0690028FCD00B
:101840000021E161300018BFB04705B1A847DFF8BB
:10185000000B04F0E3FC0020E06140F60A05DFF82D
:10186000F41A2160A8F87053A8F8720398F87C1352
:1018700001F0F00188F87C13C8F87403384698F832
:101880007D1301F0F00141F0010188F87D13FEF7AE
:1018900097FFD7F80880464640F6040140F6030259
:1018A00000E00646706828B10388AB421CBF934233
:1018B0008B42F6D1514B03F55C707060707B00F089
:1018C000F0007073D3F8500328B1C06800889042CC
:1018D00018BF88421CD0388FD0B1002197F845003E
:1018E0007987F96300F0F00097F8441040F00100A8
:1018F00087F8450001F0F00187F8441007F138003F
:10190000C3F8740393F87D1301F0F00183F87D139D
:10191000E0690028FCD000221F46C4F81C200FF20A
:10192000E10197F89103C7F8881330B104F0DAFFAA
:101930000028FBD004F0E7FF0EE0012005F0B7F926
:10194000012809D0707B00F0F00040F001007073B6
:101950000FF23500C7F888030021E161C4F8008068
:10196000DFF82C0C4368190009D0007AC10706D5AE
:10197000D7F898034246BDE8F04101211847BDE879
:10198000F0810000CC7E0200DFF8002C114200D173
:10199000704710B5012005F08AF901280DD1DFF854
:1019A000F40B0FF25D01C0F888130022DFF89419E0
:1019B000CA6100F55C70086010BD0A20C046322183
:1019C000B1FBF0F1012998BF0121DFF8C84B04F504
:1019D0008D6001F059FD04F58D60BDE8104001F007
:1019E00055BD00000C1004409430044085030021D4
:1019F000FDBFFFFFE02C0020402D002088290020A3
:101A00002DE9F04704460E46700482B0DFF8848B5F
:101A10002CD501F066FDD8F8687317B3D7E90A230F
:101A200002F00A0413F0E04508BF002C19D1D7E9F1
:101A30000A45D7E90A23A243AB43C7E90A2301F0C9
:101A400075FDB86878B1002D08BF002C0BD0B7F930
:101A5000301038692246BC682B46A04726F48046E1
:101A6000C1E201F063FD26F48046BCE2B00040F123
:101A70008280DFF8240BD0F88C1041F08001C0F890
:101A80008C1098F8960328B1042004F05CFD002027
:101A900088F8960301F025FD0546042005F007F9B6
:101AA000D8F8B423014691421DD1207E00281CBFE6
:101AB000D8F89C03002816D0D8F8600370B1C3682A
:101AC000198840F6030291421FBFC368188840F688
:101AD0000401884208BF04F1140001D004F1100091
:101AE000FFF7E7FD05E040F6C41020616061C8F82B
:101AF000B413284601F01AFDD8F898138A6801F14A
:101B0000380300E00246506890B198421EBF02467A
:101B1000506800280CD098421EBF0246506800282A
:101B200006D098421FBF0246506800289842E9D16B
:101B3000507B10F00F0F02BF488F40F60902904211
:101B40000FD1256A00224FF000736FF48071204698
:101B5000A847D8F8500310B1FEF78FFD01E046F01A
:101B600002062046E46900224FF080630021A0476E
:101B700026F0005637E2B00709D5FFF7D3FCD8F8B6
:101B80005803002840F02F8226F002062BE2700551
:101B900040F1BA8001F0A5FC0546FFF77BFDD8F8BF
:101BA0005043012840F0AA80002C00F0A7800420B8
:101BB00088F884030022DFF8E41908F57D7001F04D
:101BC000A5FC284601F0B2FC08F2AC4001F060FC34
:101BD000DFF868170A68106B8047C8F8A003012176
:101BE00088F89613042004F014FD2069C8F89803BF
:101BF00090F828104A0703D5436A00220421984729
:101C0000D8F89803DFF83C5741688F684868D1F8E6
:101C10000C90002F08BFB9F1000F04D00021E9613A
:101C2000DFF824272A6008B1C046C046002F08BF4D
:101C3000B9F1000F0ED0E8690028FCD00021E9615D
:101C400007B1B847B9F1000F18BFC847DFF8000760
:101C500004F0E4FAD8F898030121417640F603072E
:101C6000FEF7AEFDD8F898339A68114640F60A0C94
:101C700040F6040E00E00146486830B1B0F800902C
:101C8000E1451CBFB945F145F5D100204860487BCE
:101C900000F0F00040F001004873E0680088B842AE
:101CA00018BF704503D10020C8F8A00315E0188FB5
:101CB00098B103F13800002444804460047B04F0B0
:101CC000F0040473447B04F0F00444F00104447312
:101CD0004860487B00F0F00048730020E8612A600B
:101CE000DFF8AC08446821000BD0007AC10708D5A2
:101CF00001211846A04726F4806674E1284601F0C9
:101D000015FC26F480666EE1310563D598F89603DC
:101D100028B1042004F017FC002088F89603D8F8B6
:101D2000984304F1080204F13805136800E0034603
:101D3000586890B1A8421EBF0346586800280CD0CE
:101D4000A8421EBF03465868002806D0A8421FBFFD
:101D5000034658680028A842E9D1587B10F00F0FBD
:101D600002BF508E40F60902904207D12046246AF5
:101D700000224FF000736FF48071A047D8F8A003E1
:101D800098B1DFF8B8150A68106B8047D8F8A0132F
:101D9000814231BF401A401E401A401CD8F89813A7
:101DA000000BC8600020C8F8A0030022924908F583
:101DB0007D7001F0ABFB022188F88413D8F858033A
:101DC00018B108F56E7001F024FCFEF756FC26F4FD
:101DD000006608E1300740F1008101F082FB044613
:101DE000FFF758FC002800F0F08098F894030107F2
:101DF00000F1EB8098F89403010600F1E680684654
:101E0000FEF7BFFB18B10098002800F0DE8098F8BC
:101E10002103002840F0D98000250127E8B20228DC
:101E200005DC08EB401101F53071887A18B96D1C9A
:101E3000032DF3D31BE08F7291F9090007FA00FA22
:101E400001F04FFB814698F8940320EA0A0A88F8CB
:101E500094A398F89413080703D5484601F066FB4D
:101E6000E5E7082108F56E7001F0D3FBF5E70320E4
:101E700088F8840308F2AC4001F00AFB204601F028
:101E800055FBDFF8C0446069002161610022E06811
:101E9000E16008F57D70DFF8D01A01F037FBDFF85C
:101EA0009C140A68106B8047D8F89C13814231BF9C
:101EB000401A401E401A401CD8F88C134FF0FF32D5
:101EC000A2EB10328A4234BF4FF0FF3001EB1030EA
:101ED000C8F88C0398F8900330B1D8F8A403D8F868
:101EE0008C13C00288422FD2DFF8AC060268D107FB
:101EF00025D5DFF8CC0B0268110620D540F6090085
:101F0000A8F870030021A8F8721398F87D0300F078
:101F1000F00040F0010088F87D0398F87C0300F0A1
:101F2000F00088F87C03C8F874130020E06108F51D
:101F30005C712160B8F8720310F4406FFAD0002190
:101F400088F89073C8F88C1304F075F9DFF8FC1367
:101F5000DFF83C46002008606368180007D0207A4C
:101F6000810704D5D8F8980300220221984702205F
:101F700004F0E9FA102004F0FCFA98F8950320B96F
:101F8000D8F89803503001F004FBA07810B90D2068
:101F900004F0EFFA98F8910328B1002188F8911322
:101FA000052004F0D0FADFF8800BC8F88803002180
:101FB00088F884130220B8F96E13B8F96C239142A3
:101FC00008BF0720FEF7E9F902E0204601F0AEFA6B
:101FD000FEF753FB26F0080605E0700003D5FEF778
:101FE0004CFB26F0804626B1314608F56E7001F0B4
:101FF00010FB02B0BDE8F087251100002DE9F54C7B
:10200000DFF890A5DAF8504381B09B4600250E46D4
:1020100000E02468002C5BD0B4420ED02468002C71
:1020200056D0B44209D02468002C51D0B44204D018
:102030002468002C4CD0B442EBD1002C48D020694D
:1020400001992768884209D09DF80800002818BF28
:102050003C46F2D1284603B0BDE8F08C01F041FACD
:10206000D4E90A2343F08051C4E90A21D4E90823C2
:1020700043F08051C4E9082101F058FABBF1000F88
:102080000CD121460AF5547004F0D5FD21460AF51D
:10209000567004F0ADFD6D1CD6E700BF01F021FACB
:1020A000D4E90A2343F08071C4E90A21D4E9082362
:1020B00043F08071C4E9082101F038FA9AF84C1312
:1020C0003069CAF8480341F001018AF84C13D8E797
:1020D000284603B0BDE8F08C2DE9F04E14460327E6
:1020E00082B082469B46002C14BF4FF080494FF0CF
:1020F00000590E4601F0F5F94FF0FF318E42009085
:10210000DFF8905414D1D5F8600328B10069504528
:1021100008BFD5F8606357D0D5F8640328B10069CB
:10212000504508BFD5F864634ED0D5F850634BE0F6
:10213000B5F930000021B04204BF2B69534504D1EA
:10214000582010FB01F16E183EE0B5F9880001211E
:10215000B04204BFAB6E5345F2D0B5F9E0000221A6
:10216000B04204BFD5F8C0305345E9D0B5F93801C5
:102170000321B04204BFD5F818315345E0D0B5F97A
:1021800090010421B04204BFD5F870315345D7D037
:10219000B5F9E8010521B04204BFD5F8C83153456F
:1021A000CED0B5F940020621B04204BFD5F82032A6
:1021B0005345C5D0B5F998020721B04204BFD5F800
:1021C00078225245BCD00026002E00F0808096F880
:1021D000330001067AD50A9FD5F860138E422ED1BE
:1021E000D5F8600300224B46FDF76FFFD5F8640376
:1021F00000224B46FDF769FF002C14BFDFF8100BDF
:10220000DFF8100B04F00AF8F8B200283BD0D5F83C
:10221000600300224FF08073FDF757FFD5F8640389
:1022200000224FF08073FDF750FF95F84C13306992
:10223000C5F8480341F0010185F84C1323E0D5F8B7
:1022400064138E422BD1D5F8640300224B46FDF770
:102250003CFF002C14BFDFF8C00ADFF8C00A03F00F
:10226000DDFFF8B278B1D5F8640300224FF0807337
:10227000FDF72BFF95F84C133069C5F8480341F082
:10228000010185F84C13BBF1000F1DD0D5F8501398
:10229000FBB25A465046FFF7B1FE832717E0FBB268
:1022A0005A4631465046FFF7A9FE78B195F88403A7
:1022B00001281CBF95F88403042805D0DFF8CC1B47
:1022C00005F56E7001F0A5F9832700E0042700985A
:1022D00001F02CF9384602B0BDE8F08E10B50C467E
:1022E000AC4991F88423022A0BD103F097FF04B183
:1022F000206000F0FF00012801D1812010BD0220E4
:1023000010BD012010BDF0B581B004460D46164643
:1023100001F0E7F807469F48D0F898138C4218BFA1
:10232000032404D131462846FFF7D8FF0446384637
:1023300001F0FCF8204601B0F0BD00008C01001057
:10234000D02108400010044051000706000004603E
:102350000100070601010E04002942D00A0E202ABE
:1023600008BF10221AD0212A08BF202216D0A02A86
:1023700008BF302212D00AB940220FE0102A08BF4D
:1023800050220BD0112A08BF602207D0402A08BF74
:10239000702203D0502A0CBF802290228901090AA2
:1023A00042EA012141F00F0100E0001D026812F134
:1023B000010F18BF8A421CBF50F8042F12F1010F01
:1023C0000ED08A421CBF50F8042F12F1010F07D023
:1023D0008A421EBF50F8042F12F1010F8A42E4D145
:1023E00001607047002944D00A0E202A08BF10223D
:1023F0001AD0212A08BF202216D0A02A08BF3022D6
:1024000012D00AB940220FE0102A08BF50220BD088
:10241000112A08BF602207D0402A08BF702203D0CB
:10242000502A0CBF802290228901090A42EA012128
:1024300041F00F0100E0001D026812F1010F18BF0A
:102440008A421CBF50F8042F12F1010F0ED08A42AD
:102450001CBF50F8042F12F1010F07D08A421EBF93
:1024600050F8042F12F1010F8A42E4D14FF0FF31EE
:10247000016070472DE9F04381B01E46089DDFF8EA
:10248000503BD3F800804FEA586313F001080388EB
:1024900040F6020765D0BB4207D0B3F5C15F10D04C
:1024A00043F60607BB4218D022E000F112030B608E
:1024B0004169116082693260C1692960C77B047C0F
:1024C00022E000F112030B6041691160426A326040
:1024D000816A2960C77B047C16E000F11A030B6057
:1024E0000027C1691160026A3260416A29600AE00E
:1024F00000F11A030B60C1691160826A3260C16A1F
:10250000296090F82470047E306804F0070488B1D4
:1025100005234FF6FF7240F2037103F0ABFE8146D4
:10252000B9F1050F06DA2146384603F0E7FE3168B7
:1025300041F82900286820B305234FF6FF7240F2C6
:10254000037103F097FE0646052E1ADAFF2138467E
:1025500003F0D4FE296841F82600404601B0BDE8EA
:10256000F083BB4218BFB3F5C15F07BF00F1120390
:10257000406900F11A03C0690B60106000203060F0
:102580002860404601B0BDE8F08300000400002050
:10259000CC7E02008829002040210840F914000068
:1025A0002DE9F04186B015460C46002202920492B5
:1025B0000392019201A9009103AB04AA02A9FFF7BB
:1025C00059FF8326E20F33D148B3039800281CBF7C
:1025D000019800281DD00298048040F22B28039F08
:1025E000502340F2FF324146384603F043FEFF28B5
:1025F0001CBF48EA842147F8201001990498FFF78E
:10260000F1FE1520288030460399696006B0BDE8C8
:10261000F081029A10884FF6FF7188424DD00298DF
:102620000480102129806C80304606B0BDE8F0811E
:10263000002842D0039800281CBF019800281ED013
:1026400002984FF6FF7101805023019F40F2FF3244
:102650002B21384603F00EFEFF2804D0A40244F0DC
:102660002B0447F8204001990498FFF775FE1520C8
:10267000288030460199696006B0BDE8F081049F6A
:10268000502340F2FF322B21384603F0F3FDFF28A0
:1026900004D0A10241F02B0147F82010FF280CD0F4
:1026A00002994FF6FF70088014222A80C4F31504A3
:1026B0006C60304606B0BDE8F0810326304606B0B7
:1026C000BDE8F0812DE9F04391B00C460021DFF820
:1026D000EC9908910191079106910646D9F8088076
:1026E00015461F4604F074FB1C2803D004F070FB51
:1026F0001B2826D1288843F60701884212D195F875
:10270000240002281DDD2869DFF8942A20F06041AA
:10271000914216D020F06040DFF8881A884240F0DD
:102720001F810EE040F60202904203D1E87B0228AE
:1027300007DD15E1B0F5C15F03D1E87B022800F3A6
:102740000F81002C18BF002D00F00A81207828FA94
:1027500000F0C10740F10481002128460020C04656
:10276000DFF8448AB5607460D8F8AC0388B106A974
:10277000009107AB01AA08A92846FFF77BFE019844
:1027800050234FF6FF720B2103F074FDFF2800F079
:10279000E78000F0A6FE054698F89503022880F22F
:1027A000DC80002840F0868003F01BFEDFF8FC0987
:1027B000DFF8FC49016841F002010160DFF8F4092B
:1027C000C9F8000002A800F0E6FE6078DFF8E8191A
:1027D000049002AA08F56E7000F0E5FE02AADFF888
:1027E000DC1908F5826000F0DEFE02A800F096FE1B
:1027F00020785D4A039002AB192108F57D7000F046
:1028000049FE02ABDFF8B8291A2108F24C4000F06B
:1028100041FE00230022DFF8AC1908F58D6000F0BE
:102820000DFE00230022DFF8141A08F2AC4000F07D
:1028300005FEDFF80C0A0168C1F3814038B10023BE
:10284000DFF8002A042108F59E6003F06AFEA078F4
:10285000012804BF0D2003F0F1FE08F5567004F0C6
:1028600097F908F5547004F093F9002088F8840370
:10287000C8F88C030021072088F8901388F891137A
:1028800088F82003C8F89C1300200521C8F8A0038D
:10289000C8F8A41388F89403A349C8F88813636898
:1028A000180007D0207A410704D5D8F898030022F1
:1028B0000421984798F8950308EB8002401CC2F861
:1028C000286388F895033C46284600F02FFE3CB963
:1028D0000FF2286191E8BC5109A880E8BC5109AC0D
:1028E000206830604FF4FA71F160A069B062012095
:1028F000218A71837076E1693163606818B1306153
:102900000021606803E040F6C41030610121317697
:102910007061DFF834197162F161E06800B101465D
:102920003162606900B17062A06800B1F061C821D5
:1029300006F1380004F0CAFA002106F1500000F058
:10294000F6FD00230022DFF8281A06F1B80000F097
:1029500075FD304611B0BDE8F083284600F0E6FD75
:10296000002011B0BDE8F08359140000F0B5DFF885
:10297000384894F89513002981B000F09E80B4F98E
:102980006C13B4F96E23914205461BD004F55471C3
:10299000FDF754FB68B9D4F8600328B10069A84278
:1029A00008BFD4F8600304D004F556712846FDF73B
:1029B00045FB38B1B0F930100A224FF0E043284609
:1029C00000F0AEF900F08DFD0646D4F828038542EC
:1029D00007BF0021C4F828130020C4F82C0394F882
:1029E0009503401E84F89503C0B2002850D1C4F866
:1029F000985394F88403022820D100F072FD074612
:102A000094F8940300F0F70084F8940394F8940386
:102A1000010704D4082104F56E7000F0FAFD384671
:102A200000F084FD304600F081FD4FF0FF3105F1EC
:102A3000500000F0A7FD00F054FD064604F56E704E
:102A400000F0D7FD04F57D7000F049FD04F58260CB
:102A500000F0CFFD04F24C4000F041FD04F58D6024
:102A600000F005FD04F2AC4000F001FDD4F8B01315
:102A700011B104F20450884704F59E6003F012FF80
:102A8000DFF82C078178012904BF0D2003F071FDC8
:102A9000D4F89803A84204BF0021C4F89813304624
:102AA00000F044FD05F1500000F067FD05F1B800AD
:102AB00001B0BDE8F04000F0DABC01B0F0BD0000AC
:102AC000000004402DE9F04100F00BFDDFF8D8468E
:102AD00094F8841302291CBF94F88413042907D1A5
:102AE000DFF8B428146800F021FD2046BDE8F0812D
:102AF00000F01CFDDFF8A418DFF8A4880A68106B4A
:102B0000804710F50036D4F8800341F100070146F4
:102B1000A8FB0623002008FB0733141843EB01052C
:102B20002C462046BDE8F081F91600002DE9F04F53
:102B300083B082460F4615469B4600F0D2FC0190BA
:102B40006FF00104DFF86096D9F82803824508BFCA
:102B5000D9F82C0330B1B83000F091FC10B16FF00F
:102B60000204ACE0FDF780FA060000F0C880DDE961
:102B70000C4809F2AC4000F08BFCB9F86C03401C27
:102B8000C0F30B00A9F86C03F760002086F8320050
:102B9000C6F808B02021B9F86C23DFF8080832869F
:102BA000C6F810A0204008EA0101C6E9060100228B
:102BB00086F83320C6E90822EA683264287C86F861
:102BC000440029687163287986F83800A968F163A0
:102BD0006869B064A969F164287F86F85000697F4C
:102BE00086F85110287C20B9E86810B1012186F8D8
:102BF00044102879002802BF387B00F00F0002281B
:102C000004D1012086F83800B9687163082001E01A
:102C10000F46401E7968002918BF0028F8D13A886D
:102C2000D6E9060102F47C42B2F5305F0AD196F88B
:102C3000332042F0100286F8332040F00800C6E945
:102C4000060103E040F00202C6E90621D9F8480374
:102C5000504507D199F84C03C10744BF00F0FE006E
:102C600089F84C03DFF8400704686FF002050CB9DF
:102C70002C461DE0D9F8642309F55670009009F53B
:102C80005473D9F860133046A0470446AC420FD0C5
:102C9000B9F96C03B6F93010884206D0B9F86C0364
:102CA000411EC1F30B01A9F86C1314F1020F0FD1EF
:102CB000B9F86C03411EC1F30B01A9F86C13C9F8F4
:102CC00048A399F84C0340F0040089F84C0316E03F
:102CD000B6F9304096F8330040F0800086F83300B3
:102CE00000218AF8FC10D9F85003B0421FBFF168E8
:102CF000087B00F00F00022808BFFDF7BEFC01981A
:102D000000F014FC204603B0BDE8F08F0000000086
:102D10000100020401000104010002240100012459
:102D2000F0B506460F46380081B014461D4603D55F
:102D30000020002101B0F0BD00F05DFCDFF8683438
:102D4000B3F930100022B94204BF1969B14203D16E
:102D500093F83310090659D4B3F988100122B94207
:102D600004BF996EB14203D193F88B1009064DD47C
:102D7000B3F9E0100222B94204BFD3F8C010B14247
:102D800003D193F8E310090640D4B3F938110322B4
:102D9000B94204BFD3F81811B14203D193F83B11E3
:102DA000090633D4B3F990110422B94204BFD3F811
:102DB0007011B14203D193F89311090626D4B3F9E7
:102DC000E8110522B94204BFD3F8C811B14203D1BA
:102DD00093F8EB11090619D4B3F940120622B9424F
:102DE00004BFD3F82012B14203D193F8431209066D
:102DF0000CD4B3F998120722B94204BFD3F8787201
:102E0000B7420BD193F89B120F0607D5582111FB3F
:102E100002F29F1897F83320110605D400F0FBFB4F
:102E20000220002101B0F0BDD7E9082344F00A04D4
:102E300045F0E04522402B4008BF002A0ED000F0AC
:102E4000EAFBD7E9080120402940C6E92C01D7E96F
:102E5000082382438B43C7E9082313E0BA68DFF8ED
:102E60004C158A4204D0D7F808C0C6F8A8C0B9608B
:102E7000C6E9284500F0CFFB4FF0FF3106F15000C6
:102E800000F080FBD6E92C0101B0F0BD020000404B
:102E9000D0B582B00446DDE90667CDE90067FFF7EB
:102EA00045FE0146204602B0BDE8D0400A224FF060
:102EB000E04335E710B582B0940804F001045308EC
:102EC000009403F0010302F00102FFF705F902B0DC
:102ED00010BD10B582B0940804F0010400940123E1
:102EE00002F00102FFF7F8F802B010BDF0B500BF24
:102EF00002A191E8FC5080E8FC50F0BDFFFFFFFF0D
:102F00000000000000000000000000003A013A014B
:102F10000000000000000000000000000022FFF799
:102F2000F2B90022FFF7EFB900B581B06A46DFF8C9
:102F30008414FFF7E8F9812803BF00980002001607
:102F40006FF07F0001B000BD70B50E46144600F072
:102F5000C8FA8325052E36D8DFE806F0030F1535AD
:102F60001F28DFF84C24D2F8601321B1D2F8601387
:102F70000A8E228028E0802526E0DFF8341491F8BC
:102F80002023228020E0DFF8281491F88423022AED
:102F90000CBF01210021217016E0DFF81414D1F8D4
:102FA00028232260D1F82C1361600DE0DFF80024A3
:102FB000D2F8281301B1C9682160D2F82C1301B1ED
:102FC000C968616000E0032500F0B0FA284670BDD2
:102FD0009412005070B4DFF8D833B3F930400022B7
:102FE0008C4204BF1E69864203D193F83340250604
:102FF00059D4B3F9884001228C4204BF9E6E8642A8
:1030000003D193F88B4025064DD4B3F9E04002225A
:103010008C4204BFD3F8C060864203D193F8E340EA
:10302000250640D4B3F9384103228C4204BFD3F8BB
:103030001861864203D193F83B41250633D4B3F996
:10304000904104228C4204BFD3F87061864203D1C0
:1030500093F89341250626D4B3F9E84105228C4222
:1030600004BFD3F8C861864203D193F8EB4125062B
:1030700019D4B3F9404206228C4204BFD3F820622F
:10308000864203D193F8434225060CD4B3F9984203
:1030900007228C4204BFD3F8781281420AD193F8F8
:1030A0009B02010606D5582010FB02F29818C06852
:1030B00070BC704770BC002070470000CC210840F5
:1030C0002DE9F04B0E4682B096F9048034688346B1
:1030D000174600F006FA344A92F8201300906FF079
:1030E00001094FF0000C012303FA0CFE11EA0E0F48
:1030F00006D04FF0FF35A84518BFE04500F0068028
:103100000CF1010CBCF1030FEED342E05FFA8CF03E
:103110000328F5DA02EB401505F53075A87A00288A
:10312000EED121EA0E0082F82003AB7285F809C0C7
:103130000A2192F82203401C82F82203C5F800B04D
:103140002B7241486860298295F90900401DA874D6
:10315000B068686100207FB13978787895F90930D6
:10316000490141EA80015B1D41EA03214FF6FC70F1
:103170000140DFF844020843A86104B16C60D2F852
:10318000980310B92968C2F89813FDF776FA95F9F3
:103190000990009800F0CAF9484602B0BDE8F08BEB
:1031A0000F0000010F0000058829002000200940C1
:1031B000CC7E0200110000E017140000591000003E
:1031C000EF0F000035140000F0B581B004460F4643
:1031D000802500F086F9FFB2032F064627DADFF8D4
:1031E000D03103EB471101F53077B87AF8B139687F
:1031F000A1421CD193F88403022812D197F9091037
:10320000D3F89803491D0906090C41F08161002299
:1032100041F00101FFF777F805463846FCF7F3FF68
:1032200005E03846FCF7EFFFFDF727FA8125304629
:1032300000F07CF9284601B0F0BD000085120000C6
:10324000B44F00504B030000151400002DE9F0416D
:1032500007460D461646832400F043F9092D8046A3
:1032600000F27E80DFE805F005081114171C4153B9
:10327000696E3068386074E0386960303861012107
:1032800078697976603078616BE03068788368E0DF
:103290003168B98565E030684549C1F8A40360E04C
:1032A000306848B900F01DF9414991F8942342F083
:1032B000800281F8942315E0012851D100F011F922
:1032C00006463B4890F8941301F07F0180F8941370
:1032D00090F894130A0704D4082100F56E7000F0EA
:1032E00098F9304600F022F93BE0314991F8840327
:1032F000002804BFD1F85003002811D131681920EB
:1033000000F00AF931681A2000F006F929E0284F88
:1033100097F88403002804BFD7F85003002801D091
:1033200000241EE0316807F56E7000F076F9316810
:1033300007F5826000F071F913E030781C4981F8DC
:1033400020030EE01D48436819000AD0007A810668
:1033500007D51748D0F8980332462021984700E057
:103360000324404600F0E2F82046BDE8F08100006A
:10337000CD12000030B5044683B0A0686A46FFF75E
:103380000FF98328054604D1002269462046FEF73E
:10339000BAFF284603B030BD043004408C01001051
:1033A00000093D00FFEFFF9FB81D0020D312000071
:1033B000882900200100030401000406CC7E0200DD
:1033C000EFF31180202102E0EFF31180002181F35F
:1033D0001188704780F31188704710B501F02EF8FE
:1033E00001F0FDF900F016F8DFF8D04504F108000F
:1033F000A06602F0F1FD01F0A9FB02F063F902F012
:103400009DFA01F01BFE00F04FFF03F06FFE01205C
:10341000207010BD10B5DFF8A84594F8080160B918
:10342000012184F8081101F073FB002104F59A7062
:1034300001F070FBDFF81816086010BDFEB50446F9
:1034400013B901F0EDFC10E06D46002000260027C6
:1034500085E8C1009868029020461D788DF80050DC
:103460005B6801936B4601F0DBFC2046FEBD01F07A
:10347000F7BC00F02DBD0A20704701F0BBBC007DF9
:103480007047002181607AE08160704701F0A4BC40
:1034900001F067BCF8B51C0086B005460E4617461D
:1034A00003D1002300F016FF0BE000F012F82068B3
:1034B00001906B46606804903A4600F004F800F012
:1034C00009FF07B0F0BD207A8DF808003146284684
:1034D00070476846DFF8C815182204F0F3BA00F008
:1034E00029BF6DE701F008B8DFF8D40490F8F410B4
:1034F00002F0F6B810B5FFF763FF0446FFF76AFF66
:10350000601E8041C00F10BD01F05CB870B501F0C5
:103510006CFC6560266076E101F044B80021016032
:103520004FF0FF32012342600372704752E7FEB54D
:103530000446684600230025002680E8680001272D
:103540008DF800706A46204602F00EF82046FEBD57
:103550003EB5694600220023002481E81C000125B5
:103560008DF80050DFF8EC2402F00EF83EBD80B577
:103570000090684602F021F801BD02F012B8017017
:103580004160704780B501F054FF00B95AE0002057
:1035900002BD01F0B3BF002101604160C1604FF086
:1035A000FF318160704778B5140085B005460E463E
:1035B00003D1002202F0E7F813E0A068062804D344
:1035C00010F1010F18BF00200BD101F0E7FA2068BD
:1035D00001906A4660680290314600F004F802F0FB
:1035E000D2F806B070BDE0680490A0680390284649
:1035F000704702F06DB901F0A9B802F0BFB8DFF86A
:10360000C00390F8F410012901D101207047002077
:10361000704702F01AB902F06AB8062902D311F114
:10362000010F01D102F01DB9704708B400B501AB1C
:1036300002F011FD5DF808FB02F00DBD04F094FAF4
:10364000162101604FF0FF3002BD000030BF70470F
:10365000FCE738B504F092FA03F099FB02F09EFE05
:10366000044604F00C000C2802D1AFF300803AE0CD
:1036700060071DD401F0A3FA05460121012002F0E4
:1036800097FE0A216943884212D2DFF80046183DAE
:10369000656104F10C0001F09FFBAFF30080012095
:1036A00003F01EF8AFF30080002084F820001EE035
:1036B000AFF30080200716D4DFF8D425DFF8D40557
:1036C0001368996888470428F6D0E10600D408B941
:1036D000012000E0002003F03CFBDFF8BC050121E5
:1036E0000160006801E0FFF7B3FFAFF30080BDE8C1
:1036F000314004F047BADFF8C80290F8AC2001214D
:1037000080F8AC100123DFF8D0150A6090F814217E
:1037100080F814314A60704710B5DFF8BC45606826
:1037200001F0E5FF206801F0FBBF0000DFF8AC15F9
:10373000C20744BF01230B60820744BF4FF480736C
:103740000B60400744BF4FF480320A60704710B5E9
:10375000DFF88C25C30748BF1160840748BF51605C
:10376000400748BF916010BDFEB502280D460DD040
:10377000012804D004F0F8F900F082FBFEBD684691
:1037800000F001FC0198029A002137E0FFF718FED3
:10379000DFF850450646207878B100234FF0FF321D
:1037A0000FF26D01201D01F0CCFA4FF0FF30606187
:1037B000201D01F0DFFA0020207000F031F80746EC
:1037C000E46A01F07CFFDFF82C35DFF82C25B7FB2D
:1037D000F3F603FB167702FB0477BC46BCFBF3F25F
:1037E00000270021B01879414AF2C57674430019C8
:1037F00003FB12C3794142F210725A43C5E900013A
:10380000AA600020FEBDBDE87040FFF7E3BD0000E8
:1038100010B5FFF7D5FD044600F002F802F060B9DC
:1038200080B501F0C3F9DFF8BC148A6A904202D275
:10383000CB6A5B1CCB62886202BD0CB42DE9F84FE9
:10384000DFF87CA105469AF8F400002684B00C4607
:1038500002280CBF4FF00108B0469AF8AC00DFF820
:10386000147501218AF8AC100090386838B90AF54F
:10387000A87B0021584601F045F8C7F800B0009831
:1038800002F0A3F8A1050EA803D546680EB90AF503
:10389000BC76280000950AD004F07CF98346A00588
:1038A0000AD571680129A4BFB068012804DA04F0C0
:1038B0005BF91621016078E00020B8F1000F01905B
:1038C00003D0386801F040F88146009800F0D4F841
:1038D000050008D004F42060B0F5206F09D104F091
:1038E00043F9112159E0A00503D404F03DF9022168
:1038F00053E001AB0022082100F062F95FEA000A00
:1039000048D045BB01AB0022242100F059F9050045
:103910003CD00120E8610BF1010BB168696101AB9A
:10392000706828610022594600F04AF9286258B3AD
:10393000009904F057F97168B06801AB002201F0FA
:10394000E3FCA860D8B100216960786800B14560E7
:1039500028607D6002E0E869401CE861B8F1000F72
:1039600003D03868494601F007F8A41304F00104B5
:10397000CAF80050A403CAF80440504617E0296A68
:1039800011B15A4602F023FB00F0AEF9082251466D
:1039900000F0ACF904F0E8F80C21B8F1000F016078
:1039A00003D03868494600F0E7FF4FF0FF3005B01C
:1039B000BDE8F00F5DF80CFB00000000B82500200A
:1039C0007C1B002070B500F017F804D204F0CCF88E
:1039D0007A2101600EE04068420448BF0023A068DD
:1039E0001A4601F0E3FB08B1656903E004F0BCF896
:1039F0000B210160284670BD046866694FF0FF33F3
:103A0000B2421D46704738B500F01BF806D200F0F0
:103A100014F80FD104F0A8F87A210AE000F01CF89D
:103A200001F0ECFB38B900F008F803D104F09CF881
:103A30000B2101601DE0002032BD94F8F400022843
:103A400070470368DFF848435D699542704700009E
:103A50002C3A0020201D00204068420403D494F832
:103A6000F400022801D0002201E04FF0FF329868F4
:103A700070474FF0FF3032BD38B50546DFF8F4022D
:103A8000446800E024683CB1206A294604F0B6F896
:103A90000028F7D1204632BD002032BD00000000D2
:103AA0000448000010B5DFF8E4134FF400748C6094
:103AB000142204F007F8002010BD002918BF0129C6
:103AC00001D01620704701610020704709684A1E26
:103AD000052A01D316207047FAE041608260002079
:103AE00070470446DFF82C0390F8AC50012180F8B1
:103AF000AC1070472DE9F0438FB081460C46174655
:103B000000269846099600F055F8C9F8006009AB00
:103B10000022502100F054F805003ED0DFF86C037D
:103B20004FF40071816004B9044620680390606816
:103B30000490606800280CBFE0680020A16801972D
:103B4000401805904FF0FF310295CDF81C8003918D
:103B5000206900B1012028636F63EE62AE63EE63FB
:103B600005F148002168A9606E64002101F01AFC8B
:103B70000CA800F08DF98DF830000CAA05F11000AA
:103B800001F0F2FC09AA69460FF2351002F0C2F901
:103B9000E86020B9284600F081F80C2007E0476370
:103BA000C9F800502168E86802F0DEF800200FB084
:103BB000BDE8F0836846DFF8E812242203F082BFF4
:103BC000002002F0EBB938B5DFF8EC422169CD6B8B
:103BD00028646946012000F021F802E0012100F08C
:103BE0004CF8686C0028F9D1284600F087F8286B5B
:103BF00020B905F1100001F081FC09E020780121D5
:103C00002170DFF8C8120A682A600D6001F0DDFE3D
:103C1000E8684FF0FF3102F0A7F831BD80B5DFF85A
:103C2000F421D2F8BC30DA6B002818BF012801D08B
:103C3000162002BD936B0B60906328B9D06B18B14E
:103C40004FF0FF30FFF7BFFF002002BD000010B5AE
:103C5000DFF83C1191F8AC00012281F8AC20DFF8CC
:103C60006C120C680CB122680A6001F0AEFE1CB147
:103C70002046BDE8104011E010BD024613681069EF
:103C8000586411B19068516808477047441E00207D
:103C9000D8010010004003402C20094010B5044614
:103CA00004F1100001F07DFCE06818B104F10C0093
:103CB00002F05BF92146BDE81040502201F07FBBC5
:103CC00080B5CA68496B106C8847BDE802407AE746
:103CD0000160002070470000C8380020042009401F
:103CE000182009402C1D002024222946002002F023
:103CF0006EB90000A0860100E00601002DE9F8433E
:103D0000DFF81081044698F8AC00012288F8AC2056
:103D100004F14802A16C914203D1BDE8F24301F0E5
:103D200054BE01F052FE08F5C4784FF0FF31404612
:103D300001F07FFBA66C14E03546D5F81090AF6813
:103D40003668284601F027FB484601F024FB396815
:103D500000291EBFE868002888471C224946FFF753
:103D6000C5FF04F148008642E6D14046BDE8F24373
:103D700001F0C4BBD0380020204601F026BE0099D7
:103D8000204601F056BB0446002101F052BB000062
:103D90007C1B00202DE97F430D461446AA68DFF8FE
:103DA0009867B24203D26946FFF7DEFC10B14FF0CC
:103DB000FF302CE0D5E90023DDE90001DDE90089D1
:103DC000101A63EB01014B450ADB01DC424507D3C6
:103DD000AA68029B002908BF002803D1934201DB97
:103DE000002212E0D21A44BFB218401E02F2E7329B
:103DF0004FF47A7392FBF3F209320A25DFF83C178D
:103E0000B2FBF5F201FB0022521C2260002004B03C
:103E1000BDE870837C1B002080B51146B1F5803F62
:103E200001D3FFF70BBC002201F09EFB002002BD76
:103E300080B501F063FB002002BD38B50D46FFF7E9
:103E4000A2FF90B96A4629460120FFF7A3FF18B1E7
:103E500003F08AFE162105E0FFF791FF28B903F071
:103E600083FE91210160FFF704BE002032BD80B5C2
:103E700000F002F8002002BD4FF0FF3101F0D9BA86
:103E8000162101604FF0FF30704700005C1D0020DC
:103E900000210022002380E80E000120704700006E
:103EA00078790200DFF860080178FDE7DFF8600844
:103EB00090F8F40070470000281C0020DFF850281C
:103EC000014692F8F40082F8F4107047D8380020C8
:103ED000DFF83818D1E90023C0E90023704700005B
:103EE00000BFDFF82C18D1F8FC000047DFF82028CD
:103EF000D2F800110847DFF8180890F814110122D1
:103F000080F8142190F8AC1080F8AC200320D5E79D
:103F100010B504460320FFF7D1FF204602F075B824
:103F200080B5DFF8E4070178012901D0FFF7BAFF77
:103F3000DFF8E40702F056F8FFF746FA002001F038
:103F4000D6FBBDE8014001F011BD10B588B001A855
:103F50000FF238311C2203F0B5FD022200218DF84A
:103F600004200A248DF810100091039401ABDFF8AF
:103F7000A427DFF8AC0700F015F908B010BD014622
:103F8000DFF89C07F2E07FB501F050FA054668467D
:103F900000F025F8DFF88417DFF89C65486820609A
:103FA000019B88680A681B1AD21862600298CB6865
:103FB0001B18B34203D3DFF86C07521CC318A3606D
:103FC000626008698218626009688A4202D22068C9
:103FD000401C206001F04FF9002004B070BD1CB5FA
:103FE0000446DFF8440701680A6B9047019100908E
:103FF00000220199616022600098DFF83C15000CF6
:104000000090009AA1FB0201000C40EA0140A06070
:1040100013BD20B502460020D2E9102347F6906177
:1040200003F000FE0125A94228BF4FF0FF3020BD5C
:1040300038B50C4603F0A2FD050018BF0125DFF8D6
:10404000EC060068811D201AB0F1004F05D8081B4E
:10405000B0F1004F38BF8C4200D20C4621460120FF
:10406000FFF775FBEDB20DB9FFF741BB31BD2DE98F
:10407000F84C05460C46D5E910ABD5E91267AAFB0A
:1040800004010BFB041136184F41340C002244EAA2
:1040900007412846FFF7CCFFC5E91467BDE8F18C5E
:1040A00038B501F0C3F964690546B4F5802F34BF13
:1040B0000424240CDFF87406006804190120FFF7BB
:1040C00035FB21460120FFF742FBDFF868361C680C
:1040D0002268232100209047DFF85C160120086049
:1040E00000F09FBF0000DFF840160A68106B004721
:1040F00010B504460120FFF719FBA069E169BDE88E
:10410000104008472DE9F04705460120FFF70EFB58
:10411000D5E91601D5E91027002410EB02084F411C
:104120004FEA184040EA074AD5E914694FF0FF30DA
:104130004FF6FF7108EA000207EA0103304009EA7E
:1041400001018B4202D82CBF8242012422465146F3
:104150002846FFF76DFFD5E91601C5E91401C5E949
:104160001687A869E969BDE8F0470847F8B504462D
:104170000D46FFF7B8FFD4E9106732463B4603F01F
:1041800051FD3DB1A6FB002306FB013307FB0033C5
:10419000C4E91223F2BD80B5FFF712F9FFF71AF94F
:1041A000002002BD2DE9F04387B005460F4690463A
:1041B0001C46FFF705F9DFF87865B16811B1FFF724
:1041C00009F92FE0B560FFF705F90CB90FF2BC044F
:1041D000EF60C5F81C804FF480316068A861002250
:1041E00069622A62C5E91222217BA06801290CD1EB
:1041F00068610021A06827786A690023022F07BF41
:1042000090469946984699460EE001460020DFF810
:104210009023002303F006FD012291426861EAD356
:10422000C5E9100100202EE0C5E91489C5E9100197
:10423000C5E9162301A8DFF80415182203F042FC93
:10424000029501AB2078DFF8F814009100280CBF2C
:10425000DFF8F024DFF8F024142105F1280000F045
:1042600057F804462846FFF796FF287C10B92846E1
:10427000FFF716FF2CB12946304601F07EF828469C
:1042800001E00020B06007B0BDE8F083000000004E
:1042900000000000E8030000000000000000000033
:1042A000000000000000000038B5DFF8644404F1AD
:1042B0008405287F68B901212977FFF781F8E16F2C
:1042C0002868C90800EBC1010839A1674FF0FF3128
:1042D000A16631BDF8B5DFF83874DFF89464D7F81B
:1042E0009CC004460D465CF82500B0420CD107F591
:1042F000D2700090204600F00BF840B1D7F89C0037
:1043000050F82510B14201D10020F2BD2046F2BD87
:104310001CB504460BB9DFF82434049800902046FD
:1043200000F00AF8010003D0204600F06EF80024E7
:10433000204616BD002168E0F8B51746069DDFF857
:104340008C24362904461E4603DB002300930B46CB
:104350000EE0DFF8BC03E181D0F89C3053F8210077
:10436000DFF80C34984209D000240B4600946C32DC
:104370000021284601F002FE0120F2BD084600F0AF
:1043800099F8676070682060306910F1010F08BF0C
:10439000FF2020730021307A00B10121307D08B167
:1043A00041F00201A1602046294600F003F800B167
:1043B000801CF2BD38B50446217AB4F90E008A0794
:1043C000054602D5217B202907D2616800F0B8F8A4
:1043D000B4F90E004042E0810AE0DFF83413D1F86E
:1043E0008C00DFF88C1440F82540284600F0A8F82F
:1043F000217B284600F0D6F8207AC10744BF284622
:1044000000F07AF80020A06032BD012900D1704789
:1044100010B5B0F90E40002C48BF6442204600F0B1
:1044200049F8DFF84C13204600F08AF8DFF8E01274
:10443000D1F88C20002042F8240010BD70B5FEF7A2
:10444000BFFFDFF83014DFF83034DFF83024DFF856
:104450003004DFF830440B60121ADFF82C34C868DF
:104460008A60186002461D68A5420FD0002554F8E6
:10447000256040F825606D1C0F2DF8DB0F20DFF85C
:10448000F04242F82040401C3628FADB5C68DFF836
:10449000FC0324F47F4404195C600A6220219976AD
:1044A0004FF40070D860DFF89404016821F04041B7
:1044B000016070BD10B50F2811D9A0F1100110389E
:1044C000012200F01F00DFF87844DFF87834490952
:1044D000824054F8210043F82120104010BD09D13A
:1044E000DFF8901408680A6822F0020200F0020067
:1044F0000A6010BD002010BD0F280FD9A0F11001D7
:104500001038012200F01F00DFF8343449098240DE
:1045100053F8210043F821201040704709D1DFF8FB
:10452000541408680A6842F0020200F002000A60AF
:10453000704700207047000000CA9A3BA086010027
:10454000DFF8CC21D2F8883003EB800002688A4281
:1045500018BF0160704710B5DFF8B441A06F03F0D9
:1045600089FC0021A16610BD70B50246DFF8040386
:10457000836853600468946025462878BE2803D079
:1045800001200023136070BD00200029F9D015F828
:10459000016FBE2EFBD064422919491E5B1AF1E758
:1045A00040420F00102805D3DFF87824104400F8AB
:1045B000101C7047042804D3DFF8CC24104400F802
:1045C000041C7047102803D3DFF82015103808604A
:1045D000704710B54E4B0FF21504012283F86C2082
:1045E00014B1BDE8104001E010BD000018B500F0A6
:1045F0001BF89FB00A7008B901AA4A60204600F073
:1046000019F80320FFF75AFCDFF8E404DFF8E4248C
:104610000368A06B009003F0FF030F2B28BF7C32D0
:1046200001F045FA20B010BD0446DFF81C154868BB
:1046300001227047F0B5364C236F04F1F4050146B2
:104640002E781E7000220E6A1E6100204F6A5F6184
:104650008E6A9E61CF6ADF610E681E624F685F627C
:104660008E689E62CF68DF620E691E634F695F636A
:104670008E699E63CF69DF6301F140070E6B1E6494
:104680005F644E6B9E6404F184068F6BDF64C96BBC
:1046900019651F78032F14D8DFE807F00907021007
:1046A000B06B5860C26A806A0BE0E86A06E0B068E6
:1046B00001F0FF0150F82110596000E05860E26FEE
:1046C0003068D8609A60616F39B1002804E012F850
:1046D000014B01F8014B401EF9D1DFF814040268C8
:1046E000DFF804055A65017899654278DA654188F2
:1046F000196642685A6681689966C268DA66016915
:10470000196740695867F0BDB82500205C1C00207F
:104710007C1B0020074D0000F73E0000DC38002025
:10472000C0250020003665C48C01001030200940EF
:10473000701D002084010010800224430448000002
:10474000201D002005410000F1400000DFF8F413B7
:1047500091F81401012281F814217047DFF8E41365
:1047600091F8AC00012281F8AC20704700000000F5
:10477000A53F02002DE9F04100F058FEDFF8C453D8
:1047800095F8AC60012085F8AC0095F8147185F8B7
:1047900014010020FFF792FB8046D5F88C00DFF86B
:1047A00050130A6802F0FF0250F82250AC60FEF786
:1047B0000BFE286869688847FEF702FE4046FFF74F
:1047C0007DFB07EB0620BDE8F0810000C850020029
:1047D00000F0FF0000F0A7BF000A01F011B9F8B522
:1047E000002101A8FFF7C0FE0398009004E0BE215D
:1047F00001700099491C009100986845F7D305B0F5
:1048000000BD0000000000000000000001000000EA
:1048100000000000E00000000100000070B5049CF2
:10482000059D069E8908491E40F82140491E40F812
:104830002130491E40F82120491E40F82160491EC0
:1048400040F82150491EDFF8602940F82120491E18
:104850004FF0FF3240F8212000F01AF800F018F86D
:10486000491E40F8212000EB810070BD00000000CF
:10487000813E0200F81B0020003C01200040012086
:10488000003C01200000000008ED00E00000FA05F7
:10489000491E40F82120491E40F82120491E40F8B9
:1048A0002120491E40F82120491E40F82120491EA0
:1048B00040F82120491E40F82120491E40F82120BF
:1048C000491E40F82120491E40F82120491E40F889
:1048D000212070477FB504460D46A16A164619B1DE
:1048E000E06ABE2203F0F2FAE16B02913346A06B5C
:1048F00001900095A16A626BE06A091FFFF78EFFC5
:1049000004B070BD10B5044609B90FF2780100F08B
:1049100002F8204610BD10B504460022012104F122
:104920000C0000F021FE0021A1602146BDE81040EE
:10493000DFF8140900F021BD0000000034EF00E0B2
:1049400000E100E080E100E038B504467D4DA0685C
:10495000D5F8BC2090420AD04FF0FF3104F10C0092
:1049600000F067FDD5F8BC00A060002032BD01203A
:1049700032BD000010E000E019B981600C3000F099
:10498000BDBD70470000000010B504460120A060C6
:10499000002121610022E26004F1140000F002FD18
:1049A0002146BDE81040DFF8140900F0E6BC000025
:1049B000F8B50546DFF80809046984B09CB166695A
:1049C000077801210170A868012807D10021A9609A
:1049D0002C61EE6000F03DFC002020E02869A04240
:1049E00003D100F036FC012019E0204601F010FA56
:1049F000002102940391C4F824D03246694605F19F
:104A0000140000F043F828694069B04203DA2869CD
:104A1000314601F0A9F900F01CFC0020606205B0ED
:104A2000F0BD000000E400E070B5DFF89428044613
:104A3000106940B315780123137009BBE16842691E
:104A40009142BCBFE16801F08FF9606904F1140183
:104A5000884202D10122A26012E0606901686161AE
:104A600004F114024A60866826617069E060FEF70E
:104A7000A7FC04462146304601F0FAF900F0E2FEB8
:104A8000284600F061BD70BD18ED00E010B503468A
:104A9000186800E00068984207D08468646994420E
:104AA000F8DABDE8104000F061BCBDE810401846DF
:104AB00000F04EBC10B5044609B90FF22C01FFF707
:104AC00063FF204610BD10B500F0A0FA00F0FCFE18
:104AD00018B12146BDE81040ECE710BD0FF2080107
:104AE0000A680260704700000000000000EF00E06C
:104AF00004ED00E0F04D0200806902F0FDBA80692B
:104B000002F0FCBA806902F0FBBA806902F0FDBADB
:104B100002F0ECBA10B504460020A061DFF8D0180E
:104B2000DFF8D028DFF8BC0921606260A06004F1E2
:104B30001001DFF8B429DFF8B409E26000F01DFCD1
:104B4000204610BD7C1B0020E81B002018B5DFF8B4
:104B5000084A94F8650085B0E0B9012284F8652020
:104B60000021204600F01EFC00F0ACFD00F016F81D
:104B70000520039004F5D2736A460FF2E90104F1AF
:104B8000100000F087FEE064FFF7DFF90248FFF74E
:104B900040FAA06506B010BDC02500206846024955
:104BA000142202F08FBF00BFAC58000038B5FEF7EA
:104BB00007FC04460020FFF7E2F905460EE038B591
:104BC000FEF7FEFB04460020FFF7D9F9DFF888194D
:104BD0004D6D2D1A886DA84238BF00252046FEF77E
:104BE000F9FB284632BD000028ED00E038B5044648
:104BF0000D462146DFF8380AFFF739FADFF8580981
:104C00000465456531BD2DE9F8430446DFF84809E0
:104C10000768D7F804800D464FF0FF391BE03E4689
:104C20003F68307D012816D1012C04BFF168A942EC
:104C300009D1306900281DBF4118F160306230751C
:104C4000F069B1698847307D012804D1F068401BC4
:104C5000484598BF81464745E1D14846BDE8F283C3
:104C6000000000002DE9F843FEF7AAFB06460120EC
:104C7000FFF785F9DFF8E01801F15C0201231370FA
:104C8000002454704C6D8B688968051B401AE31A28
:104C9000984203D200201070304630E000F00FFD43
:104CA0004FF0000907E04C4421460120FFF7ABFF1D
:104CB000A5EB090581464D45F5D2FEF781FBDFF8EE
:104CC000987807F15C0680467078012804D1214667
:104CD0000020FFF798FF8146B86D19F1010F05D04C
:104CE000B86DA9EB0505A84288BF28460119FFF752
:104CF0007DFF0120B07000213170BC604046BDE8EE
:104D0000F243FEF767BBDFF85018C86C00F072BDC5
:104D100038B504461D46A260002268682061A16182
:104D20002146A868E0612275DFF82C0800F025FB19
:104D3000287818B12046BDE832404DE031BD38B585
:104D400068E18260816100220261C36102750146EF
:104D5000DFF8040800F011BB82608161002202616B
:104D6000C3610021017570470146DFF8EC07EFE2EF
:104D700000F011BB70B50446DFF8DC67A068206264
:104D800006F15C05A978012904BF2878002816D10E
:104D90000120FFF7F4F8B268736DB1685B1A821AEC
:104DA00093420CD3A2681118E16001232375746D3E
:104DB000201A82420ED2BDE87040104616E7FFF777
:104DC000F5FEA1680818E060012020752978012906
:104DD00008BF687070BD000038B500F027FB0546BD
:104DE0002046FFF7C7FF1CE1BBE704460D46164609
:104DF000FEF7E6BA70B500F019FB0646207D0025E7
:104E0000012807D1FFF7D2FEE5682D1A206AA842D3
:104E100038BF002500F053FC284670BD00F09EBB53
:104E200010B504460BB90FF20C03FFF771FF2046D3
:104E300010BD0000000000000000000000000000A5
:104E400070B504460D4616460022242100F03DFDB3
:104E500028B133462A462146BDE87040E0E770BDE0
:104E60006DE710B504460022A260002104F10C0099
:104E700000F098FA2146BDE81040DFF8C4097CE252
:104E800038B500F0D3FA0546207C022804D120462C
:104E900000F081FA00F0C4FAC3E010B583688468BA
:104EA0001A400C408C4208BF0A4312B181689143FA
:104EB0008160104610BD2DE9F0431C4691B080463C
:104EC0000D46174614F1010F18BF002C0AD06B468F
:104ED0002246DFF8BC1908A8FFF73EFF08A9039196
:104EE000022202E00021039103220021DFF8D063B7
:104EF0008DF8102006950797059130690290FEF70E
:104F00005FFA81463A4629464046FFF7C6FF05004C
:104F100004D04846FEF75EFA28462DE024B94846FC
:104F2000FEF758FA002027E03478012030706946F7
:104F30000298416208F10C0000F00AFA029800F0B1
:104F400070FF039820B1FFF70FFF0398FFF712FFE0
:104F50004846FEF73FFAFEF70FFFFEF731FA044628
:104F6000039818B1FFF704FF0020039000F0C0FA87
:104F70009DF8100000B1059811B0BDE8F083F8B5B8
:104F800007460D46FEF71CFA0446B8680543BD60A7
:104F900007F10C00F968814202D1204600F08BBB7A
:104FA000FEF7A0FD3846FE68F269B169FFF775FFAC
:104FB000706160B1304600F0EEF901203074F068A5
:104FC00008B1002101752146B06800F051FF00F0E2
:104FD00039FC2846BDE8F24000F0F7BC10B50446A5
:104FE00009B90FF20C01FFF73CFF204610BD00008D
:104FF0000000000010B500F009F8142100F065FC75
:1050000018B12146BDE81040E8E710BD04460B4644
:10501000002270470446FEF7D3F90546204600F00B
:10502000BAF92846BDE83240FEF7D4B92168142207
:10503000002000F0CCFF0020206010BD78B5DFF824
:105040001C49207889B0E0B901262670FEF7B2FD30
:105050004FF44072059204F160010FF234020491A2
:105060000092002503958DF8206000236A460FF218
:105070001901201D00F038FFDFF8DC14201DC1F8F5
:10508000D8000AB070BD000080B500F011F8FCE750
:1050900074692E73797362696F732E6B6E6C2E5404
:1050A00061736B2E49646C655461736B0000000082
:1050B00010B5DFF84849206880476168BDE81040B6
:1050C0000847FEB51E460546706968610F4634689C
:1050D000EF6011460022AC602961A961EA610837DE
:1050E00058B9FF1DFF08089BFF007943204600F0D8
:1050F00055FFE86108B90120FEBD002105F1280037
:1051000000F050F9002105F1200000F04BF939467C
:10511000284600F0BFF8684600F01AF87468019459
:105120006A46B068029005F1300000F01DFAF068A0
:1051300001906A463069029005F14C00296900F03F
:1051400013FA2946DFF8EC0800F017F90020FEBD3D
:1051500000210022002380E80E00704710B50129CD
:1051600004461FD0E16941B1E26820690F32D208DC
:10517000D2004243A06800F02AFF04F12801E16256
:1051800004F12800A06204F12001616204F1200012
:10519000206204F14C0000F004FA04F13000BDE894
:1051A0001040FEE110BD00005D7F000070B500F012
:1051B0001FF8E0B104F1200000F0CBF80646E268E9
:1051C00006F10801284602F06DFCFEF7F9F80546E5
:1051D000314604F1280000F0BBF8A069401CA06132
:1051E00000F049F804F14C0000F088F9012070BD8E
:1051F00004460D46114604F130001AE1F8B500F0FE
:1052000043F8F8B1FEF7DCF800F026F803D1FEF71A
:10521000E1F80020F2BD00F029F800F02FF8DFF8E7
:10522000380390F8AC7000F092F90546314604F16D
:10523000200000F08DF800F009F800F01CF800F0F4
:1052400008F80120F2BD00007C1D002004F13000B0
:1052500054E1384600F0B9BBA66A3168A16204F196
:1052600028024A6004F128018E427047A169491E54
:10527000A161FEF7AFB82846FEF7ACB8E268294650
:1052800006F1080002F00EBC04460D46114604F17A
:105290004C00CEE0F8B505460E466C6904B9EC69E1
:1052A000002706E0214605F1280000F066F83444A6
:1052B0007F1C28698742F5D30020F2BD841D0020A1
:1052C000281C00201CB504460BB90FF220030498DB
:1052D00000902046FFF7F5FE010003D02046FFF7BF
:1052E0003DFF0024204616BD000000000000000025
:1052F00000000000000000000000000000000000AE
:1053000000000000000000002DE9FC4100F013F84F
:10531000682100F0DAFA04000AD0009743463246CA
:105320002946FFF7CFFF18B9682200F0C9FA002418
:105330002046BDE8F68105460E4690461F460022EF
:1053400070470168814201D10120704700207047F9
:105350000DE038B500F06AF82568296821602A68F0
:105360005460FFF73CBC40600060704700BF42687B
:1053700008604A6011604160704738B500F007F876
:105380002C60616869606268156065604AE6044681
:105390000D46FEF715B80168426811604168006863
:1053A00041607047DFE710B5FFF730FE082100F0DD
:1053B0008CFA18B12146BDE81040F3E710BD00207B
:1053C00000F005BE10B5044610782074618204F127
:1053D00014000021FFF7E6FF0021A1600120214613
:1053E000E060BDE81040DFF87809C6E70000000083
:1053F000F94A0000FF4A000000BF00F1140181617A
:1054000000F114024261704738B500F00FF805460C
:10541000207C022803D100F0CEF800F001F800E66D
:10542000002020742946A06800F022BD0446FDF744
:10543000C7BF70B50C468EB0054614F1010F18BFFA
:10544000002C0AD06B462246DFF8181905A8FFF792
:1054500083FC05A90391022202E0002103910322AB
:105460008DF81020FDF7ACFF0646688A002831D180
:105470001CB900F024F9002032E0DFF8900904782C
:105480000121017000690290C0F824D000F0C9FC2D
:10549000694605F11400FFF75BFF9DF81000022834
:1054A00005D10398FFF760FC0398FFF763FC00F059
:1054B00006F9FEF761FCFDF783FF0446039818B177
:1054C000FFF756FC0020039000F012F89DF8100042
:1054D00030B104E0688A411E698200F0F0F80120D2
:1054E0000EB070BD0B4B0000054B00008C1D002062
:1054F0000020029948622046FDF76CBF70B5064651
:10550000154890F8AC4000F022F80546706906F1A5
:105510001401884207D1307CC1074EBF0120708A38
:10552000401C70820DE0726910687061416001205A
:105530001074D06808B1002101752946906800F008
:1055400097FCFFF798FE2046BDE870403DE2012140
:1055500080F8AC10FDF734BF7C1B00200021002236
:10556000002380E80E00704710B504460AB90FF218
:105570000C02FFF727FF204610BD000000000000CE
:10558000000000000000000038B504460D46134638
:1055900000F099F920B12A462146BDE83840E3E7FA
:1055A00032BD38B50446FFF727FFFDF709FF054672
:1055B00000F001F835E52046EDE610B50446206818
:1055C000FFF7EFFF21681C2232E50000B0FA80F0FF
:1055D000C0F11F0070472DE9F843044604F128008C
:1055E000DFF8F058C168D5F81080EF68AE6829611F
:1055F000EC6000238168A96000214268826001702C
:105600002B700120FEF75AFC8146FDF7DDFEE169B3
:10561000A06962699047FDF7D3FE4846FEF74EFC4D
:1056200001202870C5F81080EF60AE60BDE8F183FE
:10563000C025002038B5DFF8AC48E5682068FFF7E2
:10564000C5FF216901EBC00100F091F803D1236887
:10565000416A8B432360FFF7BEFF206830B1FFF73C
:10566000B5FF216901EBC0018D42EDD331BDF8B525
:10567000DFF8944804F58A752F69FDF7A1FE064608
:105680006868FFF7A3FF696901EBC00087420FD28A
:1056900094F8AC70012084F8AC00DFF8700802F0D8
:1056A000D9FB0020287000F00AF83846FFF792BCBA
:1056B000002028703046BDE8F240FDF78BBE304632
:1056C000FDF788BE38B5DFF84848207A38B901219F
:1056D0002172002500F044F96D1C062DFAD331BD6E
:1056E000481E8041C00F7047FFF730B80000002807
:1056F00000D0704710B5FDF763FEDFF80C4804F5E5
:105700008A72516821B1FDF765FEFFF7B0FF02E034
:105710001170FDF75FFE94F8AC00012184F8AC1025
:10572000BDE8104051E1002800D0704738B5DFF8DF
:10573000A4476068C0B1FDF747FEFDF741FE25694B
:105740006068FFF743FF616901EBC0018D420BD236
:1057500000F00DF803D16368416A8B436360FFF783
:105760003AFF60680028ECD10020207031BD086845
:1057700002680A6051600A688A427047DFF8880749
:10578000D0F81C01704710B50446DFF80C3800F063
:1057900081F8606900B90024204610BD38B540602A
:1057A0000060136841610361516881619368C3615E
:1057B000D16811F1010F08BF05210162012303FA2D
:1057C00001F14162002400F128010C7013698B6023
:1057D00012694A60DFF83027046AD2F8283103EBF7
:1057E000C405CD6000F1080102F58670FFF7C5FD24
:1057F000002032BD2DE9F0418046FDF7E1FD08F1C2
:1058000024060446307920B12046BDE8F041FDF77A
:10581000E1BD0120DFF8BC76307141463D7838703B
:105820003069FFF795FD796830680143796000F0D1
:1058300009F815B9BDE8F04119E7BDE8F0810000AD
:10584000941D00202046FDF7C5BD38B5FFF79FFD2C
:10585000216B0D432563FDF7BDFD2046BDE83240B9
:10586000C8E738B50D46044615F1010F08BF0525F8
:10587000FDF7A6FD0121A94061622562DFF88826B7
:10588000D2F8281101EBC5036363FFF7CBBB00001F
:10589000814E000010B504460AB90FF21002FFF75E
:1058A0007DFF00B10024204610BD00000000000074
:1058B00000000000000000000500000000000000E3
:1058C000214600F084BB00221C21002000F066BBB2
:1058D00038B5FFF7ABFD00F043FBFFF7A2BB70B597
:1058E000DFF858470020207101E000F0DBFA206863
:1058F0000028FAD02068FFF769FE6169226901EB90
:10590000C00082420ED2E56820610068E060064671
:105910003146284600F090F806F11C0105F11C0004
:1059200002F010FB20790028DCD170BD10B5DFF843
:10593000DC44207A08B1FFF7D2FF58E038B5DFF831
:105940007048207E38B901212176002500F008F842
:105950006D1C062DFAD331BD000000002826002062
:105960002268002102EBC500FFF71CBD10B596B000
:10597000FDF726FDDFF8C44601E000F093FA206849
:105980000028FAD02068FFF721FE616901EBC00012
:10599000206101460868E060002020710220FEF7C7
:1059A0008DFAE168002000F047F8FDF70DFDFDF7E6
:1059B00007FDFEF7D0FDE06800F11C0107A802F02A
:1059C000C1FA16B010BDFEF7C9BE002800D070475E
:1059D00010B5FDF7F5FCDFF8300500F1AC04217AD5
:1059E000012902BF90F814010028FFF778FF00207A
:1059F0002070BDE81040FDF7E7BC0000741B0020DC
:105A0000002800D0704710B5DFF8FC0400F1AC04AA
:105A1000217A012902BF90F814010028FFF75FFFE7
:105A20000020207010BD000000BFDFF8DC04D0F8BB
:105A3000BC0070479C1D0020BCB504000D4635D04D
:105A4000E06ADFF870770178BE2905D00022009265
:105A500023463A4600F02BF8E86A0178BE2907D0C1
:105A6000002000902B4607F16002002100F086FA2A
:105A7000E06A01A9814222BFA26A8018884207D247
:105A80000091234607F1C0020021002000F076FAC1
:105A9000E869EA6A904222BFAB6AD218824205D214
:105AA00000902B4607F5947200F001F8B3BD002179
:105AB000002063E290F84800012800D0704710B53C
:105AC000FDF77EFCDFF840140446D1F8B800401E14
:105AD000C1F8B80004D1FFF7B5FE0020FEF706FAC2
